:020000040800F2
:10000000081000207DD80008F1D40008F3D40008BF
:10001000F5D40008F7D40008F9D400080000000067
:10002000000000000000000000000000FBD40008F9
:10003000FDD4000800000000FFD4000801D500082E
:100040008DD8000891D8000895D8000805D500087B
:1000500099D800089DD8000843D5000849D5000864
:10006000A1D80008A5D800083DD50008A9D80008E7
:10007000ADD80008B1D8000809D50008B5D80008E7
:10008000B9D80008BDD80008C1D80008C5D80008F4
:10009000C9D80008CDD80008D1D80008D5D80008A4
:1000A000D9D80008DDD80008E1D80008E5D8000854
:1000B000E9D80008EDD80008F1D80008F5D8000804
:1000C000F9D80008FDD8000801D9000805D90008B2
:1000D0000FD5000815D5000809D900080DD900086A
:1000E00011D9000815D9000819D900081DD9000830
:1000F0001BD500081FD5000823D5000821D900080A
:1001000025D9000829D900082DD9000831D90008BF
:1001100035D9000839D900083DD9000841D900086F
:1001200045D9000849D9000827D500084DD900084D
:1001300051D9000855D9000859D9000818B102282A
:1001400006D003D3704700BF03A002E007A000E081
:100150000CA001F03BBC00002A2A204576656E7495
:1001600049443A2041646465640D0A002A2A204506
:1001700076656E7449443A204D6F646966696564BA
:100180000D0A00002A2A204576656E7449443A20FB
:1001900052656D6F7665640D0A00000010B5012888
:1001A000044608D0022809D0042809D0082809D01C
:1001B000102809D00BE000BF18A006E01DA004E045
:1001C00023A002E02AA000E031A001F0FFFB00BF65
:1001D00037A001F0FBFBE00744BF0FF2E40001F0A1
:1001E000F5FBA00744BF0FF2E00001F0EFFB600752
:1001F00044BF0FF2E00001F0E9FB200744BF0FF21B
:10020000E40001F0E3FBE00644BF0FF2E80001F078
:10021000DDFBBDE81040CDA001F0D8BB2A2A204567
:1002200076656E74466C61673A2053696C656E74CE
:100230000D0A00002A2A204576656E74466C6167B7
:100240003A20496D706F7274616E740D0A0000007F
:100250002A2A204576656E74466C61673A20507292
:1002600065204578697374696E670D0A00000000A7
:100270002A2A204576656E74466C61673A20506F75
:1002800073697469766520416374696F6E0D0A0045
:100290002A2A204576656E74466C61673A204E6561
:1002A00067617469766520416374696F6E0D0A0039
:1002B0002A2A204576656E74466C6167733A0000A1
:1002C0002053696C656E740020496D706F727461A3
:1002D0006E740000205072654578697374696E67AA
:1002E0000000000020506F73697469766541637483
:1002F000696F6E00204E656761746976654163744D
:10030000696F6E000B28924923D8DFE800F00609D8
:100310000B0D0F11131517191C1F00BF0DA016E0B0
:1003200012A014E019A012E020A010E026A00EE018
:100330002BA00CE031A00AE036A008E0084606E059
:1003400001F1240003E000BF38A000E03EA001F06E
:100350003DBB70472A2A2043617465676F727949F3
:10036000443A204F746865720D0A00002A2A20431F
:10037000617465676F727949443A20496E636F6DA5
:10038000696E672043616C6C0D0A00002A2A2043C5
:10039000617465676F727949443A204D697373657A
:1003A000642043616C6C0D0A000000002A2A20437F
:1003B000617465676F727949443A20566F69636565
:1003C000204D61696C0D0A002A2A2043617465671B
:1003D0006F727949443A20536F6369616C0D0A006A
:1003E0002A2A2043617465676F727949443A205321
:1003F00063686564756C650D0A0000002A2A204355
:10040000617465676F727949443A20456D61696C22
:100410000D0A00002A2A2043617465676F727949CA
:10042000443A204E6577730D0A0000002A2A2043C3
:10043000617465676F727949443A204C6F636174E7
:10044000696F6E0D0A0000002A2A204361746567F7
:100450006F727949443A20456E7465727461696EB1
:100460006D656E740D0A000070B5DFF8804C4FF6B4
:10047000FF750146A4F8085800220C235343234477
:1004800003F50273187818B198780840884203D0B1
:10049000521C802AF1DB0EE004F6080600203280B0
:1004A000B0700E2222703188DFF8C80C01F08EFA8D
:1004B0003188A94205D1DFF8C00C01F087FA00208D
:1004C000207070BD38B5DFF8244C40F6440120465A
:1004D00001F090FA00200021C5B20C225543401CC7
:1004E0006219C3B2802B82F80812F5DB21704FF637
:1004F000FF706080A4F80808BDE8324001A001F058
:1005000065BA0000414E435320434C49454E5420A8
:100510005245534554200A0D0000000000210820D8
:1005200001F019BB80B50FF2350001F07FFB0FF62B
:1005300051420021082001F000FBFFF7C3FFBDE896
:100540000240DFF8AC0C01F041BA00000A0D0000D7
:100550007CD50008082001F028BB00002DE9F14FF0
:10056000A8B0012028998DF80C004878FF2840F0A9
:10057000B585084640F60143B0F80310DFF86C6B10
:10058000DFF870BCCA1A00F05D85921E00F0668527
:10059000521E00F00F82521E00F01D83521E00F00A
:1005A0001781121F0DD0521F00F04683521E00F01B
:1005B0006A85521E00F07D85521E00F0078300F010
:1005C00085BD41F2483000F0B7FD00F0A9FD0BF207
:1005D0001C4001F0FBF900F0A9FD40F0F680C8795D
:1005E0000B460246197A91FBF2F2D2B2142804BFEC
:1005F00004274FF00C08062804BF04274FF000081A
:1006000006F608053E461C46CDF8148004920027E5
:100610000EE000F07BFD0BF23C5003E000F076FDB5
:100620000BF5E56001F0D2F9E0798619F6B27F1C8E
:10063000049AF9B2914280F25485A01943798279E3
:1006400043EA0229A31904F10800DB79825D0598C9
:1006500043EA0228801904F1090304F10A021B5C31
:10066000105C049ACDF8048043EA002ACDF800908B
:1006700053460BF5926001F0A9F9688908B18145EC
:1006800001DAA5F80A90A88908B1404501DAA5F871
:100690000C80BAF5C05F08D1A5F80E90A5F81080BF
:1006A00000F034FD0BF2D440BCE741F60100824576
:1006B00009D10146A5F81A90A5F81C8043464A4680
:1006C0000BF5A060AEE741F602008245A1D041F6ED
:1006D00003018A4504D143464A460BF5AD60A1E7C4
:1006E00041F60400824504D100F02DFD0BF29C5030
:1006F00098E741F60500824504D100F024FD0BF592
:10070000BA608FE741F60600824504D100F01BFD78
:100710000BF5C16086E741F60700824504D100F081
:1007200012FD0BF5C9607DE741F60800824504D152
:1007300000F009FD0BF5D06074E741F60900824531
:1007400004D100F000FD0BF5D6606BE741F60A001E
:10075000824504D100F0F7FC0BF2EC6062E741F651
:100760000B0082451CBF41F60C018A453FF456AF91
:1007700041F60D008245A9D041F60E018A4504D10B
:1007800043464A460BF5EA604CE741F60F008245C6
:1007900004D100F0D8FC0BF2847043E74FF23140F3
:1007A000824509D10146A5F82690A5F82880434640
:1007B0004A460BF2B47035E745F22B00824585D0EE
:1007C00000F0A4FC0BF2E4702CE70BF60C00F0E058
:1007D00041F2783000F0B0FC00F0A2FC0BF66800AB
:1007E00001F0F4F800F0A2FC40F0E180C8790A7A48
:1007F000114691FBF0F1C9B2152804BF4FF005096D
:100800000C24072804BF4FF005090024501E289A25
:1008100010724FF0000ADDF8A080059406F6080576
:10082000049111E000F06EFC0BF5176003E000F09E
:1008300069FC0BF6444001F0C9F898F807004844F9
:100840005FFA80F90AF1010A049A5FFA8AF191428B
:1008500080F2478408EB09000679437908EB090424
:1008600046EA0326A37908EB090208F10907D479BF
:10087000027A0598484444EA02243F5C08F10A02DF
:10088000105C57EA002718BF002BD6D0002E18BFE7
:10089000002CD2D0019400963A460BF6D40001F019
:1008A00095F8B7F5285F04D100F02CFC0BF5146027
:1008B000C1E742F601208742B4D042F602218F42BE
:1008C00004D100F01FFC0BF51A60B4E742F60320D8
:1008D00087421CBF42F604218F42A3D042F6052076
:1008E000874207D1EE8301462C84234632460BF61D
:1008F000DC10A0E742F61920874204D100F01FFC6B
:100900000BF5226097E742F62B20874204D100F0D6
:1009100016FC0BF654208EE742F60F20874204D1D6
:1009200000F00DFC0BF6882085E742F6292087426F
:1009300004D100F004FC0BF6C4207CE742F624202E
:10094000874204D100F0FBFB0BF5316073E741F205
:100950000D20874207D16E8501462C8623463246FC
:100960000BF6583067E74DF6F300874207D1AE85A6
:1009700001466C86234632460BF698305BE74CF214
:10098000E960874207D1EE850146AC8623463246B0
:100990000BF53D604FE742F6A62087427FF447AF54
:1009A0006E82AC8200F0AEFB0BF6084043E70BF61C
:1009B00074407BE30BF59D5001F008F800F0B0FBAC
:1009C0000BF6CC4001F002F800F0B0FB40F0FB80E9
:1009D000C879012804D14FF002094FF0000804271C
:1009E000022804D14FF002094FF00C081227087AB0
:1009F000289CDFF8C4ACCDF81080F9B290FBF1F17F
:100A000006F60805C9B200200BF559624E46019260
:100A10008846814612E0009202460BF6BC5007E081
:100A2000B5F832E0F445F6D12A87009202460198E3
:100A300000F0CCFFBE19F6B209F101095FFA89F0A6
:100A4000404580F24E83E21D04F10800925D815D15
:100A5000049842EA0122801904F1090104F10A0311
:100A6000095C185C41EA0021B1F5205F04D10BF666
:100A7000285000F0ABFFDDE742F6030081420BD1C6
:100A80000023AAF80030AAF80430AAF80630AAF821
:100A900002200BF65450ECE7B1F5245F1CBF42F680
:100AA0000210814275D0AAF80010AAF80420B1F50E
:100AB000285F08BF0BF6FC50DBD042F601208142D4
:100AC00064D042F60223994208BF0BF65460D0D09E
:100AD00042F6032081421CBF42F60423994255D0BE
:100AE00042F60520814203D101460BF68C60C0E737
:100AF00042F61920814203D101460BF56D60B8E73B
:100B000042F62B20814203D101460BF57060B0E71D
:100B100042F60F20814203D101460BF57360A8E72E
:100B200042F62920814203D101460BF66870A0E706
:100B300042F62420814203D101460BF57B6098E701
:100B400041F20D20814203D101460BF6F47090E78B
:100B50004DF6F300814205D1014641F238030BEB1B
:100B6000030086E74CF2E960814203D1014641F27D
:100B70007803F4E742F6A620814219BF41F2F8005B
:100B8000584441F2B4030BEB030072E70BF6286004
:100B90006FE7AAF80620BAF804C0B5F820E0BAF862
:100BA00002006346F44508BF6A840BD0B5F830E014
:100BB000F44508BFEA8605D0B5F834E0F4457FF483
:100BC0002FAF6A8731E741F234106EE241F2C4314F
:100BD0000BEB01006AE241F2F83000F0ADFA289820
:100BE000C279B0F805100BF5377000F0EFFE289CC5
:100BF00000270EE004F10A0104F1080031F8273063
:100C000030F8272039460BF54F7000F0DFFE7F1CCF
:100C1000FFB2E0798742EDDB317808290BD12189D9
:100C2000DFF8500B0190C1840198628902850BF5B1
:100C30006B7000F0CBFE54E2437AB0F80720B0F8B6
:100C4000051041F28810584400F0C0FE00F06EFA22
:100C500040F0F581B1F8070006F608010A8E9042CF
:100C60004DD141F2F81000F067FA2898877AC47ADB
:100C7000D0F80E5090F80D9090F80CA00BF5217064
:100C800000F0A4FE3846FFF759FA2046FFF786FA2F
:100C90005046FFF737FB49460FF6FC3000F096FE52
:100CA00029460FF60C4000F091FE022F14D10021CE
:100CB0000C2000FB01F2324402F502729368AB4251
:100CC00003D0491C8029F4DB19E0002010700FF6D6
:100CD000004000F07BFE12E000210C224A43324427
:100CE00002F502721078B0B3491C8029F5DB37B9E0
:100CF000E00704D42046FFF7B7FBFFF70FFC289A64
:100D0000B2F8070006F608018A8E904293D128981F
:100D1000847A802108A800F06DFE0BF1A400210068
:100D2000069040F0E88041F2342000F005FA28985F
:100D3000417A4A1F92B2002406F1860106F58373B8
:100D400006F6080E0027A046A14605910493CDF8AB
:100D500004E0079211E0012010705770947082F83F
:100D600003A082F8049095600FF6843000F02EFE08
:100D7000BDE709F103001FFA80F90798814580F269
:100D8000A7802898484400F110010222684600F02C
:100D900059FF00F0ADF9ECD00199887808BB0D88B7
:100DA0000BF1500000F012FE0C2000FB05FAB244DB
:100DB0000AF209252878FFF7C1F96878FFF7EEF9FC
:100DC000A878FFF79FFAE9780FF6702000F0FEFD93
:100DD000DAF810120FF67C2000F0F8FD01990120DE
:100DE000887028994944C87B07281ED8DFE800F09E
:100DF000191613100D0A07040FF6102013E00FF652
:100E0000F01010E00FF6DC100DE00FF6C4100AE051
:100E10000FF6AC1007E00FF6981004E00FF6841000
:100E200001E00FF66C1000F0D1FD28984844C07B1B
:100E300008B9012407E0062808BF012703D00728C6
:100E400008BF4FF00108BDF8002009F10100FF2A9A
:100E500085B209D800F05EF900F0F4FE0499BDF8FF
:100E600000200020885409E000F046F900F052F913
:100E7000FE2200F0E7FE002086F80402BDF8009094
:100E8000A94409F102001FFA80F9200017D0BDF82B
:100E90000020521C802A07DC0499059800F0D2FE3D
:100EA000BDF80000401C05E004990598802200F080
:100EB000C9FE802086F8850000240F20307000F0E5
:100EC00017F904D004990FF6C81000F07FFD54E71D
:100ED00030780F2808BF0BF1EC0006D058EA07075E
:100EE00004D0102030700BF5B670A3E000203070F5
:100EF0000BF5DA709EE0012C40F09E8041F29C20C0
:100F000000F01AF928980FF6881A00F10B0108A8CA
:100F100000F0A8FE28980B3000F0B0FE28994A7A1D
:100F200080B2121A971E01F10C02BFB202EB000848
:100F3000002506F5837901E0ED1CADB2BD4259DA1A
:100F400008EB0500411C0222684600F07BFE00F021
:100F5000CFF8F1D018F80540584600F037FD1CB91D
:100F60000FF6C40000F032FD18F80500BDF80020AF
:100F7000441EA441E40F6D1CFF2AADB20BD808F14A
:100F800002004119484600F05DFEBDF80000002156
:100F900009F800100BE000F0AFF808F10200411969
:100FA000FE22484600F04EFE002186F80412284634
:100FB000BDF800502D18AD1CADB29CB1BDF800209D
:100FC000521C802A07DC4946701D00F03BFEBDF82C
:100FD0000000401C05E080224946701D00F032FEF2
:100FE0008020307100F084F8A8D04946504600F0C7
:100FF000EDFCA3E706F608040C27218806F20B2077
:1010000007FB01F2805C012818BF05280CD00BF506
:10101000147000F0DBFC218806F502704F430022BB
:10102000C2551123337007E0012020721021317066
:101030000BF5027000F0CAFCFFF770FA51E041F2C4
:10104000F42032E0B0F80B30B0F80920B0F8071007
:1010500041F22840584400F0B9FC42E0B0F80720C3
:10106000B0F8051041F28C40584400F0AFFC289ACB
:1010700006218DF80810B2F80500ADF80A0002A8A4
:1010800000F01CFB2DE0C27932B1B0F8051041F23E
:10109000FC40584400F09AFC00F048F803D10820C6
:1010A00000F07BFD1DE041F25C50584400F08EFCE6
:1010B00017E0817A289800910389C279B0F8051069
:1010C00041F2B050584400F081FC0AE00FF63C00B9
:1010D00000F07CFC00208DF80C0002E000218DF86F
:1010E0000C109DF80C0029B0BDE8F08F08210020FD
:1010F000BDF8000000287047BDF800100698FF22D8
:1011000000F064BC234632463946704743464A469F
:10111000514670472898284400F1110104987047FF
:101120002898037AC279B0F805107047289970881A
:10113000B1F8052090427047584400F047BC014682
:10114000234632467047014643464A467047704739
:1011500080B5DFF8240600F039FCDFF8202650883F
:10116000ADF8020011218DF80010684600F0A6FAD3
:1011700001BD000070D30008C8D30008704700000C
:1011800010B5DFF8F8452178052908D0082908D0DE
:101190000E291FD00F291FD010291FD022E00020B8
:1011A00015E0012000F028F8022000F025F80320C7
:1011B00000F022F8042000F01FF804F62E01088841
:1011C00000281EBF4888002801F077F90520BDE8F7
:1011D000104011E0002002E0012000E00220BDE804
:1011E000104081E1BDE81040DFF8940500F0EEBB4F
:1011F000D4D700081C9600082DE9FF41DFF87C7564
:10120000DFF88055052807F6120447F2305810D849
:10121000DFE810F00600260077009C00DD000C01DE
:10122000042038704FF4046278889C2101F0A7FAFA
:10123000002840F04A814FF404629C21284600F0C7
:10124000C5FB05203870788801F003FC00F03FF9F9
:1012500014B905F14C0030E1214605F1700032E18E
:10126000082200213A708DF801102D2212218DF8EC
:1012700002208DF803101E224B218DF804208DF8DA
:1012800005100F22A4218DF806208DF80710992251
:101290004E218DF808208DF80910CE22B5218DF849
:1012A0000A208DF80B103122F4218DF80C208DF8D6
:1012B0000D10D0208DF80000052279218DF80E2028
:1012C0008DF80F106A467888022101F001FC0100B8
:1012D00004D105F1A40000F079FB03E005F1F00072
:1012E00000F074FB00F0F4F8E28BA18B21B9002A26
:1012F0006CD105F5A670E0E0002A67D005F5D67040
:1013000062E007203870788801F0BEFB00F0E3F857
:1013100026B905F5067000F059FB04E0314605F5E5
:10132000197000F053FBE28BA18B21B9002A4DD13B
:1013300005F53170C1E0002A48D005F5437000F092
:1013400045FB628A218A05F558703DE00920387016
:10135000A08B0190009063882288798805F56D70D4
:1013600000F034FB62882188788801F0DEFB00F011
:10137000B2F8002E0CBF05F2244005F2544000F0F4
:1013800025FB218C00291FBFE28C002A05F27C403E
:1013900000F01CFBA18C00291FBF628D002A05F5FF
:1013A0009E6000F013FB618C00291FBF228D002A74
:1013B00005F2545000F00AFBA18A00291CBFE28A02
:1013C000002A03D005F2BC5000F000FB7DE00A20AB
:1013D00038706288218805F5C46000F0F7FA6288E9
:1013E0002188788801F0C1FB00F075F8002E0CBF51
:1013F00005F24C6005F5D16000F0E8FAA18D19B155
:1014000005F2BC6000F0E2FAE18D19B105F204705A
:1014100000F0DCFA218E19B105F2447000F0D6FA22
:10142000218B002951D005F284704CE00120218BE2
:10143000ADF80000A9B10D2038706B467888022203
:1014400001F0DBFB00F047F8218B26B905F2C470F0
:1014500000F0BCFA05E033460C2205F60C0000F063
:10146000B5FA228EC2B10C20387005F50860798873
:1014700000F0ACFA218E00F032F800F02CF826B91A
:1014800005F6BC0000F0A2FA06E0218E33460C22DD
:1014900005F6FC0000F09AFAA28DB2B10B2038706C
:1014A00005F51760798800F091FAA18D00F017F822
:1014B00000F00DF824B905F6B41000F087FA04E046
:1014C000214605F6FC1000F081FABDE8FF810446D4
:1014D0004046FFF73FB806464046FFF73BB87888DE
:1014E0006B46022201F089BB2DE9F843A34FDFF8D8
:1014F0009892A0B007F5047407F6080547F2305833
:101500000C264FF6FF7220B1022800F0888055D3D8
:10151000CEE00E20387028889042014601D0802904
:1015200002DB09F1340084E0714309F17000615875
:1015300000F04CFAB5F80000CEA146436846A45925
:10154000142201F0F1FB00208DF80000220C200A8B
:101550008DF802008DF8032000208DF8050001228F
:1015600028208DF807008DF8062002208DF808202D
:101570008DF80900282228208DF80A208DF80D000A
:10158000032204208DF801408DF80C208DF80F0007
:101590000721240E0123052206208DF812108DF854
:1015A00004408DF80B308DF80E308DF810208DF83A
:1015B00011006B46698E7888132225E00F20387061
:1015C00007F1860497F88510224609F1D80000F04B
:1015D000FDF997F885608021684600F00BFA01203C
:1015E0008DF8000000216B4605E014F801C003F8F7
:1015F00000C01046491C421CB142C0B2F5DB0021BC
:101600001954D2B2698E788801F0D5FA0446404662
:10161000FEF7A0FF002C4BD02146484609E01020E1
:10162000387028889042014601D0802904DB09F5F2
:101630008E7000F0CBF93BE006FB01F0002322584E
:1016400009F5AC7000F0C2F9288800BF8EA2704383
:1016500002212058D2E90034CDE900348DF8010090
:101660008DF80010020A030C000E8DF804008DF8AE
:10167000022000208DF803308DF805006B46698E3E
:101680007888062201F097FA04464046FEF762FF8A
:101690001CB12146484600F099F9298809F5D67011
:1016A00000F094F928884643B819002180F8081200
:1016B00021B0BDE8F08300007C2F002010B5017838
:1016C0002E4C01290CD0022912D0032915D005294E
:1016D0001DD0062921D008292CD0112930D010BDC9
:1016E00042882A4862800821217000F06FF93DE0AD
:1016F0008CA000F06BF9022004E000BF8FA000F086
:1017000065F903202070BDE81040FEF7DBBE00BF86
:1017100091A000F05BF9052010E000BF93A000F05D
:1017200055F92078052804BF082000F036FA062075
:10173000207010BD95A000F049F90820207015E038
:10174000217000BF99A000F041F90021C8B20C221D
:101750005043221802F50272107820B9491CCAB20F
:10176000802AF3DB10BD9078FEF77EFEBDE81040C6
:10177000FEF7D4BE10290020ECD600080821002076
:101780003CD7000880AC0008F4C90008B8D60008AF
:101790002A2A204170704964656E746966696572B1
:1017A0003A2000002A2A205469746C653A2000000F
:1017B0002A2A205375625469746C653A200000002F
:1017C0002A2A204D6573736167653A200000000086
:1017D0002A2A204D65737361676553697A653A20DB
:1017E000000000002A2A20446174653A20000000AD
:1017F0002A2A20506F736974697665416374696F32
:101800006E4C6162656C3A20000000002A2A204E6E
:1018100065676174697665416374696F6E4C616276
:10182000656C3A20000000002A2A20446973706C1D
:1018300061794E616D653A20000000002A2A20433C
:10184000617465676F7279436F756E743A202564B1
:101850000D0A00002A2A204E6F746966696361745C
:10186000696F6E5549443A203078253038780D0A32
:101870000000000000000000000001FFFF02FFFF69
:1018800003FFFF040506070002000000000000003F
:101890002025730D0A0000002A2A20436174656721
:1018A0006F7279436F756E743A202564200D0A00BB
:1018B0002A2A204E6F74696669636174696F6E5578
:1018C00049443A2030782530386C78200D0A0000E1
:1018D0002A2A206E6F74696679456E7472793A208F
:1018E00025642052656D6F7665640D0A0000000066
:1018F0002A2A206E6F74696679456E7472793A206F
:1019000025642041646465640D0A0000696E766197
:101910006C69642065636F646520307825303458C5
:101920000A000000414E43535F444953434F4E4E1B
:10193000454354494E47200A0D000000414E435391
:101940005F444953434F4E4E5F434F4D504C4554B7
:1019500045200A0D00000000414E43535F4D545591
:101960005F555044415445200A0D0000414E4353F9
:101970005F4D54555F45584348414E47455F434F7F
:101980004D504C455445200A0D000000414E435334
:101990005F444953434F5645525F414E43535F5353
:1019A000455256494345200A0D000000203D3D3E6A
:1019B00020414E43535F434845434B5F4E4F54498C
:1019C0004649434154494F4E200A0D000EB41EB5FE
:1019D000024605A801900024009401AB01210448AF
:1019E00078440C3001F0AFF903B010BC5DF810FB87
:1019F00075BE0000002202F00BB92E002DE9F84F51
:101A00007D4CDFF8F8912569284020614FF0FF3ABE
:101A1000A06800904FF0010B6669E768D4F8188061
:101A200019E062680BFA01F122EA0101616066685F
:101A30008047606806406660E06902F002F9A068CD
:101A400000906669E768D4F81880E169206A0BFAAB
:101A500001F108432062009822693840104250D0BA
:101A600016EA080F4DD1002007EA020100E0401CF1
:101A700054F830301942FAD054F8301004EBC00357
:101A8000394058680A40104208BFC3F804A0A06853
:101A9000D4F820C059686CEA010C20EA0C0012EA64
:101AA000000118BF0A4608B94FF0000C5868C4F886
:101AB00020C0104000F0A4F8E061EFF3108172B68E
:101AC0000BFA00F2A068D2431040A060012004EBA2
:101AD000C003401E53F808CC02EA0C0C43F808CCB3
:101AE000F5D181F31088E06902F0ACF8E1692029B2
:101AF00003D259F82100002893D1002002F0A3F866
:101B0000A9E7C4F81CA0A069064213D102F09CF812
:101B1000EFF3108672B6A2686169E068236902403B
:101B20001A4202BFA069014202F0DBF986F3108875
:101B300002F0D4FA2561BDE8F18F38B5144600F003
:101B400006F82E4941F8204085F3108831BDEFF3A7
:101B5000108572B654E030B5EFF3108272B6264BA2
:101B60009C6804439C6053F83150284343F831008B
:101B700082F3108830BDEFF3108172B61E4AD3682D
:101B800023EA000005E0EFF3108172B61A4AD36829
:101B90001843D06081F310887047EFF3108172B65C
:101BA000154A536918435061F4E72DE9F041124D8D
:101BB000EE690446374616F1010F0EBF00260120DC
:101BC00000FA06F6D5F81880AC6103E021463046ED
:101BD00002F085FA68692042F8D0EF61EFF31080D7
:101BE00072B6696921EA04046C6180F31088C5F853
:101BF0001880BDE8F0810000AC200020B02C00204F
:101C0000B0FA80F0C0F11F00C0B270470B4900204D
:101C1000087700220A48027302F064BA07490A7F73
:101C200041F82200087F401C0877704704490A7B6E
:101C300041F82200087B401C087370470C2F0020DD
:101C40005C2F002010B5044601F06EF8204610BD50
:101C500010B5044610460A460146204602F06AFACC
:101C6000204610BD5FEA000C11F8012B00F8012B93
:101C700012B111F8012BF9E76046704700F101033A
:101C800010F8011B11B110F8011BFBE7C01A7047D7
:101C9000F8B596B0DFF8F04807A821463C2201F0DD
:101CA00043F8DFF8E8680FF659170FF63D10009675
:101CB0000197694602F048FA0121022002F01DFB5B
:101CC000DFF8CC2800210420FFF737FF07A802F037
:101CD00033FB38B1014604F13C00FFF777FE02F018
:101CE00074FC03E004F17400FFF770FE0FF6B0100F
:101CF0000088ADF81A0004F19C00FFF767FE00F0C1
:101D000019FD010004D004F1C800FFF75FFE03E0F5
:101D10000FF69010FFF75AFEDFF87808DFF87858D2
:101D2000016811F1010F0ED042682974120A090AE4
:101D30006974110A4068EA74A874120C29756A75EE
:101D400005F1100606E0002002F040FC060008BF86
:101D50000FF6B01632460621002002F04BFC28B1E7
:101D6000014604F1F800FFF731FE10E004F5AE7013
:101D7000FFF72CFE3078029071780191B0780090D6
:101D8000F3783279717904F5D870FFF71FFE707916
:101D90000FF67812287231796972F078A872B178EA
:101DA000E97270782873182031786973102102F075
:101DB00021FC28B1014604F5F670FFF707FE03E0A9
:101DC00004F51170FFF702FE0FF6501210210820E3
:101DD00002F010FC28B1014604F52370FFF7F6FD70
:101DE00003E004F53970FFF7F1FD1821012002F03E
:101DF00017FC28B1014604F54B70FFF7E7FD03E03F
:101E000004F55B70FFF7E2FD00F044FD28B10146E8
:101E100004F56770FFF7DAFD03E004F57470FFF76F
:101E2000D5FD0DF1160006A90190009105AB072222
:101E30000021012002F0F6FC28B1014604F57D7076
:101E4000FFF7C4FD03E004F22440FFF7BFFD0FF6E7
:101E50007400BDF8181000900523BDF8140000228E
:101E600000F0D4FD002814BF04F5896004F59060EB
:101E7000FFF7ACFD0DF11A0000900223BDF816101B
:101E8000BDF81400002200F0C1FD002814BF04F5C5
:101E9000976004F2EC40FFF799FD02220221002036
:101EA00000F0C6FC28B1014604F5A460FFF78EFDE2
:101EB00003E004F25C50FFF789FDDFF8E0660320E1
:101EC000307002F052FC28B1014604F5B160FFF712
:101ED0007DFD03E004F5B960FFF778FD0020707028
:101EE00008211020317170710021DFF8B406F17003
:101EF000B06001210020B1707073C1B231448873A9
:101F0000401CC1B21029F8DB002004900023B16806
:101F1000F07803910290012271793079019100905B
:101F20007178B07802F035FC28B1014604F5BF6045
:101F3000FFF74CFD03E004F24460FFF747FDB07883
:101F400060B102F00FFD28B1014604F5D060FFF743
:101F50003DFD03E004F5D860FFF738FD04F5DE60D1
:101F6000FFF734FDFFF752FE00204FF6FF7186F8B1
:101F70009000F18401200FF2D5420021FFF7DDFD32
:101F800002F00EFE02F036FE8920E870FEF7CAFA73
:101F90000FF2B143002206F19101002003F008F88E
:101FA00006F128000122022102700D234170837086
:101FB0000170032331441822037081F82920802006
:101FC0002883A0216983012000F0CCF917B0F0BD6F
:101FD0002DE9F8432DED028B044688B06178DFF8D7
:101FE000BC55DFF8C095052905F1900605D03E29BE
:101FF00023D0FF2900F0CA8074E1A088E98C8842D0
:1020000017D10022EA8432704846FFF7DFFCA2793C
:10201000A18809F12C00FFF7D9FC03208DF81C00E2
:1020200007A8A188ADF81E10FFF748FB0420FFF7B2
:10203000B4FD012000F096F954E1E0780A27012868
:1020400009F19C089FEDC58B3ED0032802D00C28D7
:1020500016D047E109F16800FFF7B8FCB4F80B00AF
:1020600047430197B4F809500095B4F8070003F00E
:10207000C7F853EC182B03F0D1F800F039F931E12F
:1020800009F58470FFF7A2FC207900280CBF0FF23D
:1020900084500FF28C50FFF799FCE88C06AA0DF1E2
:1020A000190100F09DFB10B10FF2845010E109F509
:1020B0009C70FFF78BFC9DF818209DF8191009F50E
:1020C000AE70FFF783FC0DE1707802F099FFB4F871
:1020D000051009F5C070FFF779FC607A0290A17ACB
:1020E0000191E07A0090237B627BA17B09F5E4708B
:1020F000FFF76CFCB4F8130047430197B4F81100E4
:102100000090B4F80F0003F07BF853EC182B03F0A9
:1021100085F800F0EDF8307804280CBF0620052083
:102120003070B4F80500E884617A0591A07A0490D3
:10213000E17A0391207B0290617B0191A07B00906A
:10214000237AE279B4F8051009F50670FFF73EFC32
:10215000B4F805007080217A7171A07BF072617B08
:10216000B172207B7072E17A3172A07AF071617A7B
:10217000B17100F06DF901208DF81C0007A8B4F8CA
:102180000510ADF81E10FFF799FAABE0B4F80300A4
:102190004FF48061401A16D0401E65D0401E15D005
:1021A000401E24D0801E25D0801E00F08F80401E4F
:1021B00031D0401E35D0401E30D040F60401401AC8
:1021C00000F089808EE009F5297081E009F535700D
:1021D000FFF7FCFBE88CDFF8D01302F009FB0100ED
:1021E00018BF09F53F7010D109F54C7070E009F582
:1021F00056706DE009F56170FFF7E8FBE88C02F0BE
:10220000F1FB28B1014609F56A70FFF7DFFB69E0D1
:1022100009F576705CE009F5806059E009F22C4020
:1022200056E009F25C40FFF7D1FBD4F807100FF23B
:102230002040FFF7CBFBD4F807100FF23040FFF738
:10224000C5FBE88C012102F03DFC28B1014609F5EF
:102250009260FFF7BBFB03E009F59C60FFF7B6FB5C
:10226000032000F03DF93DE0237AE279B4F805104F
:1022700009F5A560FFF7AAFBE179012903D1227ACC
:1022800009F5B06004E0022907D1227A09F21C6046
:10229000FFF79CFB00F002F911E081B93479757BFE
:1022A000B77B00F0D5F8B07B029001972B46717B8D
:1022B0003279009109F2B4602146FFF787FB307B49
:1022C00001280FD10420FFF768FC0BE009F5E4605A
:1022D000FFF77CFB06E009F5E960FFF777FBE88C88
:1022E00000F0B5FC08B00120BDEC028BBDE8F28324
:1022F00002460B464046FFF769BB80B5FEF727FF55
:102300000FF28030FFF762FBA448B0F89200BDE8FE
:10231000044020E0FEF71CBF38B5FEF72FFFA34CAA
:102320002046FFF753FB9D4800F1920500F196010E
:10233000E87802F0D9FB02F039FB28B1014604F13C
:102340005000FFF743FB03E004F18400FFF73EFB7E
:102350002888BDE83440132102F016BB00000000BD
:102360000000F43F2DE9F84787B004468A4F012862
:1023700007BF3E8BB7F81A904FF4C8664FF47A69DE
:10238000DFF818A2DFF828820AF19005687802F0D9
:1023900037FE022C10D12878012818BF02280BD153
:1023A00002F07FF9010003D04046FFF70FFB03E086
:1023B00008F14C00FFF70AFB0020069005900AF197
:1023C0002902049206229AF828000FF26031039045
:1023D00002910192002300932C704A46314600205E
:1023E00002F071F928B1014608F19400FFF7EEFA06
:1023F00003E008F1CC00FFF7E9FA39460E2002F0BD
:1024000061FA01000AD0012C0CBF08F1F80008F5B0
:10241000967008B0BDE8F047FFF7D8BA012C0AD192
:1024200008F5B270FFF7D2FA6878624908B0BDE8E3
:10243000F04702F02BBE08F5C67008B0BDE8F047C3
:10244000FFF7C4BA00210120FFF785BB022089E70E
:102450001FB5524800F1920400F19601E07801ABFB
:102460000DF1020202F0EFFA401E8041C00FA07091
:102470006A4620880DF1010102F03CFA9DF8011036
:102480009DF80020E172227338B99DF800309DF864
:102490000120A1784848FFF799FA1FBD80B5474849
:1024A000FFF794FA3D4800F1960190F8950002F08C
:1024B0001BFBBDE8014002F079BA80B5FFF7C8FF09
:1024C0003F49087830B1012801BF487A0128887A4D
:1024D000012803D1BDE80240012001E001BD000058
:1024E00070B50428374C384E47F230554AD8DFE8EB
:1024F00000F03303192C22000121A172208802F080
:10250000C8F901001CBF3046FFF760FA06F1500021
:10251000FFF75CFA284600F059F80020A07206F197
:1025200084002BE069A0FFF751FA20881C49BDE820
:10253000704002F05DB9218806F1B800FFF746FA55
:102540002088BDE8704002F04DBA2088012102F0D9
:10255000B9FA06F1EC0011E064A0FFF737FA208821
:10256000132102F011FA01001CBF06F5A870FFF755
:102570002DFA284600F02AF806F5BA70BDE870403A
:10258000FFF724BA70BD00003CBE0008AC08032071
:10259000874100088075FF1FD0200020582A0020A6
:1025A00007B20100CCB6000840E2010070D100087B
:1025B000DCCB000846E0010048D600080CD6000835
:1025C000EC2A0020EA2A002098CD00080420FFF71A
:1025D000ECBA00210420FFF7BEBA0120FFF7DDBAF4
:1025E0000120FFF7E2BA000010B50446616801F16E
:1025F000080002F0E9FE00B10120207010BD0000CB
:1026000010B1012803D070477F20FFF7B4BA7F20B4
:10261000FFF7B9BA737461747573206F6B200A0089
:10262000737461747573206E6F6B200A0000000074
:102630003D3D3E3E206863695F6C655F7265616425
:102640005F706879203A206661696C0A0D000000AD
:1026500020202020202D206E756D657269635F76C5
:10266000616C7565203D20256C640A0020202020C7
:10267000202D204865785F76616C7565203D2025AA
:102680006C780A000A202A2A205465726D20434F74
:102690004E4E454354494F4E202A2A20200A00001E
:1026A000400300002020537563636573733A20680C
:1026B00063695F726573657420636F6D6D616E64CD
:1026C0000A0000004852414E430000004741505F5D
:1026D00050524F435F504153535F4B45595F5245F2
:1026E00053504F4E5345200A000000007465726D30
:1026F000696E61746520636F6E6E656374696F6E79
:10270000200A00006C7AD8AC577200001234567858
:102710009ABCDEF0123456789ABCDEF0FEDCBA09C0
:1027200087654321FEDCBA09876543210948524188
:102730004E43000000B587B000F040F80321ADF82B
:102740000410ADF806100122069200F09DF8002852
:102750004CBFFF209DF8000007B000BD0791049218
:10276000CDF818D0002102A801F040BDADF8061048
:10277000082070470491ADF804000321704778B534
:10278000C7B006460D461446032200F020F8ADF807
:102790001C60ADF81E50ADF8204000F012F8222168
:1027A000FFF7E4FF0621FFF7E5FF00F06AF80028D5
:1027B0004CBFFF209DF8000048B070BD00208DF890
:1027C00000001822002101A8FFF742BA09220021C7
:1027D0006846FFF73DBA1822002102A8FFF738BA71
:1027E00070B5C8B006460C4615460522FFF7EFFF48
:1027F000ADF82060FFF7EFFF3021ADF80A10082098
:1028000002210591ADF80800052108AAFFF7A6FFEF
:10281000002848BFFF2009D49DF8000030B99DF87A
:102820000300207000209DF80410297048B070BD8E
:1028300018B5C7B000F018F8312200F009F800F020
:1028400023F800284CBFFF209DF8000048B010BDC1
:10285000ADF806200821ADF804100322049207A960
:10286000039101220692704700248DF81C008DF818
:10287000004007A8417082700021182201A8FFF7CC
:10288000E7B907AA06910392CDF814D0002101A858
:1028900001F0ACBC00B587B000208DF8000000F05E
:1028A000D1F940F2011200F030FA00F0F1F90028FD
:1028B0004CBFFF209DF8000007B000BD2DE9F84196
:1028C000C7B00446884616461F46012808BF0220A6
:1028D00003D002280CBF102000200DF11D031D188D
:1028E00000F035F8012C8DF81C4002D0022C1AD0D3
:1028F0001BE00224224641460DF11D00FFF7A2F91C
:102900002E706F7000F09EF900F096F94FF481710F
:1029100000F017F8E41C0692049400F0B9F90028BE
:1029200005D5FF2009E01024E4E7972005E09DF895
:10293000000010B94E9800F064F8FFE748B0BDE819
:10294000F081ADF80400ADF80610032270470322B1
:1029500000216846FFF77CB92DE9F64F0C46C7B059
:1029600005469946012C08BF022003D0022C0CBF5B
:10297000102000200DF11F031E18FFF7E8FF012CA7
:10298000ADF81C508DF81E4002D0022C2CD02DE04A
:102990000227DDF85881DDF854B1DDF850A1539DD0
:1029A000529C48993A4600F002F9A6F80090B4709B
:1029B000F57086F804A086F805B086F8068000F069
:1029C00041F93F204FF4827107AAADF80400ADF839
:1029D000061003920A3703220497069200F058F972
:1029E000002805D5FF2009E01027D2E7972005E051
:1029F0009DF8000010B9579800F003F849B0BDE801
:102A0000F08FBDF8011001800020704778B5C7B085
:102A10001D464C9B00F067F900268DF800608DF88C
:102A200021502A4619460DF12200FFF70BF900F05C
:102A300009F900F001F94FF4837100F06EF9AD1D52
:102A400000F024F900284CBFFF209DF8000049B099
:102A500060BD00B5C7B000F02CF800F0F1F800F050
:102A600097F840F20B1200F028F800F011F9002856
:102A70004CBFFF209DF8000047B000BD0023ADF81B
:102A80001C008DF81E10704700B5C7B000F011F89B
:102A900000F0D6F800F07CF84FF4897200F00DF8E1
:102AA00000F0F6F800284CBFFF209DF8000047B06A
:102AB00000BD0023ADF81C0070470F210291ADF856
:102AC00006200221049107AA012106910392704772
:102AD00018B5C7B0134600228DF8002002290CBF9C
:102AE00010240224FFF7CBFF2246194600F05FF8BE
:102AF00000F0A8F840F2131100F00DF80122E41CD8
:102B00000692049400F0C4F800284CBFFF209DF802
:102B1000000048B010BDADF806100F2202923F2011
:102B200007A9ADF804000391704718B5C7B000F0CD
:102B30000FF800F02DF840F2151200F02DF800F01B
:102B4000A7F800284CBFFF209DF8000048B010BD3A
:102B50000024ADF81C008DF8004007A84180828059
:102B60000021182201A8FFF773B818B5C7B0FFF706
:102B7000EFFF00F00DF840F2171200F00DF800F032
:102B800087F800284CBFFF209DF8000048B010BD1A
:102B90003F21ADF8041070470F210291ADF80620D7
:102BA0000621049107AA01210691039270470DF1B5
:102BB0001F00FFF747B830B5C7B000F00FF800F0BE
:102BC00041F84FF48E7100F02BF800F05FF8002808
:102BD0004CBFFF209DF8000048B020BD1546ADF861
:102BE0001C00002207A88DF80020418005712A46AC
:102BF00019460DF12100FFF725B830B5C7B0FFF732
:102C0000EDFF00F01FF840F2211100F009F800F08C
:102C10003DF800284CBFFF209DF8000048B020BDC3
:102C2000ADF806100F2202923F2007A9ADF804006C
:102C3000039101226D1D704707AA03923F20704740
:102C40008DF800301822002101A8FFF701B800B567
:102C5000C7B0FFF72EFFFFF7F3FF40F2251200F099
:102C600009F800F015F800284CBFFF209DF800007F
:102C700047B000BDADF806203F21ADF80410022298
:102C8000049207A9039101220692704706920495C7
:102C9000CDF814D0002101A801F0A8BAB8B5C7B08A
:102CA0004C9C4D9D00F01FF800278DF821308DF8C9
:102CB00000708DF82240E2B2294600F01BF8FFF7C1
:102CC000C1FFFFF7B9FF4FF4937100F017F8E41D4F
:102CD00006920494FFF7DCFF00284CBFFF209DF80C
:102CE000000048B0B0BDADF81C00ADF81E108DF866
:102CF000202070470DF12300FEF7A4BFADF80400BB
:102D0000ADF80610E4B201227047ADF806203F216D
:102D1000ADF80410012206927047ADF80400ADF83A
:102D200006100122704770474AB1000011F8013BBC
:102D3000521E00F8013B1CBF11F8013BF8E7704739
:102D400040F0200070472DE9F14FB0B09246049159
:102D50000DF142013A9A2B9199464A7000200AE0FF
:102D60001AF8011B0498309A90470028049000F04C
:102D700044860D98401C0D909AF8000058B1252803
:102D8000EED10020002100220790089109920A91BB
:102D90000B920C9104E00D9800F031BE41F001015E
:102DA0001AF8010F2028F9D023280CD02B2804D0A2
:102DB0002D2805D0302809D00BE041F00201EFE7C3
:102DC00041F00401ECE741F00801E9E741F01001AE
:102DD000E6E72A280FD1D9F8002052F8040BC9F8E9
:102DE000002000280F9003D540420F9041F00401CD
:102DF0000AF1010A14E00F92DFF8082C0AE00F9B99
:102E0000934205DA03EB830400EB440030380F9063
:102E10000AF1010A9AF80000A0F130030A2BEED360
:102E20009AF800202E2A03D04FF0FF300E9029E0B0
:102E30001AF8010F2A2809D1D9F8002052F8040BFA
:102E4000C9F800200E900AF1010A1BE02D280CBFE2
:102E50000AF1010A002000220E92DFF8A84B0BE0D5
:102E600040B90E9BA34205DA03EB830502EB450252
:102E7000303A0E920AF1010A9AF80020A2F13003CA
:102E80000A2BEDD3ADF840100FF67C309AF8001005
:102E900002F0D4FA08B11AF8010B8DF842009DF83F
:102EA0004200682805D19AF8001068290CD16220E8
:102EB00006E06C2804BF9AF800106C2904D1712038
:102EC0008DF842000AF1010A12AA06921AF801BB13
:102ED000BBF125002CD01C3800F09781001F022880
:102EE00040F29381133800F0BA84093800F08D81E4
:102EF000801E00F04F85401E00F0FC84401E02281A
:102F000040F28381001F00F0F584401F00F0F28042
:102F1000401E00F0A484401E00F0DA80C01E0ED0D7
:102F2000801E00F09C84C01E00F0998400F03DBD1E
:102F30000122252107928DF8481000F042BDD9F8F2
:102F4000000050F8044BC9F80000002C059440F034
:102F5000AB802B994878002800F0A1804FF0FF3417
:102F60000FF6AC2002F076FA241A40F0468500F005
:102F700028BD01236A4602A9304600F00DFE002854
:102F800040F03B85641EF4D13096079C12AF74B1BB
:102F9000309E17F8011B0498B0470028049000F0F9
:102FA0002C850D98401C641E0D90F2D130960A9C21
:102FB0003021002C8DF800100CDD309E01236A4674
:102FC00002A9304600F0E8FD002840F01685641E96
:102FD000F4D13096059F089C74B1309E17F8011B00
:102FE0000498B0470028049000F007850D98401C15
:102FF000641E0D90F2D130960B9C3021002C8DF880
:1030000000100CDD309E01236A4602A9304600F014
:10301000C3FD002840F0F184641EF4D13096059879
:103020000899099C471874B1309E17F8011B049841
:10303000B0470028049000F0E0840D98401C641E06
:103040000D90F2D130960C9C3021002C8DF80010A0
:103050000CDD309E01236A4602A9304600F09CFD3B
:10306000002840F0CA84641EF4D130969DF84000D8
:1030700041077FF581AE2020002D8DF800007FF7FD
:103080007BAE309C01236A4602A9204600F084FDF5
:10309000002840F0B2846D1EF4D130946CE60FF637
:1030A0005830059000F08DBC0E9D002D04D52046B3
:1030B000FEF7E4FD044608E02A460021204602F01F
:1030C000E9F9002814BF041B2C46089400F079BCD1
:1030D000D9F8001051F8040BC9F8001020F00002D4
:1030E000002121F0FF33CDE9022312AC05947821B1
:1030F00000F04CBC2B99487820B14FF0FF340FF60C
:10310000C8202FE79DF84200622860D0682817D0B9
:103110006A283FD06C2806D0712847D074282CD05C
:103120007A281DD062E0D9F8001051F8040BC9F8D4
:103130000010002866D14FF0FF340FF6A42011E7ED
:10314000D9F8001051F8040BC9F8001020B94FF05D
:10315000FF340FF68C2005E70D99018000F031BC9B
:10316000D9F8001051F8040BC9F80010002849D113
:103170004FF0FF340FF66820F4E6D9F8001051F84C
:10318000040BC9F8001000283CD14FF0FF340FF6B3
:103190005020E7E6D9F8001051F8040BC9F80010E8
:1031A00080B94FF0FF340FF63820DBE6D9F8001075
:1031B00051F8040BC9F8001020B94FF0FF340FF696
:1031C0002020CFE60D9AD317C0E90023F9E3D9F800
:1031D000001051F8040BC9F8001020B94FF0FF346B
:1031E0000FF6FC10BEE60D990170EAE3D9F8001065
:1031F00051F8040BC9F8001020B94FF0FF340FF656
:10320000E010AFE60D990160DBE39DF842004C2829
:1032100007BFD9F80010CA1DD9F80000C21D22F05E
:103220000702C9F80020D2E900010832C9F80020DD
:10323000CDE90201C80F02D007982D210AE0BDF8A0
:103240004000810702D507982B2103E0C00705D570
:103250000798202112AA1154401C079012A8079920
:103260004BF0200300EB010CDDE90201CDE92C015C
:10327000612BCDF814C021AC0BD00E98002848BFAC
:10328000062105D404BF4BF02000672801D101219D
:103290000E91DDE902014F0047EAD0777E15FF1756
:1032A0004FF0FF32974208BF964210D1090341EA1E
:1032B00010510003002908BF002808D0ABF16105B8
:1032C00003211A2D089118D30FF6341110E0DDE90F
:1032D00002014A00521512F1010F11D108030FD15A
:1032E000ABF1610503211A2D08911FD30FF61811B8
:1032F00003226046FFF718FD63E30FF60011F7E7BE
:10330000DDE902016A4602F0F1F8CDE902014BF075
:103310002000612811D1059830220270811C05918E
:10332000BBF1610F0CBF7821582102E00FF6D401E8
:10333000DEE741700798801C0790DDE9020120F06C
:10334000000231F0004308BF002A02D10026002508
:1033500042E14BF02008B8F1610F40F092800E99E5
:10336000002947BF21200190491C0191019FDDE9FF
:103370002C017F1C00220023DDE9024502F0EEF85B
:1033800038BF85F0004500988DF88420001F002F7D
:1033900000900DF1850632DD2046294600220023EB
:1033A00002F0F6F82BD21C2202F00CF904460D466E
:1033B00002F0A6F9FF1F002F804609DD02F0BCF9DC
:1033C00002460B462046294602F07EFA04460D4688
:1033D000F01D0721B8F1000F0CDD491E5EBF08F09B
:1033E0000F0200F8012D4FEA2818F3D502E0002261
:1033F00000F8012D491EFAD5C61D002FCCDC0DF1B9
:103400008500361A01980DF185048642D8BF3046F2
:1034100000282FD4B04206DA0DF185010A5C082A93
:10342000A8BF0F2100DA0021024621AB134400E0BF
:10343000401E13F80159521E8D42F9D00F2904D1B4
:103440000DF185018B5C5B1C8B54002A04D500991F
:10345000091D21AC401C0091411E0BD46218137849
:103460003033DDB23A2DA4BF5B443A3B491E02F82B
:103470000139F4D50E9A002A40F1AC80411E0E911C
:10348000A8E00099DFF8002747F29750414391FBED
:10349000F2F20092DDE92C45C2F10702002A25F084
:1034A000004504DD2046294600F04AFB0BE052426D
:1034B0000020DFF8D81600F043FB02460B462046FA
:1034C000294602F073FA04460D46B8F1660F06BFAE
:1034D000009F0A3706270E983F18142FC8BF1427DD
:1034E00030208DF884000DF18506002F34DD204654
:1034F000294602F07FFB01460A4606F10803042034
:103500000A26B2FBF6F606EB860EA2EB4E0230322E
:1035100003F8012C0A22B6FBF2F202EB820EA6EBB4
:103520004E063036401E03F8026DE9D1083F002FE9
:1035300003F10806D9DD084601F062FE02460B469B
:103540002046294602F0C0F90022DFF8443601F097
:1035500065FE04460D46CAE70DF18500361A0DF1E9
:10356000850404E00098401E761E0090641C2078BC
:103570003028F7D0B8F1660F02D10098401C04E063
:10358000B8F1650F0CBF012000200E99401886424B
:10359000B8BF701E00281DD4B04204DA215C342963
:1035A000C8BF392100DC30210246631E9D1800E0AF
:1035B000401E15F80169521E8E42F9D0392902D1F8
:1035C000A15C491CA154002A04D50099491C1C4641
:1035D000401C00910646009D02F01EFB406A0778E1
:1035E000DDF8388030B2002802DC01260FF21C64BE
:1035F0004BF02000662808BF6D1C16D0672845D107
:1036000028B210F1040F47DB404545DA9DF8400031
:103610006D1C010703D430B24045D8BF804628B2A4
:10362000B8EB000848BF4FF000080FFA85FBBBF16C
:10363000000F00F3B3800898411C089130220599CF
:103640000A54B8F1000F03DC9DF84000010704D5CF
:103650000898411C089105990F5418EB0B0FB8BF3F
:10366000C8F100052DB26842454432B20B90954234
:10367000B8BF2E46059B089836B2099632462146B9
:103680001844FFF751FBAD1B0C95D1E0BBF1610F66
:1036900017D14FF0700B19E030B2404504DA9DF8B5
:1036A00040100A0758BF8046B8F1010848BF4FF0E4
:1036B0000008BBF1670F14BF4FF0450B4FF0650BCF
:1036C00004E0BBF1410F08BF4FF0500B0898411CBC
:1036D0000891B8F1000F059914F8012B0A5403DC86
:1036E0009DF8400001071AD50898411C0891B8F1CF
:1036F000000F05990F5412DD761E30B28045B8BF19
:1037000046460598089B32B221461844FFF70CFB49
:10371000089836B230180890A8EB06000B90059870
:103720000899014428B2002881F800B003D42B2066
:103730004870891C04E02D224A700546891C6D42A0
:1037400000202CAA0AE02B460A2593FBF5F505EB91
:103750008504A3EB440302F8013B401C2DB2002D6D
:10376000F1DC012806DC4BF02002652A04BF302280
:1037700001F8012B00282CAA08D1302001F8010BF8
:1037800006E0401E135C303301F8013B0028F8DCF2
:10379000059A08981044091A099149E030B229B2F3
:1037A00088421CDA0598089B32B221461844FFF77C
:1037B000BBFA089936B271180891ABEB0600B8F164
:1037C000000F0B9003DC9DF84000020704D505981C
:1037D00047540999491C0991CDF8308028E0059893
:1037E000089B2AB221461844FFF79EFA0898761BD8
:1037F0005844B8F1000F089003DC9DF840100A0708
:1038000003D5411C089105990F5430B28045B8BFCB
:1038100046460598089B32B204EB0B011844FFF7AB
:1038200083FA089836B230180890A8EB06000B907F
:103830009DF8400000F01400102840F0C280079A64
:1038400008980B99821809988A1882180C980F9971
:103850008018884280F2B580081A0A90B1E09DF87D
:103860004200622808D068280ED06A2814D06C283C
:103870001FD0712810D01CE0D9F8001051F8040BAB
:10388000C9F80010C0B21AE0D9F8001051F8040BC2
:10389000C9F8001080B212E0D9F80000C21D22F071
:1038A0000702C9F80020D2E900010832C9F8002057
:1038B00006E0D9F8001051F8040BC9F800100021F7
:1038C000CDE902019DF8400002075AD5DDE9020169
:1038D000002908BF002854D04BF02002782A50D18C
:1038E000079812A930230B54401C421C079201F880
:1038F00000B046E09DF84200622808D068280ED04B
:103900006A2814D06C281FD0712810D01CE0D9F878
:10391000001051F8040BC9F8001040B21AE0D9F8B1
:10392000001051F8040BC9F8001000B212E0D9F8E9
:103930000000C21D22F00702C9F80020D2E90001F0
:103940000832C9F8002006E0D9F8001051F8040B3D
:10395000C9F80010C117CDE90201002902D5079866
:103960002D210AE0BDF84000810702D507982B21E0
:1039700003E0C00705D50798202112AA1154401C66
:10398000079012A8079901440591594602A800F032
:103990004DF816E001200790D9F8001051F8040BFB
:1039A000C9F800108DF848000BE001202521BBF17B
:1039B000000F07908DF8481003D0022107918DF871
:1039C00049B00F9D07980A992D1A08986D1A0B99FE
:1039D0002D1A09986D1A0C992D1A9DF840006D1A30
:1039E00041073FF5D2AA2020002D8DF800007FF777
:1039F000CCAA309E2C46FFF7BCBA4FF0FF3031B056
:103A0000BDE8F08FCBCCCC0C686A6C747A4C0000AB
:103A10007072696E74665F733A2062616420257308
:103A200020617267756D656E740000002DE9FC4DB4
:103A300006468846376940466F2808BF082405D0E7
:103A4000FFF77EF9782814BF0A241024D6E9000174
:103A50003C2582468B46B8F1640F18BFB8F1690F58
:103A600005D1002903D5DAF1000A6BEB4B0BBBF152
:103A7000000F08BFBAF1000F0CD1306B50B9082C01
:103A80003AD196F83800010736D530223B2587F821
:103A90003B2031E08DF800805046594622460023F5
:103AA00002F0BEF83032D0B26D1E3A2801950EDA1F
:103AB0007A55504659462246002302F0B1F8824614
:103AC0005FEA010B08BFBAF1000F05D108E09DF8CD
:103AD00000001218513AEBE7F06879198842DBD3FD
:103AE000082C09D196F83800010705D5785D3028F3
:103AF00002D06D1E30207855C5F13C02306BB261AA
:103B000079198242F16008DA318F821A4FF6EF702C
:103B1000014031873262BDE8F38D00280ED596F85A
:103B2000380000F01400102808D1736B7069316AF6
:103B30001B1A5B1A9B1A002BC8BF3362BDE8F38DBA
:103B40002DE9D04306460F4614464FF00008DFF833
:103B5000449012E0E00707D542464B4630463946CE
:103B600001F05CFB06460F464046494642464B463E
:103B700001F054FB641080468946002CEAD130469F
:103B80003946BDE8D0830000A08601000000F03F68
:103B900084D7974100002440F8B505460E461746E5
:103BA0001C4600205CB117F8011BB068A847B06044
:103BB00030B1F06A401CF0620020641EF3D1F2BD07
:103BC0004FF0FF30F2BD00007072696E74665F7373
:103BD0003A20256E20646973616C6C6F77656400B0
:103BE0007072696E74663A2062616420256E20618D
:103BF0007267756D656E7400000000006E616E0086
:103C00004E414E00696E6600494E460030007047D6
:103C100000B500BF130096469446103928BFA0E8AF
:103C20000C50FAD85FEA417C28BF0CC048BF40F86E
:103C3000042BC90728BF20F8022B48BF00F8012B2E
:103C400000BD7047704770477047000080B5DFF8CF
:103C50006C234FF400411160002000F0B7FC58B114
:103C60008079DFF85C13DFF85C230A600B6823F4CB
:103C70007C5343EA00230B6001BD10B5DFF8480315
:103C8000DFF8484388B0016841F050010160CA2262
:103C9000DFF83C03C2615321C161FF210268D208F1
:103CA000D2000260C161CB48026842F40042026067
:103CB00000F01EFBC8480268042161F302020260A2
:103CC0000020C64901F0FBF802F03BF80121012079
:103CD00000F013FB0121002002F0E2F80121012095
:103CE00002F0DEF80121022002F0DAF80FF22523BB
:103CF000BB490122002002F023F902F067F9B94A1A
:103D000000218020FDF719FF04F23C500FF2310131
:103D10000090019169460FF22D0002F047FA04F578
:103D2000C961039104F25470029040F23C51059134
:103D3000049402A802F0D2F902F046F908B010BDCE
:103D40007047000070B5064688B07068A64C00F158
:103D50000B054FF412422988891A11D0491E6ED0E2
:103D6000491E00F08080891E00F08A80491E00F004
:103D70008C80491E00F08C80491E00F0908092E0FB
:103D8000684600F0F0FA9DF802309DF801209DF899
:103D900000102046FDF71AFE9DF804100FF2642073
:103DA000FDF714FE9DF80C309DF80B209DF80A10CD
:103DB0009BA0FDF70BFE00BF9FA0FDF707FE04A828
:103DC000002100220023002580E82E00716801F107
:103DD0000D0090F8000038BB9FA0844DFDF7F6FD64
:103DE00002F02CF80F207F218DF810008DF81210B2
:103DF00004F509702E68360C3146FDF7E7FDADF885
:103E00001C602C689BA0C4F30B042146FDF7DEFD6B
:103E1000ADF81E4004A800F09FFAFDF739FF00211D
:103E2000012000F06AFA3EE0012805D104F5127085
:103E3000FDF7CCFD357036E004F51F7031E004F17C
:103E40002400FDF7C3FD706800F10D0504F5C07096
:103E50002978FDF7BBFD2878002814BF04F5F6701B
:103E600004F5D8701DE004F14800FDF7AFFDD5F86A
:103E70000620D5F8021004F19800FDF7A7FD12E026
:103E8000D5F8021004F1C00006E004F1FC0008E0DF
:103E9000D5F8021004F59070FDF798FD03E004F5E5
:103EA000AE70FDF793FD08B070BD38B5044602F062
:103EB00023FA14F1010F054609D002F03AFA24184A
:103EC00005E04B48016821F00401016030BF02F0B9
:103ED00013FA401BA042F4D331BD4FF0FF30FDF781
:103EE0008DBD704700218020FDF735BE0220FDF713
:103EF00054BE0220FDF759BE012805D0022805D086
:103F0000102805D1FEF7F9B9FEF704BAFEF704BA96
:103F100070470000F8B5374C314F04F580752E8896
:103F2000B6F5807F3BD238780D2835D14FEA0401B1
:103F300058A0FDF74BFD1EA1204602F011FA04F532
:103F4000827620B957A0FDF741FD2B4814E019A156
:103F5000204602F005FA28B954A0FDF737FD4FF0CE
:103F6000B05009E014A1204602F0FAF948B900BFA8
:103F700050A0FDF72BFD21486860304602F0FAF9A9
:103F800003E021464DA0FDF721FD4FF4807120464E
:103F9000FDF730FD002601E0A055761C2E80394645
:103FA00001B0BDE8F040164B0122002001F0C8BF6F
:103FB00053573100535732005357330010400058C5
:103FC0009C000058FECAFECA900800583C0003201E
:103FD000082800400800005880040058302D0020B8
:103FE000842F0020EF61000858C50008002004E07D
:103FF00010ED00E04C29002004000016010000161E
:10400000153F0008576972656C65737320466972C5
:104010006D77617265206275696C642025640A00A1
:104020004655532076657273696F6E2025642E2580
:10403000642E25640A0000003E3E3D3D2053484367
:10404000495F5355425F4556545F434F44455F5265
:10405000454144590A0D00003E3E3D3D205749521E
:10406000454C4553535F46575F52554E4E494E4758
:10407000200A00003E3E3D3D204442474D43555FEF
:1040800047657444657669636549443D20256C78CD
:10409000200A0D0072656365697665642025730AE0
:1040A00000000000535731204F4B0A005357322075
:1040B0004F4B0A00535733204F4B0A004E4F5420AA
:1040C0005245434F474E495A454420434F4D4D4179
:1040D0004E44203A2025730A000000007047C04378
:1040E000FDF78CBC80B502F053F902F052F902F0F2
:1040F00051F902F051F902F09FF902F09EF902F035
:10410000EBF902F0ABFA02F0AAFA02F0A9FA02F017
:10411000A8FA02F0A7FA02F0A6FA02F0A5FA02F055
:10412000A4FA02F0A3FA02F0A2FABDE8014002F0FC
:104130009FBA00004018491C1CBFB1F1010100F8F2
:10414000012DF9D1704700007FB50C46654D6168BF
:10415000654E28626962281D02F08CFA246805F118
:10416000280002F091FA746006F1080002F08CFA5F
:1041700001203070696829B10FF235120092029463
:10418000684688477FBD1FB5574C04F1080002F010
:104190007EFAF8B92078E8B1694604F1080002F027
:1041A0009FFA5048016A49B10098029001228DF8A7
:1041B000042001A888479DF8040000E00120207039
:1041C00018B1009801F0A3FF04E0009904F1080081
:1041D00002F066FA04F1080002F059FA28B92078D2
:1041E00018B104F10800FEF7F4F91FBD2DE9FC41F8
:1041F0000446002000F051F82088B4F80280394FBE
:1042000060F38F2801203870002537484068A16886
:10421000E268C272A0F80980D2B20C30FEF784FDC9
:104220007A6900210020904748F2E800FEF7D8F9AB
:1042300013E0B6F8010040450CD10099887AC21EFF
:104240006069D2B28242C8BF024620696261F11C35
:10425000FEF76AFD307800B1012507F1280002F071
:1042600016FA90B9694607F1280002F039FA009968
:1042700001F10B06497A0F29DBD17188414502D142
:104280002169307808707078E5E72800CCD00120EB
:1042900000F003F80020BDE8F6811249496A08B928
:1042A00021B1084700291CBF0120084770470000C2
:1042B00010B50146487A0F2818BF0E2807D10B48C1
:1042C00002F0F8F9BDE810400020FEF786B9064C70
:1042D00004F1080002F0EEF904F10800BDE8104016
:1042E000FEF777B9B42E00204C2F0020DC2E0020E2
:1042F0000D48002101604160704710B500F007F8DB
:104300005C6800F009F85C6082F3108810BDEFF380
:10431000108272B6044B704719B1012902D10443CF
:1043200070478443704700008C2F002001F092FFFB
:104330009DF80E0005B000BDF8B500F10C026B460B
:104340002F214FF66640F1E7F8B500F10C026B46FD
:104350000F214FF66840E9E7F8B502466B46102199
:104360004FF67540E2E7F0B51C491D4B0A681D4940
:10437000C2F30D0201EB82010D682A689A4205D151
:104380006969AA69EB69EC682D6905E02E46316917
:104390007269B3697468B5680E0E06700F0C4770C9
:1043A0000E0A86700272C1F3031601F00F0101714B
:1043B000C670110E4171160C110AC171220C210E2A
:1043C0008172C272240A290E2A0C86714372047308
:1043D00041738273C5730020F0BD00003C4000585B
:1043E000B95646A900000320694900E0694981B037
:1043F0000A6802430A60096808400090009801B00A
:10440000704710B501F07EFFFFF720FC00F04DF87B
:1044100000F089F8604C6148A06304F1380002F0B4
:1044200071F90420FFF7E2FF0120FFF7DFFF022010
:10443000FFF7DCFF0420FFF7D7FF0120FFF7D4FFD1
:104440000220FFF7D1FF00220F210E2002F0A9F970
:104450000E2002F0C3F900220F213A2002F0A1F948
:104460003A2002F0BBF94E482060002147F6FF7069
:104470000F22E0606160A2602161A161E161616180
:10448000204602F0FFF900220021204602F0A2FAA5
:10449000444860620021A16204F1240002F01CFB88
:1044A000FFF7EBFBFFF719FDFCE780B59AB0482159
:1044B00008A8FDF79FFA1C2101A8FDF79BFA02F05E
:1044C0002BFB3948016821F01801016001213748B0
:1044D000026861F34A2202604FF48031006800F400
:1044E000C06000904720009A099101224FF480712A
:1044F0000A920B9112920890402100220C91139283
:1045000008A802F021FB6F200221019002910022F5
:1045100003920492059206920792012101A802F0EB
:104520006CFD1BB000BD80B594B050216846FDF70E
:1045300061FA4FF440524FF48041009211910222EF
:10454000102112921391684602F038FF15B000BD99
:1045500010B5174C174820604FF4E1310C20606112
:1045600000224FF40040E06100F026F8204603F0FE
:10457000A1F80021204604F049F80021204604F06B
:1045800050F82046BDE8104004F022B800000000BA
:10459000480000584C000058302D0020000C0058F6
:1045A00000280040001000589000005800040058F7
:1045B0008C2B0020003801406160A260E260226123
:1045C000A26122626262A2627047704720B5014612
:1045D0000648074D00E00838C2798A4218BFA84251
:1045E000F9D18A4218BF002020BD00BFF873FF1F19
:1045F0000070FF1F18B50C46C7B000F039F800F086
:104600004BF807AA03923F200C2100F028F800F095
:1046100020F800284CBFFF209DF8000048B010BDD6
:1046200000B5C7B000F031F80F2200F007F80028FD
:104630004CBFFF209DF8000047B000BDADF806203C
:104640003F21ADF804100222049207A90391012230
:104650000692CDF814D0002101A8FFF7C7BDADF830
:104660000400ADF806100122A41C069204947047C1
:10467000114600228DF800208DF81C008DF81D4099
:1046800022460DF11E00FDF7DDBA00238DF81C0057
:104690008DF81D108DF800301822002101A8FDF7BB
:1046A000D7BA00B587B000F099F900F050FA81222E
:1046B00000F08EF900F06CFA00284CBFFF209DF846
:1046C000000007B000BD2DE9F04FC7B09446DDF8FB
:1046D00040E1519ADDF85481DDF858A1539CADF8C2
:1046E0001D108DF81C008DF823204FF0000BADF845
:1046F0001FC08DF821308DF822E000F021F800F085
:1047000029F826F8098FA6F802A000F020FA00F098
:104710000AFA8321ADF80400ADF8061000F00AF89B
:1047200000F038FA00284CBFFF209DF8000047B089
:10473000BDE8F08F4F4401220D3706920497704771
:10474000D7B252998DF800B009ADD2B209A8ED19CF
:10475000FDF778BA2C7007AE54995FFA84F9F61910
:10476000E2B2681C4E44FDF76DBA00B5C7B000F068
:10477000BDF800F0EAF900F047F9852200F04BF9A6
:1047800000F007FA00284CBFFF209DF8000047B05A
:1047900000BD2DE9F841C7B04FF0000800F022F845
:1047A0004E9C4F9D509E529F51988DF800800DF168
:1047B00023018DF81F308DF820408DF821508DF8A1
:1047C000226008608DF8277000F0C1F9862200F0A1
:1047D000FFF80C2200F0D9F900284CBFFF209DF80B
:1047E000000015E18DF81C0007A841708270704729
:1047F00000B5C7B000F0ABF88DF800300DF11E0029
:104800001822016001A80021FDF722FA882200F099
:1048100039F800F0BAF900284CBFFF209DF80000DD
:1048200047B000BDF8B5C8B005460E4617461C4651
:10483000072200F088F808A8467087708DF820508D
:1048400000F03BF98A21ADF80A103F2003210591C1
:10485000ADF80800072100F027F9002848BFFF2025
:104860000ED49DF8000058B94F994E98BDF801201C
:104870002280BDF803300380BDF8050008800020C9
:1048800049B0F0BDADF806203F21ADF80410062276
:10489000704700B5C7B000F05AF800F056F900F0C4
:1048A000B3F88D220F210291ADF80620022100F00D
:1048B000B9F800F06FF900284CBFFF209DF8000008
:1048C00047B000BD18B5C7B000F022F900F03FF9BD
:1048D00000F029F98E2100F02AF900F05BF9002898
:1048E0004CBFFF209DF8000048B010BD00238DF89C
:1048F0001C00704778B5C7B006460C461546032223
:1049000000F021F8ADF81C6000F021F9902100F0D2
:10491000E7F802210491ADF80400032107AA0691EB
:10492000039200F037F9002848BFFF2009D49DF812
:10493000000030B99DF80100207000209DF80210A1
:10494000297048B070BD00216846FDF781B9002389
:10495000ADF81C007047ADF806203F21ADF80410FB
:104960000222704700B587B000F038F800F0EFF889
:10497000922200F02DF800F00BF900284CBFFF2028
:104980009DF8000007B000BD00B5C7B000F0D8F832
:1049900000F03AF8932200F04BF800F0FBF8002802
:1049A0004CBFFF209DF8000047B000BD00B587B0A8
:1049B00000F014F800F0CBF8942200F009F800F0B1
:1049C000E7F800284CBFFF209DF8000007B000BDAD
:1049D000ADF806203F21ADF80410704700208DF897
:1049E0000000704700B5C7B0FFF7B1FF00F0ADF8A9
:1049F0009522FFF7B0FF00F0C8F800284CBFFF2059
:104A00009DF8000047B000BD3F21ADF8041070478D
:104A100048B0BDE8F081ADF8062007A90391012256
:104A200004927047049107AA0121069103927047EE
:104A30000F210291ADF806200321049107AA01215C
:104A4000069103927047F8B5C8B006460F46144663
:104A50001D460822FFF777FF8DF8206006223946B1
:104A60000DF12100FDF7EEF800F027F8A421ADF8D4
:104A70000A103F2007210591ADF80800082100F039
:104A800013F8002848BFFF200CD49DF8000048B957
:104A90009DF80100207006220DF102012846FDF765
:104AA000D1F8002049B0F0BD08AA07910492CDF8D2
:104AB00018D0002102A8FFF799BB1822002102A8F4
:104AC000FDF7C6B800B5C7B000F03AF8A52200F06F
:104AD00056F800284CBFFF209DF8000047B000BDED
:104AE000ADF806103F20704700B5C7B000F034F8AD
:104AF00000F015F800F02BF8AA2100F034F800F0CF
:104B000049F800284CBFFF209DF8000047B000BDC9
:104B1000002304468DF800308DF81C4022460DF12C
:104B20001D00FDF78FB807AA03923F207047ADF82C
:104B30000400ADF806100122641C0692049470472C
:104B40000023ADF81C008DF81E108DF800301822DF
:104B5000002101A8FDF77CB800238DF81C008DF81A
:104B6000003006227047ADF806103F20072104915F
:104B7000ADF80400012107AA069103927047ADF831
:104B800006203F21ADF804100322049207A90391E7
:104B900001220692CDF814D0002101A8FFF726BB10
:104BA000E0B505A0009004228DF80420694642F685
:104BB000292001F02BFC07BD53544D0010B500789F
:104BC0002C4C18B1022810D005D310BD00210120B3
:104BD000A180207310BD607B00F012FA607BBDE8FD
:104BE000104040F6010100F051BA607BBDE8104072
:104BF00000F006BA10B50FF2490200210220FCF7BE
:104C00009CFF1C4C002004212073217042F63820A8
:104C1000214601F0D3FC0A21A1801F20C106E072C9
:104C200004D501204FF48061A072E18004F10D01F0
:104C3000BDE810400FF245030122002000F0B8B992
:104C40000D480C490068CA7A00F0070041304880DE
:104C50001307087B04D518B98888401D888003E0B5
:104C6000012804BF00200873891C42F6372001F098
:104C7000A5BC00002C2F0020282800400021022085
:104C8000FCF769BFDFF854150A6892B200E00246EB
:104C9000086880B28242FAD17047F0B5DFF840551B
:104CA000DFF840352E78182204465443B0421C44A5
:104CB00004D128786870627D2A700FE0267D607DBF
:104CC00094F815C003F115075643062807F806C0E7
:104CD00004D0267D143312FB00F29E540120207371
:104CE0002A78062A02BF00294FF0FF30E860F0BDA5
:104CF00010B5DFF8EC44E06810F1010F0ED0FFF7BB
:104D0000C1FFE16881422FBFE268E168E2888A184A
:104D10002179101AE2784843D04000E0002080B2A8
:104D200010BD2DE9F047DFF8C084DFF8C004D8F8E3
:104D3000006001684A0502D5F0684107FCD4B068FC
:104D4000DFF89C74DFF89CA420F48060B0604FF022
:104D500018093D780AF1080019FB05F14458FFF7DE
:104D6000C7FF844202D20024012105E0398941189D
:104D7000A14203D23C890021B97013E00122241A18
:104D8000BA700FE019FB05F50AF108035F59874275
:104D900026BF5959091A00210AF1080251510AEB9C
:104DA00005014D7D062DEDD1DFF83474A0B238B980
:104DB000FFF768FFF8600320BDE8F04701F039BD58
:104DC000022802DAF878012800D0641EF068410752
:104DD000FCD5F06800F06CF8F06000F051F9DFF8F5
:104DE0000C04C16864F30F01C160FFF74BFFF8606A
:104DF000D8F80000816841F480618160AFF30080E1
:104E0000BDE8F0872DE9F843EFF3108472B6DFF8C0
:104E1000D853DFF8D0332A68CA2050625321516238
:104E20009068DFF8BC1320F48060906018200E7842
:104E3000374647431F4497F80CC0BCF1020F26D1F8
:104E4000D7F80080D7F810908878E8B17A7B012AEB
:104E50000AD101213046FFF720FF84F310887968DA
:104E6000304600F013F904E084F31088304600F077
:104E7000C7F82868CA21416253224262314642463D
:104E8000484603F021FC0EE0FFF74BFF09E0D06835
:104E90004107FCD5D06800F00BF8D0604FF400203B
:104EA000086084F31088FF2228684262BDE8F1831D
:104EB000DFF83C1300F0800060F490607047F8B5B4
:104EC000C94CCA4D2168CA224A6253234B624FF62D
:104ED000FF7C2A6842F020022A602A68AB68AD682D
:104EE0001B0C03F07F03C5F30E055B1C6D1C6F1ECE
:104EF0001E4602F0070216FB07F6C2F10402A6F5F1
:104F0000A076D640B64F66452CBFA7F808C03E81B4
:104F1000FA703B71FD80B74A136843F400231360B5
:104F2000B54B1D6845F400251D6070BB0120B870AD
:104F30004FF0FF31F9600020AA49002301F10C0471
:104F400018255FFA80FC15FB0CFC401CC6B204F867
:104F50000C30062EF5DB06203870A34C20688168E3
:104F600021F480618160C16801F0800161F4906189
:104F7000C16003204FF40021D16001F065FC20687E
:104F8000816841F48041816005E0C868410544BF03
:104F9000032001F04EFC2168FF204862002203211B
:104FA000032001F0FEFBBDE8F240032001F016BC37
:104FB0002DE9F04104460025EFF3108672B618275C
:104FC000DFF820C20CF10C0E07FB05F81EF80800F4
:104FD00010B16D1C062DF5DB062D0CD06F430CEBCC
:104FE00007000127077386F310880461427303608A
:104FF0000D70002002E086F310880120BDE8F081EA
:10500000F8B50446EFF3108572B6032001F0F1FB0A
:10501000754E7A493768CA20786253232246182091
:105020007B6242438B5C022B21D100212046FFF79B
:1050300034FE6B480178062914D16C4801684A0592
:1050400002D5F8684107FCD4B86820F48060B860E5
:10505000F8684107FCD5F868FFF72AFFF86000F010
:105060000FF804E04078884218BFFFF75AFE316815
:10507000FF204862032001F0B1FB85F31088F1BDE9
:105080004FF400200860032001F0DEBB2DE9F84F4B
:1050900004468A4618252146524E69437718387BC4
:1050A000022804BF2046FFF7ABFFEFF3108872B66B
:1050B000032001F09EFBDFF83091D9F80000CA21EF
:1050C00041625322426202203873C7F808A0C7F831
:1050D00004A0DFF80CA19AF80000062808D100F01F
:1050E00075F878754FF0FF31CAF80C10002056E0C3
:1050F000FFF7FEFDB9680918B96006F10803B96841
:105100009AF800206A439A5891422AD39AF80020CC
:1051100004E006F1150E6A431EF8022006F115039D
:1051200015FB02FC13F80C30062B06D006F1080C18
:105130006B435CF803309942EBD21146694306F1A8
:10514000150E1EF80130062B05D006F1140C15FBC8
:1051500003F50CF805407B753A7506F115025454B9
:105160001DE09AF800109AF800C0614515FB01F2A5
:105170000FD006F1140B06F1150C1BF8023015FBCD
:1051800003F50CF8054079753B7506F114018C5454
:1051900003E006F1140379759C5400F017F89AF8AF
:1051A00000109AF801208A4202D0FFF7BAFD02E00F
:1051B000B968081AB860FF20D9F8001048620320C7
:1051C00001F00CFB88F31088BDE8F18F9AF800100D
:1051D0008AF801108AF80040704700002828004033
:1051E0003C2F0020202C0020302D002008280040DB
:1051F0000C08005800080058800800582C2C00208B
:1052000050B1B0FA80F18840C91CC1F5846109052C
:1052100001EBD021400570470146704730B540F2A0
:10522000FF7C1CEA11541DBF1CEA135564456545FB
:105230003FE0641981EA030C6FF35F530CF0004CFC
:1052400043F48013C90241F0004141EA505EC502B7
:105250001100A5FB020200284FF00000EEFB012028
:105260004FF00001E3FB052118BF42F00102401896
:1052700000214941E3FB0E01A4F580640D0302D235
:1052800092184041494154F1010470DD450872F122
:10529000004250F1000051EB0451A1F5801102D4FD
:1052A00041EA0C0130BD40F2FF7E4CEA0E51002075
:1052B00030BD0CEA1355644518BF654581EA030CFF
:1052C0000CF0004C41D050EA410E1CBF52EA430E94
:1052D00002E06146002030BD24422C441BD15FEA2D
:1052E000050EF6D0090302BF01460020AEF1140EF0
:1052F000B1FA81F5AEEB050401FA05FE0C35C5F1F6
:10530000200100FA05F5C8404EEA000E6FF35F5326
:1053100043F480139CE733F00043B3FA83F504BFF2
:10532000B2FA82FE75440B3D641BB5F1200E2FBF0F
:1053300002FA0EF3AB40C5F1200E22FA0EFE38BF82
:1053400043EA0E03AA40641C7CE750EA410E14BFF6
:1053500052EA430E6FF000014FF4001515EB430FB6
:105360008EBF194615EB410F9DE7B4D830BDD4F17F
:105370000104B4F120050FDAC4F12005520828BF5A
:1053800042F0010210FA05FE01FA05F57244E2BF8F
:10539000E0402843E1400FE0352C9ADCC5F12004C1
:1053A00052EA400220FA05F218BF42F0010231FA37
:1053B00005F0A1400A43002172F1004250F10000C3
:1053C00051EB0C0130BD000070B504466078FF2839
:1053D00002BFB4F8030000F47F40B0F5406F22D163
:1053E0000025144E00E06D1C327FE8B2904206D2D8
:1053F000E9B256F82110204688470028F3D000254E
:105400000D4E00E06D1C327BE8B290420BD2E9B247
:1054100056F82110204688470100F3D003D0022817
:1054200006D0012070BD2046BDE87040FCF7D0BD1D
:10543000002070BD0C2F00205C2F0020C9B2027824
:105440008A421AB11CBF10F8012FF9E718BF0020DB
:105450007047000080B500B906A005490B681BB174
:1054600022220021984701E003F02FF9222002BDFB
:10547000C02F0020636F6E73747261696E74206850
:10548000616E646C65723A20626164206D6573734D
:1054900061676500C9B2830706D0521E22D310F897
:1054A000013B9942F7D11FE0083A13D302F10402FD
:1054B00041EA012141EA014150F8043B121F21BF9A
:1054C0004B40A3F1013C2CEA030C1CF0803FF3D0CD
:1054D000C9B2001F0832521E24BF10F8013B91EAE6
:1054E000030FF8D818BF0120401E704710B51446AE
:1054F00000F002F8226010BDC1F30A5343B14A0024
:1055000012F5001F28D2A3F2FE32A1EB0251704720
:1055100050EA410C20D001F0004C31EA0C01B1FA04
:1055200081F204BFB0FA80F3D2180B3AB2F1200333
:105530002CBF00FA03F1914041EA0C013EBFC2F1D9
:10554000200C20FA0CF319439040524240F2FD33F4
:10555000D21A01EB035170470022704741EA030C55
:1055600050EA4C0C52EA0C0C4FF4001C09D307D043
:105570001CEB410F9CBF1CEB430F8B4208BF8242C8
:1055800070471CEB430FFBD8994208BF904270470D
:1055900041EA030C50EA4C0C52EA0C0C4FF4001C8C
:1055A00009D307D01CEB410F9CBF1CEB430F994262
:1055B00008BF904270471CEB410FFBD88B4208BFDD
:1055C00082427047124254D440F2FF7C1CEA1153CD
:1055D0000FD0634531D09B1863453CBF01EB0251AE
:1055E000704701F0004141EA0C510020AFF3008008
:1055F000704750EA410320D001F0004C91EA0C01C1
:105600001CD0B1FA81F30B3B9A420DD9D21A9940C2
:1056100051EA0C01C3F1200C20FA0CFC61449840C3
:10562000531C40F2FF7CD7E7914041EA0C01C2F1E4
:10563000200C20FA0CF3194390407047B0FA80F325
:105640001533202BE0D3202AEED3203A203B9A4278
:1056500009D9D21A00FA03F141EA0C010020531CC7
:1056600040F2FF7CB8E700FA02F141EA0C010020A9
:105670007047524240F2FF7C1CEA11530DD0634543
:10568000DBD0B2EB030C3CBFA1EB025170470CF135
:10569000010221EA035141F4801150EA410CCCD0BF
:1056A00001F0004C352A27DC30B481EA0C01B2F15C
:1056B000200309DAC2F12003044601FA03F5D040C1
:1056C0002843D1409C400CE0C3F12002450020FA61
:1056D00003F418BF44F0010421FA03F091400C4395
:1056E000002174F1004550F1000051EB0C012442FF
:1056F00030BC7FF47BAF70476146002076E7000046
:10570000C1F30A5340F21E42D31A0CDDCA0283F3DE
:10571000070342EA505242F00042DA4002EBE172E3
:1057200082EAE17070476FEAE17203F2E13008B19A
:1057300082F000407047000010F0004160B148BFA7
:105740004042B0FA80F29040D21CC2F5846241EA35
:10575000025202EBD021400570470000841A71EB21
:10576000030604D26E40001BB141121973414FF47D
:10577000001C1CEB410F34BF7CEB430683E00C0D97
:10578000A4EB1356362E00F37C80012E45EAC3238A
:1057900041DC43EA525312BFD20292025B08240555
:1057A00045EAC12141EA5051D2EBC020994125D4AC
:1057B00007D1B0FA80F610FA06F162D00020203648
:1057C00008E0B1FA81F6B140C6F1200220FA02F2F7
:1057D0001143B0404FEAF474B4EB465434F0010680
:1057E0004FEA74040AD8D6F50016760D04F000448A
:1057F000F04061FA06F25040F1404840C00A40EAE9
:10580000415021F0004128BF5FEA500550F10000EF
:1058100044EBD12135E0DB0A45EAC121C90AB6F1E2
:1058200020050EDD42EA0242120CC5F1200603FA01
:1058300006F6EB4042EA06056D42984161F100012F
:105840000DE062FA06F5F240554063FA06FC82EA82
:105850000C02F3405A406D42904161EB030111F498
:10586000801F05D1641E620502D06D004041494190
:1058700021F48011430875F1004350F1000041EB21
:10588000045170BC70471CEB410F15D223F000434C
:1058900052EA43060BD04FEA4C0CBCEB410F04D844
:1058A0000C0D661E342EB7DDEBE7801A994150EAE5
:1058B000410608BF0021E4E708BF1CEB430F28BFE7
:1058C0006FF00001DDE7000070B491EA030F4FF0C4
:1058D00000457FF543AF6B40841A71EB030603D29A
:1058E000001BB141121973414FF4001C1CEB410F16
:1058F00034BF7CEB430442E00C0DA4EB1356352E71
:105900004FDC45EAC323DB0A45EAC121C912B6F1DF
:1059100020050DDD63FA05F6EB4086EA0305124229
:1059200018BF45F00105C01851F100010CD213E079
:1059300062FA06F5F2405540F3415A40B340F34055
:105940005A408018594107D349085FEA30005FEA9E
:10595000350528BF45F0010501F58011420875F1B4
:10596000004250F1000041EB04514E0016F5001FBB
:1059700070BC38BF70470020090D090570471CEB4B
:10598000410F10D252EA43060BD0BCEB410F05D8B1
:105990000C0DAB43661E342EB6DD02E0AB4380181F
:1059A000594170BC704770BC70470000F0B540F2C0
:1059B000FF7581EA030C0CF0004C15EA11541DBF71
:1059C00015EA1357AC42AF42E5E0BC41C1F3130105
:1059D000C3F31303801A994143F4801304D2641E65
:1059E0000018494180185941C90241EA5051B1FBA0
:1059F000F3F603FB1611A2FB0675D7EBC020A941F5
:105A000002D2761E80185941C90241EA5051B1FBB9
:105A1000F3FE03FB1E11A2FB0E75D7EBC020A941BC
:105A200003D2AEF1010E80185941890241EA90512A
:105A3000760546EA8E2EB1FBF3F603FB1611A2FBA8
:105A40000675D7EB8020A94102D2761E80185941F5
:105A5000C90241EA50514EEA060EB1FBF3F603FBD0
:105A60001611A2FB0675D7EBC020A94102D2761E03
:105A700080185941C90241EA5051B1FBF3F703FBC9
:105A80001711A2FB0735D3EBC020A94167F100072E
:105A90000CBF004247F0010766F3D5274FEA1E31DD
:105AA000B80814F5806412DDBD0775F1004250EBB3
:105AB0000E5051EB045111F5801F5CBF41EA0C01FF
:105AC000F0BD4CF07F6141F0E0410020F0BDBD072A
:105AD0006D0840EA0E5041F48011D4F10104B4F194
:105AE00020060ADAC4F120060200E04001FA06F3BB
:105AF000E1401843B24015430EE0342C13DCC6F1EC
:105B0000200445EA40056D0820FA06F2154321FA03
:105B100006F0A1400D43002175F1004250F1000054
:105B200051EB0C01F0BD00205FEA0C01F0BDCFB9D4
:105B300092185B41B3FA83F704BFB2FA82F6BF1939
:105B40000B3FB7F120062FBF02FA06F3BB40C7F1A7
:105B5000200622FA06F638BF3343BA401CB1E419D6
:105B6000641E33E77F4231F00041B1FA81F404BF93
:105B7000B0FA80F6A4190B3CB4F120062FBF00FA4E
:105B800006F1A140C4F1200620FA06F638BF3143E1
:105B9000A0403C1B1AE7AC421ABF05EA1357AF42BC
:105BA00012E050EA41061CBF52EA4306BFE750EA42
:105BB0004107304661461CBF41EA0551F0BD52EA3B
:105BC000430C08BFC143F0BD00204FF4001616EB94
:105BD000410F98BF16EB430F08BF16EB410F24BFD0
:105BE000C14305E016EB430F0CBF61464CEA05517B
:105BF000F0BD0000400D40F21E4C40EAC120BCEB5D
:105C0000115C40F0004003D48CF30701C84070479A
:105C10006FEAE17070470000004870477420002070
:105C2000D3BBD9B1B2F5803F5BD2022A1ED98C46D4
:105C3000B1FBF2F102FB11C31B0443EA1043B3FBB7
:105C4000F2FC02FB1C3380B240EA0343B3FBF2F0E8
:105C500002FB103240EA0C4000237047022A05D9AB
:105C60008446B0FBF2F002FB10C270474AB105D186
:105C700000F0010249085FEA30007047002200236B
:105C8000704702F025BD0B00020000210020704784
:105C9000F7D3002200237047904271EB030CF2D33C
:105CA00070B5B1FA81F4B3FA83F52C1BA340C4F1AB
:105CB000200532FA05F63343A2405FF00046E64085
:105CC00002E05B085FEA3202841A71EB030524BF2D
:105CD000204629467641F4D302000B003000002113
:105CE00070BD70B5B1FA81F4B2FA82F5C4F1200446
:105CF0006419B4F12006DAD3B2405FF00044F440F6
:105D0000002502E052085FEA3303C61A71EB020E67
:105D100024BF3046714664416D41F3D302000B004D
:105D20002000290070BD00003E4900E03E4981B0DE
:105D30000A6802430A60096808400090009801B0B0
:105D40007047F0B585B000F0F7FA00F0F7FA374881
:105D5000016841F480310160002602F0D6FC142174
:105D60006846FBF747FE002500240021304A02EB7D
:105D7000C102907988B11368B3F1904F0BD02D4FC9
:105D8000BB4205D02C4FBB4207D19088044304E0AE
:105D90009288154301E090880643491C2629E5DBDB
:105DA000012101910020032231000290039211D0C1
:105DB00000960120FFF7B8FF0120FFF7B7FF694603
:105DC0004FF0904002F0DEFC002231464FF0904050
:105DD00002F099FD280010D000950220FFF7A4FFE3
:105DE0000220FFF7A3FF134E6946304602F0CAFCBB
:105DF00000222946304602F086FD200010D0009493
:105E00000420FFF791FF0420FFF790FF0A4D694639
:105E1000284602F0B7FC00222146284602F073FD16
:105E200005B0F0BD4C0000584C01005890080058D7
:105E300044CF0008000400480008004800B587B0BF
:105E40004FEA0D0009A11C22FCF76EFF00F07DF95E
:105E50006846FEF779FA07B000BDFEF779BB134636
:105E60000A460146002000F07BB800000000000058
:105E7000000000000000000044CF000828000320BC
:105E80002C00032026040400284981B00A6802433C
:105E90000A60096808400090009801B0704700004F
:105EA00030B585B004460D4600F03BF8200008BF31
:105EB000042004D0012C18BF022C02D10820FFF7C7
:105EC000E3FF2900DFF868201AA00ED1002130F886
:105ED000140001910090012302210293039100F02C
:105EE0001BF80120FDF7E1FF14E0012D12D130F87D
:105EF000140000904FF404130295019300F00CF885
:105F00000EA0045D00220F2160B200F04AFC60B2D6
:105F100000F064FC05B030BD694652F8240002F080
:105F200031BC142100226846FEF704B94C00005829
:105F3000F820002010000100020000000A060700FF
:105F4000002800D0704710B51B4C00F004F8BDE8E5
:105F5000104001F0F3BB1A4823601A4B03607047EE
:105F600038B5002488B9154D15482B60154B0360D2
:105F700001F0F7FB012805D007D3032804D038BF70
:105F8000022402E0012400E00324204632BD006820
:105F90000C49884204D1084A1068002818BF0047FD
:105FA000704700680749884204D1044A10680028F5
:105FB00018BF004770470000B82F0020BC2F0020FA
:105FC0008C2B00200038014002F03DBD6D486E4929
:105FD000016001F12002426001F13003836001F1B0
:105FE0004002026201F14803436201F15002C260C3
:105FF00001F15803036101F17402426101F1780378
:1060000083618431C16102F03CBD38B504465F4D07
:10601000284600F039FB5B494868A1680160E268E6
:106020005B49C2604160856002F047FD59482AE043
:1060300080B554484268136801211972406802F023
:1060400044FD002002BD38B5524C504D04E000F034
:1060500041F8009821688847284600F018FB00287E
:10606000F5D031BD4B494868004738B504464A4D24
:10607000284600F009FB4349C868A16801604560F3
:1060800002F028FD454821680160626842600020F6
:1060900032BD80B53B48C268136810211972C068D0
:1060A00002F023FD002002BD36483C4AC168C368A7
:1060B00011681868084738B5384C374D04E000F0CF
:1060C00009F8009861688847284600F0E0FA00283F
:1060D000F5D031BD6946284600F002BB38B504460C
:1060E0002F4D284600F0D0FA2E4800F0CDFA254872
:1060F0000069A1688160E268C26005612168016091
:1061000062684260216941616269826131BD80B526
:106110000146244800F0CEFABDE802400FF2090023
:1061200002F0F1BC0000000038B5164C1D4D06E031
:10613000FFF7D0FF00992069006900F0BBFA2846FC
:1061400000F0A5FA0028F3D031BD10B5164C20465A
:1061500000F09AFA0B4948690460BDE8104002F06B
:10616000EBBC1CB5104C06E06946204600F0B8FABE
:10617000009802F0FDFC204600F089FA0028F3D0D8
:1061800013BD000000000320B8090320580A0320B3
:106190009C0803209C2F0020600A0320A42F0020CD
:1061A000480A0320942F0020500A03207FB50C4694
:1061B0004E4D61684E4E28626962281D02F0DAFC7D
:1061C0002468746006F1080000F05EFA012000F017
:1061D00069F801203070696841B10FF2ED020FF2E9
:1061E000F103009201930294684688477FBD1FB572
:1061F0003F4C04F1080000F04AFAF8B92078E8B101
:10620000694604F1080000F06BFA3848016A49B1A8
:106210000098029001228DF8042001A888479DF87B
:10622000040000E00120207018B10098FFF76FFF14
:1062300004E0009904F1080000F032FA04F10800CB
:1062400000F025FA28B9207818B104F10800FDF70C
:1062500049FE1FBD2DE9F04105460E4690461C46FD
:10626000002000F01FF8224F7868A0F80950C6728D
:10627000324641460C30FCF757FD1C4A0120107095
:10628000002152690020904748F2E800FDF731FEF6
:1062900079688A78D21C04F10800FCF745FDBDE856
:1062A000F041012010B51149124C496A20B901B1E1
:1062B00088470021217010BD0120207011B1BDE878
:1062C0001040084710BD00000020FDF70FBE000081
:1062D00010B50146064C04F1080000F0EBF904F19A
:1062E0000800BDE81040FDF7FDBD0000E42E0020D1
:1062F0006C2F0020C82F002001484068704700BF65
:10630000EC200020134810B5016841F48071016051
:10631000032000F03CFA002002F036FC00240028A4
:1063200014BF012402F05FFC204610BD0A488068BB
:106330007047094800787047084805E00748016839
:1063400041F0020101607047016841F00101016004
:106350007047000000400058EC200020042004E0BA
:1063600010F8012B11F8013B0AB19A42F8D0D01A6B
:106370007047000000680549C0F300425201012344
:1063800000F01F0003FA00F088507047080800581A
:10639000704770477047000030B5254C254D0020F0
:1063A000206087B041F60A00ADF81800009403237E
:1063B000012206A90120FCF781FA010006BF21880D
:1063C000284605F14000FBF701FB42F62920ADF815
:1063D0001800012204920A20A11C0390002302222B
:1063E00005910293019300922023208806AA01219F
:1063F000FCF7B2FA002807BF618805F1800001466A
:1064000005F1BC00FBF7E2FA07B030BD1CB542F65F
:106410002922904209D10C680548009400220B798A
:1064200041880088FCF7F2FA16BD972016BD0000DF
:10643000C42F002074D000087047704770B505461F
:1064400086B068780024FF2843D1B5F803107F4850
:106450007F4E40F60142891A22D0123939D1FBF71A
:10646000B5FAB5F80710F288481E904231D1AB7AE0
:10647000B5F805006A7A0124012B08D100920A358B
:10648000019500230022FCF709FC00201CE005F127
:106490000A030193009280230122FCF7FFFB18E01E
:1064A000B5F807107288891E914212D1697B0124C8
:1064B000CA0705D52830FBF789FA8DF8084005E0B2
:1064C0006C30FBF783FA02208DF8080002A8FEF773
:1064D00075FB204606B070BD30B587B05D485C4C9A
:1064E0005D4DFBF79BFB41F60D01ADF818100094D4
:1064F0000823012206A90120FCF7E0F9002807BFC4
:1065000021882846014605F13800FBF75FFA42F67C
:106510003720ADF81800012204920A20A11C039034
:10652000002310220591029301930092072300F0AB
:1065300040F8010006BF618805F1700005F1B40064
:10654000FBF744FA42F63820ADF818000022049216
:10655000029201920A20211D03900222059100F06F
:1065600026F8002807BFA18805F1FC00014605F5C3
:106570009C70FBF72BFA42F63920ADF81800002288
:10658000049201920A20A11D039002230822059182
:10659000029300F00CF8002807BFE18805F5BC70F5
:1065A000014605F5D870FBF711FA07B030BD00922F
:1065B0000123208806AA0121FCF7CEB9FEB50246C8
:1065C000002042F63725521B214C08D0521E3CD1E8
:1065D00000910123A1882088FCF718FAFEBD487AB3
:1065E0008DF8040001AA4B7A08885070DD0704D5A5
:1065F0000888000A9070032300E00223487A060707
:1066000006D54888D0545B1C4E88360AD6545B1C8D
:106610004E7AF00611D50D7A0020091D0BE031F8F5
:106620001060DFB25B1CD655DFB231F81060360A5D
:10663000D6555B1C401CA842F1DB01A80090DBB2E0
:10664000618820880022FCF7E1F9FEBD20D2000815
:10665000AC2F00203D64000808C800087047704750
:106660007047704770477047704770477047704772
:10667000704700000249034A01600261704700BF91
:106680000B60000831600008006040607047EFF365
:10669000108172B6026882420CBF012000201CE00B
:1066A000EFF3108272B603680B60486001600868FF
:1066B000416024E0EFF3108272B6086043684B60DB
:1066C0004160486801601AE0EFF3108172B64268D9
:1066D0000368136002684368536081F31088704751
:1066E00010B5EFF3108472B602680A600168FFE724
:1066F0000846FFF7E9FF84F3108810BD0B6082F3B2
:1067000010887047F8B504460025ACB104F1340692
:10671000307910B9204602F075FA0F4F384600F074
:1067200021F8386840F001103860204600F007F882
:1067300035600121317100E001252846F2BD10B518
:106740000021064A064B00EB8104491C06296360C0
:10675000E261F8D310BD0000000C00580F3C0008A7
:10676000272D0008002101604FF03F1242603F23B7
:10677000836070470901020002D439488154704790
:10678000384B02F00F021A4402F8041C70473649D5
:106790000A6860F30A2240F2FA5060F31F420A606E
:1067A000704770B5304B1C68C4F302230124C3F159
:1067B0000705052D2EBF0F2504FA05F56D1E1E1DBC
:1067C000072E34BF0023DB1E2940994004FA03F34F
:1067D000BDE870405B1E1A401143CBE7010007D4AF
:1067E000012200F01F01214B8A40400943F820207C
:1067F000704701000BD4012200F01F011C4B8A409E
:10680000400943F82020BFF34F8FBFF36F8F7047CD
:10681000401EB0F1807F01D3012070471549164A10
:1068200048600023F02010708B6007200860002073
:106830007047010007D4012200F01F010F4B8A406E
:10684000400943F820207047010007D4012200F0DE
:106850001F010B4B8A40400943F82020704700007D
:1068600000E400E018ED00E00CED00E000E100E0E5
:1068700080E100E010E000E023ED00E000E200E055
:1068800080E200E038B5040001D1012032BD94F867
:10689000210028B9002184F82010204602F08CFA4B
:1068A000022084F821002068C168CA0637D4CA21B2
:1068B000416253202268506200F036F801001AD17C
:1068C0002168DFF898008A6802408A60226893682D
:1068D000606821690343A0690B4303439360206808
:1068E000E168016120680169A26841EA0241016131
:1068F000204600F059F801000BD12168CA6C9208BB
:106900009200CA642368DD6CE16962690D43154336
:10691000DD64FF2122680300516204D100E0002001
:10692000012184F8211032BD20461BE038B5044611
:106930000B482168C860FFF7DFFC05462068C16886
:10694000880608D4FFF7D8FC401B40F2E9318842A2
:10695000F4D3032032BD002032BD0000BFFF8FFF03
:106960005FFF010070B5044600252068C1684A0633
:1069700018D4C16841F08001C160FFF7BDFC064634
:106980000AE0FFF7B9FC801B40F2E931884203D3EB
:10699000042084F8210001252068C168480601D43C
:1069A0002800EED0284670BD38B504460025206882
:1069B000C16821F08001C16020688168880607D421
:1069C0002046FFF7B3FF18B1042084F82100012509
:1069D000284632BDF8B53F4E034630684FF47A750D
:1069E00040092C46B0FBF4F46C43009493F820006B
:1069F000012801D10220F2BD012083F820000227E6
:106A000083F82170CA201C686062532718684762A7
:106A1000FF241F68B868400507D50098401E009005
:106A20000098F0B1F8684007F7D4B86820F48060A7
:106A3000B8601868C76807F0800767F49067C76098
:106A4000306840092E46B0FBF6F6754300951D6888
:106A50000098401E0090009818B1E8684607F7D5E6
:106A600006E018684462032100F023F80320F2BD19
:106A7000A868C008C000A860186885682A438260BA
:106A8000186841611148016841F400210160104813
:106A9000026842F4002202601868816841F4804173
:106AA0008160186800F00BF81868446200F001F883
:106AB000F2BD83F82110002083F820007047816820
:106AC00041F4806181600121704700008008005816
:106AD000000800580421002010B5040001D1012055
:106AE00010BD607A20B900212172204602F047F9DA
:106AF0000220607221680A68606822F02002024366
:106B00000A602068016841F00401016001206072A0
:106B10000021E160002010BD0248016841F480714D
:106B200001607047000400584FF0B040006800F06A
:106B3000F000B02888BFB0207047DFF8E007006899
:106B4000000100F0F00070472DE9F041040051D041
:106B5000207881064FF0B0453AD5A868E96810F072
:106B60000C0001F0030103D00C2808BF012943D118
:106B7000E06900283ED0FFF7D7FF0146606A8142F6
:106B800011D200F07FFB002834D12968606A21F01F
:106B9000F001014329606968206A21F47F4141EADC
:106BA0000021696009E0296821F0F001084300F044
:106BB00018FA606A00F066FBE0B900F03BFBDFF812
:106BC00060170860DFF85C07006801F0DDFF88B936
:106BD0002078C10762D5A868E96800F00C00082891
:106BE00001F0030103D00C2808BF03292ED16068EF
:106BF000002853D10120F2E1E069B8B1296841F0E1
:106C0000010100F0D8FA06462868800706D4FFF78D
:106C100073FB801B0328F7D30320E0E12868616A37
:106C200020F0F000084300F0DCF9D1E728684008C4
:106C3000400000F094FB064628684008C007C7D50E
:106C4000FFF75AFB801B0328F6D3E5E76068B0F531
:106C5000803F04D1296841F48031296003E028682D
:106C600020F480302860606858B1FFF745FB064685
:106C70002868800312D4FFF73FFB801B6528F7D3F9
:106C8000CAE7FFF739FB06462868400CC00705D560
:106C9000FFF732FB801B6528F6D3BDE7207881071C
:106CA00015D5A868E96800F00C00042801F003017C
:106CB00003D00C2808BF022928D1E068002899D009
:106CC0006868216920F0FE4040EA01606860216840
:106CD000DFF8546611F0180F00F08B80606900280F
:106CE00077D0C806706858D5800730D4716841F0F5
:106CF00001017160FFF700FB07467068800726D42A
:106D0000FFF7FAFAC01B0328F7D385E7E06870B1F4
:106D1000296841F4807100F04EFA06462868400563
:106D2000CED4FFF7E9FA801B0328F7D374E728686D
:106D300020F4807000F013FB06462868800AC00724
:106D4000C5D5FFF7D9FA801B0328F6D364E770682E
:106D500040F0040000F04EF907467068000705D4C3
:106D6000FFF7CAFAC01B0428F7D355E77068A1697A
:106D700020F4706040EA01207060706840084000B4
:106D800000F038F9074670684008C00731D5FFF7B2
:106D9000B3FAC01B0328F6D33EE740F0010000F031
:106DA00029F907467068800705D4FFF7A5FAC01BCC
:106DB0000328F7D330E7706820F004007060706833
:106DC000C008C00715D5FFF797FAC01B0428F6D3F3
:106DD00022E7706820F0040000F00CF907467068A4
:106DE000C008C007C9D5FFF787FAC01B0428F6D32F
:106DF00012E7207841074CD5DFF83085D8F800003D
:106E0000C1050ED4FFF788FEFFF776FA0746D8F8DB
:106E10000000C10505D4FFF76FFAC01B0328F6D3A5
:106E2000FAE6A068012804D1306840F00100306023
:106E300010E00528306806D140F004003060316869
:106E400041F0010105E0400840003060316821F068
:106E500004013160A06841F2893760B1FFF74CFA54
:106E600080463068800714D4FFF746FAA0EB08008C
:106E7000B842F6D3D0E6FFF73FFA804630684008C4
:106E8000C00706D5FFF738FAA0EB0800B842F5D3E3
:106E9000C2E62078410622D5A06A0028B0680ED04C
:106EA00040F00100B060FFF727FA0746B06880079E
:106EB00015D4FFF721FAC01B0328F7D3ACE640082E
:106EC0004000B060FFF718FA0746B0684008C007F6
:106ED00005D5FFF711FAC01B0328F6D39CE6E06A3C
:106EE00000287BD0A968EA68022801F00C0161D172
:106EF000236B02F00300984202BF02F07000636B44
:106F0000984213D1A36BC2F30620984202BF02F449
:106F10007810E36B984209D1236C02F060609842CC
:106F200002BF02F06042606C824237D00C2942D02E
:106F3000286841013FF55EAE00F00EFA064628686B
:106F4000810105D5FFF7D8F9801B0328F7D363E645
:106F5000EA68DFF8DC03216B0240606B0A43A16B37
:106F60000243E06B42EA0122216C0243606C0A4357
:106F70000243EA60296841F080712960E86840F0C6
:106F80008050E860FFF7B8F904462868810125D4ED
:106F9000FFF7B2F9001B0328F7D33DE6286881010B
:106FA0001CD4286840F080702860E96841F0805166
:106FB000E960E7E70C293FF41DAE00F0CDF9044687
:106FC0002868810105D5FFF797F9001B0328F7D33F
:106FD00022E6E968DFF85C030140E9600020BDE8D3
:106FE000F08128606868216A20F47F4040EA01202F
:106FF000686070477060FFF77FB92DE9F8430400BF
:10700000884600F0B080DFF8305300F0CBF80CD2A7
:1070100000F0CDF8074600F0C5F806D0FFF76CF990
:10702000C01B0228F7D90320BAE0207882074FF06E
:10703000B04711D5B968A06821F0F0010143B960EB
:10704000FFF75AF90646B868C00305D4FFF754F9AC
:10705000801B0228F7D9E6E72078DFF8C0628206B5
:1070600012D53168606921F0F00101433160FFF70A
:1070700043F981463068800306D4FFF73DF9A0EB61
:1070800009000228F6D9CEE72078410613D53068EA
:10709000A1690009000140EA11103060FFF72CF9E6
:1070A00081463068C00306D4FFF726F9A0EB09003B
:1070B0000228F6D9B7E72078420711D5B968E06809
:1070C00021F4E0610143B960FFF716F90646B8689C
:1070D000800305D4FFF710F9801B0228F7D9A2E737
:1070E0002078010712D5B868216920F4605040EA81
:1070F000C100B860FFF700F90646B868400305D440
:10710000FFF7FAF8801B0228F7D98CE72078C1072F
:107110002BD56068022819D13968890323D5BA684C
:10712000920840EA8200B860FFF7E6F80646B868C1
:10713000616800F00C00B0EB810F16D0FFF7DCF8AF
:10714000801B41F289318842F1D36CE7032802D1D8
:107150003968890103E00028396802D18907DED443
:1071600001E04905DBD401201AE0286800F007009F
:1071700080450BD200F01BF8044600F013F805D050
:10718000FFF7BAF8001B0228F7D94CE700F052F8D5
:1071900063490860FFF7CAF8BDE8F24301F0F4BCA8
:1071A000BDE8F283286800F0070040457047296871
:1071B000C90848EAC1012960FFF79EB838B54FF009
:1071C000B0455F4CA96811F00C0106D1FFF7ACFC8B
:1071D000C0F3031054F8200032BD0429594828D0C8
:1071E0000829594A04D12968C90222D4104632BD5F
:1071F000E96801F0030102290CD0032904D12968B0
:10720000C90207D4104605E0FFF78EFCC0F3031057
:1072100054F82000E968EA68EB68C1F306214843A6
:10722000C2F30211491C5B0FB0FBF1F05B1CB0FB19
:10723000F3F032BD80B5FFF7C1FF4049FFE7434A95
:107240000968C1F3031152F82110B0FBF1F002BD3F
:1072500080B5FFF7EFFF00F010F8C1F3022106E060
:1072600080B5FFF7E7FF00F008F8C1F3C22112F87C
:10727000211001F01F01C84002BD3049344A09689D
:107280007047000070B52E49B1282EBFCC6AC0F3FC
:10729000031051F82040FFF750FC054601F0D8FDDF
:1072A0002A49C5F3031251F822102A4AB4FBF1F11E
:1072B0005FF00004B1FBF2F1B0F5007F30A2204690
:1072C0001FD100BF27A353F820508D4216D2401C77
:1072D0000328F8D9184D2868C00844EAC00000F017
:1072E0003EF80646286800F00700A04213D0FFF7DA
:1072F00003F8801B0328F5D3032070BD52F820400B
:10730000E8E700BF1BA353F820508D42F6D2401C83
:107310000328F8D3DEE7002070BD00000801005804
:1073200004210020F42000209000005800040058A0
:107330008C80C111FCFFFEEE004000580800005890
:107340004CD400080024F4000048E8010CD40008E4
:10735000F4D7000840420F00286820F080702860B1
:10736000FEF7CABF12000000240000003600000033
:1073700040000000060000000C00000010000000AB
:1073800000000000010000000200000003000000F7
:10739000DFF81C130A68030903F47F2300019A43F2
:1073A00000F47F2000F081B9DFF804231368010C9A
:1073B00023EA014343EA0043136070472DE9F84391
:1073C000054600242878DFF8E8624106A0464FF021
:1073D000B04743D5286B70B1B0F5800F06D0B0F53B
:1073E000000F18BFB0F5400F2ED035E0F96841F41A
:1073F0008031F96029E0386820F080603860FEF75D
:107400007BFF81463868C00EC00707D5FEF774FFC2
:10741000A0EB09000228F5D9032415E000F03CF99F
:10742000A86821F4781100F02FF98146386800012E
:1074300006D4FEF761FFA0EB09000228F6D9EBE7BE
:1074400039696869014339613CB93168286B21F4B5
:1074500040010143316001E00124A0462868010594
:1074600032D5D6F80880286C08F4407880452AD0B8
:10747000FFF752FBB8F1000FB16805D1286C21F479
:1074800040710143B1601EE0B06840F48030B060EC
:1074900021F44071B06820F48030B060286C014362
:1074A000B160B068C0070ED5FEF726FF8046B06811
:1074B000800708D4FEF720FFA0EB080041F28931D5
:1074C0008842F4D30324A0462878C20705D5316842
:1074D000A869890840EA810131602978880705D5C3
:1074E0003168E86921F44061014331602978C806B8
:1074F00044BFA86AFFF758FF2878810644BFE86AAE
:10750000FFF752FF2878410744BF286AFFF740FF82
:107510002878010744BF686AFFF73AFF2868C20568
:1075200035D53168686B21F0406101433160696B8A
:10753000B1F1006F00F0A2F8686BB0F1806F26D156
:10754000396821F0806100F0A4F804463868C00E64
:10755000C10707D5FEF7D0FE001B0228F6D94FF071
:10756000030814E000F098F8E86821F0606100F08A
:107570008BF804463868010105D4FEF7BDFE001BF8
:107580000228F7D9EBE7396968690143396129684D
:1075900088051CD5A86BB0F1804F18BFB0F1004F23
:1075A00000D020B9316821F04041084309E031683A
:1075B00021F04041316020F08050326822F040627A
:1075C00010433060A86BB0F1C05F00F057F8286836
:1075D000420538D53168E86B21F0405101433160F4
:1075E000E96BB1F1005F03D1F86840F48030F860D6
:1075F000E86BB0F1805F26D1396821F0806100F03E
:1076000048F804463868C00EC10707D5FEF774FE77
:10761000001B0228F6D94FF0030814E000F03CF8F4
:10762000286921F0604100F02FF804463868010114
:1076300005D4FEF761FE001B0228F7D9EBE7396994
:107640006869014339612968C80405D5F168686C27
:1076500021F440410143F160296888040BD5796A1F
:10766000E86C21F0300101437962796AA86C8908DD
:1076700040EA810179624046BDE8F28303D1F868AF
:1076800040F08070F860704701433961396841F01B
:1076900080613960FEF730BE3869696820F4FE40C9
:1076A00040EA01203861396970471043086070472B
:1076B0008800005838B5040001D1012032BD04F122
:1076C0008405686808B900F020F800F00DF808B1EA
:1076D00000F031F800F02CF8012804D000F00DF88B
:1076E00021F02A0116E032BD24206860206801687C
:1076F000490849000160A06A70472068416821F488
:1077000090414160206881687047002129702046BF
:1077100001F094BA816000F004F8BDE8324000F056
:1077200068BB2068016841F0010101602046704794
:10773000204600F0F7B9204600F0F8BA38B5034605
:10774000D3F88C0020280AD109B1100001D1012002
:1077500032BD00F048F8BDE8384000F0F5BB02202B
:1077600032BD38B5044604F154051346686B202831
:1077700031D121B3180022D021652B806B800020ED
:10778000E86321216963A86AD8B1DFF88813C16270
:10779000DFF88403A96A0863A96ADFF880034863F5
:1077A0000020A96A88632068216D00F12802A86A78
:1077B00001F0C5FB28B11020E86320216963012096
:1077C00032BD216840200862226800F006F800F00F
:1077D00096F9F9D132BD022032BD02F1080151E81B
:1077E000001F083270470020D866DFF8344318685D
:1077F000A0420CD04068040209D5186850E8004F38
:10780000054644F0806445E800400028F5D118465C
:107810007047216801F1080353E8001F206800F158
:10782000080221F0400142E80010002870472DE9CD
:10783000F041044640F60F0C2268D669104616EA5D
:107840000C0F0768936804F15C0507F0200006F050
:1078500020010DD1002914D010B9D80040F18D803D
:10786000A969002900F045812046BDE8F04108479C
:10787000DFF874C813EA0C0F04BFDFF870E817EAEA
:107880000E0F7AD05FEAC67E48BF5FEAC75807D5B9
:107890004FF0010EC2F820E06A6B42F001026A6309
:1078A000B2070AD5DA0708D5D4F800E00222CEF8EC
:1078B00020206A6B42F004026A6372070AD5DA0775
:1078C00008D5D4F800E00422CEF820206A6B42F0FC
:1078D00002026A6332070DD5002808BF13EA0C0FB5
:1078E00008D0D4F800C00822CCF820206A6B42F0FF
:1078F00008026A63320509D57F0107D526684FF46F
:10790000006232626A6B42F020026A636A6B002A8C
:1079100032D031B108B9D80003D5A96909B12046E0
:107920008847686B21688A68510602D410F0280FD6
:107930001DD0204600F0A9FB20688168480611D5BB
:10794000FFF767FFFCD1686A60B10FF651018163F0
:10795000686A01F072FB00280ED0686A816BBDE88E
:10796000F04108472046BDE8F04101F05DBC2046EB
:1079700001F05AFC00206863BBE02869012878D137
:10798000F00676D5F90674D5102010622268298891
:107990009068420637D56A6A1368586880B2002832
:1079A00028D0884226DA6880106801688A061AD4CE
:1079B00000F0ABF821F4807100F0A3F8F8D100F0EA
:1079C00061FAFCD1FFF725FFFCD1202028630021BC
:1079D000296100F09AF821F0100100F092F8F8D136
:1079E000686A01F0F4FA0220686129886888091A37
:1079F00089B206E088427CD11A68900679D50222C5
:107A00006A61204631E06A886888891A00281CBFAC
:107A100088B200286DD02246106850E8003F044626
:107A200023F4907300F067F8F6D1106800F10804B1
:107A300000F1080354E8004FDFF8A806044043E8CB
:107A400000400028F1D102F15C03202018630024DB
:107A50001C619C61146854E8004F156800F06EFBCF
:107A6000F8D10220586189B21046BDE8F04101F01A
:107A7000DCBBF00209D5590207D54FF48010106223
:107A80002046BDE8F04101F0D1BB300609D53906EA
:107A900001D4180205D5E96959B32046BDE8F04183
:107AA0000847700613D5790611D500F02EF821F09D
:107AB000400100F026F8F8D104F15C002021C162F9
:107AC0000022C2612046BDE8F041FEF76ABA3002EA
:107AD00006D5790004D52046BDE8F04101F0A7BBEA
:107AE000F00148BF002F04D52046BDE8F04101F069
:107AF0009FBBBDE8F08144E800300028704741F0AA
:107B0000800142E8001000287047206850E8001FFC
:107B100002467047F180000837810008498100085B
:107B200000800040F8B50446DFF8CC0822681368EE
:107B3000A168034020690B4361690343E0690B437B
:107B40000343136000255168E06821F4405101436C
:107B50005160A369DFF8A4188A421CBF206A03435E
:107B60009668DFF89C08DFF89CE8DFF89C78064010
:107B70003343936067A6D36A606A1B0940EA031324
:107B8000D3627245DFF884084FF4004338D13F6870
:107B900007F00307032F4CD8DFE807F002454248FF
:107BA0004FF0010CE169B1F5004F4FF6F07740F06E
:107BB0007F80BCF1010F09D0BCF1020F0AD0BCF1EB
:107BC000040F70D0BCF1080F70D098E0FFF748FBAD
:107BD000002814D0626A616836F81230B0FBF3F006
:107BE0004A0802EB4002B2FBF1F0A0F11001B942E9
:107BF000EBD20740C0F3420007432068C7607FE034
:107C00008A4216D13F6817F4406723D0B7F5806FDA
:107C100009D0B7F5006F03D0B7F5406F06D008E084
:107C20004FF0020C07E04FF0040C04E04FF0080C9A
:107C300001E04FF0100C8A42B4D1BCF1000F09D022
:107C4000BCF1020F0AD0BCF1040F15D0BCF1080F33
:107C500015D054E0FFF7FCFA002851D0616A36F8DD
:107C60001120B0FBF2F6626802EB42018E4246D36D
:107C70001303B34205D242E0FFF7A0FAECE718463F
:107C8000ECE75008002110EB062051EB16610023B1
:107C9000FDF7C6FFA0F54076DFF82078BE422ED271
:107CA0002168C8602CE0FFF789FA91E7184691E750
:107CB000BCF1010F09D0BCF1020F09D0BCF1040FD7
:107CC00018D0BCF1080F18D019E0FFF7C9FAB8B105
:107CD000626A36F812306168B0FBF3F000EB5100D5
:107CE000B0FBF1F0A0F11001B94208D2226880B2D5
:107CF000D06005E0FFF762FAE9E71846E8E70125FA
:107D000004F168000121002341800180C360036108
:107D10002846F2BD010002000400060008000A0027
:107D20000C001000200040008000000190F8281096
:107D30000A0706D502685368816B23F400430B439E
:107D4000536090F82810CA0706D502685368C16AC4
:107D500023F400330B43536090F828108A0706D5AC
:107D600002685368016B23F480330B43536090F82F
:107D700028104A0706D502685368416B23F4802314
:107D80000B43536090F82810CA0606D50268936822
:107D9000C16B23F480530B43936090F828108A063C
:107DA00006D502689368016C23F400530B4393607B
:107DB00090F828104A0610D502685368416C23F4E5
:107DC00080130B435360436CB3F5801F05D1536898
:107DD000816C23F4C0030B43536090F828100A060B
:107DE00006D501684A68C06C22F4002202434A604A
:107DF0007047F8B5044604F184050020E8606FF090
:107E00007E47FEF779FA0646206801680A0714D50E
:107E10000097334600224FF40011204600F04AF844
:107E200058B1FFF772FE21F08001FFF76AFEF8D12A
:107E300004F184002021416016E0206801684A07AF
:107E400016D50097334600224FF48001204600F0FB
:107E500031F868B100F024F8FCD100F013F8FCD13F
:107E600004F1840020218160002202700320F2BD11
:107E7000202068602021A9600020E06600212167A1
:107E80002870F2BD216801F1080353E8001F206843
:107E9000490800F10802490042E800100028704734
:107EA000206850E8001F024621F4907142E800105B
:107EB000002870472DE9F041069C05460E46904685
:107EC0001F462868C1693140B1420CBF0120002023
:107ED000404537D114F1010FF3D0FEF70DFAC01B66
:107EE000844200D314B90320BDE8F08128680168FA
:107EF0004A07E6D5802E18BF402EE2D0C169080798
:107F000004D42968C8690105DBD50DE02A6808207A
:107F10001062284600F0B9F805F184000821C1601C
:107F2000002202700120DFE729684FF40060086238
:107F3000284600F0AAF805F184002021C160002243
:107F40000270D0E70020CFE730B5034600209965E6
:107F5000FF2403F15C010A804A8088619868B0F5CB
:107F6000805F04D1186990B940F2FF140FE018B98E
:107F7000186960B17F2007E0B0F1805F06D1186911
:107F800008B97F2403E03F20888001E000248C8032
:107F90000020486322240C63196801F1080555E8A4
:107FA000001F186800F1080441F0010144E80010C6
:107FB0000028F1D103F15C018868B0F1005F28D19D
:107FC0008889824225D39A68B2F5805F04BF186918
:107FD000002803D10FF239428A610BE00FF24934D5
:107FE0008C61186930B100F036F841F48071FFF708
:107FF00088FDF8D1196801F1080454E8001F1868D9
:1080000000F1080241F08051FFF77BFDF2D1002022
:1080100030BD9868B0F5805F04BF186900280CD1A6
:108020000FF209228A61186850E8001F024641F0E9
:108030002001FFF766FDF6D1E9E70FF29D128A6194
:1080400018690028EFD000F006F841F49071FFF7AE
:1080500058FDF8D1DBE7196851E8001F1A6870472E
:1080600010B500F008F8FCD100F0A8F8FCD12021F0
:10807000C0F8881010BD016851E8002F0B4622F0AF
:10808000C00243E8002100297047016851E8002F31
:108090000B4622F4907243E800210029F5D10168D3
:1080A00001F1080301F1080253E8003F0D490B40BC
:1080B00042E800310029F2D1C16E012909D10268DC
:1080C00052E8002F036822F0100243E80021002943
:1080D000F5D12021C0F88C100022C266426770479B
:1080E00000000000FEFFFFEF01000010200100046F
:1080F00010B50146886A09680A68930609D4002108
:10810000A0F8561000F009F8FCD100F04DF8FCD1B1
:1081100010BDBDE81040FDF744BF026802F108043D
:1081200054E8002F016801F1080322F0800243E8BF
:10813000002100297047806A01F07BB824F0100408
:1081400045E8004000287047F8B5846A04F18805C6
:1081500004F1560700F01CF806D5212804D10020B0
:1081600038802046FFF77CFF21688868410606D5E5
:10817000222E04D1002038812046FFF786FFA86810
:1081800040F01000A8602046BDE8F24001F04CB875
:1081900028686E6821688A6811067047806A002125
:1081A000A0F85E1001F040B8016851E8002F0B46BE
:1081B00042F0400243E8002100297047026802F1C2
:1081C000080454E8002F016801F1080322F40002BA
:1081D00043E800210029704710B500F050F81FD186
:1081E0004B6A9188846D0B402370816D4B1C00F0AD
:1081F0004CF819D100F050F8FCD100F057F8FCD140
:1082000000F06CF80BD10023136100F05DF8FCD195
:108210000168CB69DC0644BF10230B627AE07EE084
:10822000886940F00800886110BD000010B500F0BA
:1082300026F81FD14B6A9188846D0B402380816D95
:108240008B1C00F022F819D100F026F8FCD100F0C8
:108250002DF8FCD100F042F80BD10023136100F09F
:1082600033F8FCD10168CB69DC0644BF10230B62F4
:1082700050E054E0886940F00800886110BD00F1CA
:108280005C020168136B222B7047836551884B1E7B
:108290005380518800297047026852E8002F036814
:1082A00022F4907243E8002100297047026802F12D
:1082B000080454E8002F0168520801F10803520035
:1082C00043E8002100297047016851E8003F0C464F
:1082D00023F0100344E800310029704700F15C02EC
:1082E000202111630023936100215161434B0168F8
:1082F00099420CD049680B0209D5016851E8003F4A
:108300000C4623F0806344E800310029F5D111695F
:10831000012970471188BDE8104000F086BFBDE814
:108320001040FDF734BE00002DE9F84300F010F9CD
:108330004BD1A88900283AD0B80638D500F0D2F839
:108340000870A06D421C00F0C4F817D0F90748BFB0
:108350005FEAC85200F0B4F803D5F20701D500F087
:10836000CFF8780703D5F20701D500F0C1F8686BA4
:1083700020B1204600F058FF00206863688800287C
:10838000DAD100F0CFF8FCD100F028F8FCD100F0F1
:10839000FDF809D100F0EAF844BF102101622988F4
:1083A000204600F042FF02E02046FDF7F0FD68881D
:1083B00068B1A98988420ADA00F0BEF8FCD1804889
:1083C000A86100F0A5F8FCD101E000F002F8BDE8DA
:1083D000F183816941F0080181617047206800F1F3
:1083E000080200F1080152E8002F7648024041E8F7
:1083F0000020002870470000F369FFCF0080004094
:10840000FFF4FF1100380140880000580024F400F8
:108410002DE9F84300F09CF84BD1A88900283AD008
:10842000B80638D500F05EF80880A06D821C00F018
:1084300050F817D0F90748BF5FEAC85200F040F87B
:1084400003D5F20701D500F05BF8780703D5F207F2
:1084500001D500F04DF8686B20B1204600F0E4FE35
:108460000020686368880028DAD100F05BF8FCD14E
:10847000FFF7B4FFFCD100F089F809D100F076F8DD
:1084800044BF102101622988204600F0CEFE02E0A0
:108490002046FDF77CFD688868B1A98988420ADA20
:1084A00000F04AF8FCD14848A86100F031F8FCD14E
:1084B00001E0FFF78EFFBDE8F183000000FD0F0033
:1084C00005D501210162686B40F001006863B807BF
:1084D0007047A2656888411E69802068C76917F0E7
:1084E000070F70472168486AA16D09EA00007047CC
:1084F000216804200862686B40F0020068637047DE
:10850000216802200862686B40F0040068637047CD
:10851000216851E8001F226841F0200142E8001064
:1085200000287047216851E8001F226821F48071FB
:1085300042E8001000287047226802F1080353E85F
:10854000001F083221F0805142E8001000287047D7
:10855000044604F15C052068B5F80490C76901463B
:10856000D1F800808668296B222970470021296193
:10857000206850E8001F024621F0100142E8001078
:108580000028F5D12068C169CA06704720202863F9
:108590000021A961002068610C49206888420CD044
:1085A0004068010209D5206850E8001F024621F00A
:1085B000806142E800100028F5D128690128704741
:1085C000D9810008FEFFFFEF2D82000800800040E7
:1085D00010B500F184010A78012A01D1022010BDF2
:1085E00001220A7024234B6002681368146864082F
:1085F000640014600022426623F0005300680360A8
:1086000020224A6000230B70002010BD70B500F0DE
:108610001FF801D1022070BD00F020F822F0604266
:1086200009E070B500F014F801D1022070BD00F02F
:1086300015F822F0606211438160204600F01CF8BA
:10864000206806602021696000222A70002070BD29
:10865000044604F184052878012870470120287019
:1086600024226A602068066802685208520002608C
:10867000206882687047000030B5416E11B9012250
:10868000012114E0026800BF0BA49168D2F8082011
:108690000BA3490E01F00701520FA55C645C9A5CC4
:1086A000595CED00E40095FBF2F294FBF1F16830C7
:1086B0004280018030BD000001010103070100007C
:1086C00008040204080101011047012000F0B2BDB6
:1086D0007047000038B5EFF3108472B6274D694635
:1086E000281D00F0CDFE6946281D00F024FF38B19A
:1086F00084F31088BDF80010214AFDF7B0FB31BDAE
:108700000120287084F3108831BD80B5FDF7A5FBEA
:10871000022100910023194800F124014FF48052F6
:10872000001D00F091FD01BD00BFF8B51446002505
:10873000EFF3108610F1010F1ED001281CBF022894
:108740004FF0FF3518D1BCB1254672B60B4F01234F
:1087500092B2381D00F08DFD00281CBF3978002929
:1087600008D000223A7086F31088A1B2044AFDF7BF
:1087700076FB01E086F310882846F2BD0810002041
:10878000D58600082DE9F04F0024DFF89881664E69
:108790004FF00F0902460B4631E0644FBA4214BF56
:1087A0004FF0070E4FF0040E0EFA01F141EA050EEC
:1087B0005F4941F82CE0C74331685D683940ED02FC
:1087C00048BF0143316071685D683940AD0248BF00
:1087D00001437160D8F800105D683940ED0348BF6F
:1087E0000143C8F80010D8F8041007EA010C5968D2
:1087F000890348BF40EA0C0CC8F804C0641C186820
:1088000030FA04F100F07D800121A1400840F5D04C
:108810004FEA440C032505FA0CF56FEA050E5D6876
:1088200005F00307012F1CBF05F00305022D10D131
:108830009568DF680EEA050507FA0CF73D43956079
:10884000556825EA01015D68C5F30015A540294377
:108850005160A1001D7905F00305032D1ED0D568D8
:108860009F680EEA050507FA0CF73D43D5601D79B0
:1088700005F00305022D11D1E50802EB850501F095
:108880001C07D5F820B009FA07FA2BEA0A0BD3F82F
:1088900010A00AFA07F747EA0B072F6215680EEADD
:1088A00005071D7905F0030505FA0CF545EA070CE7
:1088B000C2F800C05D6815F4403F9FD01C4D4FEAE0
:1088C000940C55F82C5001F00C0109FA01F7BD4346
:1088D000B2F1904F08BF4FF0000E11D0154FBA42C1
:1088E00008BF4FF0010E0BD0134FBA4208BF4FF034
:1088F000020E05D0114FBA427FF44FAF4FF0030E76
:1089000052E7BDE8F08F0AB181617047816270471C
:108910000B4A136801460B421CBF1160FBF7ECBA0F
:1089200070470000800800580008005800100048F8
:10893000080001400004004800080048000C0048FE
:108940000C080058C0680840884201D101207047D7
:1089500000207047C0690840884201D1012070475B
:108960000020704710B5794C02212046FFF7F2FF36
:1089700038B16068C043810703D5FDF79CFB022036
:1089800018E001212046FFF7E5FF38B16068C043D9
:10899000C10703D5FDF757FB01200BE00821204656
:1089A000FFF7D8FF38B16068C043010703D5FDF772
:1089B000D8FB0820A06010BD10B5644C02212046F1
:1089C000FFF7C0FF70B96068C04382030AD500F0AA
:1089D00035F841F40031616080F31088BDE8104043
:1089E000FDF762BB08212046FFF7ACFF88B960683D
:1089F000C04302030DD500F021F841F4002161606D
:108A000080F310885249086880474FF40022A26022
:108A100010BD20212046FFF795FF70B96068C04364
:108A200082020AD500F00AF841F40011616080F377
:108A30001088BDE81040FDF715BB10BDEFF31080A6
:108A400072B661687047434881B0016841F4801193
:108A50000160006800F48010009000983E480168B2
:108A600041F4007101603D48026842F40072026006
:108A700040BF20BF3A48016841F40041016001B0A5
:108A8000704780B53748016841F480110160006883
:108A900000F48010009000982C48016841F001011A
:108AA0000160026842F4803202602C20FDF796FEDD
:108AB000BDE802402D20FDF791BEEFF3108072B6A5
:108AC00029490A68520852000BE028494FF48030C7
:108AD00008607047EFF3108072B623490A6822F0ED
:108AE00002020A6080F3108870471F484FF400317B
:108AF0004160EFF3108172B6026822F40032026026
:108B000081F31088704738B50446104D0821284677
:108B1000FFF718FF58B10E480460EFF3108072B6EB
:108B2000696821F40021696080F3108831BDA04795
:108B30004FF40020A86031BDEFF3108072B60A49EF
:108B40000A6822F00802CCE700000000000C005880
:108B5000B42F00205001005820080058D4080058B5
:108B60000C04005850000058040C0058080C005821
:108B7000704700000249034A01600261704700BF6C
:108B80006B6000089360000870B50F4E04463078A3
:108B90000025A8B1FEF74EFB32784FF47A71B1FB95
:108BA000F2F2B0FBF2F0FDF733FE48B9102C07D219
:108BB000002221464FF0FF30FDF7F3FDB46000E0E6
:108BC0000125284670BD00BFEC200020924900E03E
:108BD000924981B00A6802430A600968084000901F
:108BE000009801B0704780B54FF40020FFF7F0FF08
:108BF000002200212E20FDF7D4FDBDE802402E20EA
:108C0000FDF7ECBD0168864A914200D0704780B5FF
:108C10004FF48010FFF7DCFF002200212C20FDF72D
:108C2000C0FD2C20FDF7DAFD002200212D20FDF7EC
:108C3000B8FDBDE802402D20FDF7D0BD38B59EB08F
:108C4000044614216846F8F7D5FE50210AA8F8F723
:108C5000D1FE20687349744D884246D102200A90A3
:108C6000002111910AA8FEF7A9FB08B1FBF7ADFCA2
:108C7000286840F00100286029686C4D01F001016E
:108C8000059105980120FFF7A1FF02210191002223
:108C900002920C200321009003910822049269465D
:108CA0004FF09040FFF76EFD61482860112100F001
:108CB00058F808B1FBF789FC4FF088500021069066
:108CC0000791ADF820100122099206A9284600F06C
:108CD0007DFC08B1FBF779FCE567AC62002200215E
:108CE0002520FDF75EFD252037E05249884236D128
:108CF00001200A90002110910AA8FEF75FFB08B13D
:108D0000FBF763FC686840F48040686068684A4D1F
:108D100000F48040059005980220FFF757FF0221DC
:108D2000019101220292C0200321009003910722A9
:108D3000049269464148FFF725FD414828600F210C
:108D400000F00FF808B1FBF740FCE567AC620022C9
:108D500000212420FDF725FD2420FDF73FFD1FB055
:108D600030BD696000201022E86080216861A86140
:108D7000E8612862AA602961284600F071B810B540
:108D800094B0044650216846F8F734FE22682D4915
:108D90008A420FD14FF4007000904FF080510E9135
:108DA0006846FEF70BFB08B1FBF70FFC4FF4802081
:108DB000FFF70EFF14B010BD18B595B00446502152
:108DC00001A8F8F717FE22681F498A4221D14FF403
:108DD000006001904FF48071119101A8FEF7EEFA46
:108DE00008B1FBF7F2FB1948816B41F40041816344
:108DF0000021026842F4806202600022006800F4F0
:108E00008060009000980320FDF7CBFC0320FDF765
:108E1000E5FC16B010BD00004C0000585000005892
:108E2000000C0058008000405C000058A42D002079
:108E30004400024000380140042E00200004004895
:108E40004404024000100058002800405800005818
:108E5000DFF80800006800F4C060704700040058A4
:108E600038B5040001D1012032BD2168DFF890231C
:108E7000914204F1240502D200F055F805E000F01B
:108E80004AF8DFF880032962E861022169702068EE
:108E90000268A068E16823686FF30E12024320693C
:108EA0000A4361690243A0690A43E1690243206AF7
:108EB0000A4302431A60204600F074F9A068B0F536
:108EC000804F04BF002161602079696A00F03F0093
:108ED00000F014F838B1052805D2204600F07FF9DB
:108EE00000F012F803E0002028636863A863002103
:108EF000A961012068702970002032BD0860A96A4C
:108F0000E86A486060687047296B00200860696BF8
:108F1000A86B48607047DFF8F00241181422B1FBDB
:108F2000F2F189007047DFF8E40241181423B1FB25
:108F3000F3F18900DFF8D8222962EA617047F8B5B9
:108F4000044604F1240600253078012801D10220CE
:108F5000F2BD012030707778012F2ED10220707081
:108F6000AC46C6F818C0206807687F087F00076015
:108F7000204600F0FBF82168F06820B10A6842F052
:108F80000E020A6008E0086820F00400086020680B
:108F9000016841F00A010160706A0168CA0303D5E3
:108FA000016841F480710160306B18B1016841F4CF
:108FB0008071016000F005F801E035700225284657
:108FC000F2BD2068016841F001010160704740B1C5
:108FD00000F124014A78022A05D004208861002289
:108FE0000A70012070470268136823F00E031360B3
:108FF0004A6A136823F48073136000680268520899
:1090000052000260012091F82020CB6902F01C027E
:10901000904058608A6AC86A5060086B38B102464E
:10902000106820F4807010604A6B886B50600120DB
:10903000487000220A700020704738B500F1240201
:1090400000245178022903D004209061012429E0F2
:1090500001680B6823F00E030B6001680D686D0852
:109060006D000D60516A0B6823F480730B60012161
:1090700092F82030D56903F01C0399406960936A27
:10908000D16A5960116B39B10B46196821F48071AE
:109090001960536B916B59600121517014705169C3
:1090A00001B18847204632BDF8B500F124010426FD
:1090B000CA69126803681C6891F8205005F01C0505
:1090C00006FA05F73A4210D067070ED51A689406DB
:1090D00003D41A6822F004021A6000F03EF8C9684E
:1090E000002939D0BDE8F4400847022606FA05F702
:1090F0003A4213D0A70711D51A68940605D41A6806
:1091000022F00A021A6001234B7000F026F80022B8
:109110000A70896801B3BDE8F4400847082606FADA
:1091200005F52A4218D0220716D51C6824F00E0433
:109130001C60012291F82030CC6903F01C039A4096
:109140006260012301228A614B7000220A70096962
:1091500011B1BDE8F4400847F1BD91F82020CB697A
:1091600002F01C0296405E607047000070B5C56C4E
:10917000046D6C60446D14B1856DC46D6C60012428
:1091800090F84450066C05F01C05AC40746004680F
:1091900063608068102802D1A260E16070BDA160A8
:1091A000E26070BD10B5416C0268154B89089A42A7
:1091B00039BF184C04EB8101174B03EB810181642B
:1091C00002F0FF02083A1421B2FBF1F1012301F091
:1091D0001F01124AC26403FA01F1016510BD017951
:1091E0000F4A104B836501F03F0102EB810242659B
:1091F000491E012201F003018A40C2657047000048
:109200000804024000040240F8FBFDBFF8FFFDBF68
:1092100000000240000802401C0802408008024092
:10922000FC08024040090240704770477047704791
:109230007047704780B5AFF30080024A11001820D4
:10924000ABBEFBE72600020030B5039C01600025A1
:109250000021C16041610561A10785614260038110
:10926000047704D5008910B14FF0FF3030BD0020E5
:1092700030BD2DE9F84F054684B0288900260C46FC
:10928000B046B44600280CBF022700276969A9B17F
:1092900090B92869D5F804E0461C764528BFA6EBAE
:1092A0000E06D5F800E01EF800001EF8066000EB80
:1092B0000626B61CB6B203E0064600E000B1024640
:1092C0002869D5F80CE0704523BFD5F80490A9EBC8
:1092D0000000801B002007EB020E03FB0EF9814506
:1092E00032BF0020B0FBFEFA0EFB1A00C0B287426C
:1092F00009DA95F81CE05FEACE7A48BF84465FEA57
:109300008E7048BFBC46100000F0B68068684944C3
:1093100061448842C0F0B080C14692460294ADF8E4
:109320000020039357E082073DD52889002840F0AC
:10933000A3802A681A44260A02F8024C2246D5F86D
:109340000080984408F8016CA04628681844F9F792
:10935000EBFC6969A86961186961401C019CA861FE
:1093600018E09CB3287FC207DDD5288948B9286852
:109370001844FF2100F8021CFF222968194401F853
:10938000012C4FF00008686924186C615446288944
:10939000002340B92A681470200A29684870022303
:1093A0006869801C68613E190020B6B228616CB102
:1093B000C3440298D5F800C000EB0B0122460CEB29
:1093C0000300F9F7B1FC686924186C6109F101091F
:1093D000A869401CA861039A68682969914543D22D
:1093E000711881422CBF081A084628610346288953
:1093F000A8B92968BDF80000C8545B1C686883429E
:1094000028BF1B1ABDF800002968000AC8545B1C5D
:109410006868834228BF1B1A6869801C68616C6891
:10942000BDF80010E41A8C4288BF0C4602980AFB73
:1094300009FB00EB0B01AAEB04005445019003D09B
:109440008FD2287F00288CD12E682246F018F9F799
:109450006BFC686920186861A046BDF80060019C3B
:10946000BE190023B6B2A2E77A1882422CBF171A9F
:109470007F182868C01900E0002005B0BDE8F08F13
:10948000F0B502460023108900280CBF02250025F4
:1094900054690026002C4DD058B9D36857685E1C1B
:1094A000BE4228BFF61B1768FB5CBE5D03EB0626B9
:1094B00000E00646137F03F00303012B22D14FF691
:1094C000FF739E4208BF002808D0D36817699F42E7
:1094D00018D2B8B15768FB1A834213D25668D368C2
:1094E000A41B1C1954610024D46050B9012E94BFF0
:1094F000C6F10106012610680378805D03EB0026A3
:1095000000E00646D2F80CC0576805EB0C00B842E4
:1095100028BFC01B136803445069AC19001B05D059
:10952000B4446544BD4228BFED1BD56050619069CD
:10953000401E906146E0F0B50246002310890028E5
:109540000CBF0225002554690026002C3AD0D368B0
:109550001C4658B957685E1CBE4228BFF61B1768E8
:1095600017F803C0BE5D0CEB062600E00646177F29
:1095700007F00307012F1DD14FF6FF77BE4208BF4A
:10958000002807D150680024012894BFC0F10100D1
:1095900001200AE017699F420CD258B15768FB1AA4
:1095A000834207D20024064604E013681E78185C44
:1095B00006EB002650682B1983422CBF1D1A2D196B
:1095C0001068431901B10E801846F0BD70B500F166
:1095D0002403587801281CD11A78012A01D10220CD
:1095E00070BD5C6A187025680B480A68CE68054033
:1095F0001543761E48680A7A45EAC6450543487A07
:1096000045EA024545EA4025256000211970002001
:1096100070BD012070BD0000FFFD00E00D0A2A2A88
:109620002A2A2A2A2A2A2A2A2A2A2A2A2A20417047
:10963000702041747472696275746520496E666F3A
:10964000726D6174696F6E205265636569766564D9
:10965000202A2A2A2A2A2A2A2A2A2A2A2A2A2A2A74
:109660002A2A2A2A2A2A2A0D0A0000000D0A2A2A52
:109670002A2A2A2A2A2A2A2A2A2A2A2A2A20446103
:10968000746120536F757263652044657461696C01
:1096900020496E666F726D6174696F6E20526563EA
:1096A0006569766564202A2A2A2A2A2A2A2A2A2AE9
:1096B0002A2A2A2A2A2A2A2A2A2A2A2A0D0A00009B
:1096C000637574207468652041747472696275747E
:1096D00065494420782056616C7565206C656E3D47
:1096E0002564203C3D2073697A656F6628616E634E
:1096F000735F636F6E746578742E6C697374293D43
:109700002564200A0D00000020332E3220476574A6
:1097100020415050204174747269627574657320E1
:109720002844657461696C20496E666F726D61745E
:10973000696F6E2061626F75742074686520417076
:10974000702C204E6F77206F6E6C7920737570705F
:109750006F727420746F20476574204E616D6520B0
:109760006F662041707029203D3E20414E43535F7B
:109770004745545F4150505F4154545249425554FB
:1097800045200A0D0000000020332E322050657263
:10979000666F726D204E6F74696669636174696F7C
:1097A0006E20416374696F6E203D3E20414E4353ED
:1097B0005F504552464F524D5F4E4F5449464943C4
:1097C0004154494F4E5F414354494F4E200A0D00CA
:1097D000204E6F204170704964656E7469666965DA
:1097E00072202620506F73697469766541637469CD
:1097F0006F6E4C6162656C202620204E6567617437
:10980000697665416374696F6E4C6162656C203D79
:109810003D3E2020414E43535F49444C45200A0DB4
:109820000000000020332E3420506572666F726D88
:10983000204E6F74696669636174696F6E2041635D
:1098400074696F6E203D3E20414E43535F50455238
:10985000464F524D5F4E4F54494649434154494F3C
:109860004E5F414354494F4E200A0D00436F6D6DCA
:10987000616E6449444765744170704174747269E3
:109880006275746573206E6F74696679456E747263
:10989000793D25642052656D6F7665640A0D000080
:1098A0002A2A2A2A2A2A2A2A2A2A2A2A2A2A2A2022
:1098B0004E6F74696669636174696F6E20536F756A
:1098C00072636520426173696320496E666F726DD1
:1098D0006174696F6E205265636569766564202ADC
:1098E0002A2A2A2A2A2A2A2A2A2A2A2A2A2A2A2AD8
:1098F0002A2A2A2A2A0D0A004143495F4154545F0B
:1099000046494E445F42595F545950455F56414C59
:1099100055455F524553505F56534556545F434F2C
:109920004445202D20436F6E6E656374696F6E5FD2
:1099300048616E646C653D3078253034582C4E7526
:109940006D5F6F665F48616E646C655F50616972E0
:109950003D25640A0D0000004143495F4154545FB6
:1099600046494E445F42595F545950455F56414CF9
:1099700055455F524553505F56534556545F434FCC
:109980004445202D204E756D506169723D2564203F
:10999000466F756E645F4174747269627574655F59
:1099A00048616E646C653D3078253034582C4772C0
:1099B0006F75705F456E645F48616E646C653D30C5
:1099C00078253034580A0D004143495F4154545FB3
:1099D00046494E445F42595F545950455F56414C89
:1099E00055455F524553505F56534556545F434F5C
:1099F0004445202D20466F756E6420414E435353DD
:109A0000657276696365537461727448616E646CE3
:109A1000653D3078253034582C414E4353536572A0
:109A200076696365456E6448616E646C653D307847
:109A3000253034580A0D00004143495F4154545FBA
:109A4000524541445F42595F47524F55505F545908
:109A500050455F524553505F56534556545F434FF0
:109A60004445202D20436F6E6E656374696F6E5F91
:109A700048616E646C653D3078253034582C4174F3
:109A8000747269627574655F446174615F4C656E80
:109A90006774683D25642C446174615F4C656E6732
:109AA00074683D256420210A000000006E756D5326
:109AB0006572763D25642F25642C73686F7274205F
:109AC000555549443D3078253034582053657276D9
:109AD00069636548616E646C65205B30782530345D
:109AE00058202D203078253034585D200A0D000094
:109AF0004741505F534552564943455F5555494488
:109B00003D30782530345820666F756E64205B25B3
:109B100030345820253034585D210A0047454E45E1
:109B20005249435F4154545249425554455F53454D
:109B300052564943455F555549443D3078253034A8
:109B40005820666F756E64205B25303458202530B0
:109B500034585D210A000000414D535F5345525671
:109B60004943455F555549443D30782530345820A8
:109B7000666F756E64205B2530345820253034586C
:109B80005D210A004C494E4B5F4C4F53535F534588
:109B900052564943455F555549443D307825303448
:109BA0005820666F756E64205B2530345820253050
:109BB00034585D210A00000054585F504F574552F9
:109BC0005F534552564943455F555549443D3078AA
:109BD0002530345820666F756E64205B253034580C
:109BE00020253034585D210A0000000043555252B0
:109BF000454E545F54494D455F5345525649434580
:109C00005F555549443D30782530345820666F758E
:109C10006E64205B2530345820253034585D210A8D
:109C2000000000005245464552454E43455F5550A1
:109C3000444154455F54494D455F5345525649434D
:109C4000455F555549443D30782530345820666F7E
:109C5000756E64205B2530345820253034585D21E2
:109C60000A0000004E4558545F4453545F43484136
:109C70004E47455F534552564943455F5555494404
:109C80003D30782530345820666F756E64205B2532
:109C900030345820253034585D210A00474C554354
:109CA0004F53455F534552564943455F55554944C7
:109CB0003D30782530345820666F756E64205B2502
:109CC00030345820253034585D210A004845414C35
:109CD00054485F544845524D4F4D455445525F538B
:109CE0004552564943455F555549443D30782530E6
:109CF000345820666F756E64205B253034582025FB
:109D00003034585D210A00004445564943455F49B7
:109D10004E464F524D4154494F4E5F53455256495E
:109D200043455F555549443D3078253034582066C9
:109D30006F756E64205B2530345820253034585DB3
:109D4000210A0000556E6B6E6F776E2055554944A1
:109D50003D30782530345820666F756E64205B2561
:109D600030345820253034585D210A0050484F4E79
:109D7000455F414C4552545F534552564943455FF8
:109D8000555549443D30782530345820666F756EFE
:109D900064205B2530345820253034585D210A007A
:109DA000424154544552595F534552564943455FC9
:109DB000555549443D30782530345820666F756ECE
:109DC00064205B2530345820253034585D210A004A
:109DD000414E43535F534552564943455F5555499C
:109DE000443D30782530345820666F756E64205BB2
:109DF0002530345820253034585D210A00000000F9
:109E0000696E76616C696420555549443D3078250A
:109E100030345820666F756E64205B2530345820CE
:109E2000253034585D210A004143495F4154545F55
:109E3000524541445F42595F47524F55505F545914
:109E400050455F524553505F56534556545F434FFC
:109E500044452C206661696C6564206E6F206672D3
:109E6000656520696E64657820696E20636F6E6E2B
:109E7000656374696F6E207461626C6520210A0DE0
:109E8000000000004143495F4154545F5245414442
:109E90005F42595F545950455F524553505F565386
:109EA0004556545F434F4445202D20436F6E6E65E9
:109EB0006374696F6E5F48616E646C653D307825D0
:109EC000782C48616E646C655F56616C75655F5097
:109ED0006169725F4C656E6774683D25642C4461EE
:109EE00074615F4C656E6774683D25640A0D0000FF
:109EF0002D2D2047415454203A206E756D48646CD6
:109F00006556616C7565506169723D25642C736896
:109F10006F727420555549443D30782530345820AF
:109F2000464F554E44204368617250726F7065729F
:109F3000746965733D307825303458204368617208
:109F400048616E646C65205B307825303458202D74
:109F5000203078253034585D0A00000047415020F9
:109F60004445564943455F4E414D455F555549442B
:109F70003D30782530345820666F756E64205B253F
:109F800030345820253034585D210A004741502094
:109F9000415050454152414E43455F555549443D1E
:109FA00030782530345820666F756E64205B25301C
:109FB000345820253034585D210A00004741502094
:109FC0005045524950484552414C5F5052495641C4
:109FD00043595F464C41475F555549443D307825CC
:109FE00030345820666F756E64205B2530345820FD
:109FF000253034585D210A004741545420534552BE
:10A00000564943455F4348414E4745445F434841B5
:10A0100052414354455249535449435F555549446D
:10A020003D30782530345820666F756E64205B258E
:10A0300030345820253034585D210A0042415454B0
:10A040004552595F4C4556454C5F434841525F5518
:10A050005549443D30782530345820666F756E641C
:10A06000205B2530345820253034585D210A00000B
:10A0700043555252454E545F54494D455F43484104
:10A08000525F555549443D30782530345820666F2D
:10A09000756E64205B2530345820253034585D219E
:10A0A0000A0000004C4F43414C5F54494D455F4905
:10A0B0004E464F524D4154494F4E5F434841525FC7
:10A0C000555549443D30782530345820666F756EBB
:10A0D00064205B2530345820253034585D210A0037
:10A0E000446576696365496E666F726D6174696F08
:10A0F0006E53657276696365204D414E5546414306
:10A1000054555245525F4E414D455F555549443D6A
:10A1100030782530345820666F756E64205B2530AA
:10A12000345820253034585D210A00004465766992
:10A130006365496E666F726D6174696F6E536572A7
:10A1400076696365204D4F44454C5F4E554D424501
:10A15000525F555549443D30782530345820666F5C
:10A16000756E64205B2530345820253034585D21CD
:10A170000A000000414E43535F4E4F544946494345
:10A180004154494F4E5F534F555243455F434841F9
:10A19000525F555549443D30782530345820666F1C
:10A1A000756E64205B2530345820253034585D218D
:10A1B0000A000000414E43535F434F4E54524F4CF0
:10A1C0005F504F494E545F434841525F5555494493
:10A1D0003D30782530345820666F756E64205B25DD
:10A1E00030345820253034585D210A00414E435305
:10A1F0005F444154415F534F555243455F4348418B
:10A20000525F555549443D30782530345820666FAB
:10A21000756E64205B2530345820253034585D211C
:10A220000A00000043454E5452414C5F41444452A1
:10A230004553535F5245534F4C5554494F4E5F550C
:10A240005549443D30782530345820666F756E642A
:10A25000205B2530345820253034585D210A000019
:10A26000556E6B6E6F776E5F6368617220555549EE
:10A27000443D30782530345820666F756E64205B1D
:10A280002530345820253034585D210A0000000064
:10A290004143495F4154545F524541445F42595FD5
:10A2A000545950455F524553505F56534556545F7D
:10A2B000434F44452C206661696C65642068616E7B
:10A2C000646C65206E6F7420666F756E6420696EB5
:10A2D00020636F6E6E656374696F6E207461626C6B
:10A2E0006520210A0D0000004143495F4154545F3D
:10A2F00046494E445F494E464F5F524553505F5664
:10A30000534556545F434F4445202D20436F6E6E96
:10A31000656374696F6E5F48616E646C653D30782B
:10A3200025782C466F726D61743D25642C457665E9
:10A330006E745F446174615F4C656E6774683D253F
:10A34000640A0D005052494D4152595F53455256CF
:10A350004943455F555549443D30782530345820B0
:10A3600068616E646C653D3078253034580A0D00A4
:10A3700072657365742043484152414354455249C4
:10A38000535449435F555549443D3078253034583E
:10A390002043686172537461727448616E646C65C5
:10A3A0003D3078253034580A0D0000007575696419
:10A3B0003D3078253034582068616E646C653D30DE
:10A3C00078253034582D3078253034582D30782584
:10A3D0003034580A0D0A0D0020756E6B6F776E5F72
:10A3E000636861725F6465736320555549443D300D
:10A3F00078253034582068616E646C653D3078256E
:10A400003034582D3078253034582D30782530347C
:10A4100058200A0D0000000047415020444556498D
:10A4200043455F4E414D455F555549443D30782584
:10A4300030345820666F756E64205B253034585D6B
:10A44000210A000047415020415050454152414EA1
:10A4500043455F555549443D307825303458206692
:10A460006F756E64205B253034585D210A00000052
:10A47000474150205045524950484552414C5F5049
:10A480005249564143595F464C41475F55554944EF
:10A490003D30782530345820666F756E64205B251A
:10A4A0003034585D210A0000205345525649434537
:10A4B0005F4348414E4745445F43484152414354FE
:10A4C000455249535449435F555549443D307825D9
:10A4D000303458204368617256616C756548616E0E
:10A4E000646C65205B253034585D0A004241545449
:10A4F0004552595F4C4556454C5F434841525F5564
:10A500005549443D30782530345820666F756E6467
:10A51000205B253034585D210A000000435552521B
:10A52000454E545F54494D455F434841525F555530
:10A5300049443D30782530345820666F756E64206C
:10A540005B253034585D210A000000004C4F434128
:10A550004C5F54494D455F494E464F524D41544919
:10A560004F4E5F434841525F555549443D30782531
:10A5700030345820666F756E64205B253034585D2A
:10A58000210A0000446576696365496E666F726DE5
:10A590006174696F6E53657276696365204D414ED3
:10A5A0005546414354555245525F4E414D455F55C6
:10A5B0005549443D30782530345820666F756E64B7
:10A5C000205B253034585D210A000000446576691F
:10A5D0006365496E666F726D6174696F6E53657203
:10A5E00076696365204D4F44454C5F4E554D42455D
:10A5F000525F555549443D30782530345820666FB8
:10A60000756E64205B253034585D210A000000001F
:10A6100020414E43535F4E4F5449464943415449AC
:10A620004F4E5F534F555243455F434841525F552C
:10A630005549443D3078253034582043686172567E
:10A64000616C756548616E646C65205B25303458BB
:10A650005D210A002020414E43535F434F4E545228
:10A660004F4C5F504F494E545F434841525F5555E0
:10A6700049443D3078253034582043686172566132
:10A680006C756548616E646C65205B253034585D7F
:10A69000210A000020414E43535F444154415F531F
:10A6A0004F555243455F434841525F555549443DDC
:10A6B000307825303458204368617256616C756576
:10A6C00048616E646C65205B253034585D210A005A
:10A6D000202043454E5452414C5F4144445245531F
:10A6E000535F5245534F4C5554494F4E5F55554952
:10A6F000443D307825303458204368617256616C8F
:10A70000756548616E646C65205B253034585D2149
:10A710000A00000020696E76616C696420636861DC
:10A72000722076616C756520555549443D30782519
:10A73000303458204368617256616C756548616EAB
:10A74000646C65205B253034585D210A00000000F0
:10A750004143495F4154545F46494E445F494E4628
:10A760004F5F524553505F56534556545F434F44D5
:10A77000452C206661696C65642068616E646C6557
:10A78000206E6F7420666F756E6420696E20636F33
:10A790006E6E656374696F6E207461626C652021F2
:10A7A0000A0D00004143495F474154545F4E4F54E6
:10A7B000494649434154494F4E5F56534556545FAD
:10A7C000434F4445202D20436F6E6E656374696F5F
:10A7D0006E5F48616E646C653D307825782C4174FD
:10A7E000747269627574655F48616E646C653D3052
:10A7F00078253034582C4174747269627574655FC1
:10A8000056616C75655F4C656E6774683D25640ABA
:10A810000D000000312E20496E636F6D696E672058
:10A820004E6F66696669636174696F6E20726563F5
:10A83000656976656420424153494320696E666FBD
:10A84000726D6174696F6E203A200A0D000000007D
:10A85000332E312050617273652044657461696CD8
:10A8600020496E666F726D6174696F6E206F66202D
:10A870004E6F74696669636174696F6E20417474A8
:10A880007269627574652C20436F6D6D616E6449E9
:10A89000444765744E6F74696669636174696F6E6D
:10A8A0004174747269627574657320526573706F58
:10A8B0006E73653A200A0D00332E33205061727397
:10A8C000652044657461696C20496E666F726D61C4
:10A8D00074696F6E206F662041505020417474720D
:10A8E00069627574652C20436F6D6D616E644944B7
:10A8F00047657441707041747472696275746573F0
:10A9000020526573706F6E73653A200A0D00000067
:10A910004143495F474154545F4E4F544946494370
:10A920004154494F4E5F56534556545F434F44453B
:10A930002C206661696C65642068616E646C6520BA
:10A940006E6F7420666F756E6420696E20636F6E23
:10A950006E656374696F6E207461626C6520210A94
:10A960000D000000204143495F4154545F5245416E
:10A97000445F42595F47524F55505F545950455FAD
:10A98000524553505F56534556545F434F44450A12
:10A9900000000000204143495F4154545F5245414B
:10A9A000445F42595F545950455F524553505F567A
:10A9B000534556545F434F44450A000020414349E4
:10A9C0005F4154545F46494E445F494E464F5F5283
:10A9D0004553505F56534556545F434F44450A0014
:10A9E000204143495F474154545F444953435F52B8
:10A9F0004541445F434841525F42595F5555494480
:10AA00005F524553505F56534556545F434F44453C
:10AA10000A000000204143495F4154545F46494EBB
:10AA2000445F42595F545950455F56414C55455F0C
:10AA3000524553505F56534556545F434F44450A61
:10AA4000000000004143495F474154545F41545462
:10AA50005249425554455F4D4F4449464945445F2C
:10AA600056534556545F434F444520417474725FBA
:10AA700048616E646C653D307825303458204F66EF
:10AA8000667365743D307825303458204174747293
:10AA90005F446174615F4C656E6774683D30782512
:10AAA000303458200A0D00004143495F4154545F3F
:10AAB00045584348414E47455F4D54555F524553B5
:10AAC000505F56534556545F434F444520436F6E85
:10AAD0006E656374696F6E5F48616E646C653D306E
:10AAE0007825303458205365727665725F52585F0E
:10AAF0004D54553D2564203D3D3E20414E43535F1E
:10AB00004D54555F45584348414E47455F434F4D6F
:10AB1000504C455445200A004143495F4741545435
:10AB20005F50524F435F434F4D504C4554455F5625
:10AB3000534556545F434F4445202D20436F6E6E5E
:10AB4000656374696F6E5F48616E646C653D3078F3
:10AB5000253034782C4572726F725F436F64653DA7
:10AB60003078253032582028307834313A20466108
:10AB7000696C6564290A0D004143495F474154549B
:10AB80005F50524F435F434F4D504C4554455F56C5
:10AB9000534556545F434F44452C206661696C65AC
:10ABA000642068616E646C65206E6F7420666F75DA
:10ABB0006E6420696E20636F6E6E656374696F6E7C
:10ABC000207461626C6520210A0D00004143495FD9
:10ABD000474154545F4552524F525F524553505F64
:10ABE00056534556545F434F444520436F6E6E6540
:10ABF0006374696F6E5F48616E646C653D30782583
:10AC0000303458205265715F4F70636F64653D301A
:10AC10007825303258204174747269627574655FAA
:10AC200048616E646C653D3078253034582045723B
:10AC3000726F725F436F64653D3078253032582003
:10AC400028307830353A20496E73756666696369D5
:10AC5000656E742061757468656E7469636174698A
:10AC60006F6E2C307830413A20417474726962758D
:10AC70007465206E6F7420666F756E64290A00001B
:10AC8000414E43535F5345545F444154415F4C45EB
:10AC90004E475448207365742064617461206C656C
:10ACA0006E677468202564202564206F6B203D3D0D
:10ACB0003E6163695F676174745F65786368616E44
:10ACC00067655F636F6E666967200A006163695F2D
:10ACD000676174745F65786368616E67655F636FF1
:10ACE0006E66696720636D64206F6B200A0D00003B
:10ACF0006163695F676174745F65786368616E67DB
:10AD0000655F636F6E66696720636D64204B4F20DB
:10AD1000726573756C743D307825303278200A0D79
:10AD200000000000474154545F50524F435F444974
:10AD300053435F414E43535F534552564943452069
:10AD40006163695F676174745F646973635F707284
:10AD5000696D6172795F736572766963655F627947
:10AD60005F7575696420636D64206F6B0A00000075
:10AD7000474154545F50524F435F444953435F41EE
:10AD80004E43535F53455256494345206163695FC3
:10AD9000676174745F646973635F7072696D617217
:10ADA000795F736572766963655F62795F757569EE
:10ADB0006420636D64204E4F4B207374617475730F
:10ADC000203D307825303258200A00004741545445
:10ADD0005F50524F435F444953435F414E43535F7B
:10ADE0005345525649434520414E435320536572C3
:10ADF00076696365206973204E4F5420666F756EC7
:10AE00006420212121203D3D3E20636F6E6E6563ED
:10AE100074656420746F20416E64726F69642050A1
:10AE2000686F6E652F506164200A0D0047415454CD
:10AE30005F50524F435F444953435F414E43535F1A
:10AE40005345525649434520414E43532053657262
:10AE500076696365205B307825303458202D2030AA
:10AE600078253034585D20697320666F756E6420D4
:10AE7000212121203D3D3E20636F6E6E6563746528
:10AE80006420746F20694F532050686F6E652F5097
:10AE90006164200A0D000000474154545F50524F36
:10AEA000435F444953435F414C4C5F5052494D41CD
:10AEB00052595F534552564943455320414C4C200B
:10AEC000736572766963657320646973636F766511
:10AED000726564205375636365737366756C6C7912
:10AEE000200A0000474154545F50524F435F444989
:10AEF00053435F414C4C5F5052494D4152595F534F
:10AF000045525649434553206163695F67617474D4
:10AF10005F646973635F616C6C5F7072696D6172AD
:10AF2000795F736572766963657320636D64204E23
:10AF30004F4B20737461747573203D307825303227
:10AF400058200A00474154545F50524F435F4449D0
:10AF500053435F414C4C5F5052494D4152595F53EE
:10AF60004552564943455320414E43532053657241
:10AF700076696365206973204E4F5420666F756E45
:10AF80006420212121200A0D000000004741545473
:10AF90005F50524F435F444953435F414C4C5F50B5
:10AFA00052494D4152595F534552564943455320EA
:10AFB000414E43532053657276696365205B307858
:10AFC00025303458202D203078253034585D2069C4
:10AFD0007320666F756E6420212121200A0D000008
:10AFE000474154545F50524F435F444953435F417C
:10AFF0004C4C5F5052494D4152595F53455256494E
:10B000004345532047415454205365727669636524
:10B01000205B307825303458202D2030782530348E
:10B02000585D20697320666F756E64202121212090
:10B030000A0D0000414E43535F444953434F564568
:10B04000525F414C4C5F434841525320636F6E6ED8
:10B05000656374696F6E5F68616E646C653D3078BE
:10B060002530345820414C4C5365727669636548ED
:10B07000616E646C655B25303458202D202530349A
:10B08000585D20414E43535365727669636548614C
:10B090006E646C655B25303458202D202530345883
:10B0A0005D0A0000414C4C20636861726163746505
:10B0B0007269737469637320646973636F76657210
:10B0C0006564205375636365737366756C6C792072
:10B0D0000A0D0000414C4C20636861726163746525
:10B0E0007269737469637320646973636F766572E0
:10B0F00079204661696C6564200A0D00474154540B
:10B100005F50524F435F444953435F414C4C5F4350
:10B110004841525320414E43534E6F7469666963F0
:10B120006174696F6E536F757263654368617253C2
:10B130007461727448646C653D30782530345820F1
:10B1400020414E43534E6F74696669636174696F41
:10B150006E536F757263654368617256616C756595
:10B1600048646C653D307825303458200A0D000065
:10B17000474154545F50524F435F444953435F41EA
:10B180004C4C5F434841525320414E4353446174F9
:10B1900061536F7572636543686172537461727451
:10B1A00048646C653D3078253034582020414E434A
:10B1B0005344617461536F7572636543686172567D
:10B1C000616C756548646C653D3078253034582075
:10B1D0000A0D0000474154545F50524F435F4449A9
:10B1E00053435F414C4C5F434841525320414E43CF
:10B1F00053436F6E74726F6C506F696E7443686105
:10B2000072537461727448646C653D3078253034D3
:10B21000582020414E4353436F6E74726F6C506FD1
:10B22000696E744368617256616C756548646C65DB
:10B230003D307825303458200A0D000047415454E1
:10B240005F50524F435F444953435F414C4C5F430F
:10B250004841525320536572766963654368616E55
:10B2600067656443686172537461727448646C65A5
:10B270003D307825303458202053657276696365F7
:10B280004368616E6765644368617256616C756599
:10B2900048646C653D307825303458200A0D000034
:10B2A000414E43535F444953434F5645525F414CCF
:10B2B0004C5F434841525F4445534353205B253024
:10B2C0003458202D20253034585D0A00416C6C2004
:10B2D0006368617261637465726973746963206421
:10B2E000657363726970746F727320646973636FDE
:10B2F0007665726564205375636365737366756CF8
:10B300006C79200A0D000000416C6C20636861724A
:10B3100061637465726973746963206465736372D1
:10B320006970746F727320646973636F7665727984
:10B33000204661696C6564200A0D00004741545441
:10B340005F50524F435F444953435F414C4C5F440D
:10B350004553435320414E43534E6F7469666963AE
:10B360006174696F6E536F7572636543686172448F
:10B3700065736348646C653D307825303458200A25
:10B380000D000000474154545F50524F435F444901
:10B3900053435F414C4C5F444553435320414E431C
:10B3A00053436F6E74726F6C506F696E7443686153
:10B3B000724465736348646C653D30782530345859
:10B3C000200A0D00474154545F50524F435F444997
:10B3D00053435F414C4C5F444553435320414E43DC
:10B3E0005344617461536F7572636543686172445D
:10B3F00065736348646C653D307825303458200AA5
:10B400000D000000474154545F50524F435F444980
:10B4100053435F414C4C5F44455343532053657243
:10B42000766963654368616E676564436861724409
:10B4300065736348646C653D307825303458200A64
:10B440000D000000536572766963654368616E673D
:10B450006564436861724465736348646C653D303C
:10B460007825303458206E6F746966696361746939
:10B470006F6E20656E61626C6564205375636365F1
:10B48000737366756C6C79200A0D000053657276D3
:10B490006963654368616E676564436861724465AA
:10B4A000736348646C653D307825303458206E6F86
:10B4B00074696669636174696F6E20656E61626C40
:10B4C0006564204661696C6564204843495F434F69
:10B4D0004D4D414E445F444953414C4C4F574544B8
:10B4E0005F4552525F434F44453D307825303278B6
:10B4F00020726573756C743D3078253032580A00BF
:10B50000414E43535F454E41424C455F4E4F544977
:10B510004649434154494F4E5F444154415F534F64
:10B52000555243455F4445534320307825303458C5
:10B5300020307825303458200A000000414E435313
:10B5400044617461536F75726365436861724465E9
:10B55000736348646C65206E6F74696669636174B7
:10B56000696F6E20656E61626C65642053756363FC
:10B5700065737366756C6C79200A0D00414E4353F8
:10B5800044617461536F75726365436861724465A9
:10B59000736348646C653D307825303458206E6F95
:10B5A00074696669636174696F6E20656E61626C4F
:10B5B0006564204661696C6564204843495F434F78
:10B5C0004D4D414E445F444953414C4C4F574544C7
:10B5D0005F4552525F434F44453D307825303278C5
:10B5E00020726573756C743D3078253032580A00CE
:10B5F000414E43535F454E41424C455F4E4F544987
:10B600004649434154494F4E5F4E4F544946494382
:10B610004154494F4E5F534F555243455F44455344
:10B620004320307825303458203078253034582065
:10B630000A000000414E43534E6F746966696361AE
:10B6400074696F6E536F75726365436861724465A8
:10B65000736348646C65206E6F74696669636174B6
:10B66000696F6E20656E61626C65642053756363FB
:10B6700065737366756C6C79200A0D00414E4353F7
:10B680004E6F74696669636174696F6E536F75722A
:10B690006365436861724465736348646C65206EDA
:10B6A0006F74696669636174696F6E20656E61624B
:10B6B0006C6564204661696C656420726573756CA5
:10B6C000743D3078253032580A0000003E3E3D3D42
:10B6D000204843495F444953434F4E4E45435449E4
:10B6E0004F4E5F434F4D504C4554455F4556545F58
:10B6F000434F44450A00000020202020202D2043F5
:10B700006F6E6E656374696F6E2048616E646C6500
:10B710003A202020307825780A20202020202D2053
:10B72000526561736F6E3A20202020307825780AA8
:10B730000D0000003E3E3D3D204843495F4C455FC3
:10B74000434F4E4E454354494F4E5F55504441542C
:10B75000455F434F4D504C4554455F535542455608
:10B76000545F434F44450A0020202020202D2043D1
:10B770006F6E6E656374696F6E20496E7465727664
:10B78000616C3A202020252E3266206D730A20201D
:10B790002020202D20436F6E6E656374696F6E20CC
:10B7A0006C6174656E63793A2020202025640A203C
:10B7B000202020202D205375706572766973696F83
:10B7C0006E2054696D656F75743A202564206D7321
:10B7D0000A0D00003D3D3E3E204843495F4C455F19
:10B7E0005048595F5550444154455F434F4D504C6C
:10B7F0004554455F5355424556545F434F44452099
:10B800002D2000003D3D3E3E206863695F6C655F12
:10B81000726561645F706879202D2053756363657C
:10B820007373200A000000003D3D3E3E2050485901
:10B8300020506172616D202054583D2025642C20D9
:10B8400052583D202564200A0D0000003E3E3D3D3B
:10B85000204843495F4C455F434F4E4E4543544952
:10B860004F4E5F434F4D504C4554455F53554245F5
:10B8700056545F434F4445202D20436F6E6E6563E1
:10B8800074696F6E2068616E646C653A203078254B
:10B89000780A000020202020202D20436F6E6E6546
:10B8A0006374696F6E2065737461626C6973686537
:10B8B0006420776974682043656E7472616C3A2005
:10B8C000403A253032783A253032783A253032788D
:10B8D0003A253032783A253032783A253032780AB3
:10B8E000000000004843495F4C455F434F4E4E45C2
:10B8F0004354494F4E5F434F4D504C4554455F5361
:10B9000055424556545F434F444520436F6E6E6524
:10B910006374696F6E5F48616E646C653D30782555
:10B9200030345820526F6C653D2564205065657237
:10B930005F416464726573735F547970653D25641B
:10B9400020506565725F416464726573733A253097
:10B9500032582025303258202530325820253032B8
:10B960005820253032582025303258200A00000057
:10B970003E3E3D3D204143495F4741505F4C494D6C
:10B98000495445445F444953434F56455241424C04
:10B99000455F56534556545F434F4445200A0000C7
:10B9A0003E3E3D3D204143495F4741505F5041533A
:10B9B000535F4B45595F5245515F56534556545F4F
:10B9C000434F4445200A00003D3D3E3E20616369EF
:10B9D0005F6761705F706173735F6B65795F7265DC
:10B9E0007370203A204661696C2C20726561736F18
:10B9F0006E3A20307825780A000000003D3D3E3E3A
:10BA0000206163695F6761705F706173735F6B650D
:10BA1000795F72657370203A205375636365737341
:10BA2000200A00003E3E3D3D204143495F474150D2
:10BA30005F415554484F52495A4154494F4E5F5205
:10BA400045515F56534556545F434F44450A0000E5
:10BA50003D3D3E3E204143495F4741505F424F4E8E
:10BA6000445F4C4F53545F56534556545F434F44C5
:10BA700045200A003D3D3E3E206163695F6761707D
:10BA80005F616C6C6F775F7265626F6E64203A20E5
:10BA90004661696C2C20726561736F6E3A20307854
:10BAA00025780A003D3D3E3E206163695F67617015
:10BAB0005F616C6C6F775F7265626F6E64203A20B5
:10BAC00053756363657373200A0000003E3E3D3D7D
:10BAD000204143495F4741505F414444525F4E4FCC
:10BAE000545F5245534F4C5645445F565345565448
:10BAF0005F434F4445200A003E3E3D3D20414349BF
:10BB00005F4741505F4B455950524553535F4E4F2D
:10BB100054494649434154494F4E5F565345565444
:10BB20005F434F44450A00003E3E3D3D20414349AE
:10BB30005F4741505F4E554D455249435F434F4D1E
:10BB400050415249534F4E5F56414C55455F5653F5
:10BB50004556545F434F44450A0000003D3D3E3E7C
:10BB6000206163695F6761705F6E756D657269639F
:10BB70005F636F6D70617269736F6E5F76616C7514
:10BB8000655F636F6E6669726D5F7965736E6F2D49
:10BB90002D3E594553203A204661696C2C20726530
:10BBA00061736F6E3A20307825780A003D3D3E3E45
:10BBB000206163695F6761705F6E756D657269634F
:10BBC0005F636F6D70617269736F6E5F76616C75C4
:10BBD000655F636F6E6669726D5F7965736E6F2DF9
:10BBE0002D3E594553203A20537563636573732086
:10BBF0000A0000004143495F4741505F50414952AC
:10BC0000494E475F434F4D504C4554455F56534551
:10BC100056545F434F44452C20436F6E6E656374EA
:10BC2000696F6E5F48616E646C653D3078253034B5
:10BC300058205374617475733D2564205265617397
:10BC40006F6E3D307825303278200A00202A2A2075
:10BC500050616972696E672054696D656F757420F3
:10BC60005374617475733D256420526561736F6E02
:10BC70003D307825303278202C200A2120506C6508
:10BC80006173652069676E6F7265207468697320DF
:10BC9000424C4520446576696365206F6E20746868
:10BCA0006520694F532F416E64726F69642044654B
:10BCB000766963652053657474696E673D3E426CB6
:10BCC0007565746F6F74683D3E4D79204465766983
:10BCD0006365206F722050616972656420446576E7
:10BCE0006963652021200A00202A2A205061697298
:10BCF000696E67204B4F205374617475733D2564E2
:10BD000020526561736F6E3D307825303278202C7B
:10BD1000200A2120506C656173652069676E6F721F
:10BD200065207468697320424C45204465766963D8
:10BD300065206F6E2074686520694F532F416E64D3
:10BD4000726F696420446576696365205365747415
:10BD5000696E673D3E426C7565746F6F74683D3EF9
:10BD60004D7920446576696365206F722050616962
:10BD7000726564204465766963652021200A0000AD
:10BD80004143495F4741505F50414952494E475FE7
:10BD9000434F4D504C4554455F56534556545F43B1
:10BDA0004F44452020506565725F426F6E64656444
:10BDB0003D2564203D3E2025642020536563757237
:10BDC0006974795F4D6F64653D2564203D3E202593
:10BDD000642053656375726974795F4C6576656C30
:10BDE0003D2564203D3E202564200A003E3E3D3D29
:10BDF000204143495F4741505F50524F435F434F9B
:10BE00004D504C4554455F56534556545F434F443F
:10BE100045200D003E3E3D3D204143495F47415492
:10BE2000545F494E4449434154494F4E5F56534530
:10BE300056545F434F4445200D00000000000000B1
:10BE400000000000000000000000000000000000F2
:10BE5000440008004005020112299C00F401000082
:10BE6000FFFFFFFF480101000020D8060003720613
:10BE7000000000000D00040020204661696C2020B5
:10BE8000203A20534843495F43325F424C455F4963
:10BE90006E697420636F6D6D616E642C20726573C2
:10BEA000756C743A203078253032780A0D00000025
:10BEB0002020537563636573733A20534843495F89
:10BEC00043325F424C455F496E697420636F6D6D0C
:10BED000616E640A0D0000003D3D3E3E20537461DA
:10BEE000727420426C655F4863695F4761705F47A9
:10BEF0006174745F496E69742066756E6374696FEE
:10BF00006E0A000020204661696C2020203A2068DB
:10BF100063695F726573657420636F6D6D616E64D4
:10BF20002C20726573756C743A2030782578200A5D
:10BF30000000000020204661696C2020203A20612A
:10BF400063695F68616C5F77726974655F636F6E68
:10BF50006669675F6461746120636F6D6D616E64B3
:10BF6000202D20434F4E4649475F444154415F5086
:10BF700055424C49435F414444524553535F4F46F9
:10BF8000465345542C20726573756C743A20307892
:10BF90002578200A00000000202053756363657334
:10BFA000733A206163695F68616C5F777269746579
:10BFB0005F636F6E6669675F6461746120636F6D54
:10BFC0006D616E64202D20434F4E4649475F4441CA
:10BFD00054415F5055424C49435F4144445245539C
:10BFE000535F4F46465345540A00000020205075C9
:10BFF000626C696320426C7565746F6F7468204170
:10C000006464726573733A20253032783A25303291
:10C01000783A253032783A253032783A25303278FD
:10C020003A253032780A000020204661696C2020D1
:10C03000203A206163695F68616C5F77726974653B
:10C040005F636F6E6669675F6461746120636F6DC3
:10C050006D616E64202D20434F4E4649475F444139
:10C0600054415F49525F4F46465345542C207265F8
:10C0700073756C743A2030782578200A000000002F
:10C080002020537563636573733A206163695F6849
:10C09000616C5F77726974655F636F6E6669675F15
:10C0A0006461746120636F6D6D616E64202D204347
:10C0B0004F4E4649475F444154415F49525F4F46A6
:10C0C000465345540A00000020204661696C202038
:10C0D000203A206163695F68616C5F77726974659B
:10C0E0005F636F6E6669675F6461746120636F6D23
:10C0F0006D616E64202D20434F4E4649475F444199
:10C1000054415F45525F4F46465345542C2072655B
:10C1100073756C743A2030782578200A000000008E
:10C120002020537563636573733A206163695F68A8
:10C13000616C5F77726974655F636F6E6669675F74
:10C140006461746120636F6D6D616E64202D2043A6
:10C150004F4E4649475F444154415F45525F4F4609
:10C16000465345540A00000020204661696C202097
:10C17000203A206163695F68616C5F7365745F7406
:10C18000785F706F7765725F6C6576656C20636F42
:10C190006D6D616E642C20726573756C743A20301D
:10C1A000782578200A0000002020537563636573AA
:10C1B000733A206163695F68616C5F7365745F7473
:10C1C000785F706F7765725F6C6576656C20636F02
:10C1D0006D6D616E640A000020204661696C20204C
:10C1E000203A206163695F676174745F696E697486
:10C1F00020636F6D6D616E642C20726573756C7455
:10C200003A2030782578200A00000000202053755D
:10C2100063636573733A206163695F676174745F18
:10C22000696E697420636F6D6D616E640A00000051
:10C2300020204661696C2020203A206163695F6795
:10C2400061705F696E697420636F6D6D616E642CDF
:10C2500020726573756C743A2030782578200A0056
:10C260002020537563636573733A206163695F6768
:10C2700061705F696E697420636F6D6D616E640AD1
:10C280000000000020204661696C2020203A2061D7
:10C2900063695F676174745F7570646174655F631F
:10C2A0006861725F76616C7565202D2044657669E2
:10C2B0006365204E616D650A000000002020537503
:10C2C00063636573733A206163695F676174745F68
:10C2D0007570646174655F636861725F76616C75C7
:10C2E00065202D20446576696365204E616D650A81
:10C2F0000000000020204661696C2020203A206167
:10C3000063695F676174745F7570646174655F63AE
:10C310006861725F76616C7565202D204170706573
:10C320006172616E63650A002020537563636573F3
:10C33000733A206163695F676174745F75706461EB
:10C3400074655F636861725F76616C7565202D202E
:10C35000417070656172616E63650A0020204661FC
:10C36000696C2020203A206863695F6C655F7365A3
:10C37000745F64656661756C745F70687920636F63
:10C380006D6D616E642C20726573756C743A20302B
:10C39000782578200A0000002020537563636573B8
:10C3A000733A206863695F6C655F7365745F646589
:10C3B0006661756C745F70687920636F6D6D616E16
:10C3C000640A000020204661696C2020203A206128
:10C3D00063695F6761705F7365745F696F5F6361F5
:10C3E000706162696C69747920636F6D6D616E64F0
:10C3F0002C20726573756C743A2030782578200A89
:10C40000000000002020537563636573733A206158
:10C4100063695F6761705F7365745F696F5F6361B4
:10C42000706162696C69747920636F6D6D616E64AF
:10C430000A00000020204661696C2020203A20611B
:10C4400063695F6761705F7365745F617574686568
:10C450006E7469636174696F6E5F7265717569721C
:10C46000656D656E7420636F6D6D616E642C2072F6
:10C470006573756C743A2030782578200A000000C6
:10C480002020537563636573733A206163695F6746
:10C4900061705F7365745F61757468656E746963FC
:10C4A0006174696F6E5F726571756972656D656ED5
:10C4B0007420636F6D6D616E640A00002020466118
:10C4C000696C2020203A206163695F6761705F6357
:10C4D0006F6E6669677572655F77686974656C69A8
:10C4E000737420636F6D6D616E642C20726573755B
:10C4F0006C743A2030782578200A0000202053758B
:10C5000063636573733A206163695F6761705F633A
:10C510006F6E6669677572655F77686974656C6967
:10C52000737420636F6D6D616E640A003D3D3E3E25
:10C5300020456E6420426C655F4863695F476170A7
:10C540005F476174745F496E69742066756E6374C9
:10C55000696F6E0A0D000000576972656C65737330
:10C56000204669726D776172652076657273696FB6
:10C570006E2025642E25642E25640A003E3E3D3D36
:10C5800020534843495F5355425F4556545F4552D7
:10C59000524F525F4E4F544946200A0D0000000092
:10C5A0003E3E3D3D20534843495F5355425F45560B
:10C5B000545F424C455F4E564D5F52414D5F555062
:10C5C00044415445202D2D20424C45204E564D20AF
:10C5D00052414D20484153204245454E205550443C
:10C5E000415445442042592043505532200A00000E
:10C5F00020202020202D20537461727441646472C5
:10C60000657373203D20256C78202C2053697A6552
:10C61000203D20256C640A003D3D3E3E20534843AA
:10C62000495F5355425F4556545F4E564D5F5354D4
:10C630004152545F5752495445203A204E756D621D
:10C6400065724F66576F726473203D20256C640AD3
:10C65000000000003E3E3D3D20534843495F535596
:10C66000425F4556545F4E564D5F454E445F5752AC
:10C670004954450A0D0000003D3D3E3E53484349A4
:10C680005F5355425F4556545F4E564D5F5354417C
:10C6900052545F4552415345203A204E756D6265B4
:10C6A000724F66536563746F7273203D20256C640E
:10C6B0000A0000003E3E3D3D20534843495F53552C
:10C6C000425F4556545F4E564D5F454E445F45525E
:10C6D0004153450A0D0000003E3E3D3D2053484376
:10C6E000495F5355425F4556545F4552524F525F22
:10C6F0004E4F544946205749544820524541534FC4
:10C700004E202578200A0D003E3E3D3D20534843F3
:10C71000495F5355425F4556545F4552524F525FF1
:10C720004E4F544946205749544820524541534F93
:10C730004E202D204552525F424C455F494E495490
:10C74000200A00003E3E3D3D20534843495F53557B
:10C75000425F4556545F4552524F525F4E4F5449C7
:10C7600046205749544820524541534F4E202D20D2
:10C77000424C45204552524F52200A003E3E3D3D1C
:10C78000204442474D43555F47657452657669734F
:10C79000696F6E49443D20256C78200A0D00000029
:10C7A0003E3E3D3D20534843495F5355425F455609
:10C7B000545F434F44455F5245414459202D204624
:10C7C00055535F46575F52554E4E494E47200A0D0E
:10C7D000000000003E3E3D3D20534843495F535515
:10C7E000425F4556545F434F44455F52454144596B
:10C7F000202D20554E455850454354454420434133
:10C800005345200A0D000000486561727420526192
:10C8100074652053657276696365202848525329F0
:10C820002069732061646465642053756363657374
:10C830007366756C6C7920253034580A000000004E
:10C840004641494C454420746F206164642048652A
:10C8500061727420526174652053657276696365F4
:10C860002028485253292C204572726F723A202595
:10C870003032582021210A004865617274205261CB
:10C880007465204D6561737572656D656E742043C6
:10C89000686172616374657269737469632041646D
:10C8A000646564205375636365737366756C6C7936
:10C8B000202025303458200A000000004641494C11
:10C8C000454420746F20616464204865617274205F
:10C8D00052617465204D6561737572656D656E7426
:10C8E0002043686172616374657269737469632C53
:10C8F000204572726F723A20253032582021210A69
:10C900000000000053656E736F72204C6F6361749A
:10C91000696F6E20436861726163746572697374D4
:10C920006963204164646564205375636365737350
:10C9300066756C6C79202025303458200A00000080
:10C940004641494C454420746F206164642053651E
:10C950006E736F72204C6F636174696F6E204368F1
:10C960006172616374657269737469632C204572C6
:10C97000726F723A20253032582021210A000000BF
:10C98000436F6E74726F6C20506F696E74204368D1
:10C990006172616374657269737469632041646470
:10C9A0006564205375636365737366756C6C792079
:10C9B0002025303458200A004641494C4544207413
:10C9C0006F2061646420436F6E74726F6C20506FCF
:10C9D000696E74204368617261637465726973740F
:10C9E00069632C204572726F723A202530325820CC
:10C9F00021210A00206163695F676174745F777247
:10CA00006974655F636861725F76616C75652063E8
:10CA10006D64204E4F4B20737461747573203D30EC
:10CA20007825303258200A00414E43535F47455421
:10CA30005F4E4F54494649434154494F4E5F41541C
:10CA40005452494255544520494E56414C49445F41
:10CA50004E4F544946595F454E5452592025642043
:10CA60000A0D0000414E43535F4745545F4E4F54FB
:10CA7000494649434154494F4E5F415454524942FB
:10CA800055544520696E74657261637420776974CA
:10CA90006820694F53204E6F7469666963617469D9
:10CAA0006F6E49442030782530386C782C207265C0
:10CAB000747269657665206D6F726520696E666F48
:10CAC000726D6174696F6E0A0D000000414E435330
:10CAD0005F4745545F4150505F415454524942555D
:10CAE0005445204170704964656E74696669657269
:10CAF0004C656E6774683D256420417070496465BB
:10CB00006E7469666965723A2573200A0D0000002B
:10CB1000414E43535F504552464F524D5F4E4F5426
:10CB2000494649434154494F4E5F414354494F4E52
:10CB300020494E56414C49445F4E4F544946595F37
:10CB4000454E545259202564200A0D00414E43534E
:10CB50005F504552464F524D5F4E4F5449464943F0
:10CB60004154494F4E5F414354494F4E206E6F74BC
:10CB7000696679456E7472793D2564204E6F7469DB
:10CB80006669636174696F6E494420307825303876
:10CB90006C782061637449443D2564200A0D0000CF
:10CBA000414E43535F504552464F524D5F4E4F5496
:10CBB000494649434154494F4E5F414354494F4EC2
:10CBC000206E6F74696679456E7472793D256420B4
:10CBD00052656D6F7665640A0D0000003D3D3E3E76
:10CBE000206163695F6761705F7365745F6E6F6E0C
:10CBF0005F646973636F76657261626C65202D2076
:10CC000053746F70204164766572746973696E67DE
:10CC1000204661696C6564202C20726573756C74A4
:10CC20003A202564200A00003D3D3E3E20616369B4
:10CC30005F6761705F7365745F6E6F6E5F64697369
:10CC4000636F76657261626C65202D205375636336
:10CC500065737366756C6C792053746F707065645E
:10CC6000204164766572746973696E67200A0000FA
:10CC70003D3D3E3E206163695F6761705F7365742F
:10CC80005F646973636F76657261626C65202D20E5
:10CC90006661696C2C20726573756C743A2030780B
:10CCA0002578200A000000003D3D3E3E206163697A
:10CCB0005F6761705F7365745F646973636F7665E6
:10CCC0007261626C65202D20537563636573730A0E
:10CCD000000000003D3D3E3E2053746172742046CA
:10CCE000617374204164766572746973696E67203C
:10CCF0004661696C6564202C20726573756C743AAA
:10CD0000202564200A0D00003D3D3E3E2053746105
:10CD10007274204C6F7720506F7765722041647673
:10CD20006572746973696E67204661696C65642019
:10CD30002C20726573756C743A202564200A0D00EE
:10CD40003D3D3E3E20537563636573733A205374D3
:10CD500061727420466173742041647665727469EF
:10CD600073696E67200A0D003D3D3E3E205375639A
:10CD7000636573733A205374617274204C6F77202B
:10CD8000506F776572204164766572746973696E5D
:10CD900067200A0D000000004741505F50524F438A
:10CDA0005F5045524950484552414C5F53454355A9
:10CDB000524954595F524551206163695F67617000
:10CDC0005F736C6176655F73656375726974795FB3
:10CDD00072657120207374617475733D30782530ED
:10CDE0003278200A0000000077616974696E67205C
:10CDF000666F7220204143495F4741505F5041496F
:10CE000052494E475F434F4D504C4554455F565332
:10CE10004556545F434F4445200A000077616974CA
:10CE2000656420666F7220204143495F4741505F2F
:10CE300050414952494E475F434F4D504C45544530
:10CE40005F56534556545F434F4445200A00000047
:10CE50004741505F50524F435F414C4C4F575F52D8
:10CE600045424F4E44206163695F6761705F616C4A
:10CE70006C6F775F7265626F6E642830782530342E
:10CE800058290A004741505F50524F435F4E554D5D
:10CE9000455249435F434F4D50415249534F4E5FB6
:10CEA00056414C55455F434F4E4649524D202A2A24
:10CEB000206163695F6761705F6E756D657269633C
:10CEC0005F636F6D70617269736F6E5F76616C75B1
:10CED000655F636F6E6669726D5F7965736E6F2DE6
:10CEE0002D3E594553200A005465726D20436F6EE4
:10CEF0006E656374696F6E20636D64206661696C32
:10CF00007572653A20307825780A00004741505FF5
:10CF100050524F435F5445524D494E4154455F4333
:10CF20004F4E4E454354494F4E20636F6D706C65B4
:10CF30007465206576656E742072656365697665D3
:10CF4000640A0000000000480100000000000048E2
:10CF5000010000000000004801000000000000483F
:10CF6000010000000000004801000000000000482F
:10CF7000010000000000004801000000000000481F
:10CF8000010000000000004801000000000000480F
:10CF900001000000000000480100000000000048FF
:10CFA00001000000000000480100000000000048EF
:10CFB00001000000000000480100000000000048DF
:10CFC00001000000000000480100000000000048CF
:10CFD00001000000000000480100000000000048BF
:10CFE00001000000000000480100000000000048AF
:10CFF000010000000000004801000000000000489F
:10D00000010000000000004801000000000000488E
:10D01000010000000000004801000000000000487E
:10D02000010000000000004801000000000000486E
:10D03000010000000000004801000000000000485E
:10D04000010000000000004801000000000000484E
:10D05000010000000000004801000000000000483E
:10D06000010000000000004801000000000000482E
:10D070000100000044657669636520496E666F7241
:10D080006D6174696F6E20536572766963652028DF
:10D090004449532920697320616464656420537591
:10D0A000636365737366756C6C7920253034580A38
:10D0B000000000004641494C454420746F206164E3
:10D0C000642044657669636520496E666F726D61A0
:10D0D00074696F6E205365727669636520284449D0
:10D0E00053292C204572726F723A20253032582015
:10D0F00021210A004D616E756661637475726572F7
:10D10000204E616D65204368617261637465726968
:10D110007374696320416464656420537563636557
:10D12000737366756C6C79202025303458200A00A2
:10D130004641494C454420746F20616464204D6130
:10D140006E756661637475726572204E616D6520DF
:10D1500043686172616374657269737469632C20DA
:10D160004572726F723A20253032582021210A0010
:10D17000206163695F6761705F636C6561725F7393
:10D18000656375726974795F6462202620616369E2
:10D190005F6761705F72656D6F76655F626F6E6409
:10D1A00065645F6465766963652026206163695FF5
:10D1B0006761705F7465726D696E617465200A00E5
:10D1C0003D3D3E3E206163695F6761705F636C65F2
:10D1D00061725F73656375726974795F6462202D33
:10D1E000204661696C2C20726573756C743A202539
:10D1F00064200A003D3D3E3E206163695F676170C7
:10D200005F636C6561725F73656375726974795F82
:10D210006462202D20537563636573730A000000F8
:10D220004143495F474154545F57524954455F5009
:10D2300045524D49545F5245515F56534556545FD0
:10D24000434F44450A0000004143495F474154545D
:10D250005F4154545249425554455F4D4F444946ED
:10D260004945445F56534556545F434F4445204813
:10D2700052535F4E4F54494649434154494F4E5FC4
:10D28000454E41424C45440A000000004143495F7D
:10D29000474154545F4154545249425554455F4D9F
:10D2A0004F4449464945445F56534556545F434FA2
:10D2B0004445204852535F4E4F54494649434154D8
:10D2C000494F4E5F44495341424C45440A000000D7
:10D2D0002DE9FC4D016800F10805490805EBC10284
:10D2E000019200F10803406800F0010803EBC10659
:10D2F000400806EBC0000021002205E0009B9F4291
:10D3000018BF17F9014B0BD1019B9D4206D02C6829
:10D310006B682F19FB1800930835EFE7BDE8F68D11
:10D32000009B9F4205D12B68EF186B68FB18009398
:10D33000083517F801AB91420FD183465E4508BF0F
:10D34000FBF7C3F931685FEA080018BF4944706809
:10D350000A1808369142F1D05846002C01F801AB6A
:10D3600002D5641CE7D1C9E7641ED9D5C6E7000021
:10D37000322E20476574204D6F72652044657461BC
:10D38000696C20496E666F726D6174696F6E2020E2
:10D390006E6F74696679456E7472793D2564203DBF
:10D3A0003D3E20414E43535F4745545F4E4F5449E5
:10D3B0004649434154494F4E5F41545452494255A6
:10D3C0005445200A0D00000020616E63735F636F97
:10D3D0006E746578742E6E6F74696679456E7472BA
:10D3E00079203D3D20494E56414C49445F4E4F54B3
:10D3F0004946595F454E545259203D3E20414E43C7
:10D40000535F49444C45200A0D0000000100000014
:10D410000300000005000000010000000100000002
:10D42000060000000A0000002000000002000000CA
:10D430000400000008000000100000004000000090
:10D44000800000000001000000020000A086010032
:10D45000400D0300801A060000350C0040420F000A
:10D4600080841E0000093D0000127A000024F400B0
:10D4700000366E010048E801006CDC02000000008C
:10D480000000000000000000000000001349002020
:10D4900008604FF0B0411248026842F47002026026
:10D4A0004FF4E023086840F0010008608B600A68D0
:10D4B0000C4802400C480A60036823F0050303602F
:10D4C000426852085200426000220848C860086161
:10D4D000086820F4802008608A61704708ED00E049
:10D4E00088ED00E0FBFEF6FA9400005800100422DC
:10D4F0007047FEE7FEE7FEE7FEE7704770477047BC
:10D5000000F026B8F7F77EBC0848FBF7CDBD084809
:10D51000FAF78DB90748FAF78AB9FBF723BAFBF790
:10D520004BBA00F01DB80448FBF7BEBDA42D002087
:10D530008C2B0020F82A0020042E00201020FBF75E
:10D54000E7B90120FBF7E4B90220FBF7E1B90000DD
:10D550000248416802788A1842607047EC20002037
:10D560000449C8680A6882430A60486000F004B849
:10D570000000000000150058704700002A2A2043D0
:10D58000617465676F727949443A204865616C74CB
:10D5900020616E64204669746E6573730D0A000025
:10D5A0002A2A2043617465676F727949443A2042A0
:10D5B0007573696E65737320616E642046696E6170
:10D5C0006E63650D0A00000080B50D4A7A44303262
:10D5D0000C4B7B442E339A4203D00B49AFF30080AF
:10D5E00002BD8DF80000012269460120FBF79CF87E
:10D5F000012802D19DF8000002BD4FF0FF3002BDAE
:10D60000002AFFF7FC29FFF72C2000202061636926
:10D610005F6761705F636C6561725F73656375728C
:10D620006974795F64622026206163695F67617055
:10D630005F72656D6F76655F626F6E6465645F646F
:10D640006576696365200A00506565725F426F6E9A
:10D650006465643D25642053656375726974795F00
:10D660004D6F64653D25642C205365637572697444
:10D67000795F4C6576656C3D2564200A00000000EA
:10D6800030B4002512E050F8042BD30744BF4A44BD
:10D69000521E091F042942F8045BFAD213468C0774
:10D6A00044BF15809B1CC90748BF1D7050F8041B60
:10D6B0000029E8D130BC7047414E43535F434F4E81
:10D6C0004E4543544544203D3D3E20414E43535F2B
:10D6D000444953434F5645525F414E43535F534570
:10D6E0005256494345200A0D0000000052657669F4
:10D6F0006577207468652050726545786973746534
:10D7000064204E6F74696669636174696F6E200A84
:10D710000D00000010B5074979441831064C7C44CF
:10D72000163404E00A68081D114488470146A142E6
:10D73000F8D110BD500000009C000000696E7661B9
:10D740006C696420616E63735F636F6E7465787477
:10D750002E73746174653D2564200A0D000000007D
:10D760004EF68851CEF20001086840F4700008605F
:10D77000BFF34F8FBFF36F8F4FF00170E1EE100AD0
:10D7800070470000FDFEFFFFC40E000008210020CE
:10D79000700800003C0003200000000035FBFFFF84
:10D7A0000200000002000000B401000002000000BE
:10D7B000280003201400000019FBFFFF02000000F6
:10D7C000020000009A010000BF00000008100020C5
:10D7D000001100002D2D20414E435320434C49455C
:10D7E0004E5420494E495449414C495A4544200A17
:10D7F0000D0000000000000000000000000000001C
:10D800000000000001000000020000000300000012
:10D810000400000000F00DF8002801D0FFF77AFFA7
:10D82000AFF300800020AFF30080F6F7EAFD00F0D0
:10D8300002F80120704700F001B8000007463846A2
:10D84000FBF7F8FCFBE700000548014603B4684617
:10D8500080F30988AFF30080FFF782FFFFF7DAFF5C
:10D86000A5EDF5FE38B504460D462846FFF7ACFE9B
:10D87000A84218BF0024204632BD0000014880475E
:10D88000014800478DD4000849D80008FFF7FEBFC3
:10D89000FFF7FEBFFFF7FEBFFFF7FEBFFFF7FEBFBC
:10D8A000FFF7FEBFFFF7FEBFFFF7FEBFFFF7FEBFAC
:10D8B000FFF7FEBFFFF7FEBFFFF7FEBFFFF7FEBF9C
:10D8C000FFF7FEBFFFF7FEBFFFF7FEBFFFF7FEBF8C
:10D8D000FFF7FEBFFFF7FEBFFFF7FEBFFFF7FEBF7C
:10D8E000FFF7FEBFFFF7FEBFFFF7FEBFFFF7FEBF6C
:10D8F000FFF7FEBFFFF7FEBFFFF7FEBFFFF7FEBF5C
:10D90000FFF7FEBFFFF7FEBFFFF7FEBFFFF7FEBF4B
:10D91000FFF7FEBFFFF7FEBFFFF7FEBFFFF7FEBF3B
:10D92000FFF7FEBFFFF7FEBFFFF7FEBFFFF7FEBF2B
:10D93000FFF7FEBFFFF7FEBFFFF7FEBFFFF7FEBF1B
:10D94000FFF7FEBFFFF7FEBFFFF7FEBFFFF7FEBF0B
:10D95000FFF7FEBFFFF7FEBFFFF7FEBFEC000001C1
:10D9600081008100810081008100810081008100AF
:10D97000810081008100810081008100810081009F
:10D98000810081008100810081008100810081008F
:10D99000810081008100810081008100810081007F
:10D9A000BD001302040101642E0020B42E00206487
:10D9B0002E0020642E0020FC0003642E0020FC00BA
:10D9C00007702000205C200020E0001B4A3C00087B
:10D9D0004A3C00084A3C00084A3C00084A3C00080F
:10D9E0004A3C00084A3C0008F8FF0BFA1900084AB4
:10D9F0003C00084A3C0008FAFFF200F8FFF0000281
:10DA00000DFF01E7000001F9000010FC000E080006
:0DDA100048000C0048000C004800093D00D3
:040000050800D849CE
:00000001FF
