:020000040800F2
:100000000810002051FB000809F700080BF7000852
:100010000DF700080FF7000811F7000800000000B6
:100020000000000000000000000000002D77000824
:1000300013F7000800000000D57600085D1A0008DC
:1000400079FB00087DFB000881FB000815F700081C
:1000500085FB000889FB00085FF7000865F70008CA
:100060008DFB000891FB000859F7000895FB00087C
:1000700099FB00089DFB000819F70008A1FB000888
:10008000A5FB0008A9FB0008ADFB0008B1FB0008B8
:10009000B5FB0008B9FB0008BDFB0008C1FB000868
:1000A000C5FB0008C9FB00081FF70008CDFB0008CE
:1000B000D1FB0008D5FB0008D9FB0008DDFB0008D8
:1000C000E1FB0008E5FB0008E9FB0008EDFB000888
:1000D00025F700082BF70008F1FB0008F5FB0008E6
:1000E000F9FB0008FDFB000801FC000805FC000806
:1000F00031F7000835F7000839F7000809FC000857
:100100000DFC000811FC000815FC000819FC000893
:100110001DFC000821FC000825FC000829FC000843
:100120002DFC000831FC00083DF7000835FC0008F4
:1001300039FC00083DFC000841FC000818B1022809
:1001400006D003D3704700BF03A002E007A000E081
:100150000CA001F06BBC00002A2A204576656E7465
:1001600049443A2041646465640D0A002A2A204506
:1001700076656E7449443A204D6F646966696564BA
:100180000D0A00002A2A204576656E7449443A20FB
:1001900052656D6F7665640D0A00000010B5012888
:1001A000044608D0022809D0042809D0082809D01C
:1001B000102809D00BE000BF18A006E01DA004E045
:1001C00023A002E02AA000E031A001F02FFC00BF34
:1001D00037A001F02BFCE00744BF0FF2E40001F070
:1001E00025FCA00744BF0FF2E00001F01FFC6007F0
:1001F00044BF0FF2E00001F019FC200744BF0FF2EA
:10020000E40001F013FCE00644BF0FF2E80001F047
:100210000DFCBDE81040BAA001F008BC2A2A204518
:1002200076656E74466C61673A2053696C656E74CE
:100230000D0A00002A2A204576656E74466C6167B7
:100240003A20496D706F7274616E740D0A0000007F
:100250002A2A204576656E74466C61673A20507292
:1002600065204578697374696E670D0A00000000A7
:100270002A2A204576656E74466C61673A20506F75
:1002800073697469766520416374696F6E0D0A0045
:100290002A2A204576656E74466C61673A204E6561
:1002A00067617469766520416374696F6E0D0A0039
:1002B0002A2A204576656E74466C6167733A0000A1
:1002C0002053696C656E740020496D706F727461A3
:1002D0006E740000205072654578697374696E67AA
:1002E0000000000020506F73697469766541637483
:1002F000696F6E00204E656761746976654163744D
:10030000696F6E000B28C44923D8DFE800F00609A6
:100310000B0D0F11131517191C1F00BF0DA016E0B0
:1003200012A014E019A012E020A010E026A00EE018
:100330002BA00CE031A00AE036A008E0084606E059
:1003400001F1240003E000BF38A000E03EA001F06E
:100350006DBB70472A2A2043617465676F727949C3
:10036000443A204F746865720D0A00002A2A20431F
:10037000617465676F727949443A20496E636F6DA5
:10038000696E672043616C6C0D0A00002A2A2043C5
:10039000617465676F727949443A204D697373657A
:1003A000642043616C6C0D0A000000002A2A20437F
:1003B000617465676F727949443A20566F69636565
:1003C000204D61696C0D0A002A2A2043617465671B
:1003D0006F727949443A20536F6369616C0D0A006A
:1003E0002A2A2043617465676F727949443A205321
:1003F00063686564756C650D0A0000002A2A204355
:10040000617465676F727949443A20456D61696C22
:100410000D0A00002A2A2043617465676F727949CA
:10042000443A204E6577730D0A0000002A2A2043C3
:10043000617465676F727949443A204C6F636174E7
:10044000696F6E0D0A0000002A2A204361746567F7
:100450006F727949443A20456E7465727461696EB1
:100460006D656E740D0A000070B56C4C4FF6FF752B
:100470000146A4F8085800220C235343234403F5F3
:100480000273187818B198780840884203D0521C3B
:10049000802AF1DB0DE004F6080600203280B070FF
:1004A0000E22227031885E4801F0C0FA3188A942DC
:1004B00004D15C4801F0BAFA0020207070BD000041
:1004C00038B5564C40F64401204601F0C3FA0020EE
:1004D0000021C5B20C225543401C6219C3B2802BC7
:1004E00082F80812F5DB21704FF6FF70A4F80200C5
:1004F000A4F80808BDE8324002A001F097BA000055
:100500000A0D0000414E435320434C49454E5420B0
:100510005245534554200A0D0000000070B53F4C71
:10052000DFF8946C04F62E0502E0022001F00AF8D0
:100530004FF0FF320021012001F046FB2178052910
:1005400023D008290AD00E2906D00F2902D010295D
:10055000EBD01CE00120E9E70020E7E7012000F0F4
:1005600079FE022000F076FE032000F073FE0420E6
:1005700000F070FE288800281EBF6888002802F05E
:100580009CF8052000F066FED2E70020FAE730462E
:1005900001F04CFACCE7DFF8A82C5068012101F0FB
:1005A000E1BA000010B50FF28100DFF8944C02F0C0
:1005B000D5F9DFF8902CDFF8900C002101F085FAD6
:1005C000606000220021012001F0B6FBC4F80000A9
:1005D000FFF776FFBDE8104001A001F027BA000048
:1005E0002D2D20414E435320434C49454E54204924
:1005F0004E495449414C495A4544200A0D000000D7
:10060000DFF83C1C086801F004BCDFF8342C1068EB
:100610004FF0FF3101F0D8BB88F7000824710020AB
:1006200088F50008E0F500082DE9F14FA8B0012099
:1006300028998DF80C004878FF2840F0B4850846CA
:1006400040F60143B0F80310DFF8006CDFF800BC9F
:10065000CA1A00F05E85921E00F06785521E00F0F7
:100660000F82521E00F01D83521E00F01781121FD0
:100670000DD0521F00F04683521E00F06B85521EB3
:1006800000F07C85521E00F0078300F084BD41F22B
:10069000483000F0B7FD00F0A9FD0BF21C4001F05E
:1006A000C5F900F0A9FD40F0F680C8790B46024676
:1006B000197A91FBF2F2D2B2142804BF04274FF04A
:1006C0000C08062804BF04274FF0000806F60805AA
:1006D0003E461C46CDF81480049200270EE000F040
:1006E0007BFD0BF23C5003E000F076FD0BF5E5607E
:1006F00001F09CF9E0798619F6B27F1C049AF9B2F0
:10070000914280F25385A0194379827943EA022904
:10071000A31904F10800DB79825D059843EA0228F9
:10072000801904F1090304F10A021B5C105C049AAD
:10073000CDF8048043EA002ACDF8009053460BF52B
:10074000926001F073F9688908B1814501DAA5F872
:100750000A90A88908B1404501DAA5F80C80BAF5DD
:10076000C05F08D1A5F80E90A5F8108000F034FD08
:100770000BF2D440BCE741F60100824509D10146A5
:10078000A5F81A90A5F81C8043464A460BF5A060D0
:10079000AEE741F602008245A1D041F603018A4549
:1007A00004D143464A460BF5AD60A1E741F604008B
:1007B000824504D100F02DFD0BF29C5098E741F6E4
:1007C0000500824504D100F024FD0BF5BA608FE7E7
:1007D00041F60600824504D100F01BFD0BF5C16017
:1007E00086E741F60700824504D100F012FD0BF5C3
:1007F000C9607DE741F60800824504D100F009FD9B
:100800000BF5D06074E741F60900824504D100F091
:1008100000FD0BF5D6606BE741F60A00824504D176
:1008200000F0F7FC0BF2EC6062E741F60B0082454A
:100830001CBF41F60C018A453FF456AF41F60D004E
:100840008245A9D041F60E018A4504D143464A4665
:100850000BF5EA604CE741F60F00824504D100F049
:10086000D8FC0BF2847043E74FF23140824509D146
:100870000146A5F82690A5F8288043464A460BF283
:10088000B47035E745F22B00824585D000F0A4FC1A
:100890000BF2E4702CE70BF60C00F0E041F278303C
:1008A00000F0B0FC00F0A2FC0BF6680001F0BEF80E
:1008B00000F0A2FC40F0E180C8790A7A114691FB71
:1008C000F0F1C9B2152804BF4FF005090C24072820
:1008D00004BF4FF005090024501E289A10724FF0F3
:1008E000000ADDF8A080059406F60805049111E0E1
:1008F00000F06EFC0BF5176003E000F069FC0BF6EE
:10090000444001F093F898F8070048445FFA80F9F2
:100910000AF1010A049A5FFA8AF1914280F2468450
:1009200008EB09000679437908EB090446EA032637
:10093000A37908EB090208F10907D479027A05982E
:10094000484444EA02243F5C08F10A02105C57EA7A
:10095000002718BF002BD6D0002E18BF002CD2D0F5
:10096000019400963A460BF6D40001F05FF8B7F513
:10097000285F04D100F02CFC0BF51460C1E742F6AF
:1009800001208742B4D042F602218F4204D100F008
:100990001FFC0BF51A60B4E742F6032087421CBF28
:1009A00042F604218F42A3D042F60520874207D1A8
:1009B000EE8301462C84234632460BF6DC10A0E77A
:1009C00042F61920874204D100F01FFC0BF522608B
:1009D00097E742F62B20874204D100F016FC0BF675
:1009E00054208EE742F60F20874204D100F00DFC20
:1009F0000BF6882085E742F62920874204D100F0D3
:100A000004FC0BF6C4207CE742F62420874204D184
:100A100000F0FBFB0BF5316073E741F20D208742DC
:100A200007D16E8501462C86234632460BF6583098
:100A300067E74DF6F300874207D1AE8501466C8625
:100A4000234632460BF698305BE74CF2E96087426A
:100A500007D1EE850146AC86234632460BF53D6054
:100A60004FE742F6A62087427FF447AF6E82AC8202
:100A700000F0AEFB0BF6084043E70BF674407AE358
:100A80000BF59D5000F0D2FF00F0B0FB0BF6CC4010
:100A900000F0CCFF00F0B0FB40F0FB80C8790128EB
:100AA00004D14FF002094FF000080427022804D1B6
:100AB0004FF002094FF00C081227087A289CDFF843
:100AC00010ADCDF81080F9B290FBF1F106F60805F3
:100AD000C9B200200BF559624E4601928846814604
:100AE00012E0009202460BF6BC5007E0B5F832E087
:100AF000F445F6D12A8700920246019800F096FF4D
:100B0000BE19F6B209F101095FFA89F0404580F299
:100B10004D83E21D04F10800925D815D049842EA74
:100B20000122801904F1090104F10A03095C185C2F
:100B300041EA0021B1F5205F04D10BF6285000F006
:100B400075FFDDE742F6030081420BD10023AAF8CE
:100B50000030AAF80430AAF80630AAF802200BF6F2
:100B60005450ECE7B1F5245F1CBF42F602108142FD
:100B700075D0AAF80010AAF80420B1F5285F08BFC4
:100B80000BF6FC50DBD042F60120814264D042F6E5
:100B90000223994208BF0BF65460D0D042F60320DE
:100BA00081421CBF42F60423994255D042F60520EB
:100BB000814203D101460BF68C60C0E742F6192052
:100BC000814203D101460BF56D60B8E742F62B2058
:100BD000814203D101460BF57060B0E742F60F2069
:100BE000814203D101460BF57360A8E742F6292044
:100BF000814203D101460BF66870A0E742F624203B
:100C0000814203D101460BF57B6098E741F20D204C
:100C1000814203D101460BF6F47090E74DF6F300E4
:100C2000814205D1014641F238030BEB030086E710
:100C30004CF2E960814203D1014641F27803F4E7C6
:100C400042F6A620814219BF41F2F800584441F211
:100C5000B4030BEB030072E70BF628606FE7AAF80A
:100C60000620BAF804C0B5F820E0BAF802006346DE
:100C7000F44508BF6A840BD0B5F830E0F44508BFEE
:100C8000EA8605D0B5F834E0F4457FF42FAF6A87E3
:100C900031E741F234103AE241F2C4310BEB01008A
:100CA00069E241F2F83000F0ADFA2898C279B0F864
:100CB00005100BF5377000F0B9FE289C00270EE0F8
:100CC00004F10A0104F1080031F8273030F8272038
:100CD00039460BF54F7000F0A9FE7F1CFFB2E0799A
:100CE0008742EDDB317808290BD12189DFF8E40A4E
:100CF0000190C1840198628902850BF56B7000F048
:100D000095FE53E2437AB0F80720B0F8051041F29F
:100D10008810584400F08AFE00F06EFA40F0F58129
:100D2000B1F8070006F608010A8E90424DD141F253
:100D3000F81000F067FA2898877AC47AD0F80E5035
:100D400090F80D9090F80CA00BF5217000F06EFE5D
:100D50003846FFF7F3F92046FFF720FA5046FFF731
:100D6000D1FA49460FF6903000F060FE29460FF6A2
:100D7000A03000F05BFE022F14D100210C2000FBFC
:100D800001F2324402F502729368AB4203D0491C6F
:100D90008029F4DB19E0002010700FF6943000F089
:100DA00045FE12E000210C224A43324402F5027251
:100DB0001078B0B3491C8029F5DB37B9E00704D4BB
:100DC0002046FFF751FBFFF7E6FB289AB2F8070031
:100DD00006F608018A8E904293D12898847A802161
:100DE00008A800F037FE0BF1A4002100069040F0A7
:100DF000E88041F2342000F005FA2898417A4A1F31
:100E000092B2002406F1860106F5837306F6080EF9
:100E10000027A046A14605910493CDF804E007926F
:100E200011E0012010705770947082F803A082F8CE
:100E3000049095600FF6183000F0F8FDBDE709F159
:100E400003001FFA80F90798814580F2A78028984F
:100E5000484400F110010222684601F08BFD00F0C9
:100E6000ADF9ECD00199887808BB0D880BF15000E2
:100E700000F0DCFD0C2000FB05FAB2440AF2092563
:100E80002878FFF75BF96878FFF788F9A878FFF70B
:100E900039FAE9780FF6042000F0C8FDDAF81012EC
:100EA0000FF6102000F0C2FD0199012088702899EA
:100EB0004944C87B07281ED8DFE800F01916131034
:100EC0000D0A07040FF6A41013E00FF6841010E0CB
:100ED0000FF670100DE00FF658100AE00FF64010F4
:100EE00007E00FF62C1004E00FF6181001E00FF6E3
:100EF000001000F09BFD28984844C07B08B90124ED
:100F000007E0062808BF012703D0072808BF4FF0D5
:100F10000108BDF8002009F10100FF2A85B209D8B7
:100F200000F05EF901F026FD0499BDF800200020D4
:100F3000885409E000F046F900F052F9FE2201F071
:100F400019FD002086F80402BDF80090A94409F1BB
:100F500002001FFA80F9200017D0BDF80020521CB3
:100F6000802A07DC0499059801F004FDBDF8000013
:100F7000401C05E004990598802201F0FBFC8020CC
:100F800086F8850000240F20307000F017F904D097
:100F900004990FF65C1000F049FD54E730780F28F3
:100FA00008BF0BF1EC0006D058EA070704D0102068
:100FB00030700BF5B670A3E0002030700BF5DA70DE
:100FC0009EE0012C40F09E8041F29C2000F01AF936
:100FD00028980FF61C1A00F10B0108A801F0DAFCA2
:100FE00028980B3001F0E2FC28994A7A80B2121A54
:100FF000971E01F10C02BFB202EB0008002506F5B6
:10100000837901E0ED1CADB2BD4259DA08EB050071
:10101000411C0222684601F0ADFC00F0CFF8F1D08F
:1010200018F80540584600F001FD1CB90FF65800AD
:1010300000F0FCFC18F80500BDF80020441EA44197
:10104000E40F6D1CFF2AADB20BD808F10200411964
:10105000484601F08FFCBDF80000002109F800109F
:101060000BE000F0AFF808F102004119FE224846FB
:1010700001F080FC002186F804122846BDF80050DB
:101080002D18AD1CADB29CB1BDF80020521C802AB9
:1010900007DC4946701D01F06DFCBDF80000401CE6
:1010A00005E080224946701D01F064FC802030710B
:1010B00000F084F8A8D04946504600F0B7FCA3E7FA
:1010C00006F608040C27218806F20B2007FB01F224
:1010D000805C012818BF05280CD00BF5147000F0B7
:1010E000A5FC218806F502704F430022C25511234A
:1010F000337007E001202072102131700BF502706F
:1011000000F094FCFFF747FA50E041F2F420584415
:1011100031E0B0F80B30B0F80920B0F8071041F218
:101120002840584400F082FC40E0B0F80720B0F8B6
:10113000051041F28C40584400F078FC289A0621B2
:101140008DF80810B2F80500ADF80A0002A800F00A
:10115000E1FA2BE0C2792AB1B0F805100BF5A850DE
:1011600000F064FC00F048F803D10020FFF748FAD3
:101170001CE00BF5AB5000F059FC17E0817A289881
:1011800000910389C279B0F8051041F2B450584477
:1011900000F04CFC0AE00FF2D47000F047FC002095
:1011A0008DF80C0002E000218DF80C109DF80C0069
:1011B00029B0BDE8F08F00004CF90008BDF8000030
:1011C00000287047BDF800100698FF2200F02EBCE2
:1011D000234632463946704743464A465146704791
:1011E0002898284400F11101049870472898037A40
:1011F000C279B0F80510704728997088B1F80520B9
:1012000090427047584400F011BC014623463246D4
:101210007047014643464A46704780B5DFF8B80537
:1012200000F004FCDFF8B4255088ADF8020011216D
:101230008DF80010684600F06DFA01BD0000000056
:10124000A88C002070F900081D05000824710020FA
:10125000B8B800082DE9FF41DFF88075DFF8805548
:10126000052807F6120447F2305810D8DFE810F0CE
:101270000600260077009C00DD000C010420387079
:101280004FF404627888FB2101F0BFFB002840F096
:101290004A814FF40462FB21284600F0C7FB052079
:1012A0003870788801F01BFD00F03FF914B905F1A2
:1012B0004C0030E1214605F1700032E108220021A6
:1012C0003A708DF801102D2212218DF802208DF830
:1012D00003101E224B218DF804208DF805100F22DB
:1012E000A4218DF806208DF8071099224E218DF843
:1012F00008208DF80910CE22B5218DF80A208DF82E
:101300000B103122F4218DF80C208DF80D10D02017
:101310008DF80000052279218DF80E208DF80F1030
:101320006A467888022101F019FD010004D105F117
:10133000A40000F07BFB03E005F1F00000F076FB79
:1013400000F0F4F8E28BA18B21B9002A6CD105F5ED
:10135000A670E0E0002A67D005F5D67062E00720AD
:101360003870788801F0D6FC00F0E8F826B905F569
:10137000067000F05BFB04E0314605F5197000F0E3
:1013800055FBE28BA18B21B9002A4DD105F53170B7
:10139000C1E0002A48D005F5437000F047FB628A9F
:1013A000218A05F558703DE009203870A08B019026
:1013B000009063882288798805F56D7000F036FB0F
:1013C00062882188788801F0F6FC00F0B7F8002EDA
:1013D0000CBF05F2244005F2544000F027FB218C9D
:1013E00000291FBFE28C002A05F27C4000F01EFBA2
:1013F000A18C00291FBF628D002A05F59E6000F0B8
:1014000015FB618C00291FBF228D002A05F2545064
:1014100000F00CFBA18A00291CBFE28A002A03D03D
:1014200005F2BC5000F002FB7DE00A2038706288B3
:10143000218805F5C46000F0F9FA6288218878886F
:1014400001F0D9FC00F07AF8002E0CBF05F24C60D8
:1014500005F5D16000F0EAFAA18D19B105F2BC6082
:1014600000F0E4FAE18D19B105F2047000F0DEFA43
:10147000218E19B105F2447000F0D8FA218B0029B1
:1014800051D005F284704CE00120218BADF80000B2
:10149000A9B10D2038706B467888022201F0F3FC68
:1014A00000F04CF8218B26B905F2C47000F0BEFAAA
:1014B00005E033460C2205F60C0000F0B7FA228E48
:1014C000C2B10C20387005F50860798800F0AEFADA
:1014D000218E00F02EF800F031F826B905F6BC0098
:1014E00000F0A4FA06E0218E33460C2205F6FC003B
:1014F00000F09CFAA28DB2B10B20387005F5176090
:10150000798800F093FAA18D00F013F800F00DF83F
:1015100024B905F6B41000F089FA04E0214605F676
:10152000FC1000F083FABDE8FF8104464046FFF757
:101530006CB878886B46022201F0A5BC064640468E
:10154000FFF763B82DE9F843A44FDFF89892A0B0F5
:1015500007F5047407F6080547F230580C264FF6D5
:10156000FF7220B1022800F0888055D3CEE00E2013
:10157000387028889042014601D0802902DB09F1A9
:10158000340084E0714309F17000615800F04EFAB4
:1015900028880FF2403146436846A459142201F0CE
:1015A00009FD00208DF80000220C200A8DF80200B1
:1015B0008DF8032000208DF80500012228208DF8E9
:1015C00007008DF8062002208DF808208DF809000C
:1015D000282228208DF80A208DF80D0003220420EF
:1015E0008DF801408DF80C208DF80F000721240E96
:1015F0000123052206208DF812108DF804408DF885
:101600000B308DF80E308DF810208DF811006B46E0
:10161000698E7888132225E00F20387007F1860440
:1016200097F88510224609F1D80000F0FFF997F8E5
:1016300085608021684600F00DFA01208DF80000D9
:1016400000216B4605E014F801C003F800C0104605
:10165000491C421CB142C0B2F5DB00211954D2B280
:10166000698E788801F0EDFB04464046FEF7CDFF19
:10167000002C4BD02146484609E0102038702888BD
:101680009042014601D0802904DB09F58E7000F0FC
:10169000CDF93BE006FB01F00023225809F5AC70C0
:1016A00000F0C4F9288800BF8FA27043022120589F
:1016B000D2E90034CDE900348DF801008DF8001036
:1016C000020A030C000E8DF804008DF802200020A1
:1016D0008DF803308DF805006B46698E78880622F8
:1016E00001F0AFFB04464046FEF78FFF1CB12146D8
:1016F000484600F09BF9298809F5D67000F096F964
:1017000028884643B819002180F8081221B0BDE8A6
:10171000F083000010B50178304C01290CD002296B
:1017200012D0032915D005291DD0062921D008295A
:101730002DD0112932D010BD42882B48628008215B
:10174000217000F073F93FE08EA000F06FF90220E5
:1017500004E000BF91A000F069F903202070BDE80B
:101760001040FEF7ADBE00BF93A000F05FF905206A
:1017700012E000BF95A000F059F92078052803D1A8
:101780001A49086800F045FB0620207010BD00BF14
:1017900096A000F04BF90820207015E0217000BFE2
:1017A0009AA000F043F90021C8B20C22504322183D
:1017B00002F50272107820B9491CCAB2802AF3DB04
:1017C00010BD9078FEF750FEBDE81040FEF7E3BE76
:1017D000A08C00202C790020FCF800082471002047
:1017E00020CF000808EC0008C8F80008A88C0020EA
:1017F0002A2A204170704964656E74696669657251
:101800003A2000002A2A205469746C653A200000AE
:101810002A2A205375625469746C653A20000000CE
:101820002A2A204D6573736167653A200000000025
:101830002A2A204D65737361676553697A653A207A
:10184000000000002A2A20446174653A200000004C
:101850002A2A20506F736974697665416374696FD1
:101860006E4C6162656C3A20000000002A2A204E0E
:1018700065676174697665416374696F6E4C616216
:10188000656C3A20000000002A2A20446973706CBD
:1018900061794E616D653A20000000002A2A2043DC
:1018A000617465676F7279436F756E743A20256451
:1018B0000D0A00002A2A204E6F74696669636174FC
:1018C000696F6E5549443A203078253038780D0AD2
:1018D0000000000000000000000001FFFF02FFFF09
:1018E00003FFFF04050607000200000000000000DF
:1018F0002025730D0A0000002A2A204361746567C1
:101900006F7279436F756E743A202564200D0A005A
:101910002A2A204E6F74696669636174696F6E5517
:1019200049443A2030782530386C78200D0A000080
:101930002A2A206E6F74696679456E7472793A202E
:1019400025642052656D6F7665640D0A0000000005
:101950002A2A206E6F74696679456E7472793A200E
:1019600025642041646465640D0A0000696E766137
:101970006C69642065636F64652030782530345865
:101980000A000000414E43535F444953434F4E4EBB
:10199000454354494E47200A0D000000414E435331
:1019A0005F444953434F4E4E5F434F4D504C455457
:1019B00045200A0D00000000414E43535F4D545531
:1019C0005F555044415445200A0D0000414E435399
:1019D0005F4D54555F45584348414E47455F434F1F
:1019E0004D504C455445200A0D000000414E4353D4
:1019F0005F444953434F5645525F414E43535F53F3
:101A0000455256494345200A0D000000203D3D3E09
:101A100020414E43535F434845434B5F4E4F54492B
:101A20004649434154494F4E200A0D000EB41EB59D
:101A3000024605A801900024009401AB012104484E
:101A400078440C3001F0C5FA03B010BC5DF810FB0F
:101A5000C5E00000002202F025BA2E0080B5DFF8B4
:101A60000804016802F087FD012803D0BDE80140A9
:101A700003F00BB801BDEFF3058000B16FE0DFF8B4
:101A8000EC13086810B901220A6070474FF0FF306C
:101A90007047000080B5EFF3058000B10FE0DFF87C
:101AA000CC030268012A09D1DFF8C4230021117098
:101AB0000223036002F014FB002002BD02E06FF07D
:101AC000050002BD4FF0FF3002BDF8B584B0002321
:101AD0000393EFF30583002B3ED103003CD0802518
:101AE0001826002462B3136803B11C4693691BB126
:101AF0001E0004D0392E02D21379DF0701D5002051
:101B00002BE0536903B19D08D2F808C0D768BCF137
:101B1000000F10D05C2F1FD31269002A18BF002BB2
:101B20001AD00192CDF808C00B4600962A462146ED
:101B300002F0D2F90FE0002F04BF1269002A0BD186
:101B400003AB019300960B46AAB2214602F0F5F9C9
:101B5000012801D000200390039805B0F0BD6FF07C
:101B6000050070473EB5040001D0002903D56FF091
:101B70000301019126E04FF0FF320192EFF305805F
:101B8000A8B10020029002AD00950023012220465A
:101B900002F042FE00230093002201AB0021204608
:101BA00002F03AFE029868B100F052F90AE0002310
:101BB0000122204602F0DAFD01AB0022002120467E
:101BC00002F0D4FD01983EBD2DE9F84F81460E4646
:101BD000EFF3058018B16FF00500BDE8F28FB9F1A1
:101BE000000F48BF6FF00300F7D4B0074CBF4FF0B1
:101BF0000008C846144602F01DFB00272546824611
:101C00006FF0020B07E002F015FBA0EB0A00854223
:101C10002CBF2D1A00252B466A464146002002F0B3
:101C200065FD012811D109EA0700009F0743F1076C
:101C300007EA090003D5484503D13846CDE7002817
:101C4000FBD1002CDFD15F46F7E7002C0CBF5F46CD
:101C50006FF001070028DED1EFE770B5044600F011
:101C600011F925D104B1606800F0010500071FD407
:101C700054B1E068A16831B1502819D38DB1042066
:101C800002F0F3FF06E098B9002D14BF04200120F4
:101C900002F0E0FF06000BD0002C14BF21680021E9
:101CA00001E00120ECE703F087FB0DB146F00106EF
:101CB000304670BDF8B5024650080C46400000257D
:101CC000EFF3058111B16FF0050515E010B96FF064
:101CD000030511E0D1076FF002066FF001072146FE
:101CE00002D502F0E8FF01E003F0E8F9012803D093
:101CF000002C14BF3D4635462846F2BD38B5014696
:101D0000480840000024EFF3058212B16FF005048B
:101D100010E010B96FF003040CE0C9076FF0020582
:101D200002D502F0AFFF02E0002300F0A6F8012880
:101D300018BF2C46204632BD7CB50E461446002501
:101D4000EFF3058100293DD100283BD0B04239D3C3
:101D500044B1E168A2681AB1502933D3012102E0ED
:101D600000292FD10021012819D1012908D10320F0
:101D700000900022A3680021012002F004FF02E08D
:101D8000032202F032FF05001CD0A6B100F073F868
:101D9000012810D0284603F079FA002512E0012925
:101DA00004D1A268314602F0A8FF02E0314602F0F9
:101DB000BEFF050006D0002C14BF21680021284674
:101DC00003F0FAFA284676BD7CB50C46002528B10A
:101DD0006FF00206EFF3058179B114B16FF00305DE
:101DE00015E000956A46002103F013FA01280DD191
:101DF000009860B100F02CF809E0214603F05EF98C
:101E0000012804D014B16FF0010500E035462846E2
:101E100076BD38B5002410B96FF0030416E06FF0FA
:101E20000205EFF3058151B10094694603F073F8A0
:101E300001280AD1009848B100F00AF806E0002312
:101E4000002202F08BFF012800D02C46204632BD34
:101E5000DFF82C004FF080510160BFF34F8FBFF3CC
:101E60006F8F70470000000010E000E0D88C002069
:101E70001FED00E0606800230022002102F06EBF29
:101E800004ED00E00026EFF305800028704770475E
:101E900070B596B0002200210120DFF84C49DFF830
:101EA0004C59FFF749FFE061294607A83C2201F0A1
:101EB00081F80020FFF7D1FE2062002200210120DE
:101EC000FFF73AFF60620FF60511DFF82409009072
:101ED000019169460FF6DD0003F0B8FA01210220F6
:101EE00003F08DFB05F5E86200210FF24D70FFF75E
:101EF000ECFDE06207A803F0A1FB010006D005F1AC
:101F00003C00FFF793FD03F005FD03E005F17400CD
:101F1000FFF78CFD0FF690100088ADF81A0005F160
:101F20009C00FFF783FD00F04BFD28B1014605F151
:101F3000C800FFF77BFD03E00FF67010FFF776FD9A
:101F4000DFF8B008016811F1010F0ED0426821746A
:101F5000120A090A6174110A4068E274A074120C32
:101F60002175627504F1100606E0002003F0D4FC30
:101F7000060008BF0FF6941632460621002003F033
:101F8000DFFC28B1014605F1F800FFF74FFD10E036
:101F900005F5AE70FFF74AFD307802907178019137
:101FA000B0780090F3783279717905F5D870FFF741
:101FB0003DFD70790FF65C12207231796172F07814
:101FC000A072B178E1727078207318203178617353
:101FD000102103F0B5FC28B1014605F5F670FFF7B6
:101FE00025FD03E005F51170FFF720FD0FF6341213
:101FF0001021082003F0A4FC28B1014605F5237048
:10200000FFF714FD03E005F53970FFF70FFD182108
:10201000012003F0ABFC28B1014605F54B70FFF73A
:1020200005FD03E005F55B70FFF700FD00F078FDAE
:1020300028B1014605F56770FFF7F8FC03E005F5E8
:102040007470FFF7F3FC0DF1160006A901900091E2
:1020500005AB07220021012003F08AFD28B10146CB
:1020600005F57D70FFF7E2FC03E005F22440FFF781
:10207000DDFC0FF65800BDF8181000900523BDF8E0
:102080001400002200F008FE002814BF05F5896046
:1020900005F59060FFF7CAFC0DF11A0000900223CD
:1020A000BDF81610BDF81400002200F0F5FD002860
:1020B00014BF05F5976005F2EC40FFF7B7FC02226C
:1020C0000221002000F0FAFC28B1014605F5A460C9
:1020D000FFF7ACFC03E005F25C50FFF7A7FCDFF86C
:1020E00018670320307003F0E6FC28B1014605F5BF
:1020F000B160FFF79BFC03E005F5B960FFF796FCC4
:102100000020707008211020317170710021DFF8FB
:10211000EC06F170B06001210020B1707073C1B2A3
:1021200031448873401CC1B21029F8DB00200490B0
:102130000023B168F078039102900122717930791F
:10214000019100907178B07803F0C9FC28B1014684
:1021500005F5BF60FFF76AFC03E005F24460FFF796
:1021600065FCB07860B103F0A3FD28B1014605F528
:10217000D060FFF75BFC03E005F5D860FFF756FC85
:1021800005F5DE60FFF752FC00F0D8FB00204FF6AB
:10219000FF7186F89000F18405F21C7200210FF2A5
:1021A0008940FFF792FCA06203F0A0FE03F0C8FE96
:1021B0008920E070FEF7F6F90FF26543002206F180
:1021C0009101002004F0AAF806F128000122022162
:1021D00002700D2341708370017003233144182273
:1021E000037081F8292080202083A02161830120B1
:1021F00000F0A6F916B070BD2DE9F8432DED028B65
:10220000044688B06178DFF8F055DFF8F4950529C9
:1022100005F1900605D03E2923D0FF2900F0CA80A1
:1022200051E1A088E98C884217D10022EA843270FB
:102230004846FFF7FBFBA279A18809F12C00FFF7C4
:10224000F5FB03208DF81C0007A8A188ADF81E102F
:10225000FFF760FA002000F096FA012000F070F914
:1022600031E1E0780A27012809F19C089FEDB28B43
:102270003ED0032802D00C2816D024E109F16800D2
:10228000FFF7D4FBB4F80B0047430197B4F80950AB
:102290000095B4F8070004F069F953EC182B04F02A
:1022A00073F900F016F90EE109F58470FFF7BEFB33
:1022B000207900280CBF0FF26C500FF27450FFF71A
:1022C000B5FBE88C06AA0DF1190100F0CFFB10B1A7
:1022D0000FF26C50EDE009F59C70FFF7A7FB9DF83D
:1022E00018209DF8191009F5AE70FFF79FFBEAE082
:1022F000707804F03BF8B4F8051009F5C070FFF7EA
:1023000095FB607A0290A17A0191E07A0090237B9C
:10231000627BA17B09F5E470FFF788FBB4F813003A
:1023200047430197B4F811000090B4F80F0004F08F
:102330001DF953EC182B04F027F900F0CAF8307897
:1023400004280CBF062005203070B4F80500E8848E
:10235000617A0591A07A0490E17A0391207B029042
:10236000617B0191A07B0090237AE279B4F805109B
:1023700009F50670FFF75AFBB4F805007080217A62
:102380007171A07BF072617BB172207B7072E17A17
:102390003172A07AF071617AB17100F059F90120BF
:1023A0008DF81C0007A8B4F80510ADF81E10FFF753
:1023B000B1F988E0B4F803004FF48061401A14D0FA
:1023C000401E40D0401E13D0401E19D0801E1AD08F
:1023D000801E6CD0401E1CD0401E20D0401E1BD042
:1023E00040F60401401A67D06DE009F5297060E0FD
:1023F000B4F8051009F53570FFF718FB02201FE04F
:1024000009F54C7055E009F55770FFF70FFB0420F4
:1024100016E009F566704CE009F5717049E0D4F8F2
:1024200007100FF23C40FFF701FBD4F807100FF242
:102430004840FFF7FBFA09F57D70FFF7F7FA032034
:1024400000F04EF93FE0237AE279B4F8051009F282
:102450005440FFF7EBFAE179012903D1227A09F21E
:10246000AC4004E0022907D1227A09F5A960FFF700
:10247000DDFA00F013F911E081B93479757BB77B8F
:1024800000F0E6F8B07B029001972B46717B327921
:10249000009109F5BC602146FFF7C8FA307B01289E
:1024A00011D1DFF84413C869FFF7B3FC0BE009F260
:1024B0004C60FFF7BBFA06E009F27460FFF7B6FA6A
:1024C000E88C00F00AFD08B00120BDEC028BBDE8ED
:1024D000F28302460B464046FFF7A8BA80B50FF2DA
:1024E000AC30FFF7A3FAC448B0F89200BDE804404E
:1024F0001EE0FEF792BE38B5C24C2046FFF796FAB2
:10250000BD4800F1920500F19601E87803F092FCD5
:1025100003F0F2FB28B1014604F15000FFF786FA00
:1025200003E004F18400FFF781FA2888BDE8344015
:10253000132103F0CFBB0000000000000000F43FB7
:102540002DE9F84787B00446A74F012807BF3E8B07
:10255000B7F81A904FF4C8664FF47A69DFF898A27A
:10256000DFF8A4820AF19005687803F0FFFE022CE0
:1025700010D12878012818BF02280BD103F037FAB0
:10258000010003D04046FFF751FA03E008F14C0088
:10259000FFF74CFA0020069005900AF129020492F8
:1025A00006229AF828000FF28C31039002910192D2
:1025B000002300932C704A463146002003F029FA8C
:1025C00028B1014608F19400FFF730FA03E008F162
:1025D000CC00FFF72BFA39460E2003F019FB01005F
:1025E0000AD0012C0CBF08F1F80008F5967008B06D
:1025F000BDE8F047FFF71ABA012C0AD108F5B2700E
:10260000FFF714FA6878814908B0BDE8F04703F095
:10261000F3BE08F5C67008B0BDE8F047FFF706BA8C
:10262000714A906AB8E0000080B500F00BF8022013
:10263000FFF786FFF9E7000080B500F003F802F02D
:1026400024FFFAE74FF0FF3200210120FFF7BCBA68
:102650001FB5694800F1920400F19601E07801ABE2
:102660000DF1020203F095FB401E8041C00FA070E7
:102670006A4620880DF1010103F0E2FA9DF801108D
:102680009DF80020E172227338B99DF800309DF862
:102690000120A1785E48FFF7C9F91FBD80B55D48EC
:1026A000FFF7C4F9544800F1960190F8950003F043
:1026B000C1FBBDE8014003F01FBB80B5FFF7C8FFB9
:1026C0005549087830B1012801BF487A0128887A35
:1026D000012803D1BDE80240012001E001BD000056
:1026E00070B504284D4C4E4E47F230554AD8DFE8BD
:1026F00000F03303192C22000121A172208803F07D
:102700006EFA01001CBF3046FFF790F906F1500049
:10271000FFF78CF9284600F03AF80020A07206F185
:1027200084002BE06BA0FFF781F920883349BDE8D6
:10273000704003F003BA218806F1B800FFF776F97C
:102740002088BDE8704003F0F3BA2088012103F02F
:102750005FFB06F1F00011E066A0FFF767F9208843
:10276000132103F0B7FA01001CBF06F5AA70FFF7AA
:102770005DF9284600F00BF806F5BC70BDE8704026
:10278000FFF754B970BD1849C869FFF742BB164A34
:10279000D0690AE0144AD06A0121FFF7E3B912496F
:1027A000486AFFF736BB104A506A4FF0FF31FFF717
:1027B0000BBB000010B50446616801F1080003F08E
:1027C000B9FF00B10120207010BD000006490A6A5F
:1027D00010B1012805D070474FF0FF311046FFF7C8
:1027E00069BA1046FFF78ABAAC2000206CD90008FD
:1027F000AC0803208075FF1FB886002007B20100D7
:10280000D0E0000888F30008F0ED000846E0010081
:1028100058F8000818F800084C8700204A87002064
:10282000ACEF0008737461747573206F6B200A003D
:10283000737461747573206E6F6B200A0000000062
:102840003D3D3E3E206863695F6C655F7265616413
:102850005F706879203A206661696C0A0D0000009B
:10286000206E756D657269635F76616C7565203D7C
:1028700020256C640A000000204865785F76616C52
:102880007565203D20256C780A0000000A202A2A60
:10289000205465726D20434F4E4E454354494F4E70
:1028A000202A2A20200A000040030000202053751F
:1028B00063636573733A206863695F7265736574F7
:1028C00020636F6D6D616E640A0000004852414ED6
:1028D000430000004741505F50524F435F50415307
:1028E000535F4B45595F524553504F4E5345200A55
:1028F0000D0000007465726D696E61746520636F10
:102900006E6E656374696F6E200A00006C7AD8ACD5
:1029100057720000123456789ABCDEF012345678A2
:102920009ABCDEF0FEDCBA0987654321FEDCBA09F9
:1029300087654321094852414E4300000B4900205E
:10294000087700220A48027303F02EBF07490A7F66
:1029500041F82200087F401C0877704704490A7B31
:1029600041F82200087B401C08737047188C002037
:10297000808C002010B5044600F01CFB204610BDE2
:1029800010B5044610460A460146204603F034FFBF
:10299000204610BD5FEA000C11F8012B00F8012B56
:1029A00012B111F8012BF9E76046704700F10103FD
:1029B00010F8011B11B110F8011BFBE7C01A70479A
:1029C00000B587B000F040F80321ADF80410ADF871
:1029D00006100122069200F09DF800284CBFFF204F
:1029E0009DF8000007B000BD07910492CDF818D003
:1029F000002102A802F07CBDADF806100820704747
:102A00000491ADF804000321704778B5C7B00646BD
:102A10000D461446032200F020F8ADF81C60ADF816
:102A20001E50ADF8204000F012F82221FFF7E4FF1D
:102A30000621FFF7E5FF00F06AF800284CBFFF20F1
:102A40009DF8000048B070BD00208DF800001822ED
:102A5000002101A8FFF794BF092200216846FFF773
:102A60008FBF1822002102A8FFF78ABF70B5C8B037
:102A700006460C4615460522FFF7EFFFADF820602D
:102A8000FFF7EFFF3021ADF80A1008200221059171
:102A9000ADF80800052108AAFFF7A6FF002848BFE7
:102AA000FF2009D49DF8000030B99DF80300207084
:102AB00000209DF80410297048B070BD18B5C7B04B
:102AC00000F018F8312200F009F800F023F800288F
:102AD0004CBFFF209DF8000048B010BDADF80620A7
:102AE0000821ADF804100322049207A903910122E2
:102AF0000692704700248DF81C008DF8004007A84E
:102B0000417082700021182201A8FFF739BF07AA7F
:102B100006910392CDF814D0002101A802F0E8BC80
:102B200000B587B000208DF8000000F0D1F940F228
:102B3000011200F030FA00F0F1F900284CBFFF203C
:102B40009DF8000007B000BD2DE9F841C7B004466C
:102B5000884616461F46012808BF022003D00228D7
:102B60000CBF102000200DF11D031D1800F035F8DA
:102B7000012C8DF81C4002D0022C1AD01BE002243C
:102B8000224641460DF11D00FFF7F4FE2E706F70D6
:102B900000F09EF900F096F94FF4817100F017F8FB
:102BA000E41C0692049400F0B9F9002805D5FF2032
:102BB00009E01024E4E7972005E09DF8000010B933
:102BC0004E9800F064F8FFE748B0BDE8F081ADF83A
:102BD0000400ADF806100322704703220021684666
:102BE000FFF7CEBE2DE9F64F0C46C7B00546994615
:102BF000012C08BF022003D0022C0CBF10200020A3
:102C00000DF11F031E18FFF7E8FF012CADF81C5053
:102C10008DF81E4002D0022C2CD02DE00227DDF8CA
:102C20005881DDF854B1DDF850A1539D529C48996C
:102C30003A4600F002F9A6F80090B470F57086F8F4
:102C400004A086F805B086F8068000F041F93F2020
:102C50004FF4827107AAADF80400ADF80610039294
:102C60000A3703220497069200F058F9002805D588
:102C7000FF2009E01027D2E7972005E09DF800002B
:102C800010B9579800F003F849B0BDE8F08FBDF8CF
:102C9000011001800020704778B5C7B01D464C9BDD
:102CA00000F067F900268DF800608DF821502A4663
:102CB00019460DF12200FFF75DFE00F009F900F062
:102CC00001F94FF4837100F06EF9AD1D00F024F9A5
:102CD00000284CBFFF209DF8000049B060BD00B542
:102CE000C7B000F02CF800F0F1F800F097F840F2CF
:102CF0000B1200F028F800F011F900284CBFFF205B
:102D00009DF8000047B000BD0023ADF81C008DF811
:102D10001E10704700B5C7B000F011F800F0D6F8EB
:102D200000F07CF84FF4897200F00DF800F0F6F82E
:102D300000284CBFFF209DF8000047B000BD0023D5
:102D4000ADF81C0070470F210291ADF8062002215A
:102D5000049107AA012106910392704718B5C7B0E4
:102D6000134600228DF8002002290CBF10240224F3
:102D7000FFF7CBFF2246194600F05FF800F0A8F8F5
:102D800040F2131100F00DF80122E41C06920494A5
:102D900000F0C4F800284CBFFF209DF8000048B0A8
:102DA00010BDADF806100F2202923F2007A9ADF822
:102DB00004000391704718B5C7B000F00FF800F099
:102DC0002DF840F2151200F02DF800F0A7F80028B9
:102DD0004CBFFF209DF8000048B010BD0024ADF8A6
:102DE0001C008DF8004007A8418082800021182235
:102DF00001A8FFF7C5BD18B5C7B0FFF7EFFF00F09A
:102E00000DF840F2171200F00DF800F087F80028D6
:102E10004CBFFF209DF8000048B010BD3F21ADF829
:102E2000041070470F210291ADF80620062104918D
:102E300007AA01210691039270470DF11F00FFF7C9
:102E400099BD30B5C7B000F00FF800F041F84FF46D
:102E50008E7100F02BF800F05FF800284CBFFF20C7
:102E60009DF8000048B020BD1546ADF81C000022BA
:102E700007A88DF80020418005712A4619460DF1FA
:102E80002100FFF777BD30B5C7B0FFF7EDFF00F0C9
:102E90001FF840F2211100F009F800F03DF8002879
:102EA0004CBFFF209DF8000048B020BDADF80610D3
:102EB0000F2202923F2007A9ADF8040003910122DE
:102EC0006D1D704707AA03923F2070478DF80030B0
:102ED0001822002101A8FFF753BD00B5C7B0FFF7C6
:102EE0002EFFFFF7F3FF40F2251200F009F800F083
:102EF00015F800284CBFFF209DF8000047B000BD2A
:102F0000ADF806203F21ADF804100222049207A973
:102F1000039101220692704706920495CDF814D0D1
:102F2000002101A802F0E4BAB8B5C7B04C9C4D9D91
:102F300000F01FF800278DF821308DF800708DF813
:102F40002240E2B2294600F01BF8FFF7C1FFFFF76D
:102F5000B9FF4FF4937100F017F8E41D0692049442
:102F6000FFF7DCFF00284CBFFF209DF8000048B0B1
:102F7000B0BDADF81C00ADF81E108DF820207047D4
:102F80000DF12300FFF7F6BCADF80400ADF8061014
:102F9000E4B201227047ADF806203F21ADF80410DD
:102FA000012206927047ADF80400ADF80610012228
:102FB000704770474AB1000011F8013B521E00F8FB
:102FC000013B1CBF11F8013BF8E7704740F02000BF
:102FD00070472DE9F14FB0B0924604910DF14201D6
:102FE0003A9A2B9199464A7000200AE01AF8011B80
:102FF0000498309A90470028049000F044860D9879
:10300000401C0D909AF8000058B12528EED1002000
:10301000002100220790089109920A910B920C91CD
:1030200004E00D9800F031BE41F001011AF8010FE3
:103030002028F9D023280CD02B2804D02D2805D007
:10304000302809D00BE041F00201EFE741F0040124
:10305000ECE741F00801E9E741F01001E6E72A2832
:103060000FD1D9F8002052F8040BC9F8002000282D
:103070000F9003D540420F9041F004010AF1010A7C
:1030800014E00F92DFF8082C0AE00F9B934205DA58
:1030900003EB830400EB440030380F900AF1010A7F
:1030A0009AF80000A0F130030A2BEED39AF8002022
:1030B0002E2A03D04FF0FF300E9029E01AF8010FAE
:1030C0002A2809D1D9F8002052F8040BC9F80020A9
:1030D0000E900AF1010A1BE02D280CBF0AF1010A2B
:1030E000002000220E92DFF8A84B0BE040B90E9BA7
:1030F000A34205DA03EB830502EB4502303A0E9258
:103100000AF1010A9AF80020A2F130030A2BEDD34C
:10311000ADF840100FF67C309AF8001003F076FB03
:1031200008B11AF8010B8DF842009DF8420068289A
:1031300005D19AF8001068290CD1622006E06C28AD
:1031400004BF9AF800106C2904D171208DF8420058
:103150000AF1010A12AA06921AF801BBBBF1250076
:103160002CD01C3800F09781001F022840F2938178
:10317000133800F0BA84093800F08D81801E00F009
:103180004F85401E00F0FC84401E022840F28381DF
:10319000001F00F0F584401F00F0F280401E00F098
:1031A000A484401E00F0DA80C01E0ED0801E00F005
:1031B0009C84C01E00F0998400F03DBD01222521B1
:1031C00007928DF8481000F042BDD9F8000050F881
:1031D000044BC9F80000002C059440F0AB802B99FB
:1031E0004878002800F0A1804FF0FF340FF6AC20A3
:1031F00003F018FB241A40F0468500F028BD012397
:103200006A4602A9304600F00DFE002840F03B85DA
:10321000641EF4D13096079C12AF74B1309E17F83B
:10322000011B0498B0470028049000F02C850D98ED
:10323000401C641E0D90F2D130960A9C3021002C67
:103240008DF800100CDD309E01236A4602A930463D
:1032500000F0E8FD002840F01685641EF4D1309699
:10326000059F089C74B1309E17F8011B0498B04765
:103270000028049000F007850D98401C641E0D90F6
:10328000F2D130960B9C3021002C8DF800100CDD13
:10329000309E01236A4602A9304600F0C3FD002893
:1032A00040F0F184641EF4D1309605980899099C89
:1032B000471874B1309E17F8011B0498B0470028D6
:1032C000049000F0E0840D98401C641E0D90F2D133
:1032D00030960C9C3021002C8DF800100CDD309EB7
:1032E00001236A4602A9304600F09CFD002840F008
:1032F000CA84641EF4D130969DF8400041077FF5E2
:1033000081AE2020002D8DF800007FF77BAE309C31
:1033100001236A4602A9204600F084FD002840F0FF
:10332000B2846D1EF4D130946CE60FF658300590DF
:1033300000F08DBC0E9D002D04D52046FFF736FB16
:10334000044608E02A460021204603F08BFA0028B4
:1033500014BF041B2C46089400F079BCD9F8001067
:1033600051F8040BC9F8001020F00002002121F0F0
:10337000FF33CDE9022312AC0594782100F04CBC58
:103380002B99487820B14FF0FF340FF6C8202FE773
:103390009DF84200622860D0682817D06A283FD084
:1033A0006C2806D0712847D074282CD07A281DD0DC
:1033B00062E0D9F8001051F8040BC9F80010002899
:1033C00066D14FF0FF340FF6A42011E7D9F80010B2
:1033D00051F8040BC9F8001020B94FF0FF340FF674
:1033E0008C2005E70D99018000F031BCD9F8001060
:1033F00051F8040BC9F80010002849D14FF0FF34F0
:103400000FF66820F4E6D9F8001051F8040BC9F85B
:10341000001000283CD14FF0FF340FF65020E7E6B3
:10342000D9F8001051F8040BC9F8001080B94FF01A
:10343000FF340FF63820DBE6D9F8001051F8040B02
:10344000C9F8001020B94FF0FF340FF62020CFE666
:103450000D9AD317C0E90023F9E3D9F8001051F809
:10346000040BC9F8001020B94FF0FF340FF6FC1020
:10347000BEE60D990170EAE3D9F8001051F8040B8B
:10348000C9F8001020B94FF0FF340FF6E010AFE696
:103490000D990160DBE39DF842004C2807BFD9F885
:1034A0000010CA1DD9F80000C21D22F00702C9F899
:1034B0000020D2E900010832C9F80020CDE902015C
:1034C000C80F02D007982D210AE0BDF840008107FF
:1034D00002D507982B2103E0C00705D507982021C6
:1034E00012AA1154401C079012A807994BF0200310
:1034F00000EB010CDDE90201CDE92C01612BCDF8D7
:1035000014C021AC0BD00E98002848BF062105D46A
:1035100004BF4BF02000672801D101210E91DDE9A5
:1035200002014F0047EAD0777E15FF174FF0FF32B8
:10353000974208BF964210D1090341EA1051000397
:10354000002908BF002808D0ABF1610503211A2D1E
:10355000089118D30FF6341110E0DDE902014A009A
:10356000521512F1010F11D108030FD1ABF1610512
:1035700003211A2D08911FD30FF61811032260465C
:10358000FFF718FD63E30FF60011F7E7DDE902012D
:103590006A4603F093F9CDE902014BF0200061285F
:1035A00011D1059830220270811C0591BBF1610F89
:1035B0000CBF7821582102E00FF6D401DEE74170FC
:1035C0000798801C0790DDE9020120F0000231F02D
:1035D000004308BF002A02D10026002542E14BF03B
:1035E0002008B8F1610F40F092800E99002947BF82
:1035F00021200190491C0191019FDDE92C017F1CD4
:1036000000220023DDE9024503F090F938BF85F080
:10361000004500988DF88420001F002F00900DF1C8
:10362000850632DD204629460022002303F098F962
:103630002BD21C2203F0AEF904460D4603F048FAE3
:10364000FF1F002F804609DD03F05EFA02460B469D
:103650002046294603F020FB04460D46F01D0721B5
:10366000B8F1000F0CDD491E5EBF08F00F0200F834
:10367000012D4FEA2818F3D502E0002200F8012DB1
:10368000491EFAD5C61D002FCCDC0DF18500361A77
:1036900001980DF185048642D8BF304600282FD40A
:1036A000B04206DA0DF185010A5C082AA8BF0F2195
:1036B00000DA0021024621AB134400E0401E13F85B
:1036C0000159521E8D42F9D00F2904D10DF1850107
:1036D0008B5C5B1C8B54002A04D50099091D21AC1E
:1036E000401C0091411E0BD4621813783033DDB2B8
:1036F0003A2DA4BF5B443A3B491E02F80139F4D588
:103700000E9A002A40F1AC80411E0E91A8E000996B
:10371000DFF8002747F29750414391FBF2F2009205
:10372000DDE92C45C2F10702002A25F0004504DD41
:103730002046294600F04AFB0BE052420020DFF809
:10374000D81600F043FB02460B462046294603F0FC
:1037500015FB04460D46B8F1660F06BF009F0A37F9
:1037600006270E983F18142FC8BF142730208DF855
:1037700084000DF18506002F34DD2046294603F034
:1037800021FC01460A4606F1080304200A26B2FB82
:10379000F6F606EB860EA2EB4E02303203F8012C51
:1037A0000A22B6FBF2F202EB820EA6EB4E06303690
:1037B000401E03F8026DE9D1083F002F03F108060F
:1037C000D9DD084602F0D2FE02460B4620462946C5
:1037D00003F062FA0022DFF8443602F0D5FE044618
:1037E0000D46CAE70DF18500361A0DF1850404E097
:1037F0000098401E761E0090641C20783028F7D078
:10380000B8F1660F02D10098401C04E0B8F1650FD2
:103810000CBF012000200E9940188642B8BF701ED0
:1038200000281DD4B04204DA215C3429C8BF3921F4
:1038300000DC30210246631E9D1800E0401E15F892
:103840000169521E8E42F9D0392902D1A15C491C6E
:10385000A154002A04D50099491C1C46401C009123
:103860000646009D03F0C0FB406A0778DDF838800B
:1038700030B2002802DC01260FF21C644BF020005D
:10388000662808BF6D1C16D0672845D128B210F1F4
:10389000040F47DB404545DA9DF840006D1C0107E9
:1038A00003D430B24045D8BF804628B2B8EB0008F8
:1038B00048BF4FF000080FFA85FBBBF1000F00F383
:1038C000B3800898411C0891302205990A54B8F138
:1038D000000F03DC9DF84000010704D50898411C47
:1038E000089105990F5418EB0B0FB8BFC8F10005EC
:1038F0002DB26842454432B20B909542B8BF2E4675
:10390000059B089836B20996324621461844FFF7BF
:1039100051FBAD1B0C95D1E0BBF1610F17D14FF0FE
:10392000700B19E030B2404504DA9DF840100A07E8
:1039300058BF8046B8F1010848BF4FF00008BBF1FE
:10394000670F14BF4FF0450B4FF0650B04E0BBF160
:10395000410F08BF4FF0500B0898411C0891B8F177
:10396000000F059914F8012B0A5403DC9DF8400060
:1039700001071AD50898411C0891B8F1000F059964
:103980000F5412DD761E30B28045B8BF464605980A
:10399000089B32B221461844FFF70CFB089836B258
:1039A00030180890A8EB06000B9005980899014480
:1039B00028B2002881F800B003D42B204870891C5D
:1039C00004E02D224A700546891C6D4200202CAA75
:1039D0000AE02B460A2593FBF5F505EB8504A3EBDE
:1039E000440302F8013B401C2DB2002DF1DC0128FC
:1039F00006DC4BF02002652A04BF302201F8012BBF
:103A000000282CAA08D1302001F8010B06E0401E46
:103A1000135C303301F8013B0028F8DC059A089864
:103A20001044091A099149E030B229B288421CDADF
:103A30000598089B32B221461844FFF7BBFA089953
:103A400036B271180891ABEB0600B8F1000F0B907D
:103A500003DC9DF84000020704D5059847540999F6
:103A6000491C0991CDF8308028E00598089B2AB2BE
:103A700021461844FFF79EFA0898761B5844B8F17F
:103A8000000F089003DC9DF840100A0703D5411C85
:103A9000089105990F5430B28045B8BF4646059845
:103AA000089B32B204EB0B011844FFF783FA089825
:103AB00036B230180890A8EB06000B909DF8400035
:103AC00000F01400102840F0C280079A08980B9963
:103AD000821809988A1882180C980F9980188842C1
:103AE00080F2B580081A0A90B1E09DF84200622881
:103AF00008D068280ED06A2814D06C281FD07128EE
:103B000010D01CE0D9F8001051F8040BC9F80010CF
:103B1000C0B21AE0D9F8001051F8040BC9F800102F
:103B200080B212E0D9F80000C21D22F00702C9F8E5
:103B30000020D2E900010832C9F8002006E0D9F8D7
:103B4000001051F8040BC9F800100021CDE9020162
:103B50009DF8400002075AD5DDE90201002908BF9F
:103B6000002854D04BF02002782A50D1079812A98F
:103B700030230B54401C421C079201F800B046E071
:103B80009DF84200622808D068280ED06A2814D018
:103B90006C281FD0712810D01CE0D9F8001051F803
:103BA000040BC9F8001040B21AE0D9F8001051F81F
:103BB000040BC9F8001000B212E0D9F80000C21DD1
:103BC00022F00702C9F80020D2E900010832C9F842
:103BD000002006E0D9F8001051F8040BC9F80010D5
:103BE000C117CDE90201002902D507982D210AE06D
:103BF000BDF84000810702D507982B2103E0C007DC
:103C000005D50798202112AA1154401C079012A82C
:103C1000079901440591594602A800F04DF816E0B5
:103C200001200790D9F8001051F8040BC9F80010D2
:103C30008DF848000BE001202521BBF1000F079013
:103C40008DF8481003D0022107918DF849B00F9DDF
:103C500007980A992D1A08986D1A0B992D1A099828
:103C60006D1A0C992D1A9DF840006D1A41073FF509
:103C7000D2AA2020002D8DF800007FF7CCAA309E1C
:103C80002C46FFF7BCBA4FF0FF3031B0BDE8F08FE3
:103C9000CBCCCC0C686A6C747A4C00007072696E84
:103CA00074665F733A2062616420257320617267D5
:103CB000756D656E740000002DE9FC4D0646884662
:103CC000376940466F2808BF082405D0FFF77EF902
:103CD000782814BF0A241024D6E900013C25824626
:103CE0008B46B8F1640F18BFB8F1690F05D10029F0
:103CF00003D5DAF1000A6BEB4B0BBBF1000F08BFE9
:103D0000BAF1000F0CD1306B50B9082C3AD196F8AB
:103D10003800010736D530223B2587F83B2031E0BB
:103D20008DF80080504659462246002303F060F982
:103D30003032D0B26D1E3A2801950EDA7A555046CF
:103D400059462246002303F053F982465FEA010BED
:103D500008BFBAF1000F05D108E09DF80000121865
:103D6000513AEBE7F06879198842DBD3082C09D186
:103D700096F83800010705D5785D302802D06D1E11
:103D800030207855C5F13C02306BB261791982421E
:103D9000F16008DA318F821A4FF6EF7001403187F7
:103DA0003262BDE8F38D00280ED596F8380000F099
:103DB0001400102808D1736B7069316A1B1A5B1AE2
:103DC0009B1A002BC8BF3362BDE8F38D2DE9D043A9
:103DD00006460F4614464FF00008DFF8449012E004
:103DE000E00707D542464B463046394602F0CCFB49
:103DF00006460F464046494642464B4602F0C4FB43
:103E0000641080468946002CEAD130463946BDE828
:103E1000D0830000A08601000000F03F84D79741C6
:103E200000002440F8B505460E4617461C46002003
:103E30005CB117F8011BB068A847B06030B1F06AF8
:103E4000401CF0620020641EF3D1F2BD4FF0FF3041
:103E5000F2BD00007072696E74665F733A20256E61
:103E600020646973616C6C6F776564007072696E51
:103E700074663A2062616420256E20617267756DF8
:103E8000656E7400000000006E616E004E414E00D1
:103E9000696E6600494E46003000000062F30F2252
:103EA00062F31F4200B500BF1300964694461039D6
:103EB00028BFA0E80C50FAD85FEA417C28BF0CC0AC
:103EC00048BF40F8042BC90728BF20F8022B48BF81
:103ED00000F8012B00BD0000F0B585B050260B9D09
:103EE00025B986F3118800F04BFAFEE70C9C24B943
:103EF00086F3118800F044FAFEE75C270097DDF8AE
:103F000000E0BEF15C0F04D086F3118800F038FAAF
:103F1000FEE7009E25630026022584F8595004AF71
:103F20000A9D039602940197009500F034F820460C
:103F300000F078F8049805B0F0BD2DE9F843064686
:103F4000174684B088469946B80003F0D5F80400B7
:103F50001CD05C2003F0D0F8050014D000202C63A6
:103F600085F85900039002950D980C9901900091E5
:103F70004B463A464146304600F00DF8284600F0E0
:103F800051F8012004E0204603F03FF94FF0FF30E4
:103F900005B0BDE8F0832DE9F0470A9F81460C4645
:103FA0001546386B9A46A522A900FFF777FF396BB3
:103FB00001EB8502101FC0084FEAC00808F0070097
:103FC00007F1340554B10021625C6A54605C10B1A1
:103FD000491C1029F8D30020E87300E02870089EDF
:103FE000372E88BF3726099CFE62AE61E861C6F1B4
:103FF0003806381D03F065F907F1180003F061F980
:104000003F61BE617F6200202862002187F858105E
:1040100052464946404600F09BFC386004B1276098
:10402000BDE8F0872DE9F04100F056F8DFF8605563
:10403000DFF86075E86C401CE8641426A86A40BB91
:10404000AC62E86C01282CD1002506FB05F0384451
:1040500003F02AF96D1C382DF7D3DFF8345505F13C
:10406000740003F021F905F18808404603F01CF9BB
:10407000284603F019F905F1140003F015F905F1CC
:10408000380003F011F905F17400E862C5F83080DA
:1040900007E0A86D28B9E06AA96ACA6A904228BFF9
:1040A000AC62A96EE06A491C61646A6D824238BFE5
:1040B0006865A9664643211DB81903F005F900F0AB
:1040C000D3FCA86D30B100F0B2F903D200F09EFB32
:1040D00000F056F9BDE8F081044600F0ACBC0000E9
:1040E00080B586B000200590049003AA04A905A815
:1040F00003F024F90598049902900022009201919E
:104100000023039A11A10FF2B130FFF7E5FE98B139
:1041100003F01EF95021012810D181F3118800F01D
:104120002FF9DFF844064FF0FF31C16601228265A6
:104130000021016500F02EFC07B000BD10F1010F59
:10414000FAD181F3118800F01BF9FEE749444C4590
:1041500000000000DFF8E407016F491C01677047A9
:10416000DFF82C24516D002001B10120936AD96A37
:1041700029B9DFF820140B68012B00D808B1002002
:104180007047D06E116D401A704770B5DFF800644B
:10419000306F0024002520B900F044F800F0F0F85A
:1041A000FEE700F048FC306F401E3067306F00289B
:1041B00036D1F06CD0B933E0F068C46800F036F85E
:1041C00000F01EFAE36A706D984238BF73651422DE
:1041D000DFF8C0035343211D184403F075F8E06A6B
:1041E000B16ACA6A904224BF012131663068002852
:1041F000E2D10CB100F0AEF9F46D44B100F01EF85C
:1042000008B101203066641EF8D10020F065306EE0
:1042100030B1DFF82C174FF08050012500F0AFF8D7
:1042200000F060BA502181F31188704704F1180042
:1042300003F070B8DFF80407006D70472DE9F8430C
:10424000DFF84C63306F0025002852D1346D641CB8
:10425000346510D1F06A006820B1FFF7E3FF00F089
:104260008FF8FEE7F06A316BF1623063706E401CCC
:10427000706600F06FF9F06EDFF8188384424FF03B
:10428000140927D31FE0F16AC868C76878688442B8
:104290002DD3381D03F03EF8B86A18B107F11800A5
:1042A00003F038F8F86A716D814238BF706509FB18
:1042B00000F0391D404403F007F8F86AB16ACA6A91
:1042C000904228BF0125F06A00680028DBD14FF03A
:1042D000FF31F166B06AC06A09FB00F958F80910AD
:1042E000022928BF0125306E30B1012504E0F066B7
:1042F000F0E7F06D401CF0652846BDE8F28310B58C
:10430000DFF88C22106F10B10121116610BD10660C
:10431000DFF88032506D00E0401E142444431959E8
:1043200031B90028F8D100F012F800F029F8FEE7C2
:10433000191901F108044B685B684B60A34204BF84
:104340005B684B604968CB689362506510BD502034
:1043500080F31188704710B50C4620B9FFF7F7FFBE
:1043600000F00EF8FEE700F029F802F0BAFF204650
:10437000BDE8104009E0DFF8C8154FF08050086034
:10438000BFF34F8FBFF36F8F7047012100F0AFBABB
:1043900038B50D46144620B9FFF7D9FFFFF7F0FFF7
:1043A000FEE700F00BF802F08FFF0CB14FF0FF3585
:1043B00021462846BDE8344000F099BADFF87C2554
:1043C000936A03F11801704738B5C068C46824B90E
:1043D000FFF7BDFFFFF7D4FFFEE7FFF727FFDFF88A
:1043E000B051286F50B900F00BF900F015F838BF44
:1043F0006A6500F015F800F0ADF804E004F118016A
:10440000284602F061FF00F012F803D2012129666C
:10441000012032BD002032BDE26A686D90427047D3
:1044200014205C4B4243211D981802F04DBFA86A2E
:10443000C16AE06A81427047DFF800154A6E026087
:10444000096D41607047F8B504460D46502024B907
:1044500080F31188FFF794FFFEE725B980F31188F8
:10446000FFF78EFFFEE700F0E6FADFF8D004016DFB
:1044700062682E688B1A16F1010F0ED0476ED4F8C1
:1044800000C0674501D091420BD2B34207D2F31A64
:104490002B60416E2160006D6060002402E000200E
:1044A0002860012400F0E0FA2046F2BDDFF88C1409
:1044B000012008667047000070B5364C344D11E09D
:1044C00000F0B9FA286AC668301D02F023FFE86CD4
:1044D000401EE864686B401E686300F0C5FA304611
:1044E00000F021F8686B0028EAD12168012901D980
:1044F000FFF741FFFFF734FE0128F3D9286F401C76
:104500002867E86E296D884208D3FFF729FE012845
:1045100088BF03F0C9F8FFF738FEE3E7FFF717FF9E
:10452000FFF72EFFFEE710B5044694F8590040B996
:10453000206B02F06AFE2046BDE8104002F065BE26
:1045400010BD0128F7D00228FAD0FFF700FFFFF7CF
:1045500017FFFEE70E49C86A006810B94FF0FF3236
:1045600003E0C86AC268D0684268CA667047DFF86C
:10457000CC03806A7047DFF8C413886D08B9012046
:104580007047086F08B9022070470020704700008C
:104590005887002068790020F8B50446002074B3DD
:1045A000E16A714DAA6AD36A994222D2A0690028B1
:1045B00004D4A86AC26AC2F13802A2611427DFF8E3
:1045C00084636269794331448A420ED100F018F85D
:1045D000A86AC06A696D814238BF6865E062474376
:1045E000211DF01902F070FE08E0A86AC16AE162BC
:1045F00004E0E16CAA6AD36A994200D20120F2BDBC
:10460000201D02F087BE38B50446002134B3DFF820
:104610002C53A86A5022844204D082F31188FFF7F9
:10462000AFFEFEE7206D20B982F31188FFF7A8FEE8
:10463000FEE7E26AE36C401E9A4220650ED068B93C
:10464000FFF7DEFFE26CE262C2F13800A061696D43
:10465000914238BF6A65FFF7E3FE0121084632BD8B
:10466000F8B5040033D0206D502320B983F31188AE
:10467000FFF786FEFEE7E26C914238BF1146E26A20
:104680008A4224D0012822D1374DA86A844204D11D
:1046900083F31188FFF774FEFEE7A069E16200284A
:1046A0005CBFC1F13801A1611427DFF8986261692C
:1046B0007A43324491420AD1FFF7A2FFE06A696D62
:1046C000814238BF68654743211DF0193CE1F1BDC7
:1046D000DFF86812886A18B1886A026D521C026598
:1046E000886A704700F0C0F9284670BD2DE9F04196
:1046F0000646884614461D4600F09DF91A4FB86AD2
:1047000090F8580002280FD0B86A416D21EA0606D9
:1047100046650120B96A81F858002DB1012128466B
:1047200000F0E5F8FFF727FE00F09EF900F083F9AE
:1047300014B1B86A406D2060B86A90F85800022839
:1047400018BF002406D1B86A416D21EA0808C0F8F4
:1047500054800124B96A002081F8580000F084F9DF
:104760002046BDE8F0810000588700202DE9F8437D
:1047700004460F4691461D4601264FF0500824B9C5
:1047800088F31188FFF7FCFDFEE700F054F900F014
:10479000A5F8B9F1040F22D8DFE809F006031905DE
:1047A0001D00616D0F43676501282AD1FFF728FFBF
:1047B000E26A624D686D904238BF6A65FFF730FE6D
:1047C000A06AA8B188F31188FFF7DAFDFEE7616DF2
:1047D000491C6165E8E70228E5D1002611E0616D1A
:1047E00011F1010FE0D088F31188FFF7C9FDFEE752
:1047F000FFF7B0FEFFF71BFE03D200F007F8FFF74C
:10480000BFFD00F031F93046BDE8F2834C4A4FF06D
:1048100080511160704700002DE9F04704460F46B3
:1048200092461D4601264FF0500824B988F311889E
:10483000FFF7A6FDFEE700F03BF9EFF3118988F3DF
:104840001188FFF79DFD00F049F8BAF1040F18D860
:10485000DFE80AF006030F051300616D0F4367657B
:10486000012830D1A06AA8B188F31188FFF788FD2C
:10487000FEE7616D491C6165F2E70228EFD1002671
:1048800021E0616D11F1010FEAD088F31188FFF783
:1048900077FDFEE7294D286F40B9FFF7B1FEFFF71E
:1048A000BBFD38BF6A6500F013F802E004F118019F
:1048B000284602F009FDFFF7BAFD04D2089800B1BE
:1048C00006600120286689F311883046BDE8F0872C
:1048D00014201C4B4243211D981870470DB1606D88
:1048E0002860022194F8580084F858107047F8B5F1
:1048F000124E376D0C46B16A0546081D02F00AFDDE
:1049000015F1010F05D124B1B06A011D06F138007F
:104910001AE0B06AED194560BD42B06A05D2011DCA
:10492000306BBDE8F44002F0DCBC011DF06A02F01F
:10493000D8FCF06E854238BFF566F1BD588700207F
:1049400004ED00E068790020BDE8F44002F0BCBC52
:10495000490810B54900A0F120034FF08074996117
:104960001A60DC616FF002020FF20D01596140F82C
:10497000242D203810BD00005A494A68502012F1F9
:10498000010F80F31188BFF34F8FBFF36F8F00D0FB
:10499000FEE7FEE77CB5544A544B1068502198421C
:1049A00002D100F0B1F8FEE71068514B984202D1F5
:1049B00000F0AAF8FEE74F4B18780190FF251D7014
:1049C0001C7848488DF800409DF8005005F05005CF
:1049D0000570072005E09DF800406400401E8DF83A
:1049E00000409DF800402606F5D4454215F1030F1E
:1049F0003C4C03D0A06000F087F8FEE7000200F412
:104A0000E060A06001981870116A41F470011162B1
:104A1000106A40F07040106202F048FE00206060B2
:104A200002F0A2FE3448016841F04041016002F00A
:104A30008BFE002076BD502080F31188BFF34F8F8E
:104A4000BFF36F8F27494A68521C012A4A600AD176
:104A50002A490A68130606D080F31188BFF34F8FE6
:104A6000BFF36F8FFEE770471E49486838B9502082
:104A700080F31188BFF34F8FBFF36F8FFEE7401EA7
:104A8000486008BF80F31188704780B5502080F3DC
:104A90001188BFF34F8FBFF36F8FFFF7CFFB18B1B4
:104AA00016494FF080500860002282F3118801BD42
:104AB00010B5EFF30580502110280A4A07D3104B98
:104AC000185C1478A04202D200F01EF8FEE790684D
:104AD0000C4A136803F4E063984202D200F014F821
:104AE000FEE710BDDC20002000ED00E071C20F41A8
:104AF00070C20F4100E400E034EF00E004ED00E09C
:104B0000F0E300E00CED00E081F31188BFF34F8F7C
:104B1000BFF36F8F7047000070B504000D4602D1DF
:104B200000F0E3F8FEE7FFF786FF206CE16B2268F8
:104B300000FB01F3491E484310441344A3600026C0
:104B4000A663E060626004F144004FF0FF31017041
:104B5000417065B9206990B100F094FB78B1DFF83D
:104B60009C184FF08050086000F0A3FA07E004F1B1
:104B7000100002F099FB04F1240002F095FBFFF70E
:104B800073FF012070BD7CB51C46502320B983F310
:104B9000118800F08EFAFEE724B983F3118800F043
:104BA00088FAFEE72AB129B983F3118800F081FA67
:104BB000FEE781B950250095009E502E10D1009B34
:104BC0003CB1069B012584F846500094DBB200F00E
:104BD00028F8204676BD83F3118800F06AFAFEE7D4
:104BE00083F3118800F065FAFEE7F8B504000E467D
:104BF000174602D100F079F8FEE706FB04F05030CA
:104C000002F07AFA05000AD0002085F846000095E7
:104C10003B4605F150023146204600F002F8284696
:104C2000F2BD38B5049D1C4600290CBF2D602A60DA
:104C3000E863296428460121FFF76EFF85F84C40A0
:104C400031BD30B10021816000220260C1600023CB
:104C500084E0704710B5024600210120FFF7C5FF30
:104C60000446FFF7EEFF204610BD1CB500900B4632
:104C7000002200210120FFF786FF0446FFF7E1FF35
:104C8000204616BD10B5040002D100F02EF8FEE754
:104C9000FFF76DFCA16881420BD1E068401EE06027
:104CA00005D1002300220021204600F057F8012002
:104CB00010BD002010BD38B504000D4602D100F033
:104CC00014F8FEE7FFF753FCA168814204D1E068C5
:104CD000401CE060012032BD2946204600F0EEF97C
:104CE00010B1E168491CE16032BD502080F31188A9
:104CF000BFF34F8FBFF36F8F704738B50C46134625
:104D0000502120B981F3118800F0D3F9FEE7A042C9
:104D100004D281F3118800F0CCF9FEE7022500955A
:104D200000220021FFF72FFF00B1846332BD10B5D0
:104D30000C46502120B981F3118800F0BAF9FEE742
:104D4000A04204D281F3118800F0B3F9FEE70222F9
:104D50000021FFF74AFF00B1846310BD2DE9F6473B
:104D600082B004461E46502714B900F0A0F9FEE7B1
:104D70005FEA010A01D1206C60B9022E02D1E06B1A
:104D800001280AD1FFF7F7FB50B9039840B100F0B2
:104D90008EF9FEE700F08BF9FEE700F088F9FEE7F8
:104DA00027460024DFF854864FF080592EE0039800
:104DB00000284BD014B900F01FFA0124FFF754FE6D
:104DC000FFF7C8F9FFF737FE07F1440000F017FAC4
:104DD00004BF0022027000F017FA04BF00224270E4
:104DE000FFF742FE00F04DF8002844D1FFF723FE04
:104DF000B86BF96B884214BF00250125FFF734FE1C
:104E000045BB384600F09BFAFFF7BFF9FFF713FEEA
:104E1000B86BF96B884201D3022EC8D13246514695
:104E2000384600F044FA796A29B107F12400FFF707
:104E3000CBFA08B904E018B1C8F8009000F039F9CD
:104E4000FFF712FE012004B0BDE8F087FFF70CFE6B
:104E50000020F8E7039907F11000FFF77CFA3846C5
:104E600000F06DFAFFF791F90028CFD1C8F8009053
:104E700000F01FF9CAE7384600F061FAFFF785F93C
:104E8000E6E703A96846FFF7DEBA2DE9F8430446D2
:104E9000884616461D46502714B900F008F9FEE76B
:104EA000B8F1000F01D1206C28BB022D02D1E06BBC
:104EB000012823D1FFF7FCFDEFF3118987F3118857
:104EC00000F06BF801D3022D20D194F94570A06B4E
:104ED0002A464146204600F0EAF917F1010F10D1A9
:104EE000606A88B100F055F8002818BF002E0BD07A
:104EF0000120306008E000F0DAF8FEE700F0D7F8B3
:104F0000FEE77F1C84F84570012000E0002089F353
:104F10001188BDE8F283F8B504460D46502624B941
:104F200086F3118800F0C5F8FEE7206C20B186F307
:104F3000118800F0BEF8FEE7206808B9A068D0B973
:104F4000FFF7B6FDEFF3118786F3118800F025F81F
:104F50001BD294F94510401C11F1010FA0630FD131
:104F6000606A80B100F015F8002818BF002D0AD043
:104F70000120286007E086F3118800F09AF8FEE728
:104F8000491C84F84510012000E0002087F31188B7
:104F9000F2BD04F12400FFF717BABFF34F8FBFF340
:104FA0006F8FA06BE16B884270472DE9F74306468F
:104FB0000F460024502526B985F3118800F079F8B2
:104FC000FEE70FB9306C48B9FFF7D5FA78B9029807
:104FD00068B185F3118800F06CF8FEE785F311885D
:104FE00000F067F8FEE700F005F9FFF7CEF8FFF7ED
:104FF00022FDB56BDFF80484002D4FF0805932D1CB
:105000000298002845D014B900F0F6F80124FFF703
:105010002BFDFFF79FF8FFF70EFD06F14400415707
:1050200011F1010F04BF0022027000F0EDF804BF7F
:1050300000224270FFF718FD02A9FFF723FF0028A6
:1050400030462AD100F0ADF90028CCD000F0CDF8E0
:1050500000F0D0F8FFF799F80028C8D1C8F8009000
:1050600000F027F8C3E73946304600F054F96D1ECA
:10507000B563306940B106F11000FFF7A5F918B12A
:10508000C8F8009000F015F8FFF7EEFC0120BDE82D
:10509000FE83FFF7E9FC0020F9E700F050F9FFF785
:1050A00074F8304600F07DF90028A0D0F3E787F3CC
:1050B0001188BFF34F8FBFF36F8F70472DE9F24315
:1050C00082B0064600240025502716B9FFF7EFFFEF
:1050D000FEE7306C10B1FFF7EAFFFEE7FFF74BFA8F
:1050E00040B9029830B1FFF7E2FFFEE700F082F826
:1050F000FFF74BF8FFF79FFCB06BDFF80083002849
:105100004FF080593BD1029800284ED014B900F0DE
:1051100073F80124FFF7A8FCFFF71CF8FFF78BFCDE
:1051200006F1440000F06BF804BF0022027000F0AA
:105130006BF804BF00224270FFF796FC02A9FFF74C
:10514000A1FE0028304634D100F02BF90028CDD044
:10515000306838B9FFF76FFCB068FFF71DFA0546F5
:10516000FFF782FC00F041F800F044F8FFF70DF87B
:105170000028BFD1C8F80090FFF79BFFBAE7401E98
:10518000B063306810B9FFF7A3FAB060306940B17E
:1051900006F11000FFF718F918B1C8F80090FFF7F2
:1051A00088FFFFF761FC01201DE0CDB1FFF77FFF15
:1051B000FEE700F0C4F8FEF7E8FF304600F0F1F833
:1051C000002897D075B1FFF736FC706A00281DBF24
:1051D000306B0168C1F138010021B068FFF740FA77
:1051E000FFF742FC0020BDE8FE83029906F124008F
:1051F000FFF7B1B83046A2E06846FFF71DB990F955
:10520000001011F1010F704790F9011011F1010F19
:1052100070472DE9F84304460D461646502714B949
:10522000FFF745FFFEE70DB9206C60B9FFF740FCC2
:10523000EFF31188FFF73BFFA76B3FB9002088F31E
:105240001188BDE8F283FFF732FFFEE794F944903E
:105250002946204600F05FF87F1E19F1010FA76371
:105260000AD1206960B100F00DF8002818BF002EA7
:1052700006D00120306003E009F1010984F8449070
:105280000120DCE704F11000FFF79EB810B5040020
:1052900002D1FFF72AFDFEE700F09EF894F84600E1
:1052A00020B92046BDE8104001F0AFBF10BDF8B5F1
:1052B00006461446B56B326C002742B9306830BBE5
:1052C000B068FFF7A0F900210746B1601FE064B99C
:1052D0007068FDF76FFE7068316CB26808449042E8
:1052E000706014D33068706011E0F068FDF762FE02
:1052F000306CF16840420144F1603268914202D260
:10530000B1680844F060022C01D105B16D1E6D1C1E
:10531000B5633846F2BD026C002A0B4600D17047D7
:1053200010B5C16884681144C160A14224BF0168FE
:10533000C160C168BDE810401846FDF73BBEF8B536
:105340000446FFF778FB04F1440090F9015005E0B2
:10535000FFF71FFE08B1FFF7A9F86D1E68B201281C
:1053600002DB606A0028F3D104F144054FF0FF36F8
:105370006E70FFF779FBFFF75EFB95F9007005E0B3
:10538000FFF780FF08B1FFF791F87F1E78B2012880
:1053900002DB20690028F3D12E70BDE8F140FFF751
:1053A00063BB10B50446FFF746FBA06B441EA44147
:1053B000FFF75AFBE00F10BD10B50023104C54F856
:1053C00033201AB15B1C082BF9D310BD44F83310FD
:1053D00004EBC301486010BD10B50021084A02EB80
:1053E000C1035C68844203D0491C0829F7D310BD6F
:1053F000002042F83100586010BD000004ED00E0CC
:10540000808B0020F8B504460D461646FFF713FBC7
:1054100004F1380797F90C0010F1010F04BF0021C7
:10542000397397F90D0010F1010F04BF0021797352
:10543000FFF71AFB386828B93246294604F12400E0
:10544000FEF7A6FF2046BDE8F24078E77FB50C46A0
:10545000654D6168654E28626962281D02F092F907
:10546000246805F1280002F097F9746006F108003D
:1054700002F092F901203070696829B10FF23512FB
:1054800000920294684688477FBD1FB5574C04F1CF
:10549000080002F084F9F8B92078E8B1694604F10F
:1054A000080002F0A5F95048016A49B1009802903D
:1054B00001228DF8042001A888479DF8040000E02F
:1054C0000120207018B1009802F047FA04E000991A
:1054D00004F1080002F06CF904F1080002F05FF931
:1054E00028B9207818B104F10800FDF753F91FBD61
:1054F0002DE9FC410446002000F051F82088B4F862
:105500000280394F60F38F2801203870002537481A
:105510004068A168E268C272A0F80980D2B20C307B
:10552000FDF748FD7A6900210020904748F2E80025
:10553000FDF739F913E0B6F8010040450CD10099A8
:10554000887AC21E6069D2B28242C8BF0246206910
:105550006261F11CFDF72EFD307800B1012507F1E5
:10556000280002F01CF990B9694607F1280002F002
:105570003FF9009901F10B06497A0F29DBD17188B7
:10558000414502D12169307808707078E5E728003C
:10559000CCD0012000F003F80020BDE8F6811249CC
:1055A000496A08B921B1084700291CBF01200847F2
:1055B0007047000010B50146487A0F2818BF0E2822
:1055C00007D10B4802F0FEF8BDE810400020FDF7BF
:1055D000E6B8064C04F1080002F0F4F804F1080003
:1055E000BDE81040FDF7D6B8C08B0020708C0020BD
:1055F000E88B00200D48002101604160704710B524
:1056000000F007F85C6800F009F85C6082F310882D
:1056100010BDEFF3108272B6044B704719B1012927
:1056200002D104437047844370470000B08C0020CF
:1056300002F036FA9DF80E0005B000BDF8B500F195
:105640000C026B462F214FF66640F1E7F8B500F1EA
:105650000C026B460F214FF66840E9E7F8B50246A9
:105660006B4610214FF67540E2E7F0B51C491D4B23
:105670000A681D49C2F30D0201EB82010D682A6818
:105680009A4205D16969AA69EB69EC682D6905E060
:105690002E4631697269B3697468B5680E0E06707A
:1056A0000F0C47700E0A86700272C1F3031601F0E8
:1056B0000F010171C670110E4171160C110AC171F2
:1056C000220C210E8172C272240A290E2A0C8671C4
:1056D0004372047341738273C5730020F0BD0000F0
:1056E0003C400058B95646A9000003207C4900E020
:1056F0007C4981B00A6802430A600968084000904A
:10570000009801B0704710B57749784C4FF40040CD
:10571000086002F017FA02F043FA00F055F800F0C2
:1057200091F87348A06304F1380002F0A7FC04204C
:10573000FFF7DEFF0120FFF7DBFF0220FFF7D8FFB6
:105740000420FFF7D3FF0120FFF7D0FF0220FFF76F
:10575000CDFF00220F210E2002F0DFFC0E2002F010
:10576000F9FC00220F213A2002F0D7FC3A2002F087
:10577000F1FC60482060002147F6FF700F22E060D6
:105780006160A2602161A161E1616161204602F076
:105790001FFD00220021204602F0CDFD5648606228
:1057A0000021A16204F1240002F05FFEFCF763F91E
:1057B000524A0FF20D100021FCF787F9606702F0E2
:1057C00006FAFCF767F9FEE780B59AB0482108A809
:1057D000FCF740F91C2101A8FCF73CF902F066FE39
:1057E0004748016821F0180101600121454802681D
:1057F00061F34A2202604FF48031006800F4C06017
:1058000000904720009A099101224FF480710A927A
:105810000B9112920890402100220C91139208A83B
:1058200002F05CFE6F20022101900291002203929F
:105830000492059206920792012101A803F0A7F8AD
:105840001BB000BD80B594B050216846FCF702F94A
:105850004FF440524FF480410092119102221021E6
:1058600012921391684603F095FA15B000BD10B579
:10587000254C264820604FF4E1310C206061002265
:105880004FF40040E06100F010F8204603F0FEFB0A
:105890000021204604F0A6FB0021204604F0ADFBC9
:1058A0002046BDE8104004F07FBB6160A260E2606A
:1058B0002261A26122626262A2627047000000005F
:1058C00080B54FF0FF3201210120FCF77DF9F8E7A8
:1058D00000680F49884208BF04F0E2BB704700002F
:1058E000480000584C00005810400058AC89002077
:1058F000000C00580028004000100058DCF9000897
:1059000090000058000400588888002000380140AA
:10591000004801407047000020B501460648074D89
:1059200000E00838C2798A4218BFA842F9D18A42F9
:1059300018BF002020BD00BFF873FF1F0070FF1FBD
:1059400018B50C46C7B000F039F800F04BF807AABC
:1059500003923F200C2100F028F800F020F80028E6
:105960004CBFFF209DF8000048B010BD00B5C7B087
:1059700000F031F80F2200F007F800284CBFFF209C
:105980009DF8000047B000BDADF806203F21ADF8FE
:1059900004100222049207A9039101220692CDF875
:1059A00014D0002101A8FFF7A3BDADF80400ADF8A5
:1059B00006100122A41C069204947047114600228E
:1059C0008DF800208DF81C008DF81D4022460DF149
:1059D0001E00FCF7CFBF00238DF81C008DF81D10B2
:1059E0008DF800301822002101A8FCF7C9BF00B5CE
:1059F00087B000F099F900F050FA812200F08EF99A
:105A000000F06CFA00284CBFFF209DF8000007B0A2
:105A100000BD2DE9F04FC7B09446DDF840E1519A42
:105A2000DDF85481DDF858A1539CADF81D108DF8B8
:105A30001C008DF823204FF0000BADF81FC08DF82F
:105A400021308DF822E000F021F800F029F826F846
:105A5000098FA6F802A000F020FA00F00AFA8321CC
:105A6000ADF80400ADF8061000F00AF800F038FABE
:105A700000284CBFFF209DF8000047B0BDE8F08F24
:105A80004F4401220D37069204977047D7B25299BE
:105A90008DF800B009ADD2B209A8ED19FCF76ABFC4
:105AA0002C7007AE54995FFA84F9F619E2B2681CBB
:105AB0004E44FCF75FBF00B5C7B000F0BDF800F082
:105AC000EAF900F047F9852200F04BF900F007FAF7
:105AD00000284CBFFF209DF8000047B000BD2DE915
:105AE000F841C7B04FF0000800F022F84E9C4F9DDF
:105AF000509E529F51988DF800800DF123018DF832
:105B00001F308DF820408DF821508DF822600860FC
:105B10008DF8277000F0C1F9862200F0FFF80C2202
:105B200000F0D9F900284CBFFF209DF8000015E1D6
:105B30008DF81C0007A841708270704700B5C7B08F
:105B400000F0ABF88DF800300DF11E001822016056
:105B500001A80021FCF714FF882200F039F800F0BA
:105B6000BAF900284CBFFF209DF8000047B000BDE7
:105B7000F8B5C8B005460E4617461C46072200F089
:105B800088F808A8467087708DF8205000F03BF91F
:105B90008A21ADF80A103F2003210591ADF80800D5
:105BA000072100F027F9002848BFFF200ED49DF8F8
:105BB000000058B94F994E98BDF801202280BDF8D9
:105BC00003300380BDF805000880002049B0F0BD17
:105BD000ADF806203F21ADF804100622704700B54D
:105BE000C7B000F05AF800F056F900F0B3F88D2273
:105BF0000F210291ADF80620022100F0B9F800F063
:105C00006FF900284CBFFF209DF8000047B000BD91
:105C100018B5C7B000F022F900F03FF900F029F9FB
:105C20008E2100F02AF900F05BF900284CBFFF201C
:105C30009DF8000048B010BD00238DF81C0070478F
:105C400078B5C7B006460C461546032200F021F889
:105C5000ADF81C6000F021F9902100F0E7F8022176
:105C60000491ADF80400032107AA0691039200F005
:105C700037F9002848BFFF2009D49DF8000030B94B
:105C80009DF80100207000209DF80210297048B096
:105C900070BD00216846FCF773BE0023ADF81C0000
:105CA0007047ADF806203F21ADF80410022270477E
:105CB00000B587B000F038F800F0EFF8922200F05D
:105CC0002DF800F00BF900284CBFFF209DF80000D4
:105CD00007B000BD00B5C7B000F0D8F800F03AF842
:105CE000932200F04BF800F0FBF800284CBFFF2097
:105CF0009DF8000047B000BD00B587B000F014F873
:105D000000F0CBF8942200F009F800F0E7F8002842
:105D10004CBFFF209DF8000007B000BDADF8062085
:105D20003F21ADF80410704700208DF80000704747
:105D300000B5C7B0FFF7B1FF00F0ADF89522FFF74F
:105D4000B0FF00F0C8F800284CBFFF209DF800000D
:105D500047B000BD3F21ADF80410704748B0BDE822
:105D6000F081ADF8062007A9039101220492704743
:105D7000049107AA01210691039270470F21029115
:105D8000ADF806200321049107AA01210691039290
:105D90007047F8B5C8B006460F4614461D4608229F
:105DA000FFF777FF8DF82060062239460DF12100BC
:105DB000FCF7E0FD00F027F8A421ADF80A103F2021
:105DC00007210591ADF80800082100F013F800281C
:105DD00048BFFF200CD49DF8000048B99DF8010091
:105DE000207006220DF102012846FCF7C3FD0020B9
:105DF00049B0F0BD08AA07910492CDF818D000214F
:105E000002A8FFF775BB1822002102A8FCF7B8BD55
:105E100000B5C7B000F03AF8A52200F056F8002807
:105E20004CBFFF209DF8000047B000BDADF8061044
:105E30003F20704700B5C7B000F034F800F015F807
:105E400000F02BF8AA2100F034F800F049F80028FF
:105E50004CBFFF209DF8000047B000BD0023044662
:105E60008DF800308DF81C4022460DF11D00FCF726
:105E700081BD07AA03923F207047ADF80400ADF83A
:105E800006100122641C0692049470470023ADF8AA
:105E90001C008DF81E108DF800301822002101A87A
:105EA000FCF76EBD00238DF81C008DF80030062233
:105EB0007047ADF806103F2007210491ADF80400AB
:105EC000012107AA069103927047ADF806203F21F1
:105ED000ADF804100322049207A90391012206924F
:105EE000CDF814D0002101A8FFF702BBE0B505A052
:105EF000009004228DF80420694642F6292004F01F
:105F000011F907BD53544D0010B50078354C18B148
:105F1000022810D005D310BD00210120A1802073DC
:105F200010BD607B00F022FA607BBDE8104040F6B7
:105F3000010100F061BA607BBDE8104000F016BAC4
:105F400010B5294A0FF24900264C0021FBF7BDFD90
:105F50002061042100202073217042F63820214660
:105F600004F0B6F90A21A1801F20C106E07204D511
:105F700001204FF48061A072E18004F10D01BDE8C1
:105F800010400FF255030122002000F0C7B90000B5
:105F900010B5144C04E0012817D10020207314E040
:105FA0004FF0FF3200210120FBF70EFE0F49086879
:105FB000E17A00F00700413060800A07207BEAD5D3
:105FC0000028E8D1A088401DA080A11C42F63720FF
:105FD00004F07EF9E4E70000024A10690121FBF7B2
:105FE000C1BD00004C8C0020B8F9000828280040F2
:105FF000DFF854150A6892B200E00246086880B2E1
:106000008242FAD17047F0B5DFF84055DFF84035ED
:106010002E78182204465443B0421C4404D12878F8
:106020006870627D2A700FE0267D607D94F815C04F
:1060300003F115075643062807F806C004D0267D4D
:10604000143312FB00F29E54012020732A78062A92
:1060500002BF00294FF0FF30E860F0BD10B5DFF857
:10606000EC44E06810F1010F0ED0FFF7C1FFE168CA
:1060700081422FBFE268E168E2888A182179101A0C
:10608000E2784843D04000E0002080B210BD2DE906
:10609000F047DFF8C084DFF8C004D8F8006001687A
:1060A0004A0502D5F0684107FCD4B068DFF89C745B
:1060B000DFF89CA420F48060B0604FF018093D78B0
:1060C0000AF1080019FB05F14458FFF7C7FF8442A5
:1060D00002D20024012105E039894118A14203D2EE
:1060E0003C890021B97013E00122241ABA700FE034
:1060F00019FB05F50AF108035F59874226BF595974
:10610000091A00210AF1080251510AEB05014D7DDF
:10611000062DEDD1DFF83474A0B238B9FFF768FF6F
:10612000F8600320BDE8F04702F02EB8022802DA3A
:10613000F878012800D0641EF0684107FCD5F068AB
:1061400000F06CF8F06000F051F9DFF80C04C16861
:1061500064F30F01C160FFF74BFFF860D8F800004F
:10616000816841F480618160AFF30080BDE8F08711
:106170002DE9F843EFF3108472B6DFF8D853DFF857
:10618000D0332A68CA205062532151629068DFF8E8
:10619000BC1320F48060906018200E783746474387
:1061A0001F4497F80CC0BCF1020F26D1D7F800802D
:1061B000D7F810908878E8B17A7B012A0AD10121BA
:1061C0003046FFF720FF84F310887968304600F0EE
:1061D00013F904E084F31088304600F0C7F828680B
:1061E000CA2141625322426231464246484604F087
:1061F000BFF80EE0FFF74BFF09E0D0684107FCD580
:10620000D06800F00BF8D0604FF40020086084F3F1
:106210001088FF2228684262BDE8F183DFF83C1352
:1062200000F0800060F490607047F8B5C94CCA4D2A
:106230002168CA224A6253234B624FF6FF7C2A68C8
:1062400042F020022A602A68AB68AD681B0C03F09C
:106250007F03C5F30E055B1C6D1C6F1E1E4602F00E
:10626000070216FB07F6C2F10402A6F5A076D64097
:10627000B64F66452CBFA7F808C03E81FA703B7147
:10628000FD80B74A136843F400231360B54B1D68C3
:1062900045F400251D6070BB0120B8704FF0FF3140
:1062A000F9600020AA49002301F10C0418255FFAC7
:1062B00080FC15FB0CFC401CC6B204F80C30062E0A
:1062C000F5DB06203870A34C2068816821F48061DA
:1062D0008160C16801F0800161F49061C1600320B8
:1062E0004FF40021D16001F05AFF2068816841F429
:1062F0008041816005E0C868410544BF032001F08A
:1063000043FF2168FF20486200220621032001F09C
:1063100004FFBDE8F240032001F01CBF2DE9F0416D
:1063200004460025EFF3108672B61827DFF820C266
:106330000CF10C0E07FB05F81EF8080010B16D1CDF
:10634000062DF5DB062D0CD06F430CEB0700012763
:10635000077386F310880461427303600D70002098
:1063600002E086F310880120BDE8F081F8B504460C
:10637000EFF3108572B6032001F0F7FE754E7A49EF
:106380003768CA2078625323224618207B62424332
:106390008B5C022B21D100212046FFF734FE6B4895
:1063A0000178062914D16C4801684A0502D5F868BD
:1063B0004107FCD4B86820F48060B860F8684107F1
:1063C000FCD5F868FFF72AFFF86000F00FF804E04A
:1063D0004078884218BFFFF75AFE3168FF204862B4
:1063E000032001F0B7FE85F31088F1BD4FF40020C3
:1063F0000860032001F0D3BE2DE9F84F04468A4619
:1064000018252146524E69437718387B022804BF6D
:106410002046FFF7ABFFEFF3108872B6032001F0C0
:10642000A4FEDFF83091D9F80000CA21416253225E
:10643000426202203873C7F808A0C7F804A0DFF84A
:106440000CA19AF80000062808D100F075F87875BC
:106450004FF0FF31CAF80C10002056E0FFF7FEFDA8
:10646000B9680918B96006F10803B9689AF80020FC
:106470006A439A5891422AD39AF8002004E006F120
:10648000150E6A431EF8022006F1150315FB02FCE7
:1064900013F80C30062B06D006F1080C6B435CF8A1
:1064A00003309942EBD21146694306F1150E1EF8EE
:1064B0000130062B05D006F1140C15FB03F50CF882
:1064C00005407B753A7506F1150254541DE09AF8A3
:1064D00000109AF800C0614515FB01F20FD006F1DB
:1064E000140B06F1150C1BF8023015FB03F50CF824
:1064F000054079753B7506F114018C5403E006F1F3
:10650000140379759C5400F017F89AF800109AF863
:1065100001208A4202D0FFF7BAFD02E0B968081AEA
:10652000B860FF20D9F800104862032001F012FE85
:1065300088F31088BDE8F18F9AF800108AF80110EE
:106540008AF800407047000028280040608C002036
:106550001C890020AC890020082800400C08005845
:1065600000080058800800582889002050B1B0FA6F
:1065700080F18840C91CC1F58461090501EBD02177
:10658000400570470146704730B540F2FF7C1CEA79
:1065900011541DBF1CEA1355644565453FE064195D
:1065A00081EA030C6FF35F530CF0004C43F480134B
:1065B000C90241F0004141EA505EC5021100A5FB4D
:1065C000020200284FF00000EEFB01204FF0000116
:1065D000E3FB052118BF42F00102401800214941A8
:1065E000E3FB0E01A4F580640D0302D29218404132
:1065F000494154F1010470DD450872F1004250F147
:10660000000051EB0451A1F5801102D441EA0C01C4
:1066100030BD40F2FF7E4CEA0E51002030BD0CEA46
:106620001355644518BF654581EA030C0CF0004C16
:1066300041D050EA410E1CBF52EA430E02E06146CF
:10664000002030BD24422C441BD15FEA050EF6D059
:10665000090302BF01460020AEF1140EB1FA81F524
:10666000AEEB050401FA05FE0C35C5F1200100FA78
:1066700005F5C8404EEA000E6FF35F5343F48013F4
:106680009CE733F00043B3FA83F504BFB2FA82FE0D
:1066900075440B3D641BB5F1200E2FBF02FA0EF3BB
:1066A000AB40C5F1200E22FA0EFE38BF43EA0E03BE
:1066B000AA40641C7CE750EA410E14BF52EA430E24
:1066C0006FF000014FF4001515EB430F8EBF194614
:1066D00015EB410F9DE7B4D830BDD4F10104B4F1FE
:1066E00020050FDAC4F12005520828BF42F001024C
:1066F00010FA05FE01FA05F57244E2BFE0402843B6
:10670000E1400FE0352C9ADCC5F1200452EA40024A
:1067100020FA05F218BF42F0010231FA05F0A1405B
:106720000A43002172F1004250F1000051EB0C01CC
:1067300030BD000070B504466078FF2802BFB4F891
:10674000030000F47F40B0F5406F22D10025144EC5
:1067500000E06D1C327FE8B2904206D2E9B256F8F2
:106760002110204688470028F3D000250D4E00E078
:106770006D1C327BE8B290420BD2E9B256F8211080
:10678000204688470100F3D003D0022806D001201C
:1067900070BD2046BDE87040FBF72EBD002070BDE7
:1067A000188C0020808C002080B503F0E2FD03F0FF
:1067B000E1FD03F0E0FD03F07BFC03F0DDFD03F001
:1067C000DCFD03F013FD03F0D9FD03F0D8FD03F069
:1067D000D7FD03F0D6FD03F0D5FD03F0D4FD03F0A3
:1067E000D3FD03F0D2FD03F0D1FD03F0D0FDBDE8F1
:1067F000014003F0CDBD00004018491C1CBFB1F1A1
:10680000010100F8012DF9D170470000C9B20278EA
:106810008A421AB11CBF10F8012FF9E718BF0020F7
:106820007047000080B500B906A005490B681BB190
:1068300022220021984701E003F0ABFD222002BD97
:10684000E88C0020636F6E73747261696E742068E7
:10685000616E646C65723A20626164206D65737369
:1068600061676500C9B2830706D0521E22D310F8B3
:10687000013B9942F7D11FE0083A13D302F1040219
:1068800041EA012141EA014150F8043B121F21BFB6
:106890004B40A3F1013C2CEA030C1CF0803FF3D0E9
:1068A000C9B2001F0832521E24BF10F8013B91EA02
:1068B000030FF8D818BF0120401E704710B51446CA
:1068C00000F002F8226010BDC1F30A5343B14A0040
:1068D00012F5001F28D2A3F2FE32A1EB025170473D
:1068E00050EA410C20D001F0004C31EA0C01B1FA21
:1068F00081F204BFB0FA80F3D2180B3AB2F1200350
:106900002CBF00FA03F1914041EA0C013EBFC2F1F5
:10691000200C20FA0CF319439040524240F2FD3310
:10692000D21A01EB035170470022704741EA030C71
:1069300050EA4C0C52EA0C0C4FF4001C09D307D05F
:106940001CEB410F9CBF1CEB430F8B4208BF8242E4
:1069500070471CEB430FFBD8994208BF9042704729
:1069600041EA030C50EA4C0C52EA0C0C4FF4001CA8
:1069700009D307D01CEB410F9CBF1CEB430F99427E
:1069800008BF904270471CEB410FFBD88B4208BFF9
:1069900082427047124254D440F2FF7C1CEA1153E9
:1069A0000FD0634531D09B1863453CBF01EB0251CA
:1069B000704701F0004141EA0C510020AFF3008024
:1069C000704750EA410320D001F0004C91EA0C01DD
:1069D0001CD0B1FA81F30B3B9A420DD9D21A9940DF
:1069E00051EA0C01C3F1200C20FA0CFC61449840E0
:1069F000531C40F2FF7CD7E7914041EA0C01C2F101
:106A0000200C20FA0CF3194390407047B0FA80F341
:106A10001533202BE0D3202AEED3203A203B9A4294
:106A200009D9D21A00FA03F141EA0C010020531CE3
:106A300040F2FF7CB8E700FA02F141EA0C010020C5
:106A40007047524240F2FF7C1CEA11530DD063455F
:106A5000DBD0B2EB030C3CBFA1EB025170470CF151
:106A6000010221EA035141F4801150EA410CCCD0DB
:106A700001F0004C352A27DC30B481EA0C01B2F178
:106A8000200309DAC2F12003044601FA03F5D040DD
:106A90002843D1409C400CE0C3F12002450020FA7D
:106AA00003F418BF44F0010421FA03F091400C43B1
:106AB000002174F1004550F1000051EB0C0124421B
:106AC00030BC7FF47BAF70476146002076E7000062
:106AD000C1F30A5340F21E42D31A0CDDCA0283F3FB
:106AE000070342EA505242F00042DA4002EBE17200
:106AF00082EAE17070476FEAE17203F2E13008B1B7
:106B000082F000407047000010F0004160B148BFC3
:106B10004042B0FA80F29040D21CC2F5846241EA51
:106B2000025202EBD021400570470000841A71EB3D
:106B3000030604D26E40001BB141121973414FF499
:106B4000001C1CEB410F34BF7CEB430683E00C0DB3
:106B5000A4EB1356362E00F37C80012E45EAC323A6
:106B600041DC43EA525312BFD20292025B08240571
:106B700045EAC12141EA5051D2EBC020994125D4C8
:106B800007D1B0FA80F610FA06F162D00020203664
:106B900008E0B1FA81F6B140C6F1200220FA02F213
:106BA0001143B0404FEAF474B4EB465434F001069C
:106BB0004FEA74040AD8D6F50016760D04F00044A6
:106BC000F04061FA06F25040F1404840C00A40EA05
:106BD000415021F0004128BF5FEA500550F100000C
:106BE00044EBD12135E0DB0A45EAC121C90AB6F1FF
:106BF00020050EDD42EA0242120CC5F1200603FA1E
:106C000006F6EB4042EA06056D42984161F100014B
:106C10000DE062FA06F5F240554063FA06FC82EA9E
:106C20000C02F3405A406D42904161EB030111F4B4
:106C3000801F05D1641E620502D06D0040414941AC
:106C400021F48011430875F1004350F1000041EB3D
:106C5000045170BC70471CEB410F15D223F0004368
:106C600052EA43060BD04FEA4C0CBCEB410F04D860
:106C70000C0D661E342EB7DDEBE7801A994150EA01
:106C8000410608BF0021E4E708BF1CEB430F28BF03
:106C90006FF00001DDE7000070B491EA030F4FF0E0
:106CA00000457FF543AF6B40841A71EB030603D2B6
:106CB000001BB141121973414FF4001C1CEB410F32
:106CC00034BF7CEB430442E00C0DA4EB1356352E8D
:106CD0004FDC45EAC323DB0A45EAC121C912B6F1FC
:106CE00020050DDD63FA05F6EB4086EA0305124246
:106CF00018BF45F00105C01851F100010CD213E096
:106D000062FA06F5F2405540F3415A40B340F34071
:106D10005A408018594107D349085FEA30005FEABA
:106D2000350528BF45F0010501F58011420875F1D0
:106D3000004250F1000041EB04514E0016F5001FD7
:106D400070BC38BF70470020090D090570471CEB67
:106D5000410F10D252EA43060BD0BCEB410F05D8CD
:106D60000C0DAB43661E342EB6DD02E0AB4380183B
:106D7000594170BC704770BC70470000F0B540F2DC
:106D8000FF7581EA030C0CF0004C15EA11541DBF8D
:106D900015EA1357AC42AF42E5E0BC41C1F3130121
:106DA000C3F31303801A994143F4801304D2641E81
:106DB0000018494180185941C90241EA5051B1FBBC
:106DC000F3F603FB1611A2FB0675D7EBC020A94111
:106DD00002D2761E80185941C90241EA5051B1FBD6
:106DE000F3FE03FB1E11A2FB0E75D7EBC020A941D9
:106DF00003D2AEF1010E80185941890241EA905147
:106E0000760546EA8E2EB1FBF3F603FB1611A2FBC4
:106E10000675D7EB8020A94102D2761E8018594111
:106E2000C90241EA50514EEA060EB1FBF3F603FBEC
:106E30001611A2FB0675D7EBC020A94102D2761E1F
:106E400080185941C90241EA5051B1FBF3F703FBE5
:106E50001711A2FB0735D3EBC020A94167F100074A
:106E60000CBF004247F0010766F3D5274FEA1E31F9
:106E7000B80814F5806412DDBD0775F1004250EBCF
:106E80000E5051EB045111F5801F5CBF41EA0C011B
:106E9000F0BD4CF07F6141F0E0410020F0BDBD0746
:106EA0006D0840EA0E5041F48011D4F10104B4F1B0
:106EB00020060ADAC4F120060200E04001FA06F3D7
:106EC000E1401843B24015430EE0342C13DCC6F108
:106ED000200445EA40056D0820FA06F2154321FA20
:106EE00006F0A1400D43002175F1004250F1000071
:106EF00051EB0C01F0BD00205FEA0C01F0BDCFB9F1
:106F000092185B41B3FA83F704BFB2FA82F6BF1955
:106F10000B3FB7F120062FBF02FA06F3BB40C7F1C3
:106F2000200622FA06F638BF3343BA401CB1E419F2
:106F3000641E33E77F4231F00041B1FA81F404BFAF
:106F4000B0FA80F6A4190B3CB4F120062FBF00FA6A
:106F500006F1A140C4F1200620FA06F638BF3143FD
:106F6000A0403C1B1AE7AC421ABF05EA1357AF42D8
:106F700012E050EA41061CBF52EA4306BFE750EA5E
:106F80004107304661461CBF41EA0551F0BD52EA57
:106F9000430C08BFC143F0BD00204FF4001616EBB0
:106FA000410F98BF16EB430F08BF16EB410F24BFEC
:106FB000C14305E016EB430F0CBF61464CEA055197
:106FC000F0BD0000400D40F21E4C40EAC120BCEB79
:106FD000115C40F0004003D48CF30701C8407047B7
:106FE0006FEAE1707047000000487047742000208D
:106FF000D3BBD9B1B2F5803F5BD2022A1ED98C46F1
:10700000B1FBF2F102FB11C31B0443EA1043B3FBD3
:10701000F2FC02FB1C3380B240EA0343B3FBF2F004
:1070200002FB103240EA0C4000237047022A05D9C7
:107030008446B0FBF2F002FB10C270474AB105D1A2
:1070400000F0010249085FEA300070470022002387
:10705000704703F0A1B90B00020000210020704727
:10706000F7D3002200237047904271EB030CF2D358
:1070700070B5B1FA81F4B3FA83F52C1BA340C4F1C7
:10708000200532FA05F63343A2405FF00046E640A1
:1070900002E05B085FEA3202841A71EB030524BF49
:1070A000204629467641F4D302000B00300000212F
:1070B00070BD70B5B1FA81F4B2FA82F5C4F1200462
:1070C0006419B4F12006DAD3B2405FF00044F44012
:1070D000002502E052085FEA3303C61A71EB020E84
:1070E00024BF3046714664416D41F3D302000B006A
:1070F0002000290070BD00002DE9F8430446FDF78B
:1071000029F8684988684FF00008002510BB01F194
:10711000200601F1200216F0070F4FF4A04013469D
:1071200006D0D31DDB08DB00C3F5A04902EB090044
:10713000C0180838C008C0000B604D60886045600A
:107140000560C21A5A60186058680861C8604FF03C
:107150000040C8614FF05009C869044245D1002C75
:1071600043D0083414F0070F04D004F1080204F0EF
:107170000700141A002C38D0C868A04235D30E6816
:1071800001E0314606467068A04202D2306800280D
:10719000F7D1444FB868864227D00A683068086043
:1071A00002F108087268121B112A0CD3311911F070
:1071B000070002D000F022F8FEE7301D0251746093
:1071C000084600F04CF87168F868401AF8603B69AE
:1071D000984288BF18463861F8690143716035608C
:1071E00008F007057869401C7861FCF7CEFF15B1FF
:1071F00000F004F8FEE74046BDE8F28389F3118809
:10720000BFF34F8FBFF36F8F7047002800D17047D7
:1072100038B5A0F10804234D6168EA695023114292
:1072200004D183F31188FFF7EBFFFEE7206820B15C
:1072300083F31188FFF7E4FFFEE791436160FCF7F9
:1072400089FFE96860684118E960204600F007F8A6
:10725000A869401CA861BDE83140FCF796BF30B575
:1072600010490A4600E01A4613688342FBD353686C
:10727000D418844203D14068C31853601046436851
:107280001468C518A54208D189688C4204D0616889
:10729000CB184360246800E00C460460824218BFAB
:1072A000106030BD042100204FF0FF3200F10801D2
:1072B00082604160C16000F108020261002101604A
:1072C000704700210161704710B542684A609368B9
:1072D0008B6094686160916008610168491C01607D
:1072E00010BD30B50A6812F1010F08BF036907D05D
:1072F00000F1080300E023465C682568AA42FAD240
:107300005A684A6091608B60596008610168491C45
:10731000016030BD4368016982689A608368426891
:107320005A604A68824204BF83684B60002202614F
:107330000868401E0860086870470000034B03603F
:1073400003F15C00086080211160704724820020F6
:1073500010B586B000F074F9DFF83443A068C0B10E
:1073600000210591049103AA04A905A803F016F8C9
:107370000598049902900222009201910023039A39
:107380000FF214310FF27D00FCF7A6FD0028E0603B
:1073900005D1502181F3118800F007F8FEE70120A4
:1073A00006B010BD502080F31188BFF34F8FBFF39C
:1073B0006F8F7047F8B5044684B01E46002014B99C
:1073C000FFF7F0FFFEE7DFF8C872BD68BDB1062920
:1073D0000091019202940CDAFDF7CDF8022807BF64
:1073E0000A9A002300230022B8686946FDF7B6FC1C
:1073F00005E00023324669462846FDF746FD05B004
:10740000F0BD0000F8B586B0DFF88452296808683E
:1074100010B90124002602E0C86806680024FCF7C1
:1074200099FE01A800F0B4F80746019800283FD162
:1074300054BBB7422DD3FCF7A8FE2868C168CC68BE
:10744000201DFFF767FF94F82800410717D5A169B1
:1074500033463A468919204600F0D7F840B100205B
:1074600000900023324600212046FFF7A3FF18B109
:10747000216A2046884725E0FFF794FFFEE700F0E9
:10748000FE0084F82800F3E7686801684C1EA441F8
:10749000E40FA8682246F11BFDF7B4FFFCF775FE68
:1074A00080B97C494FF080500860FFF77EFF09E00B
:1074B000FCF76BFE06E094F8280081073BD42046D9
:1074C000FFF7A3FEA868002202A9FDF76EFD0028C1
:1074D0009CD00298002803D505990498039A9047F8
:1074E00002980028EED4049C606910B1201DFFF7BB
:1074F00011FF01A800F04CF802990929E2D8DFE851
:1075000001F02121211A070621211A07DAE7D2E723
:1075100094F8282042F0010284F828200399A16100
:1075200031B1034602460918204600F06EF8C9E75B
:10753000FFF738FFFEE794F8280000F0FE0084F81B
:107540002800BFE794F8281041F0010184F82810C2
:1075500002460399A0690B464118204600F055F8F1
:107560000028AFD0216A2046884794F828004107B8
:10757000A8D5002000900023039AA069821800215A
:107580002046FFF717FF00289CD1FFF70BFFFEE70F
:107590002DE9FC410446FCF74DFE3D4E05463069A1
:1075A00085420BD30021216035612846BDE8F68174
:1075B00078603F61391D3068FFF793FE31680868D5
:1075C000F0B1C868D0F80080C768381DFFF7A2FE88
:1075D000396A3846884797F828004107EED5B869D8
:1075E00040448045E4D3002000900023424600211F
:1075F0003846FFF7DFFE0028E0D1FFF7D3FEFEE7B5
:107600007068716030600121CDE738B500248A428E
:10761000416000611E4D06D38169D21A8A4206D2AA
:10762000011D686807E09A4203D2994201D3012400
:1076300003E0011D2868FFF754FE204632BD00001C
:107640001CB5FDF7F8F9124CA068E0B904F114007C
:10765000FFF72AFE04F12800FFF726FE04F11400CC
:1076600004F12801002220606160009204F13C03D3
:1076700004F18C0210210A20FDF785FAA06010B1F8
:1076800007A1FDF799FEBDE81340FDF7EDB9000035
:107690008084002004ED00E0546D72205376630076
:1076A000546D725100000000704700000748084BFD
:1076B00000210160002282604FF47A721968B1FBE8
:1076C000F2F2521E426007210160704710E000E0B4
:1076D00000210020EFF30980BFF36F8F264B1A685B
:1076E0001EF0100F08BF20ED108A20E9F04F106047
:1076F00009B44FF0500080F31188BFF34F8FBFF3F0
:107700006F8FFCF7FCFD4FF0000080F3118809BC7F
:1077100019680868B0E8F04F1EF0100F08BFB0EC11
:10772000108A80F30988BFF36F8F7047124B196876
:107730000868B0E8F04F80F30988BFF36F8F4FF00F
:10774000000080F3118870470C480068006880F3DF
:1077500008884FF0000080F3148862B661B6BFF36A
:107760004F8FBFF36F8F00DFDFF81400016841F423
:1077700070010160704700008087002008ED00E084
:1077800088ED00E00249034A01600261704700BFD2
:10779000577800087D780008006040607047EFF37C
:1077A000108172B6026882420CBF012000201CE0EA
:1077B000EFF3108272B603680B60486001600868DE
:1077C000416024E0EFF3108272B6086043684B60BA
:1077D0004160486801601AE0EFF3108172B64268B8
:1077E0000368136002684368536081F31088704730
:1077F00010B5EFF3108472B602680A600168FFE703
:107800000846FFF7E9FF84F3108810BD0B6082F390
:107810001088704702F04FBE6D486E49016001F15B
:107820002002426001F13003836001F140020262F4
:1078300001F14803436201F15002C26001F15803B3
:10784000036101F17402426101F1780383618431C3
:10785000C16102F04EBE38B504465F4D2846FFF7C1
:107860009BFF5B494868A1680160E2685B49C260B0
:107870004160856002F059FE59482AE080B55448BD
:107880004268136801211972406802F056FE002018
:1078900002BD38B5524C504D04E000F041F800985C
:1078A000216888472846FFF77AFF0028F5D031BDC8
:1078B0004B494868004738B504464A4D2846FFF70B
:1078C0006BFF4349C868A1680160456002F03AFE59
:1078D00045482168016062684260002032BD80B581
:1078E0003B48C268136810211972C06802F035FE67
:1078F000002002BD36483C4AC168C3681168186858
:10790000084738B5384C374D04E000F009F80098C6
:10791000616888472846FFF742FF0028F5D031BD4F
:1079200069462846FFF764BF38B504462F4D284600
:10793000FFF732FF2E48FFF72FFF25480069A168A7
:107940008160E268C260056121680160626842602E
:10795000216941616269826131BD80B50146244877
:10796000FFF730FFBDE802400FF2090002F003BE4E
:107970000000000038B5164C1D4D06E0FFF7D0FFA3
:10798000009920690069FFF71DFF2846FFF707FFF0
:107990000028F3D031BD10B5164C2046FFF7FCFE91
:1079A0000B4948690460BDE8104002F0FDBD1CB5FC
:1079B000104C06E069462046FFF71AFF009802F0D7
:1079C0000FFE2046FFF7EBFE0028F3D013BD0000AA
:1079D00000000320B8090320580A03209C08032054
:1079E000C08C0020600A0320C88C0020480A0320B5
:1079F000B88C0020500A03207FB50C464E4D6168BC
:107A00004E4E28626962281D02F0ECFD2468746005
:107A100006F10800FFF7C0FE012000F069F8012020
:107A20003070696841B10FF2ED020FF2F10300927C
:107A300001930294684688477FBD1FB53F4C04F10F
:107A40000800FFF7ACFEF8B92078E8B1694604F108
:107A50000800FFF7CDFE3848016A49B1009802904E
:107A600001228DF8042001A888479DF8040000E059
:107A70000120207018B10098FFF76FFF04E0009913
:107A800004F10800FFF794FE04F10800FFF787FEF9
:107A900028B9207818B104F1080000F0EFF91FBDF3
:107AA0002DE9F04105460E4690461C46002000F0A8
:107AB0001FF8224F7868A0F80950C6723246414636
:107AC0000C30FBF777FA1C4A012010700021526934
:107AD0000020904748F2E80000F0D9F979688A78E8
:107AE000D21C04F10800FBF765FABDE8F041012063
:107AF00010B51149124C496A20B901B188470021DB
:107B0000217010BD0120207011B1BDE81040084760
:107B100010BD0000002000F0B6B9000010B501460D
:107B2000064C04F10800FFF74DFE04F10800BDE823
:107B3000104000F0A3B90000F08B0020908C0020D2
:107B4000F08C0020134810B5016841F48071016089
:107B5000032000F0D8FA0F2002F04EFD0024002888
:107B600014BF012402F0A3FD204610BD0A4880681E
:107B70007047094800787047084805E007480168E1
:107B800041F0020101607047016841F001010160AC
:107B90007047000000400058E8200020042004E066
:107BA00080B5DFF8B8234FF4004111600020FDF7E5
:107BB000B3FE58B18079DFF8A813DFF8A8230A6074
:107BC0000B6823F47C5343EA00230B6001BD10B51E
:107BD000DFF89403DFF8944388B0016841F0500166
:107BE0000160CA22DFF88803C2615321C161FF210D
:107BF0000268D208D2000260C161DFF8780302682F
:107C000042F400420260FDF7F5FCDFF86C03026805
:107C1000042161F3020202600020DFF86013FEF726
:107C200004FB02F08EFE01210120FDF7E8FC01219A
:107C3000002002F035FF0121012002F031FF012177
:107C4000022002F02DFF0FF26D23012221460020B9
:107C500002F076FFFFF7E0FD0020F9F7FEFFA060DD
:107C6000002200210120FAF767F8E0600021C44AF1
:107C70000FF2C510F9F729FF2061C24C0FF2350150
:107C8000019104F23C50009069460FF24500FFF765
:107C9000B3FE04F5C961039104F25470029040F2FE
:107CA0003C510591049402A8FFF73EFEFFF7B2FD98
:107CB00008B010BDAD498A6810B1012805D07047E1
:107CC0004FF0FF311046F9F7F5BF1046FAF716B836
:107CD00070B5064688B07068AB4C00F10B054FF4E8
:107CE00012422988891A11D0491E6ED0491E00F00F
:107CF0008080891E00F08A80491E00F08C80491E19
:107D000000F08C80491E00F0908092E06846FDF7FC
:107D1000ACFC9DF802309DF801209DF80010204633
:107D2000F9F784FE9DF804100FF27820F9F77EFE33
:107D30009DF80C309DF80B209DF80A10A0A0F9F7D3
:107D400075FE00BFA4A0F9F771FE04A8002100226F
:107D50000023002580E82E00716801F10D0090F8E5
:107D6000000038BBA4A0894DF9F760FE02F066FE62
:107D70000F207F218DF810008DF8121004F5097086
:107D80002E68360C3146F9F751FEADF81C602C68B0
:107D9000A0A0C4F30B042146F9F748FEADF81E403D
:107DA00004A8FDF75BFCFAF773F800210120FDF74A
:107DB00026FC3EE0012805D104F51270F9F736FEE5
:107DC000357036E004F51F7031E004F12400F9F756
:107DD0002DFE706800F10D0504F5C0702978F9F7E3
:107DE00025FE2878002814BF04F5F67004F5D87035
:107DF0001DE004F14800F9F719FED5F80620D5F882
:107E0000021004F19800F9F711FE12E0D5F8021003
:107E100004F1C00006E004F1FC0008E0D5F802100F
:107E200004F59070F9F702FE03E004F5AE70F9F77F
:107E3000FDFD08B070BD000080B54FF0FF3200219D
:107E40000120F9F7C1FEFFF7F8FDF6E738B5044663
:107E500002F0BAFE14F1010F054609D0FFF789FEC2
:107E6000241805E04A48016821F00401016030BF90
:107E700002F0AAFE401BA042F4D331BD3B4A106978
:107E80000121F9F76FBE3949C868F9F7C2BF374A0F
:107E9000D0684FF0FF31F9F797BF012805D00228CD
:107EA00005D0102805D1FAF719BBFAF722BBFAF76B
:107EB00022BB7047F8B5374C2C4F04F580752E88DF
:107EC000B6F5807F3BD238780D2835D14FEA0401D2
:107ED00058A0F9F7ABFD1EA1204602F07BFE04F589
:107EE000827620B957A0F9F7A1FD2B4814E019A11B
:107EF000204602F06FFE28B954A0F9F797FD4FF025
:107F0000B05009E014A1204602F064FE48B900BF59
:107F100050A0F9F78BFD21486860304602F064FEFE
:107F200003E021464DA0F9F781FD4FF48071204612
:107F3000F9F790FD002601E0A055761C2E80394609
:107F400001B0BDE8F040164B0122002002F0F8BD60
:107F500053573100535732005357330010400058E5
:107F60009C000058FECAFECA90080058388C0020B9
:107F7000082800400800005880040058AC89002000
:107F800094F900083C0003206CE70008002004E09E
:107F900010ED00E0AC850020040000160100001682
:107FA000B57E0008576972656C6573732046697207
:107FB0006D77617265206275696C642025640A00C2
:107FC0004655532076657273696F6E2025642E25A1
:107FD000642E25640A0000003E3E3D3D2053484388
:107FE000495F5355425F4556545F434F44455F5286
:107FF000454144590A0D00003E3E3D3D205749523F
:10800000454C4553535F46575F52554E4E494E4778
:10801000200A00003E3E3D3D204442474D43555F0F
:1080200047657444657669636549443D20256C78ED
:10803000200A0D0072656365697665642025730A00
:1080400000000000535731204F4B0A005357322095
:108050004F4B0A00535733204F4B0A004E4F5420CA
:108060005245434F474E495A454420434F4D4D4199
:108070004E44203A2025730A00000000F8B504465B
:108080000025ACB104F13406307910B9204602F075
:1080900023FB0F4F384600F021F8386840F00110FC
:1080A0003860204600F007F835600121317100E0AA
:1080B00001252846F2BD10B50021064A064B00EB0B
:1080C0008104491C06296360E261F8D310BD0000F9
:1080D000000C0058B32F00088F1E0008002101601B
:1080E0004FF03F1242603F23836070470901020056
:1080F00002D43048815470472F4B02F00F021A44CB
:1081000002F8041C70472D490A6860F30A2240F205
:10811000FA5060F31F420A60704770B5274B1C6825
:10812000C4F302230124C3F10705052D2EBF0F253B
:1081300004FA05F56D1E1E1D072E34BF0023DB1E3D
:108140002940994004FA03F3BDE870405B1E1A40D1
:108150001143CBE7010007D4012200F01F01184BA7
:108160008A40400943F82020704701000BD40122C7
:1081700000F01F01134B8A40400943F82020BFF351
:108180004F8FBFF36F8F7047010007D4012200F0BB
:108190001F010D4B8A40400943F820207047010021
:1081A00007D4012200F01F01084B8A40400943F820
:1081B0002020704700E400E018ED00E00CED00E046
:1081C00000E100E080E100E000E200E080E200E0A9
:1081D00038B5040001D1012032BD94F8210028B93E
:1081E000002184F82010204602F050FB022084F881
:1081F00021002068C168CA0637D4CA2141625320D1
:108200002268506200F036F801001AD12168DFF8C8
:1082100098008A6802408A602268936860682169D1
:108220000343A0690B43034393602068E168016145
:1082300020680169A26841EA02410161204600F01C
:1082400059F801000BD12168CA6C92089200CA64E7
:108250002368DD6CE16962690D431543DD64FF212C
:1082600022680300516204D100E00020012184F85B
:10827000211032BD20461BE038B504460B4821686A
:10828000C86002F0A1FC05462068C168880608D4D1
:1082900002F09AFC401B40F2E9318842F4D30320FB
:1082A00032BD002032BD0000BFFF8FFF5FFF010025
:1082B00070B5044600252068C1684A0618D4C16814
:1082C00041F08001C16002F07FFC06460AE002F046
:1082D0007BFC801B40F2E931884203D3042084F800
:1082E000210001252068C168480601D42800EED08D
:1082F000284670BD38B5044600252068C16821F0C5
:108300008001C16020688168880607D42046FFF795
:10831000B3FF18B1042084F821000125284632BD9E
:108320008A60FF210268516280F82130002180F8C4
:10833000201000207047F8B53E4E034630684FF4D9
:108340007A7540092C46B0FBF4F46C43009493F822
:108350002000012801D10220F2BD012083F8200075
:10836000022783F82170CA201C68606253271868AE
:108370004762FF241F68B868400507D50098401E73
:1083800000900098F0B1F8684007F7D4B86820F47E
:108390008060B8601868C76807F0800767F4906766
:1083A000C760306840092E46B0FBF6F6754300956D
:1083B0001D680098401E0090009818B1E8684607B4
:1083C000F7D506E018684462032100F023F8032083
:1083D000F2BDA868C008C000A860186885682A4374
:1083E0008260186841611148016841F40021016010
:1083F0000F48026842F4002202601868816841F464
:1084000080418160186800F00BF81868446200F041
:1084100001F8F2BD83F82110002083F82000704796
:10842000816841F4806181600121704780080058B3
:10843000000800580021002090F82010012901D1E7
:1084400002207047012180F82010022380F821309B
:10845000CA2102685162532301684B6201230168FB
:108460008A6842F02002FFF75BBF10B5040001D11B
:10847000012010BD607A20B900212172204602F04F
:10848000E8F90220607221680A68606822F0200220
:1084900002430A602068016841F004010160012084
:1084A00060720021E160002010BD000002480168F8
:1084B00041F4807101607047000400584FF0B040F3
:1084C000006800F0F000B02888BFB0207047DFF8E7
:1084D00024080068000100F0F00070472DE9F04129
:1084E000040051D0207881064FF0B0453AD5A868F5
:1084F000E96810F00C0001F0030103D00C2808BF5C
:10850000012943D1E06900283ED0FFF7D7FF01469B
:10851000606A814211D200F0A1FB002834D12968A1
:10852000606A21F0F001014329606968206A21F442
:108530007F4141EA0021696009E0296821F0F001EA
:10854000084300F018FA606A00F088FBE0B900F018
:108550003BFBDFF8A4170860DFF8A007006802F013
:108560004BF888B92078C10762D5A868E96800F09F
:108570000C00082801F0030103D00C2808BF0329D0
:108580002ED16068002853D10120F2E1E069B8B132
:10859000296841F0010100F0D8FA064628688007F2
:1085A00006D402F011FB801B0328F7D30320E0E17F
:1085B0002868616A20F0F000084300F0DCF9D1E798
:1085C00028684008400000F0B6FB064628684008CE
:1085D000C007C7D502F0F8FA801B0328F6D3E5E7F9
:1085E0006068B0F5803F04D1296841F4803129608A
:1085F00003E0286820F480302860606858B102F0F9
:10860000E3FA06462868800312D402F0DDFA801BE4
:108610006528F7D3CAE702F0D7FA06462868400C67
:10862000C00705D502F0D0FA801B6528F6D3BDE758
:108630002078810715D5A868E96800F00C000428A7
:1086400001F0030103D00C2808BF022928D1E068FB
:10865000002899D06868216920F0FE4040EA016056
:1086600068602168DFF8986611F0180F00F08B80C1
:108670006069002877D0C806706858D5800730D464
:10868000716841F00101716002F09EFA074670685E
:10869000800726D402F098FAC01B0328F7D385E799
:1086A000E06870B1296841F4807100F04EFA064626
:1086B00028684005CED402F087FA801B0328F7D340
:1086C00074E7286820F4807000F035FB06462868BF
:1086D000800AC007C5D502F077FA801B0328F6D3BD
:1086E00064E7706840F0040000F04EF907467068D7
:1086F000000705D402F068FAC01B0428F7D355E739
:108700007068A16920F4706040EA012070607068B0
:108710004008400000F038F9074670684008C0077C
:1087200031D502F051FAC01B0328F6D33EE740F0E2
:10873000010000F029F907467068800705D402F0AF
:1087400043FAC01B0328F7D330E7706820F0040019
:1087500070607068C008C00715D502F035FAC01BFC
:108760000428F6D322E7706820F0040000F00CF92A
:1087700007467068C008C007C9D502F025FAC01BBB
:108780000428F6D312E7207841074CD5DFF874852A
:10879000D8F80000C1050ED4FFF788FE02F014FAE5
:1087A0000746D8F80000C10505D402F00DFAC01B39
:1087B0000328F6D3FAE6A068012804D1306840F017
:1087C0000100306010E00528306806D140F0040058
:1087D0003060316841F0010105E040084000306040
:1087E000316821F004013160A06841F2893760B13D
:1087F00002F0EAF980463068800714D402F0E4F908
:10880000A0EB0800B842F6D3D0E602F0DDF98046CE
:1088100030684008C00706D502F0D6F9A0EB080082
:10882000B842F5D3C2E62078410622D5A06A0028D6
:10883000B0680ED040F00100B06002F0C5F9074604
:10884000B068800715D402F0BFF9C01B0328F7D326
:10885000ACE640084000B06002F0B6F90746B068E8
:108860004008C00705D502F0AFF9C01B0328F6D3B6
:108870009CE6E06A00287BD0A968EA68022801F03B
:108880000C0161D1236B02F00300984202BF02F099
:108890007000636B984213D1A36BC2F30620984219
:1088A00002BF02F47810E36B984209D1236C02F006
:1088B0006060984202BF02F06042606C824237D032
:1088C0000C2942D0286841013FF55EAE00F030FA35
:1088D00006462868810105D502F076F9801B032839
:1088E000F7D363E6EA68DFF82004216B0240606B8F
:1088F0000A43A16B0243E06B42EA0122216C02436E
:10890000606C0A430243EA60296841F08071296083
:10891000E86840F08050E86002F056F904462868A4
:10892000810125D402F050F9001B0328F7D33DE65E
:10893000286881011CD4286840F080702860E968AC
:1089400041F08051E960E7E70C293FF41DAE00F0EB
:10895000EFF904462868810105D502F035F9001BBE
:108960000328F7D322E6E968DFF8A0030140E960B5
:108970000020BDE8F08128606868216A20F47F400B
:1089800040EA012068607047706002F01DB92DE96F
:10899000F8430400884600F0B080DFF8745300F01C
:1089A000CBF80CD200F0CDF8074600F0C5F806D0A1
:1089B00002F00AF9C01B0228F7D90320BAE0207898
:1089C00082074FF0B04711D5B968A06821F0F001D7
:1089D0000143B96002F0F8F80646B868C00305D450
:1089E00002F0F2F8801B0228F7D9E6E72078DFF8DA
:1089F0000463820612D53168606921F0F0010143F9
:108A0000316002F0E1F881463068800306D402F05C
:108A1000DBF8A0EB09000228F6D9CEE72078410662
:108A200013D53068A1690009000140EA11103060D7
:108A300002F0CAF881463068C00306D402F0C4F8D8
:108A4000A0EB09000228F6D9B7E72078420711D534
:108A5000B968E06821F4E0610143B96002F0B4F85C
:108A60000646B868800305D402F0AEF8801B0228E1
:108A7000F7D9A2E72078010712D5B868216920F458
:108A8000605040EAC100B86002F09EF80646B8683F
:108A9000400305D402F098F8801B0228F7D98CE730
:108AA0002078C1072BD56068022819D1396889035D
:108AB00023D5BA68920840EA8200B86002F084F8D0
:108AC0000646B868616800F00C00B0EB810F16D064
:108AD00002F07AF8801B41F289318842F1D36CE7C9
:108AE000032802D13968890103E00028396802D1DE
:108AF0008907DED401E04905DBD401201AE02868AB
:108B000000F0070080450BD200F01BF8044600F08F
:108B100013F805D002F058F8001B0228F7D94CE7EB
:108B200000F052F874490860FFF720F8BDE8F243FE
:108B300001F062BDBDE8F283286800F007004045FF
:108B400070472968C90848EAC101296002F03CB8A9
:108B500038B54FF0B045704CA96811F00C0106D142
:108B6000FFF7ACFCC0F3031054F8200032BD042919
:108B70006A4828D008296A4A04D12968C90222D43F
:108B8000104632BDE96801F0030102290CD0032927
:108B900004D12968C90207D4104605E0FFF78EFC0E
:108BA000C0F3031054F82000E968EA68EB68C1F3E9
:108BB00006214843C2F30211491C5B0FB0FBF1F0E0
:108BC0005B1CB0FBF3F032BD80B5FFF7C1FF51492C
:108BD000FFE7544A0968C1F3031152F82110B0FBB2
:108BE000F1F002BD80B5FFF7EFFF00F010F8C1F320
:108BF000022106E080B5FFF7E7FF00F008F8C1F3B7
:108C0000C22112F8211001F01F01C84002BD4149E4
:108C1000454A096870476F2202603E4A136803F0B4
:108C20000C034360136803F0F0038360136803F4DC
:108C3000E063C360126802F4605202612D4A136857
:108C400003F0F00343611268120102F0F002826146
:108C50002F48026802F007020A60704770B52E497B
:108C6000B1282EBFCC6AC0F3031051F82040FFF7A3
:108C70002EFC054601F0C6FF2A49C5F3031251F840
:108C800022102A4AB4FBF1F15FF00004B1FBF2F1CB
:108C9000B0F5007F30A220461FD100BF27A353F8B4
:108CA00020508D4216D2401C0328F8D9184D286850
:108CB000C00844EAC00000F03EF80646286800F00C
:108CC0000700A04213D001F07FFF801B0328F5D3DB
:108CD000032070BD52F82040E8E700BF1BA353F803
:108CE00020508D42F6D2401C0328F8D3DEE7002046
:108CF00070BD00000801005800210020F020002075
:108D000090000058000400588C80C111FCFFFEEE5A
:108D1000004000580800005864F600080024F400E1
:108D20000048E80124F6000874FA000840420F00E9
:108D3000286820F08070286001F046BF1200000013
:108D40002400000036000000400000000600000083
:108D50000C000000100000000000000001000000F6
:108D60000200000003000000DFF81C130A6803097A
:108D700003F47F2300019A4300F47F2000F081B9BF
:108D8000DFF804231368010C23EA014343EA00439C
:108D9000136070472DE9F843054600242878DFF872
:108DA000E8624106A0464FF0B04743D5286B70B14A
:108DB000B0F5800F06D0B0F5000F18BFB0F5400F2A
:108DC0002ED035E0F96841F48031F96029E0386847
:108DD00020F08060386001F0F7FE81463868C00EF0
:108DE000C00707D501F0F0FEA0EB09000228F5D975
:108DF000032415E000F03CF9A86821F4781100F094
:108E00002FF981463868000106D401F0DDFEA0EBA1
:108E100009000228F6D9EBE739696869014339612D
:108E20003CB93168286B21F440010143316001E015
:108E30000124A0462868010532D5D6F80880286CA0
:108E400008F4407880452AD0FFF730FBB8F1000FD6
:108E5000B16805D1286C21F440710143B1601EE076
:108E6000B06840F48030B06021F44071B06820F404
:108E70008030B060286C0143B160B068C0070ED587
:108E800001F0A2FE8046B068800708D401F09CFE85
:108E9000A0EB080041F289318842F4D30324A046B4
:108EA0002878C20705D53168A869890840EA810198
:108EB00031602978880705D53168E86921F4406177
:108EC000014331602978C80644BFA86AFFF758FFFC
:108ED0002878810644BFE86AFFF752FF28784107E7
:108EE00044BF286AFFF740FF2878010744BF686A3B
:108EF000FFF73AFF2868C20535D53168686B21F065
:108F0000406101433160696BB1F1006F00F0A2F87C
:108F1000686BB0F1806F26D1396821F0806100F074
:108F2000A4F804463868C00EC10707D501F04CFE0E
:108F3000001B0228F6D94FF0030814E000F098F85F
:108F4000E86821F0606100F08BF8044638680101A0
:108F500005D401F039FE001B0228F7D9EBE7396987
:108F6000686901433961296888051CD5A86BB0F18F
:108F7000804F18BFB0F1004F00D020B9316821F008
:108F80004041084309E0316821F04041316020F060
:108F90008050326822F0406210433060A86BB0F11C
:108FA000C05F00F057F82868420538D53168E86B93
:108FB00021F0405101433160E96BB1F1005F03D111
:108FC000F86840F48030F860E86BB0F1805F26D13B
:108FD000396821F0806100F048F804463868C00E16
:108FE000C10707D501F0F0FD001B0228F6D94FF0AC
:108FF000030814E000F03CF8286921F0604100F01B
:109000002FF804463868010105D401F0DDFD001B8E
:109010000228F7D9EBE739696869014339612968A2
:10902000C80405D5F168686C21F440410143F16042
:10903000296888040BD5796AE86C21F03001014376
:109040007962796AA86C890840EA810179624046B0
:10905000BDE8F28303D1F86840F08070F860704793
:1090600001433961396841F08061396001F0ACBD7C
:109070003869696820F4FE4040EA012038613969A6
:1090800070471043086070478800005838B50400E6
:1090900001D1012032BD04F18405686808B900F0EF
:1090A00020F800F00DF808B100F031F800F02CF8CD
:1090B000012804D000F00DF821F02A0116E032BD9D
:1090C0002420686020680168490849000160A06A9E
:1090D00070472068416821F49041416020688168B0
:1090E000704700212970204601F012BB816000F01A
:1090F00004F8BDE8324000F068BB2068016841F028
:109100000101016020467047204600F0F7B9204673
:1091100000F0F8BA38B50346D3F88C0020280AD1FD
:1091200009B1100001D1012032BD00F048F8BDE8BE
:10913000384000F0F5BB022032BD38B5044604F1DA
:1091400054051346686B202831D121B3180022D072
:1091500021652B806B800020E86321216963A86A68
:10916000D8B1DFF88813C162DFF88403A96A086305
:10917000A96ADFF8800348630020A96A8863206831
:10918000216D00F12802A86A01F0B3FD28B110207A
:10919000E86320216963012032BD21684020086214
:1091A000226800F006F800F096F9F9D132BD0220ED
:1091B00032BD02F1080151E8001F0832704700205B
:1091C000D866DFF834431868A0420CD04068040227
:1091D00009D5186850E8004F054644F0806445E81A
:1091E00000400028F5D118467047216801F10803B6
:1091F00053E8001F206800F1080221F0400142E816
:109200000010002870472DE9F041044640F60F0C8D
:109210002268D669104616EA0C0F0768936804F1B5
:109220005C0507F0200006F020010DD1002914D0C4
:1092300010B9D80040F18D80A969002900F045815E
:109240002046BDE8F0410847DFF874C813EA0C0F68
:1092500004BFDFF870E817EA0E0F7AD05FEAC67E27
:1092600048BF5FEAC75807D54FF0010EC2F820E0AB
:109270006A6B42F001026A63B2070AD5DA0708D5C1
:10928000D4F800E00222CEF820206A6B42F00402FB
:109290006A6372070AD5DA0708D5D4F800E0042219
:1092A000CEF820206A6B42F002026A6332070DD5C5
:1092B000002808BF13EA0C0F08D0D4F800C0082219
:1092C000CCF820206A6B42F008026A63320509D5A7
:1092D0007F0107D526684FF4006232626A6B42F064
:1092E00020026A636A6B002A32D031B108B9D80013
:1092F00003D5A96909B120468847686B21688A6847
:10930000510602D410F0280F1DD0204600F0A9FB12
:1093100020688168480611D5FFF767FFFCD1686AAD
:1093200060B10FF651018163686A01F060FD0028A9
:109330000ED0686A816BBDE8F04108472046BDE861
:10934000F04101F04BBE204601F048FE002068636A
:10935000BBE02869012878D1F00676D5F90674D5E6
:1093600010201062226829889068420637D56A6A00
:109370001368586880B2002828D0884226DA6880AE
:10938000106801688A061AD400F0ABF821F48071E5
:1093900000F0A3F8F8D100F061FAFCD1FFF725FF47
:1093A000FCD1202028630021296100F09AF821F0E7
:1093B000100100F092F8F8D1686A01F0E2FC022096
:1093C000686129886888091A89B206E088427CD1D8
:1093D0001A68900679D502226A61204631E06A88CF
:1093E0006888891A00281CBF88B200286DD02246E0
:1093F000106850E8003F044623F4907300F067F8CB
:10940000F6D1106800F1080400F1080354E8004F99
:10941000DFF8A806044043E800400028F1D102F13B
:109420005C032020186300241C619C61146854E8CC
:10943000004F156800F06EFBF8D10220586189B228
:109440001046BDE8F04101F0CABDF00209D559024D
:1094500007D54FF4801010622046BDE8F04101F0BE
:10946000BFBD300609D5390601D4180205D5E96912
:1094700059B32046BDE8F0410847700613D5790678
:1094800011D500F02EF821F0400100F026F8F8D1B7
:1094900004F15C002021C1620022C2612046BDE8C7
:1094A000F04101F07EBB300206D5790004D520469C
:1094B000BDE8F04101F095BDF00148BF002F04D593
:1094C0002046BDE8F04101F08DBDBDE8F08144E8E3
:1094D00000300028704741F0800142E80010002869
:1094E0007047206850E8001F02467047C99A00087C
:1094F0000F9B0008219B000800800040F8B504463F
:10950000DFF8CC0822681368A168034020690B4388
:1095100061690343E0690B4303431360002551680D
:10952000E06821F4405101435160A369DFF8A418B9
:109530008A421CBF206A03439668DFF89C08DFF864
:109540009CE8DFF89C7806403343936067A6D36AB3
:10955000606A1B0940EA0313D3627245DFF884088E
:109560004FF4004338D13F6807F00307032F4CD86E
:10957000DFE807F0024542484FF0010CE169B1F520
:10958000004F4FF6F07740F07F80BCF1010F09D01B
:10959000BCF1020F0AD0BCF1040F70D0BCF1080F6F
:1095A00070D098E0FFF726FB002814D0626A61684B
:1095B00036F81230B0FBF3F04A0802EB4002B2FB7F
:1095C000F1F0A0F11001B942EBD20740C0F3420024
:1095D00007432068C7607FE08A4216D13F6817F4CE
:1095E000406723D0B7F5806F09D0B7F5006F03D07F
:1095F000B7F5406F06D008E04FF0020C07E04FF0DF
:10960000040C04E04FF0080C01E04FF0100C8A420B
:10961000B4D1BCF1000F09D0BCF1020F0AD0BCF1EB
:10962000040F15D0BCF1080F15D054E0FFF7DAFA9B
:10963000002851D0616A36F81120B0FBF2F662685A
:1096400002EB42018E4246D31303B34205D242E0FD
:10965000FFF77EFAECE71846ECE75008002110EB24
:10966000062051EB16610023FDF7C2FCA0F5407601
:10967000DFF82078BE422ED22168C8602CE0FFF7C8
:1096800067FA91E7184691E7BCF1010F09D0BCF1E8
:10969000020F09D0BCF1040F18D0BCF1080F18D08C
:1096A00019E0FFF7A7FAB8B1626A36F812306168BC
:1096B000B0FBF3F000EB5100B0FBF1F0A0F11001B2
:1096C000B94208D2226880B2D06005E0FFF740FAC4
:1096D000E9E71846E8E7012504F1680001210023C5
:1096E00041800180C36003612846F2BD0100020091
:1096F0000400060008000A000C00100020004000D2
:109700008000000190F828100A0706D50268536807
:10971000816B23F400430B43536090F82810CA0771
:1097200006D502685368C16A23F400330B435360C3
:1097300090F828108A0706D502685368016B23F455
:1097400080330B43536090F828104A0706D502680F
:109750005368416B23F480230B43536090F8281027
:10976000CA0606D502689368C16B23F480530B4385
:10977000936090F828108A0606D502689368016CF9
:1097800023F400530B43936090F828104A0610D539
:1097900002685368416C23F480130B435360436C9D
:1097A000B3F5801F05D15368816C23F4C0030B43CC
:1097B000536090F828100A0606D501684A68C06C04
:1097C00022F4002202434A607047F8B5044604F1CF
:1097D00084050020E8606FF07E4701F0F5F9064649
:1097E000206801680A0714D50097334600224FF419
:1097F0000011204600F04AF858B1FFF772FE21F040
:109800008001FFF76AFEF8D104F184002021416055
:1098100016E0206801684A0716D5009733460022F3
:109820004FF48001204600F031F868B100F024F8D0
:10983000FCD100F013F8FCD104F1840020218160F8
:10984000002202700320F2BD202068602021A96060
:109850000020E066002121672870F2BD216801F137
:10986000080353E8001F2068490800F10802490076
:1098700042E8001000287047206850E8001F0246A8
:1098800021F4907142E80010002870472DE9F04162
:10989000069C05460E4690461F462868C169314021
:1098A000B1420CBF01200020404537D114F1010F17
:1098B000F3D001F089F9C01B844200D314B903200E
:1098C000BDE8F081286801684A07E6D5802E18BFF8
:1098D000402EE2D0C169080704D42968C86901058F
:1098E000DBD50DE02A6808201062284600F0B9F8A0
:1098F00005F184000821C160002202700120DFE729
:1099000029684FF400600862284600F0AAF805F1C3
:1099100084002021C16000220270D0E70020CFE740
:1099200030B5034600209965FF2403F15C010A80ED
:109930004A8088619868B0F5805F04D1186990B951
:1099400040F2FF140FE018B9186960B17F2007E0FA
:10995000B0F1805F06D1186908B97F2403E03F2089
:10996000888001E000248C800020486322240C635E
:10997000196801F1080555E8001F186800F108048E
:1099800041F0010144E800100028F1D103F15C012D
:109990008868B0F1005F28D18889824225D39A680F
:1099A000B2F5805F04BF1869002803D10FF2394275
:1099B0008A610BE00FF249348C61186930B100F014
:1099C00036F841F48071FFF788FDF8D1196801F18C
:1099D000080454E8001F186800F1080241F08051A3
:1099E000FFF77BFDF2D1002030BD9868B0F5805FB5
:1099F00004BF186900280CD10FF209228A61186887
:109A000050E8001F024641F02001FFF766FDF6D145
:109A1000E9E70FF29D128A6118690028EFD000F083
:109A200006F841F49071FFF758FDF8D1DBE71968AB
:109A300051E8001F1A68704710B500F008F8FCD113
:109A400000F0A8F8FCD12021C0F8881010BD0168F2
:109A500051E8002F0B4622F0C00243E80021002904
:109A60007047016851E8002F0B4622F4907243E8DA
:109A700000210029F5D1016801F1080301F1080274
:109A800053E8003F0D490B4042E800310029F2D174
:109A9000C16E012909D1026852E8002F036822F043
:109AA000100243E800210029F5D12021C0F88C10D4
:109AB0000022C2664267704700000000FEFFFFEF11
:109AC000010000102001000410B50146886A0968F1
:109AD0000A68930609D40021A0F8561000F009F88E
:109AE000FCD100F04DF8FCD110BDBDE8104001F0F4
:109AF00058B8026802F1080454E8002F016801F127
:109B0000080322F0800243E8002100297047806AA0
:109B100001F069BA24F0100445E8004000287047BD
:109B2000F8B5846A04F1880504F1560700F01CF8C2
:109B300006D5212804D1002038802046FFF77CFF7D
:109B400021688868410606D5222E04D1002038817C
:109B50002046FFF786FFA86840F01000A860204666
:109B6000BDE8F24001F03ABA28686E6821688A6858
:109B700011067047806A0021A0F85E1001F02EBA2D
:109B8000016851E8002F0B4642F0400243E80021F3
:109B900000297047026802F1080454E8002F0168A8
:109BA00001F1080322F4000243E800210029704774
:109BB00010B500F050F81FD14B6A9188846D0B40AE
:109BC0002370816D4B1C00F04CF819D100F050F857
:109BD000FCD100F057F8FCD100F06CF80BD1002359
:109BE000136100F05DF8FCD10168CB69DC0644BF6D
:109BF00010230B627AE07EE0886940F008008861FB
:109C000010BD000010B500F026F81FD14B6A9188F6
:109C1000846D0B402380816D8B1C00F022F819D1DC
:109C200000F026F8FCD100F02DF8FCD100F042F84D
:109C30000BD10023136100F033F8FCD10168CB692C
:109C4000DC0644BF10230B6250E054E0886940F00A
:109C50000800886110BD00F15C020168136B222BC3
:109C60007047836551884B1E538051880029704787
:109C7000026852E8002F036822F4907243E8002142
:109C800000297047026802F1080454E8002F0168B7
:109C9000520801F10803520043E8002100297047EF
:109CA000016851E8003F0C4623F0100344E80031FE
:109CB0000029704700F15C022021116300239361A9
:109CC00000215161434B016899420CD049680B0255
:109CD00009D5016851E8003F0C4623F0806344E851
:109CE00000310029F5D11169012970471188BDE8BB
:109CF000104001F074B9BDE8104000F048BF00000A
:109D00002DE9F84300F010F94BD1A88900283AD08A
:109D1000B80638D500F0D2F80870A06D421C00F0EB
:109D2000C4F817D0F90748BF5FEAC85200F0B4F88A
:109D300003D5F20701D500F0CFF8780703D5F20775
:109D400001D500F0C1F8686B20B1204601F046F95A
:109D50000020686368880028DAD100F0CFF8FCD1D1
:109D600000F028F8FCD100F0FDF809D100F0EAF885
:109D700044BF102101622988204601F030F902E039
:109D8000204600F004FF688868B1A98988420ADA91
:109D900000F0BEF8FCD18048A86100F0A5F8FCD125
:109DA00001E000F002F8BDE8F183816941F00801AB
:109DB00081617047206800F1080200F1080152E853
:109DC000002F7648024041E800200028704700003C
:109DD000F369FFCF00800040FFF4FF11003801401D
:109DE000880000580024F4002DE9F84300F09CF8A6
:109DF0004BD1A88900283AD0B80638D500F05EF8D3
:109E00000880A06D821C00F050F817D0F90748BFF9
:109E10005FEAC85200F040F803D5F20701D500F020
:109E20005BF8780703D5F20701D500F04DF8686BB1
:109E300020B1204601F0D2F800206863688800282D
:109E4000DAD100F05BF8FCD1FFF7B4FFFCD100F0F1
:109E500089F809D100F076F844BF10210162298801
:109E6000204601F0BCF802E0204600F090FE688831
:109E700068B1A98988420ADA00F04AF8FCD148485A
:109E8000A86100F031F8FCD101E0FFF78EFFBDE8DA
:109E9000F183000000FD0F0005D501210162686B10
:109EA00040F001006863B8077047A2656888411EEA
:109EB00069802068C76917F0070F70472168486AF2
:109EC000A16D09EA00007047216804200862686BF0
:109ED00040F0020068637047216802200862686BE6
:109EE00040F0040068637047216851E8001F226851
:109EF00041F0200142E8001000287047216851E835
:109F0000001F226821F4807142E800100028704789
:109F1000226802F1080353E8001F083221F0805143
:109F200042E8001000287047044604F15C052068F0
:109F3000B5F80490C7690146D1F800808668296B9E
:109F40002229704700212961206850E8001F02463D
:109F500021F0100142E800100028F5D12068C16905
:109F6000CA067047202028630021A961002068618B
:109F70000C49206888420CD04068010209D520684D
:109F800050E8001F024621F0806142E800100028DE
:109F9000F5D1286901287047B19B0008FEFFFFEF4B
:109FA000059C00080080004010B500F184010A788B
:109FB000012A01D1022010BD01220A7024234B6026
:109FC0000268136814686408640014600022426622
:109FD00023F000530068036020224A6000230B70C6
:109FE000002010BD70B500F01FF801D1022070BD37
:109FF00000F020F822F0604209E070B500F014F89B
:10A0000001D1022070BD00F015F822F0606211430A
:10A010008160204600F01CF82068066020216960FD
:10A0200000222A70002070BD044604F184052878BF
:10A03000012870470120287024226A602068066881
:10A04000026852085200026020688268704700006F
:10A0500030B5416E11B90122012114E0026800BF40
:10A060000BA49168D2F808200BA3490E01F0070158
:10A07000520FA55C645C9A5C595CED00E40095FBB2
:10A08000F2F294FBF1F168304280018030BD0000B3
:10A090000101010307010000080402040801010195
:10A0A0000248416802788A1842607047E820002020
:10A0B00030B5254C254D0020206087B041F60A00C0
:10A0C000ADF8180000940323012206A90120F8F737
:10A0D0003BFD010006BF2188284605F14000F7F747
:10A0E000A5FC42F62920ADF81800012204920A20AE
:10A0F000A11C039000230222059102930193009278
:10A100002023208806AA0121F8F76CFD002807BF4C
:10A11000618805F18000014605F1BC00F7F786FC77
:10A1200007B030BD1CB542F62922904209D10C6817
:10A130000548009400220B7941880088F8F7ACFDAF
:10A1400016BD972016BD0000EC8C00208CF2000894
:10A1500070B5054686B068780024FF2843D1B5F86D
:10A1600003107F487F4E40F60142891A22D01239EF
:10A1700039D1F7F75BFCB5F80710F288481E90421A
:10A1800031D1AB7AB5F805006A7A0124012B08D1E8
:10A1900000920A35019500230022F8F7C5FE002041
:10A1A0001CE005F10A030193009280230122F8F7D5
:10A1B000BBFE18E0B5F807107288891E914212D1D3
:10A1C000697B0124CA0705D52830F7F72FFC8DF8E5
:10A1D000084005E06C30F7F729FC02208DF80800F4
:10A1E00002A8FBF791FE204606B070BD30B587B0DF
:10A1F0005D485C4C5D4DF8F7A9FB41F60D01ADF8EB
:10A20000181000940823012206A90120F8F79CFCED
:10A21000002807BF21882846014605F13800F7F7D6
:10A2200005FC42F63720ADF81800012204920A20FE
:10A23000A11C039000231022059102930193009228
:10A24000072300F040F8010006BF618805F17000A7
:10A2500005F1B400F7F7EAFB42F63820ADF8180034
:10A2600000220492029201920A20211D03900222F0
:10A27000059100F026F8002807BFA18805F1FC0031
:10A28000014605F59C70F7F7D1FB42F63920ADF891
:10A2900018000022049201920A20A11D03900223BB
:10A2A00008220591029300F00CF8002807BFE1880E
:10A2B00005F5BC70014605F5D870F7F7B7FB07B098
:10A2C00030BD00920123208806AA0121F8F78ABC3C
:10A2D000FEB50246002042F63725521B214C08D01D
:10A2E000521E3CD100910123A1882088F8F7D4FCAC
:10A2F000FEBD487A8DF8040001AA4B7A0888507098
:10A30000DD0704D50888000A9070032300E00223CB
:10A31000487A060706D54888D0545B1C4E88360A12
:10A32000D6545B1C4E7AF00611D50D7A0020091D1B
:10A330000BE031F81060DFB25B1CD655DFB231F8AC
:10A340001060360AD6555B1C401CA842F1DB01A800
:10A350000090DBB2618820880022F8F79DFCFEBDEA
:10A3600038F40008D08C002051A100081CEA000835
:10A370001047704770477047704770477047704785
:10A380007047704770477047704770477047704715
:10A390007047012000F028BE70470000044B0360A6
:10A3A00003F15C0008604FF480711160704700BFDA
:10A3B000C87D0020C0680840884201D10120704754
:10A3C00000207047C0690840884201D101207047D1
:10A3D0000020704710B5794C02212046FFF7F2FFAC
:10A3E00038B16068C043810703D5FDF78AFA0220BF
:10A3F00018E001212046FFF7E5FF38B16068C0434F
:10A40000C10703D5FDF745FA01200BE008212046DE
:10A41000FFF7D8FF38B16068C043010703D5FDF7E7
:10A42000C6FA0820A06010BD10B5644C0221204679
:10A43000FFF7C0FF70B96068C04382030AD500F01F
:10A4400035F841F40031616080F31088BDE81040B8
:10A45000FDF750BA08212046FFF7ACFF88B96068C5
:10A46000C04302030DD500F021F841F400216160E2
:10A4700080F310885249086880474FF40022A26098
:10A4800010BD20212046FFF795FF70B96068C043DA
:10A4900082020AD500F00AF841F40011616080F3ED
:10A4A0001088BDE81040FDF703BA10BDEFF310802F
:10A4B00072B661687047434881B0016841F4801109
:10A4C0000160006800F48010009000983E48016828
:10A4D00041F4007101603D48026842F4007202607C
:10A4E00040BF20BF3A48016841F40041016001B01B
:10A4F000704780B53748016841F4801101600068F9
:10A5000000F48010009000982C48016841F001018F
:10A510000160026842F4803202602C20FDF71AFECE
:10A52000BDE802402D20FDF715BEEFF3108072B696
:10A5300029490A68520852000BE028494FF480303C
:10A5400008607047EFF3108072B623490A6822F062
:10A5500002020A6080F3108870471F484FF40031F0
:10A560004160EFF3108172B6026822F4003202609B
:10A5700081F31088704738B50446104D08212846ED
:10A58000FFF718FF58B10E480460EFF3108072B661
:10A59000696821F40021696080F3108831BDA0470B
:10A5A0004FF40020A86031BDEFF3108072B60A4965
:10A5B0000A6822F00802CCE700000000000C0058F6
:10A5C000DC8C00205001005820080058D4080058A6
:10A5D0000C04005850000058040C0058080C005897
:10A5E000704700000249034A01600261704700BFE2
:10A5F000B7780008DF78000878B5044689B000F025
:10A6000039F81A20FDF7A6FD1D481E4D016841F4DA
:10A610008021016001A9006800F48020009000986A
:10A6200002A8FEF7F8FAFEF7E5FA1749174B29607A
:10A63000B0FBF3F0401E40F2E73268600021EA60B0
:10A640002961A960284600F0D9FC06000FD12846F0
:10A6500000F0E1FC06000AD11A20FDF77BFD102C6A
:10A6600004D200F007F80A48046000E001263046F2
:10A670000AB070BD002221461A20FDF74EBD000031
:10A6800060000058348B00200048014040420F0019
:10A69000F0200020964900E0964981B00A68024304
:10A6A0000A60096808400090009801B0704780B5C2
:10A6B0004FF40020FFF7F0FF00220F216FF00100A0
:10A6C000FDF72BFD002205212E20FDF726FDBDE81C
:10A6D00002402E20FDF73EBD0168874A914200D01E
:10A6E000704780B54FF48010FFF7D6FF0022052198
:10A6F0002C20FDF712FD2C20FDF72CFD002205215A
:10A700002D20FDF70AFDBDE802402D20FDF722BDFA
:10A7100038B59EB0044614216846F7F79BF95021DE
:10A720000AA8F7F797F920687449754D884246D111
:10A7300002200A90002111910AA8FEF72BFB08B114
:10A74000FBF7E8F8286840F00100286029686D4DA3
:10A7500001F00101059105980120FFF79BFF0221FF
:10A760000191002202920C20032100900391082203
:10A77000049269464FF0904000F074FD62482860F2
:10A78000112100F058F808B1FBF7C4F84FF08850D9
:10A79000002106900791ADF820100122099206A928
:10A7A000284600F03FFE08B1FBF7B4F8E567AC625D
:10A7B000002205212520FDF7B0FC252037E0534974
:10A7C000884236D101200A90002110910AA8FEF794
:10A7D000E1FA08B1FBF79EF8686840F480406860D1
:10A7E00068684B4D00F48040059005980220FFF703
:10A7F00051FF0221019101220292C0200321009009
:10A800000391072204926946424800F02BFD42481A
:10A8100028600F2100F00FF808B1FBF77BF8E5671F
:10A82000AC62002205212420FDF777FC2420FDF7EF
:10A8300091FC1FB030BD696000201022E8608021CB
:10A840006861A861E8612862AA602961284600F071
:10A85000E1B910B594B0044650216846F7F7FAF80C
:10A8600022682E498A420FD14FF4007000904FF0B9
:10A8700080510E916846FEF78DFA08B1FBF74AF851
:10A880004FF48020FFF708FF14B010BD18B595B045
:10A890000446502101A8F7F7DDF8226820498A42D2
:10A8A00024D14FF4006001904FF48071119101A800
:10A8B000FEF770FA08B1FBF72DF81A48816B41F4E6
:10A8C000004181630521026842F480620260002237
:10A8D000006800F48060009000980320FDF71DFCE4
:10A8E0000320FDF737FC2046FDF7A6FD16B010BD8E
:10A8F0004C00005850000058000C005800800040E8
:10A900005C000058248A00204400024000380140C6
:10A91000848A0020000400484404024000100058CB
:10A9200000280040580000583E4900E03E4981B0F0
:10A930000A6802430A60096808400090009801B064
:10A940007047F0B585B0FDF717F9FDF717F93748EF
:10A95000016841F480310160002600F0A6FD142159
:10A960006846F7F777F8002500240021304A02EB0B
:10A97000C102907988B11368B3F1904F0BD02D4F7D
:10A98000BB4205D02C4FBB4207D19088044304E062
:10A990009288154301E090880643491C2629E5DB8F
:10A9A000012101910020032231000290039211D075
:10A9B00000960120FFF7B8FF0120FFF7B7FF6946B7
:10A9C0004FF0904000F04EFC002231464FF0904096
:10A9D00000F009FD280010D000950220FFF7A4FF29
:10A9E0000220FFF7A3FF134E6946304600F03AFC01
:10A9F00000222946304600F0F6FC200010D00094DA
:10AA00000420FFF791FF0420FFF790FF0A4D6946ED
:10AA1000284600F027FC00222146284600F0E3FCEF
:10AA200005B0F0BD4C0000584C010058900800588B
:10AA30005CF10008000400480008004800B587B039
:10AA40004FEA0D0009A11C22F8F7B4FAFCF7A3FFA6
:10AA50006846FAF7FBFD07B000BDFAF708BF1346DA
:10AA60000A460146002000F07BB80000000000000C
:10AA700000000000000000005CF100082800032036
:10AA80002C00032026040400284981B00A680243F0
:10AA90000A60096808400090009801B07047000003
:10AAA00030B585B004460D4600F03BF8200008BFE5
:10AAB000042004D0012C18BF022C02D10820FFF77B
:10AAC000E3FF2900DFF868201AA00ED1002130F83A
:10AAD000140001910090012302210293039100F0E0
:10AAE0001BF80120FDF7B2F914E0012D12D130F866
:10AAF000140000904FF404130295019300F00CF839
:10AB00000EA0045D00220F2160B2FDF706FB60B2CB
:10AB1000FDF720FB05B030BD694652F8240000F077
:10AB2000A1BB142100226846FBF766BE4C0000580A
:10AB3000F420002010000100020000000A060700B7
:10AB4000002800D0704710B51B4C00F004F8BDE899
:10AB50001040FEF7DFBA1A4823601A4B03607047B3
:10AB600038B5002488B9154D15482B60154B036086
:10AB7000FEF7E3FA012805D007D3032804D038BF35
:10AB8000022402E0012400E00324204632BD0068D4
:10AB90000C49884204D1084A1068002818BF0047B1
:10ABA000704700680749884204D1044A10680028A9
:10ABB00018BF004770470000E08C0020E48C0020A4
:10ABC000888800200038014001484068704700BF75
:10ABD000E820002010F8012B11F8013B0AB19A423D
:10ABE000F8D0D01A7047000000680549C0F3004251
:10ABF0005201012300F01F0003FA00F08850704753
:10AC000008080058DFF80800006800F4C0607047CA
:10AC10000004005838B5040001D1012032BD21687C
:10AC2000DFF89023914204F1240502D200F055F898
:10AC300005E000F04AF8DFF880032962E8610221AC
:10AC4000697020680268A068E16823686FF30E12DB
:10AC5000024320690A4361690243A0690A43E1692A
:10AC60000243206A0A4302431A60204600F074F946
:10AC7000A068B0F5804F04BF002161602079696A47
:10AC800000F03F0000F014F838B1052805D2204646
:10AC900000F07FF900F012F803E0002028636863F9
:10ACA000A8630021A961012068702970002032BDCD
:10ACB0000860A96AE86A486060687047296B0020EC
:10ACC0000860696BA86B48607047DFF8F0024118B4
:10ACD0001422B1FBF2F189007047DFF8E402411859
:10ACE0001423B1FBF3F18900DFF8D8222962EA616D
:10ACF0007047F8B5044604F1240600253078012891
:10AD000001D10220F2BD012030707778012F2ED1C1
:10AD100002207070AC46C6F818C0206807687F082B
:10AD20007F000760204600F0FBF82168F06820B142
:10AD30000A6842F00E020A6008E0086820F0040089
:10AD400008602068016841F00A010160706A0168CA
:10AD5000CA0303D5016841F480710160306B18B1FA
:10AD6000016841F48071016000F005F801E0357080
:10AD700002252846F2BD2068016841F0010101600A
:10AD8000704740B100F124014A78022A05D004201E
:10AD9000886100220A70012070470268136823F05E
:10ADA0000E0313604A6A136823F48073136000680B
:10ADB0000268520852000260012091F82020CB69FD
:10ADC00002F01C02904058608A6AC86A5060086BA2
:10ADD00038B10246106820F4807010604A6B886BAE
:10ADE00050600120487000220A700020704738B57A
:10ADF00000F1240200245178022903D0042090613C
:10AE0000012429E001680B6823F00E030B60016840
:10AE10000D686D086D000D60516A0B6823F4807336
:10AE20000B60012192F82030D56903F01C03994092
:10AE30006960936AD16A5960116B39B10B46196820
:10AE400021F480711960536B916B5960012151702D
:10AE50001470516901B18847204632BDF8B500F140
:10AE600024010426CA69126803681C6891F82050FE
:10AE700005F01C0506FA05F73A4210D067070ED513
:10AE80001A68940603D41A6822F004021A6000F0CB
:10AE90003EF8C968002939D0BDE8F44008470226C9
:10AEA00006FA05F73A4213D0A70711D51A68940697
:10AEB00005D41A6822F00A021A6001234B7000F0D0
:10AEC00026F800220A70896801B3BDE8F4400847FB
:10AED000082606FA05F52A4218D0220716D51C685E
:10AEE00024F00E041C60012291F82030CC6903F09C
:10AEF0001C039A406260012301228A614B70002288
:10AF00000A70096911B1BDE8F4400847F1BD91F834
:10AF10002020CB6902F01C0296405E607047000062
:10AF200070B5C56C046D6C60446D14B1856DC46DF5
:10AF30006C60012490F84450066C05F01C05AC4090
:10AF40007460046863608068102802D1A260E160C8
:10AF500070BDA160E26070BD10B5416C0268154B18
:10AF600089089A4239BF184C04EB8101174B03EB57
:10AF70008101816402F0FF02083A1421B2FBF1F171
:10AF8000012301F01F01124AC26403FA01F10165B5
:10AF900010BD01790F4A104B836501F03F0102EBB0
:10AFA00081024265491E012201F003018A40C26507
:10AFB000704700000804024000040240F8FBFDBF97
:10AFC000F8FFFDBF00000240000802401C080240DC
:10AFD00080080240FC080240400902407047704768
:10AFE000704770477047704780B5AFF30080024AE2
:10AFF00011001820ABBEFBE72600020038B50400A4
:10B0000001D1012032BD00F047F818B900F040F836
:10B0100000F088FA26E090F83D10012901D00120C7
:10B020007047022180F83D100168CA6842F00102B1
:10B03000CA600168DFF86820914218BFB1F1804F03
:10B0400009D18A68DFF85C101140062918BFB1F5F4
:10B05000803F05D001680A68084642F0010202609C
:10B060000020704702206870211D206800F0C0F8A1
:10B07000012028730121A970E87029716871A971F4
:10B08000E87129726872A972E8726970002032BD95
:10B09000002129702046704704F13C05687870470C
:10B0A000002C01400700010070B504462068C56807
:10B0B0000669B10714D5AA0712D56FF00201016124
:10B0C00001222277806910F0030F204602D000F0A1
:10B0D0002AFA03E000F028FA00F087F80020207731
:10B0E000700715D56A0713D520686FF00401016158
:10B0F00002222277806910F4407F204602D000F0BF
:10B1000012FA03E000F010FA00F06FF80020207748
:10B11000300715D52A0713D520686FF008010161A3
:10B1200004222277C06910F0030F204602D000F0FD
:10B13000FAF903E000F0F8F900F057F80020207762
:10B14000F00615D5EA0613D520686FF010010161ED
:10B1500008222277C06910F4407F204602D000F018
:10B16000E2F903E000F0E0F900F03FF8002020777A
:10B1700006F0010205F001010A4206D021686FF0D5
:10B1800001020A612046FAF7A3FB16F4025F08D019
:10B190002A0606D521686FF402500861204600F0A7
:10B1A000C4F9F00508D52A0606D521686FF4807029
:10B1B0000861204600F0BAF9700608D56A0606D57F
:10B1C00021686FF040000861204600F0B0F9B00639
:10B1D0000AD5AA0608D521686FF02000086120462C
:10B1E000BDE8704000F0A4B970BD204600F0A1B9E0
:10B1F000F0B50368DFF86060DFF86040DFF86050AA
:10B20000B04218BFB0F1804F01BF23F070024B680D
:10B210001343B04205D0B0F1804F1CBFA842A042FA
:10B2200003D123F44072CB6813434A698F68C76225
:10B2300023F0800313430A688262B0421CBFA84215
:10B24000A04201D1096901630121026842F00402B0
:10B25000026041610360F0BD002C014000480140E4
:10B26000004401402DE9F04F0024DFF89881664E3C
:10B270004FF00F0902460B4631E0644FBA4214BF4B
:10B280004FF0070E4FF0040E0EFA01F141EA050EE1
:10B290005F4941F82CE0C74331685D683940ED02F1
:10B2A00048BF0143316071685D683940AD0248BFF5
:10B2B00001437160D8F800105D683940ED0348BF64
:10B2C0000143C8F80010D8F8041007EA010C5968C7
:10B2D000890348BF40EA0C0CC8F804C0641C186815
:10B2E00030FA04F100F07D800121A1400840F5D042
:10B2F0004FEA440C032505FA0CF56FEA050E5D686C
:10B3000005F00307012F1CBF05F00305022D10D126
:10B310009568DF680EEA050507FA0CF73D4395606E
:10B32000556825EA01015D68C5F30015A54029436C
:10B330005160A1001D7905F00305032D1ED0D568CD
:10B340009F680EEA050507FA0CF73D43D5601D79A5
:10B3500005F00305022D11D1E50802EB850501F08A
:10B360001C07D5F820B009FA07FA2BEA0A0BD3F824
:10B3700010A00AFA07F747EA0B072F6215680EEAD2
:10B3800005071D7905F0030505FA0CF545EA070CDC
:10B39000C2F800C05D6815F4403F9FD01C4D4FEAD5
:10B3A000940C55F82C5001F00C0109FA01F7BD433B
:10B3B000B2F1904F08BF4FF0000E11D0154FBA42B6
:10B3C00008BF4FF0010E0BD0134FBA4208BF4FF029
:10B3D000020E05D0114FBA427FF44FAF4FF0030E6B
:10B3E00052E7BDE8F08F0AB1816170478162704712
:10B3F0000B4A136801460B421CBF1160FCF74DBDA0
:10B4000070470000800800580008005800100048ED
:10B41000080001400004004800080048000C0048F3
:10B420000C08005870B500F12403587801281CD18D
:10B430001A78012A01D1022070BD5C6A1870256853
:10B440000B480A68CE6805401543761E48680A7A9C
:10B4500045EAC6450543487A45EA024545EA40259E
:10B46000256000211970002070BD012070BD000012
:10B47000FFFD00E038B5EFF3108472B6274D694642
:10B48000281D00F073F96946281D00F0CAF938B18B
:10B4900084F31088BDF80010214AFFF7E0FA31BDAF
:10B4A0000120287084F3108831BD80B5FFF7D5FAEC
:10B4B000022100910023194800F124014FF4805229
:10B4C000001D00F037F801BD00BFF8B51446002597
:10B4D000EFF3108610F1010F1ED001281CBF0228C7
:10B4E0004FF0FF3518D1BCB1254672B60B4F012382
:10B4F00092B2381D00F033F800281CBF39780029BB
:10B5000008D000223A7086F31088A1B2044AFFF7EF
:10B51000A6FA01E086F310882846F2BD0810002044
:10B5200075B40008704770477047704770477047A0
:10B530007047704730B5039C016000250021C16051
:10B5400041610561A107856142600381047704D5EB
:10B55000008910B14FF0FF3030BD002030BD2DE923
:10B56000F84F054684B0288900260C46B046B446FC
:10B5700000280CBF022700276969A9B190B9286982
:10B58000D5F804E0461C764528BFA6EB0E06D5F894
:10B5900000E01EF800001EF8066000EB0626B61C50
:10B5A000B6B203E0064600E000B102462869D5F8CD
:10B5B0000CE0704523BFD5F80490A9EB0000801B78
:10B5C000002007EB020E03FB0EF9814532BF00207D
:10B5D000B0FBFEFA0EFB1A00C0B2874209DA95F8FA
:10B5E0001CE05FEACE7A48BF84465FEA8E7048BFAF
:10B5F000BC46100000F0B680686849446144884247
:10B60000C0F0B080C14692460294ADF8002003938A
:10B6100057E082073DD52889002840F0A3802A689A
:10B620001A44260A02F8024C2246D5F800809844B3
:10B6300008F8016CA04628681844F7F7BBFC696954
:10B64000A86961186961401C019CA86118E09CB35D
:10B65000287FC207DDD5288948B928681844FF210A
:10B6600000F8021CFF222968194401F8012C4FF050
:10B670000008686924186C6154462889002340B981
:10B680002A681470200A2968487002236869801C9F
:10B6900068613E190020B6B228616CB1C3440298BB
:10B6A000D5F800C000EB0B0122460CEB0300F7F7C6
:10B6B00081FC686924186C6109F10109A869401CC2
:10B6C000A861039A68682969914543D2711881423B
:10B6D0002CBF081A0846286103462889A8B929689A
:10B6E000BDF80000C8545B1C6868834228BF1B1A61
:10B6F000BDF800002968000AC8545B1C68688342D2
:10B7000028BF1B1A6869801C68616C68BDF800104E
:10B71000E41A8C4288BF0C4602980AFB09FB00EB36
:10B720000B01AAEB04005445019003D08FD2287F6F
:10B7300000288CD12E682246F018F7F73BFC686988
:10B7400020186861A046BDF80060019CBE19002366
:10B75000B6B2A2E77A1882422CBF171A7F1828685F
:10B76000C01900E0002005B0BDE8F08FF0B502463A
:10B770000023108900280CBF0225002554690026EB
:10B78000002C4DD058B9D36857685E1CBE4228BF04
:10B79000F61B1768FB5CBE5D03EB062600E0064661
:10B7A000137F03F00303012B22D14FF6FF739E4258
:10B7B00008BF002808D0D36817699F4218D2B8B1D3
:10B7C0005768FB1A834213D25668D368A41B1C190E
:10B7D00054610024D46050B9012E94BFC6F1010613
:10B7E000012610680378805D03EB002600E0064622
:10B7F000D2F80CC0576805EB0C00B84228BFC01B3C
:10B80000136803445069AC19001B05D0B444654467
:10B81000BD4228BFED1BD56050619069401E90610C
:10B8200046E0F0B502460023108900280CBF02252F
:10B83000002554690026002C3AD0D3681C4658B91C
:10B8400057685E1CBE4228BFF61B176817F803C076
:10B85000BE5D0CEB062600E00646177F07F00307E7
:10B86000012F1DD14FF6FF77BE4208BF002807D138
:10B8700050680024012894BFC0F1010001200AE0B3
:10B8800017699F420CD258B15768FB1A834207D2FE
:10B890000024064604E013681E78185C06EB0026B8
:10B8A00050682B1983422CBF1D1A2D19106843199B
:10B8B00001B10E801846F0BD0D0A2A2A2A2A2A2A2A
:10B8C0002A2A2A2A2A2A2A2A2A20417070204174E8
:10B8D0007472696275746520496E666F726D617409
:10B8E000696F6E205265636569766564202A2A2A2D
:10B8F0002A2A2A2A2A2A2A2A2A2A2A2A2A2A2A2AA8
:10B900002A2A2A0D0A0000000D0A2A2A2A2A2A2A8F
:10B910002A2A2A2A2A2A2A2A2A20446174612053A0
:10B920006F757263652044657461696C20496E6649
:10B930006F726D6174696F6E2052656365697665BB
:10B9400064202A2A2A2A2A2A2A2A2A2A2A2A2A2A27
:10B950002A2A2A2A2A2A2A2A0D0A00006375742014
:10B960007468652041747472696275746549442015
:10B97000782056616C7565206C656E3D2564203CB1
:10B980003D2073697A656F6628616E63735F636FCC
:10B990006E746578742E6C697374293D2564200A71
:10B9A0000D00000020332E32204765742041505096
:10B9B00020417474726962757465732028446574DB
:10B9C00061696C20496E666F726D6174696F6E207B
:10B9D00061626F757420746865204170702C204E10
:10B9E0006F77206F6E6C7920737570706F72742032
:10B9F000746F20476574204E616D65206F6620412D
:10BA0000707029203D3E20414E43535F4745545FAF
:10BA10004150505F415454524942555445200A0DFB
:10BA20000000000020332E3220506572666F726D68
:10BA3000204E6F74696669636174696F6E2041633B
:10BA400074696F6E203D3E20414E43535F50455216
:10BA5000464F524D5F4E4F54494649434154494F1A
:10BA60004E5F414354494F4E200A0D00204E6F2037
:10BA70004170704964656E7469666965722026203C
:10BA8000506F736974697665416374696F6E4C6158
:10BA900062656C202620204E656761746976654179
:10BAA0006374696F6E4C6162656C203D3D3E202081
:10BAB000414E43535F49444C45200A0D00000000AD
:10BAC00020332E3420506572666F726D204E6F7475
:10BAD000696669636174696F6E20416374696F6E32
:10BAE000203D3E20414E43535F504552464F524DFC
:10BAF0005F4E4F54494649434154494F4E5F41437D
:10BB000054494F4E200A0D00436F6D6D616E6449BC
:10BB100044476574417070417474726962757465EC
:10BB200073206E6F74696679456E7472793D256411
:10BB30002052656D6F7665640A0D00002A2A2A2A54
:10BB40002A2A2A2A2A2A2A2A2A2A2A204E6F74696D
:10BB50006669636174696F6E20536F7572636520E7
:10BB6000426173696320496E666F726D6174696FBB
:10BB70006E205265636569766564202A2A2A2A2A1E
:10BB80002A2A2A2A2A2A2A2A2A2A2A2A2A2A2A2A15
:10BB90002A0D0A004143495F4154545F46494E44CF
:10BBA0005F42595F545950455F56414C55455F526D
:10BBB0004553505F56534556545F434F4445202DDF
:10BBC00020436F6E6E656374696F6E5F48616E646B
:10BBD0006C653D3078253034582C4E756D5F6F663E
:10BBE0005F48616E646C655F506169723D25640AEF
:10BBF0000D0000004143495F4154545F46494E44A3
:10BC00005F42595F545950455F56414C55455F520C
:10BC10004553505F56534556545F434F4445202D7E
:10BC2000204E756D506169723D256420466F756EBA
:10BC3000645F4174747269627574655F48616E64B3
:10BC40006C653D3078253034582C47726F75705FC5
:10BC5000456E645F48616E646C653D3078253034B4
:10BC6000580A0D004143495F4154545F46494E44D0
:10BC70005F42595F545950455F56414C55455F529C
:10BC80004553505F56534556545F434F4445202D0E
:10BC900020466F756E6420414E435353657276693A
:10BCA0006365537461727448616E646C653D30788D
:10BCB000253034582C414E43535365727669636581
:10BCC000456E6448616E646C653D3078253034584B
:10BCD0000A0D00004143495F4154545F52454144BD
:10BCE0005F42595F47524F55505F545950455F521C
:10BCF0004553505F56534556545F434F4445202D9E
:10BD000020436F6E6E656374696F6E5F48616E6429
:10BD10006C653D3078253034582C417474726962FA
:10BD20007574655F446174615F4C656E6774683DEE
:10BD300025642C446174615F4C656E6774683D25B1
:10BD40006420210A000000006E756D536572763D17
:10BD500025642F25642C73686F72742055554944EF
:10BD60003D307825303458205365727669636548D4
:10BD7000616E646C65205B307825303458202D204E
:10BD80003078253034585D200A0D00004741505F5F
:10BD9000534552564943455F555549443D307825F2
:10BDA00030345820666F756E64205B25303458201F
:10BDB000253034585D210A0047454E455249435FBE
:10BDC0004154545249425554455F53455256494394
:10BDD000455F555549443D30782530345820666FCD
:10BDE000756E64205B2530345820253034585D2131
:10BDF0000A000000414D535F534552564943455F89
:10BE0000555549443D30782530345820666F756E5D
:10BE100064205B2530345820253034585D210A00D9
:10BE20004C494E4B5F4C4F53535F53455256494319
:10BE3000455F555549443D30782530345820666F6C
:10BE4000756E64205B2530345820253034585D21D0
:10BE50000A00000054585F504F5745525F534552F7
:10BE6000564943455F555549443D3078253034584F
:10BE700020666F756E64205B253034582025303481
:10BE8000585D210A0000000043555252454E545F50
:10BE900054494D455F534552564943455F555549B1
:10BEA000443D30782530345820666F756E64205BD1
:10BEB0002530345820253034585D210A0000000018
:10BEC0005245464552454E43455F555044415445C1
:10BED0005F54494D455F534552564943455F55555B
:10BEE00049443D30782530345820666F756E6420A3
:10BEF0005B2530345820253034585D210A0000007D
:10BF00004E4558545F4453545F4348414E47455F44
:10BF1000534552564943455F555549443D30782570
:10BF200030345820666F756E64205B25303458209D
:10BF3000253034585D210A00474C55434F53455F27
:10BF4000534552564943455F555549443D30782540
:10BF500030345820666F756E64205B25303458206D
:10BF6000253034585D210A004845414C54485F54FF
:10BF70004845524D4F4D455445525F5345525649E1
:10BF800043455F555549443D307825303458206647
:10BF90006F756E64205B2530345820253034585D31
:10BFA000210A00004445564943455F494E464F52D9
:10BFB0004D4154494F4E5F534552564943455F5595
:10BFC0005549443D30782530345820666F756E648D
:10BFD000205B2530345820253034585D210A00007C
:10BFE000556E6B6E6F776E20555549443D30782500
:10BFF00030345820666F756E64205B2530345820CD
:10C00000253034585D210A0050484F4E455F414C61
:10C010004552545F534552564943455F555549442F
:10C020003D30782530345820666F756E64205B256E
:10C0300030345820253034585D210A004241545490
:10C040004552595F534552564943455F55554944FA
:10C050003D30782530345820666F756E64205B253E
:10C0600030345820253034585D210A00414E435366
:10C070005F534552564943455F555549443D3078D5
:10C080002530345820666F756E64205B2530345837
:10C0900020253034585D210A00000000696E766169
:10C0A0006C696420555549443D307825303458201A
:10C0B000666F756E64205B25303458202530345807
:10C0C0005D210A004143495F4154545F5245414458
:10C0D0005F42595F47524F55505F545950455F5228
:10C0E0004553505F56534556545F434F44452C20AB
:10C0F0006661696C6564206E6F2066726565206993
:10C100006E64657820696E20636F6E6E6563746916
:10C110006F6E207461626C6520210A0D00000000C2
:10C120004143495F4154545F524541445F42595F26
:10C13000545950455F524553505F56534556545FCE
:10C14000434F4445202D20436F6E6E656374696FC5
:10C150006E5F48616E646C653D307825782C48616F
:10C160006E646C655F56616C75655F506169725F86
:10C170004C656E6774683D25642C446174615F4C46
:10C18000656E6774683D25640A0D00002D2D2047FB
:10C19000415454203A206E756D48646C6556616C4C
:10C1A0007565506169723D25642C73686F727420E7
:10C1B000555549443D30782530345820464F554E2A
:10C1C00044204368617250726F7065727469657360
:10C1D0003D307825303458204368617248616E6480
:10C1E0006C65205B307825303458202D2030782540
:10C1F0003034585D0A0000004741502044455649FC
:10C2000043455F4E414D455F555549443D30782586
:10C2100030345820666F756E64205B2530345820AA
:10C22000253034585D210A00474150204150504587
:10C230004152414E43455F555549443D3078253084
:10C24000345820666F756E64205B25303458202585
:10C250003034585D210A0000474150205045524972
:10C2600050484552414C5F505249564143595F46F0
:10C270004C41475F555549443D307825303458206E
:10C28000666F756E64205B25303458202530345835
:10C290005D210A00474154542053455256494345B5
:10C2A0005F4348414E4745445F43484152414354F0
:10C2B000455249535449435F555549443D307825CB
:10C2C00030345820666F756E64205B2530345820FA
:10C2D000253034585D210A00424154544552595F7B
:10C2E0004C4556454C5F434841525F555549443D86
:10C2F00030782530345820666F756E64205B2530A9
:10C30000345820253034585D210A000043555252DC
:10C31000454E545F54494D455F434841525F555522
:10C3200049443D30782530345820666F756E64205E
:10C330005B2530345820253034585D210A00000038
:10C340004C4F43414C5F54494D455F494E464F5217
:10C350004D4154494F4E5F434841525F5555494402
:10C360003D30782530345820666F756E64205B252B
:10C3700030345820253034585D210A0044657669F0
:10C380006365496E666F726D6174696F6E53657235
:10C3900076696365204D414E55464143545552459B
:10C3A000525F4E414D455F555549443D30782530EB
:10C3B000345820666F756E64205B25303458202514
:10C3C0003034585D210A0000446576696365496E22
:10C3D000666F726D6174696F6E53657276696365BD
:10C3E000204D4F44454C5F4E554D4245525F55558B
:10C3F00049443D30782530345820666F756E64208E
:10C400005B2530345820253034585D210A00000067
:10C41000414E43535F4E4F54494649434154494F5F
:10C420004E5F534F555243455F434841525F555508
:10C4300049443D30782530345820666F756E64204D
:10C440005B2530345820253034585D210A00000027
:10C45000414E43535F434F4E54524F4C5F504F49F0
:10C460004E545F434841525F555549443D3078250D
:10C4700030345820666F756E64205B253034582048
:10C48000253034585D210A00414E43535F444154E6
:10C49000415F534F555243455F434841525F5555A5
:10C4A00049443D30782530345820666F756E6420DD
:10C4B0005B2530345820253034585D210A000000B7
:10C4C00043454E5452414C5F414444524553535F9F
:10C4D0005245534F4C5554494F4E5F555549443D75
:10C4E00030782530345820666F756E64205B2530B7
:10C4F000345820253034585D210A0000556E6B6E8B
:10C500006F776E5F6368617220555549443D30789E
:10C510002530345820666F756E64205B25303458A2
:10C5200020253034585D210A000000004143495F56
:10C530004154545F524541445F42595F54595045FC
:10C540005F524553505F56534556545F434F4445E1
:10C550002C206661696C65642068616E646C65207E
:10C560006E6F7420666F756E6420696E20636F6EE7
:10C570006E656374696F6E207461626C6520210A58
:10C580000D0000004143495F4154545F46494E4409
:10C590005F494E464F5F524553505F565345565480
:10C5A0005F434F4445202D20436F6E6E6563746971
:10C5B0006F6E5F48616E646C653D307825782C46FF
:10C5C0006F726D61743D25642C4576656E745F44B1
:10C5D0006174615F4C656E6774683D25640A0D0087
:10C5E0005052494D4152595F534552564943455F58
:10C5F000555549443D3078253034582068616E6483
:10C600006C653D3078253034580A0D0072657365CD
:10C61000742043484152414354455249535449437D
:10C620005F555549443D3078253034582043686182
:10C6300072537461727448616E646C653D30782524
:10C640003034580A0D000000757569643D30782556
:10C650003034582068616E646C653D307825303424
:10C66000582D3078253034582D3078253034580AFC
:10C670000D0A0D0020756E6B6F776E5F63686172D7
:10C680005F6465736320555549443D3078253034E7
:10C69000582068616E646C653D3078253034582DC3
:10C6A0003078253034582D307825303458200A0D14
:10C6B00000000000474150204445564943455F4E25
:10C6C000414D455F555549443D307825303458201B
:10C6D000666F756E64205B253034585D210A00005A
:10C6E00047415020415050454152414E43455F55CE
:10C6F0005549443D30782530345820666F756E6456
:10C70000205B253034585D210A000000474150204D
:10C710005045524950484552414C5F50524956414C
:10C7200043595F464C41475F555549443D30782554
:10C7300030345820666F756E64205B253034585D48
:10C74000210A000020534552564943455F43484162
:10C750004E4745445F434841524143544552495333
:10C760005449435F555549443D307825303458206D
:10C770004368617256616C756548616E646C6520D2
:10C780005B253034585D0A00424154544552595F8C
:10C790004C4556454C5F434841525F555549443DD1
:10C7A00030782530345820666F756E64205B2530F4
:10C7B00034585D210A00000043555252454E545FE3
:10C7C00054494D455F434841525F555549443D30BA
:10C7D000782530345820666F756E64205B253034C0
:10C7E000585D210A000000004C4F43414C5F544902
:10C7F0004D455F494E464F524D4154494F4E5F4360
:10C800004841525F555549443D30782530345820D1
:10C81000666F756E64205B253034585D210A000018
:10C82000446576696365496E666F726D6174696FA0
:10C830006E53657276696365204D414E554641439E
:10C8400054555245525F4E414D455F555549443D03
:10C8500030782530345820666F756E64205B253043
:10C8600034585D210A000000446576696365496EAD
:10C87000666F726D6174696F6E5365727669636518
:10C88000204D4F44454C5F4E554D4245525F5555E6
:10C8900049443D30782530345820666F756E6420E9
:10C8A0005B253034585D210A0000000020414E43D2
:10C8B000535F4E4F54494649434154494F4E5F538D
:10C8C0004F555243455F434841525F555549443D9A
:10C8D000307825303458204368617256616C756534
:10C8E00048616E646C65205B253034585D210A0018
:10C8F0002020414E43535F434F4E54524F4C5F50A4
:10C900004F494E545F434841525F555549443D306D
:10C910007825303458204368617256616C756548DB
:10C92000616E646C65205B253034585D210A00001F
:10C9300020414E43535F444154415F534F5552434E
:10C94000455F434841525F555549443D3078253055
:10C950003458204368617256616C756548616E6435
:10C960006C65205B253034585D210A00202043454A
:10C970004E5452414C5F414444524553535F5245DB
:10C98000534F4C5554494F4E5F555549443D3078AF
:10C9900025303458204368617256616C7565486172
:10C9A0006E646C65205B253034585D210A00000000
:10C9B00020696E76616C69642063686172207661BB
:10C9C0006C756520555549443D30782530345820E4
:10C9D0004368617256616C756548616E646C652070
:10C9E0005B253034585D210A000000004143495F57
:10C9F0004154545F46494E445F494E464F5F52454D
:10CA000053505F56534556545F434F44452C206660
:10CA100061696C65642068616E646C65206E6F741A
:10CA200020666F756E6420696E20636F6E6E65633D
:10CA300074696F6E207461626C6520210A0D0000BC
:10CA40004143495F474154545F4E4F54494649431F
:10CA50004154494F4E5F56534556545F434F4445EA
:10CA6000202D20436F6E6E656374696F6E5F486141
:10CA70006E646C653D307825782C417474726962FF
:10CA80007574655F48616E646C653D30782530343F
:10CA9000582C4174747269627574655F56616C7567
:10CAA000655F4C656E6774683D25640A0D00000083
:10CAB000312E20496E636F6D696E67204E6F666917
:10CAC0006669636174696F6E207265636569766516
:10CAD0006420424153494320696E666F726D6174F0
:10CAE000696F6E203A200A0D00000000332E3120BD
:10CAF00050617273652044657461696C20496E668B
:10CB00006F726D6174696F6E206F66204E6F74690D
:10CB10006669636174696F6E2041747472696275CD
:10CB200074652C20436F6D6D616E64494447657474
:10CB30004E6F74696669636174696F6E4174747273
:10CB400069627574657320526573706F6E73653AB0
:10CB5000200A0D00332E3320506172736520446526
:10CB60007461696C20496E666F726D6174696F6E75
:10CB7000206F662041505020417474726962757450
:10CB8000652C20436F6D6D616E6449444765744147
:10CB90007070417474726962757465732052657344
:10CBA000706F6E73653A200A0D0000004143495FC3
:10CBB000474154545F4E4F54494649434154494FAD
:10CBC0004E5F56534556545F434F44452C20666193
:10CBD000696C65642068616E646C65206E6F74209A
:10CBE000666F756E6420696E20636F6E6E65637428
:10CBF000696F6E207461626C6520210A0D0000006F
:10CC0000204143495F4154545F524541445F42597A
:10CC10005F47524F55505F545950455F52455350EE
:10CC20005F56534556545F434F44450A0000000089
:10CC3000204143495F4154545F524541445F42594A
:10CC40005F545950455F524553505F5653455654B3
:10CC50005F434F44450A0000204143495F4154541B
:10CC60005F46494E445F494E464F5F524553505FC1
:10CC700056534556545F434F44450A0020414349AB
:10CC80005F474154545F444953435F524541445FB9
:10CC9000434841525F42595F555549445F5245539D
:10CCA000505F56534556545F434F44450A000000B9
:10CCB000204143495F4154545F46494E445F4259C5
:10CCC0005F545950455F56414C55455F524553504E
:10CCD0005F56534556545F434F44450A00000000D9
:10CCE0004143495F474154545F415454524942556E
:10CCF00054455F4D4F4449464945445F5653455658
:10CD0000545F434F444520417474725F48616E64C0
:10CD10006C653D307825303458204F6666736574F5
:10CD20003D30782530345820417474725F4461740A
:10CD3000615F4C656E6774683D30782530345820EB
:10CD40000A0D00004143495F4154545F4558434830
:10CD5000414E47455F4D54555F524553505F5653C2
:10CD60004556545F434F444520436F6E6E65637470
:10CD7000696F6E5F48616E646C653D307825303454
:10CD800058205365727665725F52585F4D54552036
:10CD90003D202564203D3D3E20414E43535F4D5490
:10CDA000555F45584348414E47455F434F4D504CB2
:10CDB000455445200A0000004143495F474154540F
:10CDC0005F50524F435F434F4D504C4554455F5663
:10CDD000534556545F434F4445202D20436F6E6E9C
:10CDE000656374696F6E5F48616E646C653D307831
:10CDF000253034782C4572726F725F436F64653DE5
:10CE00003078253032582028307834313A20466145
:10CE1000696C6564290A0D004143495F47415454D8
:10CE20005F50524F435F434F4D504C4554455F5602
:10CE3000534556545F434F44452C206661696C65E9
:10CE4000642068616E646C65206E6F7420666F7517
:10CE50006E6420696E20636F6E6E656374696F6EB9
:10CE6000207461626C6520210A0D00004143495F16
:10CE7000474154545F4552524F525F524553505FA1
:10CE800056534556545F434F444520436F6E6E657D
:10CE90006374696F6E5F48616E646C653D307825C0
:10CEA000303458205265715F4F70636F64653D3058
:10CEB0007825303258204174747269627574655FE8
:10CEC00048616E646C653D30782530345820457279
:10CED000726F725F436F64653D3078253032582041
:10CEE00028307830353A20496E7375666669636913
:10CEF000656E742061757468656E746963617469C8
:10CF00006F6E2C307830413A2041747472696275CA
:10CF10007465206E6F7420666F756E64290A000058
:10CF2000414E43535F5345545F444154415F4C4528
:10CF30004E475448207365742064617461206C65A9
:10CF40006E677468202564202564206F6B203D3D4A
:10CF50003E6163695F676174745F65786368616E81
:10CF600067655F636F6E666967200A006163695F6A
:10CF7000676174745F65786368616E67655F636F2E
:10CF80006E66696720636D64206F6B200A0D000078
:10CF90006163695F676174745F65786368616E6718
:10CFA000655F636F6E66696720636D64204B4F2019
:10CFB000726573756C743D307825303278200A0DB7
:10CFC00000000000474154545F50524F435F4449B2
:10CFD00053435F414E43535F5345525649434520A7
:10CFE0006163695F676174745F646973635F7072C2
:10CFF000696D6172795F736572766963655F627985
:10D000005F7575696420636D64206F6B0A000000B2
:10D01000474154545F50524F435F444953435F412B
:10D020004E43535F53455256494345206163695F00
:10D03000676174745F646973635F7072696D617254
:10D04000795F736572766963655F62795F7575692B
:10D050006420636D64204E4F4B207374617475734C
:10D06000203D307825303258200A00004741545482
:10D070005F50524F435F444953435F414E43535FB8
:10D080005345525649434520414E43532053657200
:10D0900076696365206973204E4F5420666F756E04
:10D0A0006420212121203D3D3E20636F6E6E65632B
:10D0B00074656420746F20416E64726F69642050DF
:10D0C000686F6E652F506164200A0D00474154540B
:10D0D0005F50524F435F444953435F414E43535F58
:10D0E0005345525649434520414E435320536572A0
:10D0F00076696365205B307825303458202D2030E8
:10D1000078253034585D20697320666F756E642011
:10D11000212121203D3D3E20636F6E6E6563746565
:10D120006420746F20694F532050686F6E652F50D4
:10D130006164200A0D000000474154545F50524F73
:10D14000435F444953435F414C4C5F5052494D410A
:10D1500052595F534552564943455320414C4C2048
:10D16000736572766963657320646973636F76654E
:10D17000726564205375636365737366756C6C794F
:10D18000200A0000474154545F50524F435F4449C6
:10D1900053435F414C4C5F5052494D4152595F538C
:10D1A00045525649434553206163695F6761747412
:10D1B0005F646973635F616C6C5F7072696D6172EB
:10D1C000795F736572766963657320636D64204E61
:10D1D0004F4B20737461747573203D307825303265
:10D1E00058200A00474154545F50524F435F44490E
:10D1F00053435F414C4C5F5052494D4152595F532C
:10D200004552564943455320414E4353205365727E
:10D2100076696365206973204E4F5420666F756E82
:10D220006420212121200A0D0000000047415454B0
:10D230005F50524F435F444953435F414C4C5F50F2
:10D2400052494D4152595F53455256494345532027
:10D25000414E43532053657276696365205B307895
:10D2600025303458202D203078253034585D206901
:10D270007320666F756E6420212121200A0D000045
:10D28000474154545F50524F435F444953435F41B9
:10D290004C4C5F5052494D4152595F53455256498B
:10D2A0004345532047415454205365727669636562
:10D2B000205B307825303458202D203078253034CC
:10D2C000585D20697320666F756E642021212120CE
:10D2D0000A0D0000414E43535F444953434F5645A6
:10D2E000525F414C4C5F434841525320636F6E6E16
:10D2F000656374696F6E5F68616E646C653D3078FC
:10D300002530345820414C4C53657276696365482A
:10D31000616E646C655B25303458202D20253034D7
:10D32000585D20414E435353657276696365486189
:10D330006E646C655B25303458202D2025303458C0
:10D340005D0A0000414C4C20636861726163746542
:10D350007269737469637320646973636F7665724D
:10D360006564205375636365737366756C6C7920AF
:10D370000A0D0000414C4C20636861726163746562
:10D380007269737469637320646973636F7665721D
:10D3900079204661696C6564200A0D004741545448
:10D3A0005F50524F435F444953435F414C4C5F438E
:10D3B0004841525320414E43534E6F74696669632E
:10D3C0006174696F6E536F75726365436861725300
:10D3D0007461727448646C653D307825303458202F
:10D3E00020414E43534E6F74696669636174696F7F
:10D3F0006E536F757263654368617256616C7565D3
:10D4000048646C653D307825303458200A0D0000A2
:10D41000474154545F50524F435F444953435F4127
:10D420004C4C5F434841525320414E435344617436
:10D4300061536F757263654368617253746172748E
:10D4400048646C653D3078253034582020414E4387
:10D450005344617461536F757263654368617256BA
:10D46000616C756548646C653D30782530345820B2
:10D470000A0D0000474154545F50524F435F4449E6
:10D4800053435F414C4C5F434841525320414E430C
:10D4900053436F6E74726F6C506F696E7443686142
:10D4A00072537461727448646C653D307825303411
:10D4B000582020414E4353436F6E74726F6C506F0F
:10D4C000696E744368617256616C756548646C6519
:10D4D0003D307825303458200A0D0000474154541F
:10D4E0005F50524F435F444953435F414C4C5F434D
:10D4F0004841525320536572766963654368616E93
:10D5000067656443686172537461727448646C65E2
:10D510003D30782530345820205365727669636534
:10D520004368616E6765644368617256616C7565D6
:10D5300048646C653D307825303458200A0D000071
:10D54000414E43535F444953434F5645525F414C0C
:10D550004C5F434841525F4445534353205B253061
:10D560003458202D20253034585D0A00416C6C2041
:10D57000636861726163746572697374696320645E
:10D58000657363726970746F727320646973636F1B
:10D590007665726564205375636365737366756C35
:10D5A0006C79200A0D000000416C6C206368617288
:10D5B000616374657269737469632064657363720F
:10D5C0006970746F727320646973636F76657279C2
:10D5D000204661696C6564200A0D0000474154547F
:10D5E0005F50524F435F444953435F414C4C5F444B
:10D5F0004553435320414E43534E6F7469666963EC
:10D600006174696F6E536F757263654368617244CC
:10D6100065736348646C653D307825303458200A62
:10D620000D000000474154545F50524F435F44493E
:10D6300053435F414C4C5F444553435320414E4359
:10D6400053436F6E74726F6C506F696E7443686190
:10D65000724465736348646C653D30782530345896
:10D66000200A0D00474154545F50524F435F4449D4
:10D6700053435F414C4C5F444553435320414E4319
:10D680005344617461536F7572636543686172449A
:10D6900065736348646C653D307825303458200AE2
:10D6A0000D000000474154545F50524F435F4449BE
:10D6B00053435F414C4C5F44455343532053657281
:10D6C000766963654368616E676564436861724447
:10D6D00065736348646C653D307825303458200AA2
:10D6E0000D000000536572766963654368616E677B
:10D6F0006564436861724465736348646C653D307A
:10D700007825303458206E6F746966696361746976
:10D710006F6E20656E61626C65642053756363652E
:10D72000737366756C6C79200A0D00005365727610
:10D730006963654368616E676564436861724465E7
:10D74000736348646C653D307825303458206E6FC3
:10D7500074696669636174696F6E20656E61626C7D
:10D760006564204661696C6564204843495F434FA6
:10D770004D4D414E445F444953414C4C4F574544F5
:10D780005F4552525F434F44453D307825303278F3
:10D7900020726573756C743D3078253032580A00FC
:10D7A000414E43535F454E41424C455F4E4F5449B5
:10D7B0004649434154494F4E5F444154415F534FA2
:10D7C000555243455F444553432030782530345803
:10D7D00020307825303458200A000000414E435351
:10D7E00044617461536F7572636543686172446527
:10D7F000736348646C65206E6F74696669636174F5
:10D80000696F6E20656E61626C6564205375636339
:10D8100065737366756C6C79200A0D00414E435335
:10D8200044617461536F75726365436861724465E6
:10D83000736348646C653D307825303458206E6FD2
:10D8400074696669636174696F6E20656E61626C8C
:10D850006564204661696C6564204843495F434FB5
:10D860004D4D414E445F444953414C4C4F57454404
:10D870005F4552525F434F44453D30782530327802
:10D8800020726573756C743D3078253032580A000B
:10D89000414E43535F454E41424C455F4E4F5449C4
:10D8A0004649434154494F4E5F4E4F5449464943C0
:10D8B0004154494F4E5F534F555243455F44455382
:10D8C00043203078253034582030782530345820A3
:10D8D0000A000000414E43534E6F746966696361EC
:10D8E00074696F6E536F75726365436861724465E6
:10D8F000736348646C65206E6F74696669636174F4
:10D90000696F6E20656E61626C6564205375636338
:10D9100065737366756C6C79200A0D00414E435334
:10D920004E6F74696669636174696F6E536F757267
:10D930006365436861724465736348646C65206E17
:10D940006F74696669636174696F6E20656E616288
:10D950006C6564204661696C656420726573756CE2
:10D96000743D3078253032580A0000000000000075
:10D9700000000000000000000000000000000000A7
:10D9800044000800400502011C3CFB00F4010000BB
:10D99000FFFFFFFF480101000020D80600037206C8
:10D9A000000000000D00040020204661696C20206A
:10D9B000203A20534843495F43325F424C455F4918
:10D9C0006E697420636F6D6D616E642C2072657377
:10D9D000756C743A203078253032780A0D000000DA
:10D9E0002020537563636573733A20534843495F3E
:10D9F00043325F424C455F496E697420636F6D6DC1
:10DA0000616E640A0D0000003D3D3E3E205374618E
:10DA1000727420426C655F4863695F4761705F475D
:10DA20006174745F496E69742066756E6374696FA2
:10DA30006E0A000020204661696C2020203A206890
:10DA400063695F726573657420636F6D6D616E6489
:10DA50002C20726573756C743A2030782578200A12
:10DA60000000000020204661696C2020203A2061DF
:10DA700063695F68616C5F77726974655F636F6E1D
:10DA80006669675F6461746120636F6D6D616E6468
:10DA9000202D20434F4E4649475F444154415F503B
:10DAA00055424C49435F414444524553535F4F46AE
:10DAB000465345542C20726573756C743A20307847
:10DAC0002578200A000000002020537563636573E9
:10DAD000733A206163695F68616C5F77726974652E
:10DAE0005F636F6E6669675F6461746120636F6D09
:10DAF0006D616E64202D20434F4E4649475F44417F
:10DB000054415F5055424C49435F41444452455350
:10DB1000535F4F46465345540A000000202050757D
:10DB2000626C696320426C7565746F6F7468204124
:10DB30006464726573733A20253032783A25303246
:10DB4000783A253032783A253032783A25303278B2
:10DB50003A253032780A000020204661696C202086
:10DB6000203A206163695F68616C5F7772697465F0
:10DB70005F636F6E6669675F6461746120636F6D78
:10DB80006D616E64202D20434F4E4649475F4441EE
:10DB900054415F49525F4F46465345542C207265AD
:10DBA00073756C743A2030782578200A00000000E4
:10DBB0002020537563636573733A206163695F68FE
:10DBC000616C5F77726974655F636F6E6669675FCA
:10DBD0006461746120636F6D6D616E64202D2043FC
:10DBE0004F4E4649475F444154415F49525F4F465B
:10DBF000465345540A00000020204661696C2020ED
:10DC0000203A206163695F68616C5F77726974654F
:10DC10005F636F6E6669675F6461746120636F6DD7
:10DC20006D616E64202D20434F4E4649475F44414D
:10DC300054415F45525F4F46465345542C20726510
:10DC400073756C743A2030782578200A0000000043
:10DC50002020537563636573733A206163695F685D
:10DC6000616C5F77726974655F636F6E6669675F29
:10DC70006461746120636F6D6D616E64202D20435B
:10DC80004F4E4649475F444154415F45525F4F46BE
:10DC9000465345540A00000020204661696C20204C
:10DCA000203A206163695F68616C5F7365745F74BB
:10DCB000785F706F7765725F6C6576656C20636FF7
:10DCC0006D6D616E642C20726573756C743A2030D2
:10DCD000782578200A00000020205375636365735F
:10DCE000733A206163695F68616C5F7365745F7428
:10DCF000785F706F7765725F6C6576656C20636FB7
:10DD00006D6D616E640A000020204661696C202000
:10DD1000203A206163695F676174745F696E69743A
:10DD200020636F6D6D616E642C20726573756C7409
:10DD30003A2030782578200A000000002020537512
:10DD400063636573733A206163695F676174745FCD
:10DD5000696E697420636F6D6D616E640A00000006
:10DD600020204661696C2020203A206163695F674A
:10DD700061705F696E697420636F6D6D616E642C94
:10DD800020726573756C743A2030782578200A000B
:10DD90002020537563636573733A206163695F671D
:10DDA00061705F696E697420636F6D6D616E640A86
:10DDB0000000000020204661696C2020203A20618C
:10DDC00063695F676174745F7570646174655F63D4
:10DDD0006861725F76616C7565202D204465766997
:10DDE0006365204E616D650A0000000020205375B8
:10DDF00063636573733A206163695F676174745F1D
:10DE00007570646174655F636861725F76616C757B
:10DE100065202D20446576696365204E616D650A35
:10DE20000000000020204661696C2020203A20611B
:10DE300063695F676174745F7570646174655F6363
:10DE40006861725F76616C7565202D204170706528
:10DE50006172616E63650A002020537563636573A8
:10DE6000733A206163695F676174745F75706461A0
:10DE700074655F636861725F76616C7565202D20E3
:10DE8000417070656172616E63650A0020204661B1
:10DE9000696C2020203A206863695F6C655F736558
:10DEA000745F64656661756C745F70687920636F18
:10DEB0006D6D616E642C20726573756C743A2030E0
:10DEC000782578200A00000020205375636365736D
:10DED000733A206863695F6C655F7365745F64653E
:10DEE0006661756C745F70687920636F6D6D616ECB
:10DEF000640A000020204661696C2020203A2061DD
:10DF000063695F6761705F7365745F696F5F6361A9
:10DF1000706162696C69747920636F6D6D616E64A4
:10DF20002C20726573756C743A2030782578200A3D
:10DF3000000000002020537563636573733A20610D
:10DF400063695F6761705F7365745F696F5F636169
:10DF5000706162696C69747920636F6D6D616E6464
:10DF60000A00000020204661696C2020203A2061D0
:10DF700063695F6761705F7365745F61757468651D
:10DF80006E7469636174696F6E5F726571756972D1
:10DF9000656D656E7420636F6D6D616E642C2072AB
:10DFA0006573756C743A2030782578200A0000007B
:10DFB0002020537563636573733A206163695F67FB
:10DFC00061705F7365745F61757468656E746963B1
:10DFD0006174696F6E5F726571756972656D656E8A
:10DFE0007420636F6D6D616E640A000020204661CD
:10DFF000696C2020203A206163695F6761705F630C
:10E000006F6E6669677572655F77686974656C695C
:10E01000737420636F6D6D616E642C20726573750F
:10E020006C743A2030782578200A0000202053753F
:10E0300063636573733A206163695F6761705F63EF
:10E040006F6E6669677572655F77686974656C691C
:10E05000737420636F6D6D616E640A003D3D3E3EDA
:10E0600020456E6420426C655F4863695F4761705C
:10E070005F476174745F496E69742066756E63747E
:10E08000696F6E0A0D0000002CFB00080000000004
:10E09000000000000000000000000000000A000076
:10E0A000000000000000000000000000E4FA00088A
:10E0B0000000000000000000000000000000000060
:10E0C000001400000000000000000000000000003C
:10E0D0003E3E3D3D204843495F444953434F4E4EE9
:10E0E000454354494F4E5F434F4D504C4554455F57
:10E0F0004556545F434F44450A000000202020202D
:10E10000202D20436F6E6E656374696F6E204861C9
:10E110006E646C653A202020307825780A20202013
:10E1200020202D20526561736F6E3A202020203010
:10E130007825780A0D0000003E3E3D3D20484349C9
:10E140005F4C455F434F4E4E454354494F4E5F55DC
:10E1500050444154455F434F4D504C4554455F53E7
:10E1600055424556545F434F44450A002020202025
:10E17000202D20436F6E6E656374696F6E20496E4B
:10E1800074657276616C3A202020252E3266206DEF
:10E19000730A20202020202D20436F6E6E6563744B
:10E1A000696F6E206C6174656E63793A202020205F
:10E1B00025640A20202020202D205375706572765A
:10E1C0006973696F6E2054696D656F75743A2025A7
:10E1D00064206D730A0D00003D3D3E3E20484349DA
:10E1E0005F4C455F5048595F5550444154455F432B
:10E1F0004F4D504C4554455F5355424556545F432F
:10E200004F4445202D2000003D3D3E3E206863697F
:10E210005F6C655F726561645F706879202D205363
:10E22000756363657373200A000000003D3D3E3E48
:10E230002050485920506172616D202054583D2073
:10E2400025642C2052583D202564200A0D00000032
:10E250003E3E3D3D204843495F4C455F434F4E4E57
:10E26000454354494F4E5F434F4D504C4554455FD5
:10E270005355424556545F434F4445202D20436F2C
:10E280006E6E656374696F6E2068616E646C653A6A
:10E2900020307825780A000020202020202D2043DF
:10E2A0006F6E6E656374696F6E2065737461626C06
:10E2B000697368656420776974682043656E747259
:10E2C000616C3A20403A253032783A253032783A3B
:10E2D000253032783A253032783A253032783A256E
:10E2E0003032780A000000004843495F4C455F43E4
:10E2F0004F4E4E454354494F4E5F434F4D504C4552
:10E3000054455F5355424556545F434F444520435F
:10E310006F6E6E656374696F6E5F48616E646C6585
:10E320003D30782530345820526F6C653D2564208F
:10E33000506565725F416464726573735F54797090
:10E34000653D256420506565725F41646472657344
:10E35000733A253032582025303258202530325833
:10E360002025303258202530325820253032582090
:10E370000A0000003E3E3D3D204143495F47415079
:10E380005F4C494D495445445F444953434F5645BA
:10E390005241424C455F56534556545F434F4445A6
:10E3A000200A00004143495F4741505F50415353A9
:10E3B0005F4B45595F5245515F56534556545F4335
:10E3C0004F4445203D3D3E204741505F50524F4312
:10E3D0005F504153535F4B45595F524553504F4E29
:10E3E000534520436F6E6E656374696F6E5F48615D
:10E3F0006E646C653D307825303458200A0D00007D
:10E400003E3E3D3D204143495F4741505F415554A9
:10E41000484F52495A4154494F4E5F5245515F56F9
:10E42000534556545F434F44450A00004143495FFA
:10E430004741505F424F4E445F4C4F53545F5653D9
:10E440004556545F434F4445203D3D3E2047415093
:10E450005F50524F435F414C4C4F575F5245424FC4
:10E460004E44200A0D0000003E3E3D3D2041434900
:10E470005F4741505F414444525F4E4F545F5245A5
:10E48000534F4C5645445F56534556545F434F4493
:10E4900045200A003E3E3D3D204143495F474150F3
:10E4A0005F4B455950524553535F4E4F544946496F
:10E4B000434154494F4E5F56534556545F434F4472
:10E4C000450A00004143495F4741505F4E554D4565
:10E4D0005249435F434F4D50415249534F4E5F564F
:10E4E000414C55455F56534556545F434F44452074
:10E4F0003D3D3E204741505F50524F435F4E554D8A
:10E50000455249435F434F4D50415249534F4E5F2F
:10E5100056414C55455F434F4E4649524D200A0DDA
:10E52000000000004143495F4741505F504149525C
:10E53000494E475F434F4D504C4554455F565345F8
:10E5400056545F434F44452C20436F6E6E65637491
:10E55000696F6E5F48616E646C653D30782530345C
:10E5600058205374617475733D256420526561733E
:10E570006F6E3D307825303278200A00202A2A201C
:10E5800050616972696E672054696D656F7574209A
:10E590005374617475733D256420526561736F6EA9
:10E5A0003D307825303278202C200A2120506C65AF
:10E5B0006173652069676E6F726520746869732086
:10E5C000424C4520446576696365206F6E2074680F
:10E5D0006520694F532F416E64726F6964204465F2
:10E5E000766963652053657474696E673D3E426C5D
:10E5F0007565746F6F74683D3E4D7920446576692A
:10E600006365206F7220506169726564204465768D
:10E610006963652021200A00202A2A20506169723E
:10E62000696E67204B4F205374617475733D256488
:10E6300020526561736F6E3D307825303278202C22
:10E64000200A2120506C656173652069676E6F72C6
:10E6500065207468697320424C452044657669637F
:10E6600065206F6E2074686520694F532F416E647A
:10E67000726F6964204465766963652053657474BC
:10E68000696E673D3E426C7565746F6F74683D3EA0
:10E690004D7920446576696365206F722050616909
:10E6A000726564204465766963652021200A000054
:10E6B0004143495F4741505F50414952494E475F8E
:10E6C000434F4D504C4554455F56534556545F4358
:10E6D0004F44452020506565725F426F6E646564EB
:10E6E0003D2564203D3E20256420205365637572DE
:10E6F0006974795F4D6F64653D2564203D3E20253A
:10E70000642053656375726974795F4C6576656CD6
:10E710003D2564203D3E202564200A003E3E3D3DCF
:10E72000204143495F4741505F50524F435F434F41
:10E730004D504C4554455F56534556545F434F44E6
:10E7400045200D003E3E3D3D204143495F47415439
:10E75000545F494E4449434154494F4E5F565345D7
:10E7600056545F434F4445200D00000057697265C1
:10E770006C657373204669726D776172652076658A
:10E780007273696F6E2025642E25642E25640A003D
:10E790003E3E3D3D20534843495F5355425F4556F9
:10E7A000545F4552524F525F4E4F544946200A0D16
:10E7B000000000003E3E3D3D20534843495F535515
:10E7C000425F4556545F424C455F4E564D5F524145
:10E7D0004D5F555044415445202D2D20424C45203D
:10E7E0004E564D2052414D20484153204245454E02
:10E7F00020555044415445442042592043505532FD
:10E80000200A000020202020202D205374617274E3
:10E8100041646472657373203D20256C78202C2040
:10E8200053697A65203D20256C640A003D3D3E3EDB
:10E8300020534843495F5355425F4556545F4E56F7
:10E840004D5F53544152545F5752495445203A202A
:10E850004E756D6265724F66576F726473203D200E
:10E86000256C640A000000003E3E3D3D20534843B5
:10E87000495F5355425F4556545F4E564D5F454E76
:10E88000445F57524954450A0D0000003D3D3E3E4D
:10E89000534843495F5355425F4556545F4E564D6A
:10E8A0005F53544152545F4552415345203A204EE4
:10E8B000756D6265724F66536563746F7273203D48
:10E8C00020256C640A0000003E3E3D3D2053484335
:10E8D000495F5355425F4556545F4E564D5F454E16
:10E8E000445F45524153450A0D0000003E3E3D3D08
:10E8F00020534843495F5355425F4556545F455244
:10E90000524F525F4E4F5449462057495448205267
:10E910004541534F4E202578200A0D003E3E3D3D97
:10E9200020534843495F5355425F4556545F455213
:10E93000524F525F4E4F5449462057495448205237
:10E940004541534F4E202D204552525F424C455F6A
:10E95000494E4954200A00003E3E3D3D2053484365
:10E96000495F5355425F4556545F4552524F525F7F
:10E970004E4F544946205749544820524541534F21
:10E980004E202D20424C45204552524F52200A0025
:10E990003E3E3D3D204442474D43555F47657452DE
:10E9A00065766973696F6E49443D20256C78200A4D
:10E9B0000D0000003E3E3D3D20534843495F535506
:10E9C000425F4556545F434F44455F524541445969
:10E9D000202D204655535F46575F52554E4E494EA7
:10E9E00047200A0D000000003E3E3D3D20534843B5
:10E9F000495F5355425F4556545F434F44455F520C
:10EA000045414459202D20554E45585045435445C5
:10EA1000442043415345200A0D00000048656172BF
:10EA2000742052617465205365727669636520288D
:10EA300048525329206973206164646564205375CA
:10EA4000636365737366756C6C7920253034580A7E
:10EA5000000000004641494C454420746F20616429
:10EA60006420486561727420526174652053657238
:10EA7000766963652028485253292C204572726FAD
:10EA8000723A20253032582021210A0048656172EF
:10EA9000742052617465204D6561737572656D6592
:10EAA0006E7420436861726163746572697374691E
:10EAB00063204164646564205375636365737366A2
:10EAC000756C6C79202025303458200A0000000035
:10EAD0004641494C454420746F2061646420486578
:10EAE0006172742052617465204D65617375726541
:10EAF0006D656E74204368617261637465726973D9
:10EB00007469632C204572726F723A202530325836
:10EB10002021210A0000000053656E736F72204CA3
:10EB20006F636174696F6E204368617261637465BD
:10EB3000726973746963204164646564205375630A
:10EB40006365737366756C6C7920202530345820AA
:10EB50000A0000004641494C454420746F2061641E
:10EB6000642053656E736F72204C6F636174696FBC
:10EB70006E2043686172616374657269737469635E
:10EB80002C204572726F723A202530325820212194
:10EB90000A000000436F6E74726F6C20506F696ED4
:10EBA0007420436861726163746572697374696328
:10EBB000204164646564205375636365737366758F
:10EBC0006C6C79202025303458200A004641494C8D
:10EBD000454420746F2061646420436F6E74726FCB
:10EBE0006C20506F696E7420436861726163746554
:10EBF0007269737469632C204572726F723A2025B2
:10EC00003032582021210A00206163695F676174F6
:10EC1000745F77726974655F636861725F76616C57
:10EC2000756520636D64204E4F4B2073746174755D
:10EC300073203D307825303258200A00414E43532E
:10EC40005F4745545F4E4F54494649434154494FED
:10EC50004E5F41545452494255544520494E564105
:10EC60004C49445F4E4F544946595F454E545259A2
:10EC7000202564200A0D0000414E43535F47455450
:10EC80005F4E4F54494649434154494F4E5F4154AA
:10EC90005452494255544520696E746572616374DB
:10ECA000207769746820694F53204E6F74696669D4
:10ECB000636174696F6E49442030782530386C7810
:10ECC0002C207265747269657665206D6F7265209F
:10ECD000696E666F726D6174696F6E0A0D00000077
:10ECE000414E43535F4745545F4150505F41545438
:10ECF000524942555445204170704964656E7469AB
:10ED0000666965724C656E6774683D256420417064
:10ED1000704964656E7469666965723A2573200A84
:10ED20000D000000414E43535F504552464F524D37
:10ED30005F4E4F54494649434154494F4E5F41430A
:10ED400054494F4E20494E56414C49445F4E4F5412
:10ED50004946595F454E545259202564200A0D00FA
:10ED6000414E43535F504552464F524D5F4E4F54B4
:10ED7000494649434154494F4E5F414354494F4EE0
:10ED8000206E6F74696679456E7472793D256420D2
:10ED90004E6F74696669636174696F6E49442030AF
:10EDA000782530386C782061637449443D256420AF
:10EDB0000A0D0000414E43535F504552464F524D9D
:10EDC0005F4E4F54494649434154494F4E5F41437A
:10EDD00054494F4E206E6F74696679456E7472792E
:10EDE0003D25642052656D6F7665640A0D00000054
:10EDF0003D3D3E3E206163695F6761705F7365748E
:10EE00005F6E6F6E5F646973636F76657261626C6B
:10EE100065202D2053746F7020416476657274698B
:10EE200073696E67204661696C6564202C20726589
:10EE300073756C743A202564200A00003D3D3E3E07
:10EE4000206163695F6761705F7365745F6E6F6E89
:10EE50005F646973636F76657261626C65202D20F3
:10EE60005375636365737366756C6C792053746F47
:10EE700070706564204164766572746973696E6749
:10EE8000200A00003D3D3E3E206163695F6761707E
:10EE90005F7365745F646973636F76657261626CDA
:10EEA00065202D206661696C2C20726573756C7409
:10EEB0003A2030782578200A000000003D3D3E3E93
:10EEC000206163695F6761705F7365745F64697314
:10EED000636F76657261626C65202D205375636384
:10EEE0006573730A000000003D3D3E3E205374618F
:10EEF000727420466173742041647665727469731C
:10EF0000696E67204661696C6564202C20726573A8
:10EF1000756C743A202564200A0D00003D3D3E3E8C
:10EF2000205374617274204C6F7720506F77657234
:10EF3000204164766572746973696E672046616901
:10EF40006C6564202C20726573756C743A2025649E
:10EF5000200A0D003D3D3E3E20537563636573738B
:10EF60003A20537461727420466173742041647650
:10EF70006572746973696E67200A0D003D3D3E3EFF
:10EF800020537563636573733A2053746172742000
:10EF90004C6F7720506F776572204164766572748C
:10EFA0006973696E67200A0D000000004741505FD9
:10EFB00050524F435F5045524950484552414C5F73
:10EFC00053454355524954595F5245512061636935
:10EFD0005F6761705F736C6176655F73656375729F
:10EFE0006974795F72657120207374617475733D03
:10EFF000307825303278200A0D000000776169747E
:10F00000696E6720666F7220204143495F47415017
:10F010005F50414952494E475F434F4D504C455414
:10F02000455F56534556545F434F4445200A0D00F3
:10F0300077616974656420666F7220204143495F7F
:10F040004741505F50414952494E475F434F4D50F1
:10F050004C4554455F56534556545F434F444520F5
:10F060000A0D00004741505F50524F435F414C4CE6
:10F070004F575F5245424F4E44206163695F67615D
:10F08000705F616C6C6F775F7265626F6E64283061
:10F090007825303458290A0D000000004741505FA0
:10F0A00050524F435F4E554D455249435F434F4D7C
:10F0B00050415249534F4E5F56414C55455F434F67
:10F0C0004E4649524D202A2A206163695F6761706C
:10F0D0005F6E756D657269635F636F6D7061726994
:10F0E000736F6E5F76616C75655F636F6E66697274
:10F0F0006D5F7965736E6F2D2D3E594553200A0063
:10F100005465726D20436F6E6E656374696F6E2017
:10F11000636D64206661696C7572653A203078258C
:10F12000780A00004741505F50524F435F544552A8
:10F130004D494E4154455F434F4E4E454354494F10
:10F140004E20636F6D706C657465206576656E74B6
:10F150002072656365697665640A000000000048F6
:10F16000010000000000004801000000000000480D
:10F1700001000000000000480100000000000048FD
:10F1800001000000000000480100000000000048ED
:10F1900001000000000000480100000000000048DD
:10F1A00001000000000000480100000000000048CD
:10F1B00001000000000000480100000000000048BD
:10F1C00001000000000000480100000000000048AD
:10F1D000010000000000004801000000000000489D
:10F1E000010000000000004801000000000000488D
:10F1F000010000000000004801000000000000487D
:10F20000010000000000004801000000000000486C
:10F21000010000000000004801000000000000485C
:10F22000010000000000004801000000000000484C
:10F23000010000000000004801000000000000483C
:10F24000010000000000004801000000000000482C
:10F25000010000000000004801000000000000481C
:10F26000010000000000004801000000000000480C
:10F2700001000000000000480100000000000048FC
:10F2800001000000000000480100000044657669AC
:10F29000636520496E666F726D6174696F6E20538D
:10F2A0006572766963652028444953292069732073
:10F2B0006164646564205375636365737366756C1C
:10F2C0006C7920253034580A000000004641494C32
:10F2D000454420746F2061646420446576696365E9
:10F2E00020496E666F726D6174696F6E205365722E
:10F2F000766963652028444953292C204572726F32
:10F30000723A20253032582021210A004D616E7555
:10F310006661637475726572204E616D6520436825
:10F3200061726163746572697374696320416464B6
:10F330006564205375636365737366756C6C7920BF
:10F340002025303458200A004641494C4544207459
:10F350006F20616464204D616E75666163747572BF
:10F360006572204E616D65204368617261637465EA
:10F370007269737469632C204572726F723A20252A
:10F380003032582021210A00206163695F67617073
:10F390005F636C6561725F73656375726974795FD1
:10F3A00064622026206163695F6761705F72656DCA
:10F3B0006F76655F626F6E6465645F6465766963CE
:10F3C000652026206163695F6761705F7465726D97
:10F3D000696E617465200A003D3D3E3E20616369AF
:10F3E0005F6761705F636C6561725F73656375729F
:10F3F0006974795F6462202D204661696C2C2072EB
:10F400006573756C743A202564200A003D3D3E3ECC
:10F41000206163695F6761705F636C6561725F73D0
:10F42000656375726974795F6462202D205375631A
:10F43000636573730A0000004143495F47415454B8
:10F440005F57524954455F5045524D49545F5245AC
:10F45000515F56534556545F434F44450A000000E0
:10F460004143495F474154545F41545452494255C6
:10F4700054455F4D4F4449464945445F56534556B0
:10F48000545F434F4445204852535F4E4F544946C2
:10F4900049434154494F4E5F454E41424C45440A11
:10F4A000000000004143495F474154545F415454B8
:10F4B0005249425554455F4D4F4449464945445F82
:10F4C00056534556545F434F4445204852535F4E70
:10F4D0004F54494649434154494F4E5F4449534173
:10F4E000424C45440A0000002DE9FC4D016800F142
:10F4F0000805490805EBC102019200F108034068C4
:10F5000000F0010803EBC106400806EBC000002133
:10F51000002205E0009B9F4218BF17F9014B0BD159
:10F52000019B9D4206D02C686B682F19FB18009335
:10F530000835EFE7BDE8F68D009B9F4205D12B68AB
:10F54000EF186B68FB180093083517F801AB914270
:10F550000FD183465E4508BFFAF71BFF31685FEAAB
:10F56000080018BF494470680A1808369142F1D063
:10F570005846002C01F801AB02D5641CE7D1C9E75D
:10F58000641ED9D5C6E70000322E20476574204D91
:10F590006F72652044657461696C20496E666F7294
:10F5A0006D6174696F6E20206E6F74696679456E47
:10F5B0007472793D2564203D3D3E20414E43535FAA
:10F5C0004745545F4E4F54494649434154494F4E75
:10F5D0005F415454524942555445200A0D000000E1
:10F5E00020616E63735F636F6E746578742E6E6FE7
:10F5F00074696679456E747279203D3D20494E5696
:10F60000414C49445F4E4F544946595F454E545210
:10F6100059203D3E20414E43535F49444C45200A0A
:10F620000D000000010000000300000005000000C4
:10F630000100000001000000060000000A000000B8
:10F64000200000000200000004000000080000008C
:10F6500010000000400000008000000000010000D9
:10F6600000020000A0860100400D0300801A060081
:10F6700000350C0040420F0080841E0000093D0050
:10F6800000127A000024F40000366E010048E80100
:10F69000006CDC0200000000000000000000000020
:10F6A000000000001349002008604FF0B0411248EC
:10F6B000026842F4700202604FF4E023086840F0F0
:10F6C000010008608B600A680C4802400C480A6020
:10F6D000036823F005030360426852085200426049
:10F6E00000220848C8600861086820F4802008608B
:10F6F0008A61704708ED00E088ED00E0FBFEF6FA55
:10F7000094000058001004227047FEE7FEE7FEE771
:10F71000FEE77047F6F72CBD0A48FBF79FBB0A4887
:10F72000FBF7C2BC0948F9F76EBD0948F9F76BBD94
:10F73000FAF750BEFAF778BE00F018B80548FBF7A4
:10F740008DBB0000248A0020348B00208888002094
:10F75000F4870020848A00201020FBF749BE012096
:10F76000FBF746BE0220FBF743BE00000449C86811
:10F770000A6882430A60486000F004B80000000094
:10F7800000150058704700002A2A204361746567FD
:10F790006F727949443A204865616C7420616E64E7
:10F7A000204669746E6573730D0A00002A2A20438F
:10F7B000617465676F727949443A20427573696E66
:10F7C00065737320616E642046696E616E63650DBA
:10F7D0000A00000080B50D4A7A4430320C4B7B445D
:10F7E0002E339A4203D00B49AFF3008002BD8DF84F
:10F7F0000000012269460120FBF766FE012802D1C4
:10F800009DF8000002BD4FF0FF3002BDF407FFF786
:10F81000F007FFF72C200020206163695F676170AB
:10F820005F636C6561725F73656375726974795F3C
:10F8300064622026206163695F6761705F72656D35
:10F840006F76655F626F6E6465645F646576696339
:10F8500065200A0D00000000506565725F426F6E02
:10F860006465643D25642053656375726974795FCE
:10F870004D6F64653D2025642C2053656375726966
:10F8800074795F4C6576656C3D202564200A0D0017
:10F8900030B4002512E050F8042BD30744BF4A448B
:10F8A000521E091F042942F8045BFAD213468C0742
:10F8B00044BF15809B1CC90748BF1D7050F8041B2E
:10F8C0000029E8D130BC7047414E43535F434F4E4F
:10F8D0004E4543544544203D3D3E20414E43535FF9
:10F8E000444953434F5645525F414E43535F53453E
:10F8F0005256494345200A0D0000000052657669C2
:10F900006577207468652050726545786973746501
:10F9100064204E6F74696669636174696F6E200A52
:10F920000D00000010B5074979441831064C7C449D
:10F93000163404E00A68081D114488470146A142B4
:10F94000F8D110BDE00000002C010000696E766166
:10F950006C696420616E63735F636F6E7465787445
:10F960002E73746174653D2564200A0D000000004B
:10F9700040FB000800000000000000000000000044
:10F980000000000000050000000000000000000072
:10F9900000000000FCFA0008000000000000000069
:10F9A0000000000000000000000A0000000000004D
:10F9B000000000000000000060FB000800000000E4
:10F9C000000000000000000000000000000A00002D
:10F9D0000000000000000000000000006CFB0008B8
:10F9E0000000000000000000000000000000000017
:10F9F00000040000180000000000000000000000EB
:10FA00004EF68851CEF20001086840F4700008609C
:10FA1000BFF34F8FBFF36F8F4FF00170E1EE100A0D
:10FA2000704700006DFEFFFFF06B00000421002016
:10FA3000700800003C00032000000000ADFAFFFF4A
:10FA40000200000002000000FC01000002000000B3
:10FA5000280003201400000091FAFFFF02000000BC
:10FA600002000000E2010000BF00000008100020BA
:10FA7000FC1000000000000000000000000000007A
:10FA80000000000001000000020000000300000070
:10FA90000400000000F00DF8002801D0FFF742FF3D
:10FAA000AFF300800020AFF30080F5F72CFE00F0EC
:10FAB00002F80120704700F001B800000746384600
:10FAC000FBF792FAFBE700000548014603B46846DD
:10FAD00080F30988AFF30080FFF792FFFFF7DAFFAA
:10FAE000A5EDF5FE4843495F555345525F455654D1
:10FAF0005F50524F43455353000000005348434961
:10FB00005F555345525F4556545F50524F434553DE
:10FB10005300000038B504460D462846FFF75AFE4C
:10FB2000A84218BF0024204632BD00004144565F61
:10FB30005550444154455F50524F43455353000084
:10FB4000414E43535F50524F434553530000000012
:10FB50000148804701480047A5F60008C9FA000897
:10FB60004852535F50524F4345535300646566619A
:10FB7000756C745461736B00FFF7FEBFFFF7FEBF37
:10FB8000FFF7FEBFFFF7FEBFFFF7FEBFFFF7FEBFA9
:10FB9000FFF7FEBFFFF7FEBFFFF7FEBFFFF7FEBF99
:10FBA000FFF7FEBFFFF7FEBFFFF7FEBFFFF7FEBF89
:10FBB000FFF7FEBFFFF7FEBFFFF7FEBFFFF7FEBF79
:10FBC000FFF7FEBFFFF7FEBFFFF7FEBFFFF7FEBF69
:10FBD000FFF7FEBFFFF7FEBFFFF7FEBFFFF7FEBF59
:10FBE000FFF7FEBFFFF7FEBFFFF7FEBFFFF7FEBF49
:10FBF000FFF7FEBFFFF7FEBFFFF7FEBFFFF7FEBF39
:10FC0000FFF7FEBFFFF7FEBFFFF7FEBFFFF7FEBF28
:10FC1000FFF7FEBFFFF7FEBFFFF7FEBFFFF7FEBF18
:10FC2000FFF7FEBFFFF7FEBFFFF7FEBFFFF7FEBF08
:10FC3000FFF7FEBFFFF7FEBFFFF7FEBFFFF7FEBFF8
:10FC4000FFF7FEBFEC000001810081008100810010
:10FC5000810081008100810081008100810081009C
:10FC6000810081008100810081008100810081008C
:10FC7000810081008100810081008100810081007C
:10FC80008100810081008100BD001302040101E4B4
:10FC90008A0020348B0020E48A0020E48A0020FCC3
:10FCA0000003E48A0020FC0007702000205C200094
:10FCB00020E0001B9A3E00089A3E00089A3E000889
:10FCC0009A3E00089A3E00089A3E00089A3E0008B4
:10FCD000F8FF0B5A1A00089A3E00089A3E0008FAEC
:10FCE000FF0400000DFF01CF00FCAAFC000001F999
:10FCF000000010FC000E080048000C0048000C003A
:05FD00004800093D0070
:040000050800FAC92C
:00000001FF
