:020000040800F2
:100000000810002075390008F5390008F739000894
:100010007D3B0008813B0008853B00080000000094
:10002000000000000000000000000000F939000896
:10003000FB39000800000000FD390008FF39000806
:10004000893B00088D3B0008913B0008153A0008E9
:10005000953B0008993B0008033A00089D3B0008C7
:10006000A13B0008A53B0008053A0008A93B000891
:10007000AD3B0008B13B00080F3A0008B53B000853
:10008000B93B0008BD3B0008C13B00080000000070
:1000900000000000C53B0008C93B0008073A000803
:1000A000CD3B0008D13B0008D53B0008D93B0008F8
:1000B000DD3B0008E13B0008E53B0008E93B0008A8
:1000C0000000000000000000ED3B00080000000000
:1000D000093A0008F13B000800000000F53B000869
:1000E000F93B0008FD3B000800000000013C00084F
:1000F0001D3A0008193A0008053C0008093C0008B0
:100100000D3C00080000000000000000000000009E
:10011000113C0008153C0008193C000800000000D4
:1001200000000000000000000000000000000000CF
:1001300000000000000000001D3C0008DFF8201552
:100140000A6892B200E00246086880B28242FAD1A0
:100150007047F0B5DFF80C55DFF80C352E78182213
:1001600004465443B0421C4404D128786870627D30
:100170002A700FE0267D607D94F815C003F1150705
:100180005643062807F806C004D0267D143312FB18
:1001900000F29E54012020732A78062A02BF00290B
:1001A0004FF0FF306860F0BD10B5DFF8B84460680C
:1001B00010F1010F10D0FFF7C1FF6168DFF8AC2428
:1001C00081422FBF636861685388CB1851781278D9
:1001D000181A4843D04000E0002080B210BD2DE93D
:1001E000F047DFF88854DFF88814D5F80880D8F88D
:1001F000000000F073F9DFF86C74DFF86CA421F4F0
:10020000806181604FF018093E780AF1080019FBFF
:1002100006F14458FFF7C8FF844202D200240121AE
:1002200005E0A9884118A14203D2AC880021B97029
:1002300013E00122241ABA700FE019FB06F60AF146
:1002400008039F59874226BF9959091A00210AF1CC
:10025000080291510AEB06014E7D062EEDD1DFF822
:100260000474A0B238B9FFF769FF78600320BDE8D5
:10027000F04700F066BA022802DA2878012800D098
:10028000641ED8F80000C1684A07FAD500F02EF9BC
:10029000DFF8DC03C16864F30F01C160FFF74EFFB4
:1002A0007860A8680068816841F480618160AFF37C
:1002B0000080BDE8F0872DE9F843EFF3108472B6B3
:1002C000DFF8A853DFF8A033A9680A68CA20506293
:1002D000532151629068DFF88C1320F480609060A5
:1002E00018200E78374647431F4497F80CC0BCF1DE
:1002F000020F24D1D7F80080D7F810908878D8B1B1
:100300007A7B012A0AD101213046FFF722FF84F3CC
:1003100010887968304600F0F6F804E084F310881D
:10032000304600F0A1F8A86800F093F93146424643
:10033000484600F02FFA12E0FFF751FF0DE0D068B9
:100340004107FCD5D068DFF82C1300F0800060F482
:100350009060D0604FF40020086084F31088FF2282
:10036000A86801684A62BDE8F183F8B50A68CA2343
:100370005362532454624FF6FF77DFF8F442226849
:1003800042F0200222602268A368A5681B0C03F0DB
:100390007F03C5F30E055B1C6D1C6C1E1E4602F030
:1003A000070216FB04F6C2F10402A6F5A076D640B9
:1003B000AE4CBE422CBFA780A680A16022706370A5
:1003C0006580AD490A6842F400220A60AB4A1368AE
:1003D00043F40023136088BBA248012282704FF0CF
:1003E000FF3343600022A04B002403F10C051826C4
:1003F0005FFA82FC16FB0CFC521CD7B205F80C40CD
:10040000062FF5DB0622994C0270A068006882680E
:1004100022F480628260C26802F0800262F490621C
:10042000C26003204FF40022CA6000F095F9A06872
:100430000068816841F48041816007E0A06801683C
:10044000CA68500544BF032000F07BF9A1680A6820
:10045000FF20506200220321032000F02AF9BDE8AA
:10046000F240032000F042B9F8B50446EFF31085DE
:1004700072B6032000F045F97C4EB7683868CA218F
:10048000416253234362224618207D4942438B5CDC
:10049000022B19D100212046FFF75BFE714801783D
:1004A00006290CD13868724900F018F821F48061EF
:1004B0008160C1684A07FCD500F018F804E0407874
:1004C000884218BFFFF78BFEB1680A68FF205062B0
:1004D000032000F00BF985F31088F1BD0A6853057D
:1004E00002D5C1684A07FCD481687047C16801F031
:1004F000800161F49061C1604FF400205D490860A3
:10050000032000F029B92DE9F84F04468A46182542
:100510002146554E69437718387B022804BF204690
:10052000FFF7A2FFEFF3108872B6032000F0E9F89E
:10053000DFF83891D9F8080000F08BF80220387302
:10054000C7F808A0C7F804A0DFF818A19AF80000BF
:10055000062808D100F076F878754FF0FF31CAF818
:100560000410002056E0FFF71FFEB9680918B960B3
:1005700006F10803B9689AF800206A439A58914234
:100580002AD39AF8002004E006F1150E6A431EF8FB
:10059000022006F1150315FB02FC13F80C30062BA4
:1005A00006D006F1080C6B435CF803309942EBD29D
:1005B0001146694306F1150E1EF80130062B05D0D1
:1005C00006F1140C15FB03F50CF805407B753A7524
:1005D00006F1150254541DE09AF800109AF800C074
:1005E000614515FB01F20FD006F1140B06F1150C55
:1005F0001BF8023015FB03F50CF8054079753B75C7
:1006000006F114018C5403E006F1140379759C542F
:1006100000F018F89AF800109AF801208A4202D0E7
:10062000FFF7DDFD02E0B968081AB860FF20D9F8CD
:1006300008100A685062032000F058F888F3108808
:10064000BDE8F18F9AF800108AF801108AF800408E
:1006500070470068CA21416253224262704700001D
:1006600028280040A81300206C11002068130020E7
:10067000082800400C08005800080058800800585E
:10068000781100200901020002D4394881547047D2
:10069000384B02F00F021A4402F8041C7047364926
:1006A0000A6860F30A2240F2FA5060F31F420A60BF
:1006B000704770B5304B1C68C4F302230124C3F1AA
:1006C0000705052D2EBF0F2504FA05F56D1E1E1D0D
:1006D000072E34BF0023DB1E2940994004FA03F3A0
:1006E000BDE870405B1E1A401143CBE7010007D400
:1006F000012200F01F01214B8A40400943F82020CD
:10070000704701000BD4012200F01F011C4B8A40EE
:10071000400943F82020BFF34F8FBFF36F8F70471E
:10072000401EB0F1807F01D3012070471549164A61
:1007300048600023F02010708B60072008600020C4
:100740007047010007D4012200F01F010F4B8A40BF
:10075000400943F820207047010007D4012200F02F
:100760001F010B4B8A40400943F8202070470000CE
:1007700000E400E018ED00E00CED00E000E100E036
:1007800080E100E010E000E023ED00E000E200E0A6
:1007900080E200E010470EE002684368024408303F
:1007A0005FEAC37C44BF4B445B1E52F804CB43F862
:1007B00004CB091FF9D150F8041B0029ECD1704774
:1007C000216801F1080353E8001F206800F10802C6
:1007D00021F0400142E80010002870472DE9F04167
:1007E000044640F60F0C2268D669104616EA0C0F34
:1007F0000768936804F15C0507F0200006F020010B
:100800000DD1002914D010B9D80040F18D80A9690C
:10081000002900F045812046BDE8F0410847DFF897
:100820001CC313EA0C0F04BFDFF814E317EA0E0F22
:100830007AD05FEAC67E48BF5FEAC75807D54FF057
:10084000010EC2F820E06A6B42F001026A63B2074F
:100850000AD5DA0708D5D4F800E00222CEF8202025
:100860006A6B42F004026A6372070AD5DA0708D598
:10087000D4F800E00422CEF820206A6B42F0020295
:100880006A6332070DD5002808BF13EA0C0F08D0A1
:10089000D4F800C00822CCF820206A6B42F008028D
:1008A0006A63320509D57F0107D526684FF40062D7
:1008B00032626A6B42F020026A636A6B002A32D0AD
:1008C00031B108B9D80003D5A96909B120468847D4
:1008D000686B21688A68510602D410F0280F1DD079
:1008E000204600F0FCF820688168480611D5FFF723
:1008F00067FFFCD1686A60B10FF255218163686AB5
:1009000000F062F900280ED0686A816BBDE8F04102
:1009100008472046BDE8F04100F0EFB9204600F05E
:10092000ECF900206863BBE02869012878D1F00663
:1009300076D5F90674D5102010622268298890684F
:10094000420637D56A6A1368586880B2002828D0F2
:10095000884226DA6880106801688A061AD400F096
:10096000ABF821F4807100F0A3F8F8D100F0A9F8F9
:10097000FCD1FFF725FFFCD120202863002129614D
:1009800000F09AF821F0100100F092F8F8D1686AAE
:1009900000F0E4F80220686129886888091A89B2A1
:1009A00006E088427CD11A68900679D502226A61F5
:1009B000204631E06A886888891A00281CBF88B2FE
:1009C00000286DD02246106850E8003F044623F40A
:1009D000907300F067F8F6D1106800F1080400F198
:1009E000080354E8004FDFF85001044043E800409A
:1009F0000028F1D102F15C032020186300241C615F
:100A00009C61146854E8004F156800F09BF8F8D119
:100A10000220586189B21046BDE8F04100F06EB97D
:100A2000F00209D5590207D54FF480101062204614
:100A3000BDE8F04100F063B9300609D5390601D4AC
:100A4000180205D5E96959B32046BDE8F0410847C9
:100A5000700613D5790611D500F02EF821F040016B
:100A600000F026F8F8D104F15C002021C1620022D8
:100A7000C2612046BDE8F04100F04EB9300206D513
:100A8000790004D52046BDE8F04100F057B9F001E7
:100A900048BF002F04D52046BDE8F04100F04FB913
:100AA000BDE8F08144E800300028704741F0800143
:100AB00042E8001000287047206850E8001F0246F6
:100AC0007047216801F1080353E8001F20684908B6
:100AD00000F10802490042E8001000287047016850
:100AE00051E8002F0B4622F4907243E800210029C0
:100AF000F5D1016801F1080301F1080253E8003F54
:100B00000D490B4042E800310029F2D1C16E0129A4
:100B100009D1026852E8002F036822F0100243E86E
:100B200000210029F5D12021C0F88C100022C266D6
:100B30004267704700000000FEFFFFEF0100001059
:100B40002001000424F0100445E80040002870470C
:100B5000806A0021A0F85E1000F0CFB840B100F12B
:100B600024014A78022A05D00420886100220A70F4
:100B7000012070470268136823F00E0313604A6A6D
:100B8000136823F4807313600068026852085200EF
:100B90000260012091F82020CB6902F01C029040F5
:100BA00058608A6AC86A5060086B38B1024610689B
:100BB00020F4807010604A6B886B50600120487090
:100BC00000220A700020704738B500F1240200248A
:100BD0005178022903D004209061012429E00168A2
:100BE0000B6823F00E030B6001680D686D086D0043
:100BF0000D60516A0B6823F480730B60012192F839
:100C00002030D56903F01C0399406960936AD16A6A
:100C10005960116B39B10B46196821F48071196064
:100C2000536B916B5960012151701470516901B17E
:100C30008847204632BDF8B500F124010426CA6970
:100C4000126803681C6891F8205005F01C0506FA2C
:100C500005F73A4210D067070ED51A68940603D4F8
:100C60001A6822F004021A6000F03EF8C9680029F0
:100C700039D0BDE8F4400847022606FA05F73A42A3
:100C800013D0A70711D51A68940605D41A6822F064
:100C90000A021A6001234B7000F026F800220A7045
:100CA000896801B3BDE8F4400847082606FA05F54F
:100CB0002A4218D0220716D51C6824F00E041C60A6
:100CC000012291F82030CC6903F01C039A40626045
:100CD000012301228A614B7000220A70096911B157
:100CE000BDE8F4400847F1BD91F82020CB6902F03F
:100CF0001C0296405E607047000070477047704766
:100D0000002804BF0A48FFF769BD704718B90849B1
:100D1000C86FFFF790BF704700680649884204D14A
:100D2000054A1068002818BF0047704700000000FF
:100D3000D810002000380140B413002070477047DD
:100D400038B596B007A88E498E4C0FF28D253C22FF
:100D500000F068F90094019569460FF2652000F0F3
:100D60006DF90121022000F042FA874A002101209A
:100D700000F013FB07A800F0A4FB08B100F074FC1E
:100D80000DF116000021018000F070FC00F0DEF88B
:100D900005462A460621002000F08DFC7B4C687930
:100DA00096A2207229796172E878A072A978E1721E
:100DB00068782073182029786173102100F07BFC7B
:100DC00092A21021082000F076FC1821012000F0EA
:100DD00088FC00F0C7FC06A80DF11A0101900091F3
:100DE00005AB07220021012000F0AFFE7FA0BDF877
:100DF0001A1000900723BDF81400002200F06EFDC9
:100E00000DF1160000900223BDF81810BDF8140073
:100E1000002200F063FD002000F054FE002004904A
:100E200010235B4903910820002201930090029255
:100E300000230121012000F059FE00F01FFF55485A
:100E40004FF4004101604FF00051026F48780D28C7
:100E500002F0FF020EDA00200870BFF34F8F4E49F8
:100E60004E480A6802F4E06202430A60BFF34F8F03
:100E700000BFFDE789780B189A4238BF111A00F0BD
:100E80001CFF00F063F84179217202796272C17827
:100E9000A1728278E2724178217306210278521C95
:100EA000627342798DF8052003798DF80430C27899
:100EB0008DF8032083788DF8023042788DF8012078
:100EC0006A460078401C8DF80000002000F0F3FB1B
:100ED00000F022F817B030BD80B542783049052ABD
:100EE00004D03E2A05D0FF2A0AD012E000F014F800
:100EF0000FE0C278012A0CD1B0F805200A8008E082
:100F0000B0F8030040F60E42904204BF088800F09B
:100F10001BFD012002BD000000B587B00020069037
:100F2000059000223DA00492082100230290019127
:100F300000920393A0228021002000F071FD07B0F1
:100F40005DF804EB11490E2000F02FBE80B5154965
:100F50000A6812F1010F0DD013484B6802701B0A8A
:100F6000120A42701A0A4968C37081701B0C027120
:100F7000437102BD002000F05DFF00B91DA002BD5D
:100F800038390008AC0803207B10000898100020B6
:100F900007B20100104000580CED00E00400FA0513
:100FA000C01300208075FF1F801300200021012046
:100FB00000F001BA012000F020BA012000F025BAAB
:100FC00010B50446616801F1080000F047FF00B168
:100FD0000120207010BD000010B1012803D070471F
:100FE000012000F0F8B900F0FEB90000424C456362
:100FF0006F7265006C7AD8AC577200001234567864
:101000009ABCDEF0123456789ABCDEF0FEDCBA09E7
:1010100087654321FEDCBA09876543210953544D96
:101020005F4F54414AB1000011F8013B521E00F8D5
:10103000013B1CBF11F8013BF8E770477FB50C4638
:10104000654D6168654E28626962281D00F030FFB9
:10105000246805F1280000604060746006F1080013
:101060000060406001203070696829B10FF23512CC
:1010700000920294684688477FBD1FB5574C04F123
:10108000080000F022FFF8B92078E8B1694604F1C1
:10109000080000F043FF5048016A49B100980290EF
:1010A00001228DF8042001A888479DF8040000E083
:1010B0000120207018B1009800F0E5FF04E00099CD
:1010C00004F1080000F00AFF04F1080000F0FDFE42
:1010D00028B9207818B104F10800FFF767FF1FBD99
:1010E0002DE9FC410446002000F051F82088B4F8B6
:1010F0000280394F60F38F2801203870002537486F
:101100004068A168E268C272A0F80980D2B20C30CF
:10111000FFF788FF7A6900210020904748F2E80035
:10112000FFF74BFF13E0B6F8010040450CD10099E2
:10113000887AC21E6069D2B28242C8BF0246206964
:101140006261F11CFFF76EFF307800B1012507F1F5
:10115000280000F0BAFE90B9694607F1280000F0B7
:10116000DDFE009901F10B06497A0F29DBD1718868
:10117000414502D12169307808707078E5E7280090
:10118000CCD0012000F003F80020BDE8F681124920
:10119000496A08B921B1084700291CBF0120084746
:1011A0007047000010B50146487A0F2818BF0E2876
:1011B00007D10B4800F09CFEBDE810400020FFF76F
:1011C000F9BE064C04F1080000F092FE04F108009C
:1011D000BDE81040FFF7EABE7C1200204813002053
:1011E000A41200201B48002101604160704710B527
:1011F00000F007F85C6800F009F85C6082F3108882
:1012000010BDEFF3108272B6124B704719B101296D
:1012100002D1044370478443704738B5EFF310841C
:1012200072B60C490C4D086820B1296888476A6875
:1012300090470AE0486820B1A8688047E968884775
:1012400003E0286980476969884784F3108831BDC5
:101250000000000088130020503B00082DE9F84FE3
:101260007D4CDFF8F8912569284020614FF0FF3A66
:10127000A06800904FF0010B6669E768D4F8188009
:1012800019E062680BFA01F122EA01016160666807
:101290008047606806406660E069C046C046A06856
:1012A00000906669E768D4F81880E169206A0BFA53
:1012B00001F108432062009822693840104250D062
:1012C00016EA080F4DD1002007EA020100E0401C99
:1012D00054F830301942FAD054F8301004EBC003FF
:1012E000394058680A40104208BFC3F804A0A068FB
:1012F000D4F820C059686CEA010C20EA0C0012EA0C
:10130000000118BF0A4608B94FF0000C5868C4F82D
:1013100020C0104000F0A4F8E061EFF3108172B635
:101320000BFA00F2A068D2431040A060012004EB49
:10133000C003401E53F808CC02EA0C0C43F808CC5A
:10134000F5D181F31088E069C046C046E1692029E3
:1013500003D259F82100002893D10020C046C0468E
:10136000A9E7C4F81CA0A069064213D1C046C04634
:10137000EFF3108672B6A2686169E06823690240E3
:101380001A4202BFA069014200F0ACFF86F3108848
:1013900000F0B8FF2561BDE8F18F38B5144600F0C4
:1013A00006F82E4941F8204085F3108831BDEFF34F
:1013B000108572B654E030B5EFF3108272B6264B4A
:1013C0009C6804439C6053F83150284343F8310033
:1013D00082F3108830BDEFF3108172B61E4AD368D5
:1013E00023EA000005E0EFF3108172B61A4AD368D1
:1013F0001843D06081F310887047EFF3108172B604
:10140000154A536918435061F4E72DE9F041124D34
:10141000EE690446374616F1010F0EBF0026012083
:1014200000FA06F6D5F81880AC6103E02146304694
:1014300000F05AFF68692042F8D0EF61EFF31080A6
:1014400072B6696921EA04046C6180F31088C5F8FA
:101450001880BDE8F081000074100020FC1100200D
:10146000B0FA80F0C0F11F00C0B2704718B585B067
:1014700000F043F84FF6524000F09AFF14B19DF887
:101480000F00207013E01FB5002408B10090042461
:1014900009B10191241D6B466A4621464FF654401E
:1014A00030E000F085FF9DF80E0005B000BD9DF80E
:1014B0000E0006B010BDF8B500F020F84FF65A4007
:1014C000EFE7F8B500F10C026B462F214FF66640AE
:1014D000E7E7F8B500F10C026B460F214FF66840C4
:1014E000DFE7F8B500F003F84FF66940D9E78DF86B
:1014F00000006B466A460121704704466B46002295
:101500000021704700F054FF9DF80E0004B010BD9C
:10151000F8B5FFF7ECFF4FF67340C2E71CB54A4938
:101520004A4C4FF40040086000F094FF606C4001AA
:101530000ED5606CC0000BD400F0B6FF00F0B4FF15
:10154000206C40F480302064206C20F480302064D3
:101550003F22216841F4801121603F21206800F47E
:101560008010009000983A4841604261016841F45F
:101570007C110160026942F47C120261016841F051
:101580003F010160026942F03F02026100F030F861
:101590003048016800220260036903F050030361D0
:1015A00000F082FF00F080FF216C012060F3092130
:1015B00021640F21206C40F40040206447F6FF7244
:1015C0002548264C8160C260046000F097FFCA2065
:1015D000606253216162FF21A068C008C000A06062
:1015E000616200F0ACFD4FF0FF30FFF737FEFAE725
:1015F00080B500F059FF00F057FF1948016841F02D
:101600000101016001688907FCD50121426861F38D
:101610008F32426001BD38B5044601F015F814F16F
:10162000010F054609D000F029FF241805E00D48F8
:10163000016821F00401016030BF01F005F8401B92
:10164000A042F4D331BD00001040005850000058B3
:10165000040C005880080058D412002000280040D4
:101660009000005810ED00E072B6FEE700B587B0BC
:1016700000F010F80321ADF80410ADF806100122B7
:10168000069200F012F800284CBFFF209DF80000E1
:1016900007B000BD00208DF800001822002101A82D
:1016A00000F0DEBF07AA06910392CDF814D0002106
:1016B00001A8FFF715BD18B50C46C7B000F039F802
:1016C00000F04BF807AA03923F200C2100F028F805
:1016D00000F020F800284CBFFF209DF8000048B023
:1016E00010BD00B5C7B000F031F80F2200F007F8C8
:1016F00000284CBFFF209DF8000047B000BDADF8AA
:1017000006203F21ADF804100222049207A903919C
:1017100001220692CDF814D0002101A8FFF7E0BC09
:10172000ADF80400ADF806100122A41C0692049442
:101730007047114600228DF800208DF81C008DF8AE
:101740001D4022460DF11E0000F084BF00238DF8DD
:101750001C008DF81D108DF800301822002101A802
:1017600000F07EBF00B587B000208DF8000000F0CB
:10177000E6F840F2011200F045F900F006F9002801
:101780004CBFFF209DF8000007B000BD2DE9F841D7
:10179000C7B00446884616461F46012808BF0220E7
:1017A00003D002280CBF102000200DF11D031D18CE
:1017B00000F035F8012C8DF81C4002D0022C1AD014
:1017C0001BE00224224641460DF11D0000F042FFBD
:1017D0002E706F7000F0B3F800F0ABF84FF4817129
:1017E00000F017F8E41C0692049400F0CEF80028EC
:1017F00005D5FF2009E01024E4E7972005E09DF8D7
:10180000000010B94E9800F064F8FFE748B0BDE85A
:10181000F081ADF80400ADF80610032270470322F2
:101820000021684600F01CBF2DE9F64F0C46C7B0FA
:1018300005469946012C08BF022003D0022C0CBF9C
:10184000102000200DF11F031E18FFF7E8FF012CE8
:10185000ADF81C508DF81E4002D0022C2CD02DE08B
:101860000227DDF85881DDF854B1DDF850A1539D11
:10187000529C48993A4600F058F8A6F80090B47087
:10188000F57086F804A086F805B086F8068000F0AA
:1018900056F83F204FF4827107AAADF80400ADF866
:1018A000061003920A3703220497069200F06DF89F
:1018B000002805D5FF2009E01027D2E7972005E092
:1018C0009DF8000010B9579800F003F849B0BDE842
:1018D000F08FBDF8011001800020704778B5C7B0C7
:1018E0001D464C9B00F07CF800268DF800608DF8BA
:1018F00021502A4619460DF1220000F0ABFE00F0FF
:101900001EF800F016F84FF4837100F083F8AD1D57
:1019100000F039F800284CBFFF209DF8000049B0C6
:1019200060BD0023ADF81C0070470DF11F0000F0F2
:1019300091BE07AA03923F2070478DF8003018220D
:10194000002101A800F08CBE00B5C7B0FFF7E9FF89
:10195000FFF7F3FF40F2251200F009F800F015F848
:1019600000284CBFFF209DF8000047B000BDADF837
:1019700006203F21ADF804100222049207A903912A
:1019800001220692704706920495CDF814D00021EA
:1019900001A8FFF7A5BBB8B5C7B04C9C4D9D00F0A2
:1019A0001FF800278DF821308DF800708DF8224047
:1019B000E2B2294600F01BF8FFF7C1FFFFF7B9FFBD
:1019C0004FF4937100F017F8E41D06920494FFF7AA
:1019D000DCFF00284CBFFF209DF8000048B0B0BDE0
:1019E000ADF81C00ADF81E108DF8202070470DF1E9
:1019F000230000F02FBEADF80400ADF80610E4B2ED
:101A000001227047ADF806203F21ADF804100122F5
:101A100006927047ADF80400ADF806100122704739
:101A20002DE9F04FC7B09446DDF840E1519ADDF85A
:101A30005481DDF858A1539CADF81D108DF81C00A1
:101A40008DF823204FF0000BADF81FC08DF821302A
:101A50008DF822E000F021F800F029F826F8098F2F
:101A6000A6F802A000F0F9F800F0E8F88321ADF83C
:101A70000400ADF8061000F00AF800F0F8F80028AD
:101A80004CBFFF209DF8000047B0BDE8F08F4F44E9
:101A900001220D37069204977047D7B252998DF8FC
:101AA00000B009ADD2B209A8ED1900F0D3BD2C7079
:101AB00007AE54995FFA84F9F619E2B2681C4E44F5
:101AC00000F0C8BD00B5C7B000F083F800F0C3F85F
:101AD00000F08DF8852200F091F800F0C7F800289A
:101AE0004CBFFF209DF8000047B000BD2DE9F84134
:101AF000C7B04FF0000800F022F84E9C4F9D509E5A
:101B0000529F51988DF800800DF123018DF81F3000
:101B10008DF820408DF821508DF8226008608DF8F6
:101B2000277000F09AF8862200F05BF80C2200F093
:101B300099F800284CBFFF209DF800005BE08DF86D
:101B40001C0007A8417082707047F8B5C8B0054600
:101B50000E4617461C46072200F03FF808A84670BC
:101B600087708DF8205000F059F88A21ADF80A10DE
:101B70003F2003210591ADF80800072100F045F84A
:101B8000002848BFFF200ED49DF8000058B94F9997
:101B90004E98BDF801202280BDF803300380BDF8C7
:101BA00005000880002049B0F0BD18B5C7B000F0AE
:101BB0003AF800F052F800F041F88E2100F042F8B7
:101BC00000F055F800284CBFFF209DF8000048B0F9
:101BD00010BD00238DF81C0070470021684600F0FE
:101BE0003FBDADF806203F21ADF8041070473F21FE
:101BF000ADF80410704748B0BDE8F081ADF806209C
:101C000007A9039101220492704708AA0791049240
:101C1000CDF818D0002102A8FFF762BA18220021DF
:101C200002A800F01DBD002304468DF800308DF899
:101C30001C4022460DF11D0000F00CBD07AA0392C6
:101C40003F207047ADF80400ADF806100122641C77
:101C50000692049470478DF800301822002101A8E4
:101C600000F0FEBC049207A9039101220692CDF870
:101C700014D0002101A8FFF733BA00000749002063
:101C8000087700220648027000F0F4BC03490A7F7E
:101C900041F82200087F401C08777047F8120020A6
:101CA000C213002000EB81025F49D2F88000884215
:101CB00001D001207047002070472DE9F041044613
:101CC0000D460026DFF8648102214046FFF7EAFF57
:101CD0000028F9D100F02AFD0120FFF702FC0027BF
:101CE00004E0381900F043F806467F1CAF4201D2E9
:101CF0003000F6D016B1ED1B6D1C09E00020FFF797
:101D0000F0FB00F023FD4FF48060C8F808000025C8
:101D10002846BDE8F0812DE9F843814688461646FD
:101D20000025424F02213846FFF7BCFF0028F9D1B9
:101D300000F0FCFC002409E008EBC400D0E900231B
:101D400009EBC40000F022F80546641CB44201D23D
:101D5000002DF1D015B1361B761C05E000F0F6FC25
:101D60004FF48060B86000263046BDE8F28301463B
:101D700082B0002001E00098401C009000982328C9
:101D8000F9D300220023002002B001E00146012027
:101D90002DE9F84F86B0012602250295049603919D
:101DA0008DF8000005919246204FDFF884809B4615
:101DB000EFF31089D8F800000103FBD472B6B869BC
:101DC00008B1012517E007213846FFF76BFF002512
:101DD000C4B284B99DF8000020B901A902A800F09E
:101DE00009FD05E0059952465B46012000F06EFCB6
:101DF0004FF48060F86189F310880DB1002001E094
:101E00001CB101200020C0460646254301D0300009
:101E1000D0D1D8F800004103FBD4701E8041C00F20
:101E200007B0BDE8F08F00000004008000140058E7
:101E30001040005820B501460648074D00E008381C
:101E4000C2798A4218BFA842F9D18A4218BF00203D
:101E500020BD00BFF873FF1F0070FF1F70B5044660
:101E60006078FF2802BFB4F8030000F47F40B0F5AB
:101E7000406F13D100250D4E00E06D1C327FE8B29B
:101E800090420BD2E9B256F8211020468847010053
:101E9000F3D003D0022806D0012070BD2046BDE853
:101EA0007040FFF719B8002070BD00BFF812002085
:101EB0000249034A01600261704700BF831F0008A6
:101EC000A91F0008006040607047EFF3108172B6F0
:101ED000026882420CBF012000201CE0EFF3108258
:101EE00072B603680B60486001600868416024E0D6
:101EF000EFF3108272B6086043684B604160486837
:101F000001601AE0EFF3108172B642680368136053
:101F100002684368536081F31088704710B5EFF38F
:101F2000108472B602680A600168FFE70846FFF78E
:101F3000E9FF84F3108810BD0B6082F310887047AE
:101F400000F04DBD6D486E49016001F12002426014
:101F500001F13003836001F14002026201F14803A4
:101F6000436201F15002C26001F15803036101F1C3
:101F70007402426101F1780383618431C16100F030
:101F80004CBD38B504465F4D2846FFF79BFF5B49C3
:101F90004868A1680160E2685B49C2604160856091
:101FA00000F057FD59482AE080B55448426813684C
:101FB00001211972406800F054FD002002BD38B5BF
:101FC000524C504D04E000F041F8009821688847D9
:101FD0002846FFF77AFF0028F5D031BD4B49486805
:101FE000004738B504464A4D2846006040604349E2
:101FF000C868A1680160456000F038FD4548216867
:10200000016062684260002032BD80B53B48C26812
:10201000136810211972C06800F033FD002002BD62
:1020200036483C4AC168C36811681868084738B523
:10203000384C374D04E000F009F800986168884793
:102040002846FFF742FF0028F5D031BD69462846F3
:10205000FFF764BF38B504462F4D2846FFF732FF1F
:102060002E480060406025480069A1688160E268F0
:10207000C260056121680160626842602169416156
:102080006269826131BD80B501462448FFF730FFA7
:10209000BDE802400FF2090000F001BD00000000A1
:1020A00038B5164C1D4D06E0FFF7D0FF00992069AA
:1020B0000069FFF71DFF2846FFF707FF0028F3D050
:1020C00031BD10B5164C2046006040600B49486990
:1020D0000460BDE8104000F0FBBC1CB5104C06E0ED
:1020E00069462046FFF71AFF0098C046C0462046C2
:1020F000FFF7EBFE0028F3D013BD00000000032023
:10210000B8090320580A03209C08032098130020D4
:10211000600A0320A0130020480A03209013002027
:10212000500A0320BFF34F8F574958480A6802F4FA
:10213000E06202430A60BFF34F8F00BFFDE710B5B6
:102140005348544C88B0016841F400410160FFF7E6
:1021500049F851480268042161F30202026000F06C
:10216000D3FC4E490020FEF700F900F008FD0121E4
:102170000120FFF73CF800F097F800F0A4F8484879
:10218000016841F480510160006800F480500090C3
:102190000098FFF7D7FE434A00210220FFF7FDF821
:1021A00004F23C500FF231010090019169460FF2A8
:1021B0002D0000F0A9F804F5C961039104F25470F0
:1021C000029040F23C510591049402A8FFF742FFAF
:1021D000FFF7B6FE08B010BD7047000070B50546A9
:1021E000686800F10B063188B1F5124F1ED100204E
:1021F00000F0CBFDB0784FF00054C0B9284801681A
:1022000021F4805101602078022802D10021217040
:1022100036E000F03FFD0120FFF77AF900210120B0
:10222000FEF7E5FFFEF78CFD0120287070BD002051
:10223000FFF71CF9FF2823D044F62065A0B92078C9
:1022400002280BD100212170FFF735F9002000F0A2
:1022500097FD0121002000F02DF9FAE702202070FF
:1022600000210020FFF70FF9002000F089FD28462B
:10227000FFF7D1F90020FFF7F9F810382028F6D33E
:10228000FFF750FF00BF00000CED00E00400FA056E
:10229000080000583C00032080040058D41200209D
:1022A000480100584B23000880B5002000F044FD91
:1022B000012000F041FD022000F03EFDBDE802409B
:1022C000012000F05DBD80B50121002000F06EFD11
:1022D0000121012000F06AFDBDE804400121022037
:1022E00000F064BDFEF799BF4FF0FF30FEF7B6BFB8
:1022F00000210220FFF75FB80220FFF77EB802201E
:10230000FFF783B8704700007FB50C464E4D6168FB
:102310004E4E28626962281D00F0B6FD2468746084
:1023200006F1080000604060012000F069F801201B
:102330003070696841B10FF2ED020FF2F1030092C3
:1023400001930294684688477FBD1FB53F4C04F156
:102350000800FFF7BAFDF8B92078E8B1694604F142
:102360000800FFF7DBFD3848016A49B10098029088
:1023700001228DF8042001A888479DF8040000E0A0
:102380000120207018B10098FFF77DFE04E000994D
:1023900004F10800FFF7A2FD04F10800FFF795FD26
:1023A00028B9207818B104F10800FFF7A1FF1FBD7C
:1023B0002DE9F04105460E4690461C46002000F0EF
:1023C0001FF8224F7868A0F80950C672324641467D
:1023D0000C30FEF727FE1C4A0120107000215269C4
:1023E0000020904748F2E800FFF789FF79688A7873
:1023F000D21C04F10800FEF715FEBDE8F0410120F3
:1024000010B51149124C496A20B901B18847002121
:10241000217010BD0120207011B1BDE810400847A7
:1024200010BD00000020FFF767BF000010B5014697
:10243000064C04F10800FFF75BFD04F10800BDE85D
:102440001040FFF755BF0000AC12002058130020C9
:10245000C3130020114810B5016841F48071016078
:102460000320FEF71CF9002000F018FD00240028CE
:1024700014BF012400F034FD204610BD0848007848
:102480007047084805E00748016841F00201016013
:102490007047016841F00101016070470040005839
:1024A000B4100020042004E01148016841F4807158
:1024B0000160704710B50C460E490028086805D128
:1024C000810507D500F02CFB20B110BD810558BF58
:1024D00000F020FB0848016821F00401012C016094
:1024E00001D130BF10BD40BF20BF20BF10BD0000D4
:1024F000000400581404005810ED00E010B504006A
:1025000001D1012010BD94F8210028B9002184F8E0
:1025100020102046C046C046022084F821002068D2
:10252000C168CA0635D4CA2141625320226850626C
:1025300000F034F801001AD12168DFF894008A68AD
:1025400002408A6022689368606821690343A06939
:102550000B43034393602068E168016120680169CF
:10256000A26841EA02410161204600F057F80100EB
:1025700009D12168CA6C22F00202CA642268D36CB5
:1025800061690B43D364FF22216803004A6204D1CE
:1025900000E00020012184F8211010BD20461BE03E
:1025A00038B504460B482168C86000F04DF8054670
:1025B0002068C168880608D400F046F8401B40F245
:1025C000E9318842F4D3032032BD002032BD00003F
:1025D000BFFF8FFF5F5F010070B5044600252068D4
:1025E000C1684A0618D4C16841F08001C16000F09A
:1025F0002BF806460AE000F027F8801B40F2E9318C
:10260000884203D3042084F8210001252068C16892
:10261000480601D42800EED0284670BD38B50446DF
:1026200000252068C16821F08001C16020688168B0
:10263000880607D42046FFF7B3FF18B1042084F8BA
:1026400021000125284632BD01484068704700BF7F
:10265000B410002010B50446FEF7E4FC204610BD7F
:1026600010B5044610460A460146204600F03AFCE2
:10267000204610BD80B5C046C046C046C046C046D4
:10268000C046C046C046C046C046C046C046C0461A
:10269000C046C046C046C046C046C046C046C0460A
:1026A000C046C046C046C046C046C046C04600F010
:1026B00075FCC046C046C046C046BDE8014000F0BB
:1026C000E3BC0000DFF800F0451000202DE9F041E8
:1026D000424F06463878884614461D46012808BFF2
:1026E00002201AD000F01BF8010014D1012E22465E
:1026F0002B4603D1404600F064F803E01146404603
:10270000FFF7E0FF4FF47A7000F02BF834490A68C5
:1027100022EA06060E6000213970BDE8F081012032
:102720003870002179604FF47A701AE02E49CA6837
:102730000020002A00D4704710B52C4A2C4C0A60A7
:102740000C60C968002948BF012010BD24490A68EF
:1027500042F000420A6000200968002958BF0120A9
:10276000704770B50446FFF76FFF05461D4E306891
:10277000C10306D5FFF768FF401BA042F7D3032033
:1027800070BD3068C10744BF01223260010404D526
:102790004FF40042326020F400404CF2FA3108401D
:1027A00004D00E4A30605060012070BD3068410393
:1027B00005D5FFF749FF401BA042F7D3DFE7002014
:1027C00070BD10B506490C6844F001040C6040F877
:1027D000042BBFF36F8F036010BD00003013002087
:1027E0001440005810400058084000582301674525
:1027F000AB89EFCDF8B5DFF8D44005462078012845
:102800000E4601D10220F2BD01202070002161603E
:1028100000F04BF8010044D12968022919D14FF08A
:10282000FF3232606F6800E07F1C6A68A9688A180E
:10283000974207D2384600F03CF800F036F8010025
:10284000F2D03760DFF88820DFF8881053690B403A
:102850005361DFF87C100A6893050FD50A6822F4EB
:1028600000720A600B6843F400630B600A6822F48C
:1028700000620A600B6843F400730B600A6853053A
:102880000FD50A6822F480620A600B6843F4805313
:102890000B600A6822F480520A600B6843F480637C
:1028A0000B60FFE700212170F2BD4FF47A70FFF753
:1028B00058BF09490A6822F4FF6242EAC00242F4A2
:1028C000803242F002020A6070470000301300209C
:1028D0000040005805F8FFFF14400058C068084049
:1028E000884201D10120704700207047C06908402C
:1028F000884201D1012070470020704710B5794C03
:1029000002212046FFF7F2FF38B16068C04381071B
:1029100003D5FFF78CFB022018E001212046FFF7CA
:10292000E5FF38B16068C043C10703D5FFF747FB37
:1029300001200BE008212046FFF7D8FF38B160687E
:10294000C043010703D5FFF7C8FB0820A06010BDF6
:1029500010B5644C02212046FFF7C0FF70B96068D3
:10296000C04382030AD500F035F841F400316160BC
:1029700080F31088BDE81040FFF752BB08212046C5
:10298000FFF7ACFF88B96068C04302030DD500F0C3
:1029900021F841F40021616080F3108852490868F1
:1029A00080474FF40022A26010BD20212046FFF78F
:1029B00095FF70B96068C04382020AD500F00AF83A
:1029C00041F40011616080F31088BDE81040FFF70A
:1029D00005BB10BDEFF3108072B6616870474348C5
:1029E00081B0016841F480110160006800F480103A
:1029F000009000983E48016841F4007101603D4834
:102A0000026842F40072026040BF20BF3A48016889
:102A100041F40041016001B0704780B5374801685A
:102A200041F480110160006800F48010009000986B
:102A30002C48016841F001010160026842F48032D3
:102A400002602C20FDF752FEBDE802402D20FDF76C
:102A50004DBEEFF3108072B629490A685208520041
:102A60000BE028494FF4803008607047EFF3108086
:102A700072B623490A6822F002020A6080F31088C5
:102A800070471F484FF400314160EFF3108172B678
:102A9000026822F40032026081F31088704738B572
:102AA0000446104D08212846FFF718FF58B10E487C
:102AB0000460EFF3108072B6696821F40021696048
:102AC00080F3108831BDA0474FF40020A86031BDCD
:102AD000EFF3108072B60A490A6822F00802CCE7C8
:102AE00000000000000C0058B013002050010058F6
:102AF00020080058D40800580C0400585000005812
:102B0000040C0058080C00581248016841F4007188
:102B1000016070471048016841F4804101607047CE
:102B20000D490E4B0A6822F480420A6018680C4A6C
:102B3000B0FBF2F23220504300E0401E4A69930598
:102B400001D50028F9D14869810501D503207047D6
:102B5000002070470804005800040058C8100020E6
:102B600040420F005B4900E05B4981B00A680243C4
:102B70000A60096808400090009801B070472DE98C
:102B8000F84185B0FFF77DFCFFF77DFC53480168F5
:102B900041F4803101606846142100F077FA504911
:102BA000504A0E88504B15881C884FF6FF7086429D
:102BB00027D100260025002400274C4800EBC70C35
:102BC0009CF80600B8B1DCF80000B0F1904F0FD0CF
:102BD000DFF81C81404507D0DFF8188140450AD155
:102BE000BCF80400044306E0BCF80400054302E01E
:102BF000BCF8040006437F1C262FDEDB0E80158008
:102C00001C800121019100200322310002900392D7
:102C100011D000960120FFF7A5FF0120FFF7A4FFC8
:102C200069464FF0904000F035FA002231464FF0EF
:102C3000904000F0E9FA280010D000950220FFF73C
:102C400091FF0220FFF790FF294E6946304600F0C1
:102C500021FA00222946304600F0D6FA200010D092
:102C600000940420FFF77EFF0420FFF77DFF214D35
:102C70006946284600F00EFA00222146284600F058
:102C8000C3FA1D491D4B00200880188006B0BDE81E
:102C9000F081000012491A4818B50A88114B828049
:102CA00087B01988104AC1801388134903810A88A4
:102CB000124B00BF13A142811C221C8884816846EC
:102CC000FEF7B0F9FFF7FDF96846FEF702FC08B021
:102CD00010BD00004C0000584C01005890080058EE
:102CE000CC100020CE100020D01000208837000823
:102CF0000004004800080048D2100020D410002032
:102D00002C00032000000000000000000000000074
:102D100088370008280003202C00032026040E001A
:102D2000494981B00A6802430A6009680840009076
:102D3000009801B07047000078B585B0044600F0F7
:102D40007EF80220FFF7ECFF47A1404E31F8145007
:102D5000009501210191002202210292039169460E
:102D600056F8240000F096F900F004F8002006B0B0
:102D700070BD000056F824000022294600F044BA35
:102D800010B500F00BF8012203E010B500F006F8D2
:102D9000002200F039FA002010BD000032A42B4BB5
:102DA00034F8101053F8200070470000F0B585B0DB
:102DB00004460D4600F043F8200005D0012C08BF62
:102DC000102002D0022C02D10120FFF7A9FF00BF82
:102DD00027A11F4E31F8140000900121022206EBBA
:102DE00084070291039238682DB900210191694648
:102DF00000F050F920E04FF40411019106EBC405F6
:102E0000694600F047F900BF1CA050F8241005F1F6
:102E1000240000F012FAFA68002105F1240000F005
:102E200005FA00BF14A00457B96900222046FDF737
:102E300040FC2046FDF75AFC002005B0F0BD1421EF
:102E40000022684600F04EB84C000058A810002040
:102E500008100020002000F0F6B9012000F0F3B9BE
:102E6000022000F0F0B90000200001000200000084
:102E70000100100040000000060A170000000016C4
:102E800004000016060000160249034A01600261B0
:102E9000704700BFE31F00080B20000870B50F4EFD
:102EA000044630780025A8B100F013FA32784FF4C8
:102EB0007A71B1FBF2F2B0FBF2F0FDF731FC48B9E8
:102EC000102C07D2002221464FF0FF30FDF7F1FB16
:102ED000B46000E00125284670BD00BFB41000209A
:102EE000704700004018491C1CBFB1F1010100F8F7
:102EF000012DF9D1704700001FB541780024FF294A
:102F000048D1B0F803104E4A40F60143C91A04D024
:102F100012392DD0091F19D03CE0B0F807105388A2
:102F2000491E99420BD1002100F10D028DF80C10C1
:102F300002920124B0F80B308DF80D3014E0D288E5
:102F4000914227D101248DF80C4006E0117A09B393
:102F50001472032101248DF80C1000F10D0202926D
:102F6000B0F80B008DF80D0002A800F0CBF911E0CD
:102F7000B0F80710D2884B1E93420BD100F10A0320
:102F800001930023427A00920022B0F80500FEF778
:102F900002FD0124204604B010BD000010B586B02B
:102FA0002848274CFEF772FE009408235FF00102C8
:102FB00025A10220FEF7EAFB002104910191A01C4B
:102FC00005900A2201230421039202930091042315
:102FD000B4F8000020A20221FEF726FC0021049193
:102FE00002910191201D05900A2220210392009157
:102FF000012320881CA20221FEF716FCA01D0590CB
:103000000121049100200A2203230190042103924C
:1030100002930091F823208817A20221FEF704FCF6
:103020000020207206B010BD1CB500910124044898
:1030300081880472012300880022FEF74FFC16BD30
:1030400074130020F92E00088FE5B3D52E7F4A981F
:103050002A487ACC20FE000019ED82AEED214C9D6D
:103060004145228E22FE000019ED82AEED214C9DDD
:103070004145228E23FE000019ED82AEED214C9DCC
:103080004145228E24FE000070470000002200F01F
:10309000E9B900002DE9F04F0024DFF878815E4E99
:1030A0004FF00F0902460B4631E05C4FBA4214BFA5
:1030B0004FF0070E4FF0040E0EFA01F141EA050E33
:1030C000574941F82CE0C74331685D683940ED024B
:1030D00048BF0143316071685D683940AD0248BF47
:1030E00001437160D8F800105D683940ED0348BFB6
:1030F0000143C8F80010D8F8041007EA010C596819
:10310000890348BF40EA0C0CC8F804C0641C186866
:1031100030FA04F176D00121A1400840F6D04FEA00
:10312000440C032505FA0CF56FEA050E5D6805F001
:103130000307012F1CBF05F00305022D10D1956870
:10314000DF680EEA050507FA0CF73D439560556800
:1031500025EA01015D68C5F30015A54029435160CA
:10316000A1001D7905F00305032D1ED0D5689F68C9
:103170000EEA050507FA0CF73D43D5601D7905F009
:103180000305022D11D1E50802EB850501F01C07AE
:10319000D5F820B009FA07FA2BEA0A0BD3F810A0E9
:1031A0000AFA07F747EA0B072F6215680EEA0507C8
:1031B0001D7905F0030505FA0CF545EA070CC2F880
:1031C00000C05D6815F4403FA0D0154D4FEA940C47
:1031D00055F82C5001F00C0109FA01F7BD43B2F18A
:1031E000904F08BF4FF0000E0BD00E4FBA4208BFF1
:1031F0004FF0010E05D00C4FBA427FF456AF4FF09E
:10320000020E59E7BDE8F08F0AB181617047816213
:10321000704700008008005800080058001000485F
:103220000800014000040048000800480346002050
:1032300009B95A6070470120704708B901207047EA
:1032400001600020704770474FF0B040006800F008
:10325000F000B02888BFB020704738B54FF0B045B7
:10326000244CA96811F00C0106D1FFF7EDFFC0F363
:10327000031054F8200032BD04291F4828D0082923
:103280001E4A04D12968C90222D4104632BDE96819
:1032900001F0030102290CD0032904D12968C902D5
:1032A00007D4104605E0FFF7CFFFC0F3031054F832
:1032B0002000E968EA68EB68C1F306214843C2F3DD
:1032C0000211491C5B0FB0FBF1F05B1CB0FBF3F08B
:1032D00032BD80B5FFF7C1FF0549FFE7084A09681D
:1032E000C1F3031152F82110B0FBF1F002BD000050
:1032F00008000058F83800080024F4000048E801ED
:10330000B8380008F8B506464B4D307920B1012891
:1033100024D0032857D0F1BD31680A78012A4FF034
:10332000006004D0022A09D0072A0FD0F1BD002383
:1033300028606B7400F08CF82B74F1BD01212860BB
:10334000697400F085F800212974F1BD01228DF81F
:10335000002069460220FFF767FEF1BD747900275F
:103360001EE0316805F1080339441844FDF75AFEA0
:1033700000F068F80028FBD1D5F800C0D5E9022399
:10338000DCE90001994208BF904209D10CF1080024
:103390002860287CC0F10800241AC719002028746E
:1033A000287CC0F108029442DBD2002CC5D03168E1
:1033B00005F10803224639441844FDF733FE287C02
:1033C00024182C74F1BD287CA8B1C0F1080105F1C6
:1033D0000803FF221844FFF785FD03E000F032F8F0
:1033E0000028FBD12C68D5E90223D4E900019942D9
:1033F00008BF9042F2D16C7C94B1012C9DD14FF06A
:10340000005100200870BFF34F8F0C490C480A6828
:1034100002F4E06202430A60BFF34F8F00BFFDE792
:103420000020FEF723F80020FEF720F801210020FD
:10343000FFF740F8FAE70000181300200CED00E059
:103440000400FA052868012205F10801FEF763BCB3
:103450003068C1782970326890786870316848782F
:10346000A870704700B500BF130096469446103907
:1034700028BFA0E80C50FAD85FEA417C28BF0CC0F6
:1034800048BF40F8042BC90728BF20F8022B48BFCB
:1034900000F8012B00BD00004E490A68920840EA7E
:1034A0008200086070474B48006800F00C007047CD
:1034B00000EB81024849D2F88000884201D0012007
:1034C00070470020704780B500F0AAF843480168B3
:1034D00041F40001016000F05FF841480921816179
:1034E0000321026800F00EF8016001BD704780B54D
:1034F00000F096F800F050F839480268012100F019
:1035000001F844E061F3020202603648016841F0CC
:103510000401704738B5344C4FF48065256100F0E4
:103520002CF80028FBD14FF0B040816801F00C016D
:1035300004291DD1016841F48031016001212B482B
:10354000026861F302020260036803F00703012BC3
:10355000FAD14FF0B04001688903FAD502218268A0
:1035600061F301028260816801F00C010829FAD13F
:10357000E560BDE8314000F05BB80321204697E7E5
:1035800080B500F04DF81748016821F00401016092
:1035900030BF01BD00F04CB870B5134CFFF7EDFF24
:1035A0000028FBD10421FFF7E9FF104D4FF480669E
:1035B00038B90F480168090402D40068400506D5EF
:1035C000266100F017F82868C008C0002860E6608F
:1035D00070BD0000080000580004008094000058EE
:1035E0000004005810ED00E000140058004000589E
:1035F0008804005810B54FF0B044206840F4807043
:10360000206020684105FCD50120FFF745FF606A76
:10361000800880006062FFF746FF0428FBD110BDE0
:103620000248016821F002010160704710E000E0EB
:103630000248016841F002010160704710E000E0BB
:103640004749484809680268B1F1006F0AD312037C
:1036500002F47F22444882188A4203D3086843490F
:10366000884201D0002070470120704780B5404952
:1036700040480860026882F308884068804730BF8D
:1036800001BD10B5FFF7DCFF4FF0005420B1002062
:103690002070BDE81040E9E701210E20FF222170D3
:1036A0006070A27010BD38B5334C2068C00002D4E1
:1036B000206880011AD54FF00055287828B9FFF707
:1036C000BFFF10B1FFF7D2FF12E0287848B9FFF72B
:1036D000B7FF30B901200E21FF2228706970AA704F
:1036E00006E02878012818BF022801D0FFF7C9FF9B
:1036F0002248016841F4700101600020FEF79AFB46
:1037000040B180791E49A160A26822F47C5242EA4D
:103710000022A2604FF0B040016841F480310160A6
:1037200001211848026861F302020260016801F099
:1037300007010129FAD14FF0B04001688903FAD599
:103740000221826861F301028260816801F00C014C
:103750000829FAD1016849084900016031BD00001B
:103760004071000880400058FCFFFF07298A4494FC
:1037700008ED00E0007000089400005888ED00E0BB
:10378000FECAFECA004000580000004801000000C8
:103790000000004801000000000000480100000097
:1037A0000000004801000000000000480100000087
:1037B0000000004801000000000000480100000077
:1037C0000000004801000000000000480100000067
:1037D0000000004801000000000000480100000057
:1037E0000000004801000000000000480100000047
:1037F0000000004801000000000000480100000037
:103800000000004801000000000000480100000026
:103810000000004801000000000000480100000016
:103820000000004801000000000000480100000006
:1038300000000048010000000000004801000000F6
:1038400000000048010000000000004801000000E6
:1038500000000048010000000000004801000000D6
:1038600000000048010000000000004801000000C6
:1038700000000048010000000000004801000000B6
:1038800000000048010000000000004801000000A6
:103890000000004801000000000000480100000096
:1038A0000000004801000000000000480100000086
:1038B00000000048010000000100000003000000BB
:1038C00005000000010000000100000006000000EB
:1038D0000A000000200000000200000004000000B8
:1038E0000800000010000000400000008000000000
:1038F0000001000000020000A0860100400D03004E
:10390000801A060000350C0040420F0080841E0023
:1039100000093D0000127A000024F40000366E0118
:103920000048E801006CDC0200000000000000001C
:103930000000000000000000000000000000000087
:103940000000000000000000000000001E00040055
:103950000A0502011C3CFB00F4010000FFFFFFFF11
:10396000480101000020D80600029E01000000006E
:103970000D00040000F01AF801280CD08AB00848A5
:103980008047084800472DE9F05F074C6B462360ED
:10399000BFF34F8F30BF044C2468A546BDE8F09FAD
:1039A000A7360008353B0008B81300200249002064
:1039B0000860704700000000BC13002030B40025F0
:1039C00012E050F8042BD30744BF4A44521E091F8B
:1039D000042942F8045BFAD213468C0744BF1580D1
:1039E0009B1CC90748BF1D7050F8041B0029E8D173
:1039F00030BC70477047FEE770477047704700F073
:103A00000FB87047704770470020FDF779B9002064
:103A1000FDF77CB9FCF74FBCFEF79ABFFEF76EBF0F
:103A20000248416802788A1842607047B41000204A
:103A300010B500F013F8020000230024E4431068DE
:103A4000A04203D011000220ABBE13605068A04218
:103A500003D0111D0220ABBE536010BD004870475B
:103A6000C010002010B5074979441831064C7C4439
:103A7000163404E00A68081D114488470146A14233
:103A8000F8D110BD2C000000680000004EF68851EF
:103A9000CEF20001086840F470000860BFF34F8F59
:103AA000BFF36F8F4FF00170E1EE100A7047000016
:103AB0000DFFFFFFEC020000D8100020700800008E
:103AC0003C00032000000000CFCCFFFF14000000EA
:103AD000980000002800032000000000BBCCFFFF7E
:103AE000D00000003C010000081000200000000091
:103AF0000120C046002801D0FFF7B4FFAFF30080DB
:103B00000020AFF30080FDF709FD00F000F800F0A1
:103B100001B800000746384600F002F8FBE7000055
:103B200080B5FFF785FF024A11001820ABBEFBE706
:103B3000260002000548014603B4684680F3098860
:103B4000AFF30080FFF7A2FFFFF7D2FFA5EDF5FE70
:103B50008135000895350008EF3400081535000858
:103B6000C7340008ED340008000000000000000029
:103B7000000000000000000000000000FFF7FEBF92
:103B8000FFF7FEBFFFF7FEBFFFF7FEBFFFF7FEBF69
:103B9000FFF7FEBFFFF7FEBFFFF7FEBFFFF7FEBF59
:103BA000FFF7FEBFFFF7FEBFFFF7FEBFFFF7FEBF49
:103BB000FFF7FEBFFFF7FEBFFFF7FEBFFFF7FEBF39
:103BC000FFF7FEBFFFF7FEBFFFF7FEBFFFF7FEBF29
:103BD000FFF7FEBFFFF7FEBFFFF7FEBFFFF7FEBF19
:103BE000FFF7FEBFFFF7FEBFFFF7FEBFFFF7FEBF09
:103BF000FFF7FEBFFFF7FEBFFFF7FEBFFFF7FEBFF9
:103C0000FFF7FEBFFFF7FEBFFFF7FEBFFFF7FEBFE8
:103C1000FFF7FEBFFFF7FEBFFFF7FEBFFFF7FEBFD8
:103C2000000000480010004800000048552E000821
:103C30005B2E0008612E00080F0000000F0000003E
:103C40000F00000000000000000000000000000065
:103C500000000000000000000000000030B50A4B2A
:103C60005A6842F480225A60EFF3108472B68022C0
:103C700051F8045B40F8045B521EF9D11868C10387
:103C8000FCD484F3108830BD1040005800000000C0
:103C90000000000000000000FFFFFFFFFFFFFFFF2C
:103CA0000000000000000000000000000000000014
:103CB0000DFF018600000000000000000000000071
:103CC000000400480004004800040048010000000F
:103CD0000000000010000000FFFFFFFFFFFFFFFFDC
:103CE00000093D00FFFFFFFFFFFFFFFFFFFF000098
:0400000508003B357F
:00000001FF
