:020000040800F2
:100000000810002001A60008C5A20008C7A2000829
:10001000C9A20008CBA20008CDA200080000000081
:10002000000000000000000000000000CFA2000857
:10003000D1A2000800000000D3A20008D5A2000849
:1000400011A6000815A6000819A6000829A3000893
:100050001DA6000821A6000825A6000829A600085C
:100060002DA6000831A6000835A6000839A600080C
:100070003DA6000841A60008E5A2000845A6000824
:1000800049A600084DA6000851A60008DDA20008F8
:10009000D9A2000855A6000859A600085DA60008C8
:1000A00061A6000865A6000869A600086DA60008FC
:1000B00071A6000875A6000879A600087DA60008AC
:1000C00081A6000885A6000889A600088DA600085C
:1000D000EBA20008F1A2000891A6000895A600086E
:1000E00021A3000899A600089DA60008A1A6000863
:1000F000F7A20008FBA20008FFA20008A5A60008BE
:10010000A9A60008ADA60008B1A60008B5A600087B
:10011000B9A60008BDA60008C1A60008C5A600082B
:10012000C9A60008CDA6000803A30008D1A60008B0
:10013000D5A60008D9A60008DDA6000840F02000DA
:1001400070472DE9F14FB0B0924604910DF1420194
:100150003A9A2B9199464A7000200AE01AF8011B3E
:100160000498309A90470028049000F044860D9837
:10017000401C0D909AF8000058B12528EED10020BF
:10018000002100220790089109920A910B920C918C
:1001900004E00D9800F031BE41F001011AF8010FA2
:1001A0002028F9D023280CD02B2804D02D2805D0C6
:1001B000302809D00BE041F00201EFE741F00401E3
:1001C000ECE741F00801E9E741F01001E6E72A28F1
:1001D0000FD1D9F8002052F8040BC9F800200028EC
:1001E0000F9003D540420F9041F004010AF1010A3B
:1001F00014E00F92DFF8082C0AE00F9B934205DA17
:1002000003EB830400EB440030380F900AF1010A3D
:100210009AF80000A0F130030A2BEED39AF80020E0
:100220002E2A03D04FF0FF300E9029E01AF8010F6C
:100230002A2809D1D9F8002052F8040BC9F8002067
:100240000E900AF1010A1BE02D280CBF0AF1010AE9
:10025000002000220E92DFF8A84B0BE040B90E9B65
:10026000A34205DA03EB830502EB4502303A0E9216
:100270000AF1010A9AF80020A2F130030A2BEDD30B
:10028000ADF840100FF67C309AF8001000F0BEFE7A
:1002900008B11AF8010B8DF842009DF84200682859
:1002A00005D19AF8001068290CD1622006E06C286C
:1002B00004BF9AF800106C2904D171208DF8420017
:1002C0000AF1010A12AA06921AF801BBBBF1250035
:1002D0002CD01C3800F09781001F022840F2938137
:1002E000133800F0BA84093800F08D81801E00F0C8
:1002F0004F85401E00F0FC84401E022840F283819E
:10030000001F00F0F584401F00F0F280401E00F056
:10031000A484401E00F0DA80C01E0ED0801E00F0C3
:100320009C84C01E00F0998400F03DBD012225216F
:1003300007928DF8481000F042BDD9F8000050F83F
:10034000044BC9F80000002C059440F0AB802B99B9
:100350004878002800F0A1804FF0FF340FF6AC2061
:1003600000F060FE241A40F0468500F028BD01230D
:100370006A4602A9304600F00DFE002840F03B8599
:10038000641EF4D13096079C12AF74B1309E17F8FA
:10039000011B0498B0470028049000F02C850D98AC
:1003A000401C641E0D90F2D130960A9C3021002C26
:1003B0008DF800100CDD309E01236A4602A93046FC
:1003C00000F0E8FD002840F01685641EF4D1309658
:1003D000059F089C74B1309E17F8011B0498B04724
:1003E0000028049000F007850D98401C641E0D90B5
:1003F000F2D130960B9C3021002C8DF800100CDDD2
:10040000309E01236A4602A9304600F0C3FD002851
:1004100040F0F184641EF4D1309605980899099C47
:10042000471874B1309E17F8011B0498B047002894
:10043000049000F0E0840D98401C641E0D90F2D1F1
:1004400030960C9C3021002C8DF800100CDD309E75
:1004500001236A4602A9304600F09CFD002840F0C6
:10046000CA84641EF4D130969DF8400041077FF5A0
:1004700081AE2020002D8DF800007FF77BAE309CF0
:1004800001236A4602A9204600F084FD002840F0BE
:10049000B2846D1EF4D130946CE60FF6583005909E
:1004A00000F08DBC0E9D002D04D5204600F0DAFD35
:1004B000044608E02A460021204600F0EFFD00280F
:1004C00014BF041B2C46089400F079BCD9F8001026
:1004D00051F8040BC9F8001020F00002002121F0AF
:1004E000FF33CDE9022312AC0594782100F04CBC17
:1004F0002B99487820B14FF0FF340FF6C8202FE732
:100500009DF84200622860D0682817D06A283FD042
:100510006C2806D0712847D074282CD07A281DD09A
:1005200062E0D9F8001051F8040BC9F80010002857
:1005300066D14FF0FF340FF6A42011E7D9F8001070
:1005400051F8040BC9F8001020B94FF0FF340FF632
:100550008C2005E70D99018000F031BCD9F800101E
:1005600051F8040BC9F80010002849D14FF0FF34AE
:100570000FF66820F4E6D9F8001051F8040BC9F81A
:10058000001000283CD14FF0FF340FF65020E7E672
:10059000D9F8001051F8040BC9F8001080B94FF0D9
:1005A000FF340FF63820DBE6D9F8001051F8040BC1
:1005B000C9F8001020B94FF0FF340FF62020CFE625
:1005C0000D9AD317C0E90023F9E3D9F8001051F8C8
:1005D000040BC9F8001020B94FF0FF340FF6FC10DF
:1005E000BEE60D990170EAE3D9F8001051F8040B4A
:1005F000C9F8001020B94FF0FF340FF6E010AFE655
:100600000D990160DBE39DF842004C2807BFD9F843
:100610000010CA1DD9F80000C21D22F00702C9F857
:100620000020D2E900010832C9F80020CDE902011A
:10063000C80F02D007982D210AE0BDF840008107BD
:1006400002D507982B2103E0C00705D50798202184
:1006500012AA1154401C079012A807994BF02003CE
:1006600000EB010CDDE90201CDE92C01612BCDF895
:1006700014C021AC0BD00E98002848BF062105D429
:1006800004BF4BF02000672801D101210E91DDE964
:1006900002014F0047EAD0777E15FF174FF0FF3277
:1006A000974208BF964210D1090341EA1051000356
:1006B000002908BF002808D0ABF1610503211A2DDD
:1006C000089118D30FF6341110E0DDE902014A0059
:1006D000521512F1010F11D108030FD1ABF16105D1
:1006E00003211A2D08911FD30FF61811032260461B
:1006F00000F000FD63E30FF60011F7E7DDE902010A
:100700006A4600F003FDCDE902014BF020006128AC
:1007100011D1059830220270811C0591BBF1610F47
:100720000CBF7821582102E00FF6D401DEE74170BA
:100730000798801C0790DDE9020120F0000231F0EB
:10074000004308BF002A02D10026002542E14BF0F9
:100750002008B8F1610F40F092800E99002947BF40
:1007600021200190491C0191019FDDE92C017F1C92
:1007700000220023DDE9024500F000FD38BF85F0CE
:10078000004500988DF88420001F002F00900DF187
:10079000850632DD204629460022002300F008FDB0
:1007A0002BD21C2200F01EFD04460D4600F0B8FDC1
:1007B000FF1F002F804609DD00F0CEFD02460B46EC
:1007C0002046294600F090FE04460D46F01D072104
:1007D000B8F1000F0CDD491E5EBF08F00F0200F8F3
:1007E000012D4FEA2818F3D502E0002200F8012D70
:1007F000491EFAD5C61D002FCCDC0DF18500361A36
:1008000001980DF185048642D8BF304600282FD4C8
:10081000B04206DA0DF185010A5C082AA8BF0F2153
:1008200000DA0021024621AB134400E0401E13F819
:100830000159521E8D42F9D00F2904D10DF18501C5
:100840008B5C5B1C8B54002A04D50099091D21ACDC
:10085000401C0091411E0BD4621813783033DDB276
:100860003A2DA4BF5B443A3B491E02F80139F4D546
:100870000E9A002A40F1AC80411E0E91A8E000992A
:10088000DFF8002747F29750414391FBF2F20092C4
:10089000DDE92C45C2F10702002A25F0004504DD00
:1008A0002046294600F04AFB0BE052420020DFF8C8
:1008B000D81600F043FB02460B462046294600F0BE
:1008C00085FE04460D46B8F1660F06BF009F0A3745
:1008D00006270E983F18142FC8BF142730208DF814
:1008E00084000DF18506002F34DD2046294600F0F6
:1008F00091FF01460A4606F1080304200A26B2FBCE
:10090000F6F606EB860EA2EB4E02303203F8012C0F
:100910000A22B6FBF2F202EB820EA6EB4E0630364E
:10092000401E03F8026DE9D1083F002F03F10806CD
:10093000D9DD084600F080FF02460B4620462946D6
:1009400000F0D2FD0022DFF8443600F083FF0446B9
:100950000D46CAE70DF18500361A0DF1850404E055
:100960000098401E761E0090641C20783028F7D036
:10097000B8F1660F02D10098401C04E0B8F1650F91
:100980000CBF012000200E9940188642B8BF701E8F
:1009900000281DD4B04204DA215C3429C8BF3921B3
:1009A00000DC30210246631E9D1800E0401E15F851
:1009B0000169521E8E42F9D0392902D1A15C491C2D
:1009C000A154002A04D50099491C1C46401C0091E2
:1009D0000646009D01F014F8406A0778DDF838807B
:1009E00030B2002802DC01260FF21C644BF020001C
:1009F000662808BF6D1C16D0672845D128B210F1B3
:100A0000040F47DB404545DA9DF840006D1C0107A7
:100A100003D430B24045D8BF804628B2B8EB0008B6
:100A200048BF4FF000080FFA85FBBBF1000F00F341
:100A3000B3800898411C0891302205990A54B8F1F6
:100A4000000F03DC9DF84000010704D50898411C05
:100A5000089105990F5418EB0B0FB8BFC8F10005AA
:100A60002DB26842454432B20B909542B8BF2E4633
:100A7000059B089836B2099632462146184400F084
:100A800039FBAD1B0C95D1E0BBF1610F17D14FF0D5
:100A9000700B19E030B2404504DA9DF840100A07A7
:100AA00058BF8046B8F1010848BF4FF00008BBF1BD
:100AB000670F14BF4FF0450B4FF0650B04E0BBF11F
:100AC000410F08BF4FF0500B0898411C0891B8F136
:100AD000000F059914F8012B0A5403DC9DF840001F
:100AE00001071AD50898411C0891B8F1000F059923
:100AF0000F5412DD761E30B28045B8BF46460598C9
:100B0000089B32B22146184400F0F4FA089836B235
:100B100030180890A8EB06000B900598089901443E
:100B200028B2002881F800B003D42B204870891C1B
:100B300004E02D224A700546891C6D4200202CAA33
:100B40000AE02B460A2593FBF5F505EB8504A3EB9C
:100B5000440302F8013B401C2DB2002DF1DC0128BA
:100B600006DC4BF02002652A04BF302201F8012B7D
:100B700000282CAA08D1302001F8010B06E0401E05
:100B8000135C303301F8013B0028F8DC059A089823
:100B90001044091A099149E030B229B288421CDA9E
:100BA0000598089B32B22146184400F0A3FA089930
:100BB00036B271180891ABEB0600B8F1000F0B903C
:100BC00003DC9DF84000020704D5059847540999B5
:100BD000491C0991CDF8308028E00598089B2AB27D
:100BE0002146184400F086FA0898761B5844B8F15C
:100BF000000F089003DC9DF840100A0703D5411C44
:100C0000089105990F5430B28045B8BF4646059803
:100C1000089B32B204EB0B01184400F06BFA089801
:100C200036B230180890A8EB06000B909DF84000F3
:100C300000F01400102840F0C280079A08980B9921
:100C4000821809988A1882180C980F99801888427F
:100C500080F2B580081A0A90B1E09DF8420062283F
:100C600008D068280ED06A2814D06C281FD07128AC
:100C700010D01CE0D9F8001051F8040BC9F800108E
:100C8000C0B21AE0D9F8001051F8040BC9F80010EE
:100C900080B212E0D9F80000C21D22F00702C9F8A4
:100CA0000020D2E900010832C9F8002006E0D9F896
:100CB000001051F8040BC9F800100021CDE9020121
:100CC0009DF8400002075AD5DDE90201002908BF5E
:100CD000002854D04BF02002782A50D1079812A94E
:100CE00030230B54401C421C079201F800B046E030
:100CF0009DF84200622808D068280ED06A2814D0D7
:100D00006C281FD0712810D01CE0D9F8001051F8C1
:100D1000040BC9F8001040B21AE0D9F8001051F8DD
:100D2000040BC9F8001000B212E0D9F80000C21D8F
:100D300022F00702C9F80020D2E900010832C9F800
:100D4000002006E0D9F8001051F8040BC9F8001093
:100D5000C117CDE90201002902D507982D210AE02B
:100D6000BDF84000810702D507982B2103E0C0079A
:100D700005D50798202112AA1154401C079012A8EB
:100D8000079901440591594602A800F04DF816E074
:100D900001200790D9F8001051F8040BC9F8001091
:100DA0008DF848000BE001202521BBF1000F0790D2
:100DB0008DF8481003D0022107918DF849B00F9D9E
:100DC00007980A992D1A08986D1A0B992D1A0998E7
:100DD0006D1A0C992D1A9DF840006D1A41073FF5C8
:100DE000D2AA2020002D8DF800007FF7CCAA309EDB
:100DF0002C46FFF7BCBA4FF0FF3031B0BDE8F08FA2
:100E0000CBCCCC0C686A6C747A4C00007072696E42
:100E100074665F733A206261642025732061726793
:100E2000756D656E740000002DE9FC4D0646884620
:100E3000376940466F2808BF082405D0FFF77EF9C0
:100E4000782814BF0A241024D6E900013C258246E4
:100E50008B46B8F1640F18BFB8F1690F05D10029AE
:100E600003D5DAF1000A6BEB4B0BBBF1000F08BFA7
:100E7000BAF1000F0CD1306B50B9082C3AD196F86A
:100E80003800010736D530223B2587F83B2031E07A
:100E90008DF80080504659462246002300F0B4FDEC
:100EA0003032D0B26D1E3A2801950EDA7A5550468E
:100EB00059462246002300F0A7FD82465FEA010B57
:100EC00008BFBAF1000F05D108E09DF80000121824
:100ED000513AEBE7F06879198842DBD3082C09D145
:100EE00096F83800010705D5785D302802D06D1ED0
:100EF00030207855C5F13C02306BB26179198242DD
:100F0000F16008DA318F821A4FF6EF7001403187B5
:100F10003262BDE8F38D00280ED596F8380000F057
:100F20001400102808D1736B7069316A1B1A5B1AA0
:100F30009B1A002BC8BF3362BDE8F38D2DE9D04367
:100F400006460F4614464FF00008DFF8449012E0C2
:100F5000E00707D542464B463046394600F07AFC5A
:100F600006460F464046494642464B4600F072FC54
:100F7000641080468946002CEAD130463946BDE8E7
:100F8000D0830000A08601000000F03F84D7974185
:100F900000002440F8B505460E4617461C460020C2
:100FA0005CB117F8011BB068A847B06030B1F06AB7
:100FB000401CF0620020641EF3D1F2BD4FF0FF3000
:100FC000F2BD00007072696E74665F733A20256E20
:100FD00020646973616C6C6F776564007072696E10
:100FE00074663A2062616420256E20617267756DB7
:100FF000656E7400000000006E616E004E414E0090
:10100000696E6600494E460030002E00C9B2027873
:101010008A421AB11CBF10F8012FF9E718BF00204F
:101020007047704780B500B906A005490B681BB131
:1010300022220021984701E000F069FD222002BD34
:10104000E4390020636F6E73747261696E74206896
:10105000616E646C65723A20626164206D657373C1
:101060006167650000F10103810704D010F8011BDE
:10107000820781B1FAD10268A2F10131914311F0E6
:10108000803104BF50F8042FF6E709BAB1FA81F1B4
:1010900000EBD100401CC01A70477047C9B28307EB
:1010A00006D0521E22D310F8013B9942F7D11FE01F
:1010B000083A13D302F1040241EA012141EA014155
:1010C00050F8043B121F21BF4B40A3F1013C2CEA16
:1010D000030C1CF0803FF3D0C9B2001F0832521E2F
:1010E00024BF10F8013B91EA030FF8D818BF012084
:1010F000401E70474AB1000011F8013B521E00F833
:10110000013B1CBF11F8013BF8E7704710B51446CE
:1011100000F002F8226010BDC1F30A5343B14A0047
:1011200012F5001F28D2A3F2FE32A1EB0251704744
:1011300050EA410C20D001F0004C31EA0C01B1FA28
:1011400081F204BFB0FA80F3D2180B3AB2F1200357
:101150002CBF00FA03F1914041EA0C013EBFC2F1FD
:10116000200C20FA0CF319439040524240F2FD3318
:10117000D21A01EB035170470022704741EA030C79
:1011800050EA4C0C52EA0C0C4FF4001C09D307D067
:101190001CEB410F9CBF1CEB430F8B4208BF8242EC
:1011A00070471CEB430FFBD8994208BF9042704731
:1011B00041EA030C50EA4C0C52EA0C0C4FF4001CB0
:1011C00009D307D01CEB410F9CBF1CEB430F994286
:1011D00008BF904270471CEB410FFBD88B4208BF01
:1011E00082427047124254D440F2FF7C1CEA1153F1
:1011F0000FD0634531D09B1863453CBF01EB0251D2
:10120000704701F0004141EA0C510020AFF300802B
:10121000704750EA410320D001F0004C91EA0C01E4
:101220001CD0B1FA81F30B3B9A420DD9D21A9940E6
:1012300051EA0C01C3F1200C20FA0CFC61449840E7
:10124000531C40F2FF7CD7E7914041EA0C01C2F108
:10125000200C20FA0CF3194390407047B0FA80F349
:101260001533202BE0D3202AEED3203A203B9A429C
:1012700009D9D21A00FA03F141EA0C010020531CEB
:1012800040F2FF7CB8E700FA02F141EA0C010020CD
:101290007047524240F2FF7C1CEA11530DD0634567
:1012A000DBD0B2EB030C3CBFA1EB025170470CF159
:1012B000010221EA035141F4801150EA410CCCD0E3
:1012C00001F0004C352A27DC30B481EA0C01B2F180
:1012D000200309DAC2F12003044601FA03F5D040E5
:1012E0002843D1409C400CE0C3F12002450020FA85
:1012F00003F418BF44F0010421FA03F091400C43B9
:10130000002174F1004550F1000051EB0C01244222
:1013100030BC7FF47BAF70476146002076E7000069
:10132000C1F30A5340F21E42D31A0CDDCA0283F302
:10133000070342EA505242F00042DA4002EBE17207
:1013400082EAE17070476FEAE17203F2E13008B1BE
:1013500082F000407047000010F0004160B148BFCB
:101360004042B0FA80F29040D21CC2F5846241EA59
:10137000025202EBD021400570470000841A71EB45
:10138000030604D26E40001BB141121973414FF4A1
:10139000001C1CEB410F34BF7CEB430683E00C0DBB
:1013A000A4EB1356362E00F37C80012E45EAC323AE
:1013B00041DC43EA525312BFD20292025B08240579
:1013C00045EAC12141EA5051D2EBC020994125D4D0
:1013D00007D1B0FA80F610FA06F162D0002020366C
:1013E00008E0B1FA81F6B140C6F1200220FA02F21B
:1013F0001143B0404FEAF474B4EB465434F00106A4
:101400004FEA74040AD8D6F50016760D04F00044AD
:10141000F04061FA06F25040F1404840C00A40EA0C
:10142000415021F0004128BF5FEA500550F1000013
:1014300044EBD12135E0DB0A45EAC121C90AB6F106
:1014400020050EDD42EA0242120CC5F1200603FA25
:1014500006F6EB4042EA06056D42984161F1000153
:101460000DE062FA06F5F240554063FA06FC82EAA6
:101470000C02F3405A406D42904161EB030111F4BC
:10148000801F05D1641E620502D06D0040414941B4
:1014900021F48011430875F1004350F1000041EB45
:1014A000045170BC70471CEB410F15D223F0004370
:1014B00052EA43060BD04FEA4C0CBCEB410F04D868
:1014C0000C0D661E342EB7DDEBE7801A994150EA09
:1014D000410608BF0021E4E708BF1CEB430F28BF0B
:1014E0006FF00001DDE7000070B491EA030F4FF0E8
:1014F00000457FF543AF6B40841A71EB030603D2BE
:10150000001BB141121973414FF4001C1CEB410F39
:1015100034BF7CEB430442E00C0DA4EB1356352E94
:101520004FDC45EAC323DB0A45EAC121C912B6F103
:1015300020050DDD63FA05F6EB4086EA030512424D
:1015400018BF45F00105C01851F100010CD213E09D
:1015500062FA06F5F2405540F3415A40B340F34079
:101560005A408018594107D349085FEA30005FEAC2
:10157000350528BF45F0010501F58011420875F1D8
:10158000004250F1000041EB04514E0016F5001FDF
:1015900070BC38BF70470020090D090570471CEB6F
:1015A000410F10D252EA43060BD0BCEB410F05D8D5
:1015B0000C0DAB43661E342EB6DD02E0AB43801843
:1015C000594170BC704770BC70470000F0B540F2E4
:1015D000FF7581EA030C0CF0004C15EA11541DBF95
:1015E00015EA1357AC42AF42E5E0BC41C1F3130129
:1015F000C3F31303801A994143F4801304D2641E89
:101600000018494180185941C90241EA5051B1FBC3
:10161000F3F603FB1611A2FB0675D7EBC020A94118
:1016200002D2761E80185941C90241EA5051B1FBDD
:10163000F3FE03FB1E11A2FB0E75D7EBC020A941E0
:1016400003D2AEF1010E80185941890241EA90514E
:10165000760546EA8E2EB1FBF3F603FB1611A2FBCC
:101660000675D7EB8020A94102D2761E8018594119
:10167000C90241EA50514EEA060EB1FBF3F603FBF4
:101680001611A2FB0675D7EBC020A94102D2761E27
:1016900080185941C90241EA5051B1FBF3F703FBED
:1016A0001711A2FB0735D3EBC020A94167F1000752
:1016B0000CBF004247F0010766F3D5274FEA1E3101
:1016C000B80814F5806412DDBD0775F1004250EBD7
:1016D0000E5051EB045111F5801F5CBF41EA0C0123
:1016E000F0BD4CF07F6141F0E0410020F0BDBD074E
:1016F0006D0840EA0E5041F48011D4F10104B4F1B8
:1017000020060ADAC4F120060200E04001FA06F3DE
:10171000E1401843B24015430EE0342C13DCC6F10F
:10172000200445EA40056D0820FA06F2154321FA27
:1017300006F0A1400D43002175F1004250F1000078
:1017400051EB0C01F0BD00205FEA0C01F0BDCFB9F8
:1017500092185B41B3FA83F704BFB2FA82F6BF195D
:101760000B3FB7F120062FBF02FA06F3BB40C7F1CB
:10177000200622FA06F638BF3343BA401CB1E419FA
:10178000641E33E77F4231F00041B1FA81F404BFB7
:10179000B0FA80F6A4190B3CB4F120062FBF00FA72
:1017A00006F1A140C4F1200620FA06F638BF314305
:1017B000A0403C1B1AE7AC421ABF05EA1357AF42E0
:1017C00012E050EA41061CBF52EA4306BFE750EA66
:1017D0004107304661461CBF41EA0551F0BD52EA5F
:1017E000430C08BFC143F0BD00204FF4001616EBB8
:1017F000410F98BF16EB430F08BF16EB410F24BFF4
:10180000C14305E016EB430F0CBF61464CEA05519E
:10181000F0BD0000400D40F21E4C40EAC120BCEB80
:10182000115C40F0004003D48CF30701C8407047BE
:101830006FEAE1707047000050B1B0FA80F1884063
:10184000C91CC1F58461090501EBD0214005704731
:101850000146704730B540F2FF7C1CEA11541DBFB1
:101860001CEA1355644565453FE0641981EA030CA1
:101870006FF35F530CF0004C43F48013C90241F046
:10188000004141EA505EC5021100A5FB020200289A
:101890004FF00000EEFB01204FF00001E3FB0521BB
:1018A00018BF42F00102401800214941E3FB0E013C
:1018B000A4F580640D0302D292184041494154F1CD
:1018C000010470DD450872F1004250F1000051EB57
:1018D0000451A1F5801102D441EA0C0130BD40F25F
:1018E000FF7E4CEA0E51002030BD0CEA13556445D2
:1018F00018BF654581EA030C0CF0004C41D050EA5A
:10190000410E1CBF52EA430E02E06146002030BD8A
:1019100024422C441BD15FEA050EF6D0090302BF16
:1019200001460020AEF1140EB1FA81F5AEEB0504CC
:1019300001FA05FE0C35C5F1200100FA05F5C84095
:101940004EEA000E6FF35F5343F480139CE733F0CD
:101950000043B3FA83F504BFB2FA82FE75440B3D2F
:10196000641BB5F1200E2FBF02FA0EF3AB40C5F198
:10197000200E22FA0EFE38BF43EA0E03AA40641C72
:101980007CE750EA410E14BF52EA430E6FF00001AB
:101990004FF4001515EB430F8EBF194615EB410FA1
:1019A0009DE7B4D830BDD4F10104B4F120050FDABD
:1019B000C4F12005520828BF42F0010210FA05FECA
:1019C00001FA05F57244E2BFE0402843E1400FE030
:1019D000352C9ADCC5F1200452EA400220FA05F2C7
:1019E00018BF42F0010231FA05F0A1400A4300217C
:1019F00072F1004250F1000051EB0C0130BD0000CB
:101A000000487047F4270020D3BBD9B1B2F5803F1E
:101A10005BD2022A1ED98C46B1FBF2F102FB11C344
:101A20001B0443EA1043B3FBF2FC02FB1C3380B2FD
:101A300040EA0343B3FBF2F002FB103240EA0C40F1
:101A400000237047022A05D98446B0FBF2F002FB5E
:101A500010C270474AB105D100F0010249085FEA9F
:101A60003000704700220023704700F053B80B008D
:101A70000200002100207047F7D3002200237047A6
:101A8000904271EB030CF2D370B5B1FA81F4B3FA62
:101A900083F52C1BA340C4F1200532FA05F633432D
:101AA000A2405FF00046E64002E05B085FEA3202D7
:101AB000841A71EB030524BF204629467641F4D3EE
:101AC00002000B003000002170BD70B5B1FA81F446
:101AD000B2FA82F5C4F120046419B4F12006DAD315
:101AE000B2405FF00044F440002502E052085FEA93
:101AF0003303C61A71EB020E24BF304671466441AF
:101B00006D41F3D302000B002000290070BD0120BD
:101B100000F002B87047000080B5AFF30080024AC1
:101B200011001820ABBEFBE7260002007CB50400C4
:101B300001D1012076BD04F52475687820B9002113
:101B40002970204600F028FD0320687000262068D8
:101B500000F0F2FD002028210BE011FB00F22244EE
:101B6000012310745374401CD67416625662966238
:101B7000C0B222799042F0DB002000230CE011FB80
:101B800000F2224402F5A8721070401C5370D67007
:101B9000136156619361C0B222799042EFDB6846CF
:101BA000211D0822FFF7A6FADDE900010A460146D9
:101BB000206800F0C7FD0020207301216970A07A21
:101BC000012804BF204601F03EFA002076BD10B582
:101BD00000F00EFC01D1022010BD00F004F800F06E
:101BE000A3FD00F0FEBB012084F89002206870473E
:101BF0002DE9FE4F05462868B0F84400010423D4BF
:101C0000420540F19F8200F05DFB4FF6FF308A886D
:101C100002408A80284600F0F1FC284603B0BDE867
:101C2000F04F002100F0E9BBF288082305F526718A
:101C3000384601F0DBF9286801880C4044F0800444
:101C40000480284600F0BDFC2F6807F14401088895
:101C5000030440F101830B8813F00F02019248F650
:101C6000BF78019848F60F7A48F280094BF68F72D8
:101C700040F68F7400F0D681296831F820B0014613
:101C800028204143029148F68F765FEA0B4140F1EC
:101C9000AF802868019930F821301C4044F080045E
:101CA00020F82140029B2B4403F5A877387B88B9A4
:101CB0002868B0F850103A7801EBC203C31803F259
:101CC00006431C88C4F30904002C7DD0FA88796986
:101CD000234677E0FB78022B48F2C00142D10BF09B
:101CE00040008DF800005FEA4B432C68B8693B78F0
:101CF000A446B4F8504004EBC304A4441AD50CF233
:101D0000024C00F0C0FA02D3001B09D100E0002011
:101D1000D5F800C03CF823E002EA0E0200F0C2FA57
:101D2000B8619DF8000008B100F0C3FA002C4BD058
:101D30003A8944E00CF2064C00F0A5FA02D3001BED
:101D400009D100E00020D5F800C03CF823E002EA09
:101D50000E0200F0A7FAB8619DF8000060BB00F029
:101D6000A8FA29E02A68387832F82030334014463F
:101D7000194324F8201038782968024631F82230B7
:101D800059040ED52A68B2F8501001EBC0001018A3
:101D900000F202400488C4F30904002C14D03A89EC
:101DA0000DE02968B1F8502002EBC000081800F2DD
:101DB00006400488C4F30904002C05D07A89234620
:101DC0007969286801F012F9FA69A218FA61B8690C
:101DD00050B13869844207D3796921447961394621
:101DE000286800F0FAFE03E03978284600F0EFFB9F
:101DF0005FEA0B6142D5029A019905F1100087183C
:101E0000286830F821200AEA020242F4004A20F849
:101E100021A0F878012832D10021B961387B00284F
:101E200028D05FEA4B6011D5787848B900F06AFA9B
:101E30000188C1F309010180028842F4004218E0E0
:101E4000012817D100F05EFA00210BE029687878AC
:101E500050B900F00FFA0288C2F30902028001882B
:101E600041F40041018005E0012803D100F002FAAD
:101E7000002202803978284600F0B3FBE4E62B68A4
:101E8000B8695FEACB519C461DD43978B3F850202D
:101E900002EBC104A4440CF2024CBCF80020C2F3D3
:101EA0000902824234BF801A00200028B861E2D0C3
:101EB000786910447861F9695218FA6139462868DE
:101EC00000F08BFEC0E65FEA4B613A780BF4804489
:101ED0004CF2800A4FD500F0C1F90CF2024CBCF86C
:101EE0000030C3F30903834234BFC01A0020002826
:101EF000B8610DD100F025FA002C08D02968387897
:101F000031F8202016404AEA060621F820609BE6B8
:101F10000CB100F0EDF997F82400012875D100F01C
:101F2000FBF97878F0B900F0D9F90288C2F3090218
:101F3000028023B9028842F40042028017E03F2B5E
:101F400007D25A08DC0748BF521C048844EA82249E
:101F500006E05A0913F01F0F08BF521E00F084F963
:101F6000048004E0012802D100F0B8F9038079610F
:101F70009BB23A8946E000F071F90CF2064CBCF8CD
:101F80000030C3F3090398422CBFC01A0020002878
:101F9000B86104D100F0D5F9002C42D1AEE70CB9FC
:101FA00000F0A6F997F8240001282ED100F0B4F92A
:101FB0002A687878F0B900F06CF90488C4F3090451
:101FC000048023B9028842F40042028017E03F2BCC
:101FD00007D25A08DC0748BF521C048844EA82240E
:101FE00006E05A0913F01F0F08BF521E00F03CF91B
:101FF000048004E0012802D100F04BF903807961EC
:102000009BB27A89286800F0E0FF2968387831F8B7
:10201000202008EA020282F0300249EA020821F890
:10202000208011E6D8062CD429680A880AEA020022
:1020300040F4004A0846A0F800A02868B0F8501004
:102040002A7C01EBC203C01800F202400088C0F3F2
:102050000900E862E96A686A014469622846002169
:1020600000F0BFFA287B00280AD0A86A002807D110
:10207000287B296840F08000A1F84C0000222A73D8
:10208000E2E528680088030505F5A87632D4000447
:10209000F6D529680B881C40084644F0800404806B
:1020A0002868B0F85010337801EBC304041904F227
:1020B00006442188C1F309010029F1610B460AD1C8
:1020C000286801880A4082F4405249EA020902461F
:1020D000A2F80090B8E571690029FBD0F28800F001
:1020E00085FF7069F169014471612846002100F0A3
:1020F0006EFAA9E58889317800EBC1033B4403F20D
:1021000006431888C0F309000828F0613FF48CAD3D
:1021100029680888024082F480520B4649EA02028C
:102120001A802868018808EA010181F0100149EA53
:102130000108A0F8008028680288144044F0800458
:10214000048089E0410404D500F0BCF84BF6FF7030
:102150007FE0810404D500F0B5F84DF6FF7078E01B
:10216000C10405F5327224D52C6804F140014FF604
:10217000FB700B8803400B804FF6F7702968B1F8AD
:1021800040300340A1F840301178012905D10020EA
:10219000107000212846C046C046284600F03FFA8D
:1021A0002968B1F844204EF6FF700240A1F844209F
:1021B00052E0010510D5286830F8401F41F00801B1
:1021C00001804FF2FF702968B1F844200240A1F865
:1021D000442000F07BF823E0010626D52868403033
:1021E0004FF67F7183880B4083801078C0B900F070
:1021F0006DF82868B0F8401041F00801A0F84010D0
:102200000120107028462968B1F854309B0803F06B
:102210003C03536003B0BDE8F04F012100F028BF3C
:102220002846BDE8FE4F00F0F6B981050BD500F059
:1022300049F84FF6FF508A8802408A802846BDE858
:10224000FE4F00F0D7B9C00506D5296840314FF6DA
:10225000FF608A8802408A80BDE8F78FB3F850306B
:10226000D100CB189C447047048844EA822444F48B
:1022700000447047B1F850000818397800EBC100ED
:1022800000F206407047BCF80040C4F30904A042C5
:102290007047B2F8500010183A7800EBC20000F214
:1022A0000640704782F4005249EA02022CF82320CB
:1022B00070472A68387832F820303340194322F8C2
:1022C00020107047286800F1400170472868B0F876
:1022D000401041F00401A0F8401070472868B0F8A1
:1022E00050203C78801800EBC40000F20240704798
:1022F000286830F822100E4004464AEA060624F800
:10230000226070472868B0F850103A78401800EB07
:10231000C20000F202407047F86979691818F86144
:1023200019443A69386A904203D31346C01A386296
:10233000704710B1034600203862002287F824203D
:102340007047787878B92868B0F850208018091854
:1023500001F202410B88C3F309030B80088840F4A3
:10236000004008800AE0012828D12868B0F85020F1
:102370008018091801F2024100230B80296878783F
:1023800080B9B1F850000818397800EBC10000F2AC
:1023900006400288C2F309020280018841F400412C
:1023A00001800BE0012809D1B1F8500008183978F4
:1023B00000EBC10000F2064000220280F8780228FB
:1023C0000BD12968387831F8202008EA020282F01F
:1023D000200249EA020821F820802846397800F0D6
:1023E00000B9206800F0E3FD002084F8900210BDE1
:1023F000044694F890020128704710B5FFF7F8FFE3
:1024000001D1022010BD012084F8900221732068C0
:1024100000F0C7FDE8E770B5044601F00705282085
:10242000454360190D0603D510300126467003E0C0
:1024300000F5A8700025457001F007010170C2F396
:102440000A020261C370022B04BF0021017194F8DB
:102450009012012901D1022070BD00F014F800F0A3
:102460007DF9002084F8900270BD10B5044600F09C
:1024700083F800F064F801D1022010BD00F003F8E9
:1024800000F022FBB0E7012284F890220146206888
:10249000704738B500F027F804F5A87401F007017B
:1024A0006261A3610022E26115E001F007012822C8
:1024B00051430844D0F86C01704738B500F013F868
:1024C00010346261A36123620122002301F007013D
:1024D00084F82420E361627021702146006800F0D6
:1024E0007CFB002032BD01F0070528246543441918
:1024F000704710B5044601F007002279824201D2EC
:10250000012010BD28220B0604D550432044103072
:10251000012205E012FB01F2A01800F5A8700022CC
:102520004270012300F00AF801D1022010BD84F8A6
:1025300090320146206800F0E1FC55E7837001F01D
:102540000701017094F890120129704710B50446F4
:1025500001F00F032079984201D2012010BD00F054
:102560000BF80023FFF7EAFF01D1022010BDFFF7AF
:102570008AFF00F0DCFC37E701F007022820424325
:10258000A0180A0603D5103001234370704700F5E8
:10259000A87000224270704780B56048016841F021
:1025A000806101600022006800F0806000900621D8
:1025B000009B142000F075FDBDE80240142000F0DF
:1025C0008DBD00F52671D0F8D80200F01CBE0B4678
:1025D000282253430344D0F8D802D3F8642100F0F2
:1025E00040BE0B46282253430344D0F8D8025A6A0F
:1025F00000F074BED0F8D80200F009BF10B5044650
:10260000D4F8D80200F0BCFED4F8D802BDE81040DF
:10261000012100F0E5BED0F8D80200F0E4BED0F809
:10262000D80200F0EBBE10B53D4C3E4921600822B7
:10263000002302212271A371E17161716372C4F8F8
:10264000D802C0F8C8422046FFF770FA18230022CB
:10265000002100F012F858230022802100F00DF82C
:10266000C0230022812100F008F84FF48873002273
:10267000012100F002F8002010BD204600F0C9BC86
:1026800080B5D0F8C802FFF7A2FA002002BD10B54D
:102690001C461346D0F8C8022246FFF7BCFE0020B5
:1026A00010BD80B5D0F8C802FFF7DFFE002002BDE4
:1026B00080B5D0F8C802FFF71CFF002002BD80B52E
:1026C000D0F8C802FFF742FF002002BDD0F8C822B0
:1026D00001F07F0328204343D018090601D5807CF0
:1026E000704790F85201704780B5D0F8C802FFF7E4
:1026F00084FE002002BD80B5D0F8C802FFF7DDFEE1
:10270000002002BD80B5D0F8C802FFF7C2FE00204D
:1027100002BDD0F8C802FFF7C8BE0000580000583C
:10272000F0300020006800404030002181804BF6EE
:102730008072028000207047B0F8402044F27F0190
:1027400000F03EBC012120F8401F0022028000233F
:102750008380002101820020704700002DE9F04FA6
:102760000B460246197832F82160DC7848F68F155E
:1027700000203540032C0CD8DFE804F002080C05DB
:1027800045F4007506E045F4C06503E045F4806556
:1027900000E0012048F28004254322F8215048F649
:1027A0008F7C19780D4632F825600CEA0606314315
:1027B000214322F825104BF68F75197B93F8009072
:1027C00000294CF2800E48F6BF7648F2C0086FD15F
:1027D000D9884FF6FE7707EA010A59780029B2F83E
:1027E000501011441DD001EBC90101F58069A9F811
:1027F00000A0197832F821506D0607D532F8215023
:102800000CEA050548EA050C22F821C01978DB78A6
:10281000012B32F8213000F027811E4086F020067F
:1028200023E101EBC90909F20449A9F800A0B2F8B3
:1028300050105618197806EBC10606F2064637887E
:10284000C7F309073780196909B9318811E03F29B1
:1028500007D24F08C90748BF7F1C318841EA87214A
:1028600009E04F0911F01F0F08BF7F1E318841EAB0
:10287000872141F400413180197832F821607604D3
:1028800007D532F821600CEA06064EEA060C22F85B
:1028900021C0197831B911880D4085F440552C4379
:1028A00014800FE132F821301D4085F4005506E117
:1028B000D97802290AD132F829100CEA010141F431
:1028C000014141F0800122F8291009E032F829A0E5
:1028D00048F68F6101EA0A0144EA010A22F829A0B8
:1028E000B2F850105718197807EBC10101F580694B
:1028F0001F894FF6FE7101EA070AA9F800A0B2F895
:1029000050101F78511801EBC70B59890BF2044B7B
:102910004FF6FE773940ABF80010597893F80090E5
:10292000002932F8291040F0A280490407D532F876
:1029300029100CEA01014EEA010E22F829E019786B
:1029400032F821E05FEA4E6707D532F821E00CEA61
:102950000E0748EA070C22F821C0597800292FD128
:10296000B2F850105718197807EBC10C0CF2024C52
:10297000BCF800E0CEF3090EACF800E0196911B91B
:10298000BCF8001017E03F290AD24FEA510EC907E0
:1029900048BF0EF1010EBCF8001041EA8E210CE098
:1029A0004FEA511E11F01F0F08BFAEF1010EBCF827
:1029B000001041EA8E2141F40041ACF800100DE016
:1029C000012945D1B2F850101F78D3F810C0511822
:1029D00001EBC70101F20241A1F800C0597859BBCF
:1029E000B2F850105718197807EBC10707F20647DD
:1029F000B7F800C0CCF3090CA7F800C0196909B9F1
:102A0000398815E03F2909D24FEA510CC90748BF60
:102A10000CF1010C398841EA8C210BE04FEA511C82
:102A200011F01F0F08BFACF1010C398841EA8C216D
:102A300041F4004139800BE0012909D1B2F850106E
:102A40001F78511801EBC70101F206411F690F8081
:102A5000197832F821703D4085F44055254322F81D
:102A60002150197832F821301E40344328E04904BF
:102A700007D532F829100CEA01014EEA010E22F8BE
:102A800029E0197832F821707F0607D532F82170D5
:102A90000CEA070748EA070C22F821C0DF7819780A
:102AA000012F32F821701ABF3E4086F020063E40CA
:102AB000264322F82160197832F821301D402C433A
:102AC00022F82140BDE8F08F2DE9F041024691F84F
:102AD000008048780B7B4BF68F754CF2800648F2ED
:102AE000800748F6BF7C48F2C00E48F68F74B3B931
:102AF000002832F8280009D0400637D532F82800DF
:102B000004404EEA040E22F828E02FE040045AD593
:102B100032F828000440264322F8286053E00028B9
:102B200032F828002BD1400405D532F82800204087
:102B3000064322F82860087832F820305B0606D574
:102B400032F8203023404EEA030322F82030087880
:102B500032F820301C404EEA040E22F820E00878BB
:102B600032F820301D403D4322F82050087832F8DA
:102B700020100CEA01010F4322F820702AE04004E3
:102B800005D532F828002040304322F82800087884
:102B900032F820305B0606D532F8203023404EEA6A
:102BA000030E22F820E0087832F820301C4026433B
:102BB00022F82060087832F820300CEA030347EA54
:102BC000030C22F820C0087832F820100D403D4355
:102BD00022F820500020BDE8F0812DE9F8460E468D
:102BE00081467078012848F2800748F68F6348F2E2
:102BF000801C48F68F7240F0F680B4693169A142BA
:102C000038BF0C46307B30B9F28800F073F900F021
:102C100068F90480DEE096F803A03078356ABAF1EE
:102C2000020F864640F0BC80A94280F0AF8039F8A0
:102C30002E0002404CEA020C29F82EC02D1B3562F2
:102C4000620996F800C07078E64639F82E5063089D
:102C50006D0604F001014AD5B0B900F033F900F077
:102C600022F90CB901880BE03F2C02D200F00EF9DA
:102C700008E014F01F0F08BF521E018841EA8221AC
:102C800041F40041018004E0012802D100F01AF96A
:102C90000480728900F02EF900F0FEF832BF001BAC
:102CA0000446002030627078F0B900F01AF902880A
:102CB000C2F30902028024B9018841F40041018075
:102CC00082E03F2C07D26108E20748BF491C028816
:102CD00042EA812206E0610914F01F0F08BF491E75
:102CE00000F0CEF802806FE001286DD155E0B0B958
:102CF00000F0E0F800F0D7F80CB901880BE03F2CA9
:102D000002D200F0C3F808E014F01F0F08BF521EF3
:102D1000018841EA822141F40041018004E0012858
:102D200002D100F0C7F80480328900F0E3F800F027
:102D3000B3F832BF001B044600203062707800BB3D
:102D400000F0C8F800F206400288C2F309020280CF
:102D500024B9018841F4004101802FE03F2C07D2C3
:102D60006108E20748BF491C028842EA812206E066
:102D7000610914F01F0F08BF491E00F081F802809E
:102D80001CE001281AD100F0A5F814E039F82E0053
:102D900003403B4329F82E302C4600F09BF810E00E
:102DA0002D1B356239F82E104A06B9F850104944E7
:102DB00001EBC00005D500F206400480A3B2728981
:102DC00004E000F202400480A3B2328971694846EF
:102DD00000F0FBF8317839F8212048F6BF70024046
:102DE00082F0300225E0307B48BBB069002804BF88
:102DF000F178002908D1317839F821301A404CEAAD
:102E0000020C29F821C006E0317839F8212013405E
:102E10003B4329F82130316981422CBF0020401A00
:102E2000B061317839F821204BF68F70024082F47E
:102E30004052174329F821700020BDE8F286F0784F
:102E4000022817D1F0690028EBD0307839F820102B
:102E500044F2400303EA01049C4218BF1942E0D146
:102E600039F820100A4042F4004242F0C00229F82A
:102E70002020D6E7012808BF0020D1D00120DCE7C0
:102E8000028842EA812242F40042704701B15B1C91
:102E9000018841EA8321704770693169204470617B
:102EA000306A81427047B0F800C0CCF3090CA0F83A
:102EB00000C07047B9F85000484400EBCC0000F265
:102EC00002407047B9F85000484400EBCC0000F2D3
:102ED00006407047B9F850003178484400EBC10013
:102EE0007047B9F850003178484400EBC10000F257
:102EF000024070477169A3B2484666E010B50A788F
:102F0000497830F82240002948F2800305D048F67D
:102F1000BF710C4084F0100404E04BF68F710C403C
:102F200084F48054234320F82230002010BD30B5B3
:102F30004A780C78002A30F8242048F2800348F6BA
:102F40008F7516D0520608D530F82420154045F468
:102F5000004545F0C00520F82450CA78012A1ED04B
:102F60000A7830F8224048F6BF710C4084F0200403
:102F700012E0520408D530F82420154045F44045AD
:102F800045F0800520F824500A7830F822404BF6AE
:102F90008F710C4084F44054234320F822300020E9
:102FA00030BD11B98021A0F84C1000207047B0F856
:102FB000581041F40041FFE7A0F858100020704776
:102FC0000A40A0F840200020704710B580185B1C14
:102FD00000F580605B0807E00A784C7842EA04223A
:102FE000891C20F8022B5B1EF6D110BD10B582188B
:102FF00002F58062580806E032F8024B0C70240A91
:103000004C70891C401EF7D1D80744BF1088087047
:1030100010BD30B528240D0605D501F00701614328
:103020000844103003E06143084400F5A8701AB961
:1030300000210173C38004E0038101211B0C017393
:103040004381002030BD016800F532700122002369
:1030500082600370B1F8540040F00100A1F8540000
:10306000B1F8540040F00200A1F85400002070476D
:10307000704700000901020002D4394881547047AA
:10308000384B02F00F021A4402F8041C704736490C
:103090000A6860F30A2240F2FA5060F31F420A60A5
:1030A000704770B5304B1C68C4F302230124C3F190
:1030B0000705052D2EBF0F2504FA05F56D1E1E1DF3
:1030C000072E34BF0023DB1E2940994004FA03F386
:1030D000BDE870405B1E1A401143CBE7010007D4E6
:1030E000012200F01F01214B8A40400943F82020B3
:1030F000704701000BD4012200F01F011C4B8A40D5
:10310000400943F82020BFF34F8FBFF36F8F704704
:10311000401EB0F1807F01D3012070471549164A47
:1031200048600023F02010708B60072008600020AA
:103130007047010007D4012200F01F010F4B8A40A5
:10314000400943F820207047010007D4012200F015
:103150001F010B4B8A40400943F8202070470000B4
:1031600000E400E018ED00E00CED00E000E100E01C
:1031700080E100E010E000E023ED00E000E200E08C
:1031800080E200E010B508B9032010BD00F52773F8
:103190000024DC619C625C6301B1996101211970BA
:1031A0000270BDE81040FFF73EBA1CB50022ADF832
:1031B000002009B9032016BD00F52E742160E169D5
:1031C00000EB8100D0F8B822D16A11B16846884777
:1031D000A061206A401C2062002016BDFFF750BA93
:1031E00002460020D2F8B83213B110461A681047D0
:1031F000704710B5D0F8B8325A689047002400B133
:103200000324204610BD38B5044604F2AA252846FA
:1032100000F06AFB04F5257001210160828B817D3D
:10322000426011F01F0003D002280DD006D311E038
:1032300029462046BDE8344000F024B929462046FE
:10324000BDE8344000F070BA29462046BDE834405D
:1032500000F0A2BA2046BDE8344001F08001FFF73B
:1032600027BA38B50446080004F5257328D1196833
:10327000032914D104F5AC7001890568A94210D264
:10328000C3686D1A19440560C160D4F85821B4F8B8
:103290006001824238BF0246204600F094FB0020C5
:1032A00032BD187A032807D1596A086920B1002273
:1032B0001A64204609698847204600F08CFBEEE737
:1032C000187A0328EBD15A6A90690028E7D00025C4
:1032D0001D6420469269BDE83840104738B5054660
:1032E000080005F525743DD12168022934D1288CC8
:1032F000A96902468A4208D26B6A8A1A1918AA6119
:103300006962284600F04CFB0DE013D168699042D9
:1033100010D3616888420DD200220021284600F0B7
:103320003FFB002060600023002200212846FFF7B9
:10333000E9F911E0207A032807D1616AC86820B151
:10334000002222642846C968884780212846FFF762
:10335000AFF9284600F046FB207B08B1002121731D
:10336000002032BD207A0328FAD1626A5069002811
:10337000F6D00023236428465269BDE83840104740
:1033800038B5044604F5257001210172002202605F
:1033900062600021016102730025406A00281CBFA1
:1033A0004268002A03D02046904700B103254023FD
:1033B000002200212046FFF76AF904F5B0700121D0
:1033C0004022C17002804023002280212046FFF766
:1033D0005EF9012084F8230040212184284632BD73
:1033E00001740020704700F52770017804291CBF84
:1033F00002784270042101700020704700F52770A8
:103400000178042904BF417801700020704780B51D
:1034100000F527710A78032A05D1C96900291EBF62
:10342000C96900298847002002BD002070477CB58B
:1034300004460D46217863880026994212D2ADF8E1
:10344000001000E00026BDF800106288914209D209
:10345000694600F009F841780529F4D10646B178AB
:10346000A942EFD1304676BD0A880378D3180B8085
:1034700001780844704700004178007840EA012054
:10348000704700002DE9FC410D460446287810F0F5
:1034900060004FF0000804F527770ED0202818BFF1
:1034A000402840F03581BA6B04EB82032046D3F804
:1034B000B842A268904780462CE16978092937D83C
:1034C000DFE811F0FB00190125010E0125018B0039
:1034D0000A002501E900A600ADF800806888010A0D
:1034E000012900F07480022965D0032927D006291C
:1034F0001CD0072904BF207C002819D1FA69116B60
:103500006846884707224270E988002900F0FC805D
:10351000BDF80020002A6ED01146EA88914288BF8B
:103520001146ADF800100A460146D5E0207C00287F
:1035300040F0ED80FA69516B68468847E4E7C0B215
:103540000528F5D8DFE800F02E251C130B03B86919
:103550008269002A4FD0207C69469047D4E7B86939
:103560004269002A47D0207C69469047CCE7B86979
:1035700002690AB900F0CBB8207C69469047C3E7DE
:10358000B869C2680AB900F0C2B8207C69469047A1
:10359000BAE7B86982680AB900F0B9B8207C694610
:1035A0009047B1E7B86942680AB900F0B0B8207C2A
:1035B00069469047A8E7207CF9690028684603D14E
:1035C000896A884702229EE7C96A8847FAE7BB6989
:1035D000207C1A686946904796E7A888002804BFAF
:1035E000E888002859D16E88802E80F09080387845
:1035F000032806F07F0600F08A80BE703146204620
:10360000FFF772F800F0C2F8B6BB0121397081E013
:10361000424E6888307031780846022802D300F0A4
:10362000B8F835E03A78022A1BD0032A2BD129B901
:1036300002203870616000F074F865E061688842CB
:1036400062D000F06DF8317861602046FFF7C8FD68
:103650005FEA000858D000F09CF8616800F060F85C
:103660000AE0002950D060602046FFF7B9FD5FEA0C
:10367000000803D000F08DF8022002E000F086F888
:103680000320387046E000F084F8317800F049F803
:103690004FF003083EE0E888012838D13978491E08
:1036A000012904D9891E32D10122211D14E0C4F858
:1036B0000880012204F108010EE03878401E02283B
:1036C00025D8EA88022A22D10121E160B86808B130
:1036D0000321E16004F10C01204600F058F919E0E3
:1036E0006888012808BFB8600ED002280FD1A888CA
:1036F000000A387108E03878401E022807D86A8826
:10370000012A07D1C7F8088000F040F802E02946F6
:1037100000F040F84046BDE8F68100009D390020E9
:10372000C9B22046FFF765BDF8B50D4604462878B6
:10373000002710F060001CBF2028402822D104F58B
:1037400027763078401E02281CD8A988CAB2022ADF
:1037500018D2C9B220460020C046FF2810D078B940
:10376000F269906860B1B763294692682046904735
:103770000746E88840B9380006D100F007F803E0B2
:10378000032701E000F005F83846F2BD204600F0BE
:1037900022B929462046BCE02DE9F8430E460546ED
:1037A0003078347910F060004FF0000805F5277785
:1037B0000AD0202818BF402875D121462846FFF797
:1037C00034FEFF283DD172E07078002843D00128F4
:1037D00014D0032867D13978022915D0032962D182
:1037E000708838B9002C18BF802C03D0F08808B935
:1037F00000F076F8284600F0EEF858E03878022815
:1038000002D003280AD04EE0002C18BF802C4AD0EA
:1038100000F066F8802100F064F848E07088002825
:1038200045D114F07F0103D021462846FEF747FF1B
:10383000284600F0D0F8214628460020C046FF2840
:1038400035D0A0BBB863F9698A6882B3314628468F
:10385000904780462BE0142204F07F003B785043D1
:103860002918022B01F5AA7904F0800002D0032B5D
:1038700010D018E0002C18BF802C14D108B101F131
:10388000140989F80E80022209F10E01284600F081
:103890007EF80CE004F00F0312FB03F22A4448B157
:1038A00092F8230080B93146284600F032F84046AD
:1038B000BDE8F28392F863010028F4D0002C18BF11
:1038C000802C04D1002008E001F11409F6E721461C
:1038D0002846FEF7FBFE00B1012089F80E00D2E772
:1038E00021462846FEF7E4BE38B50D460446287842
:1038F0002070A81C697861702D1DFFF7BDFD6080E8
:103900002846FFF7B9FDA080A81CFFF7B5FDE080B1
:1039100031BD10B504468021FEF7CAFE2046BDE841
:1039200010400021FEF7C4BE70B504000D461646D7
:1039300022D000F022F84000801C40F201118842A1
:1039400028BF4FF4807004D2204600F016F84000E3
:10395000801C308003213078287069700023022198
:1039600007E014F8010BCAB2491CA854CEB2491C96
:10397000AB5520780028F4D170BD0146002000E04E
:10398000401C11F8012B002AFAD1C0B2704780B553
:1039900013460222C0F8942241624361836101E030
:1039A00080B513460A460021FEF7A5FE002002BDA1
:1039B00080B513460322C0F8942200F5AA72136062
:1039C0001161536001E080B513460A460021FEF7FD
:1039D00099FE002002BD80B50421C0F89412002396
:1039E0000022E0E780B50521C0F8941200230022F0
:1039F000ECE70000F8B596B0DFF8844707A8214649
:103A00003C22FDF777FBDFF87C670FF2D5770FF2EA
:103A1000B97000960197694600F06EFC0121022002
:103A200000F043FDDFF860270021082000F00BFEC6
:103A300007A800F077FE38B1014604F13C0000F021
:103A4000C9FEC046C04603E004F1740000F0C2FEA7
:103A50000DF116000021018004F19C0000F0BAFE77
:103A600000F0CCFE010004D004F1C80000F0B2FE6A
:103A700003E00FF6080000F0ADFEDFF81007DFF8F6
:103A80001057016811F1010F0ED042682974120A13
:103A9000090A6974110A4068EA74A874120C29753D
:103AA0006A7505F1100606E0002000F02FFF060001
:103AB00008BF0FF6140632460621002000F03AFF38
:103AC00028B1014604F1F80000F084FE10E004F58E
:103AD000AE7000F07FFE3078029071780191B0787E
:103AE0000090F3783279717904F5D87000F072FEA5
:103AF00070790FF2DC72287231796972F078A872ED
:103B0000B178E972707828731820317869731021C0
:103B100000F010FF28B1014604F5F67000F05AFEDF
:103B200003E004F5117000F055FE0FF2B47210219D
:103B3000082000F0FFFE28B1014604F5237000F0D4
:103B400049FE03E004F5397000F044FE182101201D
:103B500000F006FF28B1014604F54B7000F03AFE74
:103B600003E004F55B7000F035FE00F04BFF28B178
:103B7000014604F5677000F02DFE03E004F5747053
:103B800000F028FE06A80DF11A010190009105AB86
:103B900007220021012001F024F928B1014604F593
:103BA0007D7000F017FE03E004F2244000F012FEE6
:103BB0000FF2E860BDF81A1000900723BDF814005A
:103BC000002200F0DBFF0DF1160000900223BDF88B
:103BD0001810BDF81400002200F0D0FF02220221CC
:103BE000002000F061FE28B1014604F5896000F074
:103BF000F1FD03E004F2844000F0ECFDDFF8946591
:103C00000020307001F090F828B1014604F596606C
:103C100000F0E0FD03E004F59E6000F0DBFD012014
:103C2000707008213171102070710121F170B17034
:103C30001021DFF86405B060039008230022012002
:103C400001910093049202900023012101F080F879
:103C500028B1014604F5A46000F0BCFD03E004F2C5
:103C60006C5000F0B7FDB07860B101F018F928B1E0
:103C7000014604F5B56000F0ADFD03E004F5BD605C
:103C800000F0A8FD04F5C36000F0A4FD01F094F974
:103C900000204FF6FF7186F88000F18201200FF2BC
:103CA0002942002100F0CFFC0FF2654200210420E0
:103CB00000F0C9FC062000F072FE002001212876E9
:103CC000697601F0EBF90FF23943002206F1810128
:103CD000002001F0B9FB0FF23143002206F182010E
:103CE000002001F0B1FB0021318380202884A02135
:103CF0006984012000F078F917B0F0BD2DE9F04794
:103D00002DED028B044684B06178DFF88854DFF82B
:103D10008074DFF88884052905F1800605D03E29E6
:103D20001FD0FF2900F0AA803CE1A088E98A8842E0
:103D30000BD10022EA823270404600F04BFDA2799E
:103D4000A18808F12C0000F045FD012000F04CF99D
:103D50000120387707F11C00E98AF98301F098F90E
:103D600020E1E0780A27012808F19C0A08F5E479A7
:103D70009FED9A8B3ED0032804D00A285AD00C28F5
:103D800014D00FE108F1680000F024FDB4F80B0036
:103D900047430197B4F809500095B4F80700FDF7C0
:103DA0004BFD00F005F900F007F9FBE008F5847021
:103DB00000F010FD207900280CBF0FF238400FF200
:103DC000404000F007FDE88A03AA0DF10D0100F064
:103DD00043FD10B10FF23840DAE008F59C7000F0B6
:103DE000F9FC9DF80C209DF80D1008F5AE7000F060
:103DF000F1FCD7E0707801F05AFBB4F8051008F533
:103E0000C07000F0E7FC00F0DCF8B4F813004743A2
:103E10000197B4F811100091B4F80F00FDF70CFDF4
:103E200000F0C6F800F0C8F83078042814BF052068
:103E300006201EE0707801F03AFBB4F8051008F592
:103E4000067000F0C7FC00F0BCF8B4F81F00474350
:103E50000197B4F81D100091B4F81B00FDF7ECFCBD
:103E600000F0A6F800F0A8F8307804280CBF06206F
:103E700005203070B4F80500E88293E0B4F8030040
:103E8000001F00F088804FF47F71401A18D0401E48
:103E90005FD0401E17D0401E25D0801E26D0801E29
:103EA00074D0401E31D0401E35D0401E30D040F27C
:103EB000F631401A67D040F20E41401A5BD071E0F3
:103EC00008F51A7064E008F5267000F083FCE88AB3
:103ED000B34900F06CFF010018BF08F5307032D113
:103EE00008F53D7054E008F5477051E008F5527050
:103EF00000F070FCE88A00F0EEFF18B1014608F50A
:103F00005B7020E008F5677042E008F571703FE0F3
:103F100008F57C703CE008F5846000F05BFCD4F8A8
:103F2000071000BF0FF2083000F054FCD4F807105F
:103F3000C6A000F04FFCE88A012100F0FAFF28B18A
:103F4000014608F2544000F045FC2BE008F2A44082
:103F50001EE008F2EC4000F03DFCE17921B900BF21
:103F6000C0A000F037FC04E0227A08F5A36000F05E
:103F700031FC82A00CE008F2545000F02BFCE88ADF
:103F800000F032FE0EE0012078760BE008F27C5063
:103F900000F020FC06E0012001F0BEFBB0780A2111
:103FA00001F0CBFA04B00120BDEC028BBDE8F08734
:103FB00053EC182BFDF74EBC02460B46504600F062
:103FC00009BC607A0290A17A0191E07A0090237B8B
:103FD000627BA17B484600F0FDBB000000000000B2
:103FE0000000F43F01F072B82DE9F84787B00446AD
:103FF000674F012807BF3E8CB7F822904FF4C86680
:104000004FF47A69DFF88CA1DFF898810AF1800516
:10401000687801F04CFA022C10D12878012818BFDA
:1040200002280BD100F01CFE010003D0404600F036
:10403000D1FB03E008F14C0000F0CCFB002006901F
:1040400005900AF1190204925FF008029AF818002C
:10405000A7A1039002910192002300932C704A467D
:104060003146002000F00EFE28B1014608F1940010
:1040700000F0B0FB03E008F1CC0000F0ABFB3946E8
:104080000E2000F0E5FE01000AD0012C0CBF08F163
:10409000F80008F5967008B0BDE8F04700F09ABB4C
:1040A000012C0AD108F5B27000F094FB68783E4903
:1040B00008B0BDE8F04701F040BA08F5C67008B096
:1040C000BDE8F04700F086BB10B5012001F02CFBE5
:1040D000304C94F88000052811D000F0C1FD00217B
:1040E00084F8801030B900BF6EA000F073FB00BFF1
:1040F0006EA000E02D48BDE8104000F06BBB10BD85
:104100000021012000F0ADBA012001F00DBB00003C
:104110007CB5204D95F88000012818BF00282CD0D0
:104120001B48417E012928D10022017E204C427685
:10413000491C8A1802F0FE02891A0176F7EE040A79
:10414000C9B200EB81004FF4FA7690ED090AE88AD3
:104150000096C0EE200AFDEEE00A10EE902A92B220
:104160000023114601F03BFB00280CBF204604F160
:104170003000BDE8764000F02DBB73BD0A000000A2
:1041800084890008AC080320374300088075FF1FAE
:104190002C2800208436002007B20100C88F0008B8
:1041A00040E20100289C000846E00100E0A400086D
:1041B000BCA300080021082000F053BA012000F041
:1041C00072BA012000F077BA10B50446616801F1B7
:1041D000080001F03BFB00B10120207010BD000081
:1041E00010B1012803D070470F2000F04ABA0F2009
:1041F00000F04FBA737461747573206F6B200A00FE
:10420000737461747573206E6F6B200A0000000078
:104210003D3D3E3E206863695F6C655F7265616429
:104220005F706879203A206661696C0A0D000000B1
:1042300020202020202D206E756D657269635F76C9
:10424000616C7565203D20256C640A0020202020CB
:10425000202D204865785F76616C7565203D2025AE
:104260006C780A0020202020202D2050616972697E
:104270006E6720537563636573730A00202053755E
:1042800063636573733A206863695F72657365740D
:1042900020636F6D6D616E640A00000050325053F0
:1042A0005256310020200D0A0D0000002A2A20530A
:1042B000544F50204144564552544953494E47208B
:1042C0002A2A20200D0A0D006C7AD8AC5772000003
:1042D000123456789ABCDEF0123456789ABCDEF06E
:1042E000FEDCBA0987654321FEDCBA0987654321F4
:1042F00009503250535256317FB50C46654D6168B6
:10430000654E28626962281D01F0CAFA246805F129
:10431000280000604060746006F1080000604060A2
:1043200001203070696829B10FF2351200920294B1
:10433000684688477FBD1FB5574C04F1080001F05F
:10434000BCFAF8B92078E8B1694604F1080001F038
:10435000DDFA5048016A49B10098029001228DF8B7
:10436000042001A888479DF8040000E00120207087
:1043700018B1009801F07FFB04E0009904F10800F7
:1043800001F0A4FA04F1080001F097FA28B92078A6
:1043900018B104F10800FFF70DFF1FBD2DE9FC4126
:1043A0000446002000F051F82088B4F80280394F0C
:1043B00060F38F2801203870002537484068A168D5
:1043C000E268C272A0F80980D2B20C30FCF792FE0B
:1043D0007A6900210020904748F2E800FFF7F1FEDB
:1043E00013E0B6F8010040450CD10099887AC21E4E
:1043F0006069D2B28242C8BF024620696261F11C84
:10440000FCF778FE307800B1012507F1280001F0B3
:1044100054FA90B9694607F1280001F077FA00993B
:1044200001F10B06497A0F29DBD17188414502D190
:104430002169307808707078E5E72800CCD0012039
:1044400000F003F80020BDE8F6811249496A08B976
:1044500021B1084700291CBF012008477047000010
:1044600010B50146487A0F2818BF0E2807D10B480F
:1044700001F036FABDE810400020FFF79FBE064C61
:1044800004F1080001F02CFA04F10800BDE8104026
:10449000FFF790BE0C390020743900203439002019
:1044A0000D48002101604160704710B500F007F829
:1044B0005C6800F009F85C6082F3108810BDEFF3CF
:1044C000108272B6044B704719B1012902D104431E
:1044D0007047844370470000A83900202DE9FF474A
:1044E000884CDFF82482A5692840A0614FF0FF398D
:1044F000206903904FF0010AE6696769206A02901B
:104500002EE00022271D231D53F832C00AFA01F6BF
:104510002CEA060C47F832C053F832604DF822609E
:10452000521C012AF0D980470020221D211D51F87C
:1045300030305DF820100B4042F83030401C01282C
:10454000F4D9606AC046C04620690390E66967698D
:10455000206AA16A0290606A0AFA00F00143A1622F
:104560000398A2693840104251D0029806424ED1B9
:10457000002007EA020100E0401C54F830301942E4
:10458000FAD054F8301004EBC003394058680A40A0
:10459000104208BFC3F804902069D4F828C05968B5
:1045A0006CEA010C20EA0C0012EA000118BF0A466E
:1045B00008B94FF0000C5868C4F828C0104000F04B
:1045C000A5F86062EFF3108172B60AFA00F2206972
:1045D000D24310402061022004EBC003401E53F878
:1045E00008CC02EA0C0C43F808CCF5D181F3108812
:1045F000606AC046C046616A202904D258F821008A
:1046000000287FF47EAF0020C046C046A8E7C4F86B
:104610002490206A064213D1C046C046EFF31086AC
:1046200072B62269E1696069A36902401A4202BF59
:10463000206A014201F0B4FB86F3108801F00AFC05
:10464000A561BDE8FF8738B5144600F006F82E498D
:1046500041F8204085F3108831BDEFF3108572B624
:1046600054E030B5EFF3108272B6264B1C69044358
:104670001C6153F83150284343F8310082F310880D
:1046800030BDEFF3108172B61E4A536923EA000071
:1046900005E0EFF3108172B61A4A5369184350616E
:1046A00081F310887047EFF3108172B6154AD36911
:1046B0001843D061F4E72DE9F041124D6E6A0446CB
:1046C000374616F1010F0EBF0026012000FA06F64C
:1046D000D5F820802C6203E02146304601F0BBFB78
:1046E000E8692042F8D06F62EFF3108072B6E96992
:1046F00021EA0404EC6180F31088C5F82080BDE84D
:10470000F08100005828002008370020B0FA80F01F
:10471000C0F11F00C0B2704701F0F4FB9DF80E001D
:1047200005B000BDF8B500F10C026B462F214FF625
:104730006640F1E7F8B500F10C026B460F214FF629
:104740006840E9E7F8B502466B4610214FF6754020
:10475000E2E7F0B51C491D4B0A681D49C2F30D0282
:1047600001EB82010D682A689A4205D16969AA693C
:10477000EB69EC682D6905E02E4631697269B36911
:104780007468B5680E0E06700F0C47700E0A8670BE
:104790000272C1F3031601F00F010171C670110E10
:1047A0004171160C110AC171220C210E8172C27264
:1047B000240A290E2A0C8671437204734173827392
:1047C000C5730020F0BD00003C400058B95646A912
:1047D000000003200EB41EB5024605A80190002477
:1047E000009401AB0121044878440C30FBF7A9FC8C
:1047F00003B010BC5DF810FBF15D000000B587B0A0
:1048000000F018F80321ADF80410ADF806100122ED
:10481000069200F075F800284CBFFF209DF80000BC
:1048200007B000BD07910492CDF818D0002102A86E
:10483000FFF7B4BD00208DF800001822002101A868
:1048400001F0B8BB09220021684601F0B3BB182271
:10485000002102A801F0AEBB70B5C8B006460C46F8
:1048600015460522FFF7EFFFADF82060FFF7EFFFD9
:104870003021ADF80A10082002210591ADF808009A
:10488000052108AAFFF7CEFF002848BFFF2009D462
:104890009DF8000030B99DF80300207000209DF8BD
:1048A0000410297048B070BD18B5C7B000F018F8F2
:1048B000312200F009F800F023F800284CBFFF2057
:1048C0009DF8000048B010BDADF806200821ADF8F5
:1048D00004100322049207A9039101220692704753
:1048E00000248DF81C008DF8004007A841708270EC
:1048F0000021182201A801F05DBB07AA06910392CE
:10490000CDF814D0002101A8FFF748BD20B501461D
:104910000648074D00E00838C2798A4218BFA8420D
:10492000F9D18A4218BF002020BD00BFF873FF1FD5
:104930000070FF1F18B50C46C7B000F04AF800F031
:104940005CF807AA03923F200C2100F039F800F030
:1049500020F800284CBFFF209DF8000048B010BD93
:1049600000B5C7B000F042F80F2200F007F80028A9
:104970004CBFFF209DF8000047B000BDADF80620F9
:104980003F21ADF804100222049207A903910122ED
:104990000692CDF814D0002101A8FFF7FFBC00B5A6
:1049A000C7B00023ADF81C0000F025F81822FFF76F
:1049B000E5FF00284CBFFF209DF8000047B000BD78
:1049C000ADF80400ADF806100122A41C0692049470
:1049D0007047114600228DF800208DF81C008DF8DC
:1049E0001D4022460DF11E0001F0DEBA00238DF8B5
:1049F0001C008DF81D108DF800301822002101A830
:104A000001F0D8BA00B587B000208DF8000000F0A2
:104A1000E6F840F2011200F015F900F006F900285E
:104A20004CBFFF209DF8000007B000BD2DE9F84104
:104A3000C7B00446884616461F46012808BF022014
:104A400003D002280CBF102000200DF11D031D18FB
:104A500000F035F8012C8DF81C4002D0022C1AD041
:104A60001BE00224224641460DF11D0001F09CFA94
:104A70002E706F7000F0B3F800F0ABF84FF4817156
:104A800000F017F8E41C0692049400F0CEF8002819
:104A900005D5FF2009E01024E4E7972005E09DF804
:104AA000000010B94E9800F064F8FFE748B0BDE888
:104AB000F081ADF80400ADF8061003227047032220
:104AC0000021684601F076BA2DE9F64F0C46C7B0D2
:104AD00005469946012C08BF022003D0022C0CBFCA
:104AE000102000200DF11F031E18FFF7E8FF012C16
:104AF000ADF81C508DF81E4002D0022C2CD02DE0B9
:104B00000227DDF85881DDF854B1DDF850A1539D3E
:104B1000529C48993A4600F058F8A6F80090B470B4
:104B2000F57086F804A086F805B086F8068000F0D7
:104B300056F83F204FF4827107AAADF80400ADF893
:104B4000061003920A3703220497069200F06DF8CC
:104B5000002805D5FF2009E01027D2E7972005E0BF
:104B60009DF8000010B9579800F003F849B0BDE86F
:104B7000F08FBDF8011001800020704778B5C7B0F4
:104B80001D464C9B00F057F800268DF800608DF80C
:104B900021502A4619460DF1220001F005FA00F0D5
:104BA0001EF800F016F84FF4837100F053F8AD1DB5
:104BB00000F039F800284CBFFF209DF8000049B0F4
:104BC00060BD0023ADF81C0070470DF11F0001F01F
:104BD000EBB907AA03923F2070478DF800301822E6
:104BE000002101A801F0E6B900B5C7B0FFF7E9FF61
:104BF000FFF7F3FF40F2251200F009F800F015F876
:104C000000284CBFFF209DF8000047B000BDADF864
:104C100006203F21ADF804100222049207A9039157
:104C200001220692704706920495CDF814D0002117
:104C300001A8FFF7B3BBADF81C00ADF81E108DF84E
:104C400020207047ADF806203F21ADF80410012266
:104C500006927047ADF80400ADF8061001227047C7
:104C600000B587B000F033F900F090F9812200F030
:104C700028F900F099F900284CBFFF209DF80000AA
:104C800007B000BD2DE9F04FC7B09446DDF840E114
:104C9000519ADDF85481DDF858A1539CADF81D10F0
:104CA0008DF81C008DF823204FF0000BADF81FC0CD
:104CB0008DF821308DF822E000F021F800F029F87D
:104CC00026F8098FA6F802A000F060F900F04AF972
:104CD0008321ADF80400ADF8061000F00AF800F0EA
:104CE00065F900284CBFFF209DF8000047B0BDE8E3
:104CF000F08F4F4401220D37069204977047D7B2C8
:104D000052998DF800B009ADD2B209A8ED1901F0A1
:104D10004BB92C7007AE54995FFA84F9F619E2B2D8
:104D2000681C4E4401F040B900B5C7B000F0A4F8CB
:104D300000F02AF900F0E1F8852200F0E5F800F033
:104D400034F900284CBFFF209DF8000047B000BD9B
:104D50002DE9F841C7B04FF0000800F022F84E9C52
:104D60004F9D509E529F51988DF800800DF1230168
:104D70008DF81F308DF820408DF821508DF822607D
:104D800008608DF8277000F001F9862200F099F88C
:104D90000C2200F006F900284CBFFF209DF800000F
:104DA000AFE08DF81C0007A841708270704700B515
:104DB000C7B000F069F88DF800300DF11E00182220
:104DC000016001A8002101F0F5F8882200F039F80F
:104DD00000F0E7F800284CBFFF209DF8000047B026
:104DE00000BDF8B5C8B005460E4617461C4607225A
:104DF00000F046F808A8467087708DF8205000F043
:104E000093F88A21ADF80A103F2003210591ADF8EF
:104E10000800072100F07FF8002848BFFF200ED4CB
:104E20009DF8000058B94F994E98BDF80120228096
:104E3000BDF803300380BDF805000880002049B0AC
:104E4000F0BDADF806203F21ADF8041006227047F2
:104E500018B5C7B000F07BF800F098F800F082F8C1
:104E60008E2100F083F800F0A1F800284CBFFF204D
:104E70009DF8000048B010BD00238DF81C0070475D
:104E80000021684601F096B80023ADF81C00704779
:104E9000ADF806203F21ADF804100222704700B59E
:104EA00087B000F014F800F071F8922200F009F8D1
:104EB00000F07AF800284CBFFF209DF8000007B0F2
:104EC00000BDADF806203F21ADF80410704700206A
:104ED0008DF80000704700B5C7B0FFF7D5FF00F0B0
:104EE00053F89522FFF7D4FF00F05BF800284CBF81
:104EF000FF209DF8000047B000BD3F21ADF8041031
:104F0000704748B0BDE8F081ADF8062007A90391CD
:104F100001220492704708AA07910492CDF818D094
:104F2000002102A8FFF73ABA1822002102A801F0D6
:104F300041B800B5C7B000F022F8A52200F02BF868
:104F400000284CBFFF209DF8000047B000BD0023A3
:104F500004468DF800308DF81C4022460DF11D00EE
:104F600001F022B807AA03923F207047ADF8040071
:104F7000ADF806100122641C0692049470470023C9
:104F8000ADF81C008DF81E108DF80030182200219D
:104F900001A801F00FB8ADF806203F21ADF80410CC
:104FA0000322049207A9039101220692CDF814D09E
:104FB000002101A8FFF7F2B9064800210171017232
:104FC00001F002B803490A7941F822000879401C2F
:104FD0000871704794390020F8B507464C4C397871
:104FE0004C4E4AA521B1012906D003290FD0F1BDAD
:104FF00001202070304603E00020207006F13400CC
:10500000FFF7E8FB2846BDE8F240FFF7E3BB79680D
:105010000878D0B9487801280AD1002000F07CFB3C
:1050200006F16800FFF7D6FB00F02FF80120A07012
:105030007968487848B900F077FB06F19000FFF7EF
:10504000C9FB00F022F80020A070786801780129DF
:105050001AD1407801280AD1002000F05DFB06F14A
:10506000B800FFF7B7FB00F010F80120A0707968D6
:10507000487848B900F058FB06F1E000FFF7AAFBBA
:1050800000F003F80020A070F1BD2846FFF7A2BB96
:105090000078012808BF00F00DB8704780B50FF206
:1050A000350200210220FFF7CEFA194800210170D5
:1050B000BDE8014080B5002000F036FB1448012116
:1050C000002241708270C170027101BD0021022076
:1050D000FFF7C7BA10B50E4C20792178401E8041E9
:1050E000C00F20710C4859B1FFF774FB07A0FFF700
:1050F00071FBE11CBDE810404FF6426001F051B871
:10510000BDE810404030FFF765BB0000200A0D00ED
:10511000A0390020149F0008B8A10008DFF8681526
:105120000A6892B200E00246086880B28242FAD170
:105130007047F0B5DFF85455DFF854352E78182253
:1051400004465443B0421C4404D128786870627D00
:105150002A700FE0267D607D94F815C003F11507D5
:105160005643062807F806C004D0267D143312FBE8
:1051700000F29E54012020732A78062A02BF0029DB
:105180004FF0FF30E860F0BD10B5DFF80045E06893
:1051900010F1010F0ED0FFF7C1FFE16881422FBF70
:1051A000E268E168E2888A182179101AE2784843B7
:1051B000D04000E0002080B210BD2DE9F047DFF8BC
:1051C000D484DFF8D404D8F8006001684A0502D519
:1051D000F0684107FCD4B068DFF8B074DFF8B0A421
:1051E00020F48060B0604FF018093D780AF10800A3
:1051F00019FB05F14458FFF7C7FF844202D200248F
:10520000012105E039894118A14203D23C890021DE
:10521000B97013E00122241ABA700FE019FB05F5EA
:105220000AF108035F59874226BF5959091A00211C
:105230000AF1080251510AEB05014D7D062DEDD111
:10524000DFF84874A0B238B9FFF768FFF8600320B0
:10525000BDE8F047FDF76DBF022802DAF8780128B3
:1052600000D0641EF0684107FCD5F06800F06CF8CF
:10527000F06000F05CF9DFF82004C16864F30F010E
:10528000C160FFF74BFFF860D8F80000816841F477
:1052900080618160AFF30080BDE8F0872DE9F843BD
:1052A000EFF3108472B6DFF8EC53DFF8E4332A68CA
:1052B000CA205062532151629068DFF8D01320F465
:1052C0008060906018200E78374647431F4497F857
:1052D0000CC0BCF1020F26D1D7F80080D7F810908F
:1052E0008878E8B17A7B012A0AD101213046FFF79C
:1052F00020FF84F310887968304600F01EF904E03E
:1053000084F31088304600F0D2F82868CA21416240
:105310005322426231464246484600F059FF0EE0B1
:10532000FFF74BFF09E0D0684107FCD5D06800F0DB
:105330000BF8D0604FF40020086084F31088FF223F
:1053400028684262BDE8F183DFF8501300F0800066
:1053500060F490607047F8B5CE4CCF4D2168CA22FA
:105360004A6253234B624FF6FF7C2A6842F02002C8
:105370002A602A68AB68AD681B0C03F07F03C5F395
:105380000E055B1C6D1C6F1E1E4602F0070216FB0D
:1053900007F6C2F10402A6F5A076D640BB4F6645DB
:1053A0002CBFA7F808C03E81FA703B71FD80BC4A53
:1053B000136843F400231360BA4B1D6845F40025BD
:1053C0001D6070BB0120B8704FF0FF31F960002004
:1053D000AF49002301F10C0418255FFA80FC15FB8E
:1053E0000CFC401CC6B204F80C30062EF5DB06207F
:1053F0003870A84C2068816821F480618160C168A0
:1054000001F0800161F49061C16003204FF400213C
:10541000D160FDF799FE2068816841F48041816088
:1054200005E0C868410544BF0320FDF782FE2168FE
:10543000FF204862002203210320FDF732FEBDE871
:10544000F2400320FDF74ABE2DE9F0410446002555
:10545000EFF3108672B61827DFF834C20CF10C0E89
:1054600007FB05F81EF8080010B16D1C062DF5DBD2
:10547000062D0CD06F430CEB07000127077386F352
:1054800010880461427303600D70002002E086F30F
:1054900010880120BDE8F08110B5044600F007F83F
:1054A00018207B4A444310190021017310BDF8B540
:1054B0000446EFF3108572B60320FDF71AFE754E11
:1054C00079493768CA2078625323224618207B62C4
:1054D00042438B5C022B21D100212046FFF729FE9D
:1054E0006A480178062914D16B4801684A0502D53B
:1054F000F8684107FCD4B86820F48060B860F868A8
:105500004107FCD5F868FFF71FFFF86000F00FF8BF
:1055100004E04078884218BFFFF74FFE3168FF2053
:1055200048620320FDF7DAFD85F31088F1BD4FF4E2
:10553000002008600320FDF707BE2DE9F84F044660
:105540008A4618252146524E69437718387B02282F
:1055500004BF2046FFF7ABFFEFF3108872B60320BD
:10556000FDF7C7FDDFF82C91D9F80000CA21416290
:105570005322426202203873C7F808A0C7F804A07B
:10558000DFF808A19AF80000062808D100F075F8A5
:1055900078754FF0FF31CAF80C10002056E0FFF785
:1055A000F3FDB9680918B96006F10803B9689AF8FB
:1055B00000206A439A5891422AD39AF8002004E0C6
:1055C00006F1150E6A431EF8022006F1150315FBBD
:1055D00002FC13F80C30062B06D006F1080C6B43C6
:1055E0005CF803309942EBD21146694306F1150E7F
:1055F0001EF80130062B05D006F1140C15FB03F53F
:105600000CF805407B753A7506F1150254541DE0FF
:105610009AF800109AF800C0614515FB01F20FD00E
:1056200006F1140B06F1150C1BF8023015FB03F5FF
:105630000CF8054079753B7506F114018C5403E0B4
:1056400006F1140379759C5400F017F89AF80010CD
:105650009AF801208A4202D0FFF7AFFD02E0B96854
:10566000081AB860FF20D9F8001048620320FDF73F
:1056700035FD88F31088BDE8F18F9AF800108AF89C
:1056800001108AF800407047282800406439002043
:10569000F435002088370020082800400C08005806
:1056A000000800588008005800360020454981B0A5
:1056B0000A6802430A60096808400090009801B037
:1056C0007047000078B585B0044600F076F82000F9
:1056D00008BF012004D0012C0CBF0220022C01D1F4
:1056E000FFF7E4FF3AA1384E31F81450009501213C
:1056F00001910022022102920391694656F824008A
:1057000000F068FD00F002F806B070BD56F8240005
:105710000022294600F01FBE10B500F00FF8BDE8CA
:105720001040012200F017BE10B500F007F8BDE8E8
:105730001040002200F00FBE0000000024A4224B05
:1057400034F8101053F820007047000030B585B0D1
:1057500004460D4600F031F80120FFF7A7FF2900AD
:10576000DFF868201CA00BD1002130F81400019153
:105770000090012302210293039100F019F815E033
:10578000012D13D130F8140000904FF4041302954A
:10579000019300F00DF800BF10A0045D00220F215E
:1057A00060B2FDF77EFC60B2FDF798FC05B030BD3D
:1057B000694652F8240000F00DBD1421002268460D
:1057C00000F0E8BD4C000058C8280020E828002060
:1057D00010000100020000000004000028005CB579
:1057E000C7B00026ADF81C0007A84C9C4180828001
:1057F000ADF8223004818DF8006000F021F83F21DF
:10580000ADF8041040F281120F210291ADF806208C
:105810000A21049107AA01210691039200F008F8D9
:1058200000284CBFFF209DF8000049B050BD0692F3
:10583000CDF814D0002101A8FEF7B0BD8DF80030DE
:105840001822002101A800F0B5BB000070B5044685
:105850006078FF2802BFB4F8030000F47F40B0F581
:10586000406F13D100250D4E00E06D1C3279E8B277
:1058700090420BD2E9B256F8211020468847010029
:10588000F3D003D0022806D0012070BD2046BDE829
:105890007040FEF733BA002070BD00BF943900207D
:1058A0000249034A01600261704700BF7359000852
:1058B00099590008006040607047EFF3108172B69C
:1058C000026882420CBF012000201CE0EFF310822E
:1058D00072B603680B60486001600868416024E0AC
:1058E000EFF3108272B6086043684B60416048680D
:1058F00001601AE0EFF3108172B64268036813602A
:1059000002684368536081F31088704710B5EFF365
:10591000108472B602680A600168FFE70846FFF764
:10592000E9FF84F3108810BD0B6082F31088704784
:1059300000F0BBBD6D486E49016001F1200242607C
:1059400001F13003836001F14002026201F148037A
:10595000436201F15002C26001F15803036101F199
:105960007402426101F1780383618431C16100F006
:10597000BABD38B504465F4D2846FFF79BFF5B492B
:105980004868A1680160E2685B49C2604160856067
:1059900000F0C5FD59482AE080B5544842681368B4
:1059A00001211972406800F0C2FD002002BD38B527
:1059B000524C504D04E000F041F8009821688847AF
:1059C0002846FFF77AFF0028F5D031BD4B494868DB
:1059D000004738B504464A4D2846006040604349B8
:1059E000C868A1680160456000F0A6FD45482168CF
:1059F000016062684260002032BD80B53B48C268E9
:105A0000136810211972C06800F0A1FD002002BDCA
:105A100036483C4AC168C36811681868084738B5F9
:105A2000384C374D04E000F009F800986168884769
:105A30002846FFF742FF0028F5D031BD69462846C9
:105A4000FFF764BF38B504462F4D2846FFF732FFF5
:105A50002E480060406025480069A1688160E268C6
:105A6000C26005612168016062684260216941612C
:105A70006269826131BD80B501462448FFF730FF7D
:105A8000BDE802400FF2090000F06FBD0000000009
:105A900038B5164C1D4D06E0FFF7D0FF0099206980
:105AA0000069FFF71DFF2846FFF707FF0028F3D026
:105AB00031BD10B5164C2046006040600B49486966
:105AC0000460BDE8104000F069BD1CB5104C06E054
:105AD00069462046FFF71AFF0098C046C046204698
:105AE000FFF7EBFE0028F3D013BD000000000320F9
:105AF000B8090320580A03209C080320B839002065
:105B0000600A0320C0390020480A0320B039002071
:105B1000500A032080B5944A4FF4004111600020E0
:105B2000FEF7F4FE48B180799049914A0A600B680B
:105B300023F47C5343EA00230B6001BD10B58D486C
:105B40008D4C88B0016841F050010160CA228B4839
:105B5000C2615321C161FF210268D208D2000260F4
:105B6000C1618748026842F400420260FEF798FC77
:105B700084480268042161F30202026000F030FDF3
:105B800081490020FFF7E7FB00F043FD01210120E0
:105B9000FEF78BFC0020FFF795FD0120FFF792FD3B
:105BA0000220FFF78FFD0120FFF7B6FD0121002045
:105BB000FFF7CCFDFFF7BEFE744A00211020FEF770
:105BC00042FD04F23C500FF235010090019169460C
:105BD0000FF22D0000F042F904F5C961039104F2BF
:105BE0005470029040F23C510591049402A8FFF7D2
:105BF00029FFFFF79DFE08B010BD000070470000B0
:105C000070B5064688B07068614C00F10B054FF422
:105C100012422988891A11D0491E6ED0491E00F0FF
:105C20008080891E00F08A80491E00F08C80491E09
:105C300000F08C80491E00F0908092E06846FEF7EC
:105C400088FD9DF802309DF801209DF80010204647
:105C5000FEF7C0FD9DF804100FF26810FEF7BAFDC4
:105C60009DF80C309DF80B209DF80A105CA0FEF703
:105C7000B1FD00BF60A0FEF7ADFD04A80021002229
:105C80000023002580E82E00716801F10D0090F8D6
:105C9000000038BB60A03F4DFEF79CFD00F02AFDE0
:105CA0000F207F218DF810008DF8121004F5097077
:105CB0002E68360C3146FEF78DFDADF81C602C6861
:105CC0005CA0C4F30B042146FEF784FDADF81E4032
:105CD00004A8FEF737FDFDF78DFE00210120FEF739
:105CE000E4FB3EE0012805D104F51270FEF772FDD9
:105CF000357036E004F51F7031E004F12400FEF742
:105D000069FD706800F10D0504F5C0702978FEF793
:105D100061FD2878002814BF04F5F67004F5D870EA
:105D20001DE004F14800FEF755FDD5F80620D5F832
:105D3000021004F19800FEF74DFD12E0D5F80210B4
:105D400004F1C00006E004F1FC0008E0D5F8021000
:105D500004F59070FEF73EFD03E004F5AE70FEF72B
:105D600039FD08B070BD0000104000589C0000587C
:105D7000FECAFECA900800583C00032008280040D4
:105D80000800005880040058883700209F5E0008F3
:105D90006C950008002004E04FF0FF30FEF79EBB3A
:105DA000704700211020FEF75CBC0220FEF77BBC90
:105DB0000220FEF780BCB0F5806F08BFFEF712B975
:105DC00070470000576972656C657373204669728D
:105DD0006D77617265206275696C642025640A00C4
:105DE0004655532076657273696F6E2025642E25A3
:105DF000642E25640A0000003E3E3D3D205348438A
:105E0000495F5355425F4556545F434F44455F5287
:105E1000454144590A0D00003E3E3D3D2057495240
:105E2000454C4553535F46575F52554E4E494E477A
:105E3000200A00003E3E3D3D204442474D43555F11
:105E400047657444657669636549443D20256C78EF
:105E5000200A0D007047C043FEF740BB7FB50C46DB
:105E60004E4D61684E4E28626962281D00F080FC2C
:105E70002468746006F1080000604060012000F0B2
:105E800069F801203070696841B10FF2ED020FF23C
:105E9000F103009201930294684688477FBD1FB5C5
:105EA0003F4C04F10800FFF708FDF8B92078E8B18D
:105EB000694604F10800FFF729FD3848016A49B135
:105EC0000098029001228DF8042001A888479DF8CF
:105ED000040000E00120207018B10098FFF7CBFD0E
:105EE00004E0009904F10800FFF7F0FC04F1080059
:105EF000FFF7E3FC28B9207818B104F10800FFF798
:105F000050FF1FBD2DE9F04105460E4690461C4648
:105F1000002000F01FF8224F7868A0F80950C672E0
:105F2000324641460C30FBF7E5F81C4A0120107060
:105F3000002152690020904748F2E800FFF738FF3F
:105F400079688A78D21C04F10800FBF7D3F8BDE821
:105F5000F041012010B51149124C496A20B901B134
:105F600088470021217010BD0120207011B1BDE8CB
:105F70001040084710BD00000020FFF716BF0000CA
:105F800010B50146064C04F10800FFF7A9FC04F126
:105F90000800BDE81040FFF704BF00003C390020B6
:105FA000843900209E39002010B50446FBF7A2F882
:105FB000204610BD10B5044610460A46014620464C
:105FC00000F0E8F9204610BD80B5C046C046C04686
:105FD000C046C046C046C046C046C046C046C04691
:105FE000C046C046C046C046C046C046C046C04681
:105FF000C046C046C046C046C04600F042F8C04653
:10600000C046C046C046C046C046C046C046BDE8C1
:10601000014000F0B7BB000038B5054684B0687891
:106020000024FF2802BFB5F8030040F60141884272
:1060300024D16449B5F807008B88821E9A4209D1A1
:10604000687B0124C20752BF8DF8004000218DF803
:10605000001010E04988401E88420FD15A48FEF7D0
:10606000B9FB03208DF8000005F10D02B5F80B1007
:106070008DF8081001926846FEF7AEFF204605B085
:1060800030BD10B58AB051484E4CFEF79BFF8F21B2
:106090008DF81810E522B3218DF819208DF81A100B
:1060A000D5222E218DF81B208DF81C107F224A212D
:1060B0008DF81D208DF81E1098222A218DF81F20A2
:1060C0008DF8201048227A218DF821208DF8221099
:1060D000CC2240218DF823208DF82410FE220021AF
:1060E0008DF82520ADF8261000940623012206A97C
:1060F0000220FEF79BFC00F034F8412200F025F866
:10610000A21C00F010F8062100F016F800F029F8A3
:10611000422200F01AF8221D00F005F8102100F0CC
:106120000BF80AB010BD05920491029119208DF868
:1061300018000A2300227047039301920091022362
:10614000208806AA0221FEF7BFBC8DF823108DF827
:106150002420FE2100228DF82510ADF826200121F3
:106160007047ED2182228DF819108DF81A20AE218A
:10617000ED228DF81B108DF81C2021214C228DF86A
:106180001D108DF81E209D2141228DF81F108DF8C5
:106190002020452122228DF821108DF822208E21E9
:1061A00070471CB5024692204FF64264A24207D1C6
:1061B000044800910223818800880022FEF7DEFC5B
:1061C00016BD0000D039002090A400081960000816
:1061D000104700002DE9F04F0024DFF89881664E4B
:1061E0004FF00F0902460B4631E0644FBA4214BF2C
:1061F0004FF0070E4FF0040E0EFA01F141EA050EC2
:106200005F4941F82CE0C74331685D683940ED02D1
:1062100048BF0143316071685D683940AD0248BFD5
:1062200001437160D8F800105D683940ED0348BF44
:106230000143C8F80010D8F8041007EA010C5968A7
:10624000890348BF40EA0C0CC8F804C0641C1868F5
:1062500030FA04F100F07D800121A1400840F5D022
:106260004FEA440C032505FA0CF56FEA050E5D684C
:1062700005F00307012F1CBF05F00305022D10D107
:106280009568DF680EEA050507FA0CF73D4395604F
:10629000556825EA01015D68C5F30015A54029434D
:1062A0005160A1001D7905F00305032D1ED0D568AE
:1062B0009F680EEA050507FA0CF73D43D5601D7986
:1062C00005F00305022D11D1E50802EB850501F06B
:1062D0001C07D5F820B009FA07FA2BEA0A0BD3F805
:1062E00010A00AFA07F747EA0B072F6215680EEAB3
:1062F00005071D7905F0030505FA0CF545EA070CBD
:10630000C2F800C05D6815F4403F9FD01C4D4FEAB5
:10631000940C55F82C5001F00C0109FA01F7BD431B
:10632000B2F1904F08BF4FF0000E11D0154FBA4296
:1063300008BF4FF0010E0BD0134FBA4208BF4FF009
:10634000020E05D0114FBA427FF44FAF4FF0030E4B
:1063500052E7BDE8F08F0AB18161704781627047F2
:106360000B4A136801460B421CBF1160FFF723BDA7
:1063700070470000800800580008005800100048CE
:10638000080001400004004800080048000C0048D4
:106390000C0800584018491C1CBFB1F1010100F85D
:1063A000012DF9D170470000C0680840884201D132
:1063B0000120704700207047C0690840884201D121
:1063C000012070470020704710B5794C022120460B
:1063D000FFF7F2FF38B16068C043810703D5FFF7CC
:1063E0001EFB022018E001212046FFF7E5FF38B12F
:1063F0006068C043C10703D5FFF7D9FA01200BE05D
:1064000008212046FFF7D8FF38B16068C043010774
:1064100003D5FFF75AFB0820A06010BD10B5644CEF
:1064200002212046FFF7C0FF70B96068C0438203B5
:106430000AD500F035F841F40031616080F310882E
:10644000BDE81040FFF7E4BA08212046FFF7ACFF93
:1064500088B96068C04302030DD500F021F841F40B
:106460000021616080F310885249086880474FF42A
:106470000022A26010BD20212046FFF795FF70B9D1
:106480006068C04382020AD500F00AF841F40011A6
:10649000616080F31088BDE81040FFF797BA10BD27
:1064A000EFF3108072B661687047434881B00168AD
:1064B00041F480110160006800F4801000900098A1
:1064C0003E48016841F4007101603D48026842F4B1
:1064D0000072026040BF20BF3A48016841F40041A9
:1064E000016001B0704780B53748016841F4801100
:1064F0000160006800F48010009000982C4801684A
:1065000041F001010160026842F4803202602C20F7
:10651000FCF7E4FDBDE802402D20FCF7DFBDEFF302
:10652000108072B629490A68520852000BE02849C7
:106530004FF4803008607047EFF3108072B6234943
:106540000A6822F002020A6080F3108870471F4830
:106550004FF400314160EFF3108172B6026822F40B
:106560000032026081F31088704738B50446104D40
:1065700008212846FFF718FF58B10E480460EFF3D2
:10658000108072B6696821F40021696080F3108878
:1065900031BDA0474FF40020A86031BDEFF310805B
:1065A00072B60A490A6822F00802CCE7000000002F
:1065B000000C0058D839002050010058200800581D
:1065C000D40800580C04005850000058040C00581F
:1065D000080C0058DFF81800006800F4C06070472D
:1065E000DFF81000FFE7016841F480610160704747
:1065F0000004005804040058484900E0484981B0AC
:106600000A6802430A60096808400090009801B0D7
:106610007047F0B585B000F0CEF800F0CEF84148F4
:10662000016841F480310160002600F0F2F8142185
:10663000684600F02BF90025002400213A4A02EBBD
:10664000C102907988B11368B3F1904F0BD0374FE6
:10665000BB4205D0364FBB4207D19088044304E0CB
:106660009288154301E090880643491C2629E5DB02
:10667000012101910020032231000290039211D0E8
:1066800000960120FFF7B8FF0120FFF7B7FF69462A
:106690004FF09040FFF79EFD002231464FF09040B2
:1066A000FFF759FE280010D000950220FFF7A4FF45
:1066B0000220FFF7A3FF1D4E69463046FFF78AFD13
:1066C000002229463046FFF746FE200010D00094F5
:1066D0000420FFF791FF0420FFF790FF144D694657
:1066E0002846FFF777FD002221462846FFF733FEB4
:1066F00005B0F0BD00B587B04FEA0D0015A11C2212
:10670000FAF7F8FCFFF7D5F96846FEF713F807B07B
:1067100000BD084800F5806100F0BCB84C0000588E
:106720004C01005890080058E49D000800040048FF
:1067300000080048F028002070B504460D461646B3
:1067400000F0D2F833462A462146BDE870400020CA
:1067500000F05EB900000000000000000000000032
:10676000E49D0008280003202C00032026040400D8
:106770000249034A01600261704700BFD359000813
:10678000FB59000870470000114810B5016841F43A
:10679000807101600320FCF77AFC002000F060F9B2
:1067A0000024002814BF012400F087F9204610BD02
:1067B000084880687047084805E00748016841F0CC
:1067C000020101607047016841F0010101607047FA
:1067D00000400058BC280020042004E038B5EFF346
:1067E000108472B6274D6946281D00F0F7FA6946F5
:1067F000281D00F04EFB38B184F31088BDF800105E
:10680000214AFFF799FF31BD0120287084F31088D9
:1068100031BD80B5FFF77DFF0221009100231948AB
:1068200000F124014FF48052001D00F0BBF901BDBE
:1068300000BFF8B514460025EFF3108610F1010FE4
:106840001ED001281CBF02284FF0FF3518D1BCB163
:10685000254672B60B4F012392B2381D00F0B7F9EE
:1068600000281CBF3978002908D000223A7086F32E
:106870001088A1B2044AFFF75FFF01E086F3108899
:106880002846F2BD08140020DD670008002200F051
:106890004BBB000010B5594C002220606160A28102
:1068A00004F114005649FCF76DFC564904F114003C
:1068B000FCF77BFC04F53C7104F1140000F0FEFCD5
:1068C00004F11400FCF78AFC0FF28103002204F1AA
:1068D00010010020FEF7B8FDBDE810400FF23D02A8
:1068E00000212020FDF7AFBEF8B50E461746EFF3A6
:1068F0001084424D014628683246FAF7FBFBAF6030
:10690000EE8172B6287B20B101212020FDF7A9FE7F
:1069100001E00120687384F31088F1BD10B5374C95
:10692000E289216804F1140000F0D3FC04F11400A2
:1069300000F0EBFC28B1BDE8104001212020FDF75C
:1069400090BEA068BDE810400047000038B5EFF3E6
:10695000108472B6294D687B0121297310B1202063
:10696000FDF77FFE84F31088287CBDE83240FEF7F7
:1069700093BD10B5214C616804F1140000F0B8FC1F
:1069800004F1140000F0D7FC207C4AF21701FEF756
:10699000D4FD002010BD0020704710B520281A4AF1
:1069A00002D0212812D01FE008784B788C7840EA7A
:1069B0000320CB7840EA044040EA03601060087985
:1069C00010714B795371887990710DE010680870DF
:1069D000030A040C000EC8704B708C70107908719B
:1069E00053794B7190798871002010BD80B5C046F5
:1069F000C046064800F09FFC002002BD2C24002069
:106A000084280020BC270020E0280020402400200B
:106A100038B50024022811D10E4D0F482B600F4BC2
:106A2000036000F0A3FC012805D007D3032804D09D
:106A300038BF022402E0012400E00324204632BDD6
:106A400000680649884204D1024A1068002818BF2D
:106A500000477047DC390020CC3400200080004023
:106A600070B50F4E044630780025A8B101F098FAB1
:106A700032784FF47A71B1FBF2F2B0FBF2F0FCF72E
:106A800047FB48B9102C07D2002221464FF0FF30B7
:106A9000FCF707FBB46000E00125284670BD00BF8D
:106AA000BC2800203A4981B00A6802430A6009689C
:106AB00008400090009801B0704780B54FF4002066
:106AC000FFF7F0FF002200212E20FCF7EAFABDE8D4
:106AD00002402E20FCF702BB01682E4A914200D0F2
:106AE000704780B54FF48010FFF7DCFF00220021D3
:106AF0002C20FCF7D6FA2C20FCF7F0FA002200211B
:106B00002D20FCF7CEFABDE802402D20FCF7E6BAB6
:106B100010B594B0044650216846FFF7B7FE2268CE
:106B20001D498A420FD14FF4007000904FF0805100
:106B30000E91684601F0DCFA08B1C046C0464FF439
:106B40008020FFF7AFFF14B010BD1CB504461349F9
:106B5000206888421BD101F06DFC01F06BFC1048ED
:106B6000826B012161F309228263816B41F4004150
:106B70008163026842F480620260006800F4806011
:106B8000009000982046BDE8164001F0E7BC13BD18
:106B900050000058000C0058001000580028004019
:106BA0005800005830B5039C016000250021C160E9
:106BB00041610561A107856142600381047704D5C5
:106BC000008910B14FF0FF3030BD002030BD2DE9FD
:106BD000F84F054684B0288900260C46B046B446D6
:106BE00000280CBF022700276969A9B190B928695C
:106BF000D5F804E0461C764528BFA6EB0E06D5F86E
:106C000000E01EF800001EF8066000EB0626B61C29
:106C1000B6B203E0064600E000B102462869D5F8A6
:106C20000CE0704523BFD5F80490A9EB0000801B51
:106C3000002007EB020E03FB0EF9814532BF002056
:106C4000B0FBFEFA0EFB1A00C0B2874209DA95F8D3
:106C50001CE05FEACE7A48BF84465FEA8E7048BF88
:106C6000BC46100000F0B680686849446144884220
:106C7000C0F0B080C14692460294ADF80020039364
:106C800057E082073DD52889002840F0A3802A6874
:106C90001A44260A02F8024C2246D5F8008098448D
:106CA00008F8016CA04628681844FAF723FA6969C5
:106CB000A86961186961401C019CA86118E09CB337
:106CC000287FC207DDD5288948B928681844FF21E4
:106CD00000F8021CFF222968194401F8012C4FF02A
:106CE0000008686924186C6154462889002340B95B
:106CF0002A681470200A2968487002236869801C79
:106D000068613E190020B6B228616CB1C344029894
:106D1000D5F800C000EB0B0122460CEB0300FAF79C
:106D2000E9F9686924186C6109F10109A869401C36
:106D3000A861039A68682969914543D27118814214
:106D40002CBF081A0846286103462889A8B9296873
:106D5000BDF80000C8545B1C6868834228BF1B1A3A
:106D6000BDF800002968000AC8545B1C68688342AB
:106D700028BF1B1A6869801C68616C68BDF8001028
:106D8000E41A8C4288BF0C4602980AFB09FB00EB10
:106D90000B01AAEB04005445019003D08FD2287F49
:106DA00000288CD12E682246F018FAF7A3F96869FA
:106DB00020186861A046BDF80060019CBE19002340
:106DC000B6B2A2E77A1882422CBF171A7F18286839
:106DD000C01900E0002005B0BDE8F08FF0B5024614
:106DE0000023108900280CBF0225002554690026C5
:106DF000002C4DD058B9D36857685E1CBE4228BFDE
:106E0000F61B1768FB5CBE5D03EB062600E006463A
:106E1000137F03F00303012B22D14FF6FF739E4231
:106E200008BF002808D0D36817699F4218D2B8B1AC
:106E30005768FB1A834213D25668D368A41B1C19E7
:106E400054610024D46050B9012E94BFC6F10106EC
:106E5000012610680378805D03EB002600E00646FB
:106E6000D2F80CC0576805EB0C00B84228BFC01B15
:106E7000136803445069AC19001B05D0B444654441
:106E8000BD4228BFED1BD56050619069401E9061E6
:106E900046E0F0B502460023108900280CBF022509
:106EA000002554690026002C3AD0D3681C4658B9F6
:106EB00057685E1CBE4228BFF61B176817F803C050
:106EC000BE5D0CEB062600E00646177F07F00307C1
:106ED000012F1DD14FF6FF77BE4208BF002807D112
:106EE00050680024012894BFC0F1010001200AE08D
:106EF00017699F420CD258B15768FB1A834207D2D8
:106F00000024064604E013681E78185C06EB002691
:106F100050682B1983422CBF1D1A2D191068431974
:106F200001B10E801846F0BD00B500BF13009646B3
:106F30009446103928BFA0E80C50FAD85FEA417C8B
:106F400028BF0CC048BF40F8042BC90728BF20F851
:106F5000022B48BF00F8012B00BD0000F8B5054624
:106F60004FF4077001F014FB040005F5307705F5C8
:106F70002F7603D1B16947F8210042E04FF4077141
:106F800001F0A4FBB06947F82040B16957F821200F
:106F9000326005F14407287C48B94FF4007300F0D3
:106FA0003EF8012085F837004FF4007306E04023D7
:106FB00000F035F8012085F8370040230222012136
:106FC0002846FBF764FB012085F877011021396022
:106FD0000823032282212846FBF759FB012004F5F0
:106FE0000174F87100212160B06905EB8002D2F8CC
:106FF000C412086880470022226100206061226874
:107000000AB90220F2BD287C00280CBF4FF400739F
:10701000402301212846FBF775FB0020F2BD022228
:1070200081212846FBF733BB38B505468121FBF7A4
:1070300038FB002285F8372001212846FBF731FB79
:10704000002085F8770182212846FBF72AFB05F10D
:1070500044000021C171016005F52F7405F53075FC
:10706000A16905EB8101086860B1496848688047FB
:10707000A16955F8210001F02CFBA169002045F819
:1070800021002060002032BDF8B5054605F52773C4
:107090000E46986B05EB80020021D2F8C0428DF8B5
:1070A0000010ADF8021000270CB90320F2BD3178B2
:1070B00011F060002DD0202847D1F288707805F5B6
:1070C000317CFAB109060FD59B6B5CF823C0DCF864
:1070D000083021469847F288082A28BF072221460F
:1070E0002846FCF754FC35E004F500710870F08880
:1070F000402828BF4020487028464A782146FCF79F
:1071000057FC27E09B6B5CF82340A3683146984707
:1071100020E0707830B101281CD00A2809D00B2853
:1071200010D012E0197803290FD102220DF10201CB
:1071300004E01878032808D1012269462846FCF7A4
:1071400026FC07E01878032804D031462846FCF7CF
:10715000E0FB03273846F2BDF8B5044604F5327368
:10716000D8681E6804EB8002D2F8C0520DB9032023
:10717000F2BD01F00F07142010FB07F004EB000C28
:10718000DCF8140080B128225743F219126AB0FBD0
:10719000F2F602FB160038B9CCF8140000230022E6
:1071A0002046FBF7A8FA0FE005F502700022C26046
:1071B000DB6804EB8302D2F8C442236923B10A4698
:1071C000006805F5047198470020F2BD70B50546CA
:1071D000D5F8D40205EB8002D2F8C0420CB90320E6
:1071E00070BD284604F50176FBF793FA04F50371A8
:1071F000B060D5F8D422306805EB8203D3F8C442DE
:10720000E2689047002070BD10B5D0F8D41200EBB2
:10721000810000F53070016809B9032010BD436892
:10722000002B1EBF01F500742078FF2804D062787F
:107230009B689847FF202070002010BDF8B511E032
:10724000F8B500F027F800F020F800F029F80CB1AC
:107250001021A1714FF4007105B1A98000B18180A6
:107260000FE0F8B500F016F800F00FF800F018F88D
:107270000CB11021A1710DB14021A98008B14021AC
:107280008180432030803846F2BD044601213846D3
:10729000FCF7CDB80646074F82213846FCF7C7B841
:1072A000054681213846FCF7C2B80A210180024810
:1072B0007047000078270020D428002009B9032057
:1072C0007047D0F8D42200EB8200C0F8C41200202E
:1072D0007047D0F8D43200EB8300D0F8C00208B970
:1072E0000320704700F50270016082600020704743
:1072F000D0F8D42200EB8200D0F8C00208B90320F5
:107300007047C0F804120020704710B500F026F84E
:10731000012209B9032010BD01F50274E16841B9E9
:10732000E260A1688162A36822688121FBF7E3F92A
:107330000022104610BD80B500F010F809B90320F6
:1073400002BDD1F80422017C00290CBF4FF4007368
:1073500040230121FBF7D6F9002002BDD0F8D4125A
:1073600000EB8102D2F8C0127047000038B5044625
:1073700004F154051346686B202831D121B318005D
:1073800022D021652B806B800020E8632121696376
:10739000A86AD8B1DFF85C13C162DFF85C03A96AA0
:1073A0000863A96ADFF8540348630020A96A886368
:1073B0002068216D00F12802A86A01F08DF928B13A
:1073C0001020E86320216963012032BD216840203C
:1073D0000862226800F006F800F080F9F9D132BDA9
:1073E000022032BD02F1080151E8001F0832704747
:1073F000216801F1080353E8001F206800F108022A
:1074000021F0400142E80010002870472DE9F041CA
:10741000044640F60F0C2268D669104616EA0C0F97
:107420000768936804F15C0507F0200006F020016E
:107430000DD1002914D010B9D80040F18D80A96970
:10744000002900F045812046BDE8F0410847DFF8FB
:1074500054C313EA0C0F04BFDFF84CE317EA0E0F16
:107460007AD05FEAC67E48BF5FEAC75807D54FF0BB
:10747000010EC2F820E06A6B42F001026A63B207B3
:107480000AD5DA0708D5D4F800E00222CEF8202089
:107490006A6B42F004026A6372070AD5DA0708D5FC
:1074A000D4F800E00422CEF820206A6B42F00202F9
:1074B0006A6332070DD5002808BF13EA0C0F08D005
:1074C000D4F800C00822CCF820206A6B42F00802F1
:1074D0006A63320509D57F0107D526684FF400623B
:1074E00032626A6B42F020026A636A6B002A32D011
:1074F00031B108B9D80003D5A96909B12046884738
:10750000686B21688A68510602D410F0280F1DD0DC
:10751000204600F018F920688168480611D5FFF769
:1075200067FFFCD1686A60B10FF22D318163686A30
:1075300001F050F900280ED0686A816BBDE8F04177
:1075400008472046BDE8F04101F0F9B9204601F0B6
:10755000F6F900206863BBE02869012878D1F006BD
:1075600076D5F90674D510201062226829889068B3
:10757000420637D56A6A1368586880B2002828D056
:10758000884226DA6880106801688A061AD400F0FA
:10759000ABF821F4807100F0A3F8F8D100F0B0F856
:1075A000FCD1FFF725FFFCD12020286300212961B1
:1075B00000F09AF821F0100100F092F8F8D1686A12
:1075C00001F0D2F80220686129886888091A89B216
:1075D00006E088427CD11A68900679D502226A6159
:1075E000204631E06A886888891A00281CBF88B262
:1075F00000286DD02246106850E8003F044623F46E
:10760000907300F067F8F6D1106800F1080400F1FB
:10761000080354E8004FDFF88801044043E80040C5
:107620000028F1D102F15C032020186300241C61C2
:107630009C61146854E8004F156800F0DDF8F8D13B
:107640000220586189B21046BDE8F04101F078B9D6
:10765000F00209D5590207D54FF480101062204678
:10766000BDE8F04101F06DB9300609D5390601D405
:10767000180205D5E96959B32046BDE8F04108472D
:10768000700613D5790611D500F02EF821F04001CF
:1076900000F026F8F8D104F15C002021C16200223C
:1076A000C2612046BDE8F041FFF7CAB9300206D5F5
:1076B000790004D52046BDE8F04101F043B9F0015E
:1076C00048BF002F04D52046BDE8F04101F03BB98A
:1076D000BDE8F08144E800300028704741F08001A7
:1076E00042E8001000287047206850E8001F02465A
:1076F00070470000AD770008F377000805780008B0
:10770000216801F1080353E8001F2068490800F1CF
:107710000802490042E800100028704710B500F048
:1077200008F8FCD100F0A8F8FCD12021C0F888109E
:1077300010BD016851E8002F0B4622F0C00243E85B
:10774000002100297047016851E8002F0B4622F400
:10775000907243E800210029F5D1016801F1080386
:1077600001F1080253E8003F0D490B4042E80031A7
:107770000029F2D1C16E012909D1026852E8002F17
:10778000036822F0100243E800210029F5D12021EE
:10779000C0F88C100022C2664267704700000000EB
:1077A000FEFFFFEF010000102001000410B50146AC
:1077B000886A09680A68930609D40021A0F856105F
:1077C00000F009F8FCD100F04DF8FCD110BDBDE887
:1077D0001040FFF735B9026802F1080454E8002FA1
:1077E000016801F1080322F0800243E8002100292A
:1077F0007047806A01F0A8B824F0100445E8004002
:1078000000287047F8B5846A04F1880504F156072A
:1078100000F01CF806D5212804D10020388020462D
:10782000FFF77CFF21688868410606D5222E04D127
:10783000002038812046FFF786FFA86840F010003E
:10784000A8602046BDE8F24001F079B828686E686B
:1078500021688A6811067047806A0021A0F85E10CE
:1078600001F06DB8016851E8002F0B4642F040026C
:1078700043E8002100297047026802F1080454E837
:10788000002F016801F1080322F4000243E80021FF
:10789000002970474FF0B040006800F0F000B028B9
:1078A00088BFB0207047DFF8AC070068000100F027
:1078B000F00070472DE9F041040051D02078810696
:1078C0004FF0B0453AD5A868E96810F00C0001F017
:1078D000030103D00C2808BF012943D1E069002827
:1078E0003ED0FFF7D7FF0146606A814211D200F017
:1078F00065FB002834D12968606A21F0F00101435A
:1079000029606968206A21F47F4141EA00216960A9
:1079100009E0296821F0F001084300F018FA606AD4
:1079200000F04CFBE0B900F03BFBDFF82C170860DF
:10793000DFF828070068FFF793F888B92078C107B7
:1079400062D5A868E96800F00C00082801F003017E
:1079500003D00C2808BF03292ED16068002853D11A
:107960000120F2E1E069B8B1296841F0010100F0BD
:10797000D8FA06462868800706D400F0E7FF801B87
:107980000328F7D30320E0E12868616A20F0F000C3
:10799000084300F0DCF9D1E728684008400000F017
:1079A00078FB064628684008C007C7D500F0CEFF20
:1079B000801B0328F6D3E5E76068B0F5803F04D16B
:1079C000296841F48031296003E0286820F4803080
:1079D0002860606858B100F0B9FF06462868800347
:1079E00012D400F0B3FF801B6528F7D3CAE700F07C
:1079F000ADFF06462868400CC00705D500F0A6FF7D
:107A0000801B6528F6D3BDE72078810715D5A868C7
:107A1000E96800F00C00042801F0030103D00C28F1
:107A200008BF022928D1E068002899D06868216938
:107A300020F0FE4040EA016068602168DFF82066BF
:107A400011F0180F00F08B806069002877D0C8060D
:107A5000706858D5800730D4716841F001017160B9
:107A600000F074FF07467068800726D400F06EFFB0
:107A7000C01B0328F7D385E7E06870B1296841F49B
:107A8000807100F04EFA064628684005CED400F01A
:107A90005DFF801B0328F7D374E7286820F480700B
:107AA00000F0F7FA06462868800AC007C5D500F03E
:107AB0004DFF801B0328F6D364E7706840F0040094
:107AC00000F04EF907467068000705D400F03EFF4D
:107AD000C01B0428F7D355E77068A16920F47060D3
:107AE00040EA0120706070684008400000F038F9FA
:107AF000074670684008C00731D500F027FFC01B5B
:107B00000328F6D33EE740F0010000F029F90746CC
:107B10007068800705D400F019FFC01B0328F7D355
:107B200030E7706820F0040070607068C008C0071B
:107B300015D500F00BFFC01B0428F6D322E77068B0
:107B400020F0040000F00CF907467068C008C00778
:107B5000C9D500F0FBFEC01B0428F6D312E720783D
:107B600041074CD5DFF8FC84D8F80000C1050ED4DD
:107B700000F060FC00F0EAFE0746D8F80000C105FE
:107B800005D400F0E3FEC01B0328F6D3FAE6A06894
:107B9000012804D1306840F00100306010E0052871
:107BA000306806D140F004003060316841F00101D6
:107BB00005E0400840003060316821F00401316088
:107BC000A06841F2893760B100F0C0FE804630689D
:107BD000800714D400F0BAFEA0EB0800B842F6D338
:107BE000D0E600F0B3FE804630684008C00706D5F6
:107BF00000F0ACFEA0EB0800B842F5D3C2E6207856
:107C0000410622D5A06A0028B0680ED040F00100DD
:107C1000B06000F09BFE0746B068800715D400F006
:107C200095FEC01B0328F7D3ACE640084000B060C7
:107C300000F08CFE0746B0684008C00705D500F08C
:107C400085FEC01B0328F6D39CE6E06A00287BD0A3
:107C5000A968EA68022801F00C0161D1236B02F0E7
:107C60000300984202BF02F07000636B984213D188
:107C7000A36BC2F30620984202BF02F47810E36BB4
:107C8000984209D1236C02F06060984202BF02F072
:107C90006042606C824237D00C2942D02868410192
:107CA0003FF55EAE00F0F2F906462868810105D581
:107CB00000F04CFE801B0328F7D363E6EA68DFF888
:107CC000A803216B0240606B0A43A16B0243E06B87
:107CD00042EA0122216C0243606C0A430243EA60DB
:107CE000296841F080712960E86840F08050E860C0
:107CF00000F02CFE04462868810125D400F026FE01
:107D0000001B0328F7D33DE6286881011CD42868AE
:107D100040F080702860E96841F08051E960E7E751
:107D20000C293FF41DAE00F0B1F90446286881012A
:107D300005D500F00BFE001B0328F7D322E6E96807
:107D4000DFF828030140E9600020BDE8F0812860E9
:107D50006868216A20F47F4040EA0120686070472B
:107D6000706000F0F3BD2DE9F8430400884600F090
:107D7000B080DFF8FC5200F0CBF80CD200F0CDF868
:107D8000074600F0C5F806D000F0E0FDC01B022851
:107D9000F7D90320BAE0207882074FF0B04711D519
:107DA000B968A06821F0F0010143B96000F0CEFD90
:107DB0000646B868C00305D400F0C8FD801B022841
:107DC000F7D9E6E72078DFF88C62820612D53168B1
:107DD000606921F0F0010143316000F0B7FD814698
:107DE0003068800306D400F0B1FDA0EB0900022842
:107DF000F6D9CEE72078410613D53068A16900098D
:107E0000000140EA1110306000F0A0FD81463068AA
:107E1000C00306D400F09AFDA0EB09000228F6D9B1
:107E2000B7E72078420711D5B968E06821F4E0612E
:107E30000143B96000F08AFD0646B868800305D4A6
:107E400000F084FD801B0228F7D9A2E72078010703
:107E500012D5B868216920F4605040EAC100B860CA
:107E600000F074FD0646B868400305D400F06EFDCE
:107E7000801B0228F7D98CE72078C1072BD56068D2
:107E8000022819D13968890323D5BA68920840EAD3
:107E90008200B86000F05AFD0646B868616800F0DC
:107EA0000C00B0EB810F16D000F050FD801B41F2AA
:107EB00089318842F1D36CE7032802D139688901FE
:107EC00003E00028396802D18907DED401E04905C2
:107ED000DBD401201AE0286800F0070080450BD2AF
:107EE00000F01BF8044600F013F805D000F02EFD5A
:107EF000001B0228F7D94CE700F052F856490860F9
:107F0000FEF756FCBDE8F243FEF7AABDBDE8F283DA
:107F1000286800F00700404570472968C90848EA0A
:107F2000C101296000F012BD38B54FF0B045524C88
:107F3000A96811F00C0106D1FFF7ACFCC0F30310E7
:107F400054F8200032BD04294C4828D008294C4A56
:107F500004D12968C90222D4104632BDE96801F073
:107F6000030102290CD0032904D12968C90207D4CE
:107F7000104605E0FFF78EFCC0F3031054F8200014
:107F8000E968EA68EB68C1F306214843C2F30211CD
:107F9000491C5B0FB0FBF1F05B1CB0FBF3F032BD92
:107FA00080B5FFF7C1FF3349FFE7364A0968C1F3DF
:107FB000031152F82110B0FBF1F002BD70B52E494B
:107FC000B1282EBFCC6AC0F3031051F82040FFF750
:107FD0006AFC0546FEF7FEFA2A49C5F3031251F87A
:107FE0002210294AB4FBF1F15FF00004B1FBF2F179
:107FF000B0F5007F2FA220461FD100BF26A353F863
:1080000020508D4216D2401C0328F8D9184D2868FC
:10801000C00844EAC00000F03CF80646286800F0BA
:108020000700A04213D000F091FC801B0328F5D379
:10803000032070BD52F82040E8E700BF1AA353F8B0
:1080400020508D42F6D2401C0328F8D3DEE70020F2
:1080500070BD000008010058EC280020C428002052
:1080600090000058000400588C80C111FCFFFEEE07
:10807000004000580800005884A200080024F400C2
:108080000048E80144A2000840420F00286820F0A0
:108090008070286000F05ABC12000000240000002C
:1080A0003600000040000000060000000C00000048
:1080B00010000000000000000100000002000000AD
:1080C00003000000DFF860130A68030903F47F234C
:1080D00000019A4300F47F2000F081B9DFF84823C3
:1080E0001368010C23EA014343EA0043136070471D
:1080F0002DE9F843054600242878DFF82C63410673
:10810000A0464FF0B04743D5286B70B1B0F5800F53
:1081100006D0B0F5000F18BFB0F5400F2ED035E0F7
:10812000F96841F48031F96029E0386820F0806016
:10813000386000F00BFC81463868C00EC00707D5D8
:1081400000F004FCA0EB09000228F5D9032415E097
:1081500000F03CF9A86821F4781100F02FF981466D
:108160003868000106D400F0F1FBA0EB09000228FA
:10817000F6D9EBE739696869014339613CB931687F
:10818000286B21F440010143316001E00124A04645
:108190002868010532D5D6F80880286C08F44078A4
:1081A00080452AD000F046F9B8F1000FB16805D13A
:1081B000286C21F440710143B1601EE0B06840F4C6
:1081C0008030B06021F44071B06820F48030B0603D
:1081D000286C0143B160B068C0070ED500F0B6FB53
:1081E0008046B068800708D400F0B0FBA0EB080020
:1081F00041F289318842F4D30324A0462878C2078B
:1082000005D53168A869890840EA8101316029787B
:10821000880705D53168E86921F440610143316080
:108220002978C80644BFA86AFFF758FF2878810656
:1082300044BFE86AFFF752FF2878410744BF286A25
:10824000FFF740FF2878010744BF686AFFF73AFF4D
:108250002868C20535D53168686B21F0406101435B
:108260003160696BB1F1006F00F0A2F8686BB0F19A
:10827000806F26D1396821F0806100F0A4F80446AF
:108280003868C00EC10707D500F060FB001B02284C
:10829000F6D94FF0030814E000F098F8E86821F0F0
:1082A000606100F08BF804463868010105D400F0E5
:1082B0004DFB001B0228F7D9EBE7396968690143D8
:1082C0003961296888051CD5A86BB0F1804F18BFAB
:1082D000B0F1004F00D020B9316821F0404108438F
:1082E00009E0316821F04041316020F0805032686F
:1082F00022F0406210433060A86BB0F1C05F00F024
:1083000057F82868420538D53168E86B21F04051AC
:1083100001433160E96BB1F1005F03D1F86840F4CB
:108320008030F860E86BB0F1805F26D1396821F0C9
:10833000806100F048F804463868C00EC10707D5D0
:1083400000F004FB001B0228F6D94FF0030814E0EC
:1083500000F03CF8286921F0604100F02FF8044655
:108360003868010105D400F0F1FA001B0228F7D9A2
:10837000EBE739696869014339612968C80405D5A3
:10838000F168686C21F440410143F1602968880478
:108390000BD5796AE86C21F0300101437962796A82
:1083A000A86C890840EA810179624046BDE8F28301
:1083B00003D1F86840F08070F8607047014339617C
:1083C000396841F08061396000F0C0BA3869696885
:1083D00020F4FE4040EA01203861396970471043BB
:1083E0000860704710B511490A6842F080720A604F
:1083F0000B6823F080730B600468416882680C4B43
:108400000C43C168144302690C4344EA02445C60B3
:108410001968406921F47C5141EA0021196019680A
:1084200041F06001196010BD880000583800005804
:10843000006000400248016841F4807101607047AB
:10844000000400588A60FF210268516280F82130E0
:10845000002180F8201000207047F8B53E4E0346FA
:1084600030684FF47A7540092C46B0FBF4F46C4345
:10847000009493F82000012801D10220F2BD0120D0
:1084800083F82000022783F82170CA201C686062EC
:10849000532718684762FF241F68B868400507D54E
:1084A0000098401E00900098F0B1F8684007F7D49B
:1084B000B86820F48060B8601868C76807F0800763
:1084C00067F49067C760306840092E46B0FBF6F647
:1084D000754300951D680098401E0090009818B1E3
:1084E000E8684607F7D506E018684462032100F003
:1084F00023F80320F2BDA868C008C000A86018686F
:1085000085682A438260186841611148016841F416
:10851000002101600F48026842F4002202601868DE
:10852000816841F480418160186800F00BF8186898
:10853000446200F001F8F2BD83F82110002083F8B6
:1085400020007047816841F480618160012170479B
:108550008008005800080058EC28002090F82010EF
:10856000012901D102207047012180F82010022347
:1085700080F82130CA2102685162532301684B629E
:10858000012301688A6842F02002FFF75BBF000008
:1085900010B50446AFF30080204600F005F804460D
:1085A000AFF30080204610BDF8B500F10F04E408D9
:1085B000E400A0422BD2082C04D2082402E00830A8
:1085C00000F047F8DFF800211368190005D10020FA
:1085D00007E00568A5420DD2011D08680028F8D102
:1085E0001868111D00E0191D0B6883420BD01D682F
:1085F000A542F8D359B10B6818680838A04208D2D0
:10860000586808600FE000F0A7F90028D7D10020D3
:10861000F2BD181908601D1D586828511E680F68A2
:10862000361B3E601C60086800281DBF4168002999
:10863000001D0020106003F10800F2BD10B5040019
:1086400006D0AFF30080204600F003F8AFF30080BF
:1086500010BD002800D1704770B4A0F10802146862
:10866000072C2ED914F0070F2BD1DFF85C30596896
:1086700009B18A4203D251605A6015E00146486848
:1086800008B19042FAD308680E18B24219D3964244
:1086900003D124180C600A4606E0486810B114445F
:1086A000A0420ED350604A60506850B1146815194A
:1086B000854206D100261E6001680C1914604068CE
:1086C000506070BC70470000C83900200022FDF7E0
:1086D00061BEFFF7B3BF0000F8B5044604F12406FD
:1086E00000253078012801D10220F2BD0120307030
:1086F0007778012F2ED102207070AC46C6F818C0D2
:10870000206807687F087F000760204600F0FBF8BC
:108710002168F06820B10A6842F00E020A6008E0A1
:10872000086820F0040008602068016841F00A0130
:108730000160706A0168CA0303D5016841F4807161
:108740000160306B18B1016841F48071016000F084
:1087500005F801E0357002252846F2BD2068016861
:1087600041F001010160704740B100F124014A78F5
:10877000022A05D00420886100220A700120704777
:108780000268136823F00E0313604A6A136823F427
:108790008073136000680268520852000260012072
:1087A00091F82020CB6902F01C02904058608A6A40
:1087B000C86A5060086B38B10246106820F48070B7
:1087C00010604A6B886B50600120487000220A706C
:1087D0000020704738B500F12402002451780229A6
:1087E00003D004209061012429E001680B6823F084
:1087F0000E030B6001680D686D086D000D60516A15
:108800000B6823F480730B60012192F82030D56946
:1088100003F01C0399406960936AD16A5960116B37
:1088200039B10B46196821F480711960536B916B53
:108830005960012151701470516901B18847204677
:1088400032BDF8B500F124010426CA691268036834
:108850001C6891F8205005F01C0506FA05F73A420D
:1088600010D067070ED51A68940603D41A6822F050
:1088700004021A6000F03EF8C968002939D0BDE84A
:10888000F4400847022606FA05F73A4213D0A70734
:1088900011D51A68940605D41A6822F00A021A60E3
:1088A00001234B7000F026F800220A70896801B39A
:1088B000BDE8F4400847082606FA05F52A4218D014
:1088C000220716D51C6824F00E041C60012291F8C2
:1088D0002030CC6903F01C039A406260012301221E
:1088E0008A614B7000220A70096911B1BDE8F44039
:1088F0000847F1BD91F82020CB6902F01C02964098
:108900005E607047000070B5C56C046D6C60446DAE
:1089100014B1856DC46D6C60012490F84450066CF0
:1089200005F01C05AC407460046863608068102822
:1089300002D1A260E16070BDA160E26070BD7047CD
:1089400070477047704770477047000001484068A3
:10895000704700BFBC2800200749086808B1002004
:1089600070470648C008C00008600549C908C9002A
:10897000091A0160704700BFE03900200F10002085
:1089800008140020000000000000000000000000AB
:108990000000000000000000440008004005020143
:1089A00012299C00F4010000FFFFFFFF48010100B5
:1089B0000020D80600037206000000000D0004002D
:1089C00020204661696C2020203A20534843495FAB
:1089D00043325F424C455F496E697420636F6D6D31
:1089E000616E642C20726573756C743A2030782542
:1089F0003032780A0D0000002020537563636573E0
:108A0000733A20534843495F43325F424C455F49C4
:108A10006E697420636F6D6D616E640A0D000000F5
:108A20003D3D3E3E20537461727420426C655F4848
:108A300063695F4761705F476174745F496E697411
:108A40002066756E6374696F6E0A000020204661AF
:108A5000696C2020203A206863695F7265736574D1
:108A600020636F6D6D616E642C20726573756C741C
:108A70003A2030782578200A000000002020466146
:108A8000696C2020203A206163695F68616C5F77C0
:108A9000726974655F636F6E6669675F6461746154
:108AA00020636F6D6D616E64202D20434F4E4649EB
:108AB000475F444154415F5055424C49435F4144F4
:108AC00044524553535F4F46465345542C207265DC
:108AD00073756C743A2030782578200A0000000005
:108AE0002020537563636573733A206163695F681F
:108AF000616C5F77726974655F636F6E6669675FEB
:108B00006461746120636F6D6D616E64202D20431C
:108B10004F4E4649475F444154415F5055424C498E
:108B2000435F414444524553535F4F464653455477
:108B30000A00000020205075626C696320426C7549
:108B400065746F6F746820416464726573733A2052
:108B5000253032783A253032783A253032783A2545
:108B60003032783A253032783A253032780A0000AF
:108B700020204661696C2020203A206163695F688B
:108B8000616C5F77726974655F636F6E6669675F5A
:108B90006461746120636F6D6D616E64202D20438C
:108BA0004F4E4649475F444154415F49525F4F46EB
:108BB000465345542C20726573756C743A20307896
:108BC0002578200A00000000202053756363657338
:108BD000733A206163695F68616C5F77726974657D
:108BE0005F636F6E6669675F6461746120636F6D58
:108BF0006D616E64202D20434F4E4649475F4441CE
:108C000054415F49525F4F46465345540A000000A5
:108C100020204661696C2020203A206163695F68EA
:108C2000616C5F77726974655F636F6E6669675FB9
:108C30006461746120636F6D6D616E64202D2043EB
:108C40004F4E4649475F444154415F45525F4F464E
:108C5000465345542C20726573756C743A203078F5
:108C60002578200A00000000202053756363657397
:108C7000733A206163695F68616C5F7772697465DC
:108C80005F636F6E6669675F6461746120636F6DB7
:108C90006D616E64202D20434F4E4649475F44412D
:108CA00054415F45525F4F46465345540A00000009
:108CB00020204661696C2020203A206163695F684A
:108CC000616C5F7365745F74785F706F7765725FF6
:108CD0006C6576656C20636F6D6D616E642C2072BF
:108CE0006573756C743A2030782578200A0000008E
:108CF0002020537563636573733A206163695F680D
:108D0000616C5F7365745F74785F706F7765725FB5
:108D10006C6576656C20636F6D6D616E640A000032
:108D200020204661696C2020203A206163695F67DA
:108D30006174745F696E697420636F6D6D616E64D8
:108D40002C20726573756C743A2030782578200A6F
:108D5000000000002020537563636573733A20613F
:108D600063695F676174745F696E697420636F6DB6
:108D70006D616E640A00000020204661696C20204D
:108D8000203A206163695F6761705F696E69742072
:108D9000636F6D6D616E642C20726573756C743ACF
:108DA0002030782578200A0020205375636365738E
:108DB000733A206163695F6761705F696E697420EF
:108DC000636F6D6D616E640A0000000020204661D3
:108DD000696C2020203A206863695F6C655F736569
:108DE000745F64656661756C745F70687920636F29
:108DF0006D6D616E642C20726573756C743A2030F1
:108E0000782578200A00000020205375636365737D
:108E1000733A206863695F6C655F7365745F64654E
:108E20006661756C745F70687920636F6D6D616EDB
:108E3000640A000020204661696C2020203A2061ED
:108E400063695F6761705F7365745F696F5F6361BA
:108E5000706162696C69747920636F6D6D616E64B5
:108E60002C20726573756C743A2030782578200A4E
:108E7000000000002020537563636573733A20611E
:108E800063695F6761705F7365745F696F5F63617A
:108E9000706162696C69747920636F6D6D616E6475
:108EA0000A00000020204661696C2020203A2061E1
:108EB00063695F6761705F7365745F61757468652E
:108EC0006E7469636174696F6E5F726571756972E2
:108ED000656D656E7420636F6D6D616E642C2072BC
:108EE0006573756C743A2030782578200A0000008C
:108EF0002020537563636573733A206163695F670C
:108F000061705F7365745F61757468656E746963C1
:108F10006174696F6E5F726571756972656D656E9A
:108F20007420636F6D6D616E640A000020204661DD
:108F3000696C2020203A206163695F6761705F631C
:108F40006F6E6669677572655F77686974656C696D
:108F5000737420636F6D6D616E642C207265737520
:108F60006C743A2030782578200A00002020537550
:108F700063636573733A206163695F6761705F6300
:108F80006F6E6669677572655F77686974656C692D
:108F9000737420636F6D6D616E640A003D3D3E3EEB
:108FA00020456E6420426C655F4863695F4761706D
:108FB0005F476174745F496E69742066756E63748F
:108FC000696F6E0A0D0000003E3E3D3D204843495A
:108FD0005F444953434F4E4E454354494F4E5F43C0
:108FE0004F4D504C4554455F4556545F434F4445A3
:108FF0000A00000020202020202D20436F6E6E6587
:109000006374696F6E2048616E646C653A2020203D
:10901000307825780A20202020202D205265617389
:109020006F6E3A20202020307825780A0D0000004D
:109030003E3E3D3D204843495F4C455F434F4E4EC9
:10904000454354494F4E5F5550444154455F434F4B
:109050004D504C4554455F5355424556545F434F20
:1090600044450A0020202020202D20436F6E6E658D
:109070006374696F6E20496E74657276616C3A2014
:109080002020252E3266206D730A20202020202DDE
:1090900020436F6E6E656374696F6E206C617465DA
:1090A0006E63793A2020202025640A202020202089
:1090B0002D205375706572766973696F6E205469DF
:1090C0006D656F75743A202564206D730A0D00007C
:1090D0003D3D3E3E204843495F4C455F5048595F07
:1090E0005550444154455F434F4D504C4554455FA6
:1090F0005355424556545F434F4445202D200000B0
:109100003D3D3E3E206863695F6C655F72656164EA
:109110005F706879202D2053756363657373200A2F
:10912000000000003D3D3E3E2050485920506172F5
:10913000616D202054583D2025642C2052583D203C
:109140002564200A0D0000003E3E3D3D2048434975
:109150005F4C455F434F4E4E454354494F4E5F432E
:109160004F4D504C4554455F5355424556545F430F
:109170004F4445202D20436F6E6E656374696F6E9A
:109180002068616E646C653A20307825780A0000AA
:1091900020202020202D20436F6E6E656374696F40
:1091A0006E2065737461626C6973686564207769A9
:1091B00074682043656E7472616C3A20403A2530C1
:1091C00032783A253032783A253032783A253032C2
:1091D000783A253032783A253032780A000000009B
:1091E0003E3E3D3D204843495F4C455F454E48412A
:1091F0004E4345445F434F4E4E454354494F4E5FA7
:10920000434F4D504C4554455F5355424556545F6E
:10921000434F4445202D20436F6E6E656374696F24
:109220006E2068616E646C653A20307825780A009B
:109230003E3E3D3D204143495F4741505F4C494DD3
:10924000495445445F444953434F56455241424C6B
:10925000455F56534556545F434F4445200A00002E
:109260003E3E3D3D204143495F4741505F504153A1
:10927000535F4B45595F5245515F56534556545FB6
:10928000434F4445200A00003D3D3E3E2061636956
:109290005F6761705F706173735F6B65795F726543
:1092A0007370203A204661696C2C20726561736F7F
:1092B0006E3A20307825780A000000003D3D3E3EA1
:1092C000206163695F6761705F706173735F6B6575
:1092D000795F72657370203A2053756363657373A9
:1092E000200A00003E3E3D3D204143495F4741503A
:1092F0005F415554484F52495A4154494F4E5F526D
:1093000045515F56534556545F434F44450A00004C
:109310003D3D3E3E204143495F4741505F424F4EF5
:10932000445F4C4F53545F56534556545F434F442C
:1093300045200A003D3D3E3E206163695F676170E4
:109340005F616C6C6F775F7265626F6E64203A204C
:109350004661696C2C20726561736F6E3A203078BB
:1093600025780A003D3D3E3E206163695F6761707C
:109370005F616C6C6F775F7265626F6E64203A201C
:1093800053756363657373200A0000003E3E3D3DE4
:10939000204143495F4741505F414444525F4E4F33
:1093A000545F5245534F4C5645445F5653455654AF
:1093B0005F434F4445200A003E3E3D3D2041434926
:1093C0005F4741505F4B455950524553535F4E4F95
:1093D00054494649434154494F4E5F5653455654AC
:1093E0005F434F44450A00003E3E3D3D2041434916
:1093F0005F4741505F4E554D455249435F434F4D86
:1094000050415249534F4E5F56414C55455F56535C
:109410004556545F434F44450A0000003D3D3E3EE3
:10942000206163695F6761705F6E756D6572696306
:109430005F636F6D70617269736F6E5F76616C757B
:10944000655F636F6E6669726D5F7965736E6F2DB0
:109450002D3E594553203A204661696C2C20726597
:1094600061736F6E3A20307825780A003D3D3E3EAC
:10947000206163695F6761705F6E756D65726963B6
:109480005F636F6D70617269736F6E5F76616C752B
:10949000655F636F6E6669726D5F7965736E6F2D60
:1094A0002D3E594553203A205375636365737320ED
:1094B0000A0000003E3E3D3D204143495F47415088
:1094C0005F50414952494E475F434F4D504C4554C0
:1094D000455F56534556545F434F44450A000000CC
:1094E00020202020202D2050616972696E67204B5A
:1094F0004F200A20202020202D2053746174757382
:109500003A20307825780A20202020202D2052650E
:1095100061736F6E3A20307825780A003E3E3D3DFB
:10952000204143495F474154545F494E44494341B8
:1095300054494F4E5F56534556545F434F44452060
:109540000D0000003E3E3D3D204143495F474150F4
:109550005F50524F435F434F4D504C4554455F560B
:10956000534556545F434F4445200D00576972657B
:109570006C657373204669726D77617265207665DC
:109580007273696F6E2025642E25642E25640A008F
:109590003E3E3D3D20534843495F5355425F45564B
:1095A000545F4552524F525F4E4F544946200A0D68
:1095B000000000003E3E3D3D20534843495F535567
:1095C000425F4556545F424C455F4E564D5F524197
:1095D0004D5F555044415445202D2D20424C45208F
:1095E0004E564D2052414D20484153204245454E54
:1095F000205550444154454420425920435055324F
:10960000200A000020202020202D20537461727435
:1096100041646472657373203D20256C78202C2092
:1096200053697A65203D20256C640A003D3D3E3E2D
:1096300020534843495F5355425F4556545F4E5649
:109640004D5F53544152545F5752495445203A207C
:109650004E756D6265724F66576F726473203D2060
:10966000256C640A000000003E3E3D3D2053484307
:10967000495F5355425F4556545F4E564D5F454EC8
:10968000445F57524954450A0D0000003D3D3E3E9F
:10969000534843495F5355425F4556545F4E564DBC
:1096A0005F53544152545F4552415345203A204E36
:1096B000756D6265724F66536563746F7273203D9A
:1096C00020256C640A0000003E3E3D3D2053484387
:1096D000495F5355425F4556545F4E564D5F454E68
:1096E000445F45524153450A0D0000003E3E3D3D5A
:1096F00020534843495F5355425F4556545F455296
:10970000524F525F4E4F54494620574954482052B9
:109710004541534F4E202578200A0D003E3E3D3DE9
:1097200020534843495F5355425F4556545F455265
:10973000524F525F4E4F5449462057495448205289
:109740004541534F4E202D204552525F424C455FBC
:10975000494E4954200A00003E3E3D3D20534843B7
:10976000495F5355425F4556545F4552524F525FD1
:109770004E4F544946205749544820524541534F73
:109780004E202D20424C45204552524F52200A0077
:109790003E3E3D3D204442474D43555F4765745230
:1097A00065766973696F6E49443D20256C78200A9F
:1097B0000D0000003E3E3D3D20534843495F535558
:1097C000425F4556545F434F44455F5245414459BB
:1097D000202D204655535F46575F52554E4E494EF9
:1097E00047200A0D000000003E3E3D3D2053484307
:1097F000495F5355425F4556545F434F44455F525E
:1098000045414459202D20554E4558504543544517
:10981000442043415345200A0D000000784900E0F0
:10982000784981B00A6802430A60096808400090DC
:10983000009801B0704710B5FCF7A6FFFCF76AF975
:1098400000F04FF800F08AF86F4C7048A06304F104
:10985000380000F0E9F800F09CF80420FFF7E0FF82
:109860000120FFF7DDFF0220FFF7DAFF0420FFF7FA
:10987000D5FF0120FFF7D2FF0220FFF7CFFF002224
:109880000F210E20F9F70DFC0E20F9F727FC00221E
:109890000F213A20F9F705FC3A20F9F71FFC5C4844
:1098A0002060002147F6FF700F22E0606160A26037
:1098B0002161A161E1616161204600F0EDF80022C3
:1098C00000212046FEF7C9FD524860620021A162D6
:1098D00004F1240000F088F9FCF730F9FCF75CFA99
:1098E000FCE780B59AB0482108A8FCF7CFFF1C21FF
:1098F00001A8FCF7CBFFFEF79DFD4748016821F06A
:109900001801016001214548026861F34A220260A2
:109910004FF48031006800F4C06000900720009A86
:10992000099101224FF480710A920B910890402214
:1099300000210C92139108A8FDF7BCFF6F200221B3
:1099400001900291002203920492059206920792DE
:10995000012101A8FEF707FA1BB000BD80B594B045
:1099600050216846FCF792FF43F603020021009263
:10997000069107914FF480424FF48071109111923B
:1099800002211022129113926846FEF7B1FB15B026
:1099900000BD18B59BB0502107A8FCF777FF182130
:1099A00001A8FCF773FF1E481E4C0168206C40F0B4
:1099B00001002064206C8107FCD54FF48070079073
:1099C0000021149107A8FEF793FB206840F08070F7
:1099D00020600020216801F0807100914FF000515B
:1099E000009A02910190222105914BF67F3203905B
:1099F00020210492069101A8FEF7F4FC1CB010BDD2
:109A0000480000584C00005888370020000C0058CF
:109A10000028004000100058900000580004005832
:109A20009414005858000058F8B504460025ACB10D
:109A300004F13406307910B92046FDF74DF80F4F88
:109A4000384600F021F8386840F0011038602046B0
:109A500000F007F835600121317100E0012528464A
:109A6000F2BD10B50021064A064B00EB8104491CEB
:109A700006296360E261F8D310BD0000000C0058B5
:109A80009B10000823100008002101604FF03F12D6
:109A900042603F238360704738B5040001D1012044
:109AA00032BD94F8210028B9002184F82010204606
:109AB000FDF74BF8022084F821002068C168CA062F
:109AC00037D4CA21416253202268506200F036F830
:109AD00001001AD12168DFF898008A6802408A6084
:109AE00022689368606821690343A0690B430343BC
:109AF00093602068E168016120680169A26841EA19
:109B000002410161204600F059F801000BD12168A3
:109B1000CA6C92089200CA642368DD6CE1696269CC
:109B20000D431543DD64FF2122680300516204D117
:109B300000E00020012184F8211032BD20461BE006
:109B400038B504460B482168C860FEF7FFFE05469D
:109B50002068C168880608D4FEF7F8FE401B40F272
:109B6000E9318842F4D3032032BD002032BD000029
:109B7000BFFF8FFF5FFF010070B50446002520681E
:109B8000C1684A0618D4C16841F08001C160FEF77F
:109B9000DDFE06460AE0FEF7D9FE801B40F2E93101
:109BA000884203D3042084F8210001252068C1687D
:109BB000480601D42800EED0284670BD38B50446CA
:109BC00000252068C16821F08001C160206881689B
:109BD000880607D42046FFF7B3FF18B1042084F8A5
:109BE00021000125284632BD10B5040001D1012015
:109BF00010BD607A20B9002121722046FCF788FF51
:109C00000220607221680A68606822F02002024324
:109C10000A602068016841F004010160012060725F
:109C20000021E160002010BD3D3D3E3E20616369A2
:109C30005F6761705F7365745F6E6F6E5F64697399
:109C4000636F76657261626C65202D2053746F704E
:109C5000204164766572746973696E672046616934
:109C60006C6564202C20726573756C743A202564D1
:109C7000200A00003D3D3E3E206163695F676170E0
:109C80005F7365745F6E6F6E5F646973636F766533
:109C90007261626C65202D20537563636573736612
:109CA000756C6C792053746F7070656420416476B4
:109CB0006572746973696E67200A00003D3D3E3E1F
:109CC000206163695F6761705F7365745F64697366
:109CD000636F76657261626C65202D206661696CC8
:109CE0002C20726573756C743A2030782578200AC0
:109CF000000000003D3D3E3E206163695F6761708A
:109D00005F7365745F646973636F76657261626CBB
:109D100065202D20537563636573730A000000008E
:109D20003D3D3E3E20537461727420466173742041
:109D30004164766572746973696E67204661696C07
:109D40006564202C20726573756C743A202564203C
:109D50000A0D00003D3D3E3E205374617274204C5C
:109D60006F7720506F7765722041647665727469F1
:109D700073696E67204661696C6564202C2072658A
:109D800073756C743A202564200A0D003D3D3E3EFB
:109D900020537563636573733A2053746172742042
:109DA00046617374204164766572746973696E6785
:109DB000200A0D003D3D3E3E20537563636573737D
:109DC0003A205374617274204C6F7720506F77651E
:109DD00072204164766572746973696E67200A0D3A
:109DE00000000000000000480100000000000048E2
:109DF00001000000000000480100000000000048D1
:109E000001000000000000480100000000000048C0
:109E100001000000000000480100000000000048B0
:109E200001000000000000480100000000000048A0
:109E30000100000000000048010000000000004890
:109E40000100000000000048010000000000004880
:109E50000100000000000048010000000000004870
:109E60000100000000000048010000000000004860
:109E70000100000000000048010000000000004850
:109E80000100000000000048010000000000004840
:109E90000100000000000048010000000000004830
:109EA0000100000000000048010000000000004820
:109EB0000100000000000048010000000000004810
:109EC0000100000000000048010000000000004800
:109ED00001000000000000480100000000000048F0
:109EE00001000000000000480100000000000048E0
:109EF00001000000000000480100000000000048D0
:109F000001000000000000480100000000000048BF
:109F1000010000002D2D20503250204150504C495E
:109F2000434154494F4E20534552564552203A2002
:109F30004E4F54494649434154494F4E20454E41A6
:109F4000424C45440A0000002D2D20503250204143
:109F500050504C49434154494F4E20534552564569
:109F600052203A204E4F54494649434154494F4E9E
:109F70002044495341424C45440A00002D2D2050B5
:109F80003250204150504C49434154494F4E205388
:109F9000455256455220203A204C454431204F4EE0
:109FA0000A0000002D2D20503250204150504C49C5
:109FB000434154494F4E2053455256455220203A72
:109FC000204C454431204F46460A00002D2D20509C
:109FD0003250204150504C49434154494F4E205338
:109FE00045525645522031203A204C454431204FAD
:109FF0004E0A00002D2D20503250204150504C4927
:10A00000434154494F4E205345525645522031202A
:10A010003A204C454431204F46460A001220088021
:10A0200037A07047042008803AA0704710B500F0B0
:10A0300029F8164805E000002DE9104000F022F84C
:10A0400023A02146F9F770FC204610BD38B51A2030
:10A0500008800F4D0F48446801688068401809D097
:10A060000822A91C00F020F8042205F11201204664
:10A0700000F01AF8284632BD2DE9104000F002F831
:10A0800018A0DEE70A46044C7047000004A500084B
:10A09000A02800209075FF1FCC3300202DE9104030
:10A0A000FFF7F0FF12A0CCE730B500230CE0040F5F
:10A0B0000A2C2CBF3734303401F8134001EB430530
:10A0C000002400016C705B1C9342F0DB30BD00008B
:10A0D00053544D6963726F656C656374726F6E691A
:10A0E0006373000056435020436F6E66696700003B
:10A0F00056435020496E74657266616365000000C6
:10A1000012010002020200408304405700020102D3
:10A1100003010000040309042DE9FC4D016800F16E
:10A120000805490805EBC102019200F108034068E7
:10A1300000F0010803EBC106400806EBC000002157
:10A14000002205E0009B9F4218BF17F9014B0BD17D
:10A15000019B9D4206D02C686B682F19FB18009359
:10A160000835EFE7BDE8F68D009B9F4205D12B68CF
:10A17000EF186B68FB180093083517F801AB914294
:10A180000FD183465E4508BFF7F7C1FC31685FEA2F
:10A19000080018BF494470680A1808369142F1D087
:10A1A0005846002C01F801AB02D5641CE7D1C9E781
:10A1B000641ED9D5C6E700002D2D20503250204115
:10A1C00050504C49434154494F4E205345525645F7
:10A1D0005220203A20494E464F524D20434C49458B
:10A1E0004E5420425554544F4E2031205055534820
:10A1F0004544200A200000002D2D205032502041DF
:10A2000050504C49434154494F4E205345525645B6
:10A2100052203A2043414E275420494E464F524D3A
:10A2200020434C49454E54202D20204E4F54494642
:10A2300049434154494F4E2044495341424C4544BF
:10A240000A200000010000000300000005000000DB
:10A250000100000001000000060000000A000000EC
:10A2600020000000020000000400000008000000C0
:10A27000100000004000000080000000000100000D
:10A2800000020000A0860100400D0300801A0600B5
:10A2900000350C0040420F0080841E0000093D0084
:10A2A00000127A000024F40000366E010048E80134
:10A2B000006CDC0200000000000000000000000054
:10A2C000000000007047FEE7FEE7FEE7FEE770478C
:10A2D0007047704700F02AB801E0000000BF0B484B
:10A2E000F7F786BC0A48FEF7ACBA0A48FDF78EB805
:10A2F0000948FDF78BB8FCF767B8FCF78FB800F09A
:10A300001DB80648FEF79DBA00000000F03000209E
:10A31000FC37002060350020CC3400205C38002061
:10A320004FF48060FCF71CB8FAF7B8BF02484168E8
:10A3300002788A1842607047BC2800200449C86827
:10A340000A6882430A60486000F004B80000000018
:10A3500000150058704700001349002008604FF0B6
:10A36000B0411248026842F4700202604FF4E023E8
:10A37000086840F0010008608B600A680C480240E1
:10A380000C480A60036823F0050303604268520822
:10A390005200426000220848C8600861086820F442
:10A3A000802008608A61704708ED00E088ED00E0D9
:10A3B000FBFEF6FA9400005800100422424C455F60
:10A3C0005356435F4C324341505F436F6E6E5F554F
:10A3D000706461746528292C2053756363657373F9
:10A3E00066756C6C79200D0A0D000000424C455FCB
:10A3F0005356435F4C324341505F436F6E6E5F551F
:10A40000706461746528292C204661696C6564203C
:10A410000D0A0D0080B50D4A7A4430320C4B7B4456
:10A420002E339A4203D00B49AFF3008002BD8DF862
:10A430000000012269460120FCF7FAF9012802D147
:10A440009DF8000002BD4FF0FF3002BDB45BFFF786
:10A45000B05BFFF73027002030B4002512E050F841
:10A46000042BD30744BF4A44521E091F042942F853
:10A47000045BFAD213468C0744BF15809B1CC907A6
:10A4800048BF1D7050F8041B0029E8D130BC70474C
:10A490002D2D2047415454203A204C454420434F11
:10A4A0004E46494755524154494F4E205245434527
:10A4B000495645440A00000010B50749794418314F
:10A4C000064C7C44163404E00A68081D1144884791
:10A4D0000146A142F8D110BD74000000C000000088
:10A4E0002A2A2053544F5020414456455254495330
:10A4F000494E47202A2A20204661696C6564200D58
:10A500000A0D000053544D33322056697274756140
:10A510006C20436F6D506F727420696E204653201B
:10A520004D6F6465000000004EF68851CEF20001C8
:10A53000086840F470000860BFF34F8FBFF36F8F5F
:10A540004FF00170E1EE100A704700000DFFFFFFB1
:10A55000F8100000F0280020700800003C000320E4
:10A5600000000000B5FBFFFF020000000200000039
:10A570007401000002000000280003201400000005
:10A5800099FBFFFF02000000020000005A010000DA
:10A590009001000008140020E81400000120C046CB
:10A5A000002801D0FFF788FFAFF300800020AFF351
:10A5B0000080FFF740F900F000F800F001B800005B
:10A5C00007463846F7F7A8FAFBE7000005480146BA
:10A5D00003B4684680F30988AFF30080FFF7A4FF57
:10A5E000FFF7DCFFA5EDF5FE38B504460D4628461D
:10A5F000FFF710FFA84218BF0024204632BD00001C
:10A60000014880470148004759A30008CDA500082C
:10A61000FFF7FEBFFFF7FEBFFFF7FEBFFFF7FEBF6E
:10A62000FFF7FEBFFFF7FEBFFFF7FEBFFFF7FEBF5E
:10A63000FFF7FEBFFFF7FEBFFFF7FEBFFFF7FEBF4E
:10A64000FFF7FEBFFFF7FEBFFFF7FEBFFFF7FEBF3E
:10A65000FFF7FEBFFFF7FEBFFFF7FEBFFFF7FEBF2E
:10A66000FFF7FEBFFFF7FEBFFFF7FEBFFFF7FEBF1E
:10A67000FFF7FEBFFFF7FEBFFFF7FEBFFFF7FEBF0E
:10A68000FFF7FEBFFFF7FEBFFFF7FEBFFFF7FEBFFE
:10A69000FFF7FEBFFFF7FEBFFFF7FEBFFFF7FEBFEE
:10A6A000FFF7FEBFFFF7FEBFFFF7FEBFFFF7FEBFDE
:10A6B000FFF7FEBFFFF7FEBFFFF7FEBFFFF7FEBFCE
:10A6C000FFF7FEBFFFF7FEBFFFF7FEBFFFF7FEBFBE
:10A6D000FFF7FEBFFFF7FEBFFFF7FEBFFFF7FEBFAE
:10A6E00000207047EC0000018100810081008100A2
:10A6F0008100810081008100810081008100810052
:10A700008100810081008100810081008100810041
:10A710008100810081008100810081008100810031
:10A720008100810081008100810081008100810021
:10A7300081008100C7002773690008976900089BA2
:10A74000690008ED690008E1A6000802040101BCE7
:10A750003800200C390020BC380020BC380020FC18
:10A760000003BC380020FC0007742700206027008D
:10A7700020E0003109024300020100C03209040058
:10A78000000102020100052400100105240100015E
:10A7900004240202052406000107058203080010B4
:10A7A00009040100020AFD000B0705010240000038
:10A7B0000705810240FD000B5D6F0008297000084D
:10A7C00089700008FC000B0972000859710008CD5F
:10A7D000710008F4002B417200083D72000863729A
:10A7E0000008AB7200081E1300081E1300081E1399
:10A7F00000081E1300081E1300081E1300081E1375
:10A800000008F8FF0B0A1000081E1300081E1300B2
:10A8100008FAFF0500000DFF0183DE000548420035
:10A82000007A44EC00F8FFF0001D1DA0000825A0F0
:10A83000000839A000082DA000084DA0000879A04C
:10A8400000089DA000081A03E6000001F9000010AE
:10A85000FA000C4800040048000400480A06000200
:10A86000FD00014001FC0001C201FD000008FC00E8
:06A87000044800093D0050
:040000050800A5CD7D
:00000001FF
