:020000040800F2
:1000000008100020714D00086D4B00086F4B000870
:10001000714B0008734B0008754B0008000000008E
:10002000000000000000000000000000774B000806
:10003000794B0008000000007B4B00087D4B000856
:10004000814D0008854D0008894D0008814B00084E
:100050008D4D0008914D0008BF4B0008C54B0008AE
:10006000954D0008994D0008B94B00089D4D0008BA
:10007000A14D0008A54D0008854B0008A94D0008BA
:10008000AD4D0008B14D0008B54D0008B94D000850
:10009000BD4D0008C14D0008C54D0008C94D000800
:1000A000CD4D0008D14D0008D54D0008D94D0008B0
:1000B000DD4D0008E14D0008E54D0008E94D000860
:1000C000ED4D0008F14D0008F54D0008F94D000810
:1000D0008B4B0008914B0008FD4D0008014E0008B5
:1000E000054E0008094E00080D4E0008114E00088C
:1000F000974B00089B4B00089F4B0008154E0008CB
:10010000194E00081D4E0008214E0008254E00081B
:10011000294E00082D4E0008314E0008354E0008CB
:10012000394E00083D4E0008A34B0008414E000820
:10013000454E0008494E00084D4E000838B50346AC
:10014000D3F88C0020280AD109B1100001D1012078
:1001500032BD00F006F8BDE8384000F0A9B9022031
:1001600032BD0020D866DFF828431868A0420CD0C2
:100170004068040209D5186850E8004F054644F06D
:10018000806445E800400028F5D118467047216892
:1001900001F1080353E8001F206800F1080221F074
:1001A000400142E80010002870472DE9F041044664
:1001B00040F60F0C2268D669104616EA0C0F076845
:1001C000936804F15C0507F0200006F020010DD1D2
:1001D000002914D010B9D80040F18D80A9690029F8
:1001E00000F045812046BDE8F0410847DFF834C4FF
:1001F00013EA0C0F04BFDFF830E417EA0E0F7AD0D1
:100200005FEAC67E48BF5FEAC75807D54FF0010EC8
:10021000C2F820E06A6B42F001026A63B2070AD5B5
:10022000DA0708D5D4F800E00222CEF820206A6B65
:1002300042F004026A6372070AD5DA0708D5D4F8D7
:1002400000E00422CEF820206A6B42F002026A63CA
:1002500032070DD5002808BF13EA0C0F08D0D4F8D8
:1002600000C00822CCF820206A6B42F008026A63C2
:10027000320509D57F0107D526684FF40062326246
:100280006A6B42F020026A636A6B002A32D031B195
:1002900008B9D80003D5A96909B120468847686B19
:1002A00021688A68510602D410F0280F1DD020461C
:1002B00000F08AF920688168480611D5FFF767FFCA
:1002C000FCD1686A60B10FF271318163686A00F035
:1002D000DFFB00280ED0686A816BBDE8F04108475B
:1002E0002046BDE8F04100F06CBC204600F069FCFF
:1002F00000206863BBE02869012878D1F00676D534
:10030000F90674D510201062226829889068420688
:1003100037D56A6A1368586880B2002828D08842A6
:1003200026DA6880106801688A061AD400F0ABF8F3
:1003300021F4807100F0A3F8F8D100F0ABF8FCD103
:10034000FFF725FFFCD1202028630021296100F060
:100350009AF821F0100100F092F8F8D1686A00F0E4
:1003600061FB0220686129886888091A89B206E061
:1003700088427CD11A68900679D502226A612046AB
:1003800031E06A886888891A00281CBF88B2002872
:100390006DD02246106850E8003F044623F4907365
:1003A00000F067F8F6D1106800F1080400F10803C6
:1003B00054E8004FDFF86802044043E8004000289A
:1003C000F1D102F15C032020186300241C619C61C0
:1003D000146854E8004F156800F028F9F8D102209D
:1003E000586189B21046BDE8F04100F0EBBBF00265
:1003F00009D5590207D54FF4801010622046BDE898
:10040000F04100F0E0BB300609D5390601D41802EE
:1004100005D5E96959B32046BDE8F04108477006A3
:1004200013D5790611D500F02EF821F0400100F027
:1004300026F8F8D104F15C002021C1620022C261DB
:100440002046BDE8F04100F0D9BB300206D5790066
:1004500004D52046BDE8F04100F0E4BBF00148BF00
:10046000002F04D52046BDE8F04100F0DCBBBDE81C
:10047000F08144E800300028704741F0800142E8F4
:10048000001000287047206850E8001F024670479F
:1004900000800040216801F1080353E8001F206834
:1004A000490800F10802490042E80010002870479E
:1004B00030B5034600209965FF2403F15C010A80F2
:1004C0004A8088619868B0F5805F04D1186990B956
:1004D00040F2FF140FE018B9186960B17F2007E0FF
:1004E000B0F1805F06D1186908B97F2403E03F208E
:1004F000888001E000248C800020486322240C6363
:10050000196801F1080555E8001F186800F1080492
:1005100041F0010144E800100028F1D103F15C0131
:100520008868B0F1005F28D18889824225D39A6813
:10053000B2F5805F04BF1869002803D10FF2293299
:100540008A610BE00FF24D248C61186930B100F024
:1005500036F841F48071FFF792FFF8D1196801F184
:10056000080454E8001F186800F1080241F08051A7
:10057000FFF785FFF2D1002030BD9868B0F5805FAD
:1005800004BF186900280CD10FF20D128A61186897
:1005900050E8001F024641F02001FFF770FFF6D13E
:1005A000E9E70FF2A1028A6118690028EFD000F094
:1005B00006F841F49071FFF762FFF8D1DBE71968A4
:1005C00051E8001F1A687047016851E8002F0B4678
:1005D00022F4907243E800210029F5D1016801F16D
:1005E000080301F1080253E8003F0D490B4042E8BF
:1005F00000310029F2D1C16E012909D1026852E807
:10060000002F036822F0100243E800210029F5D1F1
:100610002021C0F88C100022C2664267704700009B
:10062000FEFFFFEF010000102001000424F0100481
:1006300045E8004000287047806A0021A0F85E105D
:1006400000F0BFBA10B500F050F81FD14B6A918886
:10065000846D0B402370816D4B1C00F04CF819D158
:1006600000F050F8FCD100F057F8FCD100F06CF825
:100670000BD10023136100F05DF8FCD10168CB6958
:10068000DC0644BF10230B627AE07EE0886940F00C
:100690000800886110BD000010B500F026F81FD1D9
:1006A0004B6A9188846D0B402380816D8B1C00F018
:1006B00022F819D100F026F8FCD100F02DF8FCD179
:1006C00000F042F80BD10023136100F033F8FCD1A5
:1006D0000168CB69DC0644BF10230B6250E054E094
:1006E000886940F00800886110BD00F15C02016873
:1006F000136B222B7047836551884B1E53805188A2
:1007000000297047026852E8002F036822F49072B3
:1007100043E8002100297047026802F1080454E808
:10072000002F0168520801F10803520043E800213C
:1007300000297047016851E8003F0C4623F0100380
:1007400044E800310029704700F15C022021116368
:100750000023936100215161424B016899420CD002
:1007600049680B0209D5016851E8003F0C4623F0A7
:10077000806344E800310029F5D1116901297047EF
:100780001188BDE8104000F01DBABDE8104000F02F
:100790002BBA00002DE9F84300F004F94BD1A889E9
:1007A00000283AD0B80638D500F0C6F80870A06D19
:1007B000421C00F0B8F817D0F90748BF5FEAC852EA
:1007C00000F0A8F803D5F20701D500F0C3F87807C8
:1007D00003D5F20701D500F0B5F8686B20B12046CB
:1007E00000F0EFF90020686368880028DAD100F093
:1007F000C3F8FCD100F028F8FCD100F0F1F809D1E1
:1008000000F0DEF844BF102101622988204600F084
:10081000D9F902E0204600F0E7F9688868B1A989B3
:1008200088420ADA00F0B2F8FCD17A48A86100F0F8
:1008300099F8FCD101E000F002F8BDE8F18381698C
:1008400041F0080181617047206800F1080200F161
:10085000080152E8002F7048024041E800200028BB
:1008600070470000008000402DE9F84300F09AF83E
:100870004BD1A88900283AD0B80638D500F05CF8EA
:100880000880A06D821C00F04EF817D0F90748BF11
:100890005FEAC85200F03EF803D5F20701D500F038
:1008A00059F8780703D5F20701D500F04BF8686BCB
:1008B00020B1204600F085F9002068636888002890
:1008C000DAD100F059F8FCD1FFF7BEFFFCD100F0FF
:1008D00087F809D100F074F844BF1021016229881B
:1008E000204600F06FF902E0204600F07DF96888AC
:1008F00068B1A98988420ADA00F048F8FCD1474873
:10090000A86100F02FF8FCD101E0FFF798FFBDE8E7
:10091000F183000005D501210162686B40F0010000
:100920006863B8077047A2656888411E69802068BF
:10093000C76917F0070F70472168486AA16D09EA77
:1009400000007047216804200862686B40F00200D4
:1009500068637047216802200862686B40F00400F9
:1009600068637047216851E8001F226841F0200148
:1009700042E8001000287047216851E8001F2268F3
:1009800021F4807142E8001000287047226802F1CB
:10099000080353E8001F083221F0805142E800109C
:1009A00000287047044604F15C052068B5F80490FF
:1009B000C7690146D1F800808668296B22297047F3
:1009C00000212961206850E8001F024621F0100133
:1009D00042E800100028F5D12068C169CA067047B6
:1009E000202028630021A961002068610C4920684B
:1009F00088420CD04068010209D5206850E8001FE9
:100A0000024621F0806142E800100028F5D12869F3
:100A10000128704745060008FEFFFFEF9906000811
:100A20000080004040B100F124014A78022A05D03C
:100A30000420886100220A70012070470268136850
:100A400023F00E0313604A6A136823F48073136063
:100A500000680268520852000260012091F82020CC
:100A6000CB6902F01C02904058608A6AC86A5060E4
:100A7000086B38B10246106820F4807010604A6B31
:100A8000886B50600120487000220A700020704777
:100A900038B500F1240200245178022903D0042043
:100AA0009061012429E001680B6823F00E030B60BC
:100AB00001680D686D086D000D60516A0B6823F4C4
:100AC00080730B60012192F82030D56903F01C037C
:100AD00099406960936AD16A5960116B39B10B46CC
:100AE000196821F480711960536B916B5960012171
:100AF00051701470516901B18847204632BDF8B574
:100B000000F124010426CA69126803681C6891F880
:100B1000205005F01C0506FA05F73A4210D0670789
:100B20000ED51A68940603D41A6822F004021A60DB
:100B300000F03EF8C968002939D0BDE8F440084704
:100B4000022606FA05F73A4213D0A70711D51A680C
:100B5000940605D41A6822F00A021A6001234B7029
:100B600000F026F800220A70896801B3BDE8F4405D
:100B70000847082606FA05F52A4218D0220716D596
:100B80001C6824F00E041C60012291F82030CC690E
:100B900003F01C039A406260012301228A614B70BA
:100BA00000220A70096911B1BDE8F4400847F1BD9F
:100BB00091F82020CB6902F01C0296405E607047DD
:100BC0000000704770477047002800D0704710B58C
:100BD000104C00F004F8BDE81040FFF7AFBA0F4822
:100BE00023600F4B0360704700680D49884204D1B1
:100BF000084A1068002818BF004770470068084975
:100C0000884204D1044A1068002818BF0047704782
:100C1000000000003C170020401700208013002037
:100C200000380140704770474FF0B040006800F056
:100C3000F000B02888BFB0207047DFF8AC0700682C
:100C4000000100F0F00070472DE9F041040051D0A0
:100C5000207881064FF0B0453AD5A868E96810F0D1
:100C60000C0001F0030103D00C2808BF012943D177
:100C7000E06900283ED0FFF7D7FF0146606A814255
:100C800011D200F065FB002834D12968606A21F098
:100C9000F001014329606968206A21F47F4141EA3B
:100CA0000021696009E0296821F0F001084300F0A3
:100CB00018FA606A00F04CFBE0B900F03BFBDFF88B
:100CC0002C170860DFF82807006800F0C5FB88B91A
:100CD0002078C10762D5A868E96800F00C000828F0
:100CE00001F0030103D00C2808BF03292ED160684E
:100CF000002853D10120F2E1E069B8B1296841F040
:100D0000010100F0D8FA06462868800706D400F0F2
:100D1000C5FB801B0328F7D30320E0E12868616A44
:100D200020F0F000084300F0DCF9D1E72868400823
:100D3000400000F078FB064628684008C007C7D589
:100D400000F0ACFB801B0328F6D3E5E76068B0F544
:100D5000803F04D1296841F48031296003E028688C
:100D600020F480302860606858B100F097FB064698
:100D70002868800312D400F091FB801B6528F7D30C
:100D8000CAE700F08BFB06462868400CC00705D573
:100D900000F084FB801B6528F6D3BDE7207881072F
:100DA00015D5A868E96800F00C00042801F00301DB
:100DB00003D00C2808BF022928D1E068002899D068
:100DC0006868216920F0FE4040EA0160686021689F
:100DD000DFF8206611F0180F00F08B8060690028A2
:100DE00077D0C806706858D5800730D4716841F054
:100DF0000101716000F052FB07467068800726D43D
:100E000000F04CFBC01B0328F7D385E7E06870B106
:100E1000296841F4807100F04EFA064628684005C2
:100E2000CED400F03BFB801B0328F7D374E728687F
:100E300020F4807000F0F7FA06462868800AC007A0
:100E4000C5D500F02BFB801B0328F6D364E7706840
:100E500040F0040000F04EF907467068000705D422
:100E600000F01CFBC01B0428F7D355E77068A1698C
:100E700020F4706040EA0120706070684008400013
:100E800000F038F9074670684008C00731D500F017
:100E900005FBC01B0328F6D33EE740F0010000F03D
:100EA00029F907467068800705D400F0F7FAC01BDF
:100EB0000328F7D330E7706820F004007060706892
:100EC000C008C00715D500F0E9FAC01B0428F6D306
:100ED00022E7706820F0040000F00CF90746706803
:100EE000C008C007C9D500F0D9FAC01B0428F6D342
:100EF00012E7207841074CD5DFF8FC84D8F80000D1
:100F0000C1050ED400F0D0FA00F0C8FA0746D8F8B0
:100F10000000C10505D400F0C1FAC01B0328F6D3B8
:100F2000FAE6A068012804D1306840F00100306082
:100F300010E00528306806D140F0040030603168C8
:100F400041F0010105E0400840003060316821F0C7
:100F500004013160A06841F2893760B100F09EFA67
:100F600080463068800714D400F098FAA0EB08009F
:100F7000B842F6D3D0E600F091FA804630684008D7
:100F8000C00706D500F08AFAA0EB0800B842F5D3F6
:100F9000C2E62078410622D5A06A0028B0680ED0AB
:100FA00040F00100B06000F079FA0746B0688007B1
:100FB00015D400F073FAC01B0328F7D3ACE6400841
:100FC0004000B06000F06AFA0746B0684008C00709
:100FD00005D500F063FAC01B0328F6D39CE6E06A4F
:100FE00000287BD0A968EA68022801F00C0161D1D1
:100FF000236B02F00300984202BF02F07000636BA3
:10100000984213D1A36BC2F30620984202BF02F4A8
:101010007810E36B984209D1236C02F0606098422B
:1010200002BF02F06042606C824237D00C2942D08D
:10103000286841013FF55EAE00F0F2F906462868E7
:10104000810105D500F02AFA801B0328F7D363E657
:10105000EA68DFF8A803216B0240606B0A43A16BCA
:101060000243E06B42EA0122216C0243606C0A43B6
:101070000243EA60296841F080712960E86840F025
:101080008050E86000F00AFA04462868810125D4FF
:1010900000F004FA001B0328F7D33DE6286881011D
:1010A0001CD4286840F080702860E96841F08051C5
:1010B000E960E7E70C293FF41DAE00F0B1F9044602
:1010C0002868810105D500F0E9F9001B0328F7D352
:1010D00022E6E968DFF828030140E9600020BDE866
:1010E000F08128606868216A20F47F4040EA01208E
:1010F00068607047706000F0D1B92DE9F8430400D2
:10110000884600F0B080DFF8FC5200F0CBF80CD23B
:1011100000F0CDF8074600F0C5F806D000F0BEF9A3
:10112000C01B0228F7D90320BAE0207882074FF0CD
:10113000B04711D5B968A06821F0F0010143B9604A
:1011400000F0ACF90646B868C00305D400F0A6F973
:10115000801B0228F7D9E6E72078DFF88C62820648
:1011600012D53168606921F0F0010143316000F06F
:1011700095F981463068800306D400F08FF9A0EB22
:1011800009000228F6D9CEE72078410613D5306849
:10119000A1690009000140EA1110306000F07EF9F9
:1011A00081463068C00306D400F078F9A0EB09004E
:1011B0000228F6D9B7E72078420711D5B968E06868
:1011C00021F4E0610143B96000F068F90646B868AF
:1011D000800305D400F062F9801B0228F7D9A2E74A
:1011E0002078010712D5B868216920F4605040EAE0
:1011F000C100B86000F052F90646B868400305D453
:1012000000F04CF9801B0228F7D98CE72078C10741
:101210002BD56068022819D13968890323D5BA68AB
:10122000920840EA8200B86000F038F90646B868D3
:10123000616800F00C00B0EB810F16D000F02EF9C1
:10124000801B41F289318842F1D36CE7032802D137
:101250003968890103E00028396802D18907DED4A2
:1012600001E04905DBD401201AE0286800F00700FE
:1012700080450BD200F01BF8044600F013F805D0AF
:1012800000F00CF9001B0228F7D94CE700F052F8E7
:101290005649086000F024F9BDE8F24300F0DCB8DC
:1012A000BDE8F283286800F00700404570472968D0
:1012B000C90848EAC101296000F0F0B838B54FF01C
:1012C000B045524CA96811F00C0106D1FFF7ACFCF7
:1012D000C0F3031054F8200032BD04294C4828D034
:1012E00008294C4A04D12968C90222D4104632BDCB
:1012F000E96801F0030102290CD0032904D129680F
:10130000C90207D4104605E0FFF78EFCC0F30310B6
:1013100054F82000E968EA68EB68C1F30621484305
:10132000C2F30211491C5B0FB0FBF1F05B1CB0FB78
:10133000F3F032BD80B5FFF7C1FF3349FFE7364A0E
:101340000968C1F3031152F82110B0FBF1F002BD9E
:1013500070B52E49B1282EBFCC6AC0F3031051F8E6
:101360002040FFF76AFC054600F0DAF82A49C5F389
:10137000031251F82210294AB4FBF1F15FF0000486
:10138000B1FBF2F1B0F5007F2FA220461FD100BFC4
:1013900026A353F820508D4216D2401C0328F8D9BA
:1013A000184D2868C00844EAC00000F03CF8064622
:1013B000286800F00700A04213D000F06FF8801BEF
:1013C0000328F5D3032070BD52F82040E8E700BFA2
:1013D0001AA353F820508D42F6D2401C0328F8D3AC
:1013E000DEE7002070BD000008010058E810002072
:1013F000D010002090000058000400588C80C111CB
:10140000FCFFFEEE0040005808000058C84A0008E3
:101410000024F4000048E801884A000840420F0018
:10142000286820F08070286000F038B812000000B2
:10143000240000003600000040000000060000000C
:101440000C0000001000000000000000010000007F
:10145000020000000300000070B50F4E0446307813
:101460000025A8B1FFF766FF32784FF47A71B1FB1F
:10147000F2F2B0FBF2F000F0A9F848B9102C07D254
:10148000002221464FF0FF3000F069F8B46000E020
:101490000125284670BD00BFC810002001484068E3
:1014A000704700BFC81000200248016841F48071F5
:1014B0000160704700040058164810B5016841F4F7
:1014C00080710160032000F040F80020FFF7C4FFA6
:1014D0000024002814BF012400F0BDF8204610BDF0
:1014E0000D48806870470C48007870470B480BE047
:1014F0000A48016821F0020101607047074801684D
:1015000021F0040101607047016849084900016049
:101510007047000000400058C8100020042004E07C
:10152000DFF80800006800F4C0607047000400584D
:101530000901020002D4394881547047384B02F047
:101540000F021A4402F8041C704736490A6860F317
:101550000A2240F2FA5060F31F420A60704770B5E9
:10156000304B1C68C4F302230124C3F10705052D89
:101570002EBF0F2504FA05F56D1E1E1D072E34BF64
:101580000023DB1E2940994004FA03F3BDE87040B4
:101590005B1E1A401143CBE7010007D4012200F083
:1015A0001F01214B8A40400943F820207047010069
:1015B0000BD4012200F01F011C4B8A40400943F864
:1015C0002020BFF34F8FBFF36F8F7047401EB0F1E5
:1015D000807F01D3012070471549164A48600023D7
:1015E000F02010708B600720086000207047010019
:1015F00007D4012200F01F010F4B8A40400943F835
:1016000020207047010007D4012200F01F010B4B7E
:101610008A40400943F820207047000000E400E0C1
:1016200018ED00E00CED00E000E100E080E100E0FA
:1016300010E000E023ED00E000E200E080E200E0E6
:10164000404981B00A6802430A6009680840009076
:10165000009801B0704780B54FF40020FFF7F0FF0D
:10166000002200212E20FFF77AFFBDE802402E2045
:10167000FFF792BF0168344A914200D0704780B5AD
:101680004FF48010FFF7DCFF002200212C20FFF731
:1016900066FF2C20FFF780FF002200212D20FFF79E
:1016A0005EFFBDE802402D20FFF776BF10B594B075
:1016B00004465021684600F04FF8226823498A42C8
:1016C0000FD14FF4007000904FF080510E9168469A
:1016D00000F05CF808B100F099FA4FF48020FFF7B1
:1016E000AFFF14B010BD18B595B00446502101A845
:1016F00000F032F8226816498A4221D14FF4006086
:1017000001904FF48071119101A800F03FF808B1E9
:1017100000F07CFA0F48816B41F4004181630021A5
:10172000026842F4806202600022006800F4806077
:10173000009000980320FFF712FF0320FFF72CFF13
:1017400016B010BD50000058000C00580010005892
:101750000028004058000058002200F059BA704795
:10176000DFF81C130A68030903F47F2300019A437E
:1017700000F47F2000F081B9DFF804231368010C26
:1017800023EA014343EA0043136070472DE9F8431D
:10179000054600242878DFF8E8624106A0464FF0AD
:1017A000B04743D5286B70B1B0F5800F06D0B0F5C7
:1017B000000F18BFB0F5400F2ED035E0F96841F4A6
:1017C0008031F96029E0386820F080603860FFF7E8
:1017D00065FE81463868C00EC00707D5FFF75EFE7C
:1017E000A0EB09000228F5D9032415E000F03CF92C
:1017F000A86821F4781100F02FF9814638680001BB
:1018000006D4FFF74BFEA0EB09000228F6D9EBE760
:1018100039696869014339613CB93168286B21F441
:1018200040010143316001E00124A0462868010520
:1018300032D5D6F80880286C08F4407880452AD044
:10184000FFF732FEB8F1000FB16805D1286C21F422
:1018500040710143B1601EE0B06840F48030B06078
:1018600021F44071B06820F48030B060286C0143EE
:10187000B160B068C0070ED5FFF710FE8046B068B3
:10188000800708D4FFF70AFEA0EB080041F2893177
:101890008842F4D30324A0462878C20705D53168CE
:1018A000A869890840EA810131602978880705D54F
:1018B0003168E86921F44061014331602978C80644
:1018C00044BFA86AFFF758FF2878810644BFE86A3A
:1018D000FFF752FF2878410744BF286AFFF740FF0F
:1018E0002878010744BF686AFFF73AFF2868C205F5
:1018F00035D53168686B21F0406101433160696B17
:10190000B1F1006F00F0A2F8686BB0F1806F26D1E2
:10191000396821F0806100F0A4F804463868C00EF0
:10192000C10707D5FFF7BAFD001B0228F6D94FF013
:10193000030814E000F098F8E86821F0606100F016
:101940008BF804463868010105D4FFF7A7FD001B9A
:101950000228F7D9EBE739696869014339612968D9
:1019600088051CD5A86BB0F1804F18BFB0F1004FAF
:1019700000D020B9316821F04041084309E03168C6
:1019800021F04041316020F08050326822F0406206
:1019900010433060A86BB0F1C05F00F057F82868C2
:1019A000420538D53168E86B21F040510143316080
:1019B000E96BB1F1005F03D1F86840F48030F86062
:1019C000E86BB0F1805F26D1396821F0806100F0CA
:1019D00048F804463868C00EC10707D5FFF75EFD1A
:1019E000001B0228F6D94FF0030814E000F03CF881
:1019F000286921F0604100F02FF8044638680101A1
:101A000005D4FFF74BFD001B0228F7D9EBE7396936
:101A10006869014339612968C80405D5F168686CB3
:101A200021F440410143F160296888040BD5796AAB
:101A3000E86C21F0300101437962796AA86C890869
:101A400040EA810179624046BDE8F28303D1F8683B
:101A500040F08070F860704701433961396841F0A7
:101A600080613960FFF71ABD3869696820F4FE406B
:101A700040EA0120386139697047104308607047B7
:101A800088000058594900E0594981B00A6802436A
:101A90000A60096808400090009801B0704710B5CE
:101AA000FFF70AFD00F0CEF800F04DF800F089F8DD
:101AB000504C5148A06304F1380000F00FFA0420A4
:101AC000FFF7E2FF0120FFF7DFFF0220FFF7DCFF57
:101AD0000420FFF7D7FF0120FFF7D4FF0220FFF714
:101AE000D1FF00220F210E20FFF739FD0E20FFF756
:101AF00053FD00220F213A20FFF731FD3A20FFF776
:101B00004BFD3E482060002147F6FF700F22E06049
:101B10006160A2602161A161E1616161204600F024
:101B200015FA00220021204600F0B8FA344860621D
:101B30000021A16204F1240000F032FB00F096F8CD
:101B400000F049F9FCE780B59AB0482108A8FFF7F2
:101B500003FE1C2101A8FFF7FFFDFFF7A5FC2948A4
:101B6000016821F01801016001212748026861F332
:101B70004A2202604FF48031006800F4C060009097
:101B80004720009A099101224FF480710A920B912B
:101B900012920890402100220C91139208A8FFF79E
:101BA00053F86F20022101900291002203920492C7
:101BB000059206920792012101A8FFF79EFA1BB039
:101BC00000BD80B594B050216846FFF7C5FD4FF4C5
:101BD00040524FF480410092119102221021129242
:101BE00013916846FFF7D2FD15B000BD48000058BC
:101BF0004C00005824150020000C0058002800401C
:101C000000100058900000580004005870477047BA
:101C100000B500BF130096469446103928BFA0E8CF
:101C20000C50FAD85FEA417C28BF0CC048BF40F88E
:101C3000042BC90728BF20F8022B48BF00F8012B4E
:101C400000BD000080B5944A4FF4004111600020AF
:101C500000F0C6FA48B180799049914A0A600B6851
:101C600023F47C5343EA00230B6001BD10B58D487B
:101C70008D4C88B0016841F050010160CA228B4848
:101C8000C2615321C161FF210268D208D200026003
:101C9000C1618748026842F40042026000F0B4FA71
:101CA00084480268042161F3020202600020824934
:101CB00000F003FC00F0AFFD0121012000F0A9FAC3
:101CC0000121002000F06AFE0121012000F066FEE3
:101CD0000121022000F062FE0FF239137749012240
:101CE0000020FEF771FF00F0ABFE754A00214FF4B3
:101CF000807001F034F804F23C500FF2350100908E
:101D0000019169460FF22D0001F092F804F5C961C6
:101D1000039104F25470029040F23C5105910494F6
:101D200002A800F015FF00F089FE08B010BD000009
:101D30007047000038B5044688B06068B0F80B10F2
:101D4000B1F5124F2DD104A801F035F968460021F4
:101D500000220023002580E82E00616801F10D00BB
:101D60000078D8B900F0F0FD0F208DF800007F2139
:101D70008DF8021053480168090CADF80C1000688A
:101D8000C0F30B00ADF80E00684601F00DF901F04C
:101D900053F90021012000F03CFA02E0012808BFBD
:101DA000227009B030BD38B50446FFF777FB14F157
:101DB000010F054609D0FFF796FB241805E04248BD
:101DC000016821F00401016030BFFFF767FB401B91
:101DD000A042F4D331BD4FF0FF3000F021BF00F03E
:101DE0002EBA00214FF4807000F0C7BF022000F02F
:101DF000E6BF022000F0EBBF012805D0022805D085
:101E0000102805D101F047BA01F058BA01F084BAA0
:101E100070470000F8B52D4C284E04F580752888D1
:101E2000B0F5807F28D231780D2922D117A1204624
:101E300001F06CFB04F5827708B925480DE014A188
:101E4000204601F063FB10B94FF0B05005E011A13E
:101E5000204601F05BFB20B91E486860384601F05F
:101E60005FFB002028804FF480712046FFF774FC50
:101E700002E02154401C2880314601B0BDE8F0400A
:101E8000154B01220020FEF79FBE00005357310082
:101E90005357320053573300104000589C000058ED
:101EA000FECAFECA900800583C00032008280040E3
:101EB000080000588004005824150020081700204E
:101EC000732E0008002004E010ED00E0EC1000206C
:101ED0000400001601000016151E0008F8B504469F
:101EE0000025ACB104F13406307910B92046FFF773
:101EF000C1FB0F4F384600F021F8386840F0011060
:101F00003860204600F007F835600121317100E0AB
:101F100001252846F2BD10B50021064A064B00EB0C
:101F20008104491C06296360E261F8D310BD0000FA
:101F3000000C00580F1C00085F170008002101600A
:101F40004FF03F1242603F238360704738B5040072
:101F500001D1012032BD94F8210028B9002184F874
:101F600020102046FFF7BFFB022084F821002068E4
:101F7000C168CA0637D4CA21416253202268506220
:101F800000F036F801001AD12168DFF898008A685D
:101F900002408A6022689368606821690343A069EF
:101FA0000B43034393602068E16801612068016985
:101FB000A26841EA02410161204600F059F801009F
:101FC0000BD12168CA6C92089200CA642368DD6C48
:101FD000E16962690D431543DD64FF212268030056
:101FE000516204D100E00020012184F8211032BDAB
:101FF00020461BE038B504460B482168C860FFF74F
:102000004DFA05462068C168880608D4FFF746FAED
:10201000401B40F2E9318842F4D3032032BD002056
:1020200032BD0000BFFF8FFF5FFF010070B50446A7
:1020300000252068C1684A0618D4C16841F08001B3
:10204000C160FFF72BFA06460AE0FFF727FA801B6C
:1020500040F2E931884203D3042084F821000125AD
:102060002068C168480601D42800EED0284670BD1B
:1020700038B5044600252068C16821F08001C160A0
:1020800020688168880607D42046FFF7B3FF18B19F
:10209000042084F821000125284632BDF8B53F4EC2
:1020A000034630684FF47A7540092C46B0FBF4F4CF
:1020B0006C43009493F82000012801D10220F2BD66
:1020C000012083F82000022783F82170CA201C68B1
:1020D0006062532718684762FF241F68B86840058C
:1020E00007D50098401E00900098F0B1F8684007AE
:1020F000F7D4B86820F48060B8601868C76807F043
:10210000800767F49067C760306840092E46B0FBCF
:10211000F6F6754300951D680098401E00900098E3
:1021200018B1E8684607F7D506E01868446203214D
:1021300000F023F80320F2BDA868C008C000A86022
:10214000186885682A4382601868416111480168EF
:1021500041F4002101601048026842F4002202604C
:102160001868816841F480418160186800F00BF8BC
:102170001868446200F001F8F2BD83F821100020D5
:1021800083F820007047816841F4806181600121FB
:10219000704700008008005800080058E810002030
:1021A00010B5040001D1012010BD607A20B90021D2
:1021B00021722046FFF77AFA0220607221680A68CD
:1021C000606822F0200202430A602068016841F042
:1021D00004010160012060720021E160002010BD57
:1021E00020B501460648074D00E00838C2798A420A
:1021F00018BFA842F9D18A4218BF002020BD00BFF5
:10220000F873FF1F0070FF1F1B4800210160416031
:10221000704710B500F007F85C6800F009F85C60E2
:1022200082F3108810BDEFF3108272B6124B704724
:1022300019B1012902D1044370478443704738B56E
:10224000EFF3108472B60C490C4D086820B1296870
:1022500088476A6890470AE0486820B1A8688047C4
:10226000E968884703E0286980476969884784F3FB
:10227000108831BD0000000010170020584D0008E4
:10228000DFF854150A6892B200E00246086880B28E
:102290008242FAD17047F0B5DFF84055DFF840359B
:1022A0002E78182204465443B0421C4404D12878A6
:1022B0006870627D2A700FE0267D607D94F815C0FD
:1022C00003F115075643062807F806C004D0267DFB
:1022D000143312FB00F29E54012020732A78062A40
:1022E00002BF00294FF0FF30E860F0BD10B5DFF805
:1022F000EC44E06810F1010F0ED0FFF7C1FFE16878
:1023000081422FBFE268E168E2888A182179101AB9
:10231000E2784843D04000E0002080B210BD2DE9B3
:10232000F047DFF8C084DFF8C004D8F80060016827
:102330004A0502D5F0684107FCD4B068DFF89C7408
:10234000DFF89CA420F48060B0604FF018093D785D
:102350000AF1080019FB05F14458FFF7C7FF844252
:1023600002D20024012105E039894118A14203D29B
:102370003C890021B97013E00122241ABA700FE0E1
:1023800019FB05F50AF108035F59874226BF595921
:10239000091A00210AF1080251510AEB05014D7D8D
:1023A000062DEDD1DFF83474A0B238B9FFF768FF1D
:1023B000F8600320BDE8F047FFF719B9022802DAF8
:1023C000F878012800D0641EF0684107FCD5F06859
:1023D00000F06CF8F06000F051F9DFF80C04C1680F
:1023E00064F30F01C160FFF74BFFF860D8F80000FD
:1023F000816841F480618160AFF30080BDE8F087BF
:102400002DE9F843EFF3108472B6DFF8D853DFF804
:10241000D0332A68CA205062532151629068DFF895
:10242000BC1320F48060906018200E783746474334
:102430001F4497F80CC0BCF1020F26D1D7F80080DA
:10244000D7F810908878E8B17A7B012A0AD1012167
:102450003046FFF720FF84F310887968304600F09B
:1024600013F904E084F31088304600F0C7F82868B8
:10247000CA2141625322426231464246484601F037
:102480005DF80EE0FFF74BFF09E0D0684107FCD58F
:10249000D06800F00BF8D0604FF40020086084F39F
:1024A0001088FF2228684262BDE8F183DFF83C1300
:1024B00000F0800060F490607047F8B5C94CCA4DD8
:1024C0002168CA224A6253234B624FF6FF7C2A6876
:1024D00042F020022A602A68AB68AD681B0C03F04A
:1024E0007F03C5F30E055B1C6D1C6F1E1E4602F0BC
:1024F000070216FB07F6C2F10402A6F5A076D64045
:10250000B64F66452CBFA7F808C03E81FA703B71F4
:10251000FD80B74A136843F400231360B54B1D6870
:1025200045F400251D6070BB0120B8704FF0FF31ED
:10253000F9600020AA49002301F10C0418255FFA74
:1025400080FC15FB0CFC401CC6B204F80C30062EB7
:10255000F5DB06203870A34C2068816821F4806187
:102560008160C16801F0800161F49061C160032065
:102570004FF40021D160FFF745F82068816841F4ED
:102580008041816005E0C868410544BF0320FFF732
:102590002EF82168FF204862002203210320FEF765
:1025A000DEFFBDE8F2400320FEF7F6BF2DE9F04163
:1025B00004460025EFF3108672B61827DFF820C214
:1025C0000CF10C0E07FB05F81EF8080010B16D1C8D
:1025D000062DF5DB062D0CD06F430CEB0700012711
:1025E000077386F310880461427303600D70002046
:1025F00002E086F310880120BDE8F081F8B50446BA
:10260000EFF3108572B60320FEF7D1FF754E7A49BD
:102610003768CA2078625323224618207B624243DF
:102620008B5C022B21D100212046FFF734FE6B4842
:102630000178062914D16C4801684A0502D5F8686A
:102640004107FCD4B86820F48060B860F86841079E
:10265000FCD5F868FFF72AFFF86000F00FF804E0F7
:102660004078884218BFFFF75AFE3168FF20486261
:102670000320FEF791FF85F31088F1BD4FF4002091
:1026800008600320FEF7BEBF2DE9F84F04468A46D6
:1026900018252146524E69437718387B022804BF1B
:1026A0002046FFF7ABFFEFF3108872B60320FEF76A
:1026B0007EFFDFF83091D9F80000CA214162532231
:1026C000426202203873C7F808A0C7F804A0DFF8F8
:1026D0000CA19AF80000062808D100F075F878756A
:1026E0004FF0FF31CAF80C10002056E0FFF7FEFD56
:1026F000B9680918B96006F10803B9689AF80020AA
:102700006A439A5891422AD39AF8002004E006F1CD
:10271000150E6A431EF8022006F1150315FB02FC94
:1027200013F80C30062B06D006F1080C6B435CF84E
:1027300003309942EBD21146694306F1150E1EF89B
:102740000130062B05D006F1140C15FB03F50CF82F
:1027500005407B753A7506F1150254541DE09AF850
:1027600000109AF800C0614515FB01F20FD006F188
:10277000140B06F1150C1BF8023015FB03F50CF8D1
:10278000054079753B7506F114018C5403E006F1A0
:10279000140379759C5400F017F89AF800109AF811
:1027A00001208A4202D0FFF7BAFD02E0B968081A98
:1027B000B860FF20D9F8001048620320FEF7ECFE55
:1027C00088F31088BDE8F18F9AF800108AF801109C
:1027D0008AF800407047000028280040D0160020EA
:1027E0001414002024150020082800400C0800586C
:1027F0000008005880080058201400204B4900E0D1
:102800004B4981B00A6802430A6009680840009099
:10281000009801B07047F8B58AB0142105A8FEF7FA
:102820009BFF0022079203214FF46042069105921C
:102830000120FFF7E3FF05A94FF0904000F080FE74
:102840003A4D3C4C296849084900296018200590F8
:1028500000260220FFF7D2FF05A900F072F82868D1
:1028600020F0020028600025FEF740FEFEF740FE43
:10287000FEF744FE14216846FEF76EFF0027002194
:102880002D4A02EBC102907980B11368B3F1904FE9
:102890000AD0A34205D02948834207D19088074334
:1028A00004E09288164301E090880543491C2629DC
:1028B000E6DB01210191002003222900029003920E
:1028C00011D000950120FFF799FF0120FFF798FF35
:1028D00069464FF0904000F033FE002229464FF049
:1028E000904000F0EEFE30000DD000960220FFF781
:1028F00085FF0220FFF784FF00F022F80022314616
:10290000204600F0DEFE38000ED000970420FFF7CE
:1029100075FF0420FFF774FF084C00F011F8002247
:102920003946204600F0CDFE0BB0F0BD4C000058FB
:102930004C010058000400486C480008000800489A
:102940006946204600F0FCBD00B587B04FEA0D0097
:1029500005A11C2200F0D4FE00F031F9684600F019
:102960001BFB07B000BD00000000000000000000DD
:10297000000000006C480008280003202C00032001
:1029800026040400284981B00A6802430A600968E5
:1029900008400090009801B07047000030B585B045
:1029A00004460D4600F03BF8200008BF042004D088
:1029B000012C18BF022C02D10820FFF7E3FF2900E9
:1029C000DFF868201AA00ED1002130F81400019120
:1029D0000090012302210293039100F01BF80120D3
:1029E000FFF7E1F914E0012D12D130F81400009046
:1029F0004FF404130295019300F00CF80EA0045D4F
:102A000000220F2160B2FEF7AAFD60B2FEF7C4FDFE
:102A100005B030BD694652F8240000F091BD142184
:102A20000022684600F078BE4C000058D410002008
:102A300010000100020000000A06070000F0F7BEC7
:102A40006D486E49016001F12002426001F13003DE
:102A5000836001F14002026201F14803436201F127
:102A60005002C26001F15803036101F17402426136
:102A700001F1780383618431C16100F0F6BE38B59D
:102A800004465F4D284600F067FF5B494868A1682F
:102A90000160E2685B49C2604160856000F001FF4F
:102AA00059482AE080B554484268136801211972D8
:102AB000406800F0FEFE002002BD38B5524C504D7B
:102AC00004E000F041F8009821688847284600F0AB
:102AD00046FF0028F5D031BD4B494868004738B55E
:102AE00004464A4D284600F037FF4349C868A168AC
:102AF0000160456000F0E2FE4548216801606268BF
:102B00004260002032BD80B53B48C2681368102186
:102B10001972C06800F0DDFE002002BD36483C4A54
:102B2000C168C36811681868084738B5384C374D14
:102B300004E000F009F8009861688847284600F032
:102B40000EFF0028F5D031BD6946284600F030BFA1
:102B500038B504462F4D284600F0FEFE2E4800F002
:102B6000FBFE25480069A1688160E268C2600561DA
:102B70002168016062684260216941616269826125
:102B800031BD80B50146244800F0FCFEBDE802409E
:102B90000FF2090000F0ABBE0000000038B5164C83
:102BA0001D4D06E0FFF7D0FF00992069006900F095
:102BB000E9FE284600F0D3FE0028F3D031BD10B561
:102BC000164C204600F0C8FE0B4948690460BDE879
:102BD000104000F0A5BE1CB5104C06E0694620462A
:102BE00000F0E6FE009800F0F5FE204600F0B7FE8B
:102BF0000028F3D013BD000000000320B809032013
:102C0000580A03209C08032020170020600A032094
:102C100028170020480A032018170020500A032014
:102C20002DE9F84F7D4CDFF8F891256928402061A7
:102C30004FF0FF3AA06800904FF0010B6669E7681B
:102C4000D4F8188019E062680BFA01F122EA010158
:102C5000616066688047606806406660E06900F011
:102C6000BAFEA06800906669E768D4F81880E16948
:102C7000206A0BFA01F1084320620098226938406B
:102C8000104250D016EA080F4DD1002007EA020189
:102C900000E0401C54F830301942FAD054F830109B
:102CA00004EBC003394058680A40104208BFC3F81B
:102CB00004A0A068D4F820C059686CEA010C20EA8E
:102CC0000C0012EA000118BF0A4608B94FF0000CC8
:102CD0005868C4F820C0104000F0A4F8E061EFF399
:102CE000108172B60BFA00F2A068D2431040A060C7
:102CF000012004EBC003401E53F808CC02EA0C0C80
:102D000043F808CCF5D181F31088E06900F064FE47
:102D1000E169202903D259F82100002893D100202D
:102D200000F05BFEA9E7C4F81CA0A069064213D11D
:102D300000F054FEEFF3108672B6A2686169E06895
:102D4000236902401A4202BFA0690142FFF747F817
:102D500086F3108800F043FE2561BDE8F18F38B599
:102D6000144600F006F82E4941F8204085F31088FB
:102D700031BDEFF3108572B654E030B5EFF3108239
:102D800072B6264B9C6804439C6053F8315028432C
:102D900043F8310082F3108830BDEFF3108172B632
:102DA0001E4AD36823EA000005E0EFF3108172B6F3
:102DB0001A4AD3681843D06081F310887047EFF344
:102DC000108172B6154A536918435061F4E72DE932
:102DD000F041124DEE690446374616F1010F0EBF61
:102DE0000026012000FA06F6D5F81880AC6103E051
:102DF0002146304600F0F4FD68692042F8D0EF61CA
:102E0000EFF3108072B6696921EA04046C6180F303
:102E10001088C5F81880BDE8F081000098100020E7
:102E2000A4140020B0FA80F0C0F11F00C0B27047B7
:102E30007FB50C464E4D61684E4E28626962281D72
:102E400000F0D2FD2468746006F1080000F084FDF3
:102E5000012000F069F801203070696841B10FF27B
:102E6000ED020FF2F1030092019302946846884745
:102E70007FBD1FB53F4C04F1080000F070FDF8B9AC
:102E80002078E8B1694604F1080000F091FD384867
:102E9000016A49B10098029001228DF8042001A82E
:102EA00088479DF8040000E00120207018B10098C8
:102EB000FFF767FE04E0009904F1080000F058FDF8
:102EC00004F1080000F04BFD28B9207818B104F196
:102ED0000800FEF786FF1FBD2DE9F04105460E46AE
:102EE00090461C46002000F01FF8224F7868A0F89A
:102EF0000950C672324641460C3000F001FC1C4AB3
:102F000001201070002152690020904748F2E8002B
:102F1000FEF76FFF79688A78D21C04F1080000F090
:102F2000EFFBBDE8F041012010B51149124C496A90
:102F300020B901B188470021217010BD0120207007
:102F400011B1BDE81040084710BD00000020FEF799
:102F50004DBF000010B50146064C04F1080000F01A
:102F600011FD04F10800BDE81040FEF73ABF000073
:102F700088160020F016002045170020FFF7ACFF50
:102F80009DF80E0005B000BDF8B500F10C026B46CF
:102F90002F214FF66640F1E7F8B500F10C026B46C1
:102FA0000F214FF66840E9E7F8B502466B4610215D
:102FB0004FF67540E2E7F0B51C491D4B0A681D4904
:102FC000C2F30D0201EB82010D682A689A4205D115
:102FD0006969AA69EB69EC682D6905E02E463169DB
:102FE0007269B3697468B5680E0E06700F0C47708D
:102FF0000E0A86700272C1F3031601F00F0101710F
:10300000C670110E4171160C110AC171220C210EED
:103010008172C272240A290E2A0C867143720473CB
:1030200041738273C5730020F0BD00003C4000581E
:10303000B95646A90000032038B596B007A8DFF8B6
:103040003814DFF838440FF289453C2200F058FB71
:103050000094019569460FF2614000F0CFFC012118
:103060000220FFF7D6F8DFF8182400210220FFF72E
:1030700076FE07A8FFF788FF08B1FEF7C7FD0DF140
:1030800016000021018000F08DFDDFF8F8130A68BA
:1030900012F1010F0ED0DFF8F0034B6802701B0A2B
:1030A000120A42701A0A4968C37081701B0C0271BF
:1030B000437105E00020FFF793F808B90FF22440B0
:1030C00002460621002000F021FE0FF220421021CE
:1030D000182000F01BFE0FF224421021082000F0FF
:1030E00015FE1821012000F027FE00F077FE06A84B
:1030F0000DF11A010190009105AB0322002101207E
:1031000001F05BF8A6A4204601F056F9C3B2BDF861
:103110001A10BDF814000094002200F01BFF0DF1FE
:10312000160000900223BDF81810BDF81400DFF857
:103130005C43002200F00EFF02220221002000F07A
:1031400090FD0120207000F0DBFF0821217101209B
:1031500000216070E170102001216071A1700022D7
:10316000CB4810210823A0600492039002920191A1
:103170000093012200230121012000F0D5FFA07857
:1031800008B101F08CF801F021F904F1800500206C
:103190004FF6FF712870E18201200FF2C522002155
:1031A000FFF7DDFD0FF2C11200212020FFF7D7FD50
:1031B0000020A870062000F0DEFD01F029F9B54BD3
:1031C000012204F184010120FFF7F0F90FF26522DA
:1031D00000214020FFF7C3FD00206871E8802083B4
:1031E000012000F0AFF817B030BD70B54178A74CA2
:1031F000A94E052904F1800504D03E2915D0FF29E8
:1032000028D046E08088E18A884203D10020E0820D
:103210002870A870012000F095F801213170E08A33
:103220007080304601F0F3F833E0C178012930D1E5
:103230002A78042A0CBF0621052129700021B0F844
:10324000050031707080E082304601F0E0F8072020
:10325000A8701EE0B0F8030040F20241401A0FD0FF
:10326000C01E09D0001F10D040F60501401A04BF4F
:10327000E08A00F0A5FE0CE0E08A01F02CF808E0FE
:10328000E08A834900F07FFF03E0E08A012101F03A
:1032900050F8012070BD814A107805280DD1D078F2
:1032A00020B100211079D170FFF7A8B90121D170A8
:1032B00040F601011079FFF7E7B970471CB5734C70
:1032C00004F180000178052909D08179491E8941DE
:1032D000C90F817120200021FFF74FFD13BDE08A47
:1032E00001AA0DF1050100F094FCA0B99DF80500BC
:1032F000022804BF9DF80400022804D10021009197
:103300000123012204E00020009002230222002178
:10331000E08A00F0CFFC13BD60490878052808D08A
:10332000487900280CBF032000204871002120208C
:1033300006E0C879401E8041C00FC87100214020BE
:10334000FFF71BBD18B5514C84F8800087B000F022
:103350005BF8A022802100F081FE04F1880108B012
:10336000BDE810404DE000004C49487930B98879FB
:1033700050B901228A700A7001200FE003280ED193
:10338000887938B9032008E0012808D10220887024
:10339000087003E0012802D10420887002E0704721
:1033A0005057520018B587B0044600F045FE641E21
:1033B000032C1FD8DFE804F00206131600F02EF8E5
:1033C000802115E0002000234FF4A06206900590B4
:1033D00004900393029001900090114608E000F0E1
:1033E0001DF803E000F010F84FF4A062114603202E
:1033F00000F034FE0A2000F02BFF08B0BDE81040BA
:103400002749052000F010BF0020002306900590FA
:1034100004900393029001900090704700200023D5
:1034200006900590049003930290019000908022F2
:10343000704700001CB51549C88A91F8871029B952
:103440004FF4FA7400940023802205E04FF4FA72DE
:10345000009200234FF40072114601F001F813BDF1
:1034600010B50A4C94F88000052804D000F0E4FD63
:10347000002084F8800010BDF84B0008AC08032041
:103480003B3A00088075FF1F00170020081000203D
:1034900007B20100374400083017002088100020D0
:1034A0009010002000210220FFF767BC0120FFF7E9
:1034B00086BC0120FFF78BBC10B50446616801F1A2
:1034C000080001F003F800B10120207010BD0000D9
:1034D00010B1012803D07047FF20FFF75EBCFF202A
:1034E000FFF763BC6C7AD8AC577200001234567880
:1034F0009ABCDEF0123456789ABCDEF0FEDCBA09D3
:1035000087654321FEDCBA098765432110F8012B4A
:1035100011F8013B0AB19A42F8D0D01A7047000066
:1035200000680549C0F300425201012300F01F006A
:1035300003FA00F088507047080800581047000050
:103540002DE9F04F0024DFF89881664E4FF00F0907
:1035500002460B4631E0644FBA4214BF4FF0070EEB
:103560004FF0040E0EFA01F141EA050E5F4941F8F1
:103570002CE0C74331685D683940ED0248BF014324
:10358000316071685D683940AD0248BF01437160C8
:10359000D8F800105D683940ED0348BF0143C8F812
:1035A0000010D8F8041007EA010C5968890348BFD5
:1035B00040EA0C0CC8F804C0641C186830FA04F126
:1035C00000F07D800121A1400840F5D04FEA440C75
:1035D000032505FA0CF56FEA050E5D6805F0030793
:1035E000012F1CBF05F00305022D10D19568DF687F
:1035F0000EEA050507FA0CF73D439560556825EA84
:1036000001015D68C5F30015A54029435160A10083
:103610001D7905F00305032D1ED0D5689F680EEABD
:10362000050507FA0CF73D43D5601D7905F0030544
:10363000022D11D1E50802EB850501F01C07D5F834
:1036400020B009FA07FA2BEA0A0BD3F810A00AFAFD
:1036500007F747EA0B072F6215680EEA05071D7981
:1036600005F0030505FA0CF545EA070CC2F800C0A1
:103670005D6815F4403F9FD01C4D4FEA940C55F8FF
:103680002C5001F00C0109FA01F7BD43B2F1904F43
:1036900008BF4FF0000E11D0154FBA4208BF4FF0CF
:1036A000010E0BD0134FBA4208BF4FF0020E05D0E7
:1036B000114FBA427FF44FAF4FF0030E52E7BDE80F
:1036C000F08F0AB181617047816270470B4A1368BD
:1036D00001460B421CBF1160FEF78EBB7047000015
:1036E00080080058000800580010004808000140F9
:1036F0000004004800080048000C00480C0800586E
:103700004AB1000011F8013B521E00F8013B1CBFFA
:1037100011F8013BF8E770474018491C1CBFB1F194
:10372000010100F8012DF9D170470000C068084080
:10373000884201D10120704700207047C0690840CD
:10374000884201D1012070470020704710B5794CA4
:1037500002212046FFF7F2FF38B16068C0438107BD
:1037600003D5FFF7E2F9022018E001212046FFF718
:10377000E5FF38B16068C043C10703D5FFF79DF985
:1037800001200BE008212046FFF7D8FF38B1606820
:10379000C043010703D5FFF71EFA0820A06010BD43
:1037A00010B5644C02212046FFF7C0FF70B9606875
:1037B000C04382030AD500F035F841F4003161605E
:1037C00080F31088BDE81040FFF7A8B90821204613
:1037D000FFF7ACFF88B96068C04302030DD500F065
:1037E00021F841F40021616080F310885249086893
:1037F00080474FF40022A26010BD20212046FFF731
:1038000095FF70B96068C04382020AD500F00AF8DB
:1038100041F40011616080F31088BDE81040FFF7AB
:103820005BB910BDEFF3108072B661687047434812
:1038300081B0016841F480110160006800F48010DB
:10384000009000983E48016841F4007101603D48D5
:10385000026842F40072026040BF20BF3A4801682B
:1038600041F40041016001B0704780B537480168FC
:1038700041F480110160006800F48010009000980D
:103880002C48016841F001010160026842F4803275
:1038900002602C20FDF780FEBDE802402D20FDF7E0
:1038A0007BBEEFF3108072B629490A6852085200B5
:1038B0000BE028494FF4803008607047EFF3108028
:1038C00072B623490A6822F002020A6080F3108867
:1038D00070471F484FF400314160EFF3108172B61A
:1038E000026822F40032026081F31088704738B514
:1038F0000446104D08212846FFF718FF58B10E481E
:103900000460EFF3108072B6696821F400216960E9
:1039100080F3108831BDA0474FF40020A86031BD6E
:10392000EFF3108072B60A490A6822F00802CCE769
:1039300000000000000C005838170020500100580B
:1039400020080058D40800580C04005850000058B3
:10395000040C0058080C0058006040607047EFF3FA
:10396000108172B6026882420CBF012000201CE068
:10397000EFF3108272B603680B604860016008685C
:10398000416024E0EFF3108272B6086043684B6038
:103990004160486801601AE0EFF3108172B6426836
:1039A0000368136002684368536081F310887047AE
:1039B00010B5EFF3108472B602680A600168FFE781
:1039C0000846FFF7E9FF84F3108810BD0B6082F30F
:1039D000108870477047704770477047704770474E
:1039E000C043FFF71DB900000249034A01600261AC
:1039F000704700BFDF2A0008072B00087FB50C4680
:103A0000654D6168654E28626962281D00F088FD79
:103A1000246805F12800FFF79FFF746006F1080095
:103A2000FFF79AFF01203070696829B10FF2351253
:103A300000920294684688477FBD1FB5574C04F139
:103A40000800FFF78CFFF8B92078E8B1694604F167
:103A50000800FFF7ADFF5048016A49B10098029095
:103A600001228DF8042001A888479DF8040000E099
:103A70000120207018B10098FFF783F804E0009946
:103A800004F10800FFF774FF04F10800FFF767FF77
:103A900028B9207818B104F10800FFF703FD1FBD15
:103AA0002DE9FC410446002000F051F82088B4F8CC
:103AB0000280394F60F38F28012038700025374885
:103AC0004068A168E268C272A0F80980D2B20C30E6
:103AD000FFF716FE7A6900210020904748F2E800BF
:103AE000FFF7E7FC13E0B6F8010040450CD1009960
:103AF000887AC21E6069D2B28242C8BF024620697B
:103B00006261F11CFFF7FCFD307800B1012507F17F
:103B10002800FFF724FF90B9694607F12800FFF756
:103B200047FF009901F10B06497A0F29DBD1718813
:103B3000414502D12169307808707078E5E72800A6
:103B4000CCD0012000F003F80020BDE8F681124936
:103B5000496A08B921B1084700291CBF012008475C
:103B60007047000010B50146487A0F2818BF0E288C
:103B700007D10B48FFF706FFBDE810400020FFF714
:103B800095BC064C04F10800FFF7FCFE04F10800A8
:103B9000BDE81040FFF786BC58160020E016002054
:103BA0008016002000B587B000F021F80321ADF8A1
:103BB0000410ADF806100122069200F0A1F80028CA
:103BC0004CBFFF209DF8000007B000BD0791049294
:103BD000CDF818D0002102A8FFF762BF0821ADF888
:103BE000041070470F210291ADF8062070470020A5
:103BF0008DF800001822002101A800F0A1BC0922C4
:103C00000021684600F09CBC1822002102A800F0A8
:103C100097BC70B5C8B006460C4615460522FFF79E
:103C2000EFFFADF82060FFF7EFFF3021ADF80A108D
:103C3000082002210591ADF80800052108AAFFF728
:103C4000C5FF002848BFFF2009D49DF8000030B907
:103C50009DF80300207000209DF80410297048B0E2
:103C600070BD18B5C7B000F018F8312200F009F89F
:103C700000F046F800284CBFFF209DF8000048B037
:103C800010BDADF806200821ADF8041003220492FF
:103C900007A9039101220692704700248DF81C00A9
:103CA0008DF8004007A8417082700021182201A8F9
:103CB00000F046BC5CB5C7B00026ADF81C008DF81E
:103CC0001F2007A84C9C817003718DF80060ADF82F
:103CD0002140FFF78FFFFFF781FF3222FFF782FFBE
:103CE0000721049107AA012100F008F800284CBF21
:103CF000FF209DF8000049B050BD07AA069103922D
:103D0000CDF814D0002101A8FFF7CABE18B50C46A3
:103D1000C7B000F04AF800F05CF807AA03923F2011
:103D20000C2100F039F800F020F800284CBFFF20EB
:103D30009DF8000048B010BD00B5C7B000F042F8D3
:103D40000F2200F007F800284CBFFF209DF800006C
:103D500047B000BDADF806203F21ADF804100222A7
:103D6000049207A9039101220692CDF814D00021F4
:103D700001A8FFF795BE00B5C7B00023ADF81C0041
:103D800000F025F81822FFF7E5FF00284CBFFF20C0
:103D90009DF8000047B000BDADF80400ADF8061076
:103DA0000122A41C069204947047114600228DF84B
:103DB00000208DF81C008DF81D4022460DF11E00DC
:103DC00000F0B8BB00238DF81C008DF81D108DF895
:103DD00000301822002101A800F0B2BB00B587B066
:103DE00000208DF8000000F0E6F840F2011200F02B
:103DF00015F900F006F900284CBFFF209DF80000DF
:103E000007B000BD2DE9F841C7B004468846164604
:103E10001F46012808BF022003D002280CBF102033
:103E200000200DF11D031D1800F035F8012C8DF850
:103E30001C4002D0022C1AD01BE00224224641462C
:103E40000DF11D0000F076FB2E706F7000F0B3F8DE
:103E500000F0ABF84FF4817100F017F8E41C069203
:103E6000049400F0CEF8002805D5FF2009E01024C6
:103E7000E4E7972005E09DF8000010B94E9800F0A7
:103E800064F8FFE748B0BDE8F081ADF80400ADF894
:103E900006100322704703220021684600F050BB41
:103EA0002DE9F64F0C46C7B005469946012C08BFD0
:103EB000022003D0022C0CBF102000200DF11F03A4
:103EC0001E18FFF7E8FF012CADF81C508DF81E40BE
:103ED00002D0022C2CD02DE00227DDF85881DDF82D
:103EE00054B1DDF850A1539D529C48993A4600F0D8
:103EF00058F8A6F80090B470F57086F804A086F81B
:103F000005B086F8068000F056F83F204FF4827125
:103F100007AAADF80400ADF8061003920A37032291
:103F20000497069200F06DF8002805D5FF2009E0FF
:103F30001027D2E7972005E09DF8000010B95798A8
:103F400000F003F849B0BDE8F08FBDF80110018022
:103F50000020704778B5C7B01D464C9B00F057F85D
:103F600000268DF800608DF821502A4619460DF183
:103F7000220000F0DFFA00F01EF800F016F84FF40F
:103F8000837100F053F8AD1D00F039F800284CBFE4
:103F9000FF209DF8000049B060BD0023ADF81C0073
:103FA00070470DF11F0000F0C5BA07AA03923F2029
:103FB00070478DF800301822002101A800F0C0BA27
:103FC00000B5C7B0FFF7E9FFFFF7F3FF40F2251296
:103FD00000F009F800F015F800284CBFFF209DF80C
:103FE000000047B000BDADF806203F21ADF8041039
:103FF0000222049207A903910122069270470692B9
:104000000495CDF814D0002101A8FFF749BDADF803
:104010001C00ADF81E108DF820207047ADF806206A
:104020003F21ADF80410012206927047ADF804005C
:10403000ADF806100122704700B587B000F047F9CF
:1040400000F0A4F9812200F03CF900F0ADF900285D
:104050004CBFFF209DF8000007B000BD2DE9F04FD8
:10406000C7B09446DDF840E1519ADDF85481DDF89F
:1040700058A1539CADF81D108DF81C008DF823201D
:104080004FF0000BADF81FC08DF821308DF822E005
:1040900000F021F800F029F826F8098FA6F802A010
:1040A00000F074F900F05EF98321ADF80400ADF87A
:1040B000061000F00AF800F079F900284CBFFF2044
:1040C0009DF8000047B0BDE8F08F4F4401220D3746
:1040D000069204977047D7B252998DF800B009AD97
:1040E000D2B209A8ED1900F025BA2C7007AE549988
:1040F0005FFA84F9F619E2B2681C4E4400F01ABA6D
:1041000000B5C7B000F0B8F800F03EF900F0F5F8DF
:10411000852200F0F9F800F048F900284CBFFF2094
:104120009DF8000047B000BD2DE9F841C7B04FF041
:10413000000800F022F84E9C4F9D509E529F5198CF
:104140008DF800800DF123018DF81F308DF820408F
:104150008DF821508DF8226008608DF8277000F0EE
:1041600015F9862200F0ADF80C2200F01AF90028AB
:104170004CBFFF209DF80000C3E08DF81C0007A88D
:1041800041708270704700B5C7B000F07DF88DF8BF
:1041900000300DF11E001822016001A8002100F07E
:1041A000CFF9882200F039F800F0FBF800284CBF66
:1041B000FF209DF8000047B000BDF8B5C8B0054627
:1041C0000E4617461C46072200F05AF808A846700B
:1041D00087708DF8205000F0A7F88A21ADF80A10FA
:1041E0003F2003210591ADF80800072100F093F866
:1041F000002848BFFF200ED49DF8000058B94F9901
:104200004E98BDF801202280BDF803300380BDF830
:1042100005000880002049B0F0BDADF806203F2120
:10422000ADF804100622704718B5C7B000F08FF83B
:1042300000F0ACF800F096F88E2100F097F800F04E
:10424000B5F800284CBFFF209DF8000048B010BD15
:1042500000B5C7B000F010F800F096F800F04DF887
:104260008F2200F051F800F0A0F800284CBFFF208A
:104270009DF8000047B000BD00238DF81C0070477A
:104280000021684600F05CB90023ADF81C007047BF
:10429000ADF806203F21ADF804100222704700B5AA
:1042A00087B000F014F800F071F8922200F009F8DD
:1042B00000F07AF800284CBFFF209DF8000007B0FE
:1042C00000BDADF806203F21ADF804107047002076
:1042D0008DF80000704700B5C7B0FFF7D5FF00F0BC
:1042E00053F89522FFF7D4FF00F05BF800284CBF8D
:1042F000FF209DF8000047B000BD3F21ADF804103D
:10430000704748B0BDE8F081ADF8062007A90391D9
:1043100001220492704708AA07910492CDF818D0A0
:10432000002102A8FFF7BCBB1822002102A800F060
:1043300007B900B5C7B000F022F8A52200F02BF8AD
:1043400000284CBFFF209DF8000047B000BD0023AF
:1043500004468DF800308DF81C4022460DF11D00FA
:1043600000F0E8B807AA03923F207047ADF80400B8
:10437000ADF806100122641C0692049470470023D5
:10438000ADF81C008DF81E108DF8003018220021A9
:1043900001A800F0D5B8ADF806203F21ADF8041013
:1043A0000322049207A9039101220692CDF814D0AA
:1043B000002101A8FFF774BB00F1010310F8011BF5
:1043C00011B110F8011BFBE7C01A70470749002024
:1043D000087700220648027000F0BCB803490A7F43
:1043E00041F82200087F401C08777047B016002073
:1043F0004417002000781849022802D0032803D06F
:10440000704701220A70704700200870704770479B
:104410000FF22D020021802010B5FEF7A0FC0E48FF
:10442000002404700D48E1B24454641CE1B2F42944
:10443000F9DB10BD704700218020FEF79EBC000014
:104440000649054B0A78521C0A70187800281CBFD0
:10445000012000F017B9704734170020F811002030
:104460005CB5C7B00026ADF81C0007A84C9C418085
:104470008280ADF8223004818DF8006000F021F8D0
:104480003F21ADF8041040F281120F210291ADF8E6
:1044900006200A21049107AA01210691039200F047
:1044A00008F800284CBFFF209DF8000049B050BD1F
:1044B0000692CDF814D0002101A8FFF7F1BA8DF8CB
:1044C00000301822002101A800F03AB870B5044667
:1044D0006078FF2802BFB4F8030000F47F40B0F515
:1044E000406F13D100250D4E00E06D1C327FE8B205
:1044F00090420BD2E9B256F82110204688470100BD
:10450000F3D003D0022806D0012070BD2046BDE8BC
:104510007040FEF76ABE002070BD00BFB0160020DC
:104520000249034A01600261704700BF7F2A000808
:10453000A52A000810B50446FFF7E2F8204610BD92
:1045400010B5044610460A4601462046FFF7E4F837
:10455000204610BD80B500F0AFF800F0AEF800F0D6
:10456000ADF800F0ACF800F0ABF800F0AAF800F0FD
:10457000A9F800F0A8F800F0A7F800F0A6F800F0FD
:10458000A5F800F0A4F800F0A3F800F0A2F800F0FD
:10459000A1F800F0A0F800F09FF8BDE8014000F09D
:1045A00036B8000030B585B041780024FF292BD102
:1045B000B0F8031040F60142891A02D01A3919D016
:1045C00022E03B4AB0F8071095888B1EAB420BD116
:1045D000407B012410B1012802D015E0032100E046
:1045E00002218DF800100CE05088491E81420BD149
:1045F000012409E004218DF80010B0F80500ADF8A1
:1046000010006846FFF7F6FE204605B030BD10B535
:104610008AB02848264CFFF7E1FE4FF61071ADF83E
:10462000181000940623012206A90120FFF7EAFBD7
:104630004FF61170ADF81800A11C012205910492EB
:1046400002921020039000210622019100922389FA
:1046500000F013F84FF61270ADF81800211D059107
:1046600010200122039000210090049202920191F7
:10467000638900F002F80AB010BD208806AA012163
:10468000FFF70EBC1CB50A4C0246F423922063814E
:1046900012B1012A05D016BD009123896188DBB2D1
:1046A00002E000910022A1882088FFF753FC16BD8C
:1046B000BC100020A5450008704770477047704740
:1046C0007047704770477047704770477047704732
:1046D00070477047704770477047000049490A6843
:1046E000920840EA8200086070474648006800F07F
:1046F0000C00704700EB81024349D2F880008842E9
:1047000001D0012070470020704780B500F09EF86E
:1047100000F05AF83D481F2181610321026809E039
:1047200000F09CB880B500F091F800F04DF83748E3
:104730000268022161F3020202603548016841F01B
:104740000401016030BF01BD38B5324C4FF48065C3
:10475000256100F02CF80028FBD14FF0B0408168B3
:1047600001F00C0104291DD1016841F48031016080
:1047700001212948026861F302020260036803F024
:104780000703012BFAD14FF0B04001688903FAD535
:104790000221826861F301028260816801F00C01EC
:1047A0000829FAD1E560BDE8314000F057B803218F
:1047B00020469FE780B500F049F81548016821F0D0
:1047C0000401BEE700F04AB870B5124CFFF7EFFFE6
:1047D0000028FBD10421FFF7EBFF0F4D4FF480665B
:1047E00038B90E480168090402D40068400506D5AE
:1047F000266100F015F82868C008C0002860E6604F
:1048000070BD00000800005800040080000400583B
:1048100010ED00E0001400580040005888040058D3
:1048200010B54FF0B044206840F4807020602068DC
:104830004105FCD50120FFF751FF606A8008800028
:104840006062FFF752FF0428FBD110BD02480168E7
:1048500021F002010160704710E000E002480168A9
:1048600041F002010160704710E000E000000048E4
:1048700001000000000000480100000000000048A6
:104880000100000000000048010000000000004896
:104890000100000000000048010000000000004886
:1048A0000100000000000048010000000000004876
:1048B0000100000000000048010000000000004866
:1048C0000100000000000048010000000000004856
:1048D0000100000000000048010000000000004846
:1048E0000100000000000048010000000000004836
:1048F0000100000000000048010000000000004826
:104900000100000000000048010000000000004815
:104910000100000000000048010000000000004805
:1049200001000000000000480100000000000048F5
:1049300001000000000000480100000000000048E5
:1049400001000000000000480100000000000048D5
:1049500001000000000000480100000000000048C5
:1049600001000000000000480100000000000048B5
:1049700001000000000000480100000000000048A5
:104980000100000000000048010000000000004895
:104990000100000000000048010000002DE9FC4D6E
:1049A000016800F10805490805EBC102019200F118
:1049B0000803406800F0010803EBC106400806EB5D
:1049C000C0000021002205E0009B9F4218BF17F99C
:1049D000014B0BD1019B9D4206D02C686B682F19AF
:1049E000FB1800930835EFE7BDE8F68D009B9F426A
:1049F00005D12B68EF186B68FB180093083517F882
:104A000001AB91420FD183465E4508BF00F015F817
:104A100031685FEA080018BF494470680A18083610
:104A20009142F1D05846002C01F801AB02D5641C2C
:104A3000E7D1C9E7641ED9D5C6E7012000F000B868
:104A400080B500F007F8024A11001820ABBEFBE762
:104A50002600020010B500F013F802000023002425
:104A6000E4431068A04203D011000220ABBE1360E3
:104A70005068A04203D0111D0220ABBE536010BD90
:104A800000487047E0100020010000000300000013
:104A90000500000001000000010000000600000009
:104AA0000A000000200000000200000004000000D6
:104AB000080000001000000040000000800000001E
:104AC0000001000000020000A0860100400D03006C
:104AD000801A060000350C0040420F0080841E0042
:104AE00000093D0000127A000024F40000366E0137
:104AF0000048E801006CDC0200000000000000003B
:104B000000000000000000001349002008604FF082
:104B1000B0411248026842F4700202604FF4E02390
:104B2000086840F0010008608B600A680C48024089
:104B30000C480A60036823F00503036042685208CA
:104B40005200426000220848C8600861086820F4EA
:104B5000802008608A61704708ED00E088ED00E081
:104B6000FBFEF6FA94000058001004227047FEE79E
:104B7000FEE7FEE7FEE770477047704700F026B893
:104B8000FDF73EBC0848FBF7BABF0848FBF70DBB72
:104B90000748FBF70ABBFEF7D9BDFEF701BE00F0E0
:104BA0001DB80448FBF7ABBF981500208013002008
:104BB000EC120020F81500201020FEF787BD012020
:104BC000FEF784BD0220FEF781BD00000248416867
:104BD00002788A1842607047C81000200449C868EB
:104BE0000A6882430A60486000F004B800000000D0
:104BF0000015005870470000000000000000000091
:104C00000000000000000000000000004400080058
:104C10004005020112299C00F4010000FFFFFFFF84
:104C2000480101000020D8060003720600000000C1
:104C30000D00040030B4002512E050F8042BD30717
:104C400044BF4A44521E091F042942F8045BFAD2A9
:104C500013468C0744BF15809B1CC90748BF1D70B5
:104C600050F8041B0029E8D130BC704710B5074943
:104C700079441831064C7C44163404E00A68081D57
:104C8000114488470146A142F8D110BD2C00000014
:104C9000780000004EF68851CEF20001086840F41A
:104CA00070000860BFF34F8FBFF36F8F4FF001703C
:104CB000E1EE100A704700007DFFFFFF5C06000078
:104CC000EC100020700800003C00032000000000F1
:104CD000CDFCFFFF02000000020000007401000094
:104CE000020000002800032014000000B1FCFFFFB8
:104CF00002000000020000005A0100002F00000026
:104D000008100020E400000000F00DF8002801D099
:104D1000FFF7ACFFAFF300800020AFF30080FCF79B
:104D2000BEFE00F002F80120704700F001B800005C
:104D300007463846FFF784FEFBE7000005480146BA
:104D400003B4684680F30988AFF30080FFF7A2FF41
:104D5000FFF7DAFFA5EDF5FEB5470008C5470008E7
:104D600025470008494700080B470008214700086D
:104D70000148804701480047094B00083D4D0008A5
:104D8000FFF7FEBFFFF7FEBFFFF7FEBFFFF7FEBF57
:104D9000FFF7FEBFFFF7FEBFFFF7FEBFFFF7FEBF47
:104DA000FFF7FEBFFFF7FEBFFFF7FEBFFFF7FEBF37
:104DB000FFF7FEBFFFF7FEBFFFF7FEBFFFF7FEBF27
:104DC000FFF7FEBFFFF7FEBFFFF7FEBFFFF7FEBF17
:104DD000FFF7FEBFFFF7FEBFFFF7FEBFFFF7FEBF07
:104DE000FFF7FEBFFFF7FEBFFFF7FEBFFFF7FEBFF7
:104DF000FFF7FEBFFFF7FEBFFFF7FEBFFFF7FEBFE7
:104E0000FFF7FEBFFFF7FEBFFFF7FEBFFFF7FEBFD6
:104E1000FFF7FEBFFFF7FEBFFFF7FEBFFFF7FEBFC6
:104E2000FFF7FEBFFFF7FEBFFFF7FEBFFFF7FEBFB6
:104E3000FFF7FEBFFFF7FEBFFFF7FEBFFFF7FEBFA6
:104E4000FFF7FEBFFFF7FEBFFFF7FEBFFFF7FEBF96
:104E5000EC008100F700040409505752F100F8FFFC
:104E6000E80004F700F70001F9000010FC000A0850
:104E70000048000C0048000C0048F8FF0300093D02
:014E80000031
:0400000508004D3D65
:00000001FF
