:020000040800F2
:1000000008100020314B0008C1480008C348000810
:10001000C5480008C7480008C9480008000000009B
:10002000000000000000000000000000CB480008B5
:10003000CD48000800000000CF480008D148000863
:10004000414B0008454B0008494B0008D5480008C3
:100050004D4B0008514B000813490008194900088E
:10006000554B0008594B00080D490008D9480008B5
:100070005D4B0008614B0008654B0008694B0008A8
:100080006D4B0008714B0008754B0008794B000858
:100090007D4B0008814B0008854B0008894B000808
:1000A0008D4B0008914B0008954B0008994B0008B8
:1000B0009D4B0008A14B0008A54B0008A94B000868
:1000C000AD4B0008B14B0008B54B0008B94B000818
:1000D000DF480008E5480008BD4B0008C14B000898
:1000E000C54B0008C94B0008CD4B0008D14B000898
:1000F000EB480008EF480008F3480008D54B00081B
:10010000D94B0008DD4B0008E14B0008E54B000827
:10011000E94B0008ED4B0008F14B0008F54B0008D7
:10012000F94B0008FD4B0008F7480008014C000897
:10013000054C0008094C00080D4C000838B50400B7
:1001400001D1012032BD04F18405686808B900F0CE
:1001500020F800F00DF808B100F031F800F02CF8AC
:10016000012804D000F00DF821F02A0116E032BD7C
:100170002420686020680168490849000160A06A7D
:1001800070472068416821F490414160206881688F
:10019000704700212970204600F0C6BF816000F042
:1001A00004F8BDE8324000F072BB2068016841F0FD
:1001B0000101016020467047204600F001BA204648
:1001C00000F002BB10B5034603F15404606B202815
:1001D0003AD109B1100001D1012010BD196522806A
:1001E0006280002060620021E16321206063216958
:1001F0009868B1F1005F15D1B0F5805F04BF186950
:10020000002819BFDFF8A4036062DFF8A41361625D
:100210001A6800F02EF841F4000100F0BEF9F7D1A1
:10022000002010BDB0F5805F04BF1869002807BF2B
:10023000DFF880136162DFF88003606200F059FC30
:1002400000F0A9F9FAD1EBE7022010BD38B503465A
:10025000D3F88C0020280AD109B1100001D1012067
:1002600032BD00F00CF8BDE8384000F0BBBB022006
:1002700032BD02F1080151E8001F0832704700202A
:10028000D866DFF838431868A0420CD040680402F2
:1002900009D5186850E8004F054644F0806445E8E9
:1002A00000400028F5D118467047216801F1080385
:1002B00053E8001F206800F1080221F0400142E8E5
:1002C0000010002870472DE9F041044640F60F0C5D
:1002D0002268D669104616EA0C0F0768936804F185
:1002E0005C0507F0200006F020010DD1002914D094
:1002F00010B9D80040F18D80A969002900F045812E
:100300002046BDE8F0410847DFF84CC813EA0C0F5F
:1003100004BFDFF848E817EA0E0F7AD05FEAC67E1E
:1003200048BF5FEAC75807D54FF0010EC2F820E07A
:100330006A6B42F001026A63B2070AD5DA0708D590
:10034000D4F800E00222CEF820206A6B42F00402CA
:100350006A6372070AD5DA0708D5D4F800E00422E8
:10036000CEF820206A6B42F002026A6332070DD594
:10037000002808BF13EA0C0F08D0D4F800C00822E8
:10038000CCF820206A6B42F008026A63320509D576
:100390007F0107D526684FF4006232626A6B42F033
:1003A00020026A636A6B002A32D031B108B9D800E2
:1003B00003D5A96909B120468847686B21688A6816
:1003C000510602D410F0280F1DD0204600F096FBF5
:1003D00020688168480611D5FFF767FFFCD1686A7D
:1003E00060B10FF289718163686A01F020F800281A
:1003F0000ED0686A816BBDE8F04108472046BDE831
:10040000F04101F0EFB8204601F0ECF800206863FD
:10041000BBE02869012878D1F00676D5F90674D5B5
:1004200010201062226829889068420637D56A6ACF
:100430001368586880B2002828D0884226DA68807D
:10044000106801688A061AD400F0ABF821F48071B4
:1004500000F0A3F8F8D100F063FAFCD1FFF725FF14
:10046000FCD1202028630021296100F09AF821F0B6
:10047000100100F092F8F8D1686A00F0A2FF0220A3
:10048000686129886888091A89B206E088427CD1A7
:100490001A68900679D502226A61204631E06A889E
:1004A0006888891A00281CBF88B200286DD02246AF
:1004B000106850E8003F044623F4907300F067F89A
:1004C000F6D1106800F1080400F1080354E8004F69
:1004D000DFF88006044043E800400028F1D102F133
:1004E0005C032020186300241C619C61146854E89C
:1004F000004F156800F034FBF8D10220586189B232
:100500001046BDE8F04101F06EB8F00209D559027D
:1005100007D54FF4801010622046BDE8F04101F08D
:1005200063B8300609D5390601D4180205D5E96942
:1005300059B32046BDE8F0410847700613D5790647
:1005400011D500F02EF821F0400100F026F8F8D186
:1005500004F15C002021C1620022C2612046BDE896
:10056000F04101F07CB8300206D5790004D5204670
:10057000BDE8F04101F086B8F00148BF002F04D576
:100580002046BDE8F04101F07EB8BDE8F08144E8C6
:1005900000300028704741F0800142E80010002838
:1005A0007047206850E8001F02467047FB0B0008A8
:1005B000730C0008A30B0008790B000800800040B2
:1005C000F8B50446DFF8180922681368A1680340EB
:1005D00020690B4361690343E0690B4303431360E4
:1005E00000255168E06821F4405101435160A3693E
:1005F000DFF8F0188A421CBF206A03439668DFF8D0
:10060000E808DFF8E8E8DFF8E8780640334393606D
:1006100067A6D36A606A1B0940EA0313D362724576
:10062000DFF8D0084FF4004338D13F6807F00307E4
:10063000032F4CD8DFE807F0024542484FF0010C89
:10064000E169B1F5004F4FF6F07740F07F80BCF1E3
:10065000010F09D0BCF1020F0AD0BCF1040F70D019
:10066000BCF1080F70D098E001F0AAFB002814D06C
:10067000626A616836F81230B0FBF3F04A0802EBA8
:100680004002B2FBF1F0A0F11001B942EBD20740F9
:10069000C0F3420007432068C7607FE08A4216D15A
:1006A0003F6817F4406723D0B7F5806F09D0B7F5DE
:1006B000006F03D0B7F5406F06D008E04FF0020C92
:1006C00007E04FF0040C04E04FF0080C01E04FF09D
:1006D000100C8A42B4D1BCF1000F09D0BCF1020F5A
:1006E0000AD0BCF1040F15D0BCF1080F15D054E0AE
:1006F00001F05EFB002851D0616A36F81120B0FB92
:10070000F2F6626802EB42018E4246D31303B34213
:1007100005D242E001F002FBECE71846ECE7500896
:10072000002110EB062051EB1661002301F0E0FBE5
:10073000A0F54076DFF86C78BE422ED22168C86002
:100740002CE001F0EBFA91E7184691E7BCF1010FBC
:1007500009D0BCF1020F09D0BCF1040F18D0BCF1D4
:10076000080F18D019E001F02BFBB8B1626A36F817
:1007700012306168B0FBF3F000EB5100B0FBF1F018
:10078000A0F11001B94208D2226880B2D06005E021
:1007900001F0C4FAE9E71846E8E7012504F168002A
:1007A0000121002341800180C36003612846F2BD1E
:1007B000010002000400060008000A000C001000FE
:1007C000200040008000000190F828100A0706D59C
:1007D00002685368816B23F400430B43536090F825
:1007E0002810CA0706D502685368C16A23F400338B
:1007F0000B43536090F828108A0706D502685368A7
:10080000016B23F480330B43536090F828104A07A0
:1008100006D502685368416B23F480230B43536071
:1008200090F82810CA0606D502689368C16B23F4B5
:1008300080530B43936090F828108A0606D502680F
:100840009368016C23F400530B43936090F82810D5
:100850004A0610D502685368416C23F480130B4399
:100860005360436CB3F5801F05D15368816C23F44A
:10087000C0030B43536090F828100A0606D50168A0
:100880004A68C06C22F4002202434A607047F8B5FF
:10089000044604F184050020E8606FF07E4701F013
:1008A000ABFB0646206801680A0714D5009733465B
:1008B00000224FF40011204600F04AF858B1FFF72B
:1008C00070FE21F08001FFF768FEF8D104F184008A
:1008D0002021416016E0206801684A0716D500977C
:1008E000334600224FF48001204600F031F868B111
:1008F00000F024F8FCD100F013F8FCD104F18400DE
:1009000020218160002202700320F2BD2020686057
:100910002021A9600020E066002121672870F2BD37
:10092000216801F1080353E8001F2068490800F11D
:100930000802490042E8001000287047206850E88B
:10094000001F024621F4907142E800100028704711
:100950002DE9F041069C05460E4690461F46286844
:10096000C1693140B1420CBF01200020404537D160
:1009700014F1010FF3D001F03FFBC01B844200D300
:1009800014B90320BDE8F081286801684A07E6D55C
:10099000802E18BF402EE2D0C169080704D4296810
:1009A000C8690105DBD50DE02A68082010622846D9
:1009B00000F0A4F805F184000821C1600022027053
:1009C0000120DFE729684FF400600862284600F044
:1009D00095F805F184002021C16000220270D0E763
:1009E0000020CFE730B5034600209965FF2403F1CE
:1009F0005C010A804A8088619868B0F5805F04D104
:100A0000186990B940F2FF140FE018B9186960B185
:100A10007F2007E0B0F1805F06D1186908B97F2414
:100A200003E03F20888001E000248C8000204863A0
:100A300022240C63196801F1080555E8001F1868A5
:100A400000F1080441F0010144E800100028F1D150
:100A500003F15C018868B0F1005F28D18889824287
:100A600025D39A68B2F5805F04BF1869002803D1C6
:100A70000FF285428A610BE00FF295348C611869A0
:100A800030B100F036F841F48071FFF786FDF8D1FF
:100A9000196801F1080454E8001F186800F1080201
:100AA00041F08051FFF779FDF2D1002030BD986808
:100AB000B0F5805F04BF186900280CD10FF25522F1
:100AC0008A61186850E8001F024641F02001FFF7D4
:100AD00064FDF6D1E9E70FF2E9128A61186900288E
:100AE000EFD000F006F841F49071FFF756FDF8D111
:100AF000DBE7196851E8001F1A687047016851E880
:100B0000002F0B4622F4907243E800210029F5D112
:100B1000016801F1080301F1080253E8003F0D49A3
:100B20000B4042E800310029F2D1C16E012909D100
:100B3000026852E8002F036822F0100243E8002107
:100B40000029F5D12021C0F88C100022C26642672E
:100B500070470000FEFFFFEF0100001020010004BD
:100B600024F0100445E8004000287047806A002106
:100B7000A0F85E1000F036BDD0F8881021290FD102
:100B8000B0F8561001B923E0036D0268197891623C
:100B9000016D4A1C0265B0F856104A1EA0F8562096
:100BA0007047D0F88810212911D1B0F8561001B93A
:100BB0000EE0036D02681988C1F308019162016DAE
:100BC0008A1C0265B0F856104A1EA0F856207047DD
:100BD000026852E8002F036822F0800243E80021F7
:100BE0000029F5D1016851E8002F0B4642F0400280
:100BF00043E800210029F5D17047D0F88810212959
:100C000000D0704730B500F15602938A0DE00168BC
:100C1000CC69250608D5046D25788D62016D4C1CC4
:100C200004651588691E11805B1E99B241B1118857
:100C30000029ECD100F00FF8FCD100F002F8FCD153
:100C400030BD016851E8002F0B4642F0400243E8F6
:100C5000002100297047026802F1080454E8002FBF
:100C6000016801F1080322F4000243E80021002991
:100C70007047D0F88810212900D0704730B500F1B6
:100C80005602938A0FE00168CC6925060AD5046DE7
:100C90002588C5F308058D62016D8C1C04651588D7
:100CA000691E11805B1E99B241B111880029EAD1F9
:100CB000FFF7D1FFFCD1FFF7C4FFFCD130BD00002E
:100CC00010B500F050F81FD14B6A9188846D0B402D
:100CD0002370816D4B1C00F04CF819D100F050F8D6
:100CE000FCD100F057F8FCD100F06CF80BD10023D8
:100CF000136100F05DF8FCD10168CB69DC0644BFEC
:100D000010230B627AE07EE0886940F00800886179
:100D100010BD000010B500F026F81FD14B6A918875
:100D2000846D0B402380816D8B1C00F022F819D15B
:100D300000F026F8FCD100F02DF8FCD100F042F8CC
:100D40000BD10023136100F033F8FCD10168CB69AB
:100D5000DC0644BF10230B6250E054E0886940F089
:100D60000800886110BD00F15C020168136B222B42
:100D70007047836551884B1E538051880029704706
:100D8000026852E8002F036822F4907243E80021C1
:100D900000297047026802F1080454E8002F016836
:100DA000520801F10803520043E80021002970476E
:100DB000016851E8003F0C4623F0100344E800317D
:100DC0000029704700F15C02202111630023936128
:100DD00000215161434B016899420CD049680B02D4
:100DE00009D5016851E8003F0C4623F0806344E8D0
:100DF00000310029F5D11169012970471188BDE83A
:100E0000104000F0F0BBBDE8104000F01EBC000038
:100E10002DE9F84300F010F94BD1A88900283AD009
:100E2000B80638D500F0D2F80870A06D421C00F06A
:100E3000C4F817D0F90748BF5FEAC85200F0B4F809
:100E400003D5F20701D500F0CFF8780703D5F207F4
:100E500001D500F0C1F8686B20B1204600F0C2FB5C
:100E60000020686368880028DAD100F0CFF8FCD150
:100E700000F028F8FCD100F0FDF809D100F0EAF804
:100E800044BF102101622988204600F0ACFB02E03B
:100E9000204600F0DAFB688868B1A98988420ADA3E
:100EA00000F0BEF8FCD18048A86100F0A5F8FCD1A4
:100EB00001E000F002F8BDE8F183816941F008012A
:100EC00081617047206800F1080200F1080152E8D2
:100ED000002F7648024041E80020002870470000BB
:100EE000F369FFCF00800040FFF4FF11003801409C
:100EF000880000580024F4002DE9F84300F09CF825
:100F00004BD1A88900283AD0B80638D500F05EF851
:100F10000880A06D821C00F050F817D0F90748BF78
:100F20005FEAC85200F040F803D5F20701D500F09F
:100F30005BF8780703D5F20701D500F04DF8686B30
:100F400020B1204600F04EFB00206863688800282E
:100F5000DAD100F05BF8FCD1FFF7B4FFFCD100F070
:100F600089F809D100F076F844BF10210162298880
:100F7000204600F038FB02E0204600F066FB68885F
:100F800068B1A98988420ADA00F04AF8FCD14848D9
:100F9000A86100F031F8FCD101E0FFF78EFFBDE859
:100FA000F183000000FD0F0005D501210162686B8F
:100FB00040F001006863B8077047A2656888411E69
:100FC00069802068C76917F0070F70472168486A71
:100FD000A16D09EA00007047216804200862686B6F
:100FE00040F0020068637047216802200862686B65
:100FF00040F0040068637047216851E8001F2268D0
:1010000041F0200142E8001000287047216851E8B3
:10101000001F226821F4807142E800100028704708
:10102000226802F1080353E8001F083221F08051C2
:1010300042E8001000287047044604F15C0520686F
:10104000B5F80490C7690146D1F800808668296B1D
:101050002229704700212961206850E8001F0246BC
:1010600021F0100142E800100028F5D12068C16984
:10107000CA067047202028630021A961002068610A
:101080000C49206888420CD04068010209D52068CC
:1010900050E8001F024621F0806142E8001000285D
:1010A000F5D1286901287047C10C0008FEFFFFEF49
:1010B000150D0008008000407D4900E07D4981B0A9
:1010C0000A6802430A60096808400090009801B06D
:1010D000704780B54FF40020FFF7F0FF0022002199
:1010E0002E2000F0A6FFBDE802402E2000F0BEBF7B
:1010F0000168714A914200D0704780B54FF480106A
:10110000FFF7DCFF002200212C2000F092FF2C20B2
:1011100000F0ACFF002200212D2000F08AFFBDE886
:1011200002402D2000F0A2BF38B59AB00446142129
:10113000684600F0EFFF502106A800F0EBFF2068A2
:101140005E495F4D884236D10220069000210D9104
:1011500006A800F0F9FF08B101F057FA286840F03E
:10116000010028602968574D01F00101059105989B
:101170000120FFF7A1FF02210191002202920C2021
:101180000321009003910822049269464FF0904099
:1011900001F03CFA4C482860112100F048F808B1F1
:1011A00001F033FAE567AC6200220021252000F04F
:1011B00040FF252037E04549884236D1012006907E
:1011C00000210C9106A800F0BFFF08B101F01DFA44
:1011D000686840F48040686068683D4D00F4804075
:1011E000059005980220FFF767FF02210191012277
:1011F0000292C020032100900391072204926946C5
:10120000344801F003FA344828600F2100F00FF849
:1012100008B101F0FAF9E567AC6200220021242050
:1012200000F007FF242000F021FF1BB030BD6960F3
:1012300000201022E86080216861A861E8612862CE
:10124000AA602961284600F04DB818B595B004464B
:10125000502101A800F05EFF226820498A4224D173
:101260004FF4006001904FF48071119101A800F0DB
:101270006BFF08B101F0C9F91948816B41F40041D5
:1012800081630021026842F48062026000220068EB
:1012900000F4806000900098032000F0CAFE032054
:1012A00000F0E4FE204601F01DFB16B010BD00006A
:1012B0004C00005850000058000C005800800040BE
:1012C0005C0000580C150020080002400038014066
:1012D0006C1500200004004844040240002800402F
:1012E0005800005838B5040001D1012032BD2168F2
:1012F000DFF8C822914204F1240502D200F055F82B
:1013000005E000F04AF8DFF8B8022962E86102213E
:10131000697020680268A068E16823686FF30E12A4
:10132000024320690A4361690243A0690A43E169F3
:101330000243206A0A4302431A60204600F010F973
:10134000A068B0F5804F04BF002161602079696A10
:1013500000F03F0000F014F838B1052805D220460F
:1013600000F01BF900F012F803E000202863686326
:10137000A8630021A961012068702970002032BD96
:101380000860A96AE86A486060687047296B0020B5
:101390000860696BA86B48607047DFF82802411845
:1013A0001422B1FBF2F189007047DFF81C024118EA
:1013B0001423B1FBF3F18900DFF810222962EA61FE
:1013C000704740B100F124014A78022A05D0042078
:1013D000886100220A70012070470268136823F0B8
:1013E0000E0313604A6A136823F480731360006865
:1013F0000268520852000260012091F82020CB6957
:1014000002F01C02904058608A6AC86A5060086BFB
:1014100038B10246106820F4807010604A6B886B07
:1014200050600120487000220A700020704738B5D3
:1014300000F1240200245178022903D00420906195
:10144000012429E001680B6823F00E030B6001689A
:101450000D686D086D000D60516A0B6823F4807390
:101460000B60012192F82030D56903F01C039940EC
:101470006960936AD16A5960116B39B10B4619687A
:1014800021F480711960536B916B59600121517087
:101490001470516901B18847204632BDF8B500F19A
:1014A00024010426CA69126803681C6891F8205058
:1014B00005F01C0506FA05F73A4210D067070ED56D
:1014C0001A68940603D41A6822F004021A6000F025
:1014D0003EF8C968002939D0BDE8F4400847022623
:1014E00006FA05F73A4213D0A70711D51A689406F1
:1014F00005D41A6822F00A021A6001234B7000F02A
:1015000026F800220A70896801B3BDE8F440084754
:10151000082606FA05F52A4218D0220716D51C68B7
:1015200024F00E041C60012291F82030CC6903F0F5
:101530001C039A406260012301228A614B700022E1
:101540000A70096911B1BDE8F4400847F1BD91F88E
:101550002020CB6902F01C0296405E6070470000BC
:1015600010B5416C0268154B89089A4239BF184C76
:1015700004EB8101174B03EB8101816402F0FF0250
:10158000083A1421B2FBF1F1012301F01F01124AC4
:10159000C26403FA01F1016510BD01790F4A104BD5
:1015A000836501F03F0102EB81024265491E012281
:1015B00001F003018A40C265704700000804024040
:1015C00000040240F8FBFDBFF8FFFDBF0000024031
:1015D000000802401C08024080080240FC0802404B
:1015E000400902407047704770470EE00268436848
:1015F000024408305FEAC37C44BF4B445B1E52F890
:1016000004CB43F804CB091FF9D150F8041B00297F
:10161000ECD17047002800D0704710B5154C00F091
:101620000FF8BDE81040FEF711BE002800D070474B
:1016300010B5114C00F004F8BDE81040FEF7C2BD33
:101640000E4823600E4B0360704700680C498842C7
:1016500004D1084A1068002818BF00477047006886
:101660000749884204D1044A1068002818BF00477F
:1016700070470000301600203416002008130020A8
:1016800000380140704770474FF0B040006800F0EC
:10169000F000B02888BFB0207047DFF8E00700688E
:1016A000000100F0F00070472DE9F041040051D036
:1016B000207881064FF0B0453AD5A868E96810F067
:1016C0000C0001F0030103D00C2808BF012943D10D
:1016D000E06900283ED0FFF7D7FF0146606A8142EB
:1016E00011D200F07FFB002834D12968606A21F014
:1016F000F001014329606968206A21F47F4141EAD1
:101700000021696009E0296821F0F001084300F038
:1017100018FA606A00F066FBE0B900F03BFBDFF806
:1017200060170860DFF85C07006801F0F5F888B919
:101730002078C10762D5A868E96800F00C00082885
:1017400001F0030103D00C2808BF03292ED16068E3
:10175000002853D10120F2E1E069B8B1296841F0D5
:10176000010100F0D8FA06462868800706D400F088
:1017700043FC801B0328F7D30320E0E12868616A5B
:1017800020F0F000084300F0DCF9D1E728684008B9
:10179000400000F094FB064628684008C007C7D503
:1017A00000F02AFC801B0328F6D3E5E76068B0F55B
:1017B000803F04D1296841F48031296003E0286822
:1017C00020F480302860606858B100F015FC0646AF
:1017D0002868800312D400F00FFC801B6528F7D323
:1017E000CAE700F009FC06462868400CC00705D58A
:1017F00000F002FC801B6528F6D3BDE72078810746
:1018000015D5A868E96800F00C00042801F0030170
:1018100003D00C2808BF022928D1E068002899D0FD
:101820006868216920F0FE4040EA01606860216834
:10183000DFF8546611F0180F00F08B806069002803
:1018400077D0C806706858D5800730D4716841F0E9
:101850000101716000F0D0FB07467068800726D454
:1018600000F0CAFBC01B0328F7D385E7E06870B11E
:10187000296841F4807100F04EFA06462868400558
:10188000CED400F0B9FB801B0328F7D374E7286897
:1018900020F4807000F013FB06462868800AC00719
:1018A000C5D500F0A9FB801B0328F6D364E7706858
:1018B00040F0040000F04EF907467068000705D4B8
:1018C00000F09AFBC01B0428F7D355E77068A169A4
:1018D00020F4706040EA01207060706840084000A9
:1018E00000F038F9074670684008C00731D500F0AD
:1018F00083FBC01B0328F6D33EE740F0010000F055
:1019000029F907467068800705D400F075FBC01BF5
:101910000328F7D330E7706820F004007060706827
:10192000C008C00715D500F067FBC01B0428F6D31C
:1019300022E7706820F0040000F00CF90746706898
:10194000C008C007C9D500F057FBC01B0428F6D358
:1019500012E7207841074CD5DFF83085D8F8000031
:10196000C1050ED400F0FAFF00F046FB0746D8F898
:101970000000C10505D400F03FFBC01B0328F6D3CF
:10198000FAE6A068012804D1306840F00100306018
:1019900010E00528306806D140F00400306031685E
:1019A00041F0010105E0400840003060316821F05D
:1019B00004013160A06841F2893760B100F01CFB7E
:1019C00080463068800714D400F016FBA0EB0800B6
:1019D000B842F6D3D0E600F00FFB804630684008EE
:1019E000C00706D500F008FBA0EB0800B842F5D30D
:1019F000C2E62078410622D5A06A0028B0680ED041
:101A000040F00100B06000F0F7FA0746B0688007C8
:101A100015D400F0F1FAC01B0328F7D3ACE6400858
:101A20004000B06000F0E8FA0746B0684008C00720
:101A300005D500F0E1FAC01B0328F6D39CE6E06A66
:101A400000287BD0A968EA68022801F00C0161D166
:101A5000236B02F00300984202BF02F07000636B38
:101A6000984213D1A36BC2F30620984202BF02F43E
:101A70007810E36B984209D1236C02F060609842C1
:101A800002BF02F06042606C824237D00C2942D023
:101A9000286841013FF55EAE00F00EFA0646286860
:101AA000810105D500F0A8FA801B0328F7D363E66F
:101AB000EA68DFF8DC03216B0240606B0A43A16B2C
:101AC0000243E06B42EA0122216C0243606C0A434C
:101AD0000243EA60296841F080712960E86840F0BB
:101AE0008050E86000F088FA04462868810125D417
:101AF00000F082FA001B0328F7D33DE62868810135
:101B00001CD4286840F080702860E96841F080515A
:101B1000E960E7E70C293FF41DAE00F0CDF904467B
:101B20002868810105D500F067FA001B0328F7D368
:101B300022E6E968DFF85C030140E9600020BDE8C7
:101B4000F08128606868216A20F47F4040EA012023
:101B500068607047706000F04FBA2DE9F8430400E8
:101B6000884600F0B080DFF8305300F0CBF80CD29C
:101B700000F0CDF8074600F0C5F806D000F03CFABA
:101B8000C01B0228F7D90320BAE0207882074FF063
:101B9000B04711D5B968A06821F0F0010143B960E0
:101BA00000F02AFA0646B868C00305D400F024FA0B
:101BB000801B0228F7D9E6E72078DFF8C0628206AA
:101BC00012D53168606921F0F0010143316000F005
:101BD00013FA81463068800306D400F00DFAA0EBBA
:101BE00009000228F6D9CEE72078410613D53068DF
:101BF000A1690009000140EA1110306000F0FCF911
:101C000081463068C00306D400F0F6F9A0EB090065
:101C10000228F6D9B7E72078420711D5B968E068FD
:101C200021F4E0610143B96000F0E6F90646B868C6
:101C3000800305D400F0E0F9801B0228F7D9A2E761
:101C40002078010712D5B868216920F4605040EA75
:101C5000C100B86000F0D0F90646B868400305D46A
:101C600000F0CAF9801B0228F7D98CE72078C10759
:101C70002BD56068022819D13968890323D5BA6841
:101C8000920840EA8200B86000F0B6F90646B868EB
:101C9000616800F00C00B0EB810F16D000F0ACF9D9
:101CA000801B41F289318842F1D36CE7032802D1CD
:101CB0003968890103E00028396802D18907DED438
:101CC00001E04905DBD401201AE0286800F0070094
:101CD00080450BD200F01BF8044600F013F805D045
:101CE00000F08AF9001B0228F7D94CE700F052F8FF
:101CF0006349086000F04EFEBDE8F24300F00CBE00
:101D0000BDE8F283286800F0070040457047296865
:101D1000C90848EAC101296000F06EB938B54FF032
:101D2000B0455F4CA96811F00C0106D1FFF7ACFC7F
:101D3000C0F3031054F8200032BD0429594828D0BC
:101D40000829594A04D12968C90222D4104632BD53
:101D5000E96801F0030102290CD0032904D12968A4
:101D6000C90207D4104605E0FFF78EFCC0F303104C
:101D700054F82000E968EA68EB68C1F3062148439B
:101D8000C2F30211491C5B0FB0FBF1F05B1CB0FB0E
:101D9000F3F032BD80B5FFF7C1FF4049FFE7434A8A
:101DA0000968C1F3031152F82110B0FBF1F002BD34
:101DB00080B5FFF7EFFF00F010F8C1F3022106E055
:101DC00080B5FFF7E7FF00F008F8C1F3C22112F871
:101DD000211001F01F01C84002BD3049344A096892
:101DE0007047000070B52E49B1282EBFCC6AC0F3F1
:101DF000031051F82040FFF750FC054600F0EAFDC3
:101E00002A49C5F3031251F822102A4AB4FBF1F112
:101E10005FF00004B1FBF2F1B0F5007F30A2204684
:101E20001FD100BF27A353F820508D4216D2401C6B
:101E30000328F8D9184D2868C00844EAC00000F00B
:101E40003EF80646286800F00700A04213D000F0D4
:101E5000D3F8801B0328F5D3032070BD52F820402F
:101E6000E8E700BF1BA353F820508D42F6D2401C78
:101E70000328F8D3DEE7002070BD000008010058F9
:101E80005810002034100020900000580004005822
:101E90008C80C111FCFFFEEE004000580800005885
:101EA0001C4800080024F4000048E801DC47000852
:101EB000804A000840420F00286820F080702860A7
:101EC00000F09AB812000000240000003600000064
:101ED00040000000060000000C00000010000000A0
:101EE00000000000010000000200000003000000EC
:101EF000D3BBD9B1B2F5803F5BD2022A1ED98C4642
:101F0000B1FBF2F102FB11C31B0443EA1043B3FB24
:101F1000F2FC02FB1C3380B240EA0343B3FBF2F055
:101F200002FB103240EA0C4000237047022A05D918
:101F30008446B0FBF2F002FB10C270474AB105D1F3
:101F400000F0010249085FEA3000704700220023D8
:101F5000704700F047BD0B000200002100207047D1
:101F6000F7D3002200237047904271EB030CF2D3A9
:101F700070B5B1FA81F4B3FA83F52C1BA340C4F118
:101F8000200532FA05F63343A2405FF00046E640F2
:101F900002E05B085FEA3202841A71EB030524BF9A
:101FA000204629467641F4D302000B003000002180
:101FB00070BD70B5B1FA81F4B2FA82F5C4F12004B3
:101FC0006419B4F12006DAD3B2405FF00044F44063
:101FD000002502E052085FEA3303C61A71EB020ED5
:101FE00024BF3046714664416D41F3D302000B00BB
:101FF0002000290070BD704701484068704700BF4D
:102000002C1000200901020002D439488154704785
:10201000384B02F00F021A4402F8041C704736498C
:102020000A6860F30A2240F2FA5060F31F420A6025
:10203000704770B5304B1C68C4F302230124C3F110
:102040000705052D2EBF0F2504FA05F56D1E1E1D73
:10205000072E34BF0023DB1E2940994004FA03F306
:10206000BDE870405B1E1A401143CBE7010007D466
:10207000012200F01F01214B8A40400943F8202033
:10208000704701000BD4012200F01F011C4B8A4055
:10209000400943F82020BFF34F8FBFF36F8F704785
:1020A000401EB0F1807F01D3012070471549164AC8
:1020B00048600023F02010708B600720086000202B
:1020C0007047010007D4012200F01F010F4B8A4026
:1020D000400943F820207047010007D4012200F096
:1020E0001F010B4B8A40400943F820207047000035
:1020F00000E400E018ED00E00CED00E000E100E09D
:1021000080E100E010E000E023ED00E000E200E00C
:1021100080E200E0002200F067BC7047DFF81C138B
:102120000A68030903F47F2300019A4300F47F2027
:1021300000F081B9DFF804231368010C23EA01439E
:1021400043EA0043136070472DE9F8430546002435
:102150002878DFF8E8624106A0464FF0B04743D543
:10216000286B70B1B0F5800F06D0B0F5000F18BF26
:10217000B0F5400F2ED035E0F96841F48031F960B8
:1021800029E0386820F080603860FFF735FF81462D
:102190003868C00EC00707D5FFF72EFFA0EB090077
:1021A0000228F5D9032415E000F03CF9A86821F4D1
:1021B000781100F02FF981463868000106D4FFF746
:1021C0001BFFA0EB09000228F6D9EBE73969686923
:1021D000014339613CB93168286B21F44001014366
:1021E000316001E00124A0462868010532D5D6F807
:1021F0000880286C08F4407880452AD000F0AEFBB7
:10220000B8F1000FB16805D1286C21F44071014389
:10221000B1601EE0B06840F48030B06021F44071DD
:10222000B06820F48030B060286C0143B160B068C1
:10223000C0070ED5FFF7E0FE8046B068800708D4DF
:10224000FFF7DAFEA0EB080041F289318842F4D3AF
:102250000324A0462878C20705D53168A8698908F3
:1022600040EA810131602978880705D53168E8693D
:1022700021F44061014331602978C80644BFA86A4F
:10228000FFF758FF2878810644BFE86AFFF752FF3E
:102290002878410744BF286AFFF740FF28780107E4
:1022A00044BF686AFFF73AFF2868C20535D5316830
:1022B000686B21F0406101433160696BB1F1006FDF
:1022C00000F0A2F8686BB0F1806F26D1396821F078
:1022D000806100F0A4F804463868C00EC10707D535
:1022E000FFF78AFE001B0228F6D94FF0030814E01E
:1022F00000F098F8E86821F0606100F08BF804467F
:102300003868010105D4FFF777FE001B0228F7D9D2
:10231000EBE73969686901433961296888051CD58B
:10232000A86BB0F1804F18BFB0F1004F00D020B9BA
:10233000316821F04041084309E0316821F0404113
:10234000316020F08050326822F0406210433060EB
:10235000A86BB0F1C05F00F057F82868420538D587
:102360003168E86B21F0405101433160E96BB1F114
:10237000005F03D1F86840F48030F860E86BB0F19A
:10238000805F26D1396821F0806100F048F804466A
:102390003868C00EC10707D5FFF72EFE001B0228C4
:1023A000F6D94FF0030814E000F03CF8286921F05A
:1023B000604100F02FF804463868010105D4FFF7AA
:1023C0001BFE001B0228F7D9EBE739696869014356
:1023D00039612968C80405D5F168686C21F4404169
:1023E0000143F160296888040BD5796AE86C21F013
:1023F000300101437962796AA86C890840EA810159
:1024000079624046BDE8F28303D1F86840F08070FD
:10241000F860704701433961396841F08061396083
:10242000FFF7EABD3869696820F4FE4040EA012000
:102430003861396970471043086070478800005858
:10244000644900E0644981B00A6802430A6009688F
:1024500008400090009801B0704710B500F086FA6F
:1024600000F0DCFA00F045F800F080F85B4C5C48C6
:10247000606204F1240000F009FC0420FFF7E2FF91
:102480000120FFF7DFFF0220FFF7DCFF0420FFF74A
:10249000D7FF0220FFF7D4FF0120FFF7D1FF002272
:1024A0000F210B20FFF7C5FD0B20FFF7DFFD0022FA
:1024B0000F213A20FFF7BDFD3A20FFF7D7FD49482D
:1024C0002060002147F6FF700F22E0606160A2608B
:1024D0002161A161E1616161204600F00FFC0022F1
:1024E0000021204600F07DF900F0ACFA00F05FFB1F
:1024F000FCE780B59AB0482108A8FFF70BFE1C2125
:1025000001A8FFF707FE00F029FA3748016821F01B
:102510001801016001213548026861F34A22026016
:102520004FF48031006800F4C06000900720009AEA
:10253000099101224FF480710A920B910890402278
:1025400000210C92139108A8FFF7AEF86F2002212A
:102550000190029100220392049205920692079242
:10256000012101A8FFF7F9FA1BB000BD80B594B0B6
:1025700050216846FFF7CEFD4FF440524FF48041A2
:102580000092119102221021129213916846FFF7D6
:10259000DBFD15B000BD10B5154C164820604FF49A
:1025A000E1310C20606100224FF40040E06100F056
:1025B00023F82046FDF7C2FD0021204600F064FC10
:1025C0000021204600F06BFC2046BDE8104000F0E2
:1025D0003DBC0000480000584C000058AC140020DE
:1025E000000C0058002800409000005800040058DB
:1025F00008130020003801406160A260E26022619F
:10260000A26122626262A262704770472DE9F04FB8
:102610000024DFF89881664E4FF00F0902460B4602
:1026200031E0644FBA4214BF4FF0070E4FF0040E72
:102630000EFA01F141EA050E5F4941F82CE0C7436B
:1026400031685D683940ED0248BF0143316071680F
:102650005D683940AD0248BF01437160D8F8001091
:102660005D683940ED0348BF0143C8F80010D8F851
:10267000041007EA010C5968890348BF40EA0C0CB2
:10268000C8F804C0641C186830FA04F100F07D80BA
:102690000121A1400840F5D04FEA440C032505FA7A
:1026A0000CF56FEA050E5D6805F00307012F1CBFEE
:1026B00005F00305022D10D19568DF680EEA0505C7
:1026C00007FA0CF73D439560556825EA01015D68FE
:1026D000C5F30015A54029435160A1001D7905F0FF
:1026E0000305032D1ED0D5689F680EEA050507FA7D
:1026F0000CF73D43D5601D7905F00305022D11D17E
:10270000E50802EB850501F01C07D5F820B009FAB1
:1027100007FA2BEA0A0BD3F810A00AFA07F747EAE0
:102720000B072F6215680EEA05071D7905F00305F2
:1027300005FA0CF545EA070CC2F800C05D6815F40F
:10274000403F9FD01C4D4FEA940C55F82C5001F09F
:102750000C0109FA01F7BD43B2F1904F08BF4FF0E9
:10276000000E11D0154FBA4208BF4FF0010E0BD02A
:10277000134FBA4208BF4FF0020E05D0114FBA42B4
:102780007FF44FAF4FF0030E52E7BDE8F08F0AB170
:1027900081617047816270470B4A136801460B42A2
:1027A0001CBF116000F009BA704700008008005893
:1027B00000080058001000480800014000040048CC
:1027C00000080048000C00480C0800588A60FF21EF
:1027D0000268516280F82130002180F8201000202A
:1027E0007047F8B53E4E034630684FF47A7540099D
:1027F0002C46B0FBF4F46C43009493F820000128BD
:1028000001D10220F2BD012083F82000022783F8C5
:102810002170CA201C686062532718684762FF2431
:102820001F68B868400507D50098401E00900098C2
:10283000F0B1F8684007F7D4B86820F48060B86059
:102840001868C76807F0800767F49067C76030684A
:1028500040092E46B0FBF6F6754300951D680098BA
:10286000401E0090009818B1E8684607F7D506E0CA
:1028700018684462032100F023F80320F2BDA86821
:10288000C008C000A860186885682A43826018687C
:1028900041611148016841F4002101600F4802685C
:1028A00042F4002202601868816841F4804181602E
:1028B000186800F00BF81868446200F001F8F2BDE7
:1028C00083F82110002083F820007047816841F4CC
:1028D000806181600121704780080058000800581D
:1028E0005810002090F82010012901D102207047D3
:1028F000012180F82010022380F82130CA210268CB
:102900005162532301684B62012301688A6842F0D7
:102910002002FFF75BBF000070B50F4E0446307811
:102920000025A8B1FFF736FA32784FF47A71B1FB7F
:10293000F2F2B0FBF2F0FFF7B3FB48B9102C07D26C
:10294000002221464FF0FF30FFF773FBB46000E038
:102950000125284670BD00BF2C10002002480168E8
:1029600041F480710160704700040058164810B5AA
:10297000016841F4807101600320FFF750FB0020E3
:10298000FFF7CAFF0024002814BF0124FEF7A1FBB3
:10299000204610BD0D48806870470C48007870478D
:1029A0000B480BE00A48016821F002010160704702
:1029B0000748016821F00401016070470168490877
:1029C0004900016070470000004000582C100020B2
:1029D000042004E0DFF80800006800F4C0607047DD
:1029E000000400587047000000B500BF1300964671
:1029F0009446103928BFA0E80C50FAD85FEA417C11
:102A000028BF0CC048BF40F8042BC90728BF20F8D6
:102A1000022B48BF00F8012B00BD000080B58A4A98
:102A20004FF400411160002000F08CFA48B1807929
:102A30008649874A0A600B6823F47C5343EA0023E3
:102A40000B6001BD18B58348834C89B0016841F023
:102A500050010160CA228148C2615321C161FF2136
:102A60000268D208D2000260C1617D48026842F467
:102A70000042026000F07AFA7A480268042161F3A9
:102A8000020202600020784900F0D1FB00F055FD01
:102A90000121012000F077FA002000F011FE012052
:102AA00000F00EFE022000F00BFE012000F02AFED6
:102AB0000121002000F040FE0121012000F03CFE39
:102AC0000121022000F038FE0FF2F9030122214615
:102AD0000020FEF79FFD00F087FE04F1080000F0E3
:102AE0007DFF0FF2790200214FF4807001F049F868
:102AF0005E4C5F490FF23502009104F23C500290A7
:102B00000192684600F0CAFE04F5C961049104F21E
:102B10005470039040F23C510691059403A800F0D4
:102B2000F6FE00F05FFE0AB010BD00001FB50446BF
:102B30002146504800F05EFF607AFF2804BFB4F8D9
:102B40000B00B0F5124F07D1684601F092F8002152
:102B50004FF4807001F023F81FBD000080B500F035
:102B600085FD0021012000F00EFA6946414800F081
:102B700057FF009800F0E4FE01F0BCF801BD38B545
:102B80000446FFF739FA14F1010F054609D0FFF7A3
:102B900004FF241805E03848016821F004010160B1
:102BA00030BFFFF729FA401BA042F4D331BD4FF0EC
:102BB000FF3000F047BF00F0FCB9102808BF01F05B
:102BC0002DB97047F8B52D4C234E04F58075288833
:102BD000B0F5807F28D231780D2922D117A1204667
:102BE00001F082FA04F5827708B925480DE014A1B6
:102BF000204601F079FA10B94FF0B05005E011A16C
:102C0000204601F071FA20B91E486860384601F08C
:102C100075FA002028804FF480712046FFF77AFA79
:102C200002E02154401C2880314601B0BDE8F0404C
:102C3000154B01220020FEF7EDBC00005357310078
:102C40005357320053573300104000589C0000582F
:102C5000FECAFECA90080058EC1500200828004063
:102C60000800005880040058AC1400201480032091
:102C7000FF3D0008F415002010ED00E05C1000207E
:102C80000400001601000016C52B0008F8B5044624
:102C90000025ACB104F13406307910B92046FEF7B6
:102CA00027FA0F4F384600F021F8386840F001103D
:102CB0003860204600F007F835600121317100E0EE
:102CC00001252846F2BD10B50021064A064B00EB4F
:102CD0008104491C06296360E261F8D310BD00003D
:102CE000000C00581B210008F71F0008002101609C
:102CF0004FF03F1242603F238360704738B50400B5
:102D000001D1012032BD94F8210028B9002184F8B6
:102D100020102046FEF799FA022084F8210020684E
:102D2000C168CA0637D4CA21416253202268506262
:102D300000F036F801001AD12168DFF898008A689F
:102D400002408A6022689368606821690343A06931
:102D50000B43034393602068E168016120680169C7
:102D6000A26841EA02410161204600F059F80100E1
:102D70000BD12168CA6C92089200CA642368DD6C8A
:102D8000E16962690D431543DD64FF212268030098
:102D9000516204D100E00020012184F8211032BDED
:102DA00020461BE038B504460B482168C860FFF791
:102DB00023F905462068C168880608D4FFF71CF986
:102DC000401B40F2E9318842F4D3032032BD002099
:102DD00032BD0000BFFF8FFF5FFF010070B50446EA
:102DE00000252068C1684A0618D4C16841F08001F6
:102DF000C160FFF701F906460AE0FFF7FDF8801B06
:102E000040F2E931884203D3042084F821000125EF
:102E10002068C168480601D42800EED0284670BD5D
:102E200038B5044600252068C16821F08001C160E2
:102E300020688168880607D42046FFF7B3FF18B1E1
:102E4000042084F821000125284632BD10B500F188
:102E500084010A78012A01D1022010BD01220A70E2
:102E600024234B60026813681468640864001460CB
:102E70000022426623F000530068036020224A606B
:102E800000230B70002010BD70B500F01FF801D1B9
:102E9000022070BD00F020F822F0604209E070B519
:102EA00000F014F801D1022070BD00F015F822F0F6
:102EB000606211438160204600F01CF820680660C3
:102EC0002021696000222A70002070BD044604F1B0
:102ED00084052878012870470120287024226A6020
:102EE0002068066802685208520002602068826802
:102EF0007047000030B5416E11B90122012114E084
:102F0000026800BF0BA49168D2F808200BA3490EF9
:102F100001F00701520FA55C645C9A5C595CED00FE
:102F2000E40095FBF2F294FBF1F1683042800180FD
:102F300030BD000001010103070100000804020484
:102F40000801010120B501460648074D00E0083898
:102F5000C2798A4218BFA842F9D18A4218BF00201C
:102F600020BD00BFF873FF1F0070FF1F1F48002126
:102F700001604160704710B500F00FF81C6800F068
:102F800011F81C6006E010B500F007F85C6800F06E
:102F900009F85C6082F3108810BDEFF3108272B6FE
:102FA000124B704719B1012902D104437047844381
:102FB000704738B5EFF3108472B60C490C4D0868B1
:102FC00020B1296888476A6890470AE0486820B1BC
:102FD000A8688047E968884703E0286980476969ED
:102FE000884784F3108831BD000000000C160020D3
:102FF000044B0008DFF804150A6892B200E00246AC
:10300000086880B28242FAD17047F0B5DFF8F05418
:10301000DFF8F0342E78182204465443B0421C44A2
:1030200004D128786870627D2A700FE0267D607D6B
:1030300094F815C003F115075643062807F806C093
:1030400004D0267D143312FB00F29E54012020731D
:103050002A78062A02BF00294FF0FF30E860F0BD51
:1030600010B5DFF89C44E06810F1010F0ED0FFF7B7
:10307000C1FFE16881422FBFE268E168E2888A18F7
:103080002179101AE2784843D04000E0002080B255
:1030900010BD2DE9F047DFF87084DFF87004D8F830
:1030A000006001684A0502D5F0684107FCD4B068A9
:1030B000DFF84C74DFF84CA420F48060B0604FF06F
:1030C00018093D780AF1080019FB05F14458FFF78B
:1030D000C7FF844202D20024012105E0398941184A
:1030E000A14203D23C890021B97013E00122241AC5
:1030F000BA700FE019FB05F50AF108035F59874222
:1031000026BF5959091A00210AF1080251510AEB48
:1031100005014D7D062DEDD1DFF8E473A0B238B97D
:10312000FFF768FFF8600320BDE8F047FEF7C9BF6E
:10313000022802DAF878012800D0641EF0684107FE
:10314000FCD5F06800F06CF8F06000F029F9DFF8C9
:10315000BC03C16864F30F01C160FFF74BFFF86067
:10316000D8F80000816841F480618160AFF300808D
:10317000BDE8F0872DE9F843EFF3108472B6DFF86D
:103180008853DFF880332A68CA2050625321516285
:103190009068DFF86C1320F48060906018200E783F
:1031A000374647431F4497F80CC0BCF1020F26D1A5
:1031B000D7F80080D7F810908878E8B17A7B012A98
:1031C0000AD101213046FFF720FF84F31088796887
:1031D000304600F0EBF804E084F31088304600F04D
:1031E0009FF82868CA214162532242623146424612
:1031F000484600F091FF0EE0FFF74BFF09E0D06872
:103200004107FCD5D06800F00BF8D0604FF40020E7
:10321000086084F31088FF2228684262BDE8F183C9
:10322000DFF8EC1200F0800060F490607047F8B5B1
:10323000B54CB64D2168CA224A6253234B624FF601
:10324000FF7C2A6842F020022A602A68AB68AD68D9
:103250001B0C03F07F03C5F30E055B1C6D1C6F1E7A
:103260001E4602F0070216FB07F6C2F10402A6F59D
:10327000A076D640A24F66452CBFA7F808C03E8175
:10328000FA703B71FD80A34A136843F40023136076
:10329000A14B1D6845F400251D6070BB0120B8706E
:1032A0004FF0FF31F96000209649002301F10C0432
:1032B00018255FFA80FC15FB0CFC401CC6B204F814
:1032C0000C30062EF5DB062038708F4C20688168A4
:1032D00021F480618160C16801F0800161F4906136
:1032E000C16003204FF40021D160FEF7F5FE206895
:1032F000816841F48041816005E0C868410544BFB0
:103300000320FEF7DEFE2168FF2048620022032131
:103310000320FEF78EFEBDE8F2400320FEF7A6BEB6
:10332000F8B50446EFF3108572B60320FEF7A9FE48
:10333000754E7A493768CA2078625323224618208E
:103340007B6242438B5C022B21D100212046FFF798
:103350005CFE6B480178062914D16C4801684A0567
:1033600002D5F8684107FCD4B86820F48060B860E2
:10337000F8684107FCD5F868FFF752FFF86000F0E5
:103380000FF804E04078884218BFFFF782FE3168EA
:10339000FF2048620320FEF769FE85F31088F1BD27
:1033A0004FF4002008600320FEF796BE2DE9F84F89
:1033B00004468A4618252146524E69437718387BC1
:1033C000022804BF2046FFF7ABFFEFF3108872B668
:1033D0000320FEF756FEDFF83091D9F80000CA212D
:1033E00041625322426202203873C7F808A0C7F82E
:1033F00004A0DFF80CA19AF80000062808D100F01C
:1034000075F878754FF0FF31CAF80C10002056E0BF
:10341000FFF726FEB9680918B96006F10803B96814
:103420009AF800206A439A5891422AD39AF80020C9
:1034300004E006F1150E6A431EF8022006F115039A
:1034400015FB02FC13F80C30062B06D006F1080C15
:103450006B435CF803309942EBD21146694306F1A5
:10346000150E1EF80130062B05D006F1140C15FBC5
:1034700003F50CF805407B753A7506F115025454B6
:103480001DE09AF800109AF800C0614515FB01F2A2
:103490000FD006F1140B06F1150C1BF8023015FBCA
:1034A00003F50CF8054079753B7506F114018C5451
:1034B00003E006F1140379759C5400F017F89AF8AC
:1034C00000109AF801208A4202D0FFF7E2FD02E0E4
:1034D000B968081AB860FF20D9F8001048620320C4
:1034E000FEF7C4FD88F31088BDE8F18F9AF800104C
:1034F0008AF801108AF80040704700002828004030
:10350000FC1500209C130020AC140020082800406B
:103510000C0800580008005880080058A813002024
:103520004B4900E04B4981B00A6802430A600968D0
:1035300008400090009801B07047F8B58AB0142197
:1035400005A8FEF7E7FD0022079203214FF4604231
:10355000069105920120FFF7E3FF05A94FF0904087
:10356000FFF754F83A4D3C4C296849084900296056
:103570001820059000260220FFF7D2FF05A900F0D1
:1035800072F8286820F0020028600025FFF708FA8A
:10359000FFF708FAFFF70CFA14216846FEF7BAFDA8
:1035A000002700212D4A02EBC102907980B11368F7
:1035B000B3F1904F0AD0A34205D02948834207D1E6
:1035C0009088074304E09288164301E09088054301
:1035D000491C2629E6DB0121019100200322290054
:1035E0000290039211D000950120FFF799FF01206E
:1035F000FFF798FF69464FF09040FFF707F8002269
:1036000029464FF09040FFF7C2F830000DD00096E9
:103610000220FFF785FF0220FFF784FF00F022F869
:10362000002231462046FFF7B2F838000ED000974E
:103630000420FFF775FF0420FFF774FF084C00F02B
:1036400011F8002239462046FFF7A1F80BB0F0BD73
:103650004C0000584C01005800040048AC460008DB
:103660000008004869462046FEF7D0BF00B587B085
:103670004FEA0D0005A11C2200F050FD00F07DF97D
:10368000684600F0E7FA07B000BD00000000000047
:103690000000000000000000AC460008008003208D
:1036A0000480032026040400464981B00A680243CE
:1036B0000A60096808400090009801B07047000057
:1036C00078B585B0044600F078F80220FFF7ECFFEB
:1036D0003FA13D4E31F81450009501210191002287
:1036E000022102920391694656F82400FEF78EFFEC
:1036F00000F002F806B070BD56F8240000222946FA
:10370000FFF745B810B500F00FF8BDE810400122F2
:10371000FFF73DB810B500F007F8BDE810400022F3
:10372000FFF735B80000000029A4274B34F810102B
:1037300053F820007047000030B585B004460D46B0
:1037400000F03BF8200008BF042004D0012C18BF73
:10375000022C02D10820FFF7A7FF2900DFF86C2018
:103760001DA00ED1002130F814000191009001231A
:1037700002210293039100F01BF80120FFF7FFF9EB
:1037800014E0012D12D130F8140000904FF404130E
:103790000295019300F00CF811A0045D00220F21A6
:1037A00060B2FEF746FC60B2FEF760FC05B030BDCB
:1037B000694652F82400FEF729BF1421002268460A
:1037C00000F0B8BC4C000058381000204410002015
:1037D00020000100020000001000010002000000B3
:1037E0000A06070000F031BD72487349016001F11B
:1037F0002002426001F13003836001F14002026265
:1038000001F14803436201F15002C26001F1580323
:10381000036101F17402426101F178038361843133
:10382000C16100F030BD38B50446644D284600F053
:10383000D5F860494868A1680160E2686049C260E3
:103840004160856000F03BFD5E4835E080B5594839
:103850004268136801211972406800F038FD0020A9
:1038600002BD38B5574C554D04E000F04CF80098B7
:1038700021688847284600F0B4F80028F5D031BD0B
:1038800080B54C484268D36802211972406800F044
:1038900023FD002002BD4B494868004738B5044667
:1038A000494D284600F09AF84249C868A16801606D
:1038B000456000F01CFD4548216801606268426077
:1038C000002032BD80B53B48C268136810211972D0
:1038D000C06800F017FD002002BD36483B4AC168B1
:1038E000C36811681868084738B5384C364D04E08D
:1038F00000F009F8009861688847284600F071F8E0
:103900000028F5D031BD6946284600F089B838B5A1
:1039100004462F4D284600F061F82E4800F05EF86E
:1039200024480069A1688160E268C260056121687D
:10393000016062684260216941616269826131BDF2
:1039400080B50146234800F055F8BDE802400FF26B
:10395000090000F0E5BC000038B5164C1D4D06E02E
:10396000FFF7D1FF00992069006900F043F828466D
:1039700000F037F80028F3D031BD10B5164C2046C2
:1039800000F02CF80B4948690460BDE8104000F0D5
:10399000E0BC1CB5104C06E06946204600F040F83B
:1039A000009800F0F1FC204600F01BF80028F3D04E
:1039B00013BD000000000320988A0320388B0320E9
:1039C000888A03201C160020408B03202416002028
:1039D000288B032014160020308B032000604060E9
:1039E0007047EFF3108172B6026882420CBF01206B
:1039F000002012E0EFF3108272B6086043684B605B
:103A00004160486801601AE0EFF3108172B64268C5
:103A10000368136002684368536081F3108870473D
:103A200010B5EFF3108472B602680A600168FFE710
:103A30000846FFF7E9FF84F3108810BD0B6082F39E
:103A4000108870472DE9F84F764CDFF8DC91256936
:103A5000284020614FF0FF3AA06800904FF0010B22
:103A60006669E768D4F8188019E062680BFA01F11A
:103A700022EA01016160666880476068064066600E
:103A8000E06900F082FCA06800906669E768D4F8FD
:103A90001880E169206A0BFA01F10843206200985E
:103AA00022693840104250D016EA080F4DD100204C
:103AB00007EA020100E0401C54F830301942FAD005
:103AC00054F8301004EBC003394058680A401042E3
:103AD00008BFC3F804A0A068D4F820C059686CEAF5
:103AE000010C20EA0C0012EA000118BF0A4608B9CE
:103AF0004FF0000C5868C4F820C0104000F096F851
:103B0000E061EFF3108172B60BFA00F2A068D243C5
:103B10001040A060012004EBC003401E53F808CC05
:103B200002EA0C0C43F808CCF5D181F31088E06967
:103B300000F02CFCE169202903D259F8210000286B
:103B400093D1002000F023FCA9E7C4F81CA0A069D1
:103B5000064213D100F01CFCEFF3108672B6A26887
:103B60006169E068236902401A4202BFA06901420C
:103B7000FFF721F886F3108800F00BFC2561BDE803
:103B8000F18F38B5144600F006F8274941F8204077
:103B900085F3108831BDEFF3108572B646E030B57D
:103BA000EFF3108272B61F4B9C6804439C6053F87D
:103BB0003150284343F8310082F3108830BDD06083
:103BC00081F310887047EFF3108172B6154A53697C
:103BD00018435061F4E72DE9F041124DEE690446B7
:103BE000374616F1010F0EBF0026012000FA06F637
:103BF000D5F81880AC6103E02146304600F0CAFBDE
:103C000068692042F8D0EF61EFF3108072B66969FD
:103C100021EA04046C6180F31088C5F81880BDE8BF
:103C2000F0810000081000202C140020B0FA80F071
:103C3000C0F11F00C0B2704700F015FA9DF80E00E9
:103C400005B000BDF8B500F10C026B462F214FF610
:103C50006640F1E7F8B500F10C026B460F214FF614
:103C60006840E9E7F8B502466B4610214FF675400B
:103C7000E2E7F0B51C491D4B0A681D49C2F30D026D
:103C800001EB82010D682A689A4205D16969AA6927
:103C9000EB69EC682D6905E02E4631697269B369FC
:103CA0007468B5680E0E06700F0C47700E0A8670A9
:103CB0000272C1F3031601F00F010171C670110EFB
:103CC0004171160C110AC171220C210E8172C2724F
:103CD000240A290E2A0C867143720473417382737D
:103CE000C5730020F0BD00003C400058B95646A9FD
:103CF0000000032018B597B06C4600200021002278
:103D0000002384E80F0008A8DFF8AC13DFF8AC4309
:103D10003C2200F003FA2068DFF8A4430FF22D32B2
:103D200004924FF6FC7101EA8001DFF89803411814
:103D3000E160DFF89403069000F58671079104A80E
:103D40000FF221310591FFF76EFD01210220FFF7EF
:103D50001AF901210220FFF70EF90020E070A0708F
:103D60000F208DF80000DFF864030168090CADF83E
:103D70000C100068C0F30B00ADF80E006846FFF7AA
:103D800071FF08B1FEF741FC08A8FFF75BFF08B11F
:103D9000FEF73BFC0FF22D1200210820FFF7F1FE89
:103DA000DFF82C2300210120FFF7EBFE0FF2990230
:103DB00000211020FFF7E5FEC64A00210220FFF790
:103DC000E0FEC54A00210420FFF7DBFE0120607001
:103DD0000021A16004F11800FFF700FEFEF7DBFBF5
:103DE00004F1100000216060217001220FF22913FC
:103DF00004F110010020FDF70DFC18B010BD80B5D6
:103E0000AF4A917831B1002393700120BDE80240A0
:103E1000FFF7D9BE014602F118001BE110B5A84C0E
:103E2000E07830B90120FFF775FC0121E170002135
:103E300005E00120FFF766FC0020E0700121BDE8ED
:103E400010400220FFF797B838B5EFF310849C4D6F
:103E50006878012835D100226A7005F1080105F162
:103E60001800FFF7DDFDA868E978A9B9007A0FF21C
:103E7000A913022872B6A86804D1B0F80B20521D0D
:103E800092B201E0827AD21C00F108010020FDF715
:103E9000CCFB84F3108831BD0121EA686970116997
:103EA0008A68904205D3C9681144884238BFFFF739
:103EB00047FD05F11800FFF794FD10B9BDE8344047
:103EC000CCE031BD10B5854CB4F809004FF6605216
:103ED000811A04D0491E06D0491E08D00BE02046A6
:103EE00000F05CFA11E0204600F096FA0DE0204662
:103EF00000F0B7FA09E0A0810E210120A073E07262
:103F00006172212020720420A07221467448FFF7BC
:103F100071FDBDE81040A1E0F8B5694D69682A78E7
:103F2000002400201AB1022A64D013D358E0097883
:103F3000012905D0022907D0102918BF202907D14F
:103F40000120287003244BE001202870042447E05E
:103F5000012445E00E78E868022E11D0102E02D020
:103F6000202E03D01CE0CC78C0681BE0CC785B49E5
:103F700005F1100001F10807026841F8082F18E068
:103F80004068CA780979C36802EB012403F1080785
:103F9000052205F11001384600F0C0F8052009E0BF
:103FA000CC784068016805F1100001F1080701684C
:103FB0003960042021006F6002D002222A700FE0D5
:103FC000022E25D0102E1DD0202E1ED00021012023
:103FD000FFF7E5FD002005F110012870012469605C
:103FE000224601B069683F4BBDE8F0400144002023
:103FF000FDF710BB087802280AD0102802D020282C
:1040000003D0E3E700210220E2E700210820DFE7F8
:1040100000210420DCE7000010B5294CE1680120F4
:1040200060700969A0688A68904205D3C968114424
:10403000884238BFFFF784FC04F11800FFF7D1FC79
:1040400010B9BDE8104009E010BD000080B5014680
:10405000234800BFFFF7CEFCBDE80440002110203C
:10406000FFF79DBD704770B51446144A144E126890
:104070001D460123B3704FF6FC7303EA8203114A15
:10408000D3180A46DE683668A6F80900F17206F110
:104090000C00214600F042F800210020FFF712FC3E
:1040A0000120FFF798FD314605F10800B278BDE820
:1040B0007040D21C00F032B84C4900083C40005817
:1040C000CC1500200000032074880320002004E0A9
:1040D0004D380008C53800088138000868110020F4
:1040E000E4150020193F000810F8012B11F8013BDE
:1040F0000AB19A42F8D0D01A70470000006805490A
:10410000C0F300425201012300F01F0003FA00F047
:104110008850704708080058104700004AB1000056
:1041200011F8013B521E00F8013B1CBF11F8013B86
:10413000F8E770474018491C1CBFB1F1010100F8B5
:10414000012DF9D170470000C0680840884201D1B4
:104150000120704700207047C0690840884201D1A3
:10416000012070470020704710B57E4C0221204688
:10417000FFF7F2FF38B16068C043810703D5FFF74E
:10418000B3FB022018E001212046FFF7E5FF38B11C
:104190006068C043C10703D5FFF763FB01200BE054
:1041A00008212046FFF7D8FF38B16068C0430107F7
:1041B00003D5FFF7EEFB0820A06010BD10B5694CD9
:1041C00002212046FFF7C0FF70B96068C043820338
:1041D0000AD500F035F841F40031616080F31088B1
:1041E000BDE81040FFF779BB08212046FFF7ACFF80
:1041F00088B96068C04302030DD500F021F841F48E
:104200000021616080F310885749086880474FF4A7
:104210000022A26010BD20212046FFF795FF70B953
:104220006068C04382020AD500F00AF841F4001128
:10423000616080F31088BDE81040FFF72CBB10BD13
:10424000EFF3108072B661687047484881B001682A
:1042500041F480110160006800F480100090009823
:104260004348016841F4007101604248026842F429
:104270000072026040BF20BF3F48016841F4004126
:10428000016001B0704780B53C48016841F480117D
:104290000160006800F480100090009831480168C7
:1042A00041F001010160026842F4803202602C207A
:1042B000FDF7DCFEBDE802402D20FDF7D7BEEFF391
:1042C000108072B62E490A685208520016E02D4935
:1042D0004FF480300860704729484FF40011416066
:1042E000EFF3108172B6026822F4001214E0EFF3CB
:1042F000108072B622490A6822F002020A6080F336
:10430000108870471E484FF400314160EFF3108170
:1043100072B6026822F40032026081F3108870479E
:1043200038B504460F4D08212846FFF70DFF58B158
:104330000D480460EFF3108072B6696821F4002123
:10434000696080F3108831BDA0474FF40020A86059
:1043500031BDEFF3108072B609490A6822F00802F5
:10436000CCE70000000C00582C160020500100582B
:1043700020080058D40800580C0400585000005879
:10438000040C0058080C005870477047704770477D
:1043900070477047C043FFF755BB000070B5EFF39F
:1043A0001081027B012A02D0022A07D00DE000F022
:1043B00027F81B7800F01FF814700CE000F020F8CC
:1043C0001B8800F018F8148005E000F019F81B684D
:1043D00000F011F8146081F3108821210E2201727F
:1043E000427204214FF660528172828100210122C3
:1043F0008173C27270BD23EA040435402C437047B8
:1044000072B6D0F81120D0F81130D0F80D40D0F8A5
:104410001550D0F80D60704781B0017B012902D0A2
:10442000022904D007E0D0F80D10097806E0D0F892
:104430000D10098802E0D0F80D10096800912122C2
:1044400002720E2108228272417201224FF66151DE
:10445000C272002381818373009A40F80F2F01B04C
:10446000704738B52749284D096804464FF6FC7057
:1044700000EA81002D180E206072212121724FF672
:104480006250A0814221A1720020A0730121E1723B
:104490001E480168090CA4F80F100068C0F30B0057
:1044A000A4F811001A4801781A4801F01F01E174BC
:1044B000416821754168090AC4F815100168C4F8FB
:1044C00019100169C4F81D104169C4F821108169EF
:1044D000C4F8251004F12901286802680A600C223A
:1044E0002B68191D04F12D00FFF718FE2968102212
:1044F000103104F13900FFF711FE07480168C4F8D4
:10450000491031BD3C40005800000320002004E069
:104510000075FF1F8075FF1F104C000849490A688D
:10452000920840EA8200086070474648006800F040
:104530000C00704700EB81024349D2F880008842AA
:1045400001D0012070470020704780B500F09EF830
:1045500000F05AF83D481F2181610321026809E0FB
:1045600000F09CB880B500F091F800F04DF83748A5
:104570000268022161F3020202603548016841F0DD
:104580000401016030BF01BD38B5324C4FF4806585
:10459000256100F02CF80028FBD14FF0B040816875
:1045A00001F00C0104291DD1016841F48031016042
:1045B00001212948026861F302020260036803F0E6
:1045C0000703012BFAD14FF0B04001688903FAD5F7
:1045D0000221826861F301028260816801F00C01AE
:1045E0000829FAD1E560BDE8314000F057B8032151
:1045F00020469FE780B500F049F81548016821F092
:104600000401BEE700F04AB870B5124CFFF7EFFFA7
:104610000028FBD10421FFF7EBFF0F4D4FF480661C
:1046200038B90E480168090402D40068400506D56F
:10463000266100F015F82868C008C0002860E66010
:1046400070BD0000080000580004008000040058FD
:1046500010ED00E000140058004000588804005895
:1046600010B54FF0B044206840F48070206020689E
:104670004105FCD50120FFF751FF606A80088000EA
:104680006062FFF752FF0428FBD110BD02480168A9
:1046900021F002010160704710E000E0024801686B
:1046A00041F002010160704710E000E000000048A6
:1046B0000100000000000048010000000000004868
:1046C0000100000000000048010000000000004858
:1046D0000100000000000048010000000000004848
:1046E0000100000000000048010000000000004838
:1046F0000100000000000048010000000000004828
:104700000100000000000048010000000000004817
:104710000100000000000048010000000000004807
:1047200001000000000000480100000000000048F7
:1047300001000000000000480100000000000048E7
:1047400001000000000000480100000000000048D7
:1047500001000000000000480100000000000048C7
:1047600001000000000000480100000000000048B7
:1047700001000000000000480100000000000048A7
:104780000100000000000048010000000000004897
:104790000100000000000048010000000000004887
:1047A0000100000000000048010000000000004877
:1047B0000100000000000048010000000000004867
:1047C0000100000000000048010000000000004857
:1047D000010000000000004801000000010000008E
:1047E00003000000050000000100000001000000BF
:1047F000060000000A000000200000000200000087
:10480000040000000800000010000000400000004C
:10481000800000000001000000020000A0860100EE
:10482000400D0300801A060000350C0040420F00C6
:1048300080841E0000093D0000127A000024F4006C
:1048400000366E010048E801006CDC020000000048
:1048500000000000000000000000000013490020DC
:1048600008604FF0B0411248026842F470020260E2
:104870004FF4E023086840F0010008608B600A688C
:104880000C4802400C480A60036823F005030360EB
:10489000426852085200426000220848C86008611D
:1048A000086820F4802008608A61704708ED00E005
:1048B00088ED00E0FBFEF6FA940000580010042298
:1048C0007047FEE7FEE7FEE7FEE770477047704778
:1048D00000F026B8FEF74EBC0848FCF7DFBD0848DC
:1048E000FBF7F1BC0748FBF7EEBCFFF73DBCFFF759
:1048F00065BC00F01DB80448FCF7D0BD0C150020C5
:1049000008130020741200206C1500201020FDF701
:1049100043BF0120FDF740BF0220FDF73DBF00006F
:104920000248416802788A18426070472C100020C3
:104930000449C8680A6882430A60486000F004B805
:104940000000000000150058704700000000000043
:104950000000000000000000000000000000000057
:10496000440008004005080112599C00F4010000B1
:10497000FFFFFFFF480101180020D8060008CF0004
:10498000000000000D00040030B4002512E050F8D3
:10499000042BD30744BF4A44521E091F042942F87E
:1049A000045BFAD213468C0744BF15809B1CC907D1
:1049B00048BF1D7050F8041B0029E8D130BC704777
:1049C00010B500F013F8020000230024E44310683F
:1049D000A04203D011000220ABBE13605068A04279
:1049E00003D0111D0220ABBE536010BD00487047BC
:1049F0005010002010B5074979441831064C7C440A
:104A0000163404E00A68081D114488470146A14293
:104A1000F8D110BD2C000000680000004EF688514F
:104A2000CEF20001086840F470000860BFF34F8FB9
:104A3000BFF36F8F4FF00170E1EE100A7047000076
:104A400049FFFFFFDC0500005C100020840A000025
:104A5000148003200000000093CBFFFF140000002F
:104A6000BC00000000800320000000007FCBFFFF9F
:104A700054000000A0010000081000200000000009
:104A80000000000000000000000000000000000026
:104A9000010000000200000003000000040000000C
:104AA00000F00DF8002801D0FFF7A4FFAFF300805D
:104AB0000020AFF30080FDF7D0FC00F002F80120E9
:104AC000704700F001B800000746384600F002F8D1
:104AD000FBE7000080B5FFF773FF024A11001820C2
:104AE000ABBEFBE7260002000548014603B468465A
:104AF00080F30988AFF30080FFF790FFFFF7D0FF46
:104B0000A5EDF5FEF54500080546000865450008D9
:104B1000894500084B450008614500080000000079
:104B20000000000000000000000000000000000085
:104B300001488047014800475D480008E94A0008ED
:104B4000FFF7FEBFFFF7FEBFFFF7FEBFFFF7FEBF99
:104B5000FFF7FEBFFFF7FEBFFFF7FEBFFFF7FEBF89
:104B6000FFF7FEBFFFF7FEBFFFF7FEBFFFF7FEBF79
:104B7000FFF7FEBFFFF7FEBFFFF7FEBFFFF7FEBF69
:104B8000FFF7FEBFFFF7FEBFFFF7FEBFFFF7FEBF59
:104B9000FFF7FEBFFFF7FEBFFFF7FEBFFFF7FEBF49
:104BA000FFF7FEBFFFF7FEBFFFF7FEBFFFF7FEBF39
:104BB000FFF7FEBFFFF7FEBFFFF7FEBFFFF7FEBF29
:104BC000FFF7FEBFFFF7FEBFFFF7FEBFFFF7FEBF19
:104BD000FFF7FEBFFFF7FEBFFFF7FEBFFFF7FEBF09
:104BE000FFF7FEBFFFF7FEBFFFF7FEBFFFF7FEBFF9
:104BF000FFF7FEBFFFF7FEBFFFF7FEBFFFF7FEBFE9
:104C0000FFF7FEBFFFF7FEBFFFF7FEBFFFF7FEBFD8
:104C10000001000000000000000000000000000093
:104C2000FFFFFFFFFFFFFFFF00000000000000008C
:104C30000000000000000000010000000000000073
:104C40001000000000040048000400480004004870
:104C500000080048000C0048000C0048FFFFFFFF60
:084C6000FFFFFFFF00093D000A
:0400000508004AE9BC
:00000001FF
