:020000040800F2
:100000000810002089B70008E9B10008EBB100082A
:10001000EDB10008EFB10008F1B1000800000000E8
:10002000000000000000000000000000F3B1000824
:10003000F5B1000800000000F7B10008F9B10008B0
:10004000EDB70008F1B70008F5B70008FDB10008EA
:10005000F9B70008FDB700083BB2000801B8000876
:1000600005B8000809B8000835B200080DB8000846
:1000700011B8000815B8000801B2000819B8000846
:100080001DB8000821B8000825B8000829B80008E4
:100090002DB8000831B8000835B8000839B8000894
:1000A0003DB8000841B8000845B8000849B8000844
:1000B0004DB8000851B8000855B8000859B80008F4
:1000C0005DB8000861B8000865B8000869B80008A4
:1000D00007B200080DB200086DB8000871B800083A
:1000E00075B8000879B800087DB8000881B8000824
:1000F00013B2000817B200081BB2000885B8000848
:1001000089B800088DB8000891B8000895B80008B3
:1001100099B800089DB80008A1B80008A5B8000863
:10012000A9B80008ADB800081FB20008B1B80008AF
:10013000B5B80008B9B80008BDB8000840F0200004
:1001400070472DE9F14FB2B09A4601A891460023BD
:100150000691C0E900333C9A0F930DF14A011491C6
:100160004A7009E0329823464A4604A900F0B4FFD9
:10017000002800F12181A14499F80010252909D116
:1001800000200021002209900A910B920C910D92FF
:100190000E910FE001AA4FF0FF31484601F01EF822
:1001A000040002D10F9800F0F9BDDBD50124E2E78D
:1001B00041F0010119F8010F2028F9D023280CD0B3
:1001C0002B2804D02D2805D0302809D00BE041F091
:1001D0000201EFE741F00401ECE741F00801E9E733
:1001E00041F01001E6E72A280FD1DAF8002052F892
:1001F000040BCAF800200028119003D5404211904A
:1002000041F0040109F1010914E01192DFF8102B0B
:100210000AE0119B934205DA03EB830400EB4400F0
:100220003038119009F1010999F80000A0F130036C
:100230000A2BEED399F800202E2A03D04FF0FF307E
:10024000109029E019F8010F2A2809D1DAF80020C6
:1002500052F8040BCAF80020109009F101091BE0C4
:100260002D280CBF09F10109002000221092DFF8AF
:10027000B02A0BE040B9109C944205DA04EB8405E7
:1002800003EB4503303B109309F1010999F8003065
:10029000A3F130040A2CEDD3ADF848100FF68420FA
:1002A00099F8001000F0A4FF08B119F8010B8DF8BF
:1002B0004A009DF84A00682805D199F8001068297D
:1002C0000CD1622006E06C2804BF99F800106C295C
:1002D00004D171208DF84A0009F1010922AA08927F
:1002E00019F801BBBBF125002DD01C3800F0278187
:1002F000001F022840F223810E382AD0401F00F050
:100300004784093800F01B81801E00F0DA84401E0B
:1003100000F08984401E022840F21181001F00F085
:100320008284401F00F08080401E00F03184401E17
:1003300066D0C01E21D0801E00F02A84C01E00F0AE
:10034000278400F0DDBC0122252109928DF8881058
:100350002AE06C228DF84A20DAF8000050F8042BCD
:10036000CAF80000002A44D11499487800283ED0E9
:100370004FF0FF340FF6B41012E09DF84A006C28DD
:10038000EAD0DAF8000050F8044BCAF800000794ED
:10039000D4B91499487898B14FF0FF340FF6A810EB
:1003A00000F036FF241A07D1329822AA04A900F0DF
:1003B000F8FC00287FF5E0AE4FF0FF3000F0EEBC17
:1003C0000FF6A0100790EFE7109D002D04D52046F2
:1003D00000F03EFF044608E02A460021204600F0D7
:1003E00041FF002814BF041B2C460A94DCE70FF6DB
:1003F0007812329804A900F05AFD0028D4D5DBE722
:10040000DAF8001051F8040BCAF8001020F00002CE
:10041000002121F0FF33CDE9042322AC0794782199
:1004200004A800F0A4FDBFE71499487820B14FF06C
:10043000FF340FF63810B3E79DF84A00622862D007
:10044000682819D06A2840D06C2806D071284DD071
:1004500074282DD07A281ED064E0DAF8001051F804
:10046000040BCAF8001020B94FF0FF340FF6141037
:1004700096E70F99016097E7DAF8001051F8040B3E
:10048000CAF8001020B94FF0FF340FF6F80087E7E4
:100490000F99018088E7DAF8001051F8040BCAF8C8
:1004A00000100028E5D14FF0FF340FF6D80077E7B1
:1004B000DAF8001051F8040BCAF800100028D8D15F
:1004C0004FF0FF340FF6BC006AE7DAF8001051F87D
:1004D000040BCAF8001020B94FF0FF340FF6A40047
:1004E0005EE70F9AD317C0E900235DE7DAF8001042
:1004F00051F8040BCAF800100028F2D14FF0FF3475
:100500000FF680004CE7DAF8001051F8040BCAF837
:10051000001020B94FF0FF340FF6680040E70F9944
:10052000017041E7DAF8001051F8040BCAF8001026
:1005300000289ED14FF0FF340FF6480030E7DAF87C
:100540000000C21D9DF84A0022F007024C28CAF89C
:100550000020D2E9000107BF0832CAF8002002F1EA
:100560000803CAF80030CDE90401C80F02D0099889
:100570002D210AE0BDF84800810702D509982B21FA
:1005800003E0C00705D50998202122AA1154401C78
:10059000099022A809994BF0200300EB010CDDE93A
:1005A0000401CDE92001612BCDF81CC015AC0BD0A6
:1005B0001098002848BF062105D404BF4BF0200046
:1005C000672801D101211091DDE904014F0047EABC
:1005D000D0777E15FF174FF0FF32974208BF964243
:1005E00014D1090341EA10510003002908BF002873
:1005F0000CD0ABF1610503211A2D0A9118D30FF627
:100600000C310322604600F059FECDE6DDE904011D
:100610004A00521512F1010F0DD108030BD1ABF1B5
:10062000610503211A2D0A911BD30FF6E821E8E793
:100630000FF6D421E5E7DDE904016A4600F04AFE41
:10064000CDE904014BF02000612811D10798302238
:100650000270811C0791BBF1610F0CBF78215821FA
:1006600002E00FF6AC21CCE741700998801C09909C
:10067000DDE9040120F0000231F0004308BF002A48
:1006800002D10026002546E14BF02008B8F1610FA9
:1006900040F092801099002947BF21200390491C07
:1006A0000391039FDDE920017F1C00220023DDE987
:1006B000044500F047FE38BF85F0004500988DF8EE
:1006C0005420001F002F00900DF1550632DD20460A
:1006D00029460022002300F04FFE2BD21C2200F0FE
:1006E00065FE04460D4600F0FFFEFF1F002F80460A
:1006F00009DD00F015FF02460B462046294600F0B2
:10070000D7FF04460D46F01D0721B8F1000F0CDDA0
:10071000491E5EBF08F00F0200F8012D4FEA2818AD
:10072000F3D502E0002200F8012D491EFAD5C61DBE
:10073000002FCCDC0DF15500361A03980DF155044D
:100740008642D8BF304600282FD4B04206DA0DF1D9
:1007500055010A5C082AA8BF0F2100DA00210246D1
:1007600015AB134400E0401E13F80159521E8D4290
:10077000F9D00F2904D10DF155018B5C5B1C8B5412
:10078000002A04D50099091D15AC401C0091411E9A
:100790000BD4621813783033DDB23A2DA4BF5B441A
:1007A0003A3B491E02F80139F4D5109A002A40F16B
:1007B000B080411E1091ACE00099DFF80C2947F29F
:1007C0009750414391FBF2F20092DDE92045C2F1DE
:1007D0000702002A25F0004504DD2046294600F0E6
:1007E00050FC0BE052420020DFF8E01800F049FC1A
:1007F00002460B462046294600F0CCFF04460D4633
:10080000B8F1660F06BF009F0A37062710983F18F9
:10081000142FC8BF142730208DF854000020DFF8B3
:10082000B018CDE920010DF15506002F33DD20462B
:10083000294601F0D3F801460A4606F108030420D0
:100840000A26B2FBF6F606EB860EA2EB4E0230321B
:1008500003F8012C0A22B6FBF2F202EB820EA6EBA1
:100860004E063036401E03F8026DE9D1083F002FD6
:1008700003F10806D9DD084601F0C2F802460B462E
:100880002046294600F014FFDDE9202301F0C6F8D8
:1008900004460D46CBE70DF15500361A0DF155040F
:1008A00004E00098401E761E0090641C20783028DA
:1008B000F7D0B8F1660F02D10098401C04E0B8F1FF
:1008C000650F0CBF01200020109940188642B8BF68
:1008D000701E00281DD4B04204DA215C3429C8BF40
:1008E000392100DC30210246631E9D1800E0401EC5
:1008F00015F80169521E8E42F9D0392902D1A15C46
:10090000491CA154002A04D50099491C1C46401CCE
:1009100000910646009D00F065FC406A0778DDF80E
:10092000408030B2002802DC01260FF2EC744BF05C
:100930002000662808BF6D1C16D0672845D128B254
:1009400010F1040F47DB404545DA9DF848006D1C67
:10095000010703D430B24045D8BF804628B2B8EB77
:10096000000848BF4FF000080FFA85FB07980A9966
:10097000BBF1000F00F3B1804A1C0A9230234354AC
:10098000B8F1000F03DC9DF84800010704D50A9870
:10099000411C0A9107990F5418EB0B0FB8BFC8F10F
:1009A00000052DB26842454432B20D909542B8BF61
:1009B0002E46079B0A9836B20B96324621461844BB
:1009C00000F07CFCAD1B0E95CBE0BBF1610F17D1A5
:1009D0004FF0700B19E030B2404504DA9DF8481032
:1009E0000A0758BF8046B8F1010848BF4FF0000819
:1009F000BBF1670F14BF4FF0450B4FF0650B04E0E0
:100A0000BBF1410F08BF4FF0500B0A98411C0A91EF
:100A1000B8F1000F079914F8012B0A5403DC9DF874
:100A2000480001071AD50A98411C0A91B8F1000F35
:100A300007990F5412DD761E30B28045B8BF464686
:100A400007980A9B32B22146184400F037FC0A98F6
:100A500036B230180A90A8EB06000D9007980A9954
:100A6000014428B2002881F800B003D42B2048703C
:100A7000891C04E02D224A700546891C6D42002025
:100A80001FAA0AE02B460A2593FBF5F505EB850422
:100A9000A3EB440302F8013B401C2DB2002DF1DC16
:100AA000012806DC4BF02002652A04BF302201F841
:100AB000012B00281FAA08D1302001F8010B06E005
:100AC000401E135C303301F8013B0028F8DC079A24
:100AD0000A981044091A0B9143E0084431B22AB233
:100AE000914219DA32B2214600F0E8FB0A9936B297
:100AF00071180A91ABEB0600B8F1000F0D9003DC02
:100B00009DF84800020704D5079847540B99491CE3
:100B10000B91CDF8388024E0214600F0CFFB0A98F5
:100B2000761B5844B8F1000F0A9003DC9DF848107A
:100B30000A0703D5411C0A9107990F5430B280452A
:100B4000B8BF464607980A9B32B204EB0B01184423
:100B500000F0B4FB0A9836B230180A90A8EB0600F1
:100B60000D909DF8480000F0140010287FF41CAC94
:100B7000099A0A980D9982180B988A1882180E986B
:100B8000119980188842BFF60FAC081A0C900BE43C
:100B90009DF84A00622808D068280ED06A2814D030
:100BA0006C281FD0712810D01CE0DAF8001051F822
:100BB000040BCAF80010C0B21AE0DAF8001051F8BD
:100BC000040BCAF8001080B212E0DAF80000C21D6F
:100BD00022F00702CAF80020D2E900010832CAF860
:100BE000002006E0DAF8001051F8040BCAF80010F3
:100BF0000021CDE904019DF8480002075AD5DDE93E
:100C00000401002908BF002854D04BF02002782AA4
:100C100050D1099822A930230B54401C421C099240
:100C200001F800B046E09DF84A00622808D0682824
:100C30000ED06A2814D06C281FD0712810D01CE068
:100C4000DAF8001051F8040BCAF8001040B21AE0AC
:100C5000DAF8001051F8040BCAF8001000B212E0E4
:100C6000DAF80000C21D22F00702CAF80020D2E91B
:100C700000010832CAF8002006E0DAF8001051F846
:100C8000040BCAF80010C117CDE90401002902D5F0
:100C900009982D210AE0BDF84800810702D509987E
:100CA0002B2103E0C00705D50998202122AA115461
:100CB000401C099022A80999014407915946FFF761
:100CC000AFBB9DF84A106C290BD001200990DAF8CF
:100CD000001051F8040BCAF800108DF88800FFF7D7
:100CE00063BBDAF8001051F8040BCAF800100022B8
:100CF00016924FF0FF311590109115AAFFF779BBAE
:100D000001202521BBF1000F09908DF888103FF4D8
:100D10004BAB022109918DF889B0FFF745BB00006C
:100D2000CBCCCC0C686A6C747A4C00007072696E23
:100D300074665F733A2062616420256C732061726F
:100D400067756D656E7400007072696E74665F73AE
:100D50003A2062616420257320617267756D656E4B
:100D60007400000000000000000000007072696E56
:100D700074665F733A20256E20646973616C6C6FD2
:100D8000776564007072696E74663A2062616420EF
:100D9000256E20617267756D656E740033B0BDE8B5
:100DA000F08F2DE9FC410F4606467D6B7869396A64
:100DB0002D1AB8696D1A796A2D1AF8696D1AB96A0F
:100DC0002D1A97F838006D1A410790460FD420204D
:100DD000002D8DF800000ADD2C4601236A463946B5
:100DE000304600F079F900285DD1641EF5D17B69A9
:100DF00042463946304600F06FF9002853D1302082
:100E00008DF800003C6A002C09DD01236A46394652
:100E1000304600F061F9002845D1641EF5D1BB6968
:100E2000FA683946304600F057F900283BD13020A7
:100E30008DF800007C6A002C08DD01236A463946E3
:100E4000304600F049F970BB641EF6D1F868B96904
:100E5000FB6942183946304600F03EF918BB302095
:100E60008DF80000BC6A002C08DD01236A46394673
:100E7000304600F031F9B0B9641EF6D197F8380069
:100E800041070DD52020002D8DF8000008DD01233D
:100E90006A463946304600F01FF920B96D1EF6D17A
:100EA0000020BDE8F6814FF0FF30BDE8F6812DE966
:100EB000F8470F46A3B03D6B82469046002D48BFD1
:100EC0006FF0004500F07FFE7A6B801801A90022C8
:100ED000C1E90022812828BF4FF0FF3044D291465B
:100EE0001EE0A54230DB7869201881280BD3002151
:100EF000796303AA39465046FFF753FF5FEA0009BA
:100F000022D40020786103AB7E6922466946981995
:100F100000F0D4F9A6197E6158F8040BA0B12D1B7E
:100F2000002D11DDD8F8001001AA684600F058F92C
:100F30000446002C05D4D8F800000028D1D1641E46
:100F4000CFD54FF0FF390EE0B9F1000F504604D174
:100F500003AA3946FFF725FF8146B9F1000F02D1F8
:100F6000002078617863484624B0BDE8F0872DE919
:100F7000FC4D06468846376940466F2808BF08245E
:100F800005D0FFF7DBF8782814BF0A241024D6E92F
:100F900000013C2582468B46B8F1640F18BFB8F1BA
:100FA000690F05D1002903D5DAF1000A6BEB4B0B71
:100FB000BBF1000F08BFBAF1000F0CD1306B50B974
:100FC000082C3AD196F83800010736D530223B2557
:100FD00087F83B2031E08DF8008050465946224684
:100FE000002300F0F5FD3032D0B26D1E3A28019595
:100FF0000EDA7A55504659462246002300F0E8FDA5
:1010000082465FEA010B08BFBAF1000F05D108E084
:101010009DF800001218513AEBE7F0687919884200
:10102000DBD3082C09D196F83800010705D5785D87
:10103000302802D06D1E30207855C5F13C02306B4F
:10104000B26179198242F16008DA318F821A4FF663
:10105000EF70014031873262BDE8F38D00280ED574
:1010600096F8380000F01400102808D1736B7069EE
:10107000316A1B1A5B1A9B1A002BC8BF3362BDE88A
:10108000F38D2DE9D04306460F4614464FF0000875
:10109000DFF8409012E0E00707D542464B46304665
:1010A000394600F0BBFC06460F46404649464246DC
:1010B0004B4600F0B3FC641080468946002CEAD110
:1010C00030463946BDE8D083A08601000000F03FDD
:1010D00084D7974100002440F8B505460E461746D0
:1010E0001C4600205CB117F8011BB068A847B0602F
:1010F00030B1F06A401CF0620020641EF3D1F2BDF2
:101100004FF0FF30F2BD00006E616E004E414E00A8
:10111000696E6600494E46003000B1F5807F02D30B
:101120004FF0FF3070470170012070470078401E7B
:101130008041C043C00F7047613807E005E0A0F16F
:1011400061011A2901D20120704741381A288041D3
:10115000C00F7047A0F10901052901D3202801D152
:101160000120704700207047A0F141011A2938BFC3
:10117000203070471C48704770B45368D41801E0A1
:101180005B1C491E042B08DA00291FBF057804F8F0
:10119000015B10F8016B002EF2D1536070BC7047F8
:1011A00038B514461D4661B1FFF7E6FF61686A6B0A
:1011B000204690476FF00102811A02D0491E01D0EB
:1011C00001E003E005E00021616032BD6FF0010045
:1011D00032BD4FF0FF3032BDDA6B1047024BDFE714
:1011E000014BF9E7014870470421002094210020B9
:1011F000C9B202788A421AB11CBF10F8012FF9E770
:1012000018BF002070470268531C036011707047BC
:1012100080B500B906A005490B681BB12222002148
:10122000984701E000F057FD222002BD182C002055
:10123000636F6E73747261696E742068616E646C42
:1012400065723A20626164206D6573736167650041
:1012500000F1010310F8011B11B110F8011BFBE7AD
:10126000C01A7047C9B2830706D0521E22D310F8A5
:10127000013B9942F7D11FE0083A13D302F104026F
:1012800041EA012141EA014150F8043B121F21BF0C
:101290004B40A3F1013C2CEA030C1CF0803FF3D03F
:1012A000C9B2001F0832521E24BF10F8013B91EA58
:1012B000030FF8D818BF0120401E70474AB1000044
:1012C00011F8013B521E00F8013B1CBF11F8013B15
:1012D000F8E7704710B5144600F002F8226010BD20
:1012E000C1F30A5343B14A0012F5001F28D2A3F2FA
:1012F000FE32A1EB0251704750EA410C20D001F0C0
:10130000004C31EA0C01B1FA81F204BFB0FA80F36B
:10131000D2180B3AB2F120032CBF00FA03F191402E
:1013200041EA0C013EBFC2F1200C20FA0CF3194334
:101330009040524240F2FD33D21A01EB0351704704
:101340000022704741EA030C50EA4C0C52EA0C0CA4
:101350004FF4001C09D307D01CEB410F9CBF1CEBC2
:10136000430F8B4208BF824270471CEB430FFBD8F0
:10137000994208BF9042704741EA030C50EA4C0C76
:1013800052EA0C0C4FF4001C09D307D01CEB410FA0
:101390009CBF1CEB430F994208BF904270471CEB67
:1013A000410FFBD88B4208BF82427047124254D48F
:1013B00040F2FF7C1CEA11530FD0634531D09B18DB
:1013C00063453CBF01EB0251704701F0004141EA27
:1013D0000C51002000F082BC704750EA410320D03D
:1013E00001F0004C91EA0C011CD0B1FA81F30B3BE7
:1013F0009A420DD9D21A994051EA0C01C3F1200C3E
:1014000020FA0CFC61449840531C40F2FF7CD7E763
:10141000914041EA0C01C2F1200C20FA0CF319436F
:1014200090407047B0FA80F31533202BE0D3202A88
:10143000EED3203A203B9A4209D9D21A00FA03F19E
:1014400041EA0C010020531C40F2FF7CB8E700FA8F
:1014500002F141EA0C0100207047524240F2FF7C49
:101460001CEA11530DD06345DBD0B2EB030C3CBF3B
:10147000A1EB025170470CF1010221EA035141F442
:10148000801150EA410CCCD001F0004C352A27DC09
:1014900030B481EA0C01B2F1200309DAC2F1200371
:1014A000044601FA03F5D0402843D1409C400CE0AB
:1014B000C3F12002450020FA03F418BF44F00104F0
:1014C00021FA03F091400C43002174F1004550F1E2
:1014D000000051EB0C01244230BC7FF47BAF70471D
:1014E0006146002076E72E00C1F30A5340F21E4207
:1014F000D31A0CDDCA0283F3070342EA505242F0CA
:101500000042DA4002EBE17282EAE17070476FEA72
:10151000E17203F2E13008B182F00040704743000D
:1015200010F0004160B148BF4042B0FA80F29040F4
:10153000D21CC2F5846241EA025202EBD02140057E
:1015400070477047841A71EB030604D26E40001B8B
:10155000B141121973414FF4001C1CEB410F34BF11
:101560007CEB430683E00C0DA4EB1356362E00F300
:101570007C80012E45EAC32341DC43EA525312BF6B
:10158000D20292025B08240545EAC12141EA50518A
:10159000D2EBC020994125D407D1B0FA80F610FAD9
:1015A00006F162D00020203608E0B1FA81F6B140A1
:1015B000C6F1200220FA02F21143B0404FEAF4745F
:1015C000B4EB465434F001064FEA74040AD8D6F559
:1015D0000016760D04F00044F04061FA06F2504027
:1015E000F1404840C00A40EA415021F0004128BF84
:1015F0005FEA500550F1000044EBD12135E0DB0AF1
:1016000045EAC121C90AB6F120050EDD42EA0242CF
:10161000120CC5F1200603FA06F6EB4042EA060575
:101620006D42984161F100010DE062FA06F5F24069
:10163000554063FA06FC82EA0C02F3405A406D42C0
:10164000904161EB030111F4801F05D1641E620516
:1016500002D06D004041494121F48011430875F1E9
:10166000004350F1000041EB045170BC70471CEB8B
:10167000410F15D223F0004352EA43060BD04FEA44
:101680004C0CBCEB410F04D80C0D661E342EB7DD9C
:10169000EBE7801A994150EA410608BF0021E4E7D0
:1016A00008BF1CEB430F28BF6FF00001DDE700000F
:1016B00070B491EA030F4FF000457FF543AF6B40E4
:1016C000841A71EB030603D2001BB1411219734156
:1016D0004FF4001C1CEB410F34BF7CEB430442E091
:1016E0000C0DA4EB1356352E4FDC45EAC323DB0A61
:1016F00045EAC121C912B6F120050DDD63FA05F6F0
:10170000EB4086EA0305124218BF45F00105C018F8
:1017100051F100010CD213E062FA06F5F240554097
:10172000F3415A40B340F3405A408018594107D31F
:1017300049085FEA30005FEA350528BF45F001053A
:1017400001F58011420875F1004250F1000041EBB3
:1017500004514E0016F5001F70BC38BF70470020C2
:10176000090D090570471CEB410F10D252EA4306E0
:101770000BD0BCEB410F05D80C0DAB43661E342ECD
:10178000B6DD02E0AB438018594170BC704770BCB5
:1017900070477047F0B540F2FF7581EA030C0CF01A
:1017A000004C15EA11541DBF15EA1357AC42AF4265
:1017B000E5E0BC41C1F31301C3F31303801A99415F
:1017C00043F4801304D2641E001849418018594123
:1017D000C90241EA5051B1FBF3F603FB1611A2FB1B
:1017E0000675D7EBC020A94102D2761E8018594158
:1017F000C90241EA5051B1FBF3FE03FB1E11A2FBEB
:101800000E75D7EBC020A94103D2AEF1010E8018AE
:101810005941890241EA9051760546EA8E2EB1FB84
:10182000F3F603FB1611A2FB0675D7EB8020A94146
:1018300002D2761E80185941C90241EA50514EEA3F
:10184000060EB1FBF3F603FB1611A2FB0675D7EBF0
:10185000C020A94102D2761E80185941C90241EA2E
:101860005051B1FBF3F703FB1711A2FB0735D3EB84
:10187000C020A94167F100070CBF004247F00107F3
:1018800066F3D5274FEA1E31B80814F5806412DDDF
:10189000BD0775F1004250EB0E5051EB045111F5AC
:1018A000801F5CBF41EA0C01F0BD4CF07F6141F04C
:1018B000E0410020F0BDBD076D0840EA0E5041F444
:1018C0008011D4F10104B4F120060ADAC4F1200633
:1018D0000200E04001FA06F3E1401843B24015432C
:1018E0000EE0342C13DCC6F1200445EA40056D08F7
:1018F00020FA06F2154321FA06F0A1400D4300211B
:1019000075F1004250F1000051EB0C01F0BD0020D8
:101910005FEA0C01F0BDCFB992185B41B3FA83F7CF
:1019200004BFB2FA82F6BF190B3FB7F120062FBFF2
:1019300002FA06F3BB40C7F1200622FA06F638BFCA
:101940003343BA401CB1E419641E33E77F4231F0DF
:101950000041B1FA81F404BFB0FA80F6A4190B3C3F
:10196000B4F120062FBF00FA06F1A140C4F1200611
:1019700020FA06F638BF3143A0403C1B1AE7AC42C0
:101980001ABF05EA1357AF4212E050EA41061CBFE6
:1019900052EA4306BFE750EA4107304661461CBFA2
:1019A00041EA0551F0BD52EA430C08BFC143F0BD06
:1019B00000204FF4001616EB410F98BF16EB430FB3
:1019C00008BF16EB410F24BFC14305E016EB430FE0
:1019D0000CBF61464CEA0551F0BD0000400D40F2DD
:1019E0001E4C40EAC120BCEB115C40F0004003D427
:1019F0008CF30701C84070476FEAE1707047000040
:101A000050B1B0FA80F18840C91CC1F58461090564
:101A100001EBD021400570470146704730B540F2D8
:101A2000FF7C1CEA11541DBF1CEA13556445654533
:101A30003FE0641981EA030C6FF35F530CF0004C34
:101A400043F48013C90241F0004141EA505EC502EF
:101A50001100A5FB020200284FF00000EEFB012060
:101A60004FF00001E3FB052118BF42F001024018CE
:101A700000214941E3FB0E01A4F580640D0302D26D
:101A800092184041494154F1010470DD450872F15A
:101A9000004250F1000051EB0451A1F5801102D435
:101AA00041EA0C0130BD40F2FF7E4CEA0E510020AD
:101AB00030BD0CEA1355644518BF654581EA030C37
:101AC0000CF0004C41D050EA410E1CBF52EA430ECC
:101AD00002E06146002030BD24422C441BD15FEA65
:101AE000050EF6D0090302BF01460020AEF1140E28
:101AF000B1FA81F5AEEB050401FA05FE0C35C5F12E
:101B0000200100FA05F5C8404EEA000E6FF35F535E
:101B100043F480139CE733F00043B3FA83F504BF2A
:101B2000B2FA82FE75440B3D641BB5F1200E2FBF47
:101B300002FA0EF3AB40C5F1200E22FA0EFE38BFBA
:101B400043EA0E03AA40641C7CE750EA410E14BF2E
:101B500052EA430E6FF000014FF4001515EB430FEE
:101B60008EBF194615EB410F9DE7B4D830BDD4F1B7
:101B70000104B4F120050FDAC4F12005520828BF92
:101B800042F0010210FA05FE01FA05F57244E2BFC7
:101B9000E0402843E1400FE0352C9ADCC5F12004F9
:101BA00052EA400220FA05F218BF42F0010231FA6F
:101BB00005F0A1400A43002172F1004250F10000FB
:101BC00051EB0C0130BD80B5FFF7D4FA006C02BDBB
:101BD000D3BBD9B1B2F5803F5BD2022A1ED98C4665
:101BE000B1FBF2F102FB11C31B0443EA1043B3FB48
:101BF000F2FC02FB1C3380B240EA0343B3FBF2F079
:101C000002FB103240EA0C4000237047022A05D93B
:101C10008446B0FBF2F002FB10C270474AB105D116
:101C200000F0010249085FEA3000704700220023FB
:101C3000704700F067B80B000200002100207047D9
:101C4000F7D3002200237047904271EB030CF2D3CC
:101C500070B5B1FA81F4B3FA83F52C1BA340C4F13B
:101C6000200532FA05F63343A2405FF00046E64015
:101C700002E05B085FEA3202841A71EB030524BFBD
:101C8000204629467641F4D302000B0030000021A3
:101C900070BD70B5B1FA81F4B2FA82F5C4F12004D6
:101CA0006419B4F12006DAD3B2405FF00044F44086
:101CB000002502E052085FEA3303C61A71EB020EF8
:101CC00024BF3046714664416D41F3D302000B00DE
:101CD0002000290070BD012000F016B80FB581B0BA
:101CE00000F01CF805492222425001B00FBD80B51A
:101CF00000F014F80249084402BD00001C2C00202A
:101D00001C2C00207047000080B5AFF30080024A11
:101D100011001820ABBEFBE7260002000020704730
:101D200038B5040001D1012032BD04F18405686892
:101D300008B900F020F800F00DF808B100F031F813
:101D400000F02CF8012804D000F00DF821F02A0151
:101D500016E032BD24206860206801684908490007
:101D60000160A06A70472068416821F49041416099
:101D700020688168704700212970204600F0E6BF86
:101D8000816000F004F8BDE8324000F0B8BB206884
:101D9000016841F00101016020467047204600F0D3
:101DA00047BA204600F048BB2DE9F843064606F145
:101DB00054070C46786B20281546994641D10CB142
:101DC000280001D101203DE00020F8632121796342
:101DD00001F0C8F83D807D80B168B1F5805F04BF37
:101DE000316900291ABF21464FF00008A046054678
:101DF0000C4612E000228021304600F0E1FBE0B901
:101E00003068002C12BF14F8011B38F8021BC1F314
:101E1000080181627888411E79802B467888CDF848
:101E200000900028E6D100224021304600F0C8FB97
:101E300018B920207863002004E020207863032074
:101E400000E00220BDE8F28338B50346D3F88C00E9
:101E500020280AD109B1100001D1012032BD00F0C3
:101E600048F8BDE8384000F0F5BB022032BD38B577
:101E7000044604F154051346686B202831D121B380
:101E8000180022D021652B806B800020E86321217F
:101E90006963A86AD8B1DFF88813C162DFF88403E8
:101EA000A96A0863A96ADFF8800348630020A96A69
:101EB00088632068216D00F12802A86A01F0C7F844
:101EC00028B11020E86320216963012032BD216818
:101ED00040200862226800F006F800F096F9F9D177
:101EE00032BD022032BD02F1080151E8001F083264
:101EF00070470020D866DFF834431868A0420CD041
:101F00004068040209D5186850E8004F054644F0BF
:101F1000806445E800400028F5D1184670472168E4
:101F200001F1080353E8001F206800F1080221F0C6
:101F3000400142E80010002870472DE9F0410446B6
:101F400040F60F0C2268D669104616EA0C0F076897
:101F5000936804F15C0507F0200006F020010DD124
:101F6000002914D010B9D80040F18D80A96900294A
:101F700000F045812046BDE8F0410847DFF874C80D
:101F800013EA0C0F04BFDFF870E817EA0E0F7AD0DF
:101F90005FEAC67E48BF5FEAC75807D54FF0010E1B
:101FA000C2F820E06A6B42F001026A63B2070AD508
:101FB000DA0708D5D4F800E00222CEF820206A6BB8
:101FC00042F004026A6372070AD5DA0708D5D4F82A
:101FD00000E00422CEF820206A6B42F002026A631D
:101FE00032070DD5002808BF13EA0C0F08D0D4F82B
:101FF00000C00822CCF820206A6B42F008026A6315
:10200000320509D57F0107D526684FF40062326298
:102010006A6B42F020026A636A6B002A32D031B1E7
:1020200008B9D80003D5A96909B120468847686B6B
:1020300021688A68510602D410F0280F1DD020466E
:1020400000F0A9FB20688168480611D5FFF767FFFB
:10205000FCD1686A60B10FF651018163686A01F0D2
:1020600074F800280ED0686A816BBDE8F04108471B
:102070002046BDE8F04101F05FB9204601F05CF96F
:1020800000206863BBE02869012878D1F00676D586
:10209000F90674D5102010622268298890684206DB
:1020A00037D56A6A1368586880B2002828D08842F9
:1020B00026DA6880106801688A061AD400F0ABF846
:1020C00021F4807100F0A3F8F8D100F061FAFCD19E
:1020D000FFF725FFFCD1202028630021296100F0B3
:1020E0009AF821F0100100F092F8F8D1686A00F037
:1020F000F6FF0220686129886888091A89B206E01B
:1021000088427CD11A68900679D502226A612046FD
:1021100031E06A886888891A00281CBF88B20028C4
:102120006DD02246106850E8003F044623F49073B7
:1021300000F067F8F6D1106800F1080400F1080318
:1021400054E8004FDFF8A806044043E800400028A8
:10215000F1D102F15C032020186300241C619C6112
:10216000146854E8004F156800F06EFBF8D10220A7
:10217000586189B21046BDE8F04101F0DEB8F002C6
:1021800009D5590207D54FF4801010622046BDE8EA
:10219000F04101F0D3B8300609D5390601D4180250
:1021A00005D5E96959B32046BDE8F04108477006F6
:1021B00013D5790611D500F02EF821F0400100F07A
:1021C00026F8F8D104F15C002021C1620022C2612E
:1021D0002046BDE8F04101F018B9300206D579007B
:1021E00004D52046BDE8F04101F02CB9F00148BF0C
:1021F000002F04D52046BDE8F04101F024B9BDE828
:10220000F08144E800300028704741F0800142E846
:10221000001000287047206850E8001F02467047F1
:10222000FD270008432800085528000800800040CA
:10223000F8B50446DFF8CC0822681368A1680340AB
:1022400020690B4361690343E0690B430343136057
:1022500000255168E06821F4405101435160A369B1
:10226000DFF8A4188A421CBF206A03439668DFF88F
:102270009C08DFF89CE8DFF89C78064033439360C5
:1022800067A6D36A606A1B0940EA0313D3627245EA
:10229000DFF884084FF4004338D13F6807F00307A4
:1022A000032F4CD8DFE807F0024542484FF0010CFD
:1022B000E169B1F5004F4FF6F07740F07F80BCF157
:1022C000010F09D0BCF1020F0AD0BCF1040F70D08D
:1022D000BCF1080F70D098E001F052FC002814D037
:1022E000626A616836F81230B0FBF3F04A0802EB1C
:1022F0004002B2FBF1F0A0F11001B942EBD207406D
:10230000C0F3420007432068C7607FE08A4216D1CD
:102310003F6817F4406723D0B7F5806F09D0B7F551
:10232000006F03D0B7F5406F06D008E04FF0020C05
:1023300007E04FF0040C04E04FF0080C01E04FF010
:10234000100C8A42B4D1BCF1000F09D0BCF1020FCD
:102350000AD0BCF1040F15D0BCF1080F15D054E021
:1023600001F006FC002851D0616A36F81120B0FB5C
:10237000F2F6626802EB42018E4246D31303B34287
:1023800005D242E001F0AAFBECE71846ECE7500862
:10239000002110EB062051EB16610023FFF718FC1B
:1023A000A0F54076DFF82078BE422ED22168C860C2
:1023B0002CE001F093FB91E7184691E7BCF1010F87
:1023C00009D0BCF1020F09D0BCF1040F18D0BCF148
:1023D000080F18D019E001F0D3FBB8B1626A36F8E3
:1023E00012306168B0FBF3F000EB5100B0FBF1F08C
:1023F000A0F11001B94208D2226880B2D06005E095
:1024000001F06CFBE9E71846E8E7012504F16800F4
:102410000121002341800180C36003612846F2BD91
:10242000010002000400060008000A000C00100071
:10243000200040008000000190F828100A0706D50F
:1024400002685368816B23F400430B43536090F898
:102450002810CA0706D502685368C16A23F40033FE
:102460000B43536090F828108A0706D5026853681A
:10247000016B23F480330B43536090F828104A0714
:1024800006D502685368416B23F480230B435360E5
:1024900090F82810CA0606D502689368C16B23F429
:1024A00080530B43936090F828108A0606D5026883
:1024B0009368016C23F400530B43936090F8281049
:1024C0004A0610D502685368416C23F480130B430D
:1024D0005360436CB3F5801F05D15368816C23F4BE
:1024E000C0030B43536090F828100A0606D5016814
:1024F0004A68C06C22F4002202434A607047F8B573
:10250000044604F184050020E8606FF07E4700F087
:1025100029FD0646206801680A0714D5009733464E
:1025200000224FF40011204600F04AF858B1FFF79E
:1025300072FE21F08001FFF76AFEF8D104F18400F9
:102540002021416016E0206801684A0716D50097EF
:10255000334600224FF48001204600F031F868B184
:1025600000F024F8FCD100F013F8FCD104F1840051
:1025700020218160002202700320F2BD20206860CB
:102580002021A9600020E066002121672870F2BDAB
:10259000216801F1080353E8001F2068490800F191
:1025A0000802490042E8001000287047206850E8FF
:1025B000001F024621F4907142E800100028704785
:1025C0002DE9F041069C05460E4690461F462868B8
:1025D000C1693140B1420CBF01200020404537D1D4
:1025E00014F1010FF3D000F0BDFCC01B844200D3F6
:1025F00014B90320BDE8F081286801684A07E6D5D0
:10260000802E18BF402EE2D0C169080704D4296883
:10261000C8690105DBD50DE02A680820106228464C
:1026200000F0B9F805F184000821C16000220270B1
:102630000120DFE729684FF400600862284600F0B7
:10264000AAF805F184002021C16000220270D0E7C1
:102650000020CFE730B5034600209965FF2403F141
:102660005C010A804A8088619868B0F5805F04D177
:10267000186990B940F2FF140FE018B9186960B1F9
:102680007F2007E0B0F1805F06D1186908B97F2488
:1026900003E03F20888001E000248C800020486314
:1026A00022240C63196801F1080555E8001F186819
:1026B00000F1080441F0010144E800100028F1D1C4
:1026C00003F15C018868B0F1005F28D188898242FB
:1026D00025D39A68B2F5805F04BF1869002803D13A
:1026E0000FF239428A610BE00FF249348C611869AC
:1026F00030B100F036F841F48071FFF788FDF8D171
:10270000196801F1080454E8001F186800F1080274
:1027100041F08051FFF77BFDF2D1002030BD986879
:10272000B0F5805F04BF186900280CD10FF20922B0
:102730008A61186850E8001F024641F02001FFF747
:1027400066FDF6D1E9E70FF29D128A61186900284B
:10275000EFD000F006F841F49071FFF758FDF8D182
:10276000DBE7196851E8001F1A68704710B500F0E0
:1027700008F8FCD100F0A8F8FCD12021C0F888109E
:1027800010BD016851E8002F0B4622F0C00243E85B
:10279000002100297047016851E8002F0B4622F400
:1027A000907243E800210029F5D1016801F1080386
:1027B00001F1080253E8003F0D490B4042E80031A7
:1027C0000029F2D1C16E012909D1026852E8002F17
:1027D000036822F0100243E800210029F5D12021EE
:1027E000C0F88C100022C2664267704700000000EB
:1027F000FEFFFFEF010000102001000410B50146AC
:10280000886A09680A68930609D40021A0F856105E
:1028100000F009F8FCD100F04DF8FCD110BDBDE886
:10282000104000F0F2BD026802F1080454E8002FE5
:10283000016801F1080322F0800243E80021002929
:102840007047806A01F034BA24F0100445E8004073
:1028500000287047F8B5846A04F1880504F156072A
:1028600000F01CF806D5212804D10020388020462D
:10287000FFF77CFF21688868410606D5222E04D127
:10288000002038812046FFF786FFA86840F010003E
:10289000A8602046BDE8F24000F04EBD28686E6892
:1028A00021688A6811067047806A0021A0F85E10CE
:1028B00000F042BD016851E8002F0B4642F0400293
:1028C00043E8002100297047026802F1080454E837
:1028D000002F016801F1080322F4000243E80021FF
:1028E0000029704710B500F050F81FD14B6A91884D
:1028F000846D0B402370816D4B1C00F04CF819D196
:1029000000F050F8FCD100F057F8FCD100F06CF862
:102910000BD10023136100F05DF8FCD10168CB6995
:10292000DC0644BF10230B627AE07EE0886940F049
:102930000800886110BD000010B500F026F81FD116
:102940004B6A9188846D0B402380816D8B1C00F055
:1029500022F819D100F026F8FCD100F02DF8FCD1B6
:1029600000F042F80BD10023136100F033F8FCD1E2
:102970000168CB69DC0644BF10230B6250E054E0D1
:10298000886940F00800886110BD00F15C020168B0
:10299000136B222B7047836551884B1E53805188DF
:1029A00000297047026852E8002F036822F49072F1
:1029B00043E8002100297047026802F1080454E846
:1029C000002F0168520801F10803520043E800217A
:1029D00000297047016851E8003F0C4623F01003BE
:1029E00044E800310029704700F15C0220211163A6
:1029F0000023936100215161434B016899420CD03F
:102A000049680B0209D5016851E8003F0C4623F0E4
:102A1000806344E800310029F5D11169012970472C
:102A20001188BDE8104000F088BCBDE8104000F0FF
:102A3000DCBC00002DE9F84300F010F94BD1A88967
:102A400000283AD0B80638D500F0D2F80870A06D4A
:102A5000421C00F0C4F817D0F90748BF5FEAC8521B
:102A600000F0B4F803D5F20701D500F0CFF87807ED
:102A700003D5F20701D500F0C1F8686B20B12046FC
:102A800000F05AFC0020686368880028DAD100F062
:102A9000CFF8FCD100F028F8FCD100F0FDF809D106
:102AA00000F0EAF844BF102101622988204600F0B6
:102AB00044FC02E0204600F098FC688868B1A989CF
:102AC00088420ADA00F0BEF8FCD18048A86100F024
:102AD000A5F8FCD101E000F002F8BDE8F1838169BE
:102AE00041F0080181617047206800F1080200F19F
:102AF000080152E8002F7648024041E800200028F3
:102B000070470000F369FFCF00800040FFF4FF1121
:102B100000380140880000580024F4002DE9F843F3
:102B200000F09CF84BD1A88900283AD0B80638D5D7
:102B300000F05EF80880A06D821C00F050F817D0FD
:102B4000F90748BF5FEAC85200F040F803D5F20722
:102B500001D500F05BF8780703D5F20701D500F046
:102B60004DF8686B20B1204600F0E6FB002068635A
:102B700068880028DAD100F05BF8FCD1FFF7B4FFD9
:102B8000FCD100F089F809D100F076F844BF10219B
:102B900001622988204600F0D0FB02E0204600F0C8
:102BA00024FC688868B1A98988420ADA00F04AF8EA
:102BB000FCD14848A86100F031F8FCD101E0FFF7F2
:102BC0008EFFBDE8F183000000FD0F0005D5012157
:102BD0000162686B40F001006863B8077047A26546
:102BE0006888411E69802068C76917F0070F704721
:102BF0002168486AA16D09EA000070472168042035
:102C00000862686B40F00200686370472168022028
:102C10000862686B40F0040068637047216851E8FF
:102C2000001F226841F0200142E800100028704790
:102C3000216851E8001F226821F4807142E80010E9
:102C400000287047226802F1080353E8001F083289
:102C500021F0805142E8001000287047044604F13A
:102C60005C052068B5F80490C7690146D1F800807A
:102C70008668296B2229704700212961206850E865
:102C8000001F024621F0100142E800100028F5D193
:102C90002068C169CA067047202028630021A96105
:102CA000002068610C49206888420CD0406801020D
:102CB00009D5206850E8001F024621F0806142E8F3
:102CC00000100028F5D1286901287047E528000880
:102CD000FEFFFFEF3929000800800040934900E023
:102CE000934981B00A6802430A600968084000906D
:102CF000009801B0704780B54FF40020FFF7F0FF57
:102D0000002200212E2000F0ECFFBDE802402E2022
:102D100001F004B80168874A914200D0704780B53D
:102D20004FF48010FFF7DCFF002200212C2000F080
:102D3000D8FF2C2000F0F2FF002200212D2000F00F
:102D4000D0FFBDE802402D2000F0E8BF38B59EB0AE
:102D500004461421684601F035F850210AA801F014
:102D600031F820687449754D884246D102200A9096
:102D7000002111910AA801F03FF808B101F07FFB92
:102D8000286840F00100286029686D4D01F00101BC
:102D9000059105980120FFF7A1FF02210191002272
:102DA00002920C20032100900391082204926946AC
:102DB0004FF0904001F084FB62482860112100F040
:102DC00058F808B101F05BFB4FF0885000210690E5
:102DD0000791ADF820100122099206A9284601F0BA
:102DE0004FFC08B101F04BFBE567AC62002200210B
:102DF000252000F076FF252037E05349884236D160
:102E000001200A90002110910AA800F0F5FF08B1F6
:102E100001F035FB686840F48040686068684B4D9D
:102E200000F48040059005980220FFF757FF02212B
:102E3000019101220292C0200321009003910722F8
:102E400004926946424801F03BFB424828600F214A
:102E500000F00FF808B101F012FBE567AC62002248
:102E60000021242000F03DFF242000F057FF1FB078
:102E700030BD696000201022E86080216861A8618F
:102E8000E8612862AA602961284600F071B810B58F
:102E900094B004465021684600F094FF22682E4901
:102EA0008A420FD14FF4007000904FF080510E9184
:102EB000684600F0A1FF08B101F0E1FA4FF480206C
:102EC000FFF70EFF14B010BD18B595B004465021A1
:102ED00001A800F077FF226820498A4224D14FF4EC
:102EE000006001904FF48071119101A800F084FFFF
:102EF00008B101F0C4FA1A48816B41F400418163C2
:102F00000021026842F4806202600022006800F43E
:102F1000806000900098032000F0E3FE032000F0A2
:102F2000FDFE204601F060FC16B010BD4C000058BC
:102F300050000058000C0058008000405C00005811
:102F4000482800204400024000380140A828002002
:102F500000040048440402400010005800280040CB
:102F60005800005801484068704700BF2C220020DC
:102F700038B5040001D1012032BD2168DFF890236B
:102F8000914204F1240502D200F055F805E000F06A
:102F90004AF8DFF880032962E8610221697020683D
:102FA0000268A068E16823686FF30E12024320698B
:102FB0000A4361690243A0690A43E1690243206A46
:102FC0000A4302431A60204600F074F9A068B0F585
:102FD000804F04BF002161602079696A00F03F00E2
:102FE00000F014F838B1052805D2204600F07FF92A
:102FF00000F012F803E0002028636863A863002152
:10300000A961012068702970002032BD0860A96A9A
:10301000E86A486060687047296B00200860696B47
:10302000A86B48607047DFF8F00241181422B1FB2A
:10303000F2F189007047DFF8E40241181423B1FB74
:10304000F3F18900DFF8D8222962EA617047F8B508
:10305000044604F1240600253078012801D102201D
:10306000F2BD012030707778012F2ED102207070D0
:10307000AC46C6F818C0206807687F087F00076064
:10308000204600F0FBF82168F06820B10A6842F0A1
:103090000E020A6008E0086820F00400086020685A
:1030A000016841F00A010160706A0168CA0303D532
:1030B000016841F480710160306B18B1016841F41E
:1030C0008071016000F005F801E0357002252846A6
:1030D000F2BD2068016841F001010160704740B114
:1030E00000F124014A78022A05D0042088610022D8
:1030F0000A70012070470268136823F00E03136002
:103100004A6A136823F480731360006802685208E7
:1031100052000260012091F82020CB6902F01C02CD
:10312000904058608A6AC86A5060086B38B102469D
:10313000106820F4807010604A6B886B506001202A
:10314000487000220A700020704738B500F1240250
:1031500000245178022903D004209061012429E041
:1031600001680B6823F00E030B6001680D686D08A1
:103170006D000D60516A0B6823F480730B600121B0
:1031800092F82030D56903F01C0399406960936A76
:10319000D16A5960116B39B10B46196821F48071FD
:1031A0001960536B916B5960012151701470516912
:1031B00001B18847204632BDF8B500F1240104264C
:1031C000CA69126803681C6891F8205005F01C0554
:1031D00006FA05F73A4210D067070ED51A6894062A
:1031E00003D41A6822F004021A6000F03EF8C9689D
:1031F000002939D0BDE8F4400847022606FA05F751
:103200003A4213D0A70711D51A68940605D41A6854
:1032100022F00A021A6001234B7000F026F8002207
:103220000A70896801B3BDE8F4400847082606FA29
:1032300005F52A4218D0220716D51C6824F00E0482
:103240001C60012291F82030CC6903F01C039A40E5
:103250006260012301228A614B7000220A700969B1
:1032600011B1BDE8F4400847F1BD91F82020CB69C9
:1032700002F01C0296405E607047000070B5C56C9D
:10328000046D6C60446D14B1856DC46D6C60012477
:1032900090F84450066C05F01C05AC40746004685E
:1032A00063608068102802D1A260E16070BDA160F7
:1032B000E26070BD10B5416C0268154B89089A42F6
:1032C00039BF184C04EB8101174B03EB810181647A
:1032D00002F0FF02083A1421B2FBF1F1012301F0E0
:1032E0001F01124AC26403FA01F1016510BD0179A0
:1032F0000F4A104B836501F03F0102EB81024265EA
:10330000491E012201F003018A40C2657047000096
:103310000804024000040240F8FBFDBFF8FFFDBFB7
:1033200000000240000802401C08024080080240E1
:10333000FC08024040090240704770477047000097
:1033400010B53A4C10B1022803D010BD00F00CF8B3
:1033500001E000F005F80360BDE81040FEF774BD21
:1033600063603348334B704723603348334B7047B7
:1033700038B50024002510B1022803D008E02E48FB
:103380002E4C01E02A482B4C0460FEF70DFD04464C
:10339000012C05D007D3032C04D038BF022502E04E
:1033A000012500E00325284632BD70B50024002524
:1033B000234E10B1022804D00AE03360FFF7D5FF96
:1033C00002E07360FFF7CDFF0360FEF750FD044697
:1033D000012C05D007D3032C04D038BF022502E00E
:1033E000012500E00325284670BD0068114A0F49F9
:1033F000904205D0114A904206D1086820B100479A
:103400004868002818BF004770470068094A0C49FF
:10341000904205D0094A904206D1086820B1004781
:103420004868002818BF004770470000C42B0020E0
:103430001825002000800040AC2500200038014005
:10344000CC2B0020704770474FF0B040006800F070
:10345000F000B02888BFB0207047DFF8E0070068B0
:10346000000100F0F00070472DE9F041040051D058
:10347000207881064FF0B0453AD5A868E96810F089
:103480000C0001F0030103D00C2808BF012943D12F
:10349000E06900283ED0FFF7D7FF0146606A81420D
:1034A00011D200F07FFB002834D12968606A21F036
:1034B000F001014329606968206A21F47F4141EAF3
:1034C0000021696009E0296821F0F001084300F05B
:1034D00018FA606A00F066FBE0B900F03BFBDFF829
:1034E00060170860DFF85C07006801F097F988B999
:1034F0002078C10762D5A868E96800F00C000828A8
:1035000001F0030103D00C2808BF03292ED1606805
:10351000002853D10120F2E1E069B8B1296841F0F7
:10352000010100F0D8FA06462868800706D4FFF7A4
:1035300019FD801B0328F7D30320E0E12868616AA6
:1035400020F0F000084300F0DCF9D1E728684008DB
:10355000400000F094FB064628684008C007C7D525
:10356000FFF700FD801B0328F6D3E5E76068B0F5A0
:10357000803F04D1296841F48031296003E0286844
:1035800020F480302860606858B1FFF7EBFC0646F5
:103590002868800312D4FFF7E5FC801B6528F7D369
:1035A000CAE7FFF7DFFC06462868400CC00705D5D0
:1035B000FFF7D8FC801B6528F6D3BDE7207881078C
:1035C00015D5A868E96800F00C00042801F0030193
:1035D00003D00C2808BF022928D1E068002899D020
:1035E0006868216920F0FE4040EA01606860216857
:1035F000DFF8546611F0180F00F08B806069002826
:1036000077D0C806706858D5800730D4716841F00B
:1036100001017160FFF7A6FC07467068800726D499
:10362000FFF7A0FCC01B0328F7D385E7E06870B163
:10363000296841F4807100F04EFA0646286840057A
:10364000CED4FFF78FFC801B0328F7D374E72868DC
:1036500020F4807000F013FB06462868800AC0073B
:10366000C5D5FFF77FFC801B0328F6D364E770689D
:1036700040F0040000F04EF907467068000705D4DA
:10368000FFF770FCC01B0428F7D355E77068A169E9
:1036900020F4706040EA01207060706840084000CB
:1036A00000F038F9074670684008C00731D5FFF7C9
:1036B00059FCC01B0328F6D33EE740F0010000F0A0
:1036C00029F907467068800705D4FFF74BFCC01B3B
:1036D0000328F7D330E7706820F00400706070684A
:1036E000C008C00715D5FFF73DFCC01B0428F6D362
:1036F00022E7706820F0040000F00CF907467068BB
:10370000C008C007C9D5FFF72DFCC01B0428F6D39D
:1037100012E7207841074CD5DFF83085D8F8000053
:10372000C1050ED401F09CF8FFF71CFC0746D8F841
:103730000000C10505D4FFF715FCC01B0328F6D314
:10374000FAE6A068012804D1306840F0010030603A
:1037500010E00528306806D140F004003060316880
:1037600041F0010105E0400840003060316821F07F
:1037700004013160A06841F2893760B1FFF7F2FBC4
:1037800080463068800714D4FFF7ECFBA0EB0800FC
:10379000B842F6D3D0E6FFF7E5FB80463068400834
:1037A000C00706D5FFF7DEFBA0EB0800B842F5D353
:1037B000C2E62078410622D5A06A0028B0680ED063
:1037C00040F00100B060FFF7CDFB0746B06880070E
:1037D00015D4FFF7C7FBC01B0328F7D3ACE640089E
:1037E0004000B060FFF7BEFB0746B0684008C00766
:1037F00005D5FFF7B7FBC01B0328F6D39CE6E06AAC
:1038000000287BD0A968EA68022801F00C0161D188
:10381000236B02F00300984202BF02F07000636B5A
:10382000984213D1A36BC2F30620984202BF02F460
:103830007810E36B984209D1236C02F060609842E3
:1038400002BF02F06042606C824237D00C2942D045
:10385000286841013FF55EAE00F00EFA0646286882
:10386000810105D5FFF77EFB801B0328F7D363E6B4
:10387000EA68DFF8DC03216B0240606B0A43A16B4E
:103880000243E06B42EA0122216C0243606C0A436E
:103890000243EA60296841F080712960E86840F0DD
:1038A0008050E860FFF75EFB04462868810125D45C
:1038B000FFF758FB001B0328F7D33DE6286881017A
:1038C0001CD4286840F080702860E96841F080517D
:1038D000E960E7E70C293FF41DAE00F0CDF904469E
:1038E0002868810105D5FFF73DFB001B0328F7D3AE
:1038F00022E6E968DFF85C030140E9600020BDE8EA
:10390000F08128606868216A20F47F4040EA012045
:10391000686070477060FFF725BB2DE9F84304002D
:10392000884600F0B080DFF8305300F0CBF80CD2BE
:1039300000F0CDF8074600F0C5F806D0FFF712FBFF
:10394000C01B0228F7D90320BAE0207882074FF085
:10395000B04711D5B968A06821F0F0010143B96002
:10396000FFF700FB0646B868C00305D4FFF7FAFA74
:10397000801B0228F7D9E6E72078DFF8C0628206CC
:1039800012D53168606921F0F00101433160FFF721
:10399000E9FA81463068800306D4FFF7E3FAA0EB2A
:1039A00009000228F6D9CEE72078410613D5306801
:1039B000A1690009000140EA11103060FFF7D2FA56
:1039C00081463068C00306D4FFF7CCFAA0EB0900AB
:1039D0000228F6D9B7E72078420711D5B968E06820
:1039E00021F4E0610143B960FFF7BCFA0646B8680C
:1039F000800305D4FFF7B6FA801B0228F7D9A2E7A7
:103A00002078010712D5B868216920F4605040EA97
:103A1000C100B860FFF7A6FA0646B868400305D4AF
:103A2000FFF7A0FA801B0228F7D98CE72078C1079E
:103A30002BD56068022819D13968890323D5BA6863
:103A4000920840EA8200B860FFF78CFA0646B86830
:103A5000616800F00C00B0EB810F16D0FFF782FA1E
:103A6000801B41F289318842F1D36CE7032802D1EF
:103A70003968890103E00028396802D18907DED45A
:103A800001E04905DBD401201AE0286800F00700B6
:103A900080450BD200F01BF8044600F013F805D067
:103AA000FFF760FA001B0228F7D94CE700F052F844
:103AB0006349086000F0F0FEBDE8F24300F0AEBEDE
:103AC000BDE8F283286800F0070040457047296888
:103AD000C90848EAC1012960FFF744BA38B54FF078
:103AE000B0455F4CA96811F00C0106D1FFF7ACFCA2
:103AF000C0F3031054F8200032BD0429594828D0DF
:103B00000829594A04D12968C90222D4104632BD75
:103B1000E96801F0030102290CD0032904D12968C6
:103B2000C90207D4104605E0FFF78EFCC0F303106E
:103B300054F82000E968EA68EB68C1F306214843BD
:103B4000C2F30211491C5B0FB0FBF1F05B1CB0FB30
:103B5000F3F032BD80B5FFF7C1FF4049FFE7434AAC
:103B60000968C1F3031152F82110B0FBF1F002BD56
:103B700080B5FFF7EFFF00F010F8C1F3022106E077
:103B800080B5FFF7E7FF00F008F8C1F3C22112F893
:103B9000211001F01F01C84002BD3049344A0968B4
:103BA0007047000070B52E49B1282EBFCC6AC0F313
:103BB000031051F82040FFF750FC054600F082FE4C
:103BC0002A49C5F3031251F822102A4AB4FBF1F135
:103BD0005FF00004B1FBF2F1B0F5007F30A22046A7
:103BE0001FD100BF27A353F820508D4216D2401C8E
:103BF0000328F8D9184D2868C00844EAC00000F02E
:103C00003EF80646286800F00700A04213D0FFF7F0
:103C1000A9F9801B0328F5D3032070BD52F820407A
:103C2000E8E700BF1BA353F820508D42F6D2401C9A
:103C30000328F8D3DEE7002070BD0000080100581B
:103C40004422002034220020900000580004005834
:103C50008C80C111FCFFFEEE0040005808000058A7
:103C6000C8AF00080024F4000048E80188AF00084D
:103C70008CB5000840420F00286820F08070286052
:103C8000FFF770B9120000002400000036000000A9
:103C900040000000060000000C00000010000000C2
:103CA000000000000100000002000000030000000E
:103CB000704700000901020002D43948815470475E
:103CC000384B02F00F021A4402F8041C70473649C0
:103CD0000A6860F30A2240F2FA5060F31F420A6059
:103CE000704770B5304B1C68C4F302230124C3F144
:103CF0000705052D2EBF0F2504FA05F56D1E1E1DA7
:103D0000072E34BF0023DB1E2940994004FA03F339
:103D1000BDE870405B1E1A401143CBE7010007D499
:103D2000012200F01F01214B8A40400943F8202066
:103D3000704701000BD4012200F01F011C4B8A4088
:103D4000400943F82020BFF34F8FBFF36F8F7047B8
:103D5000401EB0F1807F01D3012070471549164AFB
:103D600048600023F02010708B600720086000205E
:103D70007047010007D4012200F01F010F4B8A4059
:103D8000400943F820207047010007D4012200F0C9
:103D90001F010B4B8A40400943F820207047000068
:103DA00000E400E018ED00E00CED00E000E100E0D0
:103DB00080E100E010E000E023ED00E000E200E040
:103DC00080E200E0002200F085BD0000DFF81C1357
:103DD0000A68030903F47F2300019A4300F47F205B
:103DE00000F081B9DFF804231368010C23EA0143D2
:103DF00043EA0043136070472DE9F8430546002469
:103E00002878DFF8E8624106A0464FF0B04743D576
:103E1000286B70B1B0F5800F06D0B0F5000F18BF59
:103E2000B0F5400F2ED035E0F96841F48031F960EB
:103E300029E0386820F080603860FFF793F8814609
:103E40003868C00EC00707D5FFF78CF8A0EB090053
:103E50000228F5D9032415E000F03CF9A86821F404
:103E6000781100F02FF981463868000106D4FFF779
:103E700079F8A0EB09000228F6D9EBE739696869FF
:103E8000014339613CB93168286B21F44001014399
:103E9000316001E00124A0462868010532D5D6F83A
:103EA0000880286C08F4407880452AD000F0D8FCBF
:103EB000B8F1000FB16805D1286C21F440710143BD
:103EC000B1601EE0B06840F48030B06021F4407111
:103ED000B06820F48030B060286C0143B160B068F5
:103EE000C0070ED5FFF73EF88046B068800708D4BB
:103EF000FFF738F8A0EB080041F289318842F4D38B
:103F00000324A0462878C20705D53168A869890826
:103F100040EA810131602978880705D53168E86970
:103F200021F44061014331602978C80644BFA86A82
:103F3000FFF758FF2878810644BFE86AFFF752FF71
:103F40002878410744BF286AFFF740FF2878010717
:103F500044BF686AFFF73AFF2868C20535D5316863
:103F6000686B21F0406101433160696BB1F1006F12
:103F700000F0A2F8686BB0F1806F26D1396821F0AB
:103F8000806100F0A4F804463868C00EC10707D568
:103F9000FEF7E8FF001B0228F6D94FF0030814E0F3
:103FA00000F098F8E86821F0606100F08BF80446B2
:103FB0003868010105D4FEF7D5FF001B0228F7D9A8
:103FC000EBE73969686901433961296888051CD5BF
:103FD000A86BB0F1804F18BFB0F1004F00D020B9EE
:103FE000316821F04041084309E0316821F0404147
:103FF000316020F08050326822F04062104330601F
:10400000A86BB0F1C05F00F057F82868420538D5BA
:104010003168E86B21F0405101433160E96BB1F147
:10402000005F03D1F86840F48030F860E86BB0F1CD
:10403000805F26D1396821F0806100F048F804469D
:104040003868C00EC10707D5FEF78CFF001B022899
:10405000F6D94FF0030814E000F03CF8286921F08D
:10406000604100F02FF804463868010105D4FEF7DE
:1040700079FF001B0228F7D9EBE73969686901432A
:1040800039612968C80405D5F168686C21F440419C
:104090000143F160296888040BD5796AE86C21F046
:1040A000300101437962796AA86C890840EA81018C
:1040B00079624046BDE8F28303D1F86840F0807031
:1040C000F860704701433961396841F080613960B7
:1040D000FEF748BF3869696820F4FE4040EA0120D5
:1040E000386139697047104308607047880000588C
:1040F000C24981B00A6802430A600968084000901A
:10410000009801B07047000010B500F0B1FB00F05E
:10411000FBFB00F08CF800F0CEF8B94CB948A06376
:1041200004F1380000F052FE08B100F0A8F90420B4
:10413000FFF7DEFF0120FFF7DBFF0220FFF7D8FFCC
:1041400000220F210E20FFF7CCFD0E20FFF7E6FD29
:1041500000220F213A20FFF7C4FD3A20FFF7DEFDD1
:1041600000F0C1F800F0E5F8A7482060002147F60C
:10417000FF700F22E0606160A2602161A161E161D6
:104180006161204600F05AFE08B100F078F9002283
:104190000021204600F0A7FA08B100F070F99B4812
:1041A00060620021A16204F1240000F0EFFE08B17A
:1041B00000F065F900F0F0FB4021954800F006FFA3
:1041C000B0A000F0B9FF00F0CBFF0A22B3A19148E4
:1041D000FDF774F802F06DF8014606228E48FDF7EF
:1041E0006DF88E498E4A8F4B18200870136001209D
:1041F0008D498E4B087000228D481A704FF0844113
:104200008C4A8D4B0160136001208C498C4B0870E7
:10421000187000228B498C4B08701A7001228B4950
:104220008B488C4B08601A7000F0B7FCFCE780B537
:104230009AB0482108A8FFF7C5FD1C2101A8FFF787
:10424000C1FD00F00DFB8448016821F018010160F8
:1042500001218248026861F34A2202604FF48031F2
:10426000006800F4C06000904720009A0991012284
:104270004FF480710A920B91129208904021002213
:104280000C91139208A8FFF7EFF808B100F0F7F8C7
:104290006F20022101900291002203920492059264
:1042A00006920792012101A8FFF737FB08B100F041
:1042B000E6F81BB000BD80B594B050216846FFF70A
:1042C00081FD4FF440524FF480410092119102223F
:1042D0001021129213916846FFF78EFD08B100F08D
:1042E000CEF815B000BD10B55D4C5E4820604FF4AF
:1042F00016510C200022606100F043F862662046EF
:10430000FDF70EFD08B100F0BAF80021204602F0DA
:10431000EDFB08B100F0B3F80021204602F0F1FBFC
:1043200008B100F0ACF8204602F0C2FB00B131E069
:1043300010BD10B54C4C4D4820604FF4E1310C20BD
:10434000606100224FF40040E06100F01AF820465E
:10435000FDF7E6FC08B100F092F80021204602F0DB
:10436000C5FB08B100F08BF80021204602F0C9FB24
:1043700008B100F084F8204602F09AFB00B109E091
:1043800010BD6160A260E2602261A261226262628D
:10439000A2627047BDE8104071E001B54FF6FF73AF
:1043A000012269460020FEF7E3FF009802BD0000ED
:1043B00038B504460A464FF6FF7321460220FEF741
:1043C000D7FF05464FEA040137A000F0B5FE2846A6
:1043D00032BD000080B520B1DFF8341035A000F008
:1043E000ABFEBDE800500FF20D032149012202206F
:1043F000FEF7A6BF1E49087800F000BE480000582E
:10440000D4270020000C005800280040001000585D
:10441000282A0020942A0020682A00207F2A0020D1
:10442000882A00209A9919BE262C0020812A002073
:104430008C2A0020902A002000004042252C0020D9
:10444000792A00207A2A00207B2A0020842A002052
:1044500007B20100782A002090000058000400589C
:104460001825002000800040AC25002000380140C5
:10447000282C002080B500F089FE002002BD72B615
:10448000FEE70000415420424C452073657276657A
:1044900072207374617274730A00000041542073B7
:1044A0006572766572000000202054583A2025730A
:1044B00000000000202052583A2025730D0A000009
:1044C0002DE9F04F0024DFF89881664E4FF00F0978
:1044D00002460B4631E0644FBA4214BF4FF0070E5C
:1044E0004FF0040E0EFA01F141EA050E5F4941F862
:1044F0002CE0C74331685D683940ED0248BF014395
:10450000316071685D683940AD0248BF0143716038
:10451000D8F800105D683940ED0348BF0143C8F882
:104520000010D8F8041007EA010C5968890348BF45
:1045300040EA0C0CC8F804C0641C186830FA04F196
:1045400000F07D800121A1400840F5D04FEA440CE5
:10455000032505FA0CF56FEA050E5D6805F0030703
:10456000012F1CBF05F00305022D10D19568DF68EF
:104570000EEA050507FA0CF73D439560556825EAF4
:1045800001015D68C5F30015A54029435160A100F4
:104590001D7905F00305032D1ED0D5689F680EEA2E
:1045A000050507FA0CF73D43D5601D7905F00305B5
:1045B000022D11D1E50802EB850501F01C07D5F8A5
:1045C00020B009FA07FA2BEA0A0BD3F810A00AFA6E
:1045D00007F747EA0B072F6215680EEA05071D79F2
:1045E00005F0030505FA0CF545EA070CC2F800C012
:1045F0005D6815F4403F9FD01C4D4FEA940C55F870
:104600002C5001F00C0109FA01F7BD43B2F1904FB3
:1046100008BF4FF0000E11D0154FBA4208BF4FF03F
:10462000010E0BD0134FBA4208BF4FF0020E05D057
:10463000114FBA427FF44FAF4FF0030E52E7BDE87F
:10464000F08F0AB181617047816270470B4A13682D
:1046500001460B421CBF116000F0AFBA704700006A
:104660008008005800080058001000480800014069
:104670000004004800080048000C00480C080058DE
:1046800070B500F12403587801281CD11A78012A4A
:1046900001D1022070BD5C6A187025680B480A6859
:1046A000CE6805401543761E48680A7A45EAC64535
:1046B0000543487A45EA024545EA40252560002140
:1046C0001970002070BD012070BD0000FFFD00E0EA
:1046D0008A60FF210268516280F82130002180F851
:1046E000201000207047F8B53E4E034630684FF466
:1046F0007A7540092C46B0FBF4F46C43009493F8AF
:104700002000012801D10220F2BD012083F8200001
:10471000022783F82170CA201C686062532718683A
:104720004762FF241F68B868400507D50098401EFF
:1047300000900098F0B1F8684007F7D4B86820F40A
:104740008060B8601868C76807F0800767F49067F2
:10475000C760306840092E46B0FBF6F675430095F9
:104760001D680098401E0090009818B1E868460740
:10477000F7D506E018684462032100F023F803200F
:10478000F2BDA868C008C000A860186885682A4300
:104790008260186841611148016841F4002101609C
:1047A0000F48026842F4002202601868816841F4F0
:1047B00080418160186800F00BF81868446200F0CE
:1047C00001F8F2BD83F82110002083F82000704723
:1047D000816841F480618160012170478008005840
:1047E000000800584422002090F82010012901D12F
:1047F00002207047012180F82010022380F8213028
:10480000CA2102685162532301684B620123016887
:104810008A6842F02002FFF75BBF000070B50F4EC0
:10482000044630780025A8B1FFF794F932784FF4A8
:104830007A71B1FBF2F2B0FBF2F0FFF789FA48B9F6
:10484000102C07D2002221464FF0FF30FFF749FA23
:10485000B46000E00125284670BD00BF2C22002076
:104860000248016841F480710160704700040058FB
:10487000114810B5016841F4807101600320FFF711
:1048800026FA0020FFF7CAFF0024002814BF0124E5
:10489000FEF731FA204610BD084880687047084886
:1048A00005E00748016841F00201016070470168B6
:1048B00041F0010101607047004000582C220020A7
:1048C000042004E0DFF80800006800F4C0607047CE
:1048D0000004005800B500BF1300964694461039F6
:1048E00028BFA0E80C50FAD85FEA417C28BF0CC072
:1048F00048BF40F8042BC90728BF20F8022B48BF47
:1049000000F8012B00BD00001CB5DFF88413DFF8B0
:1049100084434FF400400860606C40010ED5606C29
:10492000C0000BD4FFF79CFFFFF79AFF206C40F408
:1049300080302064206C20F4803020643F22216885
:1049400041F4801121603F21206800F48010009024
:104950000098DFF8440341604261016841F47C1132
:104960000160026942F47C120261016841F03F017A
:104970000160026942F03F020261002002F014F976
:1049800048B18079DFF81413E164E26C22F47C52C0
:1049900042EA0022E26413BD10B5C148C14C88B0A0
:1049A000016800220260CA21036903F05003036119
:1049B0005322BD48C161C261FF220168C908C90014
:1049C0000160C261B948016841F40041016002F030
:1049D000FFF8B7480268042161F302020260002078
:1049E000B44902F030FA02F0DCFB0121012002F0B0
:1049F000F4F80FF2C913B04901220020FEF7A0FC21
:104A000002F074FCAD4A00214FF4802002F0FDFD5D
:104A100004F23C500FF231010090019169460FF20F
:104A20002D0002F05BFE04F5C961039104F254709D
:104A3000029040F23C510591049402A802F0DEFC81
:104A400002F052FC08B010BD7047000070B5064679
:104A500088B0716801F10B05684602F002FF984CBE
:104A60009DF802309DF801209DF800104FEA0400E7
:104A700000F062FB9DF804100FF25C2000F05CFB7C
:104A80009DF80C309DF80B209DF80A1099A000F0BD
:104A900053FB28884FF41241401A0CD0401E4AD0D4
:104AA000401E58D0801E63D0401E66D0401E67D086
:104AB000401E6CD06FE004A80021002200230025D6
:104AC00080E82E00716801F10D00007840BB04F50C
:104AD000807000F031FB02F0E1FB0F207F21794C68
:104AE0008DF810008DF81210D4F8005095A02D0C00
:104AF000294600F021FBADF81C50246899A0C4F3AE
:104B00000B04214600F018FBADF81E4004A802F08B
:104B1000A1FE01F0F9F80021012002F05EF83AE070
:104B2000012805D104F5987000F006FB357032E0DD
:104B300004F5AE702DE0706800F10D0504F5C47049
:104B4000297800F0F9FA2878002814BF04F5F670E7
:104B500004F5DA701DE004F1240000F0EDFAD5F858
:104B60000620D5F8021004F1500000F0E5FA12E03A
:104B7000D5F8021004F1940006E000BF63A008E03D
:104B8000D5F8021004F1C80000F0D6FA03E000BF27
:104B900065A000F0D1FA08B070BD4FF0FF3002F010
:104BA00095BC704700214FF4802002F03CBD0220EC
:104BB00002F05BBD022002F060BD70472DE9F041BC
:104BC000414C3D4F04F580752E88B6F5807F4FD25D
:104BD00038780D2849D121466AA000F0ADFA28A105
:104BE000204602F07FFE04F582764FF4807820B9EB
:104BF00068A000F0A1FA354814E022A1204602F096
:104C000071FE28B965A000F097FA4FF0B05009E0A6
:104C10001DA1204602F066FE48B900BF61A000F069
:104C20008BFA2B486860304602F066FE17E00222DD
:104C300016A1204602F06EFE60B904F58676214684
:104C4000304602F07DFE00F0A1FA41463046FFF703
:104C5000B9F804E04FEA040154A000F06DFA4146AF
:104C60002046FFF7AFF8002601E0A055761C2E8005
:104C70003946BDE8F041174B01220020FEF760BB2A
:104C800053573100535732005357330041540000FB
:104C90001040005850000058040C0058FECAFECACC
:104CA000800800583C0003200828004008000058F5
:104CB00080040058D4270020B42B00201F77000860
:104CC00054A50008002004E048220020040000163B
:104CD00001000016BD4B0008576972656C6573735F
:104CE000204669726D77617265206275696C642017
:104CF00025640A004655532076657273696F6E20ED
:104D000025642E25642E25640A0A00005348434971
:104D10005F5355425F4556545F4E564D5F454E4476
:104D20005F57524954450A00534843495F5355421F
:104D30005F4556545F4E564D5F454E445F45524168
:104D400053450A004442474D43555F4765745265D9
:104D5000766973696F6E49443D20256C78200A0A94
:104D6000000000003E3E3D3D204442474D43555F1C
:104D700047657444657669636549443D20256C78D0
:104D8000200A0D0072656365697665642025730AE3
:104D900000000000535731204F4B0A005357322078
:104DA0004F4B0A00535733204F4B0A004E4F5420AD
:104DB0005245434F474E495A454420434F4D4D417C
:104DC0004E44203A2025730A00000000F8B504463E
:104DD0000025ACB104F13406307910B92046FDF756
:104DE00099FF0F4F384600F021F8386840F0011065
:104DF0003860204600F007F835600121317100E08D
:104E000001252846F2BD10B50021064A064B00EBED
:104E10008104491C06296360E261F8D310BD0000DB
:104E2000000C00589317000843150008002101608A
:104E30004FF03F1242603F238360704738B5040053
:104E400001D1012032BD94F8210028B9002184F855
:104E500020102046FEF738F8022084F82100206850
:104E6000C168CA0637D4CA21416253202268506201
:104E700000F036F801001AD12168DFF898008A683E
:104E800002408A6022689368606821690343A069D0
:104E90000B43034393602068E16801612068016966
:104EA000A26841EA02410161204600F059F8010080
:104EB0000BD12168CA6C92089200CA642368DD6C29
:104EC000E16962690D431543DD64FF212268030037
:104ED000516204D100E00020012184F8211032BD8C
:104EE00020461BE038B504460B482168C860FEF731
:104EF00039F805462068C168880608D4FEF732F8FC
:104F0000401B40F2E9318842F4D3032032BD002037
:104F100032BD0000BFFF8FFF5FFF010070B5044688
:104F200000252068C1684A0618D4C16841F0800194
:104F3000C160FEF717F806460AE0FEF713F8801B7B
:104F400040F2E931884203D3042084F8210001258E
:104F50002068C168480601D42800EED0284670BDFC
:104F600038B5044600252068C16821F08001C16081
:104F700020688168880607D42046FFF7B3FF18B180
:104F8000042084F821000125284632BD10B5040014
:104F900001D1012010BD607A20B900212172204684
:104FA000FDF775FF0220607221680A68606822F0D0
:104FB000200202430A602068016841F00401016098
:104FC000012060720021E160002010BD70B5402911
:104FD00004460D4610D302F0BFFC564E00227270FC
:104FE000402106F10800FEF7EDFE746035700020E8
:104FF000FFF7F0F9002070BD012070BDF8B54D4CF1
:10500000657821788D4248D2626850556D1C0A2817
:105010003DD1E8B2022809D9104410F8023D0D2B09
:1050200004D100260A23467003706D1E531EEFB292
:105030000026DE556D1E6570107838B9012601E036
:10504000761CF6B2905D98550028F9D1EDB2022D8C
:1050500017D3114604F1080002F072FC4020FFF75C
:10506000B9F92178606802F077FC0020607004F1E3
:105070000800FFF7FFF9402104F10800FEF7A2FE47
:1050800009E0104602F068FC0020607001E06570E5
:105090000020FFF79FF90020F2BD0120F2BD2DE9AD
:1050A000F8430C4616460546022221A102F032FCC6
:1050B00000284FF0000838D196F80090307049462B
:1050C000204602F049FC0027AD1C287820281AD081
:1050D0007A08A0F130030A2B38BF30380AD3A0F188
:1050E0006103062B38BF573804D3A0F141010629CC
:1050F0000ED23738A15CFB074CBF401801EB001003
:10510000A0547F1CBFB26D1CB7EB490FDDDB04E080
:10511000F80702D5A15C0909A154012F03D137700A
:105120004046BDE8F2837F08F9E74FF00108F7E752
:1051300030780000582900200EB41EB5024605A89C
:1051400001900024009401AB0121044878440C3004
:10515000FAF7F7FF03B010BC5DF810FBB96400006C
:1051600010B5DFF8404B4021201DFEF72BFE4021FB
:1051700004F14400FEF726FE402104F18400FEF70E
:1051800021FE15202070002010BD00002DE9F84FF1
:105190002DED028B94B0074602224DA102F0BAFB1E
:1051A000012400280FF22C19DFF8F86A10D13846D4
:1051B000FCF74EF8022802D100203070E2E0032212
:1051C00045A100F0EAFC002802BFFF1C307815283A
:1051D00077D10025DFF8D08A58F825A05046FCF793
:1051E00037F80246514600F0D8FC18B16D1C152D59
:1051F000F2DB66E0357096F800B0584658F82000AB
:10520000FCF726F8BBF1150F07445AD000F0C8FC94
:1052100032A500F0C0FC20B131A500F0BCFC002894
:105220004FD129788DF8001007F1010A9DF8000090
:10523000002846D0ABF1010113292AA52AA740D89E
:10524000DFE811F014002F04F5026C038D032D012B
:105250004A016701BE00DF008601A200DB019E015A
:10526000BD01FD01FF0315026502B8023F2843D1CD
:1052700006F1440002F0A9FC002410BB3778380086
:105280001DD0152F1BDA19A100F079FC58F8271052
:1052900002F0D2FD16A100F072FC06F1440102F00A
:1052A000CBFD494600F06BFC301DFBF7D1FF81B20E
:1052B000301DFFF77DF84021301DFEF783FD00F023
:1052C0006FFC337818000BA140F00C8400F016BC82
:1052D000415400000D0A000041542B003F00000023
:1052E0003D000000307800002C0000002B00000082
:1052F0003A0000004F4B00003D28E2D100F047FC8F
:10530000002430B1FCF7F3FC00F027FC8DF804001A
:1053100000E001249DF80400C01E052823D200F0FF
:1053200044FC050006D0FCF7E2FC00F022FC8DF8FE
:10533000050000E0012400F038FC050006D0FCF771
:10534000D6FC00F016FCADF8060000E0012400F0E9
:105350002CFC050006D0FCF7CAFC00F00AFC8DF816
:10536000080000E001249DF804000828A8BF0124DB
:1053700000F01BFC08B10124A3E7002CA1D101A877
:1053800002F0EEFA04469CE73F289AD03D2898D1D7
:1053900000F0FDFB0024050006D0FCF7A8FC00F09F
:1053A000E8FB8DF8010000E0012400F0FEFB00287E
:1053B000E1D1002C85D10DF1010002F043FBE1E7C2
:1053C0003F2804D106F1440002F0ABFC54E73D282D
:1053D000F0D100F0DCFB0024050006D0FCF787FCD0
:1053E00000F0C7FB8DF8010000E0012400F0DDFBB8
:1053F0000028C0D1002CDDD10DF1010002F0FFFA30
:10540000C0E73F2804D106F1440002F08DFC33E7E9
:105410003D28CFD100F0BBFB002430B1FCF767FC86
:1054200000F09BFB8DF8040000E0012400F0BDFBC0
:10543000050006D0FCF75BFC00F09BFB8DF8050037
:1054400000E0012400F0B1FB050006D0FCF74FFCA2
:1054500000F08FFB8DF8060000E0012400F0A5FBB2
:10546000050006D0FCF743FC00F083FB8DF8070035
:1054700000E0012400F099FB050005D0FCF737FCA3
:1054800000F077FB029000E0012400F08EFB002882
:10549000AFD1002C8ED101A802F0BAFA72E73F28F2
:1054A0005DD03D287FF40DAF00F071FB00240500B6
:1054B00006D0FCF71CFC00F05CFB8DF8010000E05E
:1054C000012400F072FB002893D1002C71D10DF162
:1054D000010002F07DFA55E73F2840D03D2868D111
:1054E00000F055FB0024050006D0FCF700FC00F09E
:1054F00040FB8DF8010000E0012400F056FB00287D
:105500007FF439AF002C54D10DF1010002F065FA9F
:1055100038E73F2804D106F1440002F09CFCABE6DA
:105520003D2846D100F033FB0024050005D0FCF7F0
:10553000DEFB00F01EFB019000E0012400F035FBD3
:10554000002873D1002C34D101A802F04FFA19E7DA
:105550003F2804D03D282CD100F019FB07003FF470
:10556000B0AEFCF7C4FB002101600022384602F017
:10557000BAFC8DF801000DF1010002F05EFA01E7BE
:105580003F2804D106F1440002F090FB74E63D2868
:105590000FD100F0FCFA40B100F0D4FA04469DF8B7
:1055A0000100062818BF44F0010400F0FEFA00F0E4
:1055B000E9FA7FF486AE01A802F049FAE2E63F2854
:1055C00004D106F1440002F088FB55E63D28F0D1F5
:1055D00000F0DDFA40B100F0B5FA04469DF8010094
:1055E000062818BF44F0010400F0DFFA00F0CAFA00
:1055F000DFD101A802F036FAC4E63F2804D106F153
:10560000440002F08AFB37E63D28D2D100F0BFFA11
:105610000024050006D0FCF76AFB00F0AAFA8DF81A
:10562000010000E0012400F0C0FA00287FF4A3AEDE
:10563000002CBED10DF1010002F026FAA2E63F28AF
:1056400004D106F1440002F083FB15E63D28B0D1F9
:105650005046FBF7FDFD401C1528BFF432AE514605
:1056600001A802F06DF901A802F013FA8AE63F28BA
:105670004ED03D289DD100F08AFA00245FEA000850
:1056800006D0FCF734FB00F06EFA8DF8080000E05D
:10569000012400F08AFA5FEA000806D0FCF727FB35
:1056A00000F061FA8DF8090000E0012400F07DFAB5
:1056B0005FEA000821D00222294602F02BF958B9EE
:1056C00040208DF84A000DF14A020DF10A014046D2
:1056D000FFF7E5FC044311E0FCF709FB00F043FA97
:1056E00002218DF84A10ADF8040001A90DF10A005D
:1056F0000A7802704A78427000E0012400F055FAFE
:1057000000F040FA07D102A802F0D1F93AE63F28AA
:105710003FF4D7AD3D287FF4D4AD00F038FA002433
:105720005FEA000806D0FCF7E2FA00F01CFA8DF8F8
:10573000040000E0012400F038FA5FEA000806D017
:10574000FCF7D5FA00F00FFA8DF8050000E001240F
:1057500000F02BFA5FEA000822D00222294602F06C
:10576000D9F858B940208DF846000DF146020DF1E8
:1057700006014046FFF793FC044312E0FCF7B7FA3A
:1057800000F0F1F902218DF84610ADF802000DF19C
:1057900002010DF106000A7802704A78427000E0BA
:1057A000012400F002FA00F0EDF948D101A802F05E
:1057B00089F9E7E53F2804D106F1440002F0DAFA5E
:1057C0005AE53D283BD100F0E2F900249FED4C8AD8
:1057D000F1EE0E8A50B100F0BDF900F0AEF905DB34
:1057E00000F0A6F948BF8DED010A00D4012400F0B5
:1057F000DCF988B100F0AEF900F09FF90CDB00F0A5
:1058000097F909D5DDED010AB4EE600AF1EE10FA60
:10581000A8BF8DED020A00DA012400F0C6F90028C5
:1058200074D1002C0BD101A802F064F9AAE53F283D
:1058300004D106F1440002F09DF91DE53D287FF4F6
:1058400040AD00F0A4F90024050006D0FCF74FFAA3
:1058500000F08FF98DF8040000E001249DF80400A9
:1058600000282ED1394602F041FB050006D0FCF796
:105870003EFA00F07EF98DF8050000E0012400F00A
:1058800094F99FEDAA8AF3EE048A50B100F062F910
:1058900000F053F905DB00F04BF948BF8DED020A2B
:1058A00000D4012400F081F900282BD000F052F937
:1058B00000F043F926DB00F03BF923D58DED030A18
:1058C00021E0012808D100204FF084418DF8050027
:1058D0000291DFF8F42311E0022805D10020DFF85F
:1058E000EC13DFF8EC2306E003280BD10020DFF8EF
:1058F000E413DFF8E4238DF805000291039202E03F
:1059000001007A45012400F050F900287FF433ADFE
:10591000002C94D101A802F008F933E53F2804D106
:1059200006F1440002F03AFAA6E43D2887D100F0DF
:105930002EF90024050006D0FCF7D9F900F019F97A
:105940008DF8010000E0012400F02FF900286FD14C
:10595000002C70D10DF1010002F004F912E53F288E
:105960003FF4AFAC3D2866D100F011F900240500EA
:1059700006D0FCF7BCF900F0FCF88DF8040000E05C
:10598000012400F012F9050006D0FCF7B0F900F090
:10599000F0F88DF8050000E0012400F006F905009C
:1059A00006D0FCF7A4F900F0E4F88DF8060000E05A
:1059B000012400F0FAF8050006D0FCF798F900F091
:1059C000D8F8ADF8080000E0012400F0EEF805007A
:1059D00006D0FCF78CF900F0CCF8ADF80A0000E036
:1059E000012400F0E2F8050006D0FCF780F900F091
:1059F000C0F88DF80C0000E0012400F0D6F8050096
:105A000006D0FCF774F900F0B4F88DF80D0000E052
:105A1000012400F0CAF8050006D0FCF768F900F090
:105A2000A8F88DF80E0000E0012400F0BEF8002870
:105A30007FF4A1AC002C7FF444AC01A801F0AFFFCF
:105A4000A0E43F2804D106F1440002F085F96BE799
:105A50003D28F0D100F09BF80024B8B100F07AF8AE
:105A600000209E49C2B201EB8202D2ED000AB4EEE0
:105A7000600AF1EE10FA04D0401CC3B2802BF1D3BF
:105A800004E08DED010A8DF8080000E0012400F02B
:105A90008CF80028CCD1002CCDD101A802F000F860
:105AA00070E43F2804D106F1440002F0B9F83BE766
:105AB0003D28C0D100F06BF80024050006D0FCF7AB
:105AC00016F900F056F88DF8010000E0012400F00E
:105AD0006CF80028ACD1002CADD10DF1010001F023
:105AE00056FF4FE4B3F1150F85A006DA04B1014665
:105AF00000F045F84946301D03E0014600F03FF84C
:105B0000494602F099F9301DFBF7A2FB81B2301D26
:105B1000FEF74EFC4021301DFEF754F9152014B05D
:105B200030702046BDEC028BBDE8F28F01002046AC
:105B3000B4EE480AF1EE10FA7047B4EE680AF1EEDE
:105B400010FA704706218DF801100DF1010201A92C
:105B5000FFF7A5BA002102F01DBB00210160002261
:105B6000504602F0C0B9002101600022404602F018
:105B7000BAB9002101600022284602F0B4B9301DF4
:105B800002F05AB908B144F00104200070473946C8
:105B9000504602F0ABB901222946384601F0BABEA0
:105BA000402106F14400FEF70DB93946002002F00D
:105BB0009DB900002DE9FC410D468046012639497A
:105BC00008781528FCD14046062868DA01F18404DB
:105BD00036A137A60A78227036A74A786270404A02
:105BE00052F82010204602F027F933A102F024F9E0
:105BF000B8F1050F44D8DFE808F00333333033350C
:105C000000F074F800F06EF8314602F015F96A7889
:105C100000F06DF800F066F8314602F00DF995F8E5
:105C2000F7000228B8BFAA7824DB24A1684602F056
:105C3000C1FA00F057F800262FA795F8F710F0B238
:105C400088421DD2A81CF2B23946825C684602F036
:105C5000B1FA00F047F8761CEFE72A6818A10AE0CD
:105C60002A7807E000F042F800F03CF8314602F0F4
:105C7000E3F86A783946684602F09CFA00F032F898
:105C800010A1204602F0D8F8FBF7E2FA81B22046D4
:105C9000FEF78EFB064640212046FEF793F830467D
:105CA000BDE8F68154240020AC2000203C00000018
:105CB0002C000000256400003D000000307800004A
:105CC000256C64000D0A0000000040420000904373
:105CD0000000A0430000C84400007A452C200020AA
:105CE000102200206946204602F0A6B82A783946DC
:105CF000684602F05FBA00002530327800000000EC
:105D00004552524F5200000078B591B0DFF8C44AB6
:105D100002A821463C22FBF7D1FADFF8BC5A0FF665
:105D20009D260FF6812000950196694602F062FAE1
:105D30000121022000F051FFDFF8A02A00210220FB
:105D400001F063FC02A801F075FD38B1014604F1D1
:105D50003C00FFF7F1F9FEF792FB03E004F1740059
:105D6000FFF7EAF90020DFF8781A0026002221F870
:105D700010200A2343430B44D4B2521C03EB4405C6
:105D8000D3B2042B6E81F4DD401C0428EEDD0FF24B
:105D9000B5620021082001F038FC0FF2B172002139
:105DA000102001F032FC0FF251520021202001F0AE
:105DB0002CFC0FF225720021402001F026FC0FF28E
:105DC000A9720021802001F020FC0FF63D02002185
:105DD0004FF4807001F019FC0FF6450200214FF4DA
:105DE000007001F012FC0FF65D0200214FF480609C
:105DF00001F00BFC0FF6690200214FF4006001F086
:105E000004FC0FF6790200214FF4805001F0FDFBF5
:105E10000FF6B10200214FF4005001F0F6FB0FF62F
:105E2000B90200214FF4804001F0EFFB0FF6AD0204
:105E300000214FF4004001F0E8FB0FF6F9020021C9
:105E40004FF4803001F0E1FB0FF6411200214FF4D6
:105E5000003001F0DAFB0FF29943DFF888190022D5
:105E6000002001F069F812B070BD2DE9FE43044630
:105E7000DFF874596078DFF87469DFF87499DFF837
:105E80007489052805F1800705D03E2816D0FF2823
:105E900000F08D80C4E0A188E88A8142FAD1002117
:105EA000E9823970C9F8001031604046FFF744F9C3
:105EB00000218DF8001001206946A2E0E078012859
:105EC00047D0032802D00C281FD0A9E008F12800F1
:105ED000FFF732F9E07900EE900AB7EE040AF8EE27
:105EE000600A60EE800AC9ED000A0122E1798DF8AE
:105EF000022001EE101AB8EE411A21EE000A86EDDA
:105F0000000A0DF1020102207BE00FF6C010FFF73E
:105F100013F9207900280CBF08F1540008F17C0027
:105F2000FFF70AF9E88A0DF1030201A902F08CFAE1
:105F300060B90FF6B410FFF7FFF89DF803209DF845
:105F400004100FF6B810FFF7F7F869E00FF6C81065
:105F50005CE0E07B00EE100AB8EE400A89ED000A32
:105F600008F1A400E17B00EE901AF8EE600AC6ED9D
:105F7000000AB4F80510FFF7DFF8387804280CBFE2
:105F8000062005203870694601208DF80000FFF7D3
:105F900011FEB4F80500E882B4F8050002F08DFBAC
:105FA000002814BF0FF6881008F1E8002EE0B4F8BE
:105FB0000300001F2DD04FF47F71401A08D0401EFF
:105FC00016D0401E07D0401F1ED0801E0AD027E0EA
:105FD00008F586701AE001208DF801000DF101012D
:105FE00004200EE0D4F80700029002A9032008E084
:105FF000E0798DF806000520217A8DF807100DF163
:106000000601FFF7D7FD0BE008F59E70FFF794F847
:1060100006E0012002F0D6FB78780A2100F0FAFFB2
:106020000120BDE8FE832DE9F04F0FF62010DFF8C8
:10603000C8A70088DFF8C457DFF8C467DFF8C44793
:1060400089B0ADF81A0002F0A9F99AF80000297891
:1060500050EA010231D1DFF8B0773A46062100203C
:1060600002F0D0FB20B101462046FFF765F810E0B2
:1060700004F16400FFF760F838787978FB783A79B2
:1060800002900191B8787979009004F1B800FFF797
:1060900053F87879307239797172F878B072B978CA
:1060A000F172787830733978717300F002F9014633
:1060B00006223846FBF702F973E004F5D67704F5BB
:1060C000AC7804F1F4090129DFF840472AD160795E
:1060D00040F0C0006071224606212E2002F092FBA3
:1060E00020B101464846FFF727F80EE04046FFF78B
:1060F00023F82078029061780191A0780090E378ED
:10610000227961793846FFF717F860793072217982
:106110007172E078B072A178F17260783073217892
:1061200071733EE001283CD10DF11C0BDFF8E00655
:1061300007904CF22211CBF80410062207A9204642
:10614000FBF7BCF8C120222130727172AA20BB215A
:10615000B072F172CC20DD213073717307AA062171
:106160002E2002F04FFB20B101464846FEF7E4FF27
:1061700017E04046FEF7E0FF07A8079B0278079864
:10618000DBF8041002921B041B0E01930002000EA8
:106190000090CAB2079B09041B0E090E3846FEF791
:1061A000CBFF0FF6EC0700F07FF80FF6F40400F0D9
:1061B00076F800F079F800F072F8DFF85806017808
:1061C000012002F035FBDFF8501606F1110001F056
:1061D000B7FB02F093F90DF1160006A901900091AA
:1061E00005AB07220021012002F024FC06F110007B
:1061F000FBF72EF806F111010091431EBDF81810AF
:10620000BDF81400DBB2002202F034FA0DF11A00DE
:1062100000900223BDF81610BDF81400DFF8C86521
:10622000002202F027FA02220221002002F034F9B3
:1062300002F027FEDFF8E4050078307002F09DFBE5
:10624000DFF8DC05DFF8DC250178717008211078B3
:10625000F07071711020DFF8D015B071DFF8CC0547
:106260000A780368DFF8C805B360327102920393BD
:1062700010220078B070019208232D789AF800104F
:10628000F27800930D4371780495002302F089FBA6
:10629000B07808B102F03EFC09B0BDE8F08F2246AC
:1062A0001021082002F0AEBA3A461021182002F060
:1062B000A9BA80B5DFF87C150A6812F1010F0ED07B
:1062C000DFF874054B6802701B0A120A42701A0A42
:1062D0004968C37081701B0C0271437102BD0020BC
:1062E00000F062FC08B90FF2A07002BD00000000CF
:1062F000012002F06FBA0000F0B5DFF84055DFF87A
:1063000000452878DFF81075FF26012887B012D1E4
:106310000FF258600168396009224168796022747F
:1063200000F08AF80D2121700120A0708321667091
:10633000E170002012E0022813D106220FF234612E
:106340003846FAF7BBFF0920207400F075F80D20DD
:106350002070012100206670A170E0706060A06074
:10636000A08102F0B7FDFFF75EFE2878DFF87874B1
:1063700001280AD102F0F3FD02F0EAFE0021398380
:106380008020A021A083E18319E0022817D102F028
:1063900023FF02F075FF03F013F802207876012145
:1063A0000D20B87607F119023976022018213876C7
:1063B0001154032038768021A020A183E083A58B8F
:1063C000E68B97F880100FF28850FEF7B5FE01209B
:1063D00087F8800004F11000FAF73AFF00210691D7
:1063E0000591C0B2397E019007F11903049303911E
:1063F00000200090DFF80434DFF8FC131B780878E5
:1064000004F110020292034332462946002002F0B2
:1064100062FA21460E2002F05DFB0100DFF8200445
:1064200004D107B0BDE8F040FEF786BE07B0BDE876
:10643000F0402830FEF780BE394604F1110001F02B
:106440007FBA000078B5DFF8FC03DFF8FC43007882
:1064500087B038B902F02DFA002814BF0FF21C5093
:1064600020462EE0012835D1DFF8945305F11000C5
:10647000FAF7EEFE0023059300930022C0B20692C5
:10648000019005F11002DFF87433DFF85C131B781C
:10649000029201F11906097EDFF8B02312880391F8
:1064A0000496DFF854130878DFF8A413098803432F
:1064B000DFF8A003007802F00EFA010003D104F126
:1064C000240008B0FAE004F1480008B0BDE87040CC
:1064D000FEF732BE08B070BD30B585B001A80FF22E
:1064E000BC41DFF874431022FAF7E8FE21888DF8EA
:1064F0001010090A8DF8111002F0C3FCCF48B849FA
:106500000278DFF858331B7801EB4205DFF85013AF
:106510000978A81F012906D10090012221460120F7
:1065200002F000F807E0022909D10090012201A938
:10653000022001F0F7FF10B90FF2704001E00FF2F6
:106540008C40FEF7F9FD05B030BD0000AC480D21D0
:106550000170FF220123002142708370C1704160ED
:10656000816081815FE50000F8B58AB006A80FF26E
:106570007441BC4CBC4F1022FAF7A0FEBB4ABC4B86
:1065800011881878964B2578BA4C3F7824788DF886
:106590002410090A8DF825100A2111FB00F1194475
:1065A00001EB4506A6F1160103EB4000B24BB34DDB
:1065B000B34E1B882D783678012F0CD105910A2710
:1065C00001210491039702960195009430F8060C7E
:1065D00001F0F6FF0FE0022F10D105910A220121F0
:1065E0000491039202960195009406AA30F8060CD5
:1065F000022101F0E5FF08B9A24801E00FF2F430F2
:10660000FEF79AFD0BB0F0BD774910B5C88A9E4CD5
:1066100002F047FA00280CBF204604F12C000DE0E0
:106620009A48714A10B50178D08A994C02F0C2FAA2
:1066300000280CBF204604F12C0000BFBDE810402C
:10664000FEF77ABD80B59348674A0168D08A02F0A8
:10665000D7F900280CBF90480FF2B8300AE00000CC
:1066600080B56E49087802F088F900280CBF8B4885
:106670000FF2BC30BDE80240FEF75EBD78B5884839
:106680006A4A017868481368654E864C85B01022C6
:1066900004910725017863480192009502910278E0
:1066A000634D317828780393002302F07AF90028AB
:1066B0000CBF204604F12C0006B000BFBDE87040BE
:1066C000FEF73ABD80B502F037FA00280CBF7648D5
:1066D0000FF27830CEE7000001F060BE4FF4FA70A0
:1066E0004249F7EE040A38B500900023404891ED86
:1066F000000A90ED001A3C4D6C4CE88AC0EE200A6E
:10670000B7EE040A81EE000AFDEEE00ABDEEC00A13
:1067100010EE902A10EE101A92B289B202F08CFE9E
:1067200000280CBF204604F13000BDE83240FEF7DF
:1067300003BD00005E4A5F485F4980B5127800786B
:106740000978012A07D1022908BF01281DD1BDE817
:10675000014002F02DBD022A13D10129574A02D16E
:106760005080002001E0032900D19080911C42F666
:10677000372002F0D0FD00280CBF51480FF2EC206A
:1067800078E7BDE8014002F0C3BE01BD02F0D6BE0D
:106790000021022000F047BF012000F066BF012069
:1067A00000F06BBF10B50446616801F1080002F00B
:1067B000F5FE00B10120207010BD0000414910B16C
:1067C000012803D07047084600F03DBF084600F09E
:1067D00042BF000060AE0008AC080320338200080E
:1067E000A82A002051270020D0260020C02B0020FE
:1067F000BC2B00205CA900087E2A00207D2A0020F6
:10680000F021002074A70008682A0020702A0020C8
:10681000DDCCBBAA7F2A0020942A0020252C002052
:10682000792A00207A2A00207B2A0020842A00204E
:10683000782A00208075FF1FAC2B0020A62B00209B
:1068400038B10008262C002008B00008902A00204B
:106850008C2A0020812A0020AA2B0020A82B0020AF
:10686000A72B00209D2B00209E2B0020A22B002078
:106870009C2B00209F2B0020A42B0020A02B00206D
:10688000A12B002034B400086CB20008242C002096
:10689000C0B200080C2C0020ACB40008D0B4000832
:1068A0007C2A002014B300085CB4000890B10008F2
:1068B000A0290020A4290020A12900205C2B002071
:1068C000F4B40008FFFF0300704700004556545F12
:1068D0005550444154455F5048595F434F4D504CCB
:1068E000455445200A000000526561645F504859D4
:1068F0002073756363657373200A00005048592044
:10690000506172616D202054583D2025642C205226
:10691000583D202564200A005265616420636F6E33
:1069200066206E6F742073756363657373200A004D
:1069300065786368616E67655F636F6E6669672C13
:10694000204661696C6564200D0A0D00400300005B
:10695000466972737420696E64657820696E2025BB
:1069600064207374617465200A0000005032505333
:1069700052563100485253544D0000006E6F6E2045
:10698000646973636F76657261626C652C20466121
:10699000696C6564200D0A0D000000008FE5B3D519
:1069A0002E7F4A982A487ACC000000004164642077
:1069B000736572766963652C2053756363657373C1
:1069C00066756C6C79200D0A0D000000416464202E
:1069D000736572766963652C204661696C65642015
:1069E0000D0A0D0019ED82AEED214C9D4145228E20
:1069F0000000000041646420636861726163746533
:106A00007269737469632C204661696C6564200D3A
:106A10000A0D0000506173735F4B65795F526573B7
:106A20007028292C204661696C6564200D0A0D00D0
:106A3000494F5F4361706162696C69747928292CE0
:106A4000204661696C6564200D0A0D00436C656128
:106A5000725F73656375726974795F646228292C4B
:106A6000204661696C6564200D0A0D004852535F31
:106A7000557064617465436861722C204661696C6D
:106A80006564200D0A0D00000000000000000000F9
:106A9000123456789ABCDEF0123456789ABCDEF086
:106AA000FEDCBA0987654321FEDCBA09876543210C
:106AB00010B500F184010A78012A01D1022010BD2D
:106AC00001220A7024234B6002681368146864086A
:106AD000640014600022426623F0005300680360E3
:106AE00020224A6000230B70002010BD70B500F01A
:106AF0001FF801D1022070BD00F020F822F06042A2
:106B000009E070B500F014F801D1022070BD00F06A
:106B100015F822F0606211438160204600F01CF8F5
:106B2000206806602021696000222A70002070BD64
:106B3000044604F184052878012870470120287054
:106B400024226A60206806680268520852000260C7
:106B5000206882687047000030B5416E11B901228B
:106B6000012114E0026800BF0BA49168D2F808204C
:106B70000BA3490E01F00701520FA55C645C9A5CFF
:106B8000595CED00E40095FBF2F294FBF1F1683002
:106B90004280018030BD00000101010307010000B7
:106BA000080402040801010120B501460648074D0A
:106BB00000E00838C2798A4218BFA842F9D18A4257
:106BC00018BF002020BD00BFF873FF1F0070FF1F1B
:106BD0000D48002101604160704710B500F007F8D2
:106BE0005C6800F009F85C6082F3108810BDEFF378
:106BF000108272B6044B704719B1012902D10443C7
:106C00007047844370470000DC2B0020DFF85415E8
:106C10000A6892B200E00246086880B28242FAD165
:106C20007047F0B5DFF84055DFF840352E78182270
:106C300004465443B0421C4404D128786870627DF5
:106C40002A700FE0267D607D94F815C003F11507CA
:106C50005643062807F806C004D0267D143312FBDD
:106C600000F29E54012020732A78062A02BF0029D0
:106C70004FF0FF30E860F0BD10B5DFF8EC44E0689D
:106C800010F1010F0ED0FFF7C1FFE16881422FBF65
:106C9000E268E168E2888A182179101AE2784843AC
:106CA000D04000E0002080B210BD2DE9F047DFF8B1
:106CB000C084DFF8C004D8F8006001684A0502D536
:106CC000F0684107FCD4B068DFF89C74DFF89CA43E
:106CD00020F48060B0604FF018093D780AF1080098
:106CE00019FB05F14458FFF7C7FF844202D2002484
:106CF000012105E039894118A14203D23C890021D4
:106D0000B97013E00122241ABA700FE019FB05F5DF
:106D10000AF108035F59874226BF5959091A002111
:106D20000AF1080251510AEB05014D7D062DEDD106
:106D3000DFF83474A0B238B9FFF768FFF8600320B9
:106D4000BDE8F047FDF715B8022802DAF878012807
:106D500000D0641EF0684107FCD5F06800F06CF8C4
:106D6000F06000F051F9DFF80C04C16864F30F0122
:106D7000C160FFF74BFFF860D8F80000816841F46C
:106D800080618160AFF30080BDE8F0872DE9F843B2
:106D9000EFF3108472B6DFF8D853DFF8D0332A68E7
:106DA000CA205062532151629068DFF8BC1320F46E
:106DB0008060906018200E78374647431F4497F84C
:106DC0000CC0BCF1020F26D1D7F80080D7F8109084
:106DD0008878E8B17A7B012A0AD101213046FFF791
:106DE00020FF84F310887968304600F013F904E03E
:106DF00084F31088304600F0C7F82868CA21416241
:106E00005322426231464246484602F0F1FB0EE010
:106E1000FFF74BFF09E0D0684107FCD5D06800F0D0
:106E20000BF8D0604FF40020086084F31088FF2234
:106E300028684262BDE8F183DFF83C1300F080006F
:106E400060F490607047F8B5C94CCA4D2168CA22F9
:106E50004A6253234B624FF6FF7C2A6842F02002BD
:106E60002A602A68AB68AD681B0C03F07F03C5F38A
:106E70000E055B1C6D1C6F1E1E4602F0070216FB02
:106E800007F6C2F10402A6F5A076D640B64F6645D5
:106E90002CBFA7F808C03E81FA703B71FD80B74A4D
:106EA000136843F400231360B54B1D6845F40025B7
:106EB0001D6070BB0120B8704FF0FF31F9600020F9
:106EC000AA49002301F10C0418255FFA80FC15FB88
:106ED0000CFC401CC6B204F80C30062EF5DB062074
:106EE0003870A34C2068816821F480618160C1689A
:106EF00001F0800161F49061C16003204FF4002132
:106F0000D160FCF741FF2068816841F480418160D5
:106F100005E0C868410544BF0320FCF72AFF21684B
:106F2000FF204862002203210320FCF7DAFEBDE8BF
:106F3000F2400320FCF7F2BE2DE9F04104460025A3
:106F4000EFF3108672B61827DFF820C20CF10C0E92
:106F500007FB05F81EF8080010B16D1C062DF5DBC7
:106F6000062D0CD06F430CEB07000127077386F347
:106F700010880461427303600D70002002E086F304
:106F800010880120BDE8F081F8B50446EFF31085C4
:106F900072B60320FCF7CDFE754E7A493768CA20D9
:106FA00078625323224618207B6242438B5C022B7B
:106FB00021D100212046FFF734FE6B4801780629D5
:106FC00014D16C4801684A0502D5F8684107FCD421
:106FD000B86820F48060B860F8684107FCD5F868AC
:106FE000FFF72AFFF86000F00FF804E040788842CD
:106FF00018BFFFF75AFE3168FF2048620320FCF7F4
:107000008DFE85F31088F1BD4FF400200860032049
:10701000FCF7BABE2DE9F84F04468A4618252146EA
:10702000524E69437718387B022804BF2046FFF789
:10703000ABFFEFF3108872B60320FCF77AFEDFF89F
:107040003091D9F80000CA214162532242620220E5
:107050003873C7F808A0C7F804A0DFF80CA19AF8A5
:107060000000062808D100F075F878754FF0FF3160
:10707000CAF80C10002056E0FFF7FEFDB9680918A9
:10708000B96006F10803B9689AF800206A439A5873
:1070900091422AD39AF8002004E006F1150E6A43C3
:1070A0001EF8022006F1150315FB02FC13F80C3044
:1070B000062B06D006F1080C6B435CF803309942AE
:1070C000EBD21146694306F1150E1EF80130062B6E
:1070D00005D006F1140C15FB03F50CF805407B7583
:1070E0003A7506F1150254541DE09AF800109AF80A
:1070F00000C0614515FB01F20FD006F1140B06F13B
:10710000150C1BF8023015FB03F50CF805407975DA
:107110003B7506F114018C5403E006F114037975F4
:107120009C5400F017F89AF800109AF801208A424F
:1071300002D0FFF7BAFD02E0B968081AB860FF2074
:10714000D9F8001048620320FCF7E8FD88F31088A6
:10715000BDE8F18F9AF800108AF801108AF8004013
:1071600070470000282800406C2B0020402600209B
:10717000D4270020082800400C08005800080058B8
:10718000800800584C2600203E4900E03E4981B06E
:107190000A6802430A60096808400090009801B03C
:1071A0007047F0B585B0FDF77AFBFDF77AFB3748FD
:1071B000016841F480310160002602F036FA1421A2
:1071C0006846FCF7FFFD002500240021304A02EB51
:1071D000C102907988B11368B3F1904F0BD02D4F55
:1071E000BB4205D02C4FBB4207D19088044304E03A
:1071F0009288154301E090880643491C2629E5DB67
:10720000012101910020032231000290039211D04C
:1072100000960120FFF7B8FF0120FFF7B7FF69468E
:107220004FF09040FDF74CF9002231464FF090406E
:10723000FDF707FA280010D000950220FFF7A4FF01
:107240000220FFF7A3FF134E69463046FDF738F9D9
:10725000002229463046FDF7F4F9200010D00094B2
:107260000420FFF791FF0420FFF790FF0A4D6946C5
:107270002846FDF725F9002221462846FDF7E1F9C9
:1072800005B0F0BD4C0000584C0100589008005863
:10729000C4AA0008000400480008004800B587B0F0
:1072A0004FEA0D0009A11C22FAF708F800F0DDF8FA
:1072B000684600F0C7FA07B000BDFDF73AB81346BC
:1072C0000A4601460020FCF770B8000000000000EC
:1072D0000000000000000000C4AA000828000320ED
:1072E0002C0003202604040002F05DBA6D486E49AC
:1072F000016001F12002426001F13003836001F17D
:107300004002026201F14803436201F15002C2608F
:1073100001F15803036101F17402426101F1780344
:1073200083618431C16102F05CBA38B504465F4DB7
:10733000284602F0CDFA5B494868A1680160E2681E
:107340005B49C2604160856002F067FA59482AE0F3
:1073500080B554484268136801211972406802F0F0
:1073600064FA002002BD38B5524C504D04E000F0E4
:1073700041F8009821688847284602F0ACFA0028B6
:10738000F5D031BD4B494868004738B504464A4DF1
:10739000284602F09DFA4349C868A168016045602B
:1073A00002F048FA454821680160626842600020A6
:1073B00032BD80B53B48C268136810211972C0689D
:1073C00002F043FA002002BD36483C4AC168C36857
:1073D00011681868084738B5384C374D04E000F09C
:1073E00009F8009861688847284602F074FA002876
:1073F000F5D031BD6946284602F096BA38B5044644
:107400002F4D284602F064FA2E4802F061FA254812
:107410000069A1688160E268C2600561216801605D
:1074200062684260216941616269826131BD80B5F3
:107430000146244802F062FABDE802400FF209005A
:1074400002F011BA0000000038B5164C1D4D06E0E0
:10745000FFF7D0FF00992069006902F04FFA284633
:1074600002F039FA0028F3D031BD10B5164C204691
:1074700002F02EFA0B4948690460BDE8104002F0A2
:107480000BBA1CB5104C06E06946204602F04CFAD7
:10749000009802F05BFA204602F01DFA0028F3D0B3
:1074A00013BD000000000320B8090320580A032080
:1074B0009C080320EC2B0020600A0320F42B002002
:1074C000480A0320E42B0020500A03202DE9F84F3E
:1074D0007D4CDFF8F8912569284020614FF0FF3A94
:1074E000A06800904FF0010B6669E768D4F8188037
:1074F00019E062680BFA01F122EA01016160666835
:107500008047606806406660E06902F020FAA06883
:1075100000906669E768D4F81880E169206A0BFA80
:1075200001F108432062009822693840104250D08F
:1075300016EA080F4DD1002007EA020100E0401CC6
:1075400054F830301942FAD054F8301004EBC0032C
:10755000394058680A40104208BFC3F804A0A06828
:10756000D4F820C059686CEA010C20EA0C0012EA39
:10757000000118BF0A4608B94FF0000C5868C4F85B
:1075800020C0104000F0A4F8E061EFF3108172B663
:107590000BFA00F2A068D2431040A060012004EB77
:1075A000C003401E53F808CC02EA0C0C43F808CC88
:1075B000F5D181F31088E06902F0CAF9E169202968
:1075C00003D259F82100002893D1002002F0C1F91C
:1075D000A9E7C4F81CA0A069064213D102F0BAF9C9
:1075E000EFF3108672B6A2686169E0682369024011
:1075F0001A4202BFA0690142FDF7D3FA86F3108850
:1076000002F0A9F92561BDE8F18F38B5144600F004
:1076100006F82E4941F8204085F3108831BDEFF37C
:10762000108572B654E030B5EFF3108272B6264B77
:107630009C6804439C6053F83150284343F8310060
:1076400082F3108830BDEFF3108172B61E4AD36802
:1076500023EA000005E0EFF3108172B61A4AD368FE
:107660001843D06081F310887047EFF3108172B631
:10767000154A536918435061F4E72DE9F041124D62
:10768000EE690446374616F1010F0EBF00260120B1
:1076900000FA06F6D5F81880AC6103E021463046C2
:1076A00002F05AF968692042F8D0EF61EFF31080D8
:1076B00072B6696921EA04046C6180F31088C5F828
:1076C0001880BDE8F0810000CC2100205427002064
:1076D000B0FA80F0C0F11F00C0B270477FB50C4611
:1076E0004E4D61684E4E28626962281D02F038F9DD
:1076F0002468746006F1080002F0EAF8012000F046
:1077000069F801203070696841B10FF2ED020FF2A3
:10771000F103009201930294684688477FBD1FB52C
:107720003F4C04F1080002F0D6F8F8B92078E8B12F
:10773000694604F1080002F0F7F83848016A49B1D7
:107740000098029001228DF8042001A888479DF836
:10775000040000E00120207018B10098FFF767FED8
:1077600004E0009904F1080002F0BEF804F10800FA
:1077700002F0B1F828B9207818B104F10800FDF73B
:1077800011FA1FBD2DE9F04105460E4690461C46F4
:10779000002000F01FF8224F7868A0F80950C67248
:1077A000324641460C30F9F789FD1C4A0120107021
:1077B000002152690020904748F2E800FDF7FAF9ED
:1077C00079688A78D21C04F10800F9F777FDBDE8E2
:1077D000F041012010B51149124C496A20B901B19C
:1077E00088470021217010BD0120207011B1BDE833
:1077F0001040084710BD00000020FDF7D8B9000078
:1078000010B50146064C04F1080002F077F804F1C7
:107810000800BDE81040FDF7C5B90000142B00209A
:107820008C2B00202A2C0020FFF7ACFF9DF80E00C7
:1078300005B000BDF8B500F10C026B462F214FF6E4
:107840006640F1E7F8B500F10C026B460F214FF6E8
:107850006840E9E7F8B502466B4610214FF67540DF
:10786000E2E7F0B51C491D4B0A681D49C2F30D0241
:1078700001EB82010D682A689A4205D16969AA69FB
:10788000EB69EC682D6905E02E4631697269B369D0
:107890007468B5680E0E06700F0C47700E0A86707D
:1078A0000272C1F3031601F00F010171C670110ECF
:1078B0004171160C110AC171220C210E8172C27223
:1078C000240A290E2A0C8671437204734173827351
:1078D000C5730020F0BD00003C400058B95646A9D1
:1078E0000000032010F8012B11F8013B0AB19A4265
:1078F000F8D0D01A7047000000680549C0F3004274
:107900005201012300F01F0003FA00F08850704775
:10791000080800588AB10B7890F800C09C4506D141
:1079200010F8013B4BB1491C521EF4D105E002D2C4
:107930004FF0FF3070470120704700207047000073
:107940005FEA000C11F8012B00F8012B12B111F8BD
:10795000012BF9E760467047002202F00BB80000E7
:1079600010B50178DFF854240229117008DD417840
:10797000517000214388938004799470402002E084
:1079800019B100212020FFF74EFE002010BD80B568
:107990000278DFF82C341A700021102014E080B532
:1079A000DFF8201402780A7043784B7082788A706E
:1079B0008388CB80C2880A81037ACB70427A0A71AD
:1079C000837A4B7100218020FFF72DFE002002BD3D
:1079D00080B500214FF48070F6E780B50278DFF8BB
:1079E000E8331A7000214FF40070EDE780B50268AB
:1079F000DFF8D8331A6000214FF48060E4E780B5E7
:107A00000278DFF8CC331A7000214FF40060DBE716
:107A100080B5DFF8C01302780A7443784B7482781B
:107A20008A74C3784A7DCB744068C861887D0243FC
:107A30000A7500214FF48050C6E780B500214FF44D
:107A40000050C1E780B500214FF48040BCE710B57D
:107A5000DFF8801300224A7500F010F86371FBD341
:107A6000002010BD10B5DFF86C1301224A7500220A
:107A700000F004F86373FBD3002010BD5442835C14
:107A80000C44521C062A70470078D24988750020A1
:107A9000704780B50146D048FFF752FF002002BD75
:107AA000CC4902680A620079C8750020704738B571
:107AB0000446CA4D00F015F894F84210A9704FF42E
:107AC000803009E038B50446C54D00F00AF894F856
:107AD0004210A9704FF400300021FFF7A4FD0020F0
:107AE00032BD20782870402263786B70A11C281D5D
:107AF000F9F7E4BB80B5BB49D0ED000AC1ED000A3F
:107B0000F5EE400A90ED010A81ED010AF1EE10FA5E
:107B10001CBFB5EE400AF1EE10FA04D000214FF47C
:107B20000040FFF780FD002002BD0178A94A1176D0
:107B30004378537690ED010A61B9F6EE040AC0EE7F
:107B4000200AC2ED090AF6EE040A90ED020A80EE60
:107B5000200A03E082ED090A90ED020A82ED0A0A8A
:107B60000020704780B502789F4B1A7000210820D2
:107B70002AE7000038B5974D04462DED028B697D4C
:107B8000A87D95ED0A0A86B0B6EE048A01430491F9
:107B900020EE080A10EE100A01F0F6FECDE902010F
:107BA000D5ED098A28EE888A18EE100A01F0ECFE5D
:107BB000CDE900016B7E2A7E8DA1204600F0FAFA05
:107BC00006B00020BDEC028B32BD2DE9F0438046AB
:107BD0007A4802780025032A85B074A604DA314673
:107BE000404600F0E7FA17E0002771A4DFF8FC91A7
:107BF00039F8170068B11DB12146404600F01CF964
:107C0000FA1C314600F086F86946404600F014F947
:107C100001257F1C052FEBDB002005B0BDE8F083BC
:107C20002DE9F8416B4F0FF2DC187A7D0446B87DE0
:107C3000024385B05EA55FA120460DD100F0FCF89F
:107C4000052670B2414600F064F800F042F8761E56
:107C500070B20028F5D50EE000F0EEF8052670B2FF
:107C600038444146027A00F055F800F032F8761EAA
:107C700070B20028F3D500F015F807F12C0100F0E0
:107C800012F800F00FF8386A01F07EFE02460B464B
:107C90005EA1684600F08EFA00F01BF8002006B0E6
:107CA000BDE8F0812946204600F0C6B8F0B585B0A1
:107CB000044640A100F0C0F800F026F868B2314652
:107CC00000F027F800F005F86D1E68B20028F5D521
:107CD00017E06946204600F0AFB8F0B585B004461D
:107CE00034A100F0A9F800F00FF868B2384431462A
:107CF000027A00F00FF8FFF7ECFF6D1E68B2002863
:107D0000F3D5002005B0F0BD5FF005053DA6314F6D
:107D100070473A5C684600F04DBA80B52D4B9A7DAD
:107D20003FE080B52A4B3BE01FB52A4A937D517D49
:107D3000947C00940B430393D369D17C029301910B
:107D4000537C127C33A100F035FA002004B010BD42
:107D500080B5214A18A125E038B51E4D0446286A91
:107D600001F012FE02460B4628A1204600F022FA3E
:107D7000002032BD3EB51B4D0446686801F004FE8C
:107D8000CDE90001286801F0FFFD02464FEA01033A
:107D900026A1204600F00EFA00203EBD80B5124B11
:107DA0001A7802A100F006FA002002BD2564000046
:107DB0002C0000003078000025730000A62B002066
:107DC000272C00209C2B0020242C00200C2C002091
:107DD000252C0020682A0020942A0020A0290020B9
:107DE000E4290020BC2B0020262C0020A82A0020FB
:107DF00025642C25642C252E31662C252E31662CED
:107E0000256400002530327800000000252E3266FF
:107E10000000000025642C25642C25642C25642C8E
:107E20003078256C782C256400000000252E326601
:107E30002C252E3266000000034600E05B1C1A78F9
:107E4000002AFBD111F801CB83F800C013F8012BF5
:107E5000002AF7D17047012070472DE9F84380468A
:107E60000C0091461D4608BF6C46474600E07F1C4B
:107E7000387801F0ADFD0028F9D13E782D2E18BFDD
:107E80002B2E05D117F8010F01F0A2FD08B109E072
:107E90002B262B464A462146384601F0A3FD216891
:107EA0008F4204D1C4F800800020BDE8F2832B2E5D
:107EB00004D1B0F1004F06D2BDE8F2832D2EFBD1E4
:107EC000B0F1004F0CD9F9F709FF0DB1012028607E
:107ED0002D2E14BF6FF000404FF00040BDE8F2833C
:107EE0004042BDE8F2830023B7E7000038B5040044
:107EF0000D460BD02946204601F00CFE04442078A4
:107F000048B90C4800210160002032BD09490C68C5
:107F1000002CEFD132BD2946204601F00CFE21187D
:107F2000087810B1002201F8012B024801602046B8
:107F300032BD00BF142C002038B52DED028B04009B
:107F400082B00D4600F09E8010EE100A410000F055
:107F500099804200121612F1010F02D1400200F086
:107F60009180002CB7EE008A3DD564428BA105209C
:107F700008E0E20744BFD1ED000A28EE208A640839
:107F8000091D401E002C18BF0028F2D1684601F0E0
:107F9000E3FD009880EE080A01F002FE10EE100AE0
:107FA00041005DD04200121612F1010F01D14002D2
:107FB00056D0002C54D0684601F0CEFD0098DFED7D
:107FC0006E0A20EE200A01F0EBFD10EE100A4100CF
:107FD00046D04200121612F1010F01D140023FD0EB
:107FE000641EE8D13CE03BDD6CA10520E20744BF04
:107FF000D1ED000A28EE208A6410091D401E002CD5
:1080000001DD0028F2D1684601F0A6FD009820EEBF
:10801000080A01F0C5FD10EE100A410020D0420010
:10802000121612F1010F01D1400219D0002C17DDF8
:10803000684601F091FD0098DFED500A20EE200A1D
:1080400001F0AEFD10EE100A410009D042001216F8
:1080500012F1010F01D1400202D0641E002CE7DCB6
:1080600010EE100A410006D04200121612F1010F64
:1080700008D1400206D1F9F731FE1DB1286840F061
:108080000100286002B0BDEC028B31BD2DE9F14149
:1080900083B0884616461C001CBF00202060039F4A
:1080A00003A801F0DFFDC51020F00800012805F04D
:1080B000010524D1009001AB03994246384601F0F6
:1080C00063FE10B99FED2E0A15E09DED020A01280E
:1080D000B8EEC00A0FDD03A9401EDFED2A0A51F8F1
:1080E000042BB0EE401A00EE102AB8EEC00A401E73
:1080F00001EE200AF3D101982146801928E00228D8
:1081000029D10120009001AB03994246384601F085
:1081100017FF10B99FED1A0A15E09DED020A01281C
:10812000B8EEC00A0FDD03A9401EDFED170A51F8B3
:10813000042BB0EE401A00EE102AB8EEC00A401E22
:1081400001EE200AF3D1019801F02AFD21463046C4
:10815000FFF7F2FE0AE0032808BF9FED0C0A05D0E6
:1081600004280CBF9FED0A0A9FED050A0DB1B1EE80
:10817000400A04B0BDE8F0811EB14F0AAEC59D743F
:1081800000000000286B6E4E0000804D0000807FD4
:10819000FFFFFF7F0023002278E70000000020415E
:1081A0000000C84200401C4620BCBE4CCA1B0E5AF0
:1081B000AEC59D740CB430B583B00A4606A90291D1
:1081C000044600250194009502AB01A908487844B3
:1081D0001E30F7F7B6FF019A157000284EBF04460F
:1081E0000198041B204603B030BC5DF80CFB00BFB7
:1081F0001790FFFF7FB50C46654D6168654E28629C
:108200006962281D01F0A2FF246805F1280001F031
:108210005FFB746006F1080001F05AFB012030702A
:10822000696829B10FF235120092029468468847B6
:108230007FBD1FB5574C04F1080001F04CFBF8B9A5
:108240002078E8B1694604F1080001F06DFB504860
:10825000016A49B10098029001228DF8042001A81A
:1082600088479DF8040000E00120207018B10098B4
:10827000FFF7DDF804E0009904F1080001F034FB99
:1082800004F1080001F027FB28B9207818B104F1A7
:108290000800FEF77DFA1FBD2DE9FC4104460020D1
:1082A00000F051F82088B4F80280394F60F38F282D
:1082B00001203870002537484068A168E268C27222
:1082C000A0F80980D2B20C30F8F7F8FF7A690021E3
:1082D0000020904748F2E800FEF761FA13E0B6F894
:1082E000010040450CD10099887AC21E6069D2B263
:1082F0008242C8BF024620696261F11CF8F7DEFFC6
:10830000307800B1012507F1280001F0E4FA90B9B6
:10831000694607F1280001F007FB009901F10B06FF
:10832000497A0F29DBD17188414502D12169307822
:1083300008707078E5E72800CCD0012000F003F841
:108340000020BDE8F6811249496A08B921B1084701
:1083500000291CBF012008477047000010B50146E6
:10836000487A0F2818BF0E2807D10B4801F0C6FA2B
:10837000BDE810400020FEF70FBA064C04F10800DB
:1083800001F0BCFA04F10800BDE81040FEF700BAA5
:10839000E42A00207C2B00200C2B002000B587B0A5
:1083A00000F040F80321ADF80410ADF806100122EA
:1083B000069200F09DF800284CBFFF209DF80000B9
:1083C00007B000BD07910492CDF818D0002102A893
:1083D000FFF762BFADF80610082070470491ADF8B2
:1083E00004000321704778B5C7B006460D46144611
:1083F000032200F020F8ADF81C60ADF81E50ADF877
:10840000204000F012F82221FFF7E4FF0621FFF7D9
:10841000E5FF00F06AF800284CBFFF209DF800003F
:1084200048B070BD00208DF800001822002101A87E
:1084300001F09CBE09220021684601F097BE182277
:10844000002102A801F092BE70B5C8B006460C46E5
:1084500015460522FFF7EFFFADF82060FFF7EFFFAD
:108460003021ADF80A10082002210591ADF808006E
:10847000052108AAFFF7A6FF002848BFFF2009D45E
:108480009DF8000030B99DF80300207000209DF891
:108490000410297048B070BD18B5C7B000F018F8C6
:1084A000312200F009F800F023F800284CBFFF202B
:1084B0009DF8000048B010BDADF806200821ADF8C9
:1084C00004100322049207A9039101220692704727
:1084D00000248DF81C008DF8004007A841708270C0
:1084E0000021182201A801F041BE07AA06910392BB
:1084F000CDF814D0002101A8FFF7CEBE00B587B09B
:1085000000208DF8000000F00AF940F2011200F09E
:108510004AF900F00BF900284CBFFF209DF800003D
:1085200007B000BD2DE9F841C7B00446884616469D
:108530001F46012808BF022003D002280CBF1020CC
:1085400000200DF11D031D1800F035F8012C8DF8E9
:108550001C4002D0022C1AD01BE0022422464146C5
:108560000DF11D0001F0FCFD2E706F7000F0D7F8CA
:1085700000F0CFF84FF4817100F017F8E41C069278
:10858000049400F0D3F8002805D5FF2009E010245A
:10859000E4E7972005E09DF8000010B94E9800F040
:1085A00064F8FFE748B0BDE8F081ADF80400ADF82D
:1085B00006100322704703220021684601F0D6BD51
:1085C0002DE9F64F0C46C7B005469946012C08BF69
:1085D000022003D0022C0CBF102000200DF11F033D
:1085E0001E18FFF7E8FF012CADF81C508DF81E4057
:1085F00002D0022C2CD02DE00227DDF85881DDF8C6
:1086000054B1DDF850A1539D529C48993A4600F070
:108610007CF8A6F80090B470F57086F804A086F88F
:1086200005B086F8068000F07AF83F204FF482719A
:1086300007AAADF80400ADF8061003920A3703222A
:108640000497069200F072F8002805D5FF2009E093
:108650001027D2E7972005E09DF8000010B9579841
:1086600000F003F849B0BDE8F08FBDF801100180BB
:108670000020704778B5C7B01D464C9B00F081F8CC
:1086800000268DF800608DF821502A4619460DF11C
:10869000220001F065FD00F042F800F03AF84FF4D6
:1086A000837100F088F8AD1D00F03EF800284CBF43
:1086B000FF209DF8000049B060BD00B5C7B000F0D4
:1086C00011F800F02AF800F01CF840F20B1200F04C
:1086D0000DF800F02BF800284CBFFF209DF800009B
:1086E00047B000BD0023ADF81C0070470F21029178
:1086F000ADF806200221049107AA012106910392F8
:1087000070473F21ADF8041070470DF11F0001F0D4
:1087100027BD07AA03923F2070478DF8003018222A
:10872000002101A801F022BD06920495CDF814D0D5
:10873000002101A8FFF7B0BDB8B5C7B04C9C4D9D56
:1087400000F01FF800278DF821308DF800708DF8AB
:108750002240E2B2294600F01BF8FFF7E0FFFFF7E6
:10876000D8FF4FF4937100F017F8E41D06920494BB
:10877000FFF7DCFF00284CBFFF209DF8000048B049
:10878000B0BDADF81C00ADF81E108DF8202070476C
:108790000DF1230001F0E4BCADF80400ADF80610C3
:1087A000E4B201227047ADF806203F21ADF8041075
:1087B000012206927047ADF80400ADF806100122C0
:1087C0007047000010B500F00FF8BDE8104001221E
:1087D000FBF737BF10B500F007F8BDE810400022E6
:1087E000FBF72FBF0000000004A4034B34F8101067
:1087F00053F82000704700003822002020000100BC
:108800000200000018B50C46C7B000F039F800F0BF
:108810004BF807AA03923F200C2100F028F800F043
:1088200020F800284CBFFF209DF8000048B010BD84
:1088300000B5C7B000F031F80F2200F007F80028AB
:108840004CBFFF209DF8000047B000BDADF80620EA
:108850003F21ADF804100222049207A903910122DE
:108860000692CDF814D0002101A8FFF715BDADF890
:108870000400ADF806100122A41C0692049470476F
:10888000114600228DF800208DF81C008DF81D4047
:1088900022460DF11E0001F063BC00238DF81C0080
:1088A0008DF81D108DF800301822002101A801F06C
:1088B0005DBC00B587B000F057F900F0A8F981223F
:1088C00000F04CF900F0B1F900284CBFFF209DF8F2
:1088D000000007B000BD2DE9F04FC7B09446DDF8A9
:1088E00040E1519ADDF85481DDF858A1539CADF870
:1088F0001D108DF81C008DF823204FF0000BADF8F3
:108900001FC08DF821308DF822E000F021F800F032
:1089100029F826F8098FA6F802A000F078F900F0EF
:1089200062F98321ADF80400ADF8061000F00AF8F2
:1089300000F07DF900284CBFFF209DF8000047B0F3
:10894000BDE8F08F4F4401220D370692049770471F
:10895000D7B252998DF800B009ADD2B209A8ED197D
:1089600001F0FEBB2C7007AE54995FFA84F9F6193A
:10897000E2B2681C4E4401F0F3BB00B5C7B000F092
:10898000BDF800F042F900F0F3F8852200F0F7F8A6
:1089900000F04CF900284CBFFF209DF8000047B0C4
:1089A00000BD2DE9F841C7B04FF0000800F022F8F3
:1089B0004E9C4F9D509E529F51988DF800800DF116
:1089C00023018DF81F308DF820408DF821508DF84F
:1089D000226008608DF8277000F019F9862200F0F7
:1089E000BDF80C2200F01EF900284CBFFF209DF8B6
:1089F0000000C1E08DF81C0007A84170827070472C
:108A000000B5C7B000F082F88DF800300DF11E00FF
:108A10001822016001A8002101F0A8FB882200F0C3
:108A200039F800F0FFF800284CBFFF209DF8000047
:108A300047B000BDF8B5C8B005460E4617461C46FF
:108A4000072200F05FF808A8467087708DF8205064
:108A500000F0ABF88A21ADF80A103F200321059100
:108A6000ADF80800072100F097F8002848BFFF2064
:108A70000ED49DF8000058B94F994E98BDF80120CA
:108A80002280BDF803300380BDF805000880002077
:108A900049B0F0BDADF806203F21ADF80410062224
:108AA000704700B5C7B000F031F800F0AEF800F044
:108AB0005FF88D220F210291ADF80620022100F00F
:108AC00065F800F0B4F800284CBFFF209DF80000C6
:108AD00047B000BD18B5C7B000F07AF800F097F8BD
:108AE00000F081F88E2100F082F800F0A0F8002854
:108AF0004CBFFF209DF8000048B010BD00238DF84A
:108B00001C0070470021684601F030BB0023ADF81F
:108B10001C00704700B587B000F026F800F077F829
:108B2000922200F01BF800F080F800284CBFFF20D4
:108B30009DF8000007B000BD00B587B000F014F844
:108B400000F065F8942200F009F800F06EF80028B3
:108B50004CBFFF209DF8000007B000BDADF8062017
:108B60003F21ADF80410704700208DF800007047D9
:108B70003F21ADF80410704748B0BDE8F081ADF872
:108B8000062007A90391012204927047049107AAC5
:108B9000012106910392704708AA07910492CDF82B
:108BA00018D0002102A8FFF777BB1822002102A8E5
:108BB00001F0DCBA00B5C7B000F022F8A52200F041
:108BC0002BF800284CBFFF209DF8000047B000BDE7
:108BD000002304468DF800308DF81C4022460DF12C
:108BE0001D0001F0BDBA07AA03923F207047ADF8FF
:108BF0000400ADF806100122641C0692049470472C
:108C00000023ADF81C008DF81E108DF800301822DE
:108C1000002101A801F0AABAADF806203F21ADF865
:108C200004100322049207A9039101220692CDF8B1
:108C300014D0002101A8FFF72FBB00002DE9F04F51
:108C40000446C3B060780025FF2812D1B4F80300B1
:108C5000DFF838B28E4E001F0DF10C0900F0FF80D6
:108C600040F6FD31401A20D0801E03D0103800F0AD
:108C70009D80FCE04FEA0B00FCF75EFAB4F80710A9
:108C800087A0FCF759FAF08A40F64802FB21FFF76B
:108C9000AAFB010004D00BF12800FCF74DFAE6E036
:108CA0000BF14C00FCF748FAE1E00326DFF8E48121
:108CB0004FF00A0A00270AFB06F1414401EB470284
:108CC000B4F8070032F8163C801E984218D1607B39
:108CD0000125C10707D53A4631460BF17000FCF774
:108CE0002BFA00200AE0800707D53A4631460BF1FF
:108CF0009800FCF721FA022000E0032000F0BCF805
:108D00007F1C042FD7DD761C052ED3DD4FF0030822
:108D10000FF2AC1B00265F49B4F807000AFB08F20B
:108D2000114401EB4603401E33F8161C884234D12F
:108D3000B4F80B30584832464146FCF7FDF900BF05
:108D40005BA0FCF7F9F90125002708E004F10D000C
:108D50003946C25D5846FCF7EFF97F1CFFB2B4F804
:108D60000B008742F2DB48A0FCF7E6F98DF809809A
:108D70008DF80A600020B4F80B108DF80B1006E097
:108D800004F10D010A5C09F80020401CC0B2B4F8DF
:108D90000B108842F4DB00F06EF8761C042EBADD6E
:108DA00008F10108B8F1050F61DCB3E70FF2101804
:108DB00003264FF0000A0A223649B4F8070072432E
:108DC0000A4402EB4A03401E33F8161C88423DD188
:108DD000637A524631460BF1F000FCF7ADF900BF63
:108DE00033A0FCF7A9F90125002708E004F10A00E7
:108DF0003946C25D4046FCF79FF97F1CFFB2607A9E
:108E00008742F3DB20A0FCF797F98DF809608DF815
:108E10000AA0617A8DF80B10002106E004F10A0027
:108E2000425C09F80120491CC9B2607A8142F5DB35
:108E300004F10A01019100900023B4F80710B4F87E
:108E400005000022FFF778FC00F015F80AF1010A8E
:108E5000BAF1040FAFDD761C052E08DCA9E701206E
:108E6000FFF7B0FC96F881000A21FEF7D3F82846F8
:108E700043B0BDE8F08F04208DF8010102A800F096
:108E800011BB064800F02EB8200D0A00F4AB000814
:108E9000D0260020A82A0020B4AC00083D8C000891
:108EA0004D54555F73697A65203D202564200A0082
:108EB000526563657074696F6E203A20000000008F
:108EC000446174615B25785D203D203078257820F1
:108ED00000000000074900200877002206480270C1
:108EE000FDF7F2BC03490A7F41F82200087F401CCD
:108EF000087770473C2B0020292C002038B584B01F
:108F000041780024FF2902BFB0F8031040F6014267
:108F1000914221D1624AB0F8071095888B1EAB426E
:108F200009D1407B0124C20752BF8DF800400021C7
:108F30008DF800100DE05288491E91420CD103219A
:108F40008DF8001000F10D01B0F80B208DF808200D
:108F50000191684600F0A8F8204605B030BD10B574
:108F60008AB050484E4CFFF7BDFF8F218DF8181086
:108F7000E522B3218DF819208DF81A10D5222E2163
:108F80008DF81B208DF81C107F224A218DF81D20A2
:108F90008DF81E1098222A218DF81F208DF82010A0
:108FA00048227A218DF821208DF82210CC224021F0
:108FB0008DF823208DF82410FE2200218DF8252025
:108FC000ADF8261000940623012206A90220FFF71F
:108FD000A9FA00F034F8412200F025F8A21C00F0B4
:108FE00010F8062100F016F800F029F8422200F0EF
:108FF0001AF8221D00F005F8102100F00BF80AB055
:1090000010BD05920491029119208DF818000A23D1
:10901000002270470393019200910223208806AA40
:109020000221FFF7CDBA8DF823108DF82420FE2100
:1090300000228DF82510ADF8262001217047ED2182
:1090400082228DF819108DF81A20AE21ED228DF8AC
:109050001B108DF81C2021214C228DF81D108DF83D
:109060001E209D2141228DF81F108DF820204521C2
:1090700022228DF821108DF822208E2170471CB5F8
:10908000024692204FF64264A24207D10448009162
:109090000223818800880022FFF7ECFA16BD000049
:1090A000042C0020FD8E000870B5BEB0054646A613
:1090B00029784648464C21B1012905D003290CD016
:1090C00044E00122227002E0002121703430FCF7DC
:1090D00033F83046FCF730F838E068680178012949
:1090E00026D1417801290FD1012002218DF80000FD
:1090F0008DF801108DF802008DF8F7006946002008
:10910000FCF758FD0120A0706968487880B90121FA
:109110008DF8001002228DF8012000218DF8021038
:1091200001228DF8F7206946FCF744FD0020A0706D
:1091300068680178032909D14078012804BF01211A
:10914000A1706968487808B90021A1703EB070BD6F
:1091500080B50FF22D0200210420FEF756FA1C48BC
:1091600000210170BDE8014080B50020FFF732FB0F
:1091700017480121002241708270C170027101BD47
:1091800010B5134C20792178401E8041C00F20710A
:10919000104841B1FBF7D0FF0BA0FBF7CDFFE11C5E
:1091A000BDE810400BE0BDE810404030FBF7C4BF05
:1091B00007480179491E8941C90F0171C11C4FF649
:1091C0004260FFF75CBF0000200A0D0074B0000889
:1091D000D42B0020FCAE0008E0B505A000900422CE
:1091E0008DF80420694642F6292000F0C9FF07BD2A
:1091F00053544D0070B5024686B050780024FF28C5
:109200003BD1B2F80310684840F60143C91A22D096
:10921000123901BFB2F807104D1EC08885422CD10B
:10922000957AB2F80500537A0124012D0BD10093F1
:1092300002F10A06019600230022FFF77DFA0023BF
:109240008DF8083016E00A32019200930122802343
:10925000FFF772FA11E0B2F807104088891E8142C8
:109260000BD1507B0124C1074EBF8DF8084002206E
:109270008DF8080002A800F09BF8204606B070BDEB
:1092800018B587B04948484CFFF72CFE41F60D0150
:10929000ADF8181000940823012206A90120FFF759
:1092A00041F942F63720ADF81800012204920A2055
:1092B000A11C0390002310220591029301930092B8
:1092C000072300F023F842F63820ADF818000022FA
:1092D0000492029201920A20211D0390022205911C
:1092E00000F012F842F63920ADF81800002204927E
:1092F00001920A20A11D03900223082205910293E6
:1093000000F002F808B010BD00920123208806AAE0
:109310000121FFF755B9FEB50246002042F6372578
:10932000521B214C08D0521E3CD100910123A18830
:109330002088FFF79FF9FEBD487A8DF8040001AA46
:109340004B7A08885070DD0704D50888000A9070B1
:10935000032300E00223487A060706D54888D05444
:109360005B1C4E88360AD6545B1C4E7AF00611D52B
:109370000D7A0020091D0BE031F81060DFB25B1C94
:10938000D655DFB231F81060360AD6555B1C401C4A
:10939000A842F1DB01A80090DBB26188208800229E
:1093A000FFF768F9FEBD0000FC2B0020F5910008D6
:1093B000007820B91E480021012281800273704785
:1093C00010B50FF2390200210120FEF71EF9184CEA
:1093D000002004212073217042F638202146FFF737
:1093E0009AFF0A21A1801F20C106E07204D5012046
:1093F0004FF48061A072E18010BD00000D480C495F
:109400000068CA7A00F00700413048801307087BE3
:1094100004D518B98888401D888003E0012804BF5E
:1094200000200873891C42F63720FFF774BF000044
:109430005C2B0020282800405CB5C7B00026ADF8A2
:109440001C0007A84C9C41808280ADF8223004812A
:109450008DF8006000F021F83F21ADF8041040F2D3
:1094600081120F210291ADF806200A21049107AA6A
:1094700001210691039200F008F800284CBFFF205C
:109480009DF8000049B050BD0692CDF814D00021DF
:1094900001A8FEF701BF8DF800301822002101A8B5
:1094A00000F064BE90F8F9203249042A00D97047D0
:1094B00080B5BEB0DFE802F00305080B10000846D7
:1094C00007E001F1240004E001F1480001E001F1AE
:1094D0006C00FBF731FE19E041788DF800108278BE
:1094E0008DF80120C1788DF8F710002106E04218B0
:1094F0000DEB010312799A70491CC9B29DF8F7204F
:109500009142F4DB69460020FCF754FB3FB000BDFC
:10951000F8B5194D19481A492B780078194D1A4C8D
:109520002E78009100220A2111FB00F1214401EB69
:10953000460704EB400437F8161C15E0F8B513494C
:1095400013480B78134E144D31780F4C2E78009041
:1095500000220A204143601800EB460707480578BF
:1095600037F8161C04EB450434F8060CFFF782F8B4
:10957000F1BD000020AD0008A2290020A029002094
:10958000A4290020A1290020A82A0020E6290020E3
:10959000E8290020E4290020E529002070B50446D0
:1095A0006078FF2802BFB4F8030000F47F40B0F5F4
:1095B000406F13D100250D4E00E06D1C327FE8B2E4
:1095C00090420BD2E9B256F821102046884701009C
:1095D000F3D003D0022806D0012070BD2046BDE89C
:1095E0007040FCF742BC002070BD00BF3C2B002047
:1095F0001047000038B5EFF3108472B6274D694666
:10960000281D00F0EDFE6946281D00F044FF38B12A
:1096100084F31088BDF80010214AFDF750FE31BDDB
:109620000120287084F3108831BD80B5FDF745FE18
:10963000022100910023194800F124014FF48052C7
:10964000001D00F0B1FD01BD00BFF8B514460025B6
:10965000EFF3108610F1010F1ED001281CBF022865
:109660004FF0FF3518D1BCB1254672B60B4F012320
:1096700092B2381D00F0ADFD00281CBF39780029DA
:1096800008D000223A7086F31088A1B2044AFDF790
:1096900016FE01E086F310882846F2BD081000206F
:1096A000F5950008C0680840884201D10120704744
:1096B00000207047C0690840884201D101207047EE
:1096C0000020704710B5794C02212046FFF7F2FFC9
:1096D00038B16068C043810703D5FDF77CFE0220E6
:1096E00018E001212046FFF7E5FF38B16068C0436C
:1096F000C10703D5FDF737FE01200BE00821204606
:10970000FFF7D8FF38B16068C043010703D5FDF704
:10971000B8FE0820A06010BD10B5644C02212046A0
:10972000FFF7C0FF70B96068C04382030AD500F03C
:1097300035F841F40031616080F31088BDE81040D5
:10974000FDF742BE08212046FFF7ACFF88B96068EC
:10975000C04302030DD500F021F841F400216160FF
:1097600080F310885249086880474FF40022A260B5
:1097700010BD20212046FFF795FF70B96068C043F7
:1097800082020AD500F00AF841F40011616080F30A
:109790001088BDE81040FDF7F5BD10BDEFF3108057
:1097A00072B661687047434881B0016841F4801126
:1097B0000160006800F48010009000983E48016845
:1097C00041F4007101603D48026842F40072026099
:1097D00040BF20BF3A48016841F40041016001B038
:1097E000704780B53748016841F480110160006816
:1097F00000F48010009000982C48016841F00101AD
:109800000160026842F4803202602C20FAF786FA86
:10981000BDE802402D20FAF781BAEFF3108072B64E
:1098200029490A68520852000BE028494FF4803059
:1098300008607047EFF3108072B623490A6822F07F
:1098400002020A6080F3108870471F484FF400310D
:109850004160EFF3108172B6026822F400320260B8
:1098600081F31088704738B50446104D082128460A
:10987000FFF718FF58B10E480460EFF3108072B67E
:10988000696821F40021696080F3108831BDA04728
:109890004FF40020A86031BDEFF3108072B60A4982
:1098A0000A6822F00802CCE700000000000C005813
:1098B000102C00205001005820080058D4080058EF
:1098C0000C04005850000058040C0058080C0058B4
:1098D000006040607047EFF3108172B60268824208
:1098E0000CBF012000201CE0EFF3108272B6036869
:1098F0000B60486001600868416024E0EFF310826B
:1099000072B6086043684B604160486801601AE0C5
:10991000EFF3108172B6426803681360026843680F
:10992000536081F31088704710B5EFF3108472B65E
:1099300002680A600168FFE70846FFF7E9FF84F361
:10994000108810BD0B6082F3108870477047704715
:109950007047704770477047C043FDF7B7BD0000C0
:109960000249034A01600261704700BF8B7300081F
:10997000B37300084018491C1CBFB1F1010100F885
:10998000012DF9D170470000C0F3C75181B1FF2903
:1099900006D0C110400721F0E04101F1605170474D
:1099A00041020CBF40F4E0016FF00041002070471D
:1099B00000F0004100020AD0B0FA80FC00FA0CF07E
:1099C00001F16051A1EB0C5101EBD0214005704732
:1099D00010B50446F7F7CEFB01462046096ABDE8FC
:1099E000104008472DE9F84F84B0894615460BB161
:1099F00000221A600446274600E07F1C3878FFF7F3
:109A0000E7FF0028F9D138782D2816BF2B2817F842
:109A1000018B4FF02B08002DCDF8049003D4012DBD
:109A200001D0252D05DBB9F1000F4DD0C9F800405C
:109A30004AE0002D0ADD102D04BF3878302802BF1F
:109A4000787840F0200078280ED10AE03878302865
:109A500018BF0A2508D1787840F02000782802D174
:109A60001025BF1C00E00825039700E07F1C387814
:109A70003028FBD0DFF818B0FB440BF1140B4FF08B
:109A800000090BF128000297CA468DF800000AE091
:109A9000D818000006469DF80000361ACA46F6B2ED
:109AA00005FB09697F1C387800F040FD01462A4615
:109AB0000BF12800F7F7D6FB0028EBD10399B94248
:109AC00004D1019800B10460002020E002991BF845
:109AD0000500791A091A002910D406DCB9EB06062C
:109AE00003D3B6FBF5F0504508D0F8F7F7F8049823
:109AF00008B1012101604FF0FF3904E0B8F12D0FEA
:109B000008BFC9F10009019800B10760484605B0D7
:109B1000BDE8F08F70B4044600E0641C23783BB1CC
:109B20000D462A7822B115F8016BB342F9D1F4E75A
:109B3000201A70BC704770B4044600E0641C23789F
:109B40003BB10D462A78002AF8D015F8016BB342D4
:109B5000F8D1201A70BC7047034610EE100AF44684
:109B600000F004F8196000EE100A6047C0F3C75116
:109B700029B1FF2912D07E39A0EBC1507047C042F5
:109B80000DD000F000424002B0FA80F188407E31F2
:109B9000494242EA102000F17A5070470021704794
:109BA000010010EE100AC0F3C7520AD4D2B3FF2A44
:109BB00037D05218FF2A4CD200EBC15100EE101AD8
:109BC0007047494232B3FF2A2BD0914204D2A0EB16
:109BD000C15100EE101A7047521E891AA0EBC250F4
:109BE00000EE100A192918D8C1F17F01C90500EE4D
:109BF000901AF1EE101A21F01F0020F4F850E1EE57
:109C0000100A20EE200AF1EE100AE1EE101A000907
:109C100025D27047C042E5D1704700F0004000EE09
:109C2000100A7047C042FCD07F2906D87F31C90591
:109C300000EE901A20EE200A70474FF0FE4000EE32
:109C4000900A20EE200A7F3910EE100AC0F3C752A6
:109C5000AFE7C10D41F0FF01C90500EE101AF8F79A
:109C60003DB870472DE9F84305460C462E6800279D
:109C700000E0761C3078FFF7ABFE0028F9D1307891
:109C80002D280CBF08272B2800D1761C307840F0F7
:109C900020016E2927D1707840F02000612802BF92
:109CA000B07840F020006E2802D02E68002746E0F1
:109CB000F61CB046042798F8000028283FD118F871
:109CC000019F484600F03CFC0028F8D1A9F1300083
:109CD0000A28F4D398F800005F28F0D029282ED164
:109CE00008F101062BE069292CD1707840F02000A2
:109CF0006E2802BFB07840F02000662802D02E689F
:109D000000271CE016F8030F40F0200047F003077F
:109D1000692802BF707840F020006E280FD1B0781B
:109D200040F02000692802BFF07840F0200074283D
:109D300005D1307940F02000792808BF761DF4B1B4
:109D400026601CE0302802BF707840F020007828A0
:109D500013D1B01C01782E2908BF401C0078A0F157
:109D60006101062921BFA0F14102062A30380A28E4
:109D700003D2B61C47F0020701E047F001072E604E
:109D80003846BDE8F28300002DE9F14F8CB04FF06A
:109D90000008169D05EBC5059246C3462D2DC8BF8C
:109DA0002D25C3F800B0C3F804B0D94602E0491C21
:109DB0004FF0010908783028F9D0002411E0186824
:109DC000401C18600A78302A08D04FF0010805E0DE
:109DD000AC42F4DA30380DF80400641C491C4FF032
:109DE00001090878A0F130020A2AF1D30F461E4675
:109DF000F7F7F8F9406A39780278914208BF7F1C7A
:109E0000002C48460ED1397830290BD13068401EDD
:109E100030607F1C0120F6E7302918BF4FF00108A1
:109E20007F1C01203978A1F130020A2A0AD2AC4203
:109E3000F2DAA1F130000DF80400641C3268521E01
:109E40003260EDE7B8F1000F0DD0ADF10102515DC8
:109E5000491C515507E0ADF10103195D49B932685C
:109E6000521C3260641E002CF5DC04BF8DF800B07B
:109E70000124002856D0092394FBF3F3C4F1090907
:109E800003EBC3034B44092193FBF1F1002201EBE7
:109E9000C101591A1AD04FF0010B17E056F82B10D8
:109EA00001EB810105EB410146F82B100CE0092183
:109EB00093FBF1F101EBC1011DF80250591AEDD1EC
:109EC0000BF1010B46F82B505B1C521CA242EEDB3F
:109ED000397841F02001652924D1394617F8012F3E
:109EE0002B2A16BF2D2A17F8013B2B230022002412
:109EF000124D08E0AC4204DA04EB84020CEB42049D
:109F0000303C7F1C012297F800C0ACF1300EBEF14E
:109F10000A0FEFD32D2B08BF64423368E418346076
:109F200002B90F46BAF1000F03D000B90C9FCAF86E
:109F3000007058460DB0BDE8F08F00BF00E1F50598
:109F40002DE9F14F8CB00025169FC7EBC70790464F
:109F5000232FC8BF23271D605D60A94602E0491C6E
:109F60004FF0010908783028F9D000BF0FF2AC108B
:109F700070A2AA46019000920DF1080B0C461E46F5
:109F800010E03168491C316009E05745F9DB019A5E
:109F90000099801A085C0BF80A000AF1010A641C97
:109FA0004FF0010994F800105CA01622F7F75AF957
:109FB0000028EAD1F7F716F9406A21780278914231
:109FC00008BF641CBAF1000F19D12078302816D1CF
:109FD0003168491E3160641C4FF00109F5E75745AF
:109FE0000ADB019A0099801A085C0BF80A000AF152
:109FF000010A3168491E3160641C4FF00109217863
:10A000005FF0160245A0F7F72DF90028E7D1514679
:10A010008F42484615DA1BF80710072904DD0DF1B9
:10A020000702D15D491CD155394633685B1C33604A
:10A0300007E00DF107035A5C4AB933685B1C3360D3
:10A04000491E0029F5DC04BF8DF808500121326853
:10A0500092000028326054D0072791FBF7F7C1F136
:10A06000070CC7EBC7076744072297FBF2F20023F0
:10A07000C2EBC202BA1A17D0012515E056F8252006
:10A080000CEB021246F825200CE002AA12F803C0DD
:10A09000072297FBF2F2C2EBC202BA1AEED16D1C94
:10A0A00046F825C07F1C5B1C8B42EEDB217841F01B
:10A0B0002001702925D1214614F8012F2B2A16BF23
:10A0C0002D2A14F8013B2B2300220027DFF848C07B
:10A0D00008E0674504DA07EB87020EEB4207303FE2
:10A0E000641C012294F800E0AEF13009B9F10A0FC6
:10A0F000EFD32D2B08BF7F423368FF18376002B9BA
:10A100000C46B8F1000F03D000B90C9CC8F8004011
:10A1100028460DB0BDE8F08F00E1F505303132334F
:10A120003435363738396162636465664142434489
:10A1300045460000000102030405060708090A0B52
:10A140000C0D0E0F0A0B0C0D0E0F00000249034AF6
:10A1500001600261704700BF2B7300085173000853
:10A1600010B50446F7F7AAF8204610BD10B504460E
:10A1700010460A4601462046FFF7FCFB204610BD6C
:10A180001CB542F62922904209D10C68054800947A
:10A1900000220B7941880088FEF76CFA16BD9720E3
:10A1A00016BD0000202C002030B5039C0160002566
:10A1B0000021C16041610561A107856142600381A1
:10A1C000047704D5008910B14FF0FF3030BD002076
:10A1D00030BD2DE9F84F054684B0288900260C468D
:10A1E000B046B44600280CBF022700276969A9B110
:10A1F00090B92869D5F804E0461C764528BFA6EB3F
:10A200000E06D5F800E01EF800001EF8066000EB10
:10A210000626B61CB6B203E0064600E000B10246D0
:10A220002869D5F80CE0704523BFD5F80490A9EB58
:10A230000000801B002007EB020E03FB0EF9814596
:10A2400032BF0020B0FBFEFA0EFB1A00C0B28742FC
:10A2500009DA95F81CE05FEACE7A48BF84465FEAE7
:10A260008E7048BFBC46100000F0B6806868494454
:10A2700061448842C0F0B080C14692460294ADF875
:10A280000020039357E082073DD52889002840F03D
:10A29000A3802A681A44260A02F8024C2246D5F8FE
:10A2A0000080984408F8016CA04628681844F7F725
:10A2B00005F86969A86961186961401C019CA86179
:10A2C00018E09CB3287FC207DDD5288948B92868E3
:10A2D0001844FF2100F8021CFF222968194401F8E4
:10A2E000012C4FF00008686924186C6154462889D5
:10A2F000002340B92A681470200A29684870022394
:10A300006869801C68613E190020B6B228616CB192
:10A31000C3440298D5F800C000EB0B0122460CEBB9
:10A320000300F6F7CBFF686924186C6109F1010995
:10A33000A869401CA861039A68682969914543D2BD
:10A34000711881422CBF081A0846286103462889E3
:10A35000A8B92968BDF80000C8545B1C686883422E
:10A3600028BF1B1ABDF800002968000AC8545B1CEE
:10A370006868834228BF1B1A6869801C68616C6822
:10A38000BDF80010E41A8C4288BF0C4602980AFB04
:10A3900009FB00EB0B01AAEB04005445019003D02C
:10A3A0008FD2287F00288CD12E682246F018F6F72D
:10A3B00085FF686920186861A046BDF80060019CAF
:10A3C000BE190023B6B2A2E77A1882422CBF171A30
:10A3D0007F182868C01900E0002005B0BDE8F08FA4
:10A3E000F0B502460023108900280CBF0225002585
:10A3F00054690026002C4DD058B9D36857685E1CAC
:10A40000BE4228BFF61B1768FB5CBE5D03EB062649
:10A4100000E00646137F03F00303012B22D14FF621
:10A42000FF739E4208BF002808D0D36817699F4277
:10A4300018D2B8B15768FB1A834213D25668D36852
:10A44000A41B1C1954610024D46050B9012E94BF80
:10A45000C6F10106012610680378805D03EB002633
:10A4600000E00646D2F80CC0576805EB0C00B84275
:10A4700028BFC01B136803445069AC19001B05D0EA
:10A48000B4446544BD4228BFED1BD560506190695E
:10A49000401E906146E0F0B5024600231089002876
:10A4A0000CBF0225002554690026002C3AD0D36841
:10A4B0001C4658B957685E1CBE4228BFF61B176879
:10A4C00017F803C0BE5D0CEB062600E00646177FBA
:10A4D00007F00307012F1DD14FF6FF77BE4208BFDB
:10A4E000002807D150680024012894BFC0F1010062
:10A4F00001200AE017699F420CD258B15768FB1A35
:10A50000834207D20024064604E013681E78185CD4
:10A5100006EB002650682B1983422CBF1D1A2D19FB
:10A520001068431901B10E801846F0BD10B50446FD
:10A53000F6F720FE01462046896ABDE8104008472C
:10A5400010B50446F6F716FE014620460969BDE837
:10A5500010400847576972656C65737320466972CD
:10A560006D776172652076657273696F6E20256400
:10A570002E25642E25640A002D2D20424C45204EA8
:10A58000564D2052414D20484153204245454E20D2
:10A590005550444154454420425920434D4F2B20AF
:10A5A0000A000000534843495F5355425F455654E3
:10A5B0005F424C455F4E564D5F52414D5F55504492
:10A5C000415445203A205374617274416464726549
:10A5D0007373203D20256C78202C2053697A6520E8
:10A5E0003D20256C640A0000534843495F5355429F
:10A5F0005F4556545F4E564D5F53544152545F571A
:10A6000052495445203A204E756D6265724F665727
:10A610006F726473203D20256C640A0053484349DF
:10A620005F5355425F4556545F4E564D5F535441FC
:10A6300052545F4552415345203A204E756D626534
:10A64000724F66536563746F7273203D20256C648E
:10A650000A000000534843495F5355425F45565432
:10A660005F434F44455F5245414459202D2057498F
:10A6700052454C4553535F46575F52554E4E494ED7
:10A6800047200A00534843495F5355425F4556549B
:10A690005F434F44455F5245414459202D20465564
:10A6A000535F46575F52554E4E494E47200A0000B1
:10A6B000534843495F5355425F4556545F434F44A7
:10A6C000455F5245414459202D20554E455850452F
:10A6D000435445442043415345200A0053484349CD
:10A6E0005F5355425F4556545F4552524F525F4E3D
:10A6F0004F544946205749544820524541534F4EE4
:10A70000202578200A000000534843495F535542F2
:10A710005F4556545F4552524F525F4E4F54494623
:10A72000205749544820524541534F4E202D204533
:10A7300052525F424C455F494E4954200A00000086
:10A74000534843495F5355425F4556545F45525203
:10A750004F525F4E4F544946205749544820524566
:10A7600041534F4E202D20424C45204552524F52CE
:10A77000200A000020204661696C2020203A2061D8
:10A7800063695F68616C5F77726974655F636F6E40
:10A790006669675F6461746120636F6D6D616E648B
:10A7A000202D20434F4E4649475F444154415F505E
:10A7B00055424C49435F414444524553535F4F46D1
:10A7C000465345542C20726573756C743A2030786A
:10A7D0002578200A0000000020205375636365730C
:10A7E000733A206163695F68616C5F777269746551
:10A7F0005F636F6E6669675F6461746120636F6D2C
:10A800006D616E64202D20434F4E4649475F4441A1
:10A8100054415F5055424C49435F41444452455373
:10A82000535F4F46465345540A00000020205075A0
:10A83000626C696320426C7565746F6F7468204147
:10A840006464726573733A20253032783A25303269
:10A85000783A253032783A253032783A25303278D5
:10A860003A253032780A000020204661696C2020A9
:10A87000203A206163695F68616C5F777269746513
:10A880005F636F6E6669675F6461746120636F6D9B
:10A890006D616E64202D20434F4E4649475F444111
:10A8A00054415F52414E444F4D5F414444524553E1
:10A8B000535F4F46465345542C20726573756C7434
:10A8C0003A2030782578200A0000000020205375B7
:10A8D00063636573733A206163695F68616C5F7776
:10A8E000726974655F636F6E6669675F64617461E6
:10A8F00020636F6D6D616E64202D20434F4E46497D
:10A90000475F444154415F52414E444F4D5F414483
:10A9100044524553535F4F46465345540A00000086
:10A92000202052616E646F6D20426C7565746F6F8C
:10A93000746820416464726573733A2025303278FC
:10A940003A253032783A253032783A253032783A22
:10A95000253032783A253032780A00000D0A0D2A67
:10A960002A20444953434F4E4E454354494F4E20AD
:10A970004556454E54205749544820434C49454E6E
:10A9800054200A000D0A0D2A2A20434F4E4E4543FB
:10A9900054494F4E20555044415445204556454E4C
:10A9A00054205749544820434C49454E54200A00EE
:10A9B0004556545F5550444154455F5048595F4394
:10A9C0004F4D504C4554452C207374617475732061
:10A9D0006F6B200A000000004556545F55504441FB
:10A9E00054455F5048595F434F4D504C4554452C9A
:10A9F00020737461747573206E6F6B200A00000001
:10AA00004843495F4C455F434F4E4E454354494F81
:10AA10004E5F434F4D504C4554455F53554245564C
:10AA2000545F434F444520666F7220636F6E6E65BE
:10AA30006374696F6E2068616E646C652030782580
:10AA4000780A000065786368616E67655F636F6EA2
:10AA50006669672C205375636365737366756C6CE8
:10AA600079200D0A0D0000000D0A0D2A2A2041430D
:10AA7000495F4741505F4C494D495445445F444903
:10AA800053434F56455241424C455F5653455654E9
:10AA90005F434F4445200A000D0A0D2A2A204143F6
:10AAA000495F4741505F50524F435F434F4D504CB9
:10AAB0004554455F56534556545F434F4445200A1D
:10AAC00000000000000000480100000000000048F5
:10AAD00001000000000000480100000000000048E4
:10AAE00001000000000000480100000000000048D4
:10AAF00001000000000000480100000000000048C4
:10AB000001000000000000480100000000000048B3
:10AB100001000000000000480100000000000048A3
:10AB20000100000000000048010000000000004893
:10AB30000100000000000048010000000000004883
:10AB40000100000000000048010000000000004873
:10AB50000100000000000048010000000000004863
:10AB60000100000000000048010000000000004853
:10AB70000100000000000048010000000000004843
:10AB80000100000000000048010000000000004833
:10AB90000100000000000048010000000000004823
:10ABA0000100000000000048010000000000004813
:10ABB0000100000000000048010000000000004803
:10ABC00001000000000000480100000000000048F3
:10ABD00001000000000000480100000000000048E3
:10ABE00001000000000000480100000000000048D3
:10ABF000010000004143495F4154545F45584348B8
:10AC0000414E47455F4D54555F524553505F565333
:10AC10004556545F434F4445200A00007365742035
:10AC200064617461206C656E67746820636F6D6D1C
:10AC3000616E64206572726F72202578200A0000B0
:10AC40007365742064617461206C656E677468203C
:10AC5000636F6D6D616E64207375636365737320DC
:10AC60000A0000007376633A2025642063686172ED
:10AC70003A2564204E4F54494649434154494F4E6A
:10AC800020454E41424C4544200A00007376633A09
:10AC900020256420636861723A256420494E444946
:10ACA000434154494F4E20454E41424C4544200AB1
:10ACB0000000000057524954452043484152414347
:10ACC000207376633A20256420636861723A2025F8
:10ACD00064202D204C454E475448203D20256420BB
:10ACE0000A0000005752495445205045524D4954DE
:10ACF0002052455120434841524143207376633AE4
:10AD000020256420636861723A202564202D204C40
:10AD1000454E475448203D202564200A000000008D
:10AD2000637573746F6D5F617070206E6F746966A8
:10AD300069636174696F6E20656E61626C65642021
:10AD40000D0A0000637573746F6D5F617070206E23
:10AD50006F74696669636174696F6E206469736199
:10AD6000626C6564200D0A00637573746F6D5F61BA
:10AD7000707020696E6469636174696F6E20656EBE
:10AD800061626C6564200D0A0000000063757374D5
:10AD90006F6D5F61707020696E6469636174696F63
:10ADA0006E206F72206E6F74696669636174696F7B
:10ADB0006E2064697361626C6564200D0A00000096
:10ADC0002DE9FC4D016800F10805490805EBC102B9
:10ADD000019200F10803406800F0010803EBC1068E
:10ADE000400806EBC0000021002205E0009B9F42C6
:10ADF00018BF17F9014B0BD1019B9D4206D02C685F
:10AE00006B682F19FB1800930835EFE7BDE8F68D46
:10AE1000009B9F4205D12B68EF186B68FB180093CD
:10AE2000083517F801AB91420FD183465E4508BF44
:10AE3000F6F751FF31685FEA080018BF49447068AF
:10AE40000A1808369142F1D05846002C01F801AB9F
:10AE500002D5641CE7D1C9E7641ED9D5C6E7000056
:10AE600000000000000000000000000000000000E2
:10AE70000000000044000800400502011C3CFB00EB
:10AE8000F4010000FFFFFFFF480101000020D80689
:10AE900000037206000000000D000400202046613F
:10AEA000696C2020203A20534843495F43325F4277
:10AEB0004C455F496E697420636F6D6D616E642CE3
:10AEC00020726573756C743A203078253032780AB8
:10AED0000D0000002020537563636573733A20539F
:10AEE0004843495F43325F424C455F496E69742075
:10AEF000636F6D6D616E640A0D0000002D2D205092
:10AF00003250204150504C49434154494F4E2053F8
:10AF1000455256455220203A20494E464F524D2028
:10AF2000434C49454E5420425554544F4E203120F5
:10AF3000505553484544200A200000002D2D205034
:10AF40003250204150504C49434154494F4E2053B8
:10AF50004552564552203A2043414E275420494EEF
:10AF6000464F524D20434C49454E54202D20204EF3
:10AF70004F54494649434154494F4E204449534157
:10AF8000424C45440A20000001000000030000007C
:10AF900005000000010000000100000006000000A4
:10AFA0000A00000020000000020000000400000071
:10AFB00008000000100000004000000080000000B9
:10AFC0000001000000020000A0860100400D030007
:10AFD000801A060000350C0040420F0080841E00DD
:10AFE00000093D0000127A000024F40000366E01D2
:10AFF0000048E801006CDC020000000000000000D6
:10B0000000000000000000006E6F6E206469736332
:10B010006F76657261626C652C205375636365732E
:10B020007366756C6C79200D0A0D000073657420D1
:10B03000646973636F76657261626C652C20537509
:10B04000636365737366756C6C79200D0A0D00007F
:10B0500073657420646973636F76657261626C6591
:10B060002C204661696C656420307825780D0A0DC6
:10B07000000000002D2D20503250204150504C49EE
:10B08000434154494F4E20534552564552203A2091
:10B090004E4F54494649434154494F4E20454E4135
:10B0A000424C45440A0000002D2D205032502041D2
:10B0B00050504C49434154494F4E205345525645F8
:10B0C00052203A204E4F54494649434154494F4E2D
:10B0D0002044495341424C45440A0000124801684B
:10B0E00041F4700101604FF4E0234FF0B041086873
:10B0F00040F0010008608B600A680C4802400C4870
:10B100000A60036823F00503036042685208520096
:10B11000426000220748C8600861086820F4802067
:10B1200008608A617047000088ED00E0FBFEF6FAD7
:10B1300094000058001004225375636365737366AE
:10B14000756C6C792053746172742046617374203D
:10B150004164766572746973696E67200A00000045
:10B160005374617274204661737420416476657211
:10B17000746973696E67204661696C6564202C2070
:10B18000726573756C743A202564200A0000000013
:10B19000424C455F5356435F4C324341505F436FCF
:10B1A0006E6E5F55706461746528292C2053756339
:10B1B0006365737366756C6C79200D0A0D00000071
:10B1C000424C455F5356435F4C324341505F436F9F
:10B1D0006E6E5F55706461746528292C2046616924
:10B1E0006C6564200D0A0D007047FEE7FEE7FEE780
:10B1F000FEE770477047704700F022B8FBF7C6BD06
:10B200000848F7F7D9BF0848F6F797BE0748F6F79A
:10B2100094BEFEF757BAFEF77FBA00F019B804489B
:10B22000F7F7CABF48280020AC25002018250020C9
:10B23000A82800201020F9F709BA0120F9F706BA6A
:10B240000248416802788A18426070472C22002028
:10B250000449C8680A6882430A60486000F004B87C
:10B26000000000000015005870470000506572692A
:10B2700070686572616C5F73656375726974795F1C
:10B2800072657128292C2053756363657373667525
:10B290006C6C79200D0A0D005065726970686572DA
:10B2A000616C5F73656375726974795F726571282B
:10B2B000292C204661696C6564200D0A0D00000090
:10B2C00050616972696E675F436F6E6669726D5F28
:10B2D000416E7377657228292C20537563636573FB
:10B2E0007366756C6C79200D0A0D000050616972EF
:10B2F000696E675F436F6E6669726D5F416E7377EB
:10B30000657228292C204661696C6564200D0A0D40
:10B31000000000007365745F61757468656E746920
:10B32000636174696F6E5F72657128292C20537593
:10B33000636365737366756C6C79200D0A0D00008C
:10B340007365745F61757468656E7469636174694F
:10B350006F6E5F72657128292C204661696C656487
:10B36000200D0A0D0000000000002115110E0D0C2B
:10B370000B0B0A0A0909090909080808080808083E
:10B380000707070707070707070707070700000062
:10B39000303132333435363738396162636465664B
:10B3A0006768696A6B6C6D6E6F70717273747576B5
:10B3B0007778797A0000000080B50D4A7A443032FF
:10B3C0000C4B7B442E339A4203D00B49F8F7E5FF30
:10B3D00002BD8DF80000012269460120FEF734F914
:10B3E000012802D19DF8000002BD4FF0FF3002BDE0
:10B3F000104CFFF70C4CFFF74C21002030B4002517
:10B4000012E050F8042BD30744BF4A44521E091FD0
:10B41000042942F8045BFAD213468C0744BF158016
:10B420009B1CC90748BF1D7050F8041B0029E8D1B8
:10B4300030BC704741646420636861726163746505
:10B440007269737469632C205375636365737366E3
:10B45000756C6C79200D0A0D00000000436C65616D
:10B46000725F73656375726974795F646228292CF1
:10B47000205375636365737366756C6C79200D0A70
:10B480000D00000010B5074979441831064C7C4482
:10B49000163404E00A68081D114488470146A14299
:10B4A000F8D110BD98000000E400000050617373F3
:10B4B0005F4B65795F5265737028292C2053756343
:10B4C0006365737366756C6C79200D0A0D0000005E
:10B4D000494F5F4361706162696C69747928292CF6
:10B4E000205375636365737366756C6C79200D0A00
:10B4F0000D0000004852535F5570646174654368E5
:10B5000061722C205375636365737366756C6C7917
:10B51000200D0A0D000000004EF68851CEF2000109
:10B52000086840F470000860BFF34F8FBFF36F8F5F
:10B530004FF00170E1EE100A70470000C1FEFFFFFE
:10B54000E409000048220020700800003C000320AD
:10B55000000000006DF8FFFF020000000200000084
:10B560006003000002000000280003201400000017
:10B5700051F8FFFF02000000020000004603000037
:10B58000EE01000008100020401200000000000042
:10B5900000000000000000000000000001000000AA
:10B5A00002000000030000000400000000F00DF89D
:10B5B000002801D0FFF766FFAFF300800020AFF353
:10B5C0000080F8F7A1FD00F002F80120704700F0BC
:10B5D00001B8000007463846F6F796FBFBE7000087
:10B5E0000548014603B4684680F30988AFF300803C
:10B5F000FFF792FFFFF7DAFFA5EDF5FE424C455F3E
:10B600004556545F56414C55455F434F4E4649524F
:10B610004D00000038B504460D462846FFF7CCFE25
:10B62000A84218BF0024204632BD0000424C455FAE
:10B630005045524950485F5345435F5245510000C1
:10B64000424C455F50414952494E475F434F4E4639
:10B6500049524D00424C455F504153534B45595F51
:10B660005245535000000000424C455F5345545F23
:10B6700041555448454E5F5245510000424C455F8C
:10B680004346475F52414E445F41444452000000EC
:10B69000424C455F4556545F5550445F434F4E4EB4
:10B6A00000000000424C455F4556545F50415353E3
:10B6B0004B45595F52455100424C455F4144565FEE
:10B6C000504152414D000000424C455F43484152B9
:10B6D0005F41444400000000424C455F434C4541FB
:10B6E000525F444200000000424C455F5055425FAB
:10B6F0004144445200000000424C455F52414E44D8
:10B700005F41444452000000424C455F52465F5046
:10B710004F57455200000000424C455F4E4F544980
:10B72000465F56414C000000424C455F494E44493B
:10B73000435F56414C000000424C455F434F4E4E24
:10B740005F494E5400000000424C455F4556545F2F
:10B750005752495445000000424C455F4556545FDE
:10B76000434F4E4E00000000424C455F4556545F2B
:10B7700050414952494E4700424C455F4556545F3F
:10B780004E4F4E45000000000148804701480047E9
:10B79000DDB00008E1B50008424C455F5445535404
:10B7A00000000000424C455F494E49540000000033
:10B7B000424C455F494F5F4341504100424C455F19
:10B7C0004E414D4500000000424C455F4E4F4E45F6
:10B7D00000000000424C455F53564300424C455F19
:10B7E00041445600424C455F52535400FFF7FEBFA0
:10B7F000FFF7FEBFFFF7FEBFFFF7FEBFFFF7FEBF7D
:10B80000FFF7FEBFFFF7FEBFFFF7FEBFFFF7FEBF6C
:10B81000FFF7FEBFFFF7FEBFFFF7FEBFFFF7FEBF5C
:10B82000FFF7FEBFFFF7FEBFFFF7FEBFFFF7FEBF4C
:10B83000FFF7FEBFFFF7FEBFFFF7FEBFFFF7FEBF3C
:10B84000FFF7FEBFFFF7FEBFFFF7FEBFFFF7FEBF2C
:10B85000FFF7FEBFFFF7FEBFFFF7FEBFFFF7FEBF1C
:10B86000FFF7FEBFFFF7FEBFFFF7FEBFFFF7FEBF0C
:10B87000FFF7FEBFFFF7FEBFFFF7FEBFFFF7FEBFFC
:10B88000FFF7FEBFFFF7FEBFFFF7FEBFFFF7FEBFEC
:10B89000FFF7FEBFFFF7FEBFFFF7FEBFFFF7FEBFDC
:10B8A000FFF7FEBFFFF7FEBFFFF7FEBFFFF7FEBFCC
:10B8B000FFF7FEBFFFF7FEBFFFF7FEBFFFF7FEBFBC
:10B8C000EC00000181008100810081008100810085
:10B8D0008100810081008100810081008100810060
:10B8E0008100810081008100810081008100810050
:10B8F0008100810081008100810081008100810040
:10B9000081008100BB005920C2CDCCA6C100009EA1
:10B91000C1CDCC96C1CDCC8CC1000084C1000074D7
:10B92000C19A9961C1666652C1CDCC40C166662E8E
:10B93000C166661EC19A990DC19A99F9C0CDCCDC39
:10B94000C0CDCCBCC066669EC0000080C09A99493C
:10B95000C0CDCC1CC06666E6BF6666A6BF9A995984
:10B96000BFFD0004BF9A9919BEFA0001803FFD0097
:10B970006D4000004040000080400000A0400000FA
:10B98000C04098B70008D4B70008A4B70008B8B6FC
:10B990000008DCB70008C8B600082CB6000840B69E
:10B9A000000854B60008B0B7000868B60008D8B65A
:10B9B0000008E4B700087CB60008E8B60008F8B64E
:10B9C0000008BCB7000808B7000818B7000828B777
:10B9D000000838B70008C8B700081E15000801FDA8
:10B9E000000394210020FC00033F110008FC000329
:10B9F00039110008FC000B551100083D11000869C1
:10BA0000110008F800032D110008FC00041B1100B0
:10BA10000801F90013020401010829002058290037
:10BA2000200829002008290020FC00030829002004
:10BA3000FC0007902100207C210020E0001BDA1987
:10BA40000008DA190008DA190008DA190008DA190A
:10BA50000008DA190008DA190008F8FF0BE61400EC
:10BA600008DA190008DA190008FAFFF200F8FFF006
:10BA700000030DFF0183F4000009F1001C48B7002A
:10BA80000858B7000890B60008FCB50008A4B60036
:10BA90000868B7000878B7000801F9000010FC003A
:10BAA0000E040048000400480004004800093D005E
:040000050800B5E159
:00000001FF
