:020000040800F2
:100000000810002095540008E1560008E356000847
:10001000E5560008E7560008E95600080000000011
:10002000000000000000000000000000EB56000887
:10003000ED56000800000000EF560008F1560008D9
:100040003D5900084159000845590008F556000877
:10005000495900084D59000819570008515900081E
:1000600055590008595900081F5700085D590008E4
:100070006159000865590008F956000869590008D7
:100080006D590008715900087559000800000000FA
:1000900000000000795900087D5900082557000824
:1000A0008159000885590008895900088D590008B0
:1000B0009159000895590008995900089D59000860
:1000C0000000000000000000A1590008000000002E
:1000D000FF560008A559000800000000A9590008B3
:1000E000AD590008B159000800000000B5590008DA
:1000F0000D5700081157000815570008B959000896
:10010000BD590008000000000000000000000000D1
:10011000C1590008C5590008C9590008000000006D
:1001200000000000000000000000000000000000CF
:100130000000000000000000CD59000838B50400A0
:1001400001D1012032BD04F18405686808B900F0CE
:1001500020F800F00DF808B100F031F800F02CF8AC
:10016000012804D000F00DF821F02A0116E032BD7C
:100170002420686020680168490849000160A06A7D
:1001800070472068416821F490414160206881688F
:10019000704700212970204600F026BF816000F0E2
:1001A00004F8BDE8324000F020BB2068016841F04F
:1001B0000101016020467047204600F0AFB920469B
:1001C00000F0B0BA38B50346D3F88C0020280AD125
:1001D00009B1100001D1012032BD00F006F8BDE8E0
:1001E000384000F0ADBB022032BD0020D866DFF8F9
:1001F00028431868A0420CD04068040209D518684A
:1002000050E8004F054644F0806445E8004000286F
:10021000F5D118467047216801F1080353E8001F23
:10022000206800F1080221F0400142E80010002897
:1002300070472DE9F041044640F60F0C2268D6695C
:10024000104616EA0C0F0768936804F15C0507F086
:10025000200006F020010DD1002914D010B9D800DB
:1002600040F18D80A969002900F045812046BDE854
:10027000F0410847DFF83CC813EA0C0F04BFDFF871
:1002800038E817EA0E0F7AD05FEAC67E48BF5FEA09
:10029000C75807D54FF0010EC2F820E06A6B42F054
:1002A00001026A63B2070AD5DA0708D5D4F800E07C
:1002B0000222CEF820206A6B42F004026A637207C1
:1002C0000AD5DA0708D5D4F800E00422CEF82020B9
:1002D0006A6B42F002026A6332070DD5002808BF3C
:1002E00013EA0C0F08D0D4F800C00822CCF8202064
:1002F0006A6B42F008026A63320509D57F0107D5AF
:1003000026684FF4006232626A6B42F020026A6330
:100310006A6B002A32D031B108B9D80003D5A96977
:1003200009B120468847686B21688A68510602D463
:1003300010F0280F1DD0204600F08EFB2068816849
:10034000480611D5FFF767FFFCD1686A60B10FF26C
:1003500079718163686A00F049FF00280ED0686AED
:10036000816BBDE8F04108472046BDE8F04101F04F
:1003700007B8204601F004F800206863BBE0286954
:10038000012878D1F00676D5F90674D510201062D0
:10039000226829889068420637D56A6A13685868C7
:1003A00080B2002828D0884226DA68801068016868
:1003B0008A061AD400F0ABF821F4807100F0A3F89B
:1003C000F8D100F05BFAFCD1FFF725FFFCD120202B
:1003D00028630021296100F09AF821F0100100F053
:1003E00092F8F8D1686A00F0CBFE02206861298893
:1003F0006888091A89B206E088427CD11A6890069A
:1004000079D502226A61204631E06A886888891AB3
:1004100000281CBF88B200286DD02246106850E822
:10042000003F044623F4907300F067F8F6D110689B
:1004300000F1080400F1080354E8004FDFF87006EB
:10044000044043E800400028F1D102F15C03202081
:10045000186300241C619C61146854E8004F1568FF
:1004600000F02CFBF8D10220586189B21046BDE89B
:10047000F04100F086BFF00209D5590207D54FF4CC
:10048000801010622046BDE8F04100F07BBF3006CE
:1004900009D5390601D4180205D5E96959B32046B2
:1004A000BDE8F0410847700613D5790611D500F074
:1004B0002EF821F0400100F026F8F8D104F15C009C
:1004C0002021C1620022C2612046BDE8F04100F057
:1004D00089BF300206D5790004D52046BDE8F04139
:1004E00000F094BFF00148BF002F04D52046BDE8BE
:1004F000F04100F08CBFBDE8F08144E800300028F6
:10050000704741F0800142E80010002870472068E1
:1005100050E8001F0246704700800040F8B50446CE
:10052000DFF8D00722681368A168034020690B43F5
:1005300061690343E0690B4303431360002551687D
:10054000E06821F4405101435160A369DFF8A81726
:100550008A421CBF206A03439668DFF8A007DFF8D1
:10056000A0E7DFF8A07706403343936067A6D36A1D
:10057000606A1B0940EA0313D3627245DFF88807FB
:100580004FF4004338D13F6807F00307032F4CD8DE
:10059000DFE807F0024542484FF0010CE169B1F590
:1005A000004F4FF6F07740F07F80BCF1010F09D08B
:1005B000BCF1020F0AD0BCF1040F70D0BCF1080FDF
:1005C00070D098E001F09EFA002814D0626A616849
:1005D00036F81230B0FBF3F04A0802EB4002B2FBEF
:1005E000F1F0A0F11001B942EBD20740C0F3420094
:1005F00007432068C7607FE08A4216D13F6817F43E
:10060000406723D0B7F5806F09D0B7F5006F03D0EE
:10061000B7F5406F06D008E04FF0020C07E04FF04E
:10062000040C04E04FF0080C01E04FF0100C8A427B
:10063000B4D1BCF1000F09D0BCF1020F0AD0BCF15B
:10064000040F15D0BCF1080F15D054E001F052FA98
:10065000002851D0616A36F81120B0FBF2F66268CA
:1006600002EB42018E4246D31303B34205D242E06D
:1006700001F0F6F9ECE71846ECE75008002110EB22
:10068000062051EB1661002301F0B6FAA0F5407682
:10069000DFF82477BE422ED22168C8602CE001F03A
:1006A000DFF991E7184691E7BCF1010F09D0BCF1E1
:1006B000020F09D0BCF1040F18D0BCF1080F18D0FC
:1006C00019E001F01FFAB8B1626A36F812306168B9
:1006D000B0FBF3F000EB5100B0FBF1F0A0F1100122
:1006E000B94208D2226880B2D06005E001F0B8F9C2
:1006F000E9E71846E8E7012504F168000121002335
:1007000041800180C36003612846F2BD0100020000
:100710000400060008000A000C0010002000400041
:100720008000000190F828100A0706D50268536877
:10073000816B23F400430B43536090F82810CA07E1
:1007400006D502685368C16A23F400330B43536033
:1007500090F828108A0706D502685368016B23F4C5
:1007600080330B43536090F828104A0706D502687F
:100770005368416B23F480230B43536090F8281097
:10078000CA0606D502689368C16B23F480530B43F5
:10079000936090F828108A0606D502689368016C69
:1007A00023F400530B43936090F828104A0610D5A9
:1007B00002685368416C23F480130B435360436C0D
:1007C000B3F5801F05D15368816C23F4C0030B433C
:1007D000536090F828100A0606D501684A68C06C74
:1007E00022F4002202434A607047F8B5044604F13F
:1007F00084050020E8606FF07E4701F081FA06462C
:10080000206801680A0714D50097334600224FF488
:100810000011204600F04AF858B1FFF778FE21F0A9
:100820008001FFF770FEF8D104F1840020214160BF
:1008300016E0206801684A0716D500973346002263
:100840004FF48001204600F031F868B100F024F840
:10085000FCD100F013F8FCD104F184002021816068
:10086000002202700320F2BD202068602021A960D0
:100870000020E066002121672870F2BD216801F1A7
:10088000080353E8001F2068490800F108024900E6
:1008900042E8001000287047206850E8001F024618
:1008A00021F4907142E80010002870472DE9F041D2
:1008B000069C05460E4690461F462868C169314091
:1008C000B1420CBF01200020404537D114F1010F87
:1008D000F3D001F015FAC01B844200D314B90320F1
:1008E000BDE8F081286801684A07E6D5802E18BF68
:1008F000402EE2D0C169080704D42968C8690105FF
:10090000DBD50DE02A6808201062284600F0A4F824
:1009100005F184000821C160002202700120DFE798
:1009200029684FF400600862284600F095F805F148
:1009300084002021C16000220270D0E70020CFE7B0
:1009400030B5034600209965FF2403F15C010A805D
:100950004A8088619868B0F5805F04D1186990B9C1
:1009600040F2FF140FE018B9186960B17F2007E06A
:10097000B0F1805F06D1186908B97F2403E03F20F9
:10098000888001E000248C800020486322240C63CE
:10099000196801F1080555E8001F186800F10804FE
:1009A00041F0010144E800100028F1D103F15C019D
:1009B0008868B0F1005F28D18889824225D39A687F
:1009C000B2F5805F04BF1869002803D10FF23D32F1
:1009D0008A610BE00FF24D248C61186930B100F090
:1009E00036F841F48071FFF78EFDF8D1196801F1F6
:1009F000080454E8001F186800F1080241F0805113
:100A0000FFF781FDF2D1002030BD9868B0F5805F1E
:100A100004BF186900280CD10FF20D128A61186802
:100A200050E8001F024641F02001FFF76CFDF6D1AF
:100A3000E9E70FF2A1028A6118690028EFD000F0FF
:100A400006F841F49071FFF75EFDF8D1DBE7196815
:100A500051E8001F1A687047016851E8002F0B46E3
:100A600022F4907243E800210029F5D1016801F1D8
:100A7000080301F1080253E8003F0D490B4042E82A
:100A800000310029F2D1C16E012909D1026852E872
:100A9000002F036822F0100243E800210029F5D15D
:100AA0002021C0F88C100022C26642677047000007
:100AB000FEFFFFEF010000102001000424F01004ED
:100AC00045E8004000287047806A0021A0F85E10C9
:100AD00000F056BC10B500F050F81FD14B6A918859
:100AE000846D0B402370816D4B1C00F04CF819D1C4
:100AF00000F050F8FCD100F057F8FCD100F06CF891
:100B00000BD10023136100F05DF8FCD10168CB69C3
:100B1000DC0644BF10230B627AE07EE0886940F077
:100B20000800886110BD000010B500F026F81FD144
:100B30004B6A9188846D0B402380816D8B1C00F083
:100B400022F819D100F026F8FCD100F02DF8FCD1E4
:100B500000F042F80BD10023136100F033F8FCD110
:100B60000168CB69DC0644BF10230B6250E054E0FF
:100B7000886940F00800886110BD00F15C020168DE
:100B8000136B222B7047836551884B1E538051880D
:100B900000297047026852E8002F036822F490721F
:100BA00043E8002100297047026802F1080454E874
:100BB000002F0168520801F10803520043E80021A8
:100BC00000297047016851E8003F0C4623F01003EC
:100BD00044E800310029704700F15C0220211163D4
:100BE0000023936100215161434B016899420CD06D
:100BF00049680B0209D5016851E8003F0C4623F013
:100C0000806344E800310029F5D11169012970475A
:100C10001188BDE8104000F0B4BBBDE8104000F002
:100C2000D7BB00002DE9F84300F010F94BD1A8899B
:100C300000283AD0B80638D500F0D2F80870A06D78
:100C4000421C00F0C4F817D0F90748BF5FEAC85249
:100C500000F0B4F803D5F20701D500F0CFF878071B
:100C600003D5F20701D500F0C1F8686B20B120462A
:100C700000F086FB0020686368880028DAD100F065
:100C8000CFF8FCD100F028F8FCD100F0FDF809D134
:100C900000F0EAF844BF102101622988204600F0E4
:100CA00070FB02E0204600F093FB688868B1A989D8
:100CB00088420ADA00F0BEF8FCD18048A86100F052
:100CC000A5F8FCD101E000F002F8BDE8F1838169EC
:100CD00041F0080181617047206800F1080200F1CD
:100CE000080152E8002F7648024041E80020002821
:100CF00070470000F369FFCF00800040FFF4FF1150
:100D000000380140880000580024F4002DE9F84321
:100D100000F09CF84BD1A88900283AD0B80638D505
:100D200000F05EF80880A06D821C00F050F817D02B
:100D3000F90748BF5FEAC85200F040F803D5F20750
:100D400001D500F05BF8780703D5F20701D500F074
:100D50004DF8686B20B1204600F012FB002068635C
:100D600068880028DAD100F05BF8FCD1FFF7B4FF07
:100D7000FCD100F089F809D100F076F844BF1021C9
:100D800001622988204600F0FCFA02E0204600F0CB
:100D90001FFB688868B1A98988420ADA00F04AF81E
:100DA000FCD14848A86100F031F8FCD101E0FFF720
:100DB0008EFFBDE8F183000000FD0F0005D5012185
:100DC0000162686B40F001006863B8077047A26574
:100DD0006888411E69802068C76917F0070F70474F
:100DE0002168486AA16D09EA000070472168042063
:100DF0000862686B40F00200686370472168022057
:100E00000862686B40F0040068637047216851E82D
:100E1000001F226841F0200142E8001000287047BE
:100E2000216851E8001F226821F4807142E8001017
:100E300000287047226802F1080353E8001F0832B7
:100E400021F0805142E8001000287047044604F168
:100E50005C052068B5F80490C7690146D1F80080A8
:100E60008668296B2229704700212961206850E893
:100E7000001F024621F0100142E800100028F5D1C1
:100E80002068C169CA067047202028630021A96133
:100E9000002068610C49206888420CD0406801023B
:100EA00009D5206850E8001F024621F0806142E821
:100EB00000100028F5D1286901287047D50A0008DC
:100EC000FEFFFFEF290B000800800040754981B04C
:100ED0000A6802430A60096808400090009801B05F
:100EE000704780B54FF40020FFF7F0FF002200218B
:100EF0002E2000F022FFBDE802402E2000F03ABF75
:100F00000168694A914200D0704780B54FF4801063
:100F1000FFF7DCFF002200212C2000F00EFF2C2028
:100F200000F028FF002200212D2000F006FFBDE880
:100F300002402D2000F01EBF10B58CB004463021B9
:100F4000684600F06BFF226858498A420FD14FF47F
:100F5000007000904FF000410691684600F06CFF71
:100F600008B101F014F94FF48020FFF7AFFF0CB087
:100F700010BD30B58DB00446302101A800F04EFF01
:100F800022684B498A422DD101F002F9494D01F006
:100F9000FFF8A96B012060F30921A9634FF40060F9
:100FA00001904FF48071099101A800F045FF08B14C
:100FB00001F0EDF8A86B40F40040A8630022296816
:100FC00041F4806129600021286800F4806000906D
:100FD0000098032000F0B1FE032000F0CBFE204675
:100FE00001F06AF90DB030BD38B592B00446142155
:100FF00001A800F013FF302106A800F00FFF2068C1
:101000002D4988424BD1012200210692079106A862
:1010100000F012FF08B101F0BAF82848284D4169E4
:1010200041F480414161416901F48041009100999E
:10103000026842F0010202600221006800F0010033
:1010400000904FF4C060009A0291012203920321A4
:10105000019004910722059201A94FF0904001F000
:1010600045F9184828600F21696000201022E860C7
:1010700080216861A861E8612862AA602961284628
:1010800000F022F808B101F082F8E567AC620022B6
:101090000021242000F051FE242000F06BFE13B04C
:1010A00030BD000050000058000C005800100058DF
:1010B0000028004058000058003801404C000058FB
:1010C000E81300204400024038B5040001D101209B
:1010D00032BD2168DFF890024118142200F04AF86E
:1010E000DFF888022A62E8610221697020680268DC
:1010F000A068E16823686FF30E12024320690A4377
:1011000061690243A0690A43E1690243206A0A4314
:1011100002431A60204600F002F9A068B0F5804F43
:1011200004BF002161602079696A00F03F0000F08F
:101130001BF838B1052805D2204600F005F900F06B
:101140000CF803E0002028636863A8630021A9610C
:10115000012068702970002032BD296B00200860D2
:10116000696BA86B486070470860A96AE86A4860C4
:101170006068704704F12405B1FBF2F292007047F9
:1011800040B100F124014A78022A05D00420886188
:1011900000220A70012070470268136823F00E03D2
:1011A00013604A6A136823F480731360006802684E
:1011B000520852000260012091F82020CB6902F011
:1011C0001C02904058608A6AC86A5060086B38B147
:1011D0000246106820F4807010604A6B886B506083
:1011E0000120487000220A700020704738B500F1D5
:1011F000240200245178022903D0042090610124A4
:1012000029E001680B6823F00E030B6001680D688C
:101210006D086D000D60516A0B6823F480730B60DC
:10122000012192F82030D56903F01C0399406960D0
:10123000936AD16A5960116B39B10B46196821F470
:1012400080711960536B916B59600121517014705A
:10125000516901B18847204632BDF8B500F124013B
:101260000426CA69126803681C6891F8205005F0CA
:101270001C0506FA05F73A4210D067070ED51A6822
:10128000940603D41A6822F004021A6000F03EF8B3
:10129000C968002939D0BDE8F4400847022606FA9B
:1012A00005F73A4213D0A70711D51A68940605D45A
:1012B0001A6822F00A021A6001234B7000F026F827
:1012C00000220A70896801B3BDE8F4400847082687
:1012D00006FA05F52A4218D0220716D51C6824F014
:1012E0000E041C60012291F82030CC6903F01C032D
:1012F0009A406260012301228A614B7000220A70C9
:10130000096911B1BDE8F4400847F1BD91F820200A
:10131000CB6902F01C0296405E607047000010B579
:10132000426C1349920801EB820383641422017812
:10133000104BC3640839B1FBF2F1012401F01F0125
:1013400004FA01F1016510BD01790B4A0B4B83656D
:1013500001F03F0102EB81024265491E012201F0CA
:1013600003018A40C2657047F8FFFDBF00000240DC
:101370000008024080080240FC0802404009024088
:101380007047704770470EE00268436802440830B7
:101390005FEAC37C44BF4B445B1E52F804CB43F866
:1013A00004CB091FF9D150F8041B0029ECD1704778
:1013B000002800D0704710B5104C00F004F8BDE8CC
:1013C0001040FEF7FFBE0F4823600F4B03607047CD
:1013D00000680D49884204D1084A1068002818BFE7
:1013E0000047704700680849884204D1044A1068E1
:1013F000002818BF0047704700000000B01500200B
:10140000B4150020C011002000380140704770471B
:101410004FF0B040006800F0F000B02888BFB02066
:101420007047DFF878070068000100F0F0007047AF
:101430002DE9F041040051D0207881064FF0B045ED
:101440003AD5A868E96810F00C0001F0030103D058
:101450000C2808BF012943D1E06900283ED0FFF7DE
:10146000D7FF0146606A814211D200F05DFB00287F
:1014700034D12968606A21F0F0010143296069686C
:10148000206A21F47F4141EA0021696009E029686E
:1014900021F0F001084300F0F0F9606A00F044FB2D
:1014A000E0B900F019FBDFF8F8160860DFF8F40681
:1014B000006800F0F3FF88B92078C10763D5A868F9
:1014C000E96800F00C00082801F0030103D00C28A3
:1014D00008BF03292FD16068002854D10120CAE138
:1014E000E069B8B1296841F0010100F0B1FA06469F
:1014F0002868800706D400F003FC801B0328F7D37C
:101500000320B8E12868616A20F0F000084300F089
:10151000B4F9D1E7286840084000286000F0F0FBEB
:10152000064628684008C007C6D500F0E9FB801BC6
:101530000328F6D3E4E76068B0F5803F04D129685A
:1015400041F48031296003E0286820F4803028606D
:10155000606858B100F0D4FB06462868800312D4B6
:1015600000F0CEFB801B6528F7D3C9E700F0C8FB6D
:1015700006462868400CC00705D500F0C1FB801B5B
:101580006528F6D3BCE72078810715D5A868E968F7
:1015900000F00C00042801F0030103D00C2808BF60
:1015A000022928D1E068002898D06868216920F0D5
:1015B000FE4040EA016068602168DFF8EC6511F0E8
:1015C000180F00F08C806069002878D0C806706819
:1015D00059D5800731D4716841F00101716000F084
:1015E0008FFB07467068800727D400F089FBC01B7B
:1015F0000328F7D384E7E06870B1296841F480716B
:1016000000F026FA064628684005CED400F078FBA4
:10161000801B0328F7D373E7286820F480702860C4
:1016200000F06EFB06462868800AC007C4D500F0AB
:1016300067FB801B0328F6D362E7706840F0040064
:1016400000F024F907467068000705D400F058FB45
:10165000C01B0428F7D353E77068A16920F47060B9
:1016600040EA0120706070684008400000F00EF908
:10167000074670684008C00731D500F041FBC01B29
:101680000328F6D33CE740F0010000F0FFF80746DE
:101690007068800705D400F033FBC01B0328F7D324
:1016A0002EE7706820F0040070607068C008C00702
:1016B00015D500F025FBC01B0428F6D320E7706881
:1016C00020F0040000F0E2F807467068C008C00788
:1016D000C9D500F015FBC01B0428F6D310E720780D
:1016E00041074CD5DFF8C484D8F80000C1050ED4FA
:1016F00000F04EFD00F004FB0746D8F80000C105DD
:1017000005D400F0FDFAC01B0328F6D3F8E6A06864
:10171000012804D1306840F00100306010E0052855
:10172000306806D140F004003060316841F00101BA
:1017300005E0400840003060316821F0040131606C
:10174000A06841F2893760B100F0DAFA804630686B
:10175000800714D400F0D4FAA0EB0800B842F6D306
:10176000CEE600F0CDFA804630684008C00706D5C6
:1017700000F0C6FAA0EB0800B842F5D3C0E6A06AB4
:10178000002877D0A968EA68022801F00C015DD131
:10179000E36A02F00300984202BF02F07000236B7C
:1017A000984213D1636BC2F30620984202BF02F441
:1017B0007810A36B984209D1E36B02F06060984205
:1017C00002BF02F06042206C824233D00C293ED02E
:1017D00000F05FF806462868810105D500F090FA10
:1017E000801B0328F7D38BE6EA68DFF8C403E16ABD
:1017F0000240206B0A43616B0243A06B42EA012264
:10180000E16B0243206C0A430243EA60296841F01D
:1018100080712960E86840F08050E86000F070FA5C
:1018200004462868810125D400F06AFA001B0328C9
:10183000F7D365E6286881011CD4286840F08070E1
:101840002860E96841F08051E960E7E70C293FF43E
:1018500045AE00F01EF804462868810105D500F069
:101860004FFA001B0328F7D34AE6E968DFF8440380
:101870000140E9600020BDE8F08128606868216AC5
:1018800020F47F4040EA012068607047706000F0FB
:1018900037BA286820F08070286000F031BA2DE94E
:1018A000F8430400884600F0B080DFF80C5300F0E5
:1018B000D2F80CD200F0C8F8074600F0CCF806D0F9
:1018C00000F01EFAC01B0228F7D90320BAE02078E6
:1018D00082074FF0B04711D5B968A06821F0F00138
:1018E0000143B96000F00CFA0646B868C00305D49D
:1018F00000F006FA801B0228F7D9E6E72078DFF827
:101900009C62820612D53168606921F0F0010143C2
:10191000316000F0F5F981463068800306D400F0AC
:10192000EFF9A0EB09000228F6D9CEE720784106AE
:1019300013D53068A1690009000140EA1110306038
:1019400000F0DEF981463068C00306D400F0D8F913
:10195000A0EB09000228F6D9B7E72078420711D595
:10196000B968E06821F4E0610143B96000F0C8F9AA
:101970000646B868800305D400F0C2F9801B02282F
:10198000F7D9A2E72078010712D5B868216920F4B9
:10199000605040EAC100B86000F0B2F90646B8688D
:1019A000400305D400F0ACF9801B0228F7D98CE77E
:1019B0002078C1072BD56068022819D139688903BE
:1019C00023D5BA68920840EA8200B86000F098F91E
:1019D0000646B868616800F00C00B0EB810F16D0C5
:1019E00000F08EF9801B41F289318842F1D36CE717
:1019F000032802D13968890103E00028396802D13F
:101A00008907DED401E04905DBD401201AE028680B
:101A100000F0070080450BD200F016F8044600F0F5
:101A20001AF805D000F06CF9001B0228F7D94CE732
:101A300000F052F85A49086000F066FDBDE8F24334
:101A400000F02CBDBDE8F2832968C90848EAC1014D
:101A5000296000F055B9286800F00700404570473C
:101A600038B54FF0B045564CA96811F00C0106D1BD
:101A7000FFF7CEFCC0F3031054F8200032BD042958
:101A8000504828D00829504A04D12968C90222D4D4
:101A9000104632BDE96801F0030102290CD0032988
:101AA00004D12968C90207D4104605E0FFF7B0FC4D
:101AB000C0F3031054F82000E968EA68EB68C1F34A
:101AC00006214843C2F30211491C5B0FB0FBF1F041
:101AD0005B1CB0FBF3F032BD80B5FFF7C1FF3749A7
:101AE000FFE73A4A0968C1F3031152F82110B0FB2D
:101AF000F1F002BD80B5FFF7EFFF00F010F8C1F381
:101B0000022106E080B5FFF7E7FF00F008F8C1F317
:101B1000C22112F8211001F01F01C84002BD27495F
:101B20002B4A09687047000070B52549B1282EBFBF
:101B3000CC6AC0F3031051F82040FFF772FC234930
:101B400025A2C0F3031051F820002249B4FBF0F0A5
:101B5000B0FBF1F00024002152F82130834217D26B
:101B6000491C0329F8D9144D2868C00844EAC0006C
:101B7000286000F0C5F80646286800F00700A0427B
:101B80000AD000F0BDF8801B0328F5D3032070BDF8
:101B900015A050F82140E6E7002070BD080100586C
:101BA000A410002098100020900000580004005855
:101BB0008C80C111FCFFFFEF004000580800005866
:101BC0003C5600080024F4000048E801FC550008D9
:101BD0008C58000840420F00120000002400000052
:101BE000360000004000000000000000010000007E
:101BF0000200000003000000D3BBD9B1B2F5803F62
:101C00005BD2022A1ED98C46B1FBF2F102FB11C352
:101C10001B0443EA1043B3FBF2FC02FB1C3380B20B
:101C200040EA0343B3FBF2F002FB103240EA0C40FF
:101C300000237047022A05D98446B0FBF2F002FB6C
:101C400010C270474AB105D100F0010249085FEAAD
:101C50003000704700220023704700F071BC0B0079
:101C60000200002100207047F7D3002200237047B4
:101C7000904271EB030CF2D370B5B1FA81F4B3FA70
:101C800083F52C1BA340C4F1200532FA05F633433B
:101C9000A2405FF00046E64002E05B085FEA3202E5
:101CA000841A71EB030524BF204629467641F4D3FC
:101CB00002000B003000002170BD70B5B1FA81F454
:101CC000B2FA82F5C4F120046419B4F12006DAD323
:101CD000B2405FF00044F440002502E052085FEAA1
:101CE0003303C61A71EB020E24BF304671466441BD
:101CF0006D41F3D302000B002000290070BD704736
:101D000001484068704700BF9010002009010200A0
:101D100002D4394881547047384B02F00F021A44FC
:101D200002F8041C704736490A6860F30A2240F240
:101D3000FA5060F31F420A60704770B5304B1C6860
:101D4000C4F302230124C3F10705052D2EBF0F257F
:101D500004FA05F56D1E1E1D072E34BF0023DB1E81
:101D60002940994004FA03F3BDE870405B1E1A4015
:101D70001143CBE7010007D4012200F01F01214BE2
:101D80008A40400943F82020704701000BD401220B
:101D900000F01F011C4B8A40400943F82020BFF38C
:101DA0004F8FBFF36F8F7047401EB0F1807F01D31C
:101DB000012070471549164A48600023F020107032
:101DC0008B600720086000207047010007D40122C3
:101DD00000F01F010F4B8A40400943F82020704754
:101DE000010007D4012200F01F010B4B8A4040097B
:101DF00043F820207047000000E400E018ED00E008
:101E00000CED00E000E100E080E100E010E000E027
:101E100023ED00E000E200E080E200E0002200F0BC
:101E200091BB7047DFF87C211368010C23EA014362
:101E300043EA0043136070472DE9F0410546002650
:101E40002868DFF864710105B0462FD53C68286A20
:101E500004F44074844229D000F09AF9002C3968C7
:101E600005D1286A21F44071014339601DE03A68C8
:101E700042F480323A6021F44071386820F48030B6
:101E80003860286A014339603868C1070DD5FFF70B
:101E900037FF04463868800707D4FFF731FF001B7F
:101EA00041F289318842F5D30326B0462878DFF81D
:101EB000FC40C20705D5E16F6868890840EA8101E6
:101EC000E1672978880705D5E16FA86821F44061AA
:101ED0000143E1672978C80644BF2869FFF7A2FFDC
:101EE0002878810644BF6869FFF79CFF287841077E
:101EF0000AD5E868E16F020902F47F2200019143EC
:101F000000F47F200843E067286881051ED5A86992
:101F1000B0F1804F18BFB0F1004F00D018B9E16F99
:101F200021F0404108E0E16F21F04041E16720F0FD
:101F30008050E16F21F040610843E067A869B0F18B
:101F4000C05F03D1216841F080712160286842059B
:101F50000DD5E16FE86921F040510143E167E9697E
:101F6000B1F1005F03D1206840F48030206029681F
:101F7000C80405D57968686A21F440410143796055
:101F8000296888040BD5A169E86A21F03001014372
:101F9000A161A169A86A890840EA8101A16140465E
:101FA000BDE8F08188000058900000580C000058EF
:101FB000604900E0604981B00A6802430A6009682C
:101FC00008400090009801B0704710B500F088FA02
:101FD00000F0D2FA00F021F800F051F8574C5848C0
:101FE000606104F1140000F015FC0420FFF7E2FF2B
:101FF0000120FFF7DFFF00F0B1F800F055F800F026
:1020000075F85048206000216160204600F03AFCDD
:1020100000F0C6FA00F07FFBFCE780B598B04421E1
:1020200007A8FFF7FBFE1C216846FFF7F7FE00F04C
:10203000AFF84548016821F01801012201600992BA
:102040004FF48031089107204FF480710A91079076
:10205000402200210B92119107A8FFF7E9F96F20A8
:1020600002210090019100220292039204920592B3
:10207000069201216846FFF712FC19B000BD80B539
:102080008CB030216846FFF7C9FE4FF440524FF440
:10209000804100920991022210210A920B91684618
:1020A000FFF7CAFE0DB000BD38B500200F21274C48
:1020B000274D6060A16047F6FF70E060002121615C
:1020C000A16161612560204600F0FCFB0022002137
:1020D000204600F070F8CA20686253216962FF212F
:1020E000A868C008C000A860696231BD10B5194C6D
:1020F000194820604FF4E1310C20606100224FF458
:102100000040E0616160A260E2602261A26122623F
:102110006262A2622046FEF711F80021204600F01C
:1021200095FC0021204600F09CFC2046BDE81040B4
:1021300000F06EBC480000584C00005848140020C5
:10214000000C00580010005890000058F0140020B7
:1021500000280040C01100200038014080B5042054
:10216000FFF726FF0120FFF723FF00220F210E209B
:10217000FFF7E3FDBDE802400E20FFF7FBBD80B591
:102180000420FFF717FFBDE80240012012E7704767
:102190000248016841F480710160704700040058F2
:1021A0008A60FF210268516280F82130002180F8A6
:1021B000201000207047F8B53E4E034630684FF4BB
:1021C0007A7540092C46B0FBF4F46C43009493F804
:1021D0002000012801D10220F2BD012083F8200057
:1021E000022783F82170CA201C6860625327186890
:1021F0004762FF241F68B868400507D50098401E55
:1022000000900098F0B1F8684007F7D4B86820F45F
:102210008060B8601868C76807F0800767F4906747
:10222000C760306840092E46B0FBF6F6754300954E
:102230001D680098401E0090009818B1E868460795
:10224000F7D506E018684462032100F023F8032064
:10225000F2BDA868C008C000A860186885682A4355
:102260008260186841611148016841F400210160F1
:102270000F48026842F4002202601868816841F445
:1022800080418160186800F00BF81868446200F023
:1022900001F8F2BD83F82110002083F82000704778
:1022A000816841F480618160012170478008005895
:1022B00000080058A410002090F82010012901D136
:1022C00002207047012180F82010022380F821307D
:1022D000CA2102685162532301684B6201230168DD
:1022E0008A6842F02002FFF75BBF00002DE9F04F43
:1022F0000024DFF88C81634E4FF00F0902460B4635
:1023000031E0614FBA4214BF4FF0070E4FF0040E98
:102310000EFA01F141EA050E5C4941F82CE0C74391
:1023200031685D683940ED0248BF01433160716832
:102330005D683940AD0248BF01437160D8F80010B4
:102340005D683940ED0348BF0143C8F80010D8F874
:10235000041007EA010C5968890348BF40EA0C0CD5
:10236000C8F804C0641C186830FA04F176D0012162
:10237000A1400840F6D04FEA440C032505FA0CF5BD
:102380006FEA050E5D6805F00307012F1CBF05F01D
:102390000305022D10D19568DF680EEA050507FADE
:1023A0000CF73D439560556825EA01015D68C5F36A
:1023B0000015A54029435160A1001D7905F00305D2
:1023C000032D1ED0D5689F680EEA050507FA0CF7A5
:1023D0003D43D5601D7905F00305022D11D1E508B7
:1023E00002EB850501F01C07D5F820B009FA07FAC1
:1023F0002BEA0A0BD3F810A00AFA07F747EA0B07F3
:102400002F6215680EEA05071D7905F0030505FA28
:102410000CF545EA070CC2F800C05D6815F4403FB2
:10242000A0D01A4D4FEA940C55F82C5001F00C0135
:1024300009FA01F7BD43B2F1904F08BF4FF0000E0B
:102440000BD0134FBA4208BF4FF0010E05D0114F09
:10245000BA427FF456AF4FF0020E59E7BDE8F08F55
:102460000AB181617047816270470B4A1368014667
:102470000B421CBF116000F05EB970470000000005
:10248000800800580008005800100048080001406B
:1024900000040048000800480C08005870B50F4EB2
:1024A000044630780025A8B1FFF716FB32784FF4C8
:1024B0007A71B1FBF2F2B0FBF2F0FFF775FC48B9AC
:1024C000102C07D2002221464FF0FF30FFF735FCD9
:1024D000B46000E00125284670BD00BF90100020C8
:1024E000144810B5016841F4807101600320FFF7C2
:1024F0001AFC0020FFF7D2FF0024002814BF01249B
:10250000FEF7EFFC204610BD0B48806870470B4873
:10251000016849084900016070470848016821F0D6
:102520000201016070470548016821F00401016063
:10253000704700000040005890100020042004E084
:102540007047000000B500BF13009646944610394E
:1025500028BFA0E80C50FAD85FEA417C28BF0CC025
:1025600048BF40F8042BC90728BF20F8022B48BFFA
:1025700000F8012B00BD000080B5964A4FF40041E1
:102580001160002000F0C0FA48B180799249934A66
:102590000A600B6823F47C5343EA00230B6001BDFF
:1025A00010B58F488F4C88B0016841F05001016030
:1025B000CA228D48C2615321C161FF210268D2083D
:1025C000D2000260C1618948026842F400420260A0
:1025D00000F0AEFA86480268042161F3020202604C
:1025E00000F0E2FA8349002000F01BFC00F0C7FD78
:1025F0000121012000F0A1FA00F06FF800F07CF852
:102600000FF24D137C4901220020FEF7D1FE00F0AD
:10261000A9FE7A4A0021402001F033F804F23C5030
:102620000FF241010090019169460FF23D0001F067
:1026300091F804F5C961039104F25470029040F2DC
:102640003C510591049402A800F014FF00F088FEAC
:1026500008B010BD70476248016841F05001016048
:10266000704700007047000038B5044688B06068C5
:10267000B0F80B10B1F5124F2DD104A801F02DF9CF
:102680006846002100220023002580E82E006168B2
:1026900001F10D000078D8B900F01EFE0F208DF872
:1026A00000007F218DF8021055480168090CADF833
:1026B0000C100068C0F30B00ADF80E00684601F086
:1026C00005F901F04BF90021012000F036FA02E093
:1026D000012808BF227009B030BD80B5002001F08C
:1026E00039FB012001F036FB022001F033FBBDE88D
:1026F0000240012001F052BB80B50121002001F011
:102700005FFB0121012001F05BFBBDE804400121DA
:10271000022001F055BB4FF0FF3000F013BF00F076
:1027200022BA0021402000F0BABF022000F0D9BF39
:10273000022000F0DEBF012804D0102804D0402879
:1027400004D0704701F039BA01F039BA01F03BBA50
:10275000F8B52C4C284E04F580752888B0F5807F9C
:1027600028D231780D2922D117A1204601F096FBFD
:1027700004F5827710B94FF0B0500CE013A1204659
:1027800001F08CFB08B9204805E011A1204601F0BA
:1027900085FB20B91D486860384601F096FB002093
:1027A00028804FF480712046FFF738FB02E0215467
:1027B000401C2880314601B0BDE8F040144B012296
:1027C0000020FEF7F5BD000053573100535732008B
:1027D00053573300104000589C000058FECAFECAF0
:1027E000900800583C0003200828004008000058CA
:1027F00080040058F014002074150020973700085A
:10280000002004E0B41000200400001606000016AA
:1028100051270008F8B504460025ACB104F1340690
:10282000307910B92046FEF76BFB0F4F384600F0A9
:1028300021F8386840F001103860204600F007F8B1
:1028400035600121317100E001252846F2BD10B547
:102850000021064A064B00EB8104491C06296360EF
:10286000E261F8D310BD0000000C0058231E0008E0
:10287000FF1C0008002101604FF03F1242603F231F
:102880008360704710B5040001D1012010BD607A4B
:1028900020B9002121722046FEF74EFB0220607213
:1028A00021680A68606822F0200202430A602068FA
:1028B000016841F004010160012060720021E160C3
:1028C000002010BD10B5040001D1012010BD94F806
:1028D000210028B9002184F820102046FEF749FB8A
:1028E000022084F821002068C168CA0635D4CA21B4
:1028F000416253202268506200F034F801001AD17E
:102900002168DFF894008A6802408A602268936830
:10291000606821690343A0690B4303439360206807
:10292000E168016120680169A26841EA0241016130
:10293000204600F057F8010009D12168CA6C22F046
:102940000202CA642268D36C61690B43D364FF221C
:10295000216803004A6204D100E00020012184F8CC
:10296000211010BD20461BE038B504460B482168F5
:10297000C860FFF7C5F905462068C168880608D415
:10298000FFF7BEF9401B40F2E9318842F4D303203F
:1029900032BD002032BD0000BFFF8FFF5F5F01002E
:1029A00070B5044600252068C1684A0618D4C1687D
:1029B00041F08001C160FFF7A3F906460AE0FFF786
:1029C0009FF9801B40F2E931884203D3042084F848
:1029D000210001252068C168480601D42800EED0F6
:1029E000284670BD38B5044600252068C16821F02E
:1029F0008001C16020688168880607D42046FFF7FF
:102A0000B3FF18B1042084F821000125284632BD07
:102A100010B500F184010A78012A01D1022010BD0D
:102A200001220A7024234B6002681368146864084A
:102A3000640014600022426623F0005300680360C3
:102A400020224A6000230B70002010BD70B500F0FA
:102A50001FF801D1022070BD00F020F822F0604282
:102A600009E070B500F014F801D1022070BD00F04B
:102A700015F822F0606211438160204600F01CF8D6
:102A8000206806602021696000222A70002070BD45
:102A9000044604F184052878012870470120287035
:102AA00024226A60206806680268520852000260A8
:102AB000206882687047000030B5416E11B901226C
:102AC000012114E0026800BF0BA49168D2F808202D
:102AD0000BA3490E01F00701520FA55C645C9A5CE0
:102AE000595CED00E40095FBF2F294FBF1F16830E3
:102AF0004280018030BD0000010101030701000098
:102B0000080402040801010120B501460648074DEA
:102B100000E00838C2798A4218BFA842F9D18A4237
:102B200018BF002020BD00BFF873FF1F0070FF1FFB
:102B30001B48002101604160704710B500F007F8A4
:102B40005C6800F009F85C6082F3108810BDEFF358
:102B5000108272B6124B704719B1012902D1044399
:102B600070478443704738B5EFF3108472B60C4950
:102B70000C4D086820B1296888476A6890470AE0C8
:102B8000486820B1A8688047E968884703E0286959
:102B900080476969884784F3108831BD00000000D0
:102BA00084150020105900080D48016841F4007197
:102BB000016070470B4B0122196800F01F0002FAF8
:102BC00000F00840704700F01F00064901228240D3
:102BD0008A600968C14011F0010018BF01207047E8
:102BE0000804005810040058DFF854150A6892B21F
:102BF00000E00246086880B28242FAD17047F0B520
:102C0000DFF84055DFF840352E781822044654434B
:102C1000B0421C4404D128786870627D2A700FE0AD
:102C2000267D607D94F815C003F1150756430628EC
:102C300007F806C004D0267D143312FB00F29E5420
:102C4000012020732A78062A02BF00294FF0FF30A6
:102C5000E860F0BD10B5DFF8EC44E06810F1010F5A
:102C60000ED0FFF7C1FFE16881422FBFE268E16843
:102C7000E2888A182179101AE2784843D04000E0AF
:102C8000002080B210BD2DE9F047DFF8C084DFF8E6
:102C9000C004D8F8006001684A0502D5F068410711
:102CA000FCD4B068DFF89C74DFF89CA420F480604A
:102CB000B0604FF018093D780AF1080019FB05F1E2
:102CC0004458FFF7C7FF844202D20024012105E0E7
:102CD00039894118A14203D23C890021B97013E01F
:102CE0000122241ABA700FE019FB05F50AF1080356
:102CF0005F59874226BF5959091A00210AF1080273
:102D000051510AEB05014D7D062DEDD1DFF83474EC
:102D1000A0B238B9FFF768FFF8600320BDE8F047BC
:102D2000FFF753B8022802DAF878012800D0641EB1
:102D3000F0684107FCD5F06800F06CF8F06000F036
:102D400051F9DFF80C04C16864F30F01C160FFF7AB
:102D50004BFFF860D8F80000816841F48061816021
:102D6000AFF30080BDE8F0872DE9F843EFF310845E
:102D700072B6DFF8D853DFF8D0332A68CA20506221
:102D8000532151629068DFF8BC1320F4806090609A
:102D900018200E78374647431F4497F80CC0BCF103
:102DA000020F26D1D7F80080D7F810908878E8B1C4
:102DB0007A7B012A0AD101213046FFF720FF84F3F4
:102DC00010887968304600F013F904E084F3108825
:102DD000304600F0C7F82868CA2141625322426297
:102DE00031464246484601F07FF80EE0FFF74BFFC0
:102DF00009E0D0684107FCD5D06800F00BF8D0603E
:102E00004FF40020086084F31088FF222868426293
:102E1000BDE8F183DFF83C1300F0800060F49060BF
:102E20007047F8B5C94CCA4D2168CA224A6253237B
:102E30004B624FF6FF7C2A6842F020022A602A6823
:102E4000AB68AD681B0C03F07F03C5F30E055B1C7C
:102E50006D1C6F1E1E4602F0070216FB07F6C2F13C
:102E60000402A6F5A076D640B64F66452CBFA7F85B
:102E700008C03E81FA703B71FD80B74A136843F485
:102E800000231360B54B1D6845F400251D6070BB21
:102E90000120B8704FF0FF31F9600020AA490023EB
:102EA00001F10C0418255FFA80FC15FB0CFC401C9A
:102EB000C6B204F80C30062EF5DB06203870A34CA1
:102EC0002068816821F480618160C16801F080011F
:102ED00061F49061C16003204FF40021D160FEF7DE
:102EE0007FFF2068816841F48041816005E0C86807
:102EF000410544BF0320FEF768FF2168FF204862B8
:102F0000002203210320FEF718FFBDE8F240032052
:102F1000FEF730BF2DE9F04104460025EFF310869F
:102F200072B61827DFF820C20CF10C0E07FB05F86B
:102F30001EF8080010B16D1C062DF5DB062D0CD017
:102F40006F430CEB07000127077386F310880461B9
:102F5000427303600D70002002E086F310880120A8
:102F6000BDE8F081F8B50446EFF3108572B6032092
:102F7000FEF70BFF754E7A493768CA2078625323F3
:102F8000224618207B6242438B5C022B21D1002118
:102F90002046FFF734FE6B480178062914D16C48AF
:102FA00001684A0502D5F8684107FCD4B86820F4E6
:102FB0008060B860F8684107FCD5F868FFF72AFF21
:102FC000F86000F00FF804E04078884218BFFFF77F
:102FD0005AFE3168FF2048620320FEF7CBFE85F3DE
:102FE0001088F1BD4FF4002008600320FEF7F8BE02
:102FF0002DE9F84F04468A4618252146524E69436A
:103000007718387B022804BF2046FFF7ABFFEFF3A9
:10301000108872B60320FEF7B8FEDFF83091D9F8B9
:103020000000CA2141625322426202203873C7F86D
:1030300008A0C7F804A0DFF80CA19AF80000062841
:1030400008D100F075F878754FF0FF31CAF80C1010
:10305000002056E0FFF7FEFDB9680918B96006F1D7
:103060000803B9689AF800206A439A5891422AD313
:103070009AF8002004E006F1150E6A431EF80220BB
:1030800006F1150315FB02FC13F80C30062B06D0D5
:1030900006F1080C6B435CF803309942EBD2114601
:1030A000694306F1150E1EF80130062B05D006F116
:1030B000140C15FB03F50CF805407B753A7506F109
:1030C000150254541DE09AF800109AF800C06145AA
:1030D00015FB01F20FD006F1140B06F1150C1BF8CD
:1030E000023015FB03F50CF8054079753B7506F1C8
:1030F00014018C5403E006F1140379759C5400F01C
:1031000017F89AF800109AF801208A4202D0FFF7C7
:10311000BAFD02E0B968081AB860FF20D9F80010BB
:1031200048620320FEF726FE88F31088BDE8F18F81
:103130009AF800108AF801108AF8004070470000E1
:10314000282800404415002054120020F0140020CC
:10315000082800400C080058000800588008005853
:10316000601200206C4900E06C4981B00A6802439B
:103170000A60096808400090009801B070472DE986
:10318000F0428AB0142105A8FEF748FE00220792FB
:1031900003214FF46042069105920120FFF7E2FF00
:1031A00005A94FF09040FFF7A1F85B4C5C4F2168F8
:1031B000490849002160182005900220FFF7D2FF3E
:1031C00005A93846FFF792F8206820F00200206039
:1031D000FFF79DF9FFF7A1F9FFF7A5F9142168465C
:1031E000FEF71CFE4F49504A0E88504B15881C882C
:1031F0004FF6FF70864227D1002400260025A44602
:103200004B4800EBCC0E9EF80600A8B1DEF800009B
:10321000B0F1904F0DD0B84207D0DFF81891484573
:103220000AD1BEF80400044306E0BEF804000543DA
:1032300002E0BEF8040006430CF1010CBCF1260FBD
:10324000DEDB0E8015801C8001210191002003220D
:1032500031000290039211D000960120FFF782FF07
:103260000120FFF781FF69464FF09040FFF73EF8DD
:10327000002231464FF09040FFF7F2F828000FD0BF
:1032800000950220FFF76EFF0220FFF76DFF6946F1
:103290003846FFF72BF8002229463846FFF7E0F8BA
:1032A000200010D000940420FFF75CFF0420FFF7FB
:1032B0005BFF204D69462846FFF718F8002221469B
:1032C0002846FFF7CDF81C491C4B002008801880C9
:1032D0000AB0BDE8F08200001249194818B50A8802
:1032E000114B828087B01988104AC1801388124917
:1032F00003810A88114B00BF12A142811C221C8845
:103300008481684600F0F2FD00F0EBF8684600F0BA
:10331000D5FA08B010BD00004C0000584C01005810
:1033200000040048A8100020AA100020AC100020C3
:10333000CC54000800080048AE100020B010002057
:103340002C0003200000000000000000000000002E
:10335000CC540008280003202C00032026040E0073
:1033600000F057BE6D486E49016001F120024260D5
:1033700001F13003836001F14002026201F1480370
:10338000436201F15002C26001F15803036101F18F
:103390007402426101F1780383618431C16100F0FC
:1033A00056BE38B504465F4D284600F0D7FE5B494F
:1033B0004868A1680160E2685B49C260416085605D
:1033C00000F071FE59482AE080B5544842681368FD
:1033D00001211972406800F06EFE002002BD38B570
:1033E000524C504D04E000F041F8009821688847A5
:1033F000284600F0B6FE0028F5D031BD4B4948689C
:10340000004738B504464A4D284600F0A7FE434918
:10341000C868A1680160456000F04FFE454821681A
:10342000016062684260002032BD80B53B48C268DE
:10343000136810211972C06800F04AFE002002BD16
:1034400036483C4AC168C36811681868084738B5EF
:10345000384C374D04E000F009F80098616888475F
:10346000284600F07EFE0028F5D031BD694628468A
:1034700000F0A0BE38B504462F4D284600F06EFE81
:103480002E4800F06BFE25480069A1688160E26863
:10349000C260056121680160626842602169416122
:1034A0006269826131BD80B50146244800F06CFE3E
:1034B000BDE802400FF2090000F01CBE0000000051
:1034C00038B5164C1D4D06E0FFF7D0FF0099206976
:1034D000006900F059FE284600F043FE0028F3D0B2
:1034E00031BD10B5164C204600F038FE0B49486936
:1034F0000460BDE8104000F016BE1CB5104C06E09C
:103500006946204600F056FE009800F065FE204611
:1035100000F027FE0028F3D013BD000000000320B8
:10352000B8090320580A03209C08032094150020A2
:10353000600A03209C150020480A03208C150020F7
:10354000500A03202DE9F84F7D4CDFF8F8912569EA
:10355000284020614FF0FF3AA06800904FF0010B27
:103560006669E768D4F8188019E062680BFA01F11F
:1035700022EA010161606668804760680640666013
:10358000E06900F02AFEA06800906669E768D4F858
:103590001880E169206A0BFA01F108432062009863
:1035A00022693840104250D016EA080F4DD1002051
:1035B00007EA020100E0401C54F830301942FAD00A
:1035C00054F8301004EBC003394058680A401042E8
:1035D00008BFC3F804A0A068D4F820C059686CEAFA
:1035E000010C20EA0C0012EA000118BF0A4608B9D3
:1035F0004FF0000C5868C4F820C0104000F0A4F848
:10360000E061EFF3108172B60BFA00F2A068D243CA
:103610001040A060012004EBC003401E53F808CC0A
:1036200002EA0C0C43F808CCF5D181F31088E0696C
:1036300000F0D4FDE169202903D259F821000028C7
:1036400093D1002000F0CBFDA9E7C4F81CA0A0692D
:10365000064213D100F0C4FDEFF3108672B6A268E3
:103660006169E068236902401A4202BFA069014211
:10367000FFF755F886F3108800F0B3FD2561BDE82B
:10368000F18F38B5144600F006F82E4941F8204075
:1036900085F3108831BDEFF3108572B654E030B574
:1036A000EFF3108272B6264B9C6804439C6053F87B
:1036B0003150284343F8310082F3108830BDEFF3D6
:1036C000108172B61E4AD36823EA000005E0EFF3CA
:1036D000108172B61A4AD3681843D06081F31088FB
:1036E0007047EFF3108172B6154A53691843506161
:1036F000F4E72DE9F041124DEE690446374616F124
:10370000010F0EBF0026012000FA06F6D5F818803A
:10371000AC6103E02146304600F064FD6869204258
:10372000F8D0EF61EFF3108072B6696921EA040402
:103730006C6180F31088C5F81880BDE8F081000046
:103740004410002068130020B0FA80F0C0F11F0080
:10375000C0B270477FB50C464E4D61684E4E286230
:103760006962281D00F042FD2468746006F10800BB
:1037700000F0F4FC012000F069F801203070696865
:1037800041B10FF2ED020FF2F103009201930294A6
:10379000684688477FBD1FB53F4C04F1080000F024
:1037A000E0FCF8B92078E8B1694604F1080000F0BF
:1037B00001FD3848016A49B10098029001228DF854
:1037C000042001A888479DF8040000E00120207033
:1037D00018B10098FFF767FE04E0009904F10800B3
:1037E00000F0C8FC04F1080000F0BBFC28B9207808
:1037F00018B104F10800FEF794FF1FBD2DE9F04158
:1038000005460E4690461C46002000F01FF8224F49
:103810007868A0F80950C672324641460C3000F074
:1038200065FB1C4A0120107000215269002090475E
:1038300048F2E800FEF77CFF79688A78D21C04F130
:10384000080000F053FBBDE8F041012010B511491C
:10385000124C496A20B901B188470021217010BD7E
:103860000120207011B1BDE81040084710BD0000D4
:103870000020FEF75ABF000010B50146064C04F1C7
:10388000080000F081FC04F10800BDE81040FEF7DC
:1038900048BF0000C814002064150020C515002092
:1038A000FFF7ACFF9DF80E0005B000BDF8B500F1C4
:1038B0000C026B462F214FF66640F1E7F8B500F198
:1038C0000C026B460F214FF66840E9E7F8B5024657
:1038D0006B4610214FF67540E2E7F0B51C491D4BD1
:1038E0000A681D49C2F30D0201EB82010D682A68C6
:1038F0009A4205D16969AA69EB69EC682D6905E00E
:103900002E4631697269B3697468B5680E0E067027
:103910000F0C47700E0A86700272C1F3031601F095
:103920000F010171C670110E4171160C110AC1719F
:10393000220C210E8172C272240A290E2A0C867171
:103940004372047341738273C5730020F0BD00009D
:103950003C400058B95646A90000032038B596B03F
:1039600007A8CB49CB4D3C2200F0C0FA0FF27D30C6
:103970000190009569460FF25D3000F041FCC64AA7
:1039800000210420FFF77DFE07A8FFF78FFF08B195
:10399000FEF7FDFB0FF26830C04D0088ADF81A004D
:1039A00000F002FDBE48016811F1010F0ED042681F
:1039B0002974120A090A6974110A4068EA74A87421
:1039C000120C29756A7505F1100406E00020FFF756
:1039D0009BF8040008BF0FF2343422460621002071
:1039E00000F096FD607900BFCAA228722179697241
:1039F000E078A872A178E97260782873182021789D
:103A0000A84C6973102100F083FD00BFC5A21021EE
:103A1000082000F07DFD1821012000F08FFD00F04E
:103A2000CEFD0DF1160006A90190009105AB07220D
:103A30000021012000F0E2FFB2A0BDF818100090B4
:103A40000523BDF81400002200F075FE0DF11A00E8
:103A500000900223BDF81610BDF81400002200F0FB
:103A60006AFE02220221002000F0FDFC01202070ED
:103A700000F067FF08212171012000216070E170D2
:103A8000102001216071A1700022874810210823B5
:103A9000A0600492039002920191009301220023FE
:103AA0000121012000F061FFA07808B101F01DF8AC
:103AB00001F0C0F800204FF6FF7184F88000E18229
:103AC00001200FF2F9120021FFF7DBFD01F0C6F82B
:103AD00001F0EEF88920E87000220FF2D91304F10A
:103AE00081010020FFF716FA0220607601210D20E7
:103AF000A07604F1190221760220182120761154B3
:103B0000032020768021A02068832983012000F0F3
:103B100079F817B030BD7CB50446624D6078052851
:103B200005F1800604D03E280DD0FF2824D042E0C5
:103B3000A188E88A814202D10021E9823170012006
:103B400000F060F837E0E078012808D00C2832D186
:103B5000E88A6A460DF1010100F05DFC2BE0707807
:103B6000FFF700FA307804280CBF062005203070DB
:103B7000B4F80500E8821EE0B4F8030040F2024108
:103B8000401A0BD0C01E0ED0001F10D040F6050109
:103B9000401A04BFE88A00F004FE0CE0E88A4349BA
:103BA00000F012FF07E0E88A00F0CDFF03E0E88AAA
:103BB000012100F0FCFF012076BD00F0A8BF3949CB
:103BC000C88A00F052BF1CB5364CE08A01AA0DF13C
:103BD000050100F020FCA0B99DF80500022804BFF3
:103BE0009DF80400022804D1002100910123012244
:103BF00004E000200090022302220021E08A00F06D
:103C00005BFC13BD2DE9F04387B00446234D01282A
:103C100007BF2E8BB5F81A904FF4C8664FF47A6937
:103C2000DFF8808008F180077878FFF79BF9022C95
:103C300005D13878012814BF022800F01EFE3C7020
:103C400000200690059008F1190204925FF0060228
:103C500098F8180037A10390029101920023009375
:103C60004A463146002000F01AFE29460E2000F098
:103C700015FF002808BF012C06D178780C4907B041
:103C8000BDE8F043FFF7B4B907B0BDE8F08300002A
:103C900058570008AC0803203F4200086810002075
:103CA0008075FF1FE412002007B2010040E201000E
:103CB00046E0010000210120FFF7F1BC0220A1E74E
:103CC00000210420FFF7EBBC0120FFF70ABD012013
:103CD000FFF70FBD10B50446616801F1080001F05F
:103CE0002FF800B10120207010BD000010B1012894
:103CF00003D070473F20FFF7E2BC3F20FFF7E7BC4F
:103D000040030000485253544D0000006C7AD8AC78
:103D100057720000123456789ABCDEF0123456788E
:103D20009ABCDEF0FEDCBA0987654321FEDCBA09E5
:103D30008765432109485253544D0000474981B0DB
:103D40000A6802430A60096808400090009801B0C0
:103D50007047000078B585B0044600F07AF802207C
:103D6000FFF7ECFF45A13E4E31F8145000950121BC
:103D700001910022022102920391694656F8240023
:103D8000FEF7B4FA00F004F8002006B070BD0000A1
:103D900056F8240000222946FEF762BB10B500F059
:103DA00007F80122FFE7FEF75BFB002010BD0000D3
:103DB00032A42B4B34F8101053F820007047000049
:103DC000F0B585B004460D4600F043F8200005D05C
:103DD000012C08BF102002D0022C02D10120FFF7D5
:103DE000ADFF00BF27A11F4E31F814000090012144
:103DF000022206EB84070291039238682DB9002154
:103E000001916946FEF772FA20E04FF40411019126
:103E100006EBC4056946FEF769FA00BF1CA050F81E
:103E2000241005F1240000F04AF8FA68002105F199
:103E3000240000F03DF800BF14A00457B969002227
:103E40002046FDF77AFF2046FDF794FF002005B0DD
:103E5000F0BD14210022684600F09CBF4C000058C1
:103E60008410002008100020002000F09CBF0120DA
:103E700000F099BF022000F096BF00002000010072
:103E8000020000000100100040000000060A1700B8
:103E900000000016040000160600001610F8012BA2
:103EA00011F8013B0AB19A42F8D0D01A70470000CD
:103EB0000346002009B95A6070470120704708B9CD
:103EC0000120704701600020704700680549C0F379
:103ED00000425201012300F01F0003FA00F0885055
:103EE0007047000008080058104700004AB1000061
:103EF00011F8013B521E00F8013B1CBF11F8013BB9
:103F0000F8E770478C4900E08C490A681043086064
:103F10007047C0680840884201D1012070470020E6
:103F20007047C0690840884201D1012070470020D5
:103F3000704710B5824C02212046FFF7F2FF38B1DE
:103F40006068C043810703D5FFF781FA022018E0BB
:103F500001212046FFF7E5FF38B16068C043C10783
:103F600003D5FFF73CFA01200BE008212046FFF7BC
:103F7000D8FF38B16068C043010703D5FFF7BDFA29
:103F80000820A06010BD10B56D4C02212046FFF73F
:103F9000C0FF70B96068C04382030AD500F034F8EE
:103FA00041F40031616080F31088BDE81040FFF7F4
:103FB00047BA08212046FFF7ACFF80B96068C043CC
:103FC00002030CD500F020F841F40021616080F379
:103FD00010885C4908688047BDE81040A1E02021B6
:103FE0002046FFF796FF70B96068C04382020AD589
:103FF00000F00AF841F40011616080F31088BDE818
:104000001040FFF7FBB910BDEFF3108072B6616886
:1040100070474D4881B0016841F48011016000682B
:1040200000F48010009000984448016841F4007149
:1040300001604148026842F40072026040BF20BF44
:104040004248016841F40041016001B0704780B509
:104050003F48016841F480110160006800F480105D
:10406000009000983648016841F001010160026843
:1040700042F4803202602C20FDF77CFEBDE8024055
:104080002D20FDF777BE10B504464FF40070FFF702
:104090003BFF4FF40070FFF735FF40BF20BF2D48B6
:1040A0002404046010BDEFF3108072B62A490A6838
:1040B0005208520008E00120E5E7EFF3108072B6E5
:1040C00025490A6822F002020A6080F310887047CE
:1040D00080B50220FFF7D7FF00F006F822F4003287
:1040E0000A6080F3108801BDEFF3108072B61A49A0
:1040F0000A68704738B50446114D08212846FFF775
:1041000008FF58B10F480460EFF3108072B6696879
:1041100021F40021696080F3108831BDA047BDE81B
:1041200032400820AFE7EFF3108072B60A490A6800
:1041300022F00802C8E70000D40800582008005800
:10414000000C0058AC150020500100580C04005819
:1041500050000058080C0058040C005800604060E3
:104160007047EFF3108172B6026882420CBF0120E3
:1041700000201CE0EFF3108272B603680B60486009
:1041800001600868416024E0EFF3108272B60860B5
:1041900043684B604160486801601AE0EFF31081AA
:1041A00072B642680368136002684368536081F323
:1041B0001088704710B5EFF3108472B602680A6079
:1041C0000168FFE70846FFF7E9FF84F3108810BD98
:1041D0000B6082F3108870477047704770477047D4
:1041E00070477047C043FFF7ADB900000249034A6A
:1041F00001600261704700BF033400082B340008DF
:104200007FB50C46654D6168654E28626962281D60
:1042100000F0CAFD246805F12800FFF79FFF7460D5
:1042200006F10800FFF79AFF01203070696829B194
:104230000FF2351200920294684688477FBD1FB581
:10424000574C04F10800FFF78CFFF8B92078E8B16B
:10425000694604F10800FFF7ADFF5048016A49B113
:104260000098029001228DF8042001A888479DF84B
:10427000040000E00120207018B10098FFF713F946
:1042800004E0009904F10800FFF774FF04F108004E
:10429000FFF767FF28B9207818B104F10800FFF78D
:1042A0000FFD1FBD2DE9FC410446002000F051F830
:1042B0002088B4F80280394F60F38F2801203870CD
:1042C000002537484068A168E268C272A0F80980FA
:1042D000D2B20C30FFF70AFE7A6900210020904725
:1042E00048F2E800FFF7F3FC13E0B6F801004045A0
:1042F0000CD10099887AC21E6069D2B28242C8BFCE
:10430000024620696261F11CFFF7F0FD307800B1D0
:10431000012507F12800FFF724FF90B9694607F14E
:104320002800FFF747FF009901F10B06497A0F2992
:10433000DBD17188414502D12169307808707078ED
:10434000E5E72800CCD0012000F003F80020BDE80C
:10435000F6811249496A08B921B1084700291CBFF2
:10436000012008477047000010B50146487A0F2821
:1043700018BF0E2807D10B48FFF706FFBDE8104015
:104380000020FFF7A1BC064C04F10800FFF7FCFE7B
:1043900004F10800BDE81040FFF792BC981400201B
:1043A00054150020C014002000B587B000F021F89B
:1043B0000321ADF80410ADF806100122069200F0BA
:1043C000A1F800284CBFFF209DF8000007B000BDF9
:1043D00007910492CDF818D0002102A8FFF762BF20
:1043E0000821ADF8041070470F210291ADF80620A6
:1043F000704700208DF800001822002101A800F06D
:10440000E3BC09220021684600F0DEBC182200212E
:1044100002A800F0D9BC70B5C8B006460C461546D7
:104420000522FFF7EFFFADF82060FFF7EFFF302127
:10443000ADF80A10082002210591ADF80800052109
:1044400008AAFFF7C5FF002848BFFF2009D49DF840
:10445000000030B99DF80300207000209DF8041082
:10446000297048B070BD18B5C7B000F018F83122F7
:1044700000F009F800F046F800284CBFFF209DF836
:10448000000048B010BDADF806200821ADF80410BA
:104490000322049207A90391012206927047002487
:1044A0008DF81C008DF8004007A841708270002133
:1044B000182201A800F088BC5CB5C7B00026ADF892
:1044C0001C008DF81F2007A84C9C817003718DF88B
:1044D0000060ADF82140FFF78FFFFFF781FF322228
:1044E000FFF782FF0721049107AA012100F008F8D5
:1044F00000284CBFFF209DF8000049B050BD07AA1E
:1045000006910392CDF814D0002101A8FFF7CABE8E
:1045100018B50C46C7B000F039F800F04BF807AA00
:1045200003923F200C2100F028F800F020F800282A
:104530004CBFFF209DF8000048B010BD00B5C7B0CB
:1045400000F031F80F2200F007F800284CBFFF20E0
:104550009DF8000047B000BDADF806203F21ADF842
:1045600004100222049207A9039101220692CDF8B9
:1045700014D0002101A8FFF795BEADF80400ADF8F6
:1045800006100122A41C06920494704711460022D2
:104590008DF800208DF81C008DF81D4022460DF18D
:1045A0001E0000F00BBC00238DF81C008DF81D10C0
:1045B0008DF800301822002101A800F005BC00B5DC
:1045C00087B000208DF8000000F0E6F840F20112FC
:1045D00000F045F900F006F900284CBFFF209DF8D7
:1045E000000007B000BD2DE9F841C7B00446884679
:1045F00016461F46012808BF022003D002280CBF20
:10460000102000200DF11D031D1800F035F8012CBD
:104610008DF81C4002D0022C1AD01BE00224224646
:1046200041460DF11D0000F0C9FB2E706F7000F0C7
:10463000B3F800F0ABF84FF4817100F017F8E41C08
:104640000692049400F0CEF8002805D5FF2009E07A
:104650001024E4E7972005E09DF8000010B94E987B
:1046600000F064F8FFE748B0BDE8F081ADF8040061
:10467000ADF806100322704703220021684600F0BF
:10468000A3BB2DE9F64F0C46C7B005469946012C51
:1046900008BF022003D0022C0CBF102000200DF117
:1046A0001F031E18FFF7E8FF012CADF81C508DF812
:1046B0001E4002D0022C2CD02DE00227DDF85881BC
:1046C000DDF854B1DDF850A1539D529C48993A460B
:1046D00000F058F8A6F80090B470F57086F804A0C1
:1046E00086F805B086F8068000F056F83F204FF4B3
:1046F000827107AAADF80400ADF8061003920A37DC
:1047000003220497069200F06DF8002805D5FF20DB
:1047100009E01027D2E7972005E09DF8000010B9C6
:10472000579800F003F849B0BDE8F08FBDF80110CC
:1047300001800020704778B5C7B01D464C9B00F043
:104740007CF800268DF800608DF821502A46194625
:104750000DF1220000F032FB00F01EF800F016F818
:104760004FF4837100F083F8AD1D00F039F8002894
:104770004CBFFF209DF8000049B060BD0023ADF89C
:104780001C0070470DF11F0000F018BB07AA039230
:104790003F2070478DF800301822002101A800F05A
:1047A00013BB00B5C7B0FFF7E9FFFFF7F3FF40F217
:1047B000251200F009F800F015F800284CBFFF2082
:1047C0009DF8000047B000BDADF806203F21ADF8D0
:1047D00004100222049207A9039101220692704755
:1047E00006920495CDF814D0002101A8FFF75ABD18
:1047F000B8B5C7B04C9C4D9D00F01FF800278DF850
:1048000021308DF800708DF82240E2B2294600F088
:104810001BF8FFF7C1FFFFF7B9FF4FF4937100F0EA
:1048200017F8E41D06920494FFF7DCFF00284CBF44
:10483000FF209DF8000048B0B0BDADF81C00ADF8F9
:104840001E108DF8202070470DF1230000F0B6BA3D
:10485000ADF80400ADF80610E4B201227047ADF8DF
:1048600006203F21ADF80410012206927047ADF8F2
:104870000400ADF806100122704700B587B000F0C3
:104880005EF900F0C1F9812200F053F900F0CAF995
:1048900000284CBFFF209DF8000007B000BD2DE9A7
:1048A000F04FC7B09446DDF840E1519ADDF85481ED
:1048B000DDF858A1539CADF81D108DF81C008DF843
:1048C00023204FF0000BADF81FC08DF821308DF87C
:1048D00022E000F021F800F029F826F8098FA6F868
:1048E00002A000F091F900F07BF98321ADF80400FB
:1048F000ADF8061000F00AF800F096F900284CBF59
:10490000FF209DF8000047B0BDE8F08F4F44012222
:104910000D37069204977047D7B252998DF800B0C0
:1049200009ADD2B209A8ED1900F048BA2C7007AE53
:1049300054995FFA84F9F619E2B2681C4E4400F00B
:104940003DBA00B5C7B000F0BDF800F05BF900F06B
:104950000CF9852200F010F900F065F900284CBF31
:10496000FF209DF8000047B000BD2DE9F841C7B019
:104970004FF0000800F022F84E9C4F9D509E529F31
:1049800051988DF800800DF123018DF81F308DF8BE
:1049900020408DF821508DF8226008608DF8277036
:1049A00000F032F9862200F0C4F80C2200F037F94A
:1049B00000284CBFFF209DF80000DAE08DF81C00B5
:1049C00007A841708270704700B5C7B000F082F848
:1049D0008DF800300DF11E001822016001A80021A1
:1049E00000F0F2F9882200F039F800F018F90028F8
:1049F0004CBFFF209DF8000047B000BDF8B5C8B01F
:104A000005460E4617461C46072200F05FF808A828
:104A1000467087708DF8205000F0C4F88A21ADF8F8
:104A20000A103F2003210591ADF80800072100F08E
:104A3000B0F8002848BFFF200ED49DF8000058B9F8
:104A40004F994E98BDF801202280BDF803300380B5
:104A5000BDF805000880002049B0F0BDADF8062083
:104A60003F21ADF804100622704700B5C7B000F032
:104A700031F800F0C7F800F078F88D220F2102918C
:104A8000ADF80620022100F07EF800F0CDF80028F5
:104A90004CBFFF209DF8000047B000BD18B5C7B05F
:104AA00000F093F800F0B0F800F09AF88E2100F0D2
:104AB0009BF800F0B9F800284CBFFF209DF80000DB
:104AC00048B010BD00238DF81C00704700216846D7
:104AD00000F07AB90023ADF81C007047ADF806204D
:104AE0003F21ADF804100222704700B587B000F0F6
:104AF00026F800F089F8922200F01BF800F092F8F6
:104B000000284CBFFF209DF8000007B000BD00B595
:104B100087B000F014F800F077F8942200F009F85C
:104B200000F080F800284CBFFF209DF8000007B07F
:104B300000BDADF806203F21ADF8041070470020FD
:104B40008DF80000704700B5C7B0FFF7C3FF00F055
:104B500059F89522FFF7C2FF00F061F800284CBF1A
:104B6000FF209DF8000047B000BD3F21ADF80410C4
:104B7000704748B0BDE8F081ADF8062007A9039161
:104B8000012204927047049107AA01210691039221
:104B9000704708AA07910492CDF818D0002102A806
:104BA000FFF780BB1822002102A800F00DB900B564
:104BB000C7B000F022F8A52200F02BF800284CBF67
:104BC000FF209DF8000047B000BD002304468DF88B
:104BD00000308DF81C4022460DF11D0000F0EEB8AB
:104BE00007AA03923F207047ADF80400ADF8061005
:104BF0000122641C0692049470470023ADF81C0047
:104C00008DF81E108DF800301822002101A800F048
:104C1000DBB8ADF806203F21ADF804100322049262
:104C200007A9039101220692CDF814D0002101A812
:104C3000FFF738BB074900200877002206480270BA
:104C400000F0CCB803490A7F41F82200087F401CDD
:104C50000877704714150020C4150020E0B505A0A2
:104C6000009004228DF80420694642F6292000F0C5
:104C700004F907BD53544D0010B500782C4C18B101
:104C8000022810D005D310BD00210120A18020737F
:104C900010BD607BFEF766F9607BBDE8104040F612
:104CA0000101FEF7A5B9607BBDE81040FEF75AB9D7
:104CB00010B50FF2490200210220FEF7E2FC1C4C65
:104CC000002004212073217042F63820214600F094
:104CD00078F90A21A1801F20C106E07204D50120C5
:104CE0004FF48061A072E18004F10D01BDE8104035
:104CF0000FF2450301220020FEF70CB90D480C49C4
:104D00000068CA7A00F00700413048801307087B2A
:104D100004D518B98888401D888003E0012804BFA5
:104D200000200873891C42F6372000F04AB90000C1
:104D3000341500202828004000210220FEF7AFBCD7
:104D400070B504466078FF2802BFB4F8030000F491
:104D50007F40B0F5406F13D100250D4E00E06D1C73
:104D6000327FE8B290420BD2E9B256F821102046C9
:104D700088470100F3D003D0022806D0012070BD7F
:104D80002046BDE87040FEF7C6BE002070BD00BFE3
:104D9000141500204018491C1CBFB1F1010100F896
:104DA000012DF9D1704770470249034A0160026141
:104DB000704700BFA3330008C933000810B504468C
:104DC000FFF794F8204610BD10B5044610460A4679
:104DD00001462046FFF7DEFF204610BD80B500F0FB
:104DE0003DF900F03CF900F03BF900F01FF800F04D
:104DF00038F900F037F900F099F800F034F900F0D4
:104E000033F900F032F900F031F900F030F900F038
:104E10002FF900F02EF900F02DF900F02CF900F038
:104E20002BF9BDE8014000F028B9000018B51B4C73
:104E30000020206087B041F60A00ADF81800009409
:104E40000323012206A90120FFF7CDFB42F6292109
:104E50000122ADF818100492A01C05900A2100232D
:104E6000022203910293019300922023208806AA34
:104E70000121FFF706FC08B010BD1CB542F629223F
:104E8000904209D10C680548009400220B794188B2
:104E90000088FFF750FC16BD972016BDC0150020F6
:104EA00070B5024686B050780024FF283BD1B2F896
:104EB0000310684840F60143C91A22D0123901BFD5
:104EC000B2F807104D1EC08885422CD1957AB2F8F1
:104ED0000500537A0124012D0BD1009302F10A063B
:104EE000019600230022FFF783FC00238DF8083091
:104EF00016E00A320192009301228023FFF778FC2A
:104F000011E0B2F807104088891E81420BD1507B16
:104F10000124C1074EBF8DF8084002208DF808001B
:104F200002A8FFF7A9FE204606B070BD18B587B0ED
:104F30004948484CFFF786FE41F60D01ADF81810C0
:104F400000940823012206A90120FFF74CFB42F63A
:104F50003720ADF81800012204920A20A11C03900A
:104F6000002310220591029301930092072300F081
:104F700023F842F63820ADF818000022049202927D
:104F800001920A20211D03900222059100F012F8DF
:104F900042F63920ADF818000022049201920A204E
:104FA000A11D0390022308220591029300F002F84C
:104FB00008B010BD00920123208806AA0121FFF746
:104FC00060BBFEB50246002042F63725521B214C3D
:104FD00008D0521E3CD100910123A1882088FFF700
:104FE000AAFBFEBD487A8DF8040001AA4B7A088816
:104FF0005070DD0704D50888000A9070032300E094
:105000000223487A060706D54888D0545B1C4E8890
:10501000360AD6545B1C4E7AF00611D50D7A002064
:10502000091D0BE031F81060DFB25B1CD655DFB212
:1050300031F81060360AD6555B1C401CA842F1DBE3
:1050400001A80090DBB2618820880022FFF773FB83
:10505000FEBD0000A4150020A14E00087047704757
:105060007047704770477047704770477047704788
:1050700070477047704770477047704701467348E4
:1050800001F0030250F82200090C084091FAA1F146
:10509000B1FA81F101F00F01C840704700EB8102C5
:1050A0006B49D2F88000884201D00120704700206F
:1050B0007047704738B5FDF713FA00F0E3F8FDF7D5
:1050C0005EF8FDF70AFBFDF717FB6248624C0068CB
:1050D000C168CA0502D4C068810503D5A06840F440
:1050E0000030A0602020FDF765FD5C4D98B14FF4C5
:1050F0007020FFF7C3FF58B92868C10702D42068A1
:1051000000F02DF82868C10702D5606800F027F884
:105110002020FDF758FD2320FDF74CFDB8B14FF0DE
:105120007060FFF7ABFF68B92868C0F3C00010B922
:10513000206800F00DF82868C0F3C00010B1606866
:1051400000F006F82320BDE83240FDF73CBD31BD3C
:10515000400703D5A16841F00401A1607047C00772
:1051600003D5A16841F00101A160704710B53C4929
:105170003C480A683C4B02601C68446010BD38B56E
:10518000FDF7FDFFFDF766FAFDF765FAFDF7A8F9F3
:10519000344C35496068354D0860FEF758FF20688B
:1051A0002F49086003212846FFF778FF4FF48064F9
:1051B00028B92F48016841F400410160EC60AC62FD
:1051C00001202449FDF72DFE2A48016841F40071B1
:1051D000016031BD1CB52848244C016841F4002110
:1051E0000160006800F400200090009A0A21204627
:1051F000FFF754FF0028F9D11F49204A486C80006E
:1052000011D4486C40000ED4486C00010BD4486C9B
:10521000C00F08D1486C800105D4486C400102D40D
:10522000486CC00001D50123136011681448CB05F8
:1052300003D572B60122026006E00021016002235C
:1052400013604FF48062A262006816BD080001403E
:1052500000040080F0140020000800580C040058DE
:10526000040C00587C15002008ED00E000140058E4
:1052700008000058080400585000005888040058DE
:10528000BC1500200248016841F00201016070472E
:1052900010E000E066490A68920840EA820008606F
:1052A00070476348006800F00C00704700EB810213
:1052B0006049D2F88000884201D001207047002068
:1052C000704780B500F0DEF85B48016841F40001EA
:1052D000016000F058F859480921816103210268F2
:1052E00000F036F801605648026842F480720260AD
:1052F000416F41F480714167FFF7DBFEFFF736FF36
:10530000BDE8014000F0CFB838B54E49086888B113
:10531000FFF735FF00F086F800F053F80028FBD1C6
:10532000FCF77BFEFCF7ABFE00F077F8BDE8314000
:10533000FFF7C0BEBDE8314046E080B500F0A2F8FE
:1053400000F021F83D480268012100F001F815E065
:1053500061F3020202603C48016841F004017047B9
:1053600080B500F031F8BDE80140FFF78BBF80B594
:1053700000F088F83448016821F00401016030BF72
:1053800001BDFFF77FBF70B5304C00F01AF8002860
:10539000FBD104212046FFF789FF2D4D4FF4806695
:1053A00038B92C480168090402D40068400506D5C4
:1053B000266100F051F82868C008C0002860E66047
:1053C00070BD0321204671E770B500F02BF8FFF7A0
:1053D000F8FF0028FBD1FFF764FF04281AD14FF033
:1053E000B0400122016841F48031016018490B6826
:1053F00062F302030B600E6806F00706012EFAD175
:1054000001688903FCD50220FFF744FFFFF749FF3D
:105410000828FBD100F001F870BD0E49012008609A
:10542000E5607047094C4FF48065256170470000C6
:105430000800005800040080940000580004005840
:1054400020080058BC15002010ED00E000140058A2
:10545000004000588804005810B54FF0B044206850
:1054600040F48070206020684105FCD50120FFF7E2
:1054700011FF606A800880006062FFF712FF042855
:10548000FBD110BD0248016821F0020101607047A4
:1054900010E000E0FFF79EFE01280CD08AB008481B
:1054A0008047084800472DE9F05F074C6B462360B2
:1054B000BFF34F8F30BF044C2468A546BDE8F09F72
:1054C0007D560008F5580008B81500200000004877
:1054D000010000000000004801000000000000483A
:1054E000010000000000004801000000000000482A
:1054F000010000000000004801000000000000481A
:105500000100000000000048010000000000004809
:1055100001000000000000480100000000000048F9
:1055200001000000000000480100000000000048E9
:1055300001000000000000480100000000000048D9
:1055400001000000000000480100000000000048C9
:1055500001000000000000480100000000000048B9
:1055600001000000000000480100000000000048A9
:105570000100000000000048010000000000004899
:105580000100000000000048010000000000004889
:105590000100000000000048010000000000004879
:1055A0000100000000000048010000000000004869
:1055B0000100000000000048010000000000004859
:1055C0000100000000000048010000000000004849
:1055D0000100000000000048010000000000004839
:1055E0000100000000000048010000000000004829
:1055F0000100000000000048010000000100000060
:105600000300000005000000010000000100000090
:10561000060000000A000000200000000200000058
:10562000040000000800000010000000400000001E
:10563000800000000001000000020000A0860100C0
:10564000400D0300801A060000350C0040420F0098
:1056500080841E0000093D0000127A000024F4003E
:1056600000366E010048E801006CDC02000000001A
:1056700000000000000000000000000013490020AE
:1056800008604FF0B0411248026842F470020260B4
:105690004FF4E023086840F0010008608B600A685E
:1056A0000C4802400C480A60036823F005030360BD
:1056B00042685208520042600848C86000200A68E8
:1056C00022F480220A6088617047000008ED00E043
:1056D00088ED00E0FBFEF6FA94000058001004226A
:1056E000FEE7FEE7FEE7FEE7FEE77047704770471C
:1056F00000F01CB8FDF738BB0248FBF7AEBD02480E
:10570000FAF797BDE8130020C0110020FEF711BC86
:10571000FEF739BC00F012B80120FCF7A6BE10203D
:10572000FCF7A3BE4020FCF7A0BE00000248416881
:1057300002788A1842607047901000200449C868B7
:105740000A6882430A60486000F004B80000000064
:105750000015005870470000000000000000000025
:105760000000000000000000000000001E00040017
:105770000A05020112299C00F4010000FFFFFFFF4F
:10578000480101000020D806000272060000000057
:105790000D00040030B4002512E050F8042BD307AC
:1057A00044BF4A44521E091F042942F8045BFAD23E
:1057B00013468C0744BF15809B1CC90748BF1D704A
:1057C00050F8041B0029E8D130BC704710B500F038
:1057D00013F8020000230024E4431068A04203D021
:1057E00011000220ABBE13605068A04203D0111D0F
:1057F0000220ABBE536010BD004870479C100020D3
:1058000010B5074979441831064C7C44163404E03D
:105810000A68081D114488470146A142F8D110BD0D
:105820002C000000680000004EF68851CEF2000106
:10583000086840F470000860BFF34F8FBFF36F8FAC
:105840004FF00170E1EE100A7047000049FFFFFFC2
:1058500014050000B4100020700800003C00032074
:105860000000000023BBFFFF14000000BC0000008C
:1058700028000320000000000FBBFFFFAC00000069
:10588000500100000810002000000000000000008F
:105890000000000000000000000000000100000007
:1058A00002000000030000000400000000F00DF8FA
:1058B000002801D0FFF7A4FFAFF300800020AFF372
:1058C0000080FCF782FB00F002F80120704700F036
:1058D00001B800000746384600F002F8FBE7000078
:1058E00080B5FFF773FF024A11001820ABBEFBE73B
:1058F000260002000548014603B4684680F3098883
:10590000AFF30080FFF790FFFFF7D0FFA5EDF5FEA6
:105910006F530008835300083B530008615300088D
:10592000C3520008095300080000000000000000F6
:10593000000000000000000000000000FFF7FEBFB4
:10594000FFF7FEBFFFF7FEBFFFF7FEBFFFF7FEBF8B
:10595000FFF7FEBFFFF7FEBFFFF7FEBFFFF7FEBF7B
:10596000FFF7FEBFFFF7FEBFFFF7FEBFFFF7FEBF6B
:10597000FFF7FEBFFFF7FEBFFFF7FEBFFFF7FEBF5B
:10598000FFF7FEBFFFF7FEBFFFF7FEBFFFF7FEBF4B
:10599000FFF7FEBFFFF7FEBFFFF7FEBFFFF7FEBF3B
:1059A000FFF7FEBFFFF7FEBFFFF7FEBFFFF7FEBF2B
:1059B000FFF7FEBFFFF7FEBFFFF7FEBFFFF7FEBF1B
:1059C000FFF7FEBFFFF7FEBFFFF7FEBFFFF7FEBF0B
:1059D000000000480010004800000048693E000830
:1059E0006F3E0008753E00080F0000000F00000029
:1059F0000F00000000000000000000000000000098
:105A00000000000000000000000000000000000096
:105A10000000000000000000FFFFFFFFFFFFFFFF8E
:105A20000000000000000000000000000000000076
:105A30000DFF010000000000000000000000000059
:105A4000000000000000000000000000000400480A
:105A500000040048000400480100000000000000AD
:105A600010000000FFFFFFFFFFFFFFFF00093D00E8
:0C5A7000FFFFFFFFFFFFFFFFFFFF000034
:04000005080058F5A2
:00000001FF
