:020000040800F2
:100000000810002019BF0008FDBB0008FFBB000856
:1000100001BC000803BC000805BC0008000000008B
:1000200000000000000000000000000007BC000805
:1000300009BC000800000000057400088573000872
:1000400029BF00082DBF000831BF00080BBC000805
:1000500035BF000839BF000853BC000859BC000870
:100060003DBF000841BF00084DBC000845BF000867
:1000700049BF00084DBF00080FBC000851BF000871
:1000800055BF000859BF00085DBF000861BF0008E8
:1000900065BF000869BF00086DBF000871BF000898
:1000A00075BF000879BF000815BC00087DBF0008B7
:1000B00081BF000885BF000889BF00088DBF000808
:1000C00091BF000895BF000899BF00089DBF0008B8
:1000D0001BBC000821BC0008A1BF0008A5BF000888
:1000E000A9BF0008ADBF0008B1BF0008B5BF000838
:1000F00027BC00082BBC00082FBC0008B9BF0008B3
:10010000BDBF0008C1BF0008C5BF0008C9BF0008C7
:10011000CDBF0008D1BF0008D5BF0008D9BF000877
:10012000DDBF0008E1BF000833BC0008E5BF0008E0
:10013000E9BF0008EDBF0008F1BF000840F0200053
:1001400070472DE9F14FB2B09A4601A891460023BD
:100150000691C0E900333C9A0F930DF14A011491C6
:100160004A7009E0329823464A4604A900F0B4FFD9
:10017000002800F12181A14499F80010252909D116
:1001800000200021002209900A910B920C910D92FF
:100190000E910FE001AA4FF0FF31484601F000F840
:1001A000040002D10F9800F0F9BDDBD50124E2E78D
:1001B00041F0010119F8010F2028F9D023280CD0B3
:1001C0002B2804D02D2805D0302809D00BE041F091
:1001D0000201EFE741F00401ECE741F00801E9E733
:1001E00041F01001E6E72A280FD1DAF8002052F892
:1001F000040BCAF800200028119003D5404211904A
:1002000041F0040109F1010914E01192DFF8102B0B
:100210000AE0119B934205DA03EB830400EB4400F0
:100220003038119009F1010999F80000A0F130036C
:100230000A2BEED399F800202E2A03D04FF0FF307E
:10024000109029E019F8010F2A2809D1DAF80020C6
:1002500052F8040BCAF80020109009F101091BE0C4
:100260002D280CBF09F10109002000221092DFF8AF
:10027000B02A0BE040B9109C944205DA04EB8405E7
:1002800003EB4503303B109309F1010999F8003065
:10029000A3F130040A2CEDD3ADF848100FF68420FA
:1002A00099F8001000F086FF08B119F8010B8DF8DD
:1002B0004A009DF84A00682805D199F8001068297D
:1002C0000CD1622006E06C2804BF99F800106C295C
:1002D00004D171208DF84A0009F1010922AA08927F
:1002E00019F801BBBBF125002DD01C3800F0278187
:1002F000001F022840F223810E382AD0401F00F050
:100300004784093800F01B81801E00F0DA84401E0B
:1003100000F08984401E022840F21181001F00F085
:100320008284401F00F08080401E00F03184401E17
:1003300066D0C01E21D0801E00F02A84C01E00F0AE
:10034000278400F0DDBC0122252109928DF8881058
:100350002AE06C228DF84A20DAF8000050F8042BCD
:10036000CAF80000002A44D11499487800283ED0E9
:100370004FF0FF340FF6B41012E09DF84A006C28DD
:10038000EAD0DAF8000050F8044BCAF800000794ED
:10039000D4B91499487898B14FF0FF340FF6A810EB
:1003A00000F014FF241A07D1329822AA04A900F001
:1003B000F8FC00287FF5E0AE4FF0FF3000F0EEBC17
:1003C0000FF6A0100790EFE7109D002D04D52046F2
:1003D00000F01CFF044608E02A460021204600F0F9
:1003E00031FF002814BF041B2C460A94DCE70FF6EB
:1003F0007812329804A900F05AFD0028D4D5DBE722
:10040000DAF8001051F8040BCAF8001020F00002CE
:10041000002121F0FF33CDE9042322AC0794782199
:1004200004A800F0A4FDBFE71499487820B14FF06C
:10043000FF340FF63810B3E79DF84A00622862D007
:10044000682819D06A2840D06C2806D071284DD071
:1004500074282DD07A281ED064E0DAF8001051F804
:10046000040BCAF8001020B94FF0FF340FF6141037
:1004700096E70F99016097E7DAF8001051F8040B3E
:10048000CAF8001020B94FF0FF340FF6F80087E7E4
:100490000F99018088E7DAF8001051F8040BCAF8C8
:1004A00000100028E5D14FF0FF340FF6D80077E7B1
:1004B000DAF8001051F8040BCAF800100028D8D15F
:1004C0004FF0FF340FF6BC006AE7DAF8001051F87D
:1004D000040BCAF8001020B94FF0FF340FF6A40047
:1004E0005EE70F9AD317C0E900235DE7DAF8001042
:1004F00051F8040BCAF800100028F2D14FF0FF3475
:100500000FF680004CE7DAF8001051F8040BCAF837
:10051000001020B94FF0FF340FF6680040E70F9944
:10052000017041E7DAF8001051F8040BCAF8001026
:1005300000289ED14FF0FF340FF6480030E7DAF87C
:100540000000C21D9DF84A0022F007024C28CAF89C
:100550000020D2E9000107BF0832CAF8002002F1EA
:100560000803CAF80030CDE90401C80F02D0099889
:100570002D210AE0BDF84800810702D509982B21FA
:1005800003E0C00705D50998202122AA1154401C78
:10059000099022A809994BF0200300EB010CDDE93A
:1005A0000401CDE92001612BCDF81CC015AC0BD0A6
:1005B0001098002848BF062105D404BF4BF0200046
:1005C000672801D101211091DDE904014F0047EABC
:1005D000D0777E15FF174FF0FF32974208BF964243
:1005E00014D1090341EA10510003002908BF002873
:1005F0000CD0ABF1610503211A2D0A9118D30FF627
:100600000C310322604600F049FECDE6DDE904012D
:100610004A00521512F1010F0DD108030BD1ABF1B5
:10062000610503211A2D0A911BD30FF6E821E8E793
:100630000FF6D421E5E7DDE904016A4600F03AFE51
:10064000CDE904014BF02000612811D10798302238
:100650000270811C0791BBF1610F0CBF78215821FA
:1006600002E00FF6AC21CCE741700998801C09909C
:10067000DDE9040120F0000231F0004308BF002A48
:1006800002D10026002546E14BF02008B8F1610FA9
:1006900040F092801099002947BF21200390491C07
:1006A0000391039FDDE920017F1C00220023DDE987
:1006B000044500F037FE38BF85F0004500988DF8FE
:1006C0005420001F002F00900DF1550632DD20460A
:1006D00029460022002300F03FFE2BD21C2200F00E
:1006E00055FE04460D4600F0EFFEFF1F002F80462A
:1006F00009DD00F005FF02460B462046294600F0C2
:10070000C7FF04460D46F01D0721B8F1000F0CDDB0
:10071000491E5EBF08F00F0200F8012D4FEA2818AD
:10072000F3D502E0002200F8012D491EFAD5C61DBE
:10073000002FCCDC0DF15500361A03980DF155044D
:100740008642D8BF304600282FD4B04206DA0DF1D9
:1007500055010A5C082AA8BF0F2100DA00210246D1
:1007600015AB134400E0401E13F80159521E8D4290
:10077000F9D00F2904D10DF155018B5C5B1C8B5412
:10078000002A04D50099091D15AC401C0091411E9A
:100790000BD4621813783033DDB23A2DA4BF5B441A
:1007A0003A3B491E02F80139F4D5109A002A40F16B
:1007B000B080411E1091ACE00099DFF80C2947F29F
:1007C0009750414391FBF2F20092DDE92045C2F1DE
:1007D0000702002A25F0004504DD2046294600F0E6
:1007E00050FC0BE052420020DFF8E01800F049FC1A
:1007F00002460B462046294600F0BCFF04460D4643
:10080000B8F1660F06BF009F0A37062710983F18F9
:10081000142FC8BF142730208DF854000020DFF8B3
:10082000B018CDE920010DF15506002F33DD20462B
:10083000294601F0C3F801460A4606F108030420E0
:100840000A26B2FBF6F606EB860EA2EB4E0230321B
:1008500003F8012C0A22B6FBF2F202EB820EA6EBA1
:100860004E063036401E03F8026DE9D1083F002FD6
:1008700003F10806D9DD084601F0B2F802460B463E
:100880002046294600F004FFDDE9202301F0B6F8F8
:1008900004460D46CBE70DF15500361A0DF155040F
:1008A00004E00098401E761E0090641C20783028DA
:1008B000F7D0B8F1660F02D10098401C04E0B8F1FF
:1008C000650F0CBF01200020109940188642B8BF68
:1008D000701E00281DD4B04204DA215C3429C8BF40
:1008E000392100DC30210246631E9D1800E0401EC5
:1008F00015F80169521E8E42F9D0392902D1A15C46
:10090000491CA154002A04D50099491C1C46401CCE
:1009100000910646009D00F047FC406A0778DDF82C
:10092000408030B2002802DC01260FF2EC744BF05C
:100930002000662808BF6D1C16D0672845D128B254
:1009400010F1040F47DB404545DA9DF848006D1C67
:10095000010703D430B24045D8BF804628B2B8EB77
:10096000000848BF4FF000080FFA85FB07980A9966
:10097000BBF1000F00F3B1804A1C0A9230234354AC
:10098000B8F1000F03DC9DF84800010704D50A9870
:10099000411C0A9107990F5418EB0B0FB8BFC8F10F
:1009A00000052DB26842454432B20D909542B8BF61
:1009B0002E46079B0A9836B20B96324621461844BB
:1009C00000F06CFCAD1B0E95CBE0BBF1610F17D1B5
:1009D0004FF0700B19E030B2404504DA9DF8481032
:1009E0000A0758BF8046B8F1010848BF4FF0000819
:1009F000BBF1670F14BF4FF0450B4FF0650B04E0E0
:100A0000BBF1410F08BF4FF0500B0A98411C0A91EF
:100A1000B8F1000F079914F8012B0A5403DC9DF874
:100A2000480001071AD50A98411C0A91B8F1000F35
:100A300007990F5412DD761E30B28045B8BF464686
:100A400007980A9B32B22146184400F027FC0A9806
:100A500036B230180A90A8EB06000D9007980A9954
:100A6000014428B2002881F800B003D42B2048703C
:100A7000891C04E02D224A700546891C6D42002025
:100A80001FAA0AE02B460A2593FBF5F505EB850422
:100A9000A3EB440302F8013B401C2DB2002DF1DC16
:100AA000012806DC4BF02002652A04BF302201F841
:100AB000012B00281FAA08D1302001F8010B06E005
:100AC000401E135C303301F8013B0028F8DC079A24
:100AD0000A981044091A0B9143E0084431B22AB233
:100AE000914219DA32B2214600F0D8FB0A9936B2A7
:100AF00071180A91ABEB0600B8F1000F0D9003DC02
:100B00009DF84800020704D5079847540B99491CE3
:100B10000B91CDF8388024E0214600F0BFFB0A9805
:100B2000761B5844B8F1000F0A9003DC9DF848107A
:100B30000A0703D5411C0A9107990F5430B280452A
:100B4000B8BF464607980A9B32B204EB0B01184423
:100B500000F0A4FB0A9836B230180A90A8EB060001
:100B60000D909DF8480000F0140010287FF41CAC94
:100B7000099A0A980D9982180B988A1882180E986B
:100B8000119980188842BFF60FAC081A0C900BE43C
:100B90009DF84A00622808D068280ED06A2814D030
:100BA0006C281FD0712810D01CE0DAF8001051F822
:100BB000040BCAF80010C0B21AE0DAF8001051F8BD
:100BC000040BCAF8001080B212E0DAF80000C21D6F
:100BD00022F00702CAF80020D2E900010832CAF860
:100BE000002006E0DAF8001051F8040BCAF80010F3
:100BF0000021CDE904019DF8480002075AD5DDE93E
:100C00000401002908BF002854D04BF02002782AA4
:100C100050D1099822A930230B54401C421C099240
:100C200001F800B046E09DF84A00622808D0682824
:100C30000ED06A2814D06C281FD0712810D01CE068
:100C4000DAF8001051F8040BCAF8001040B21AE0AC
:100C5000DAF8001051F8040BCAF8001000B212E0E4
:100C6000DAF80000C21D22F00702CAF80020D2E91B
:100C700000010832CAF8002006E0DAF8001051F846
:100C8000040BCAF80010C117CDE90401002902D5F0
:100C900009982D210AE0BDF84800810702D509987E
:100CA0002B2103E0C00705D50998202122AA115461
:100CB000401C099022A80999014407915946FFF761
:100CC000AFBB9DF84A106C290BD001200990DAF8CF
:100CD000001051F8040BCAF800108DF88800FFF7D7
:100CE00063BBDAF8001051F8040BCAF800100022B8
:100CF00016924FF0FF311590109115AAFFF779BBAE
:100D000001202521BBF1000F09908DF888103FF4D8
:100D10004BAB022109918DF889B0FFF745BB00006C
:100D2000CBCCCC0C686A6C747A4C00007072696E23
:100D300074665F733A2062616420256C732061726F
:100D400067756D656E7400007072696E74665F73AE
:100D50003A2062616420257320617267756D656E4B
:100D60007400000000000000000000007072696E56
:100D700074665F733A20256E20646973616C6C6FD2
:100D8000776564007072696E74663A2062616420EF
:100D9000256E20617267756D656E740033B0BDE8B5
:100DA000F08F2DE9FC410F4606467D6B7869396A64
:100DB0002D1AB8696D1A796A2D1AF8696D1AB96A0F
:100DC0002D1A97F838006D1A410790460FD420204D
:100DD000002D8DF800000ADD2C4601236A463946B5
:100DE000304600F079F900285DD1641EF5D17B69A9
:100DF00042463946304600F06FF9002853D1302082
:100E00008DF800003C6A002C09DD01236A46394652
:100E1000304600F061F9002845D1641EF5D1BB6968
:100E2000FA683946304600F057F900283BD13020A7
:100E30008DF800007C6A002C08DD01236A463946E3
:100E4000304600F049F970BB641EF6D1F868B96904
:100E5000FB6942183946304600F03EF918BB302095
:100E60008DF80000BC6A002C08DD01236A46394673
:100E7000304600F031F9B0B9641EF6D197F8380069
:100E800041070DD52020002D8DF8000008DD01233D
:100E90006A463946304600F01FF920B96D1EF6D17A
:100EA0000020BDE8F6814FF0FF30BDE8F6812DE966
:100EB000F8470F46A3B03D6B82469046002D48BFD1
:100EC0006FF0004500F06FFE7A6B801801A90022D8
:100ED000C1E90022812828BF4FF0FF3044D291465B
:100EE0001EE0A54230DB7869201881280BD3002151
:100EF000796303AA39465046FFF753FF5FEA0009BA
:100F000022D40020786103AB7E6922466946981995
:100F100000F0C4F9A6197E6158F8040BA0B12D1B8E
:100F2000002D11DDD8F8001001AA684600F03AF94A
:100F30000446002C05D4D8F800000028D1D1641E46
:100F4000CFD54FF0FF390EE0B9F1000F504604D174
:100F500003AA3946FFF725FF8146B9F1000F02D1F8
:100F6000002078617863484624B0BDE8F0872DE919
:100F7000FC4D06468846376940466F2808BF08245E
:100F800005D0FFF7DBF8782814BF0A241024D6E92F
:100F900000013C2582468B46B8F1640F18BFB8F1BA
:100FA000690F05D1002903D5DAF1000A6BEB4B0B71
:100FB000BBF1000F08BFBAF1000F0CD1306B50B974
:100FC000082C3AD196F83800010736D530223B2557
:100FD00087F83B2031E08DF8008050465946224684
:100FE000002300F0E5FD3032D0B26D1E3A280195A5
:100FF0000EDA7A55504659462246002300F0D8FDB5
:1010000082465FEA010B08BFBAF1000F05D108E084
:101010009DF800001218513AEBE7F0687919884200
:10102000DBD3082C09D196F83800010705D5785D87
:10103000302802D06D1E30207855C5F13C02306B4F
:10104000B26179198242F16008DA318F821A4FF663
:10105000EF70014031873262BDE8F38D00280ED574
:1010600096F8380000F01400102808D1736B7069EE
:10107000316A1B1A5B1A9B1A002BC8BF3362BDE88A
:10108000F38D2DE9D04306460F4614464FF0000875
:10109000DFF8409012E0E00707D542464B46304665
:1010A000394600F0ABFC06460F46404649464246EC
:1010B0004B4600F0A3FC641080468946002CEAD120
:1010C00030463946BDE8D083A08601000000F03FDD
:1010D00084D7974100002440F8B505460E461746D0
:1010E0001C4600205CB117F8011BB068A847B0602F
:1010F00030B1F06A401CF0620020641EF3D1F2BDF2
:101100004FF0FF30F2BD00006E616E004E414E00A8
:10111000696E6600494E46003000B1F5807F02D30B
:101120004FF0FF3070470170012070470078401E7B
:101130008041C043C00F70471C48704770B453686B
:10114000D41801E05B1C491E042B08DA00291FBFDC
:10115000057804F8015B10F8016B002EF2D15360A2
:1011600070BC704738B514461D4661B1FFF7E6FF05
:1011700061686A6B204690476FF00102811A02D0C5
:10118000491E01D001E003E005E00021616032BDAD
:101190006FF0010032BD4FF0FF3032BDDA6B104707
:1011A000024BDFE7014BF9E7014870472823002095
:1011B000B8230020C9B202788A421AB11CBF10F8C5
:1011C000012FF9E718BF002070472E0080B500B945
:1011D00006A005490B681BB122220021984701E0B7
:1011E00000F069FD222002BD5C560120636F6E7322
:1011F000747261696E742068616E646C65723A2005
:10120000626164206D6573736167650000F10103BD
:10121000810704D010F8011B820781B1FAD102685E
:10122000A2F10131914311F0803104BF50F8042F35
:10123000F6E709BAB1FA81F100EBD100401CC01AFF
:1012400070474300C9B2830706D0521E22D310F85C
:10125000013B9942F7D11FE0083A13D302F104028F
:1012600041EA012141EA014150F8043B121F21BF2C
:101270004B40A3F1013C2CEA030C1CF0803FF3D05F
:10128000C9B2001F0832521E24BF10F8013B91EA78
:10129000030FF8D818BF0120401E70474AB1000064
:1012A00011F8013B521E00F8013B1CBF11F8013B35
:1012B000F8E7704710B5144600F002F8226010BD40
:1012C000C1F30A5343B14A0012F5001F28D2A3F21A
:1012D000FE32A1EB0251704750EA410C20D001F0E0
:1012E000004C31EA0C01B1FA81F204BFB0FA80F38C
:1012F000D2180B3AB2F120032CBF00FA03F191404F
:1013000041EA0C013EBFC2F1200C20FA0CF3194354
:101310009040524240F2FD33D21A01EB0351704724
:101320000022704741EA030C50EA4C0C52EA0C0CC4
:101330004FF4001C09D307D01CEB410F9CBF1CEBE2
:10134000430F8B4208BF824270471CEB430FFBD810
:10135000994208BF9042704741EA030C50EA4C0C96
:1013600052EA0C0C4FF4001C09D307D01CEB410FC0
:101370009CBF1CEB430F994208BF904270471CEB87
:10138000410FFBD88B4208BF82427047124254D4AF
:1013900040F2FF7C1CEA11530FD0634531D09B18FB
:1013A00063453CBF01EB0251704701F0004141EA47
:1013B0000C510020AFF30080704750EA410320D069
:1013C00001F0004C91EA0C011CD0B1FA81F30B3B07
:1013D0009A420DD9D21A994051EA0C01C3F1200C5E
:1013E00020FA0CFC61449840531C40F2FF7CD7E784
:1013F000914041EA0C01C2F1200C20FA0CF3194390
:1014000090407047B0FA80F31533202BE0D3202AA8
:10141000EED3203A203B9A4209D9D21A00FA03F1BE
:1014200041EA0C010020531C40F2FF7CB8E700FAAF
:1014300002F141EA0C0100207047524240F2FF7C69
:101440001CEA11530DD06345DBD0B2EB030C3CBF5B
:10145000A1EB025170470CF1010221EA035141F462
:10146000801150EA410CCCD001F0004C352A27DC29
:1014700030B481EA0C01B2F1200309DAC2F1200391
:10148000044601FA03F5D0402843D1409C400CE0CB
:10149000C3F12002450020FA03F418BF44F0010410
:1014A00021FA03F091400C43002174F1004550F102
:1014B000000051EB0C01244230BC7FF47BAF70473D
:1014C0006146002076E77047C1F30A5340F21E429E
:1014D000D31A0CDDCA0283F3070342EA505242F0EA
:1014E0000042DA4002EBE17282EAE17070476FEA93
:1014F000E17203F2E13008B182F0004070477047BA
:1015000010F0004160B148BF4042B0FA80F2904014
:10151000D21CC2F5846241EA025202EBD02140059E
:1015200070470000841A71EB030604D26E40001B62
:10153000B141121973414FF4001C1CEB410F34BF31
:101540007CEB430683E00C0DA4EB1356362E00F320
:101550007C80012E45EAC32341DC43EA525312BF8B
:10156000D20292025B08240545EAC12141EA5051AA
:10157000D2EBC020994125D407D1B0FA80F610FAF9
:1015800006F162D00020203608E0B1FA81F6B140C1
:10159000C6F1200220FA02F21143B0404FEAF4747F
:1015A000B4EB465434F001064FEA74040AD8D6F579
:1015B0000016760D04F00044F04061FA06F2504047
:1015C000F1404840C00A40EA415021F0004128BFA4
:1015D0005FEA500550F1000044EBD12135E0DB0A11
:1015E00045EAC121C90AB6F120050EDD42EA0242F0
:1015F000120CC5F1200603FA06F6EB4042EA060596
:101600006D42984161F100010DE062FA06F5F24089
:10161000554063FA06FC82EA0C02F3405A406D42E0
:10162000904161EB030111F4801F05D1641E620536
:1016300002D06D004041494121F48011430875F109
:10164000004350F1000041EB045170BC70471CEBAB
:10165000410F15D223F0004352EA43060BD04FEA64
:101660004C0CBCEB410F04D80C0D661E342EB7DDBC
:10167000EBE7801A994150EA410608BF0021E4E7F0
:1016800008BF1CEB430F28BF6FF00001DDE700002F
:1016900070B491EA030F4FF000457FF543AF6B4004
:1016A000841A71EB030603D2001BB1411219734176
:1016B0004FF4001C1CEB410F34BF7CEB430442E0B1
:1016C0000C0DA4EB1356352E4FDC45EAC323DB0A81
:1016D00045EAC121C912B6F120050DDD63FA05F610
:1016E000EB4086EA0305124218BF45F00105C01819
:1016F00051F100010CD213E062FA06F5F2405540B8
:10170000F3415A40B340F3405A408018594107D33F
:1017100049085FEA30005FEA350528BF45F001055A
:1017200001F58011420875F1004250F1000041EBD3
:1017300004514E0016F5001F70BC38BF70470020E2
:10174000090D090570471CEB410F10D252EA430600
:101750000BD0BCEB410F05D80C0DAB43661E342EED
:10176000B6DD02E0AB438018594170BC704770BCD5
:1017700070470000F0B540F2FF7581EA030C0CF0F1
:10178000004C15EA11541DBF15EA1357AC42AF4285
:10179000E5E0BC41C1F31301C3F31303801A99417F
:1017A00043F4801304D2641E001849418018594143
:1017B000C90241EA5051B1FBF3F603FB1611A2FB3B
:1017C0000675D7EBC020A94102D2761E8018594178
:1017D000C90241EA5051B1FBF3FE03FB1E11A2FB0B
:1017E0000E75D7EBC020A94103D2AEF1010E8018CF
:1017F0005941890241EA9051760546EA8E2EB1FBA5
:10180000F3F603FB1611A2FB0675D7EB8020A94166
:1018100002D2761E80185941C90241EA50514EEA5F
:10182000060EB1FBF3F603FB1611A2FB0675D7EB10
:10183000C020A94102D2761E80185941C90241EA4E
:101840005051B1FBF3F703FB1711A2FB0735D3EBA4
:10185000C020A94167F100070CBF004247F0010713
:1018600066F3D5274FEA1E31B80814F5806412DDFF
:10187000BD0775F1004250EB0E5051EB045111F5CC
:10188000801F5CBF41EA0C01F0BD4CF07F6141F06C
:10189000E0410020F0BDBD076D0840EA0E5041F464
:1018A0008011D4F10104B4F120060ADAC4F1200653
:1018B0000200E04001FA06F3E1401843B24015434C
:1018C0000EE0342C13DCC6F1200445EA40056D0817
:1018D00020FA06F2154321FA06F0A1400D4300213B
:1018E00075F1004250F1000051EB0C01F0BD0020F9
:1018F0005FEA0C01F0BDCFB992185B41B3FA83F7F0
:1019000004BFB2FA82F6BF190B3FB7F120062FBF12
:1019100002FA06F3BB40C7F1200622FA06F638BFEA
:101920003343BA401CB1E419641E33E77F4231F0FF
:101930000041B1FA81F404BFB0FA80F6A4190B3C5F
:10194000B4F120062FBF00FA06F1A140C4F1200631
:1019500020FA06F638BF3143A0403C1B1AE7AC42E0
:101960001ABF05EA1357AF4212E050EA41061CBF06
:1019700052EA4306BFE750EA4107304661461CBFC2
:1019800041EA0551F0BD52EA430C08BFC143F0BD26
:1019900000204FF4001616EB410F98BF16EB430FD3
:1019A00008BF16EB410F24BFC14305E016EB430F00
:1019B0000CBF61464CEA0551F0BD0000400D40F2FD
:1019C0001E4C40EAC120BCEB115C40F0004003D447
:1019D0008CF30701C84070476FEAE1707047000060
:1019E00050B1B0FA80F18840C91CC1F58461090585
:1019F00001EBD021400570470146704730B540F2F9
:101A0000FF7C1CEA11541DBF1CEA13556445654553
:101A10003FE0641981EA030C6FF35F530CF0004C54
:101A200043F48013C90241F0004141EA505EC5020F
:101A30001100A5FB020200284FF00000EEFB012080
:101A40004FF00001E3FB052118BF42F001024018EE
:101A500000214941E3FB0E01A4F580640D0302D28D
:101A600092184041494154F1010470DD450872F17A
:101A7000004250F1000051EB0451A1F5801102D455
:101A800041EA0C0130BD40F2FF7E4CEA0E510020CD
:101A900030BD0CEA1355644518BF654581EA030C57
:101AA0000CF0004C41D050EA410E1CBF52EA430EEC
:101AB00002E06146002030BD24422C441BD15FEA85
:101AC000050EF6D0090302BF01460020AEF1140E48
:101AD000B1FA81F5AEEB050401FA05FE0C35C5F14E
:101AE000200100FA05F5C8404EEA000E6FF35F537F
:101AF00043F480139CE733F00043B3FA83F504BF4B
:101B0000B2FA82FE75440B3D641BB5F1200E2FBF67
:101B100002FA0EF3AB40C5F1200E22FA0EFE38BFDA
:101B200043EA0E03AA40641C7CE750EA410E14BF4E
:101B300052EA430E6FF000014FF4001515EB430F0E
:101B40008EBF194615EB410F9DE7B4D830BDD4F1D7
:101B50000104B4F120050FDAC4F12005520828BFB2
:101B600042F0010210FA05FE01FA05F57244E2BFE7
:101B7000E0402843E1400FE0352C9ADCC5F1200419
:101B800052EA400220FA05F218BF42F0010231FA8F
:101B900005F0A1400A43002172F1004250F100001B
:101BA00051EB0C0130BD80B5FFF7C6FA006C02BDE9
:101BB000D3BBD9B1B2F5803F5BD2022A1ED98C4685
:101BC000B1FBF2F102FB11C31B0443EA1043B3FB68
:101BD000F2FC02FB1C3380B240EA0343B3FBF2F099
:101BE00002FB103240EA0C4000237047022A05D95C
:101BF0008446B0FBF2F002FB10C270474AB105D137
:101C000000F0010249085FEA30007047002200231B
:101C1000704700F053B80B0002000021002070470D
:101C2000F7D3002200237047904271EB030CF2D3EC
:101C300070B5B1FA81F4B3FA83F52C1BA340C4F15B
:101C4000200532FA05F63343A2405FF00046E64035
:101C500002E05B085FEA3202841A71EB030524BFDD
:101C6000204629467641F4D302000B0030000021C3
:101C700070BD70B5B1FA81F4B2FA82F5C4F12004F6
:101C80006419B4F12006DAD3B2405FF00044F440A6
:101C9000002502E052085FEA3303C61A71EB020E18
:101CA00024BF3046714664416D41F3D302000B00FE
:101CB0002000290070BD012000F002B8704700002C
:101CC00080B5AFF30080024A11001820ABBEFBE7DD
:101CD0002600020038B5040001D1012032BD04F114
:101CE0008405686808B900F020F800F00DF808B124
:101CF00000F031F800F02CF8012804D000F00DF8C5
:101D000021F02A0116E032BD2420686020680168B5
:101D1000490849000160A06A70472068416821F4C1
:101D200090414160206881687047002129702046F9
:101D300000F09CBF816000F004F8BDE8324000F084
:101D400068BB2068016841F00101016020467047CE
:101D5000204600F0F7B9204600F0F8BA38B503463F
:101D6000D3F88C0020280AD109B1100001D101203C
:101D700032BD00F048F8BDE8384000F0F5BB022065
:101D800032BD38B5044604F154051346686B20286B
:101D900031D121B3180022D021652B806B80002027
:101DA000E86321216963A86AD8B1DFF88813C162AA
:101DB000DFF88403A96A0863A96ADFF8800348632F
:101DC0000020A96A88632068216D00F12802A86AB2
:101DD00001F0C7F828B11020E863202169630120D1
:101DE00032BD216840200862226800F006F800F049
:101DF00096F9F9D132BD022032BD02F1080151E855
:101E0000001F083270470020D866DFF83443186896
:101E1000A0420CD04068040209D5186850E8004F71
:101E2000054644F0806445E800400028F5D1184696
:101E30007047216801F1080353E8001F206800F192
:101E4000080221F0400142E80010002870472DE907
:101E5000F041044640F60F0C2268D669104616EA97
:101E60000C0F0768936804F15C0507F0200006F08A
:101E700020010DD1002914D010B9D80040F18D8077
:101E8000A969002900F045812046BDE8F0410847D6
:101E9000DFF874C813EA0C0F04BFDFF870E817EA24
:101EA0000E0F7AD05FEAC67E48BF5FEAC75807D5F3
:101EB0004FF0010EC2F820E06A6B42F001026A6343
:101EC000B2070AD5DA0708D5D4F800E00222CEF826
:101ED00020206A6B42F004026A6372070AD5DA07AF
:101EE00008D5D4F800E00422CEF820206A6B42F036
:101EF00002026A6332070DD5002808BF13EA0C0FEF
:101F000008D0D4F800C00822CCF820206A6B42F038
:101F100008026A63320509D57F0107D526684FF4A8
:101F2000006232626A6B42F020026A636A6B002AC6
:101F300032D031B108B9D80003D5A96909B120461A
:101F40008847686B21688A68510602D410F0280F10
:101F50001DD0204600F0A9FB20688168480611D5F5
:101F6000FFF767FFFCD1686A60B10FF6510181632A
:101F7000686A01F074F800280ED0686A816BBDE8C9
:101F8000F04108472046BDE8F04101F05FB9204626
:101F900001F05CF900206863BBE02869012878D172
:101FA000F00676D5F90674D51020106222682988CB
:101FB0009068420637D56A6A1368586880B200286C
:101FC00028D0884226DA6880106801688A061AD408
:101FD00000F0ABF821F4807100F0A3F8F8D100F024
:101FE00061FAFCD1FFF725FFFCD1202028630021F6
:101FF000296100F09AF821F0100100F092F8F8D170
:10200000686A00F0F6FF0220686129886888091A6A
:1020100089B206E088427CD11A68900679D50222FE
:102020006A61204631E06A886888891A00281CBFE6
:1020300088B200286DD02246106850E8003F044660
:1020400023F4907300F067F8F6D1106800F10804EB
:1020500000F1080354E8004FDFF8A806044043E805
:1020600000400028F1D102F15C0320201863002415
:102070001C619C61146854E8004F156800F06EFB09
:10208000F8D10220586189B21046BDE8F04101F054
:10209000DEB8F00209D5590207D54FF4801010625E
:1020A0002046BDE8F04101F0D3B8300609D5390625
:1020B00001D4180205D5E96959B32046BDE8F041BD
:1020C0000847700613D5790611D500F02EF821F0D7
:1020D000400100F026F8F8D104F15C002021C16233
:1020E0000022C2612046BDE8F04101F0FBB8300299
:1020F00006D5790004D52046BDE8F04101F00EB9BF
:10210000F00148BF002F04D52046BDE8F04101F0A2
:1021100006B9BDE8F08144E800300028704741F07E
:10212000800142E8001000287047206850E8001F36
:102130000246704711270008572700086927000842
:1021400000800040F8B50446DFF8CC082268136828
:10215000A168034020690B4361690343E0690B43B5
:102160000343136000255168E06821F440510143A6
:102170005160A369DFF8A4188A421CBF206A034398
:102180009668DFF89C08DFF89CE8DFF89C7806404A
:102190003343936067A6D36A606A1B0940EA03135E
:1021A000D3627245DFF884084FF4004338D13F68AA
:1021B00007F00307032F4CD8DFE807F00245424839
:1021C0004FF0010CE169B1F5004F4FF6F07740F0A8
:1021D0007F80BCF1010F09D0BCF1020F0AD0BCF125
:1021E000040F70D0BCF1080F70D098E001F034FCFF
:1021F000002814D0626A616836F81230B0FBF3F040
:102200004A0802EB4002B2FBF1F0A0F11001B94222
:10221000EBD20740C0F3420007432068C7607FE06D
:102220008A4216D13F6817F4406723D0B7F5806F14
:1022300009D0B7F5006F03D0B7F5406F06D008E0BE
:102240004FF0020C07E04FF0040C04E04FF0080CD4
:1022500001E04FF0100C8A42B4D1BCF1000F09D05C
:10226000BCF1020F0AD0BCF1040F15D0BCF1080F6D
:1022700015D054E001F0E8FB002851D0616A36F82F
:102280001120B0FBF2F6626802EB42018E4246D3A7
:102290001303B34205D242E001F08CFBECE7184691
:1022A000ECE75008002110EB062051EB16610023EB
:1022B000FFF77EFCA0F54076DFF82078BE422ED2F4
:1022C0002168C8602CE001F075FB91E7184691E7A2
:1022D000BCF1010F09D0BCF1020F09D0BCF1040F11
:1022E00018D0BCF1080F18D019E001F0B5FBB8B157
:1022F000626A36F812306168B0FBF3F000EB51000F
:10230000B0FBF1F0A0F11001B94208D2226880B20E
:10231000D06005E001F04EFBE9E71846E8E701254B
:1023200004F168000121002341800180C360036142
:102330002846F2BD010002000400060008000A0061
:102340000C001000200040008000000190F82810D0
:102350000A0706D502685368816B23F400430B43D8
:10236000536090F82810CA0706D502685368C16AFE
:1023700023F400330B43536090F828108A0706D5E6
:1023800002685368016B23F480330B43536090F869
:1023900028104A0706D502685368416B23F480234E
:1023A0000B43536090F82810CA0606D5026893685C
:1023B000C16B23F480530B43936090F828108A0676
:1023C00006D502689368016C23F400530B439360B5
:1023D00090F828104A0610D502685368416C23F41F
:1023E00080130B435360436CB3F5801F05D15368D2
:1023F000816C23F4C0030B43536090F828100A0645
:1024000006D501684A68C06C22F4002202434A6083
:102410007047F8B5044604F184050020E8606FF0C9
:102420007E4701F0D3FB0646206801680A0714D5F1
:102430000097334600224FF40011204600F04AF87E
:1024400058B1FFF772FE21F08001FFF76AFEF8D164
:1024500004F184002021416016E0206801684A07E9
:1024600016D50097334600224FF48001204600F035
:1024700031F868B100F024F8FCD100F013F8FCD179
:1024800004F1840020218160002202700320F2BD4B
:10249000202068602021A9600020E06600212167DB
:1024A0002870F2BD216801F1080353E8001F20687D
:1024B000490800F10802490042E80010002870476E
:1024C000206850E8001F024621F4907142E8001095
:1024D000002870472DE9F041069C05460E469046BF
:1024E0001F462868C1693140B1420CBF012000205D
:1024F000404537D114F1010FF3D001F067FBC01B49
:10250000844200D314B90320BDE8F0812868016833
:102510004A07E6D5802E18BF402EE2D0C1690807D1
:1025200004D42968C8690105DBD50DE02A680820B4
:102530001062284600F0B9F805F184000821C16056
:10254000002202700120DFE729684FF40060086272
:10255000284600F0AAF805F184002021C16000227D
:102560000270D0E70020CFE730B503460020996520
:10257000FF2403F15C010A804A8088619868B0F505
:10258000805F04D1186990B940F2FF140FE018B9C8
:10259000186960B17F2007E0B0F1805F06D118694B
:1025A00008B97F2403E03F20888001E000248C806C
:1025B0000020486322240C63196801F1080555E8DE
:1025C000001F186800F1080441F0010144E8001000
:1025D0000028F1D103F15C018868B0F1005F28D1D7
:1025E0008889824225D39A68B2F5805F04BF186952
:1025F000002803D10FF239428A610BE00FF249340F
:102600008C61186930B100F036F841F48071FFF741
:1026100088FDF8D1196801F1080454E8001F186812
:1026200000F1080241F08051FFF77BFDF2D100205C
:1026300030BD9868B0F5805F04BF186900280CD1E0
:102640000FF209228A61186850E8001F024641F023
:102650002001FFF766FDF6D1E9E70FF29D128A61CE
:1026600018690028EFD000F006F841F49071FFF7E8
:1026700058FDF8D1DBE7196851E8001F1A68704768
:1026800010B500F008F8FCD100F0A8F8FCD120212A
:10269000C0F8881010BD016851E8002F0B4622F0E9
:1026A000C00243E8002100297047016851E8002F6B
:1026B0000B4622F4907243E800210029F5D101680D
:1026C00001F1080301F1080253E8003F0D490B40F6
:1026D00042E800310029F2D1C16E012909D1026816
:1026E00052E8002F036822F0100243E8002100297D
:1026F000F5D12021C0F88C100022C26642677047D5
:1027000000000000FEFFFFEF0100001020010004A8
:1027100010B50146886A09680A68930609D4002141
:10272000A0F8561000F009F8FCD100F04DF8FCD1EB
:1027300010BDBDE8104000F0D5BD026802F10804EC
:1027400054E8002F016801F1080322F0800243E8F9
:10275000002100297047806A01F03EBA24F010047D
:1027600045E8004000287047F8B5846A04F1880500
:1027700004F1560700F01CF806D5212804D10020EA
:1027800038802046FFF77CFF21688868410606D51F
:10279000222E04D1002038812046FFF786FFA8684A
:1027A00040F01000A8602046BDE8F24000F04EBDA9
:1027B00028686E6821688A6811067047806A00215F
:1027C000A0F85E1000F042BD016851E8002F0B46F2
:1027D00042F0400243E8002100297047026802F1FC
:1027E000080454E8002F016801F1080322F40002F4
:1027F00043E800210029704710B500F050F81FD1C0
:102800004B6A9188846D0B402370816D4B1C00F0E6
:102810004CF819D100F050F8FCD100F057F8FCD179
:1028200000F06CF80BD10023136100F05DF8FCD1CF
:102830000168CB69DC0644BF10230B627AE07EE0BE
:10284000886940F00800886110BD000010B500F0F4
:1028500026F81FD14B6A9188846D0B402380816DCF
:102860008B1C00F022F819D100F026F8FCD100F002
:102870002DF8FCD100F042F80BD10023136100F0D9
:1028800033F8FCD10168CB69DC0644BF10230B622E
:1028900050E054E0886940F00800886110BD00F104
:1028A0005C020168136B222B7047836551884B1EB5
:1028B0005380518800297047026852E8002F03684E
:1028C00022F4907243E8002100297047026802F167
:1028D000080454E8002F0168520801F1080352006F
:1028E00043E8002100297047016851E8003F0C4689
:1028F00023F0100344E800310029704700F15C0226
:10290000202111630023936100215161434B016831
:1029100099420CD049680B0209D5016851E8003F83
:102920000C4623F0806344E800310029F5D1116999
:10293000012970471188BDE8104000F088BCBDE84F
:10294000104000F0BFBC00002DE9F84300F010F982
:102950004BD1A88900283AD0B80638D500F0D2F873
:102960000870A06D421C00F0C4F817D0F90748BFEA
:102970005FEAC85200F0B4F803D5F20701D500F0C1
:10298000CFF8780703D5F20701D500F0C1F8686BDE
:1029900020B1204600F05AFC0020686368880028B7
:1029A000DAD100F0CFF8FCD100F028F8FCD100F02B
:1029B000FDF809D100F0EAF844BF1021016229882E
:1029C000204600F044FC02E0204600F07BFC6888D2
:1029D00068B1A98988420ADA00F0BEF8FCD18048C3
:1029E000A86100F0A5F8FCD101E000F002F8BDE814
:1029F000F183816941F0080181617047206800F12D
:102A0000080200F1080152E8002F7648024041E830
:102A10000020002870470000F369FFCF00800040CD
:102A2000FFF4FF1100380140880000580024F40032
:102A30002DE9F84300F09CF84BD1A88900283AD042
:102A4000B80638D500F05EF80880A06D821C00F052
:102A500050F817D0F90748BF5FEAC85200F040F8B5
:102A600003D5F20701D500F05BF8780703D5F2072C
:102A700001D500F04DF8686B20B1204600F0E6FB70
:102A80000020686368880028DAD100F05BF8FCD188
:102A9000FFF7B4FFFCD100F089F809D100F076F817
:102AA00044BF102101622988204600F0D0FB02E0DB
:102AB000204600F007FC688868B1A98988420ADAD4
:102AC00000F04AF8FCD14848A86100F031F8FCD188
:102AD00001E0FFF78EFFBDE8F183000000FD0F006D
:102AE00005D501210162686B40F001006863B807F9
:102AF0007047A2656888411E69802068C76917F021
:102B0000070F70472168486AA16D09EA0000704705
:102B1000216804200862686B40F002006863704717
:102B2000216802200862686B40F004006863704707
:102B3000216851E8001F226841F0200142E800109E
:102B400000287047216851E8001F226821F4807135
:102B500042E8001000287047226802F1080353E899
:102B6000001F083221F0805142E800100028704711
:102B7000044604F15C052068B5F80490C769014675
:102B8000D1F800808668296B2229704700212961CD
:102B9000206850E8001F024621F0100142E80010B2
:102BA0000028F5D12068C169CA0670472020286333
:102BB0000021A961002068610C49206888420CD07E
:102BC0004068010209D5206850E8001F024621F044
:102BD000806142E800100028F5D12869012870477B
:102BE000F9270008FEFFFFEF4D2800080080004095
:102BF000964900E0964981B00A6802430A60096874
:102C000008400090009801B0704780B54FF4002054
:102C1000FFF7F0FF00220F216FF0010000F0F5FF39
:102C2000002200212E2000F0F0FFBDE802402E20FF
:102C300001F008B80168874A914200D0704780B51A
:102C40004FF48010FFF7D6FF002200212C2000F067
:102C5000DCFF2C2000F0F6FF002200212D2000F0E8
:102C6000D4FFBDE802402D2000F0ECBF38B59EB087
:102C700004461421684601F023F850210AA801F007
:102C80001FF820687449754D884246D102200A9089
:102C9000002111910AA801F02DF808B101F0A0FA65
:102CA000286840F00100286029686D4D01F001019D
:102CB000059105980120FFF79BFF02210191002259
:102CC00002920C200321009003910822049269468D
:102CD0004FF0904001F086FA62482860112100F020
:102CE00058F808B101F07CFA4FF0885000210690A6
:102CF0000791ADF820100122099206A9284601F09B
:102D000051FB08B101F06CFAE567AC6200220021CA
:102D1000252000F07AFF252037E05349884236D13C
:102D200001200A90002110910AA800F0E3FF08B1E9
:102D300001F056FA686840F48040686068684B4D5E
:102D400000F48040059005980220FFF751FF022112
:102D5000019101220292C0200321009003910722D9
:102D600004926946424801F03DFA424828600F212A
:102D700000F00FF808B101F033FAE567AC62002209
:102D80000021242000F041FF242000F05BFF1FB051
:102D900030BD696000201022E86080216861A86170
:102DA000E8612862AA602961284600F06BB810B576
:102DB00094B004465021684600F082FF22682E49F4
:102DC0008A420FD14FF4007000904FF080510E9165
:102DD000684600F08FFF08B101F002FA4FF480203E
:102DE000FFF708FF14B010BD18B595B00446502188
:102DF00001A800F065FF226820498A4224D14FF4DF
:102E0000006001904FF48071119101A800F072FFF1
:102E100008B101F0E5F91A48816B41F40041816382
:102E20000021026842F4806202600022006800F41F
:102E3000806000900098032000F0E7FE032000F07F
:102E400001FF204601F062FB16B010BD4C00005897
:102E500050000058000C0058008000405C000058F2
:102E6000C453012044000240003801402454012092
:102E700000040048440402400010005800280040AC
:102E80005800005838B5040001D1012032BD216836
:102E9000DFF89023914204F1240502D200F055F8A6
:102EA00005E000F04AF8DFF880032962E8610221BA
:102EB000697020680268A068E16823686FF30E12E9
:102EC000024320690A4361690243A0690A43E16938
:102ED0000243206A0A4302431A60204600F074F954
:102EE000A068B0F5804F04BF002161602079696A55
:102EF00000F03F0000F014F838B1052805D2204654
:102F000000F07FF900F012F803E000202863686306
:102F1000A8630021A961012068702970002032BDDA
:102F20000860A96AE86A486060687047296B0020F9
:102F30000860696BA86B48607047DFF8F0024118C1
:102F40001422B1FBF2F189007047DFF8E402411866
:102F50001423B1FBF3F18900DFF8D8222962EA617A
:102F60007047F8B5044604F124060025307801289E
:102F700001D10220F2BD012030707778012F2ED1CF
:102F800002207070AC46C6F818C0206807687F0839
:102F90007F000760204600F0FBF82168F06820B150
:102FA0000A6842F00E020A6008E0086820F0040097
:102FB00008602068016841F00A010160706A0168D8
:102FC000CA0303D5016841F480710160306B18B108
:102FD000016841F48071016000F005F801E035708E
:102FE00002252846F2BD2068016841F00101016018
:102FF000704740B100F124014A78022A05D004202C
:10300000886100220A70012070470268136823F06B
:103010000E0313604A6A136823F480731360006818
:103020000268520852000260012091F82020CB690A
:1030300002F01C02904058608A6AC86A5060086BAF
:1030400038B10246106820F4807010604A6B886BBB
:1030500050600120487000220A700020704738B587
:1030600000F1240200245178022903D00420906149
:10307000012429E001680B6823F00E030B6001684E
:103080000D686D086D000D60516A0B6823F4807344
:103090000B60012192F82030D56903F01C039940A0
:1030A0006960936AD16A5960116B39B10B4619682E
:1030B00021F480711960536B916B5960012151703B
:1030C0001470516901B18847204632BDF8B500F14E
:1030D00024010426CA69126803681C6891F820500C
:1030E00005F01C0506FA05F73A4210D067070ED521
:1030F0001A68940603D41A6822F004021A6000F0D9
:103100003EF8C968002939D0BDE8F44008470226D6
:1031100006FA05F73A4213D0A70711D51A689406A4
:1031200005D41A6822F00A021A6001234B7000F0DD
:1031300026F800220A70896801B3BDE8F440084708
:10314000082606FA05F52A4218D0220716D51C686B
:1031500024F00E041C60012291F82030CC6903F0A9
:103160001C039A406260012301228A614B70002295
:103170000A70096911B1BDE8F4400847F1BD91F842
:103180002020CB6902F01C0296405E607047000070
:1031900070B5C56C046D6C60446D14B1856DC46D03
:1031A0006C60012490F84450066C05F01C05AC409E
:1031B0007460046863608068102802D1A260E160D6
:1031C00070BDA160E26070BD10B5416C0268154B26
:1031D00089089A4239BF184C04EB8101174B03EB65
:1031E0008101816402F0FF02083A1421B2FBF1F17F
:1031F000012301F01F01124AC26403FA01F10165C3
:1032000010BD01790F4A104B836501F03F0102EBBD
:1032100081024265491E012201F003018A40C26514
:10322000704700000804024000040240F8FBFDBFA4
:10323000F8FFFDBF00000240000802401C080240E9
:1032400080080240FC080240400902407047704775
:103250007047000010B52B4C10B1022803D010BDF0
:1032600000F00CF801E000F005F80360BDE8104044
:10327000FEF774BD63602448244B704723602448E4
:10328000244B704770B500240025234E10B102284E
:1032900004D00AE03360FFF7F2FF02E07360FFF74B
:1032A000EAFF0360FEF76DFD0446012C05D007D34D
:1032B000032C04D038BF022502E0012500E00325DD
:1032C000284670BD0068114A0E49904205D0114A47
:1032D000904206D1086820B100474868002818BF0E
:1032E000004770470068094A0B49904205D0094AD7
:1032F000904206D1086820B100474868002818BFEE
:1033000000477047045601201451012000800040FE
:10331000A8510120003801400C5601207047704729
:103320004FF0B040006800F0F000B02888BFB02037
:103330007047DFF824080068000100F0F0007047D3
:103340002DE9F041040051D0207881064FF0B045BE
:103350003AD5A868E96810F00C0001F0030103D029
:103360000C2808BF012943D1E06900283ED0FFF7AF
:10337000D7FF0146606A814211D200F0A1FB00280C
:1033800034D12968606A21F0F0010143296069683D
:10339000206A21F47F4141EA0021696009E029683F
:1033A00021F0F001084300F018FA606A00F088FB91
:1033B000E0B900F03BFBDFF8A4170860DFF8A007D6
:1033C000006801F0BDF888B92078C10762D5A86807
:1033D000E96800F00C00082801F0030103D00C2874
:1033E00008BF03292ED16068002853D10120F2E1E3
:1033F000E069B8B1296841F0010100F0D8FA064649
:103400002868800706D400F0E1FB801B0328F7D36F
:103410000320E0E12868616A20F0F000084300F032
:10342000DCF9D1E728684008400000F0B6FB06460A
:1034300028684008C007C7D500F0C8FB801B0328D8
:10344000F6D3E5E76068B0F5803F04D1296841F420
:103450008031296003E0286820F4803028606068AB
:1034600058B100F0B3FB06462868800312D400F080
:10347000ADFB801B6528F7D3CAE700F0A7FB064623
:103480002868400CC00705D500F0A0FB801B65280C
:10349000F6D3BDE72078810715D5A868E96800F064
:1034A0000C00042801F0030103D00C2808BF0229F6
:1034B00028D1E068002899D06868216920F0FE4092
:1034C00040EA016068602168DFF8986611F0180F23
:1034D00000F08B806069002877D0C806706858D5E6
:1034E000800730D4716841F00101716000F06EFB1B
:1034F00007467068800726D400F068FBC01B0328CD
:10350000F7D385E7E06870B1296841F4807100F075
:103510004EFA064628684005CED400F057FB801BC3
:103520000328F7D374E7286820F4807000F035FB97
:1035300006462868800AC007C5D500F047FB801BF7
:103540000328F6D364E7706840F0040000F04EF9F9
:1035500007467068000705D400F038FBC01B04283C
:10356000F7D355E77068A16920F4706040EA012044
:10357000706070684008400000F038F907467068D5
:103580004008C00731D500F021FBC01B0328F6D34B
:103590003EE740F0010000F029F907467068800717
:1035A00005D400F013FBC01B0328F7D330E7706885
:1035B00020F0040070607068C008C00715D500F0E6
:1035C00005FBC01B0428F6D322E7706820F0040036
:1035D00000F00CF907467068C008C007C9D500F0B4
:1035E000F5FAC01B0428F6D312E7207841074CD522
:1035F000DFF87485D8F80000C1050ED400F0EEFFA6
:1036000000F0E4FA0746D8F80000C10505D400F040
:10361000DDFAC01B0328F6D3FAE6A068012804D11E
:10362000306840F00100306010E00528306806D1B5
:1036300040F004003060316841F0010105E04008CD
:1036400040003060316821F004013160A06841F22F
:10365000893760B100F0BAFA80463068800714D428
:1036600000F0B4FAA0EB0800B842F6D3D0E600F0C0
:10367000ADFA804630684008C00706D500F0A6FACB
:10368000A0EB0800B842F5D3C2E62078410622D567
:10369000A06A0028B0680ED040F00100B06000F0D1
:1036A00095FA0746B068800715D400F08FFAC01B62
:1036B0000328F7D3ACE640084000B06000F086FA7B
:1036C0000746B0684008C00705D500F07FFAC01B68
:1036D0000328F6D39CE6E06A00287BD0A968EA6854
:1036E000022801F00C0161D1236B02F00300984223
:1036F00002BF02F07000636B984213D1A36BC2F358
:103700000620984202BF02F47810E36B984209D178
:10371000236C02F06060984202BF02F06042606C6D
:10372000824237D00C2942D0286841013FF55EAE75
:1037300000F030FA06462868810105D500F046FA07
:10374000801B0328F7D363E6EA68DFF82004216BC7
:103750000240606B0A43A16B0243E06B42EA012224
:10376000216C0243606C0A430243EA60296841F01D
:1037700080712960E86840F08050E86000F026FA27
:1037800004462868810125D400F020FA001B032894
:10379000F7D33DE6286881011CD4286840F080708A
:1037A0002860E96841F08051E960E7E70C293FF4BF
:1037B0001DAE00F0EFF904462868810105D500F040
:1037C00005FA001B0328F7D322E6E968DFF8A00317
:1037D0000140E9600020BDE8F08128606868216A46
:1037E00020F47F4040EA012068607047706000F07C
:1037F000EDB92DE9F8430400884600F0B080DFF809
:10380000745300F0CBF80CD200F0CDF8074600F06E
:10381000C5F806D000F0DAF9C01B0228F7D903205A
:10382000BAE0207882074FF0B04711D5B968A06898
:1038300021F0F0010143B96000F0C8F90646B8680C
:10384000C00305D400F0C2F9801B0228F7D9E6E7CF
:103850002078DFF80463820612D53168606921F0B0
:10386000F0010143316000F0B1F981463068800316
:1038700006D400F0ABF9A0EB09000228F6D9CEE798
:103880002078410613D53068A1690009000140EA9B
:103890001110306000F09AF981463068C00306D4F8
:1038A00000F094F9A0EB09000228F6D9B7E72078D8
:1038B000420711D5B968E06821F4E0610143B960BD
:1038C00000F084F90646B868800305D400F07EF95C
:1038D000801B0228F7D9A2E72078010712D5B86823
:1038E000216920F4605040EAC100B86000F06EF930
:1038F0000646B868400305D400F068F9801B02282A
:10390000F7D98CE72078C1072BD56068022819D138
:103910003968890323D5BA68920840EA8200B86002
:1039200000F054F90646B868616800F00C00B0EB8E
:10393000810F16D000F04AF9801B41F2893188428C
:10394000F1D36CE7032802D13968890103E000282C
:10395000396802D18907DED401E04905DBD40120B2
:103960001AE0286800F0070080450BD200F01BF831
:10397000044600F013F805D000F028F9001B0228D7
:10398000F7D94CE700F052F87449086000F042FEA5
:10399000BDE8F24300F0D4BDBDE8F283286800F032
:1039A0000700404570472968C90848EAC1012960F5
:1039B00000F00CB938B54FF0B045704CA96811F063
:1039C0000C0106D1FFF7ACFCC0F3031054F8200043
:1039D00032BD04296A4828D008296A4A04D12968D6
:1039E000C90222D4104632BDE96801F00301022960
:1039F0000CD0032904D12968C90207D4104605E078
:103A0000FFF78EFCC0F3031054F82000E968EA6861
:103A1000EB68C1F306214843C2F30211491C5B0F56
:103A2000B0FBF1F05B1CB0FBF3F032BD80B5FFF7EB
:103A3000C1FF5149FFE7544A0968C1F3031152F825
:103A40002110B0FBF1F002BD80B5FFF7EFFF00F0F1
:103A500010F8C1F3022106E080B5FFF7E7FF00F0A0
:103A600008F8C1F3C22112F8211001F01F01C8406B
:103A700002BD4149454A096870476F2202603E4ACB
:103A8000136803F00C034360136803F0F0038360D2
:103A9000136803F4E063C360126802F460520261C9
:103AA0002D4A136803F0F00343611268120102F01B
:103AB000F00282612F48026802F007020A60704734
:103AC00070B52E49B1282EBFCC6AC0F3031051F84F
:103AD0002040FFF72EFC054600F0B6FD2A49C5F34D
:103AE000031251F822102A4AB4FBF1F15FF00004EE
:103AF000B1FBF2F1B0F5007F30A220461FD100BF2C
:103B000027A353F820508D4216D2401C0328F8D921
:103B1000184D2868C00844EAC00000F03EF8064688
:103B2000286800F00700A04213D000F04FF8801B77
:103B30000328F5D3032070BD52F82040E8E700BF0A
:103B40001BA353F820508D42F6D2401C0328F8D313
:103B5000DEE7002070BD000008010058142400209A
:103B6000F823002090000058000400588C80C111F8
:103B7000FCFFFEEE0040005808000058E4B90008C1
:103B80000024F4000048E801A4B9000890BE000831
:103B900040420F00286820F08070286000F016B8BE
:103BA0001200000024000000360000004000000069
:103BB000060000000C0000001000000000000000E3
:103BC00001000000020000000300000001484068FE
:103BD000704700BFF0230020704700000901020079
:103BE00002D43048815470472F4B02F00F021A4420
:103BF00002F8041C70472D490A6860F30A2240F25B
:103C0000FA5060F31F420A60704770B5274B1C687A
:103C1000C4F302230124C3F10705052D2EBF0F2590
:103C200004FA05F56D1E1E1D072E34BF0023DB1E92
:103C30002940994004FA03F3BDE870405B1E1A4026
:103C40001143CBE7010007D4012200F01F01184BFC
:103C50008A40400943F82020704701000BD401221C
:103C600000F01F01134B8A40400943F82020BFF3A6
:103C70004F8FBFF36F8F7047010007D4012200F010
:103C80001F010D4B8A40400943F820207047010076
:103C900007D4012200F01F01084B8A40400943F875
:103CA0002020704700E400E018ED00E00CED00E09B
:103CB00000E100E080E100E000E200E080E200E0FE
:103CC000002200F0C9BC0000DFF81C130A680309D9
:103CD00003F47F2300019A4300F47F2000F081B9B0
:103CE000DFF804231368010C23EA014343EA00438D
:103CF000136070472DE9F843054600242878DFF863
:103D0000E8624106A0464FF0B04743D5286B70B13A
:103D1000B0F5800F06D0B0F5000F18BFB0F5400F1A
:103D20002ED035E0F96841F48031F96029E0386837
:103D300020F080603860FFF749FF81463868C00E88
:103D4000C00707D5FFF742FFA0EB09000228F5D90D
:103D5000032415E000F03CF9A86821F4781100F084
:103D60002FF981463868000106D4FFF72FFFA0EB3A
:103D700009000228F6D9EBE739696869014339611E
:103D80003CB93168286B21F440010143316001E006
:103D90000124A0462868010532D5D6F80880286C91
:103DA00008F4407880452AD000F018FCB8F1000FE4
:103DB000B16805D1286C21F440710143B1601EE067
:103DC000B06840F48030B06021F44071B06820F4F5
:103DD0008030B060286C0143B160B068C0070ED578
:103DE000FFF7F4FE8046B068800708D4FFF7EEFEC8
:103DF000A0EB080041F289318842F4D30324A046A5
:103E00002878C20705D53168A869890840EA810188
:103E100031602978880705D53168E86921F4406167
:103E2000014331602978C80644BFA86AFFF758FFEC
:103E30002878810644BFE86AFFF752FF28784107D7
:103E400044BF286AFFF740FF2878010744BF686A2B
:103E5000FFF73AFF2868C20535D53168686B21F055
:103E6000406101433160696BB1F1006F00F0A2F86D
:103E7000686BB0F1806F26D1396821F0806100F065
:103E8000A4F804463868C00EC10707D5FFF79EFEA8
:103E9000001B0228F6D94FF0030814E000F098F850
:103EA000E86821F0606100F08BF804463868010191
:103EB00005D4FFF78BFE001B0228F7D9EBE7396921
:103EC000686901433961296888051CD5A86BB0F180
:103ED000804F18BFB0F1004F00D020B9316821F0F9
:103EE0004041084309E0316821F04041316020F051
:103EF0008050326822F0406210433060A86BB0F10D
:103F0000C05F00F057F82868420538D53168E86B83
:103F100021F0405101433160E96BB1F1005F03D101
:103F2000F86840F48030F860E86BB0F1805F26D12B
:103F3000396821F0806100F048F804463868C00E06
:103F4000C10707D5FFF742FE001B0228F6D94FF044
:103F5000030814E000F03CF8286921F0604100F00B
:103F60002FF804463868010105D4FFF72FFE001B27
:103F70000228F7D9EBE73969686901433961296893
:103F8000C80405D5F168686C21F440410143F16033
:103F9000296888040BD5796AE86C21F03001014367
:103FA0007962796AA86C890840EA810179624046A1
:103FB000BDE8F28303D1F86840F08070F860704784
:103FC00001433961396841F080613960FFF7FEBD16
:103FD0003869696820F4FE4040EA01203861396997
:103FE000704710430860704788000058714900E02E
:103FF000714981B00A6802430A600968084000906C
:10400000009801B0704710B500F0F0FA00F03EFBE8
:1040100000F04DF800F089F8684C6948A06304F19D
:10402000380000F04BFE0420FFF7E2FF0120FFF70D
:10403000DFFF0220FFF7DCFF0420FFF7D7FF01209E
:10404000FFF7D4FF0220FFF7D1FF00220E210E2040
:10405000FFF7DBFD0E20FFF7F5FD00220E213A20D1
:10406000FFF7D3FD3A20FFF7EDFD56482060002111
:1040700047F6FF700F22E0606160A2602161A161DC
:10408000E1616161204600F051FE002200212046DE
:1040900000F0BBF94C4860620021A16204F12400E9
:1040A00000F0ECFE00F03AFB00F084FBFEE780B588
:1040B0009AB0482108A8FFF703FE1C2101A8FFF7CA
:1040C000FFFD00F08BFA4148016821F01801016002
:1040D00001213F48026861F34A2202604FF48031B7
:1040E000006800F4C06000904720009A0991012206
:1040F0004FF480710A920B91129208904021002295
:104100000C91139208A8FFF71BF96F200221019070
:1041100002910022039204920592069207920121D5
:1041200001A8FFF766FB1BB000BD80B594B050211D
:104130006846FFF7C5FD4FF440524FF480410092AE
:10414000119102221021129213916846FFF7D2FDBD
:1041500015B000BD10B51F4C1F4820604FF4E13171
:104160000C20606100224FF40040E06100F010F884
:104170002046FDF7AFFD0021204600F0BDFE0021E6
:10418000204600F0C4FE2046BDE8104000F096BE78
:104190006160A260E2602261A26122626262A26248
:1041A000704700680D49884208BF00F003BF7047A0
:1041B00000000000480000584C00005850530120F7
:1041C000000C0058002800400010005890000058D3
:1041D00000040058A8510120003801400048014067
:1041E000704700002DE9F04F0024DFF89881664EFB
:1041F0004FF00F0902460B4631E0644FBA4214BF3C
:104200004FF0070E4FF0040E0EFA01F141EA050ED1
:104210005F4941F82CE0C74331685D683940ED02E1
:1042200048BF0143316071685D683940AD0248BFE5
:1042300001437160D8F800105D683940ED0348BF54
:104240000143C8F80010D8F8041007EA010C5968B7
:10425000890348BF40EA0C0CC8F804C0641C186805
:1042600030FA04F100F07D800121A1400840F5D032
:104270004FEA440C032505FA0CF56FEA050E5D685C
:1042800005F00307012F1CBF05F00305022D10D117
:104290009568DF680EEA050507FA0CF73D4395605F
:1042A000556825EA01015D68C5F30015A54029435D
:1042B0005160A1001D7905F00305032D1ED0D568BE
:1042C0009F680EEA050507FA0CF73D43D5601D7996
:1042D00005F00305022D11D1E50802EB850501F07B
:1042E0001C07D5F820B009FA07FA2BEA0A0BD3F815
:1042F00010A00AFA07F747EA0B072F6215680EEAC3
:1043000005071D7905F0030505FA0CF545EA070CCC
:10431000C2F800C05D6815F4403F9FD01C4D4FEAC5
:10432000940C55F82C5001F00C0109FA01F7BD432B
:10433000B2F1904F08BF4FF0000E11D0154FBA42A6
:1043400008BF4FF0010E0BD0134FBA4208BF4FF019
:10435000020E05D0114FBA427FF44FAF4FF0030E5B
:1043600052E7BDE8F08F0AB1816170478162704702
:104370000B4A136801460B421CBF116000F07CBB66
:1043800070470000800800580008005800100048DE
:10439000080001400004004800080048000C0048E4
:1043A0000C08005870B500F12403587801281CD17E
:1043B0001A78012A01D1022070BD5C6A1870256844
:1043C0000B480A68CE6805401543761E48680A7A8D
:1043D00045EAC6450543487A45EA024545EA40258F
:1043E000256000211970002070BD012070BD000003
:1043F000FFFD00E08A60FF210268516280F82130F1
:10440000002180F8201000207047F8B53E4E03468A
:1044100030684FF47A7540092C46B0FBF4F46C43D5
:10442000009493F82000012801D10220F2BD012060
:1044300083F82000022783F82170CA201C6860627C
:10444000532718684762FF241F68B868400507D5DE
:104450000098401E00900098F0B1F8684007F7D42B
:10446000B86820F48060B8601868C76807F08007F3
:1044700067F49067C760306840092E46B0FBF6F6D7
:10448000754300951D680098401E0090009818B173
:10449000E8684607F7D506E018684462032100F093
:1044A00023F80320F2BDA868C008C000A8601868FF
:1044B00085682A438260186841611148016841F4A7
:1044C000002101600F48026842F40022026018686F
:1044D000816841F480418160186800F00BF8186829
:1044E000446200F001F8F2BD83F82110002083F847
:1044F00020007047816841F480618160012170472C
:1045000080080058000800581424002090F820105B
:10451000012901D102207047012180F820100223D7
:1045200080F82130CA2102685162532301684B622E
:10453000012301688A6842F02002FFF75BBF000098
:1045400078B5044689B000F039F81A20FFF77AFBF5
:104550001D481E4D016841F48021016001A90068D9
:1045600000F480200090009802A8FFF786FAFFF779
:1045700073FA1749174B2960B0FBF3F0401E40F265
:10458000E73268600021EA602961A960284600F0EE
:1045900019FD06000FD1284600F021FD06000AD1C2
:1045A0001A20FFF74FFB102C04D200F007F80A483E
:1045B000046000E0012630460AB070BD00222146AA
:1045C0001A20FFF722BB000060000058D4540120DD
:1045D0000048014040420F00F823002002480168D3
:1045E00041F480710160704700040058134810B511
:1045F000016841F4807101600320FFF7FCFA00209C
:10460000FFF79EFF0024002814BF0124FEF7FDFAE7
:10461000204610BD0A4880687047094800787047F6
:10462000084805E00748016841F002010160704751
:10463000016841F00101016070470000004000582E
:10464000F0230020042004E0DFF80800006800F4F4
:10465000C06070470004005800B500BF13009646C4
:104660009446103928BFA0E80C50FAD85FEA417C84
:1046700028BF0CC048BF40F8042BC90728BF20F84A
:10468000022B48BF00F8012B00BD00001CB5DFF86D
:10469000AC14DFF8AC444FF400400860606C40019B
:1046A0000ED5606CC0000BD4FFF798FFFFF796FFA4
:1046B000206C40F480302064206C20F48030206432
:1046C0003F22216841F4801121603F21206800F4DD
:1046D000801000900098DFF86C044160426101682E
:1046E00041F47C110160026942F47C1202610168AC
:1046F00041F03F010160026942F03F020261002087
:1047000000F094FD48B18079DFF83C14E164E26C7C
:1047100022F47C5242EA0022E26413BD80B5DFF845
:104720002C04016841F050010160CA22DFF8200426
:10473000C2615321C161FF210268D208D200026028
:10474000C161DFF81004026842F40042026000F028
:1047500081FDDFF804040268042161F302020260B3
:104760000020DFF8F81300F0B0FE01F05CF8012142
:10477000012000F074FD002001F004F9012001F097
:1047800001F9022001F0FEF8012001F01DF90121DC
:10479000002001F033F90121012001F02FF901215E
:1047A000022001F02BF9BDE800500FF2E923DFF8F9
:1047B000B013B9E101F078B978B587B0DFF8A44358
:1047C00004F596753426009642F2A03304F5B072D3
:1047D0000FF2CC31284601F089F918224FF48031CC
:1047E00004F5145001F0E6F940F2112001F09CFBB1
:1047F000342300220FF2B431201D01F09FFB20234F
:1048000000220FF2B43104F1380001F0F5FB20234F
:104810000022DFF8541304F1580001F0EDFB0023EF
:104820004FF480622146284601F038FC0022012125
:1048300004920591B420226810234FF48061069001
:10484000039302930191009200230FF2C9120FF219
:10485000783104F1780001F05BFC08B070BDC14A0A
:1048600010B1012805D070474FF0FF31101D01F045
:10487000EDBC101D01F01ABD0000000070B5064629
:1048800088B07068B94C00F10B054FF412422988CA
:10489000891A11D0491E6FD0491E00F08180891EEF
:1048A00000F08B80491E00F08D80491E00F08D8045
:1048B000491E00F0918093E0684601F030FD9DF8BC
:1048C00002309DF801209DF80010204601F068FD9F
:1048D0009DF804100FF20C3001F062FD9DF80C30D1
:1048E0009DF80B209DF80A10C5A001F059FD00BFEE
:1048F000C9A001F055FD04A80021002200230025D5
:1049000080E82E00716801F10D0090F8000040BBB6
:10491000C9A0974D01F044FD01F002F80F207F215E
:104920008DF810008DF8121004F509702E68360C01
:10493000314601F035FDADF81C602C68C5A0C4F30C
:104940000B04214601F02CFDADF81E4004A801F037
:10495000DFFC884801F038FD0021012000F07FFCD9
:104960003EE0012805D104F5127001F019FD357003
:1049700036E004F51F7031E004F1240001F010FD71
:10498000706800F10D0504F5C070297801F008FD8C
:104990002878002814BF04F5F67004F5D8701DE0DF
:1049A00004F1480001F0FCFCD5F80620D5F802100F
:1049B00004F1980001F0F4FC12E0D5F8021004F1C3
:1049C000C00006E004F1FC0008E0D5F8021004F590
:1049D000907001F0E5FC03E004F5AE7001F0E0FC3E
:1049E00008B070BD38B50446FFF7F0F814F1010FB8
:1049F000054609D0FFF711FE241805E05E4801685E
:104A000021F00401016030BFFFF7E0F8401BA04235
:104A1000F4D331BD10B588B002F04CFA574C584968
:104A2000019104F23C5000906946564802F032FB76
:104A300004F5C961039104F25470029040F23C51B4
:104A40000591049402A802F0BDFA02F031FA454C37
:104A50004FF0FF3104F1580002F0C2FB02F03BFBC3
:104A6000F6E7494802F0DEBB484802F0DBBB4FF0F6
:104A7000FF31464802F0B4BB012805D0022805D01A
:104A8000102805D102F002B802F002B802F008B80E
:104A900070470000F8B53E4C314F04F580752E8804
:104AA000B6F5807F3BD238780D2835D14FEA040126
:104AB00070A001F075FC1EA1204602F0BFFB04F5BA
:104AC000827620B96FA001F06BFC324814E019A186
:104AD000204602F0B3FB28B96CA001F061FC4FF056
:104AE000B05009E014A1204602F0A8FB48B900BF6D
:104AF00068A001F055FC28486860304602F0A8FB29
:104B000003E0214665A001F04BFC4FF48071204684
:104B1000FFF7D6F8002601E0A055761C2E80394616
:104B200001B0BDE8F0401D4B01220020FEF792BB12
:104B30005357310053573200535733001040005839
:104B400050000058040C0058FECAFECA90080058D5
:104B500008280040080000588004005850530120E5
:104B6000FC5501201C240020F8BD000810B00008EE
:104B7000002004E04825002010ED00E03C00032068
:104B80005F4800087D480008742400205424002059
:104B9000844E01200400001601000016954A00080A
:104BA0006279746520706F6F6C2030006D7574656C
:104BB000785F73686369000073656D6170686F7218
:104BC000655F7368636900007468726561645F5350
:104BD0006863695573657245767450726F63657367
:104BE00073000000576972656C65737320466972C3
:104BF0006D77617265206275696C642025640A00B6
:104C00004655532076657273696F6E2025642E2594
:104C1000642E25640A0000003E3E3D3D205348437B
:104C2000495F5355425F4556545F434F44455F5279
:104C3000454144590A0D00003E3E3D3D2057495232
:104C4000454C4553535F46575F52554E4E494E476C
:104C5000200A00003E3E3D3D204442474D43555F03
:104C600047657444657669636549443D20256C78E1
:104C7000200A0D0072656365697665642025730AF4
:104C800000000000535731204F4B0A005357322089
:104C90004F4B0A00535733204F4B0A004E4F5420BE
:104CA0005245434F474E495A454420434F4D4D418D
:104CB0004E44203A2025730A00000000F8B504464F
:104CC0000025ACB104F13406307910B92046FDF767
:104CD000B1FF0F4F384600F021F8386840F001105E
:104CE0003860204600F007F835600121317100E09E
:104CF00001252846F2BD10B50021064A064B00EBFF
:104D00008104491C06296360E261F8D310BD0000EC
:104D1000000C0058FF140008C714000800210160AF
:104D20004FF03F1242603F238360704738B5040064
:104D300001D1012032BD94F8210028B9002184F866
:104D400020102046FEF750F8022084F82100206849
:104D5000C168CA0637D4CA21416253202268506212
:104D600000F036F801001AD12168DFF898008A684F
:104D700002408A6022689368606821690343A069E1
:104D80000B43034393602068E16801612068016977
:104D9000A26841EA02410161204600F059F8010091
:104DA0000BD12168CA6C92089200CA642368DD6C3A
:104DB000E16962690D431543DD64FF212268030048
:104DC000516204D100E00020012184F8211032BD9D
:104DD00020461BE038B504460B482168C860FEF742
:104DE000F5FE05462068C168880608D4FEF7EEFE89
:104DF000401B40F2E9318842F4D3032032BD002049
:104E000032BD0000BFFF8FFF5FFF010070B5044699
:104E100000252068C1684A0618D4C16841F08001A5
:104E2000C160FEF7D3FE06460AE0FEF7CFFE801B08
:104E300040F2E931884203D3042084F8210001259F
:104E40002068C168480601D42800EED0284670BD0D
:104E500038B5044600252068C16821F08001C16092
:104E600020688168880607D42046FFF7B3FF18B191
:104E7000042084F821000125284632BD10B5040025
:104E800001D1012010BD607A20B900212172204695
:104E9000FDF78DFF0220607221680A68606822F0C9
:104EA000200202430A602068016841F004010160A9
:104EB000012060720021E160002010BD10B500F1FA
:104EC00084010A78012A01D1022010BD01220A7052
:104ED00024234B600268136814686408640014603B
:104EE0000022426623F000530068036020224A60DB
:104EF00000230B70002010BD70B500F01FF801D129
:104F0000022070BD00F020F822F0604209E070B588
:104F100000F014F801D1022070BD00F015F822F065
:104F2000606211438160204600F01CF82068066032
:104F30002021696000222A70002070BD044604F11F
:104F400084052878012870470120287024226A608F
:104F50002068066802685208520002602068826871
:104F60007047000030B5416E11B90122012114E0F3
:104F7000026800BF0BA49168D2F808200BA3490E69
:104F800001F00701520FA55C645C9A5C595CED006E
:104F9000E40095FBF2F294FBF1F16830428001806D
:104FA00030BD0000010101030701000008040204F4
:104FB000080101010248416802788A18426070477E
:104FC000F023002038B5040001D1012032BD00F0EB
:104FD00047F818B900F040F802F048F926E090F8D8
:104FE0003D10012901D001207047022180F83D10B9
:104FF0000168CA6842F00102CA600168DFF86820EF
:10500000914218BFB1F1804F09D18A68DFF85C1076
:105010001140062918BFB1F5803F05D001680A6824
:10502000084642F0010202600020704702206870CA
:10503000211D206800F0C0F8012028730121A9700B
:10504000E87029716871A971E87129726872A97292
:10505000E8726970002032BD002129702046704737
:1050600004F13C0568787047002C014007000100FE
:1050700070B504462068C5680669B10714D5AA074B
:1050800012D56FF00201016101222277806910F0D0
:10509000030F204602D002F0EAF803E002F0E8F83D
:1050A00000F087F800202077700715D56A0713D520
:1050B00020686FF00401016102222277806910F4F8
:1050C000407F204602D002F0D2F803E002F0D0F890
:1050D00000F06FF800202077300715D52A0713D588
:1050E00020686FF00801016104222277C06910F086
:1050F000030F204602D002F0BAF803E002F0B8F83D
:1051000000F057F800202077F00615D5EA0613D5F1
:1051100020686FF01001016108222277C06910F445
:10512000407F204602D002F0A2F803E002F0A0F88F
:1051300000F03FF80020207706F0010205F00101A1
:105140000A4206D021686FF001020A612046FFF78B
:1051500028F816F4025F08D02A0606D521686FF4F5
:1051600002500861204602F084F8F00508D52A06AE
:1051700006D521686FF480700861204602F07AF845
:10518000700608D56A0606D521686FF040000861F0
:10519000204602F070F8B0060AD5AA0608D52168A4
:1051A0006FF0200008612046BDE8704002F064B84E
:1051B00070BD204602F061B8F0B50368DFF86060AA
:1051C000DFF86040DFF86050B04218BFB0F1804FA8
:1051D00001BF23F070024B681343B04205D0B0F119
:1051E000804F1CBFA842A04203D123F44072CB6879
:1051F00013434A698F68C76223F0800313430A6828
:105200008262B0421CBFA842A04201D10969016379
:105210000121026842F00402026041610360F0BDB6
:10522000002C0140004801400044014020B50146E7
:105230000648074D00E00838C2798A4218BFA842E4
:10524000F9D18A4218BF002020BD00BFF873FF1FAC
:105250000070FF1F0D48002101604160704710B5CC
:1052600000F007F85C6800F009F85C6082F31088D1
:1052700010BDEFF3108272B6044B704719B10129CB
:1052800002D1044370478443704700001456012044
:10529000DFF854150A6892B200E00246086880B24E
:1052A0008242FAD17047F0B5DFF84055DFF840355B
:1052B0002E78182204465443B0421C4404D1287866
:1052C0006870627D2A700FE0267D607D94F815C0BD
:1052D00003F115075643062807F806C004D0267DBB
:1052E000143312FB00F29E54012020732A78062A00
:1052F00002BF00294FF0FF30E860F0BD10B5DFF8C5
:10530000EC44E06810F1010F0ED0FFF7C1FFE16837
:1053100081422FBFE268E168E2888A182179101A79
:10532000E2784843D04000E0002080B210BD2DE973
:10533000F047DFF8C084DFF8C004D8F800600168E7
:105340004A0502D5F0684107FCD4B068DFF89C74C8
:10535000DFF89CA420F48060B0604FF018093D781D
:105360000AF1080019FB05F14458FFF7C7FF844212
:1053700002D20024012105E039894118A14203D25B
:105380003C890021B97013E00122241ABA700FE0A1
:1053900019FB05F50AF108035F59874226BF5959E1
:1053A000091A00210AF1080251510AEB05014D7D4D
:1053B000062DEDD1DFF83474A0B238B9FFF768FFDD
:1053C000F8600320BDE8F047FEF756BC022802DA79
:1053D000F878012800D0641EF0684107FCD5F06819
:1053E00000F06CF8F06000F051F9DFF80C04C168CF
:1053F00064F30F01C160FFF74BFFF860D8F80000BD
:10540000816841F480618160AFF30080BDE8F0877E
:105410002DE9F843EFF3108472B6DFF8D853DFF8C4
:10542000D0332A68CA205062532151629068DFF855
:10543000BC1320F48060906018200E7837464743F4
:105440001F4497F80CC0BCF1020F26D1D7F800809A
:10545000D7F810908878E8B17A7B012A0AD1012127
:105460003046FFF720FF84F310887968304600F05B
:1054700013F904E084F31088304600F0C7F8286878
:10548000CA2141625322426231464246484601F0F7
:10549000F5FE0EE0FFF74BFF09E0D0684107FCD5B1
:1054A000D06800F00BF8D0604FF40020086084F35F
:1054B0001088FF2228684262BDE8F183DFF83C13C0
:1054C00000F0800060F490607047F8B5C94CCA4D98
:1054D0002168CA224A6253234B624FF6FF7C2A6836
:1054E00042F020022A602A68AB68AD681B0C03F00A
:1054F0007F03C5F30E055B1C6D1C6F1E1E4602F07C
:10550000070216FB07F6C2F10402A6F5A076D64004
:10551000B64F66452CBFA7F808C03E81FA703B71B4
:10552000FD80B74A136843F400231360B54B1D6830
:1055300045F400251D6070BB0120B8704FF0FF31AD
:10554000F9600020AA49002301F10C0418255FFA34
:1055500080FC15FB0CFC401CC6B204F80C30062E77
:10556000F5DB06203870A34C2068816821F4806147
:105570008160C16801F0800161F49061C160032025
:105580004FF40021D160FEF782FB2068816841F46E
:105590008041816005E0C868410544BF0320FEF7F3
:1055A0006BFB2168FF204862002203210320FEF7E5
:1055B0002CFBBDE8F2400320FEF744BB2DE9F0418F
:1055C00004460025EFF3108672B61827DFF820C2D4
:1055D0000CF10C0E07FB05F81EF8080010B16D1C4D
:1055E000062DF5DB062D0CD06F430CEB07000127D1
:1055F000077386F310880461427303600D70002006
:1056000002E086F310880120BDE8F081F8B5044679
:10561000EFF3108572B60320FEF71FFB754E7A4933
:105620003768CA2078625323224618207B6242439F
:105630008B5C022B21D100212046FFF734FE6B4802
:105640000178062914D16C4801684A0502D5F8682A
:105650004107FCD4B86820F48060B860F86841075E
:10566000FCD5F868FFF72AFFF86000F00FF804E0B7
:105670004078884218BFFFF75AFE3168FF20486221
:105680000320FEF7DFFA85F31088F1BD4FF4002008
:1056900008600320FEF7FBBA2DE9F84F04468A465E
:1056A00018252146524E69437718387B022804BFDB
:1056B0002046FFF7ABFFEFF3108872B60320FEF72A
:1056C000CCFADFF83091D9F80000CA2141625322A8
:1056D000426202203873C7F808A0C7F804A0DFF8B8
:1056E0000CA19AF80000062808D100F075F878752A
:1056F0004FF0FF31CAF80C10002056E0FFF7FEFD16
:10570000B9680918B96006F10803B9689AF8002069
:105710006A439A5891422AD39AF8002004E006F18D
:10572000150E6A431EF8022006F1150315FB02FC54
:1057300013F80C30062B06D006F1080C6B435CF80E
:1057400003309942EBD21146694306F1150E1EF85B
:105750000130062B05D006F1140C15FB03F50CF8EF
:1057600005407B753A7506F1150254541DE09AF810
:1057700000109AF800C0614515FB01F20FD006F148
:10578000140B06F1150C1BF8023015FB03F50CF891
:10579000054079753B7506F114018C5403E006F160
:1057A000140379759C5400F017F89AF800109AF8D1
:1057B00001208A4202D0FFF7BAFD02E0B968081A58
:1057C000B860FF20D9F8001048620320FEF73AFACB
:1057D00088F31088BDE8F18F9AF800108AF801105C
:1057E0008AF800407047000028280040C05501207A
:1057F0003C52012050530120082800400C0800585A
:105800000008005880080058485201203E4900E036
:105810003E4981B00A6802430A6009680840009066
:10582000009801B07047F0B585B0FEF7F9FEFEF7BD
:10583000F9FE3748016841F480310160002601F02B
:105840003AFD14216846FEF73BFA002500240021AA
:10585000304A02EBC102907988B11368B3F1904FDE
:105860000BD02D4FBB4205D02C4FBB4207D19088A7
:10587000044304E09288154301E090880643491CE4
:105880002629E5DB0121019100200322310002904D
:10589000039211D000960120FFF7B8FF0120FFF717
:1058A000B7FF69464FF09040FEF79CFC002231465E
:1058B0004FF09040FEF757FD280010D000950220D1
:1058C000FFF7A4FF0220FFF7A3FF134E69463046FF
:1058D000FEF788FC002229463046FEF744FD2000F2
:1058E00010D000940420FFF791FF0420FFF790FFF1
:1058F0000A4D69462846FEF775FC002221462846D7
:10590000FEF731FD05B0F0BD4C0000584C010058C9
:10591000900800587CB400080004004800080048C3
:1059200000B587B04FEA0D0009A11C22FBF7B6FCB9
:1059300001F07FFB684600F0E3FC07B000BDFEF716
:1059400009BC13460A4601460020FDF79BBC000037
:105950000000000000000000000000007CB400080F
:10596000280003202C00032026040400464981B0AF
:105970000A6802430A60096808400090009801B074
:105980007047000078B585B0044600F078F8022032
:10599000FFF7ECFF3FA13D4E31F814500095012177
:1059A00001910022022102920391694656F82400D7
:1059B000FEF718FC00F002F806B070BD56F824009F
:1059C00000222946FEF7CFBC10B500F00FF8BDE865
:1059D00010400122FEF7C7BC10B500F007F8BDE883
:1059E00010400022FEF7BFBC0000000029A4274B96
:1059F00034F8101053F820007047000030B585B01F
:105A000004460D4600F03BF8200008BF042004D0F7
:105A1000012C18BF022C02D10820FFF7A7FF290094
:105A2000DFF86C201DA00ED1002130F81400019188
:105A30000090012302210293039100F01BF8012042
:105A4000FEF7D0FF14E0012D12D130F814000090C1
:105A50004FF404130295019300F00CF811A0045DBB
:105A600000220F2160B2FEF7D0F860B2FEF7EAF82C
:105A700005B030BD694652F82400FEF7B3BB1421CF
:105A80000022684601F054BC4C000058FC23002062
:105A90000824002020000100020000001000010086
:105AA000020000000A06070038B50D4D286810F105
:105AB0000F3F4FF0F03408D02C6001F043FC01F0B0
:105AC00073FC08480168491C01602C6006480068A6
:105AD000FEF772FE00202860BDE8314001F07CBC7A
:105AE0001824002080500120405601202DE9F84361
:105AF0000446894615469846002624B3089834285B
:105B000021D1EFF3108172B624480268521C026062
:105B100081F310882248234907680B68002001E0C0
:105B2000FF6A401C984201D2BC42F9D1EFF31081C8
:105B300072B61A480268521E026081F3108801F0A2
:105B4000ABFCBC4201D1022624E00DB9032621E0C2
:105B5000B8F1640F38BF05261CD3134A13491068E7
:105B6000884208BF1326124A1068EFF305810843E4
:105B700008D01168EFF305800143B1F1F03F38BF61
:105B8000132607D336B943462A464946204601F034
:105B9000A1FC06463046BDE8F28300BF80500120DC
:105BA000785501207C5501206C500120D0490120FE
:105BB000182400202DE9F84F30240B4604FB02F690
:105BC00006F150018B4238BF052003D3B64D29683A
:105BD00009B120203EE1B5494FF0FF350D6000F1DD
:105BE0003007B34908603E44B2490F60B24F3E608F
:105BF0000027B8460FE004FB07FC66444FF0010C99
:105C000086F800C086F8018086F8028086F8038056
:105C1000C6F804807F1C0E689742ECD3A74FA849B2
:105C2000A84C3A600A606FF02F01A34FC4F80080BF
:105C300001FB02333C68303B5A0904EB421200215D
:105C4000002704E04FEA411C491C44F80C70B1EBFA
:105C5000531FF7D396499C4B09680B60886020233B
:105C600095484D60CE600F824B824FF0BB33006889
:105C7000486188610862CA614FF0AA3048628B624D
:105C80004FF0CC30C862EFF3108090490A60904A20
:105C9000146072B68F490B685B1C0B6080F3108830
:105CA0008D498E480D6804680AE068690090EB68C9
:105CB000AA6A2946012001F0B5FCD5F88850641E77
:105CC000002CF2D1864987480D68046809E0E8682D
:105CD000009000236A682946022001F0A3FC6D6A47
:105CE000641E002CF3D1804980480D68046808E0E8
:105CF000009700236A682946062001F093FCAD69ED
:105D0000641E002CF4D17A497A480D68046809E0D1
:105D100000972946EB686A689B00032001F082FC2B
:105D20002D6B641E002CF3D1734974480D68046810
:105D300008E0009700236A682946042001F072FCFD
:105D40006D69641E002CF4D16D496E480D680468BD
:105D500008E000972B696A682946052001F062FC7B
:105D60002D6A641E002CF4D1674968480D680468E8
:105D700008E00097AB696A682946072001F052FCE9
:105D8000AD6A641E002CF4D1614962480D68046854
:105D900008E00097EB696A682946082001F042FC98
:105DA000ED6A641E002CF4D1EFF3108772B64948F7
:105DB000474E01683C4CDFF860A1DFF860B13C4D14
:105DC000491E01604FF0F0383068206000284FF025
:105DD000FF391BD035490A78D30717D500F04AF8A8
:105DE00002D100F039F806E0B1F1F03F39BF1146B9
:105DF0004A464246002100F045F804D300F033F84B
:105E000021B1884702E020602868016220680028EC
:105E10001BD026490A78D30717D500F02BF802D1FA
:105E200000F01AF806E0B1F1F03F39BF11464A46DA
:105E30004246002100F026F804D300F014F821B106
:105E4000884702E020602868016287F3108801F02B
:105E500023FB0020BDE8F28FD16AD36B41EA0341F6
:105E600041F00041704731682160286801622C4987
:105E700009687047DBF80020EFF305811143DAF879
:105E800000207047026041600621264A816000219F
:105E900013680E4AC360016141618161C1612030B4
:105EA0001368014699427047BC55012048560120AD
:105EB000A8550120AC550120B055012050560120B5
:105EC000545601205856012042545854B8550120C8
:105ED000B4550120805001207450012078500120D9
:105EE00034490120384901206055012064550120C2
:105EF000585501205C550120505501205455012072
:105F0000685501206C550120705501207455012001
:105F1000785501207C5501206C5001201824002068
:105F20004C560120041000E003490A6822EA0000F0
:105F300008600020704700BF485601202DE9F0415D
:105F400004468846154600261CB3342B21D1EFF3B6
:105F5000108172B622480268521C026081F31088D8
:105F60002048214907680B68002001E03F6A401C77
:105F7000984201D2BC42F9D1EFF3108172B61848B1
:105F80000268521E026081F3108801F085FABC425B
:105F900001D11C2620E0012D1CBF002D1F261BD186
:105FA000124A13491068884208BF1326114A106824
:105FB000EFF30581084308D01168EFF30580014332
:105FC000B1F1F03F38BF132606D32EB92A46414619
:105FD000204601F0A5FB06463046BDE8F08100BF33
:105FE00080500120685501206C5501206C50012023
:105FF000D049012018240020F8B504000D461646AB
:1060000023D0202B21D1EFF3108172B61D480268F6
:10601000521C026081F310881B481C4907680B68FA
:10602000002001E07F69401C984201D2BC42F9D1B6
:10603000EFF3108172B613480268521E026081F3BA
:10604000108801F029FABC4201D10C20F2BD104A9F
:106050001049106888420CD00F4A1068EFF3058190
:10606000084308D01168EFF305800143B1F1F03F18
:1060700001D21320F2BD324629462046BDE8F84041
:1060800001F0DCBB80500120505501205455012007
:106090006C500120D049012018240020F8B518B117
:1060A0000468174DAC4201D00220F2BD09B90320AB
:1060B000F2BD12B1C469944201D20520F2BD114E65
:1060C00033B13468EFF305852C4301D00420F2BDD1
:1060D0000D4F0E4D3C68AC420BD03468EFF3058594
:1060E0002C4308D03568EFF305842543B5F1F03F24
:1060F00001D21320F2BD01B0BDE8F04001F026BC92
:1061000045545942182400206C500120D0490120E8
:106110002DE9F84F0024002886B089461746984696
:1061200041D01699B4293ED1119E109DEFF31082F3
:1061300072B640490B685B1C0B6082F31088A44662
:106140003D490B68A919A1F1010E0146002013E099
:10615000DA68954205D3D3F810B05D453CBF002501
:106160000120964504D31A6996453CBF00250120BD
:10617000D3F888300CF1010C304A1268944503D2F0
:10618000994201D00028E3D08A469B46EFF3108164
:1061900072B628480268521E026081F3108801F02E
:1061A0007BF9DA4501D10E243FE00DB13A0001D16F
:1061B00003243AE0C82E38BF052436D3129F202F7F
:1061C00028BF0F2431D2DDF84CC0674538BF1824F2
:1061D0002BD3DDF854E0BEF1010F88BF102424D882
:1061E000174B18491868884208BF1324164B1868C3
:1061F000EFF30581084308D01968EFF305800143E8
:10620000B1F1F03F38BF13240FD374B91498CDF80F
:1062100014E00490CDF80CC002970196434649461D
:106220000095504601F066FC0446204607B0BDE8E4
:10623000F08F00BF80500120745001207850012061
:106240006C500120D04901201824002038B518B125
:106250000268124B9A4201D01C2032BD104C59B139
:106260002268EFF305831A4304D10E4D0E4B2A68C2
:106270009A4201D1042032BD2268EFF305831A430C
:1062800008D02368EFF305821343B3F1F03F01D246
:10629000132032BDBDE8344001F01EBD4554554DBC
:1062A000182400206C500120D049012018B1016849
:1062B0000A4A914201D01C207047094B1968EFF33C
:1062C0000582114308D01A68EFF305810A43B2F141
:1062D000F03F01D21320704701F0DEBD4554554D0B
:1062E0001824002000F02AFF9DF80E0005B000BD24
:1062F000F8B500F10C026B462F214FF66640F1E72E
:10630000F8B500F10C026B460F214FF66840E9E743
:10631000F8B502466B4610214FF67540E2E7F0B53E
:106320001C491D4B0A681D49C2F30D0201EB820195
:106330000D682A689A4205D16969AA69EB69EC6817
:106340002D6905E02E4631697269B3697468B568D4
:106350000E0E06700F0C47700E0A86700272C1F3A3
:10636000031601F00F010171C670110E4171160C78
:10637000110AC171220C210E8172C272240A290EE7
:106380002A0C86714372047341738273C5730020B3
:10639000F0BD00003C400058B95646A9000003205B
:1063A0000EB41EB5024605A801900024009401AB6E
:1063B0000121044878440C30F9F7C3FE03B010BC47
:1063C0005DF810FB3D5B00002DE9F84197B00446F5
:1063D000DFF8E48808A841463C22FAF75FFFDFF8BF
:1063E000DC780FF6B1050FF69500DFF8D46800975A
:1063F0000195694601F08CFE01210220FEF72FFF76
:10640000342300220FF6F00106F12C00FFF796FD71
:10641000202300220FF6E80106F16000FFF7ECFDF3
:10642000202300220FF6E00106F59A70FFF7E4FD45
:1064300000F099F900F09EF90FF619020FF6E40149
:1064400006F18000FFF764FE08A8FFF751FF010086
:1064500006D008F13C00FFF7A3FFFDF7C1FE03E003
:1064600008F17400FFF79CFF0DF116000021018078
:1064700008F58C70FFF794FF01F01EFF28B101466C
:1064800008F5A270FFF78CFF03E00FF6A810FFF7E6
:1064900087FFDFF83008016811F1010F0ED0426864
:1064A0003174120A090A7174110A4068F274B074E6
:1064B000120C3175727506F1100706E00020FEF728
:1064C000B5FE070008BF0FF6B8173A4606210020B0
:1064D00001F07AFF28B1014608F5BA70FFF760FFB6
:1064E00010E008F5EC70FFF75BFF387802907978E0
:1064F0000191B8780090FB783A79797908F50B70BA
:10650000FFF74EFF78790FF6801230723979717289
:10651000F878B072B978F1727878307318203978D9
:106520007173102101F050FF28B1014608F51A706F
:10653000FFF736FF03E008F53070FFF731FF0FF685
:1065400058121021082001F03FFF28B1014608F53C
:106550004270FFF725FF03E008F55870FFF720FFB2
:106560001821012001F046FF28B1014608F56A70A4
:10657000FFF716FF03E008F57A70FFF711FF01F04F
:106580008BFF28B1014608F58360FFF709FF03E0A0
:1065900008F24C40FFF704FF06A80DF11A01019024
:1065A000009105AB07220021012002F064F928B117
:1065B000014608F58E60FFF7F3FE03E008F59460EE
:1065C000FFF7EEFE0FF68C00BDF81A1000900723BF
:1065D000BDF81400002202F01BF80DF11600009027
:1065E0000223BDF81810BDF81400002202F010F8C4
:1065F00002220221002001F0B5FE28B1014608F276
:10660000C440FFF7CDFE03E008F5A060FFF7C8FE29
:10661000DFF8B4760120387002F0D0F828B10146D6
:1066200008F22C50FFF7BCFE03E008F26C50FFF7B5
:10663000B7FE08213971012000217870F97010200F
:1066400001217871B9700022DFF88006102108233B
:10665000B8600492039002920191009301220023FA
:106660000121012002F0BEF828B1014608F29C5039
:10667000FFF796FE03E008F5BD60FFF791FEB878DE
:1066800060B102F056F928B1014608F22460FFF724
:1066900087FE03E008F26460FFF782FE08F2946070
:1066A000FFF77EFE02F0D2F900204FF6FF7187F867
:1066B0008000F982202300220FF2846106F5027027
:1066C000FFF79AFC00F04FF800F054F80FF2B542D3
:1066D0000FF2886106F5AA70FFF71AFD2023002249
:1066E0000FF2906106F53770FFF786FC00F03BF87B
:1066F00000F040F80FF2E5420FF2986106F50A70DB
:10670000FFF706FD062001F094FE28B1014608F1CE
:106710009C00FFF745FE03E008F1E000FFF740FEB4
:106720000020307601217176204602F0FFF90FF249
:106730009D43002207F181010020FEF73FFF0FF289
:106740009543002207F182010020FEF737FF002168
:10675000398380203084A0217184012000F0A1F9C8
:1067600018B0BDE8F08100234FF4806207A92046ED
:10677000FFF794BC0022012104920591B420079AEE
:1067800010234FF4806106900393029301910092CD
:10679000002370472DE9F84F2DED028B044684B09D
:1067A0006178DFF82455DFF818B5DFF8249505295E
:1067B00005F1800605D03E291DD0FF2900F0B580E7
:1067C00049E1A088E98A88420BD10022EA8232702E
:1067D0004846FFF7E5FDA279A18809F12C00FFF7F3
:1067E000DFFD012000F05DF901208BF81C00E98A33
:1067F000ABF81E1070E0E0780A27012809F19C0828
:1068000009F5E47A9FEDA48B3ED0032804D00A2832
:1068100067D00C2814D01EE109F16800FFF7C0FD15
:10682000B4F80B0047430197B4F809500095B4F849
:106830000700FBF7D5F800F014F900F016F90AE1AB
:1068400009F58470FFF7ACFD207900280CBF0FF22A
:106850005C500FF26450FFF7A3FDE88A03AA0DF124
:106860000D0101F057FD10B10FF25C50E9E009F5A0
:106870009C70FFF795FD9DF80C209DF80D1009F513
:10688000AE70FFF78DFDE6E07078FEF7BFFEB4F85E
:10689000051009F5C070FFF783FD00F0EBF8B4F8C0
:1068A000130047430197B4F811000090B4F80F00AB
:1068B000FBF796F800F0D5F800F0D7F83078042808
:1068C0000CBF0620052030700021B4F805008BF8BD
:1068D0001C10ABF81E00E8820BF11C0002F01FF93F
:1068E000B9E07078FEF792FEB4F8051009F506706D
:1068F000FFF756FD00F0BEF8B4F81F0047430197BC
:10690000B4F81D100091B4F81B00FBF769F800F013
:10691000A8F800F0AAF8307804280CBF062005205B
:106920003070B4F80500E88295E0B4F80300001F69
:1069300000F08A804FF47F71401A18D0401E60D05A
:10694000401E17D0401E26D0801E27D0801E76D035
:10695000401E32D0401E36D0401E31D040F2F631BB
:10696000401A68D040F20E41401A5CD073E009F53D
:106970001A7066E009F52670FFF712FDE88ADFF865
:10698000541301F05EFF010018BF09F5307032D1D9
:1069900009F53D7055E009F5477052E009F5527070
:1069A000FFF7FEFCE88A01F0E0FF18B1014609F5A7
:1069B0005B7020E009F5677043E009F5717040E015
:1069C00009F57C703DE009F58460FFF7E9FCD4F837
:1069D00007100FF21440FFF7E3FCD4F807100FF292
:1069E0002440FFF7DDFCE88A012101F0ECFF28B12B
:1069F000014609F25440FFF7D3FC2CE009F2A44011
:106A00001FE009F2EC40FFF7CBFCE17921B90FF26E
:106A10000C40FFF7C5FC04E0227A09F5A360FFF7FC
:106A2000BFFCA4A00DE009F25450FFF7B9FCE88ABE
:106A300001F024FE0FE001208BF819000BE009F2B1
:106A40007C50FFF7ADFC06E00120FEF7BDFFB078FB
:106A50000A21FEF721FE04B00120BDEC028BBDE847
:106A6000F28F53EC182BFAF7C9BF02460B4640468B
:106A7000FFF796BC607A0290A17A0191E07A0090CB
:106A8000237B627BA17B5046FFF78ABC02F089B86A
:106A9000914800F0C7BB0000000000000000F43F78
:106AA00070472DE9F84787B00446854F012807BF96
:106AB0003E8CB7F822904FF4C8664FF47A69DFF83D
:106AC00008A2DFF818820AF180056878FEF79EFDBB
:106AD000022C10D12878012818BF02280BD101F010
:106AE00009FE010003D04046FFF75AFC03E008F11D
:106AF0004C00FFF755FC0020069005900AF11902A2
:106B0000049208229AF818000FF29C310390029127
:106B10000192002300932C704A463146002001F078
:106B2000FBFD28B1014608F19400FFF739FC03E0B2
:106B300008F1CC00FFF734FC39460E2001F0D2FEFC
:106B400001000AD0012C0CBF08F1F80008F596707E
:106B500008B0BDE8F047FFF723BC012C0AD108F5C7
:106B6000B270FFF71DFC68785D4908B0BDE8F047DA
:106B7000FEF792BD08F5C67008B0BDE8F047FFF714
:106B80000FBC0000F8B500BF0FF2D824B3A5554ED6
:106B90004D4F02E03046FFF703FC4FF0FF31524803
:106BA00000F01EFB0120FEF717FF97F88000052874
:106BB000F3D001F09FFD0021002887F88010E9D173
:106BC0002846FFF7EDFB2046E5E70000464800F0C9
:106BD00029BB00000120FEF7FFBE00007CB5434C3E
:106BE000394D374E01E0FFF7DBFB4FF0FF3106F583
:106BF000377000F0F5FA95F880000128F5D00028EC
:106C0000F3D0707E0128F0D10021307E7176401CD7
:106C1000411801F0FE01401A3076F7EE040AC0B2C6
:106C200006EB8000002390ED090AC0EE200A4FF425
:106C3000FA70FDEEE00A009010EE901A8AB2E88A2F
:106C400089B201F0FFFF00280CBF04F128002046A4
:106C5000C9E7000080B54FF0FF31254800F0C0FAC9
:106C600001F075FAF7E7224800F0DCBA214800F09D
:106C7000D9BA4FF0FF311F4800F0B2BA10B5044640
:106C8000616801F1080002F013F800B101202070E2
:106C900010BD00000A4A10B1012806D070474FF01D
:106CA000FF3102F12C00FFF7D1BA02F12C00FFF7FF
:106CB000FDBA00000A000000ACA30008AC080320E5
:106CC0002C2000208075FF1FCC52012007B201004C
:106CD0006CAA000840E2010008230020C0B20008AE
:106CE00046E00100D4BD0008342200207CBC00082E
:106CF000602100208C2000206D74785F686369003B
:106D000073656D5F6863690073656D5F486369559E
:106D100073657245767450726F63657373536967F8
:106D20006E616C007468726561645F486369557375
:106D3000657245767450726F63657373000000006E
:106D400073656D5F41647643616E63656C50726F0D
:106D5000636573735369676E616C00007468726574
:106D600061645F41647643616E63656C50726F630A
:106D700065737300436F6E6E496E74557064617411
:106D80006552657150726F636573735369676E61A5
:106D90006C000000436F6E6E496E745570646174D0
:106DA0006552657150726F636573730073746174BB
:106DB0007573206F6B200A00737461747573206E95
:106DC0006F6B200A000000003D3D3E3E2068636975
:106DD0005F6C655F726561645F706879203A2066F8
:106DE00061696C0A0D00000020202020202D206EFB
:106DF000756D657269635F76616C7565203D2025F0
:106E00006C640A0020202020202D204865785F76C1
:106E1000616C7565203D20256C780A0020202020BB
:106E2000202D2050616972696E6720537563636518
:106E300073730A002020537563636573733A206887
:106E400063695F726573657420636F6D6D616E64F5
:106E50000A000000503250535256310020200D0AD3
:106E60000D0000002A2A2053544F5020414456451B
:106E700052544953494E47202A2A20200D0A0D001A
:106E80006C7AD8AC57720000123456789ABCDEF097
:106E9000123456789ABCDEF0FEDCBA0987654321CD
:106EA000FEDCBA09876543210950325053525831EC
:106EB00001F0A9BF6D486E49016001F120024260F6
:106EC00001F13003836001F14002026201F14803E5
:106ED000436201F15002C26001F15803036101F104
:106EE0007402426101F1780383618431C16101F070
:106EF000A8BF38B504465F4D284602F019F85B4933
:106F00004868A1680160E2685B49C26041608560D1
:106F100001F0B3FF59482AE080B55448426813682D
:106F200001211972406801F0B0FF002002BD38B5A0
:106F3000524C504D04E000F041F800982168884719
:106F4000284601F0F8FF0028F5D031BD4B494868CC
:106F5000004738B504464A4D284601F0E9FF434949
:106F6000C868A1680160456001F094FF4548216848
:106F7000016062684260002032BD80B53B48C26853
:106F8000136810211972C06801F08FFF002002BD44
:106F900036483C4AC168C36811681868084738B564
:106FA000384C374D04E000F009F8009861688847D4
:106FB000284601F0C0FF0028F5D031BD69462846BB
:106FC00001F0E2BF38B504462F4D284601F0B0FF6E
:106FD0002E4801F0ADFF25480069A1688160E26894
:106FE000C260056121680160626842602169416197
:106FF0006269826131BD80B50146244801F0AEFF6F
:10700000BDE802400FF2090001F05DBF0000000082
:1070100038B5164C1D4D06E0FFF7D0FF00992069EA
:10702000006901F09BFF284601F085FF0028F3D09E
:1070300031BD10B5164C204601F07AFF0B49486966
:107040000460BDE8104001F057BF1CB5104C06E0CD
:107050006946204601F098FF009801F0A7FF2046FE
:1070600001F069FF0028F3D013BD000000000320E9
:10707000B8090320580A03209C0803202456012045
:10708000600A03202C560120480A03201C560120C8
:10709000500A03207FB50C464E4D61684E4E286263
:1070A0006962281D01F084FF2468746006F10800FD
:1070B00001F03EFF012000F069F80120307069689E
:1070C00041B10FF2ED020FF2F1030092019302942D
:1070D000684688477FBD1FB53F4C04F1080001F0AA
:1070E0002AFFF8B92078E8B1694604F1080001F0F8
:1070F0004BFF3848016A49B10098029001228DF88F
:10710000042001A888479DF8040000E001202070B9
:1071100018B10098FFF76FFF04E0009904F1080030
:1071200001F012FF04F1080001F005FF28B92078F2
:1071300018B104F10800FDF794FC1FBD2DE9F041E2
:1071400005460E4690461C46002000F01FF8224FD0
:107150007868A0F80950C672324641460C30FAF7FA
:107160009DF81C4A012010700021526900209047B0
:1071700048F2E800FDF77BFC79688A78D21C04F1BC
:107180000800FAF78BF8BDE8F041012010B511496D
:10719000124C496A20B901B188470021217010BD05
:1071A0000120207011B1BDE81040084710BD00005B
:1071B0000020FDF759BC000010B50146064C04F153
:1071C000080001F0CBFE04F10800BDE81040FDF717
:1071D00048BC000080550120E0550120F9550120F0
:1071E00010B518B102680B4B9A4201D00C2010BDAB
:1071F00061B1094A1268EFF305831A4304D1074CC1
:10720000074B22689A4201D1042010BDBDE810400E
:1072100001F0D8BE414D4553182400206C50012088
:10722000D049012018B10168034A914201D00C20D5
:10723000704701F077BF00BF414D455310F8012B57
:1072400011F8013B0AB19A42F8D0D01A70470000F9
:1072500000680549C0F300425201012300F01F00FD
:1072600003FA00F0885070470808005870477047CC
:10727000704770477047704770477047104700006D
:1072800038B5EFF3108472B6274D6946281D02F019
:10729000F1F86946281D02F048F938B184F31088E6
:1072A000BDF80010214AFEF74CFB31BD01202870CB
:1072B00084F3108831BD80B5FEF741FB02210091B7
:1072C0000023194800F124014FF48052001D01F001
:1072D000B5FF01BD00BFF8B514460025EFF31086D9
:1072E00010F1010F1ED001281CBF02284FF0FF35FE
:1072F00018D1BCB1254672B60B4F012392B2381D8E
:1073000001F0B1FF00281CBF3978002908D0002205
:107310003A7086F31088A1B2044AFEF712FB01E02E
:1073200086F310882846F2BD0810002081720008FC
:107330004018491C1CBFB1F1010100F8012DF9D121
:107340007047000072B61248016841F00101016007
:107350004FF0E0200F49C0F8081D0F480D4909689B
:1073600001604FF0E0200D4941614FF007010161DC
:107370000021C0F8181D0A49C0F81C1D0949C0F8B1
:10738000201D704701B502F01BF9BDE801407047B0
:10739000001000E00000000844560120FF7C0000BF
:1073A000000000FF0000FF4080B502F065F902F028
:1073B0006FF902F08DF9074800210160416081609A
:1073C000C16001614161016241628162C1628161AA
:1073D000C16101BD505501204FF000002A4A1060E4
:1073E000EFF3148020F0040080F3148862B64FF0AD
:1073F00080504FF0E021C1F8040DBFF34F8FBFF371
:107400006F8FFEE72148224A4FF00003016891B1D7
:107410000360EFF3098C2CE9F00F1EF0100F01D17F
:107420002CED108A1B4C4CF804ED2568C1F808C0FF
:107430000DB18D61236072B61168B1B1016062B6A1
:107440004F68144C8D6907F101074F602560D1F832
:1074500008C05CF804EB1EF0100F01D1BCEC108AE0
:10746000BCE8F00F8CF30988704772B611680160B0
:1074700009B962B6F9E74FF000674FF0E028C8F8A5
:10748000047D62B6DCE77047805001206C5001201B
:10749000705001204C4901200A49086888B90A4BFC
:1074A0000A4918680A6890420BD009494FF0805089
:1074B0000860EFF3058020B9EFF3108062B680F327
:1074C00010887047805001206C50012070500120BE
:1074D00004ED00E02DE9FC418846044615461E46B1
:1074E0003421FCF7EDFBB608B600A6F10800A06059
:1074F0000221AA19C4F80480A561E66125616561CD
:10750000E160101F019001990C60019A3849101F29
:1075100001900560281D019A2A60019001600022F7
:107520002262EFF3108772B63249334A2160334941
:10753000086818B914602246234603E01268136BEA
:107540001463DC62E2622363401C0860334600205F
:10755000009042462146082000F064F8284A10684E
:1075600000283FD027490B7859073BD526490B689F
:10757000EFF305811943254B1B6807D1D96AD3F86E
:107580003CC041EA0C4141F0004108E0B1F1F03F5C
:1075900039BF19464FF0FF334FF0F033002103603D
:1075A000416015211A4B816001A9D3F800C0194B25
:1075B000C0F80CC0046145618661C16120301C685F
:1075C0000146A1420AD3144801681160134A1068A9
:1075D00001621349096829B1884703E010600F4828
:1075E0000268116287F310880020BDE8F68100BFB1
:1075F000EEEEFFFF45545942785501207C5501209D
:10760000BC55012048560120182400206C50012050
:10761000041000E0B8550120B4550120A855012000
:107620004C5601202DE9F84F044639481E460368A0
:10763000002B15466AD0374A3748D2F800C0026896
:10764000002A63D00091E2463449DDF800E00F687B
:1076500000204FF03008894608FB07FB191D51F840
:107660000B1009B9BA460120714510D080B913F842
:107670000B10012902D1E24515D1BA467F1C67459E
:1076800028BF0027D9F800108F42E5D100E0BA46A4
:10769000E2453BD22048521E02600AF101006045DB
:1076A00028BF002006E008FB0AF1194449780029A8
:1076B000E4D0E2E7C9F8000008FB0AF00A990344A5
:1076C0000020D96018705C70C3F804E09E6000214F
:1076D00003F1100268181FBF6E5C5654685C0028E6
:1076E00002D0491C1F29F5D303F11005002068546E
:1076F000012C09D10098C16A090A41F080019970F2
:107700000098C16AD97001E09870D870BDE8F18F17
:10771000AC550120505601205456012058560120E6
:10772000FEB50F46054616463421FCF7C9FA6F60D0
:107730002E61EFF3108472B6324A334933482A601F
:1077400008603349334A086818B915602A466D62E3
:1077500007E01268019213465A6A5D6215626A6216
:10776000019A2A62401C08603346002000903A4685
:1077700029460520FFF756FF274A106800283DD00C
:1077800026490B789F0639D525490B68EFF305810B
:107790001943244B1B6806D1D96ADF6B41EA0741C4
:1077A00041F0004108E0B1F1F03F39BF19464FF018
:1077B000FF334FF0F03300210360416032211A4B58
:1077C000816001A91F68194B0561C76000254661EA
:1077D0008161C56120301D680146A9420AD3144861
:1077E00001681160134A106801621349096829B1E0
:1077F000884703E010600F480268116284F3108824
:107800000020FEBD4554554D845001202DB8000880
:107810006C55012068550120BC55012048560120B7
:10782000182400206C500120041000E0B8550120FD
:10783000B4550120A85501204C560120FEB50F4635
:10784000054616462021FCF73BFA6F60AE60EFF369
:10785000108472B631483249324A2860086818B933
:1078600015602A46AD6107E01268019213469A69D5
:107870009D615561AA61019A6A61401C08603346A6
:10788000002000903A4629460420FFF7CBFE264A06
:10789000106800283DD025490B781F0639D52449AA
:1078A0000B68EFF305811943224B1B6806D1D96A97
:1078B000DF6B41EA074141F0004108E0B1F1F03FE0
:1078C00039BF19464FF0FF334FF0F033002103600A
:1078D00041605121184B816001A91F68174B056158
:1078E000C760002546618161C56120301D68014681
:1078F000A9420AD3124801681160124A1068016255
:107900001149096829B1884703E010600D480268F1
:10791000116284F310880020FEBD00BF414D455325
:107920005455012050550120BC55012048560120D6
:10793000182400206C500120041000E0B8550120EC
:10794000B4550120A85501204C5601202DE9F84FCF
:10795000D21C920806460F461D464FF000094FEA1A
:107960008208EFF3108A72B6574B584A1868D2F85B
:1079700000B0040043D05649097849073DD5554920
:10798000D1F800C0EFF3058151EA0C015A4607D146
:10799000D16AD2F83CC041EA0C4141F0004108E014
:1079A000B1F1F03F39BF11464FF0FF324FF0F032E6
:1079B0000021026041601421474A8160D2F800C072
:1079C000464AC0F80CC00661C0F81490C0F8188090
:1079D000C56120301268014691420AD34048414AAD
:1079E00001681960106801623F49096829B1884738
:1079F00003E018603B4802681162D4F80C90C6F8A6
:107A000020B08AF310884146304601F0ABFEEFF318
:107A1000108A72B658B9306A5845F0D10022314602
:107A20003A607DB98AF310881020BDE8F28F386083
:107A300024B1E068814504BF396861618AF3108828
:107A40000020F2E7294A106818B110208AF3108844
:107A5000EBE72748CBF868000BF18406CBF86C10F5
:107A6000CBF87C70CBF87880F06A401CF062886AB2
:107A7000431C8B6230B9C1F824B0CBF870B0CBF89E
:107A800074B009E0486ACBF87000416FCBF874100D
:107A9000C1F870B0C0F874B00920CBF830000121F3
:107AA000CBF83810CBF84C501068401C10608AF3AB
:107AB0001088584601F0D0FE24B1E068814504BF2B
:107AC000396861613068B0E7BC5501206C50012015
:107AD0004856012018240020041000E0B855012069
:107AE000B4550120A85501204C560120805001209A
:107AF00025BA00082DE9F74FDDF830A00D9CDDF820
:107B000038800F9FDDF8409005469B46EF222146C6
:107B10005046FFF70DFCB4212846FCF7D1F8019838
:107B2000A86220200299C5F848B0696405F1880B65
:107B3000C5F80CA06C61C5F82C80CBF80C80C5F89A
:107B40001890C5F81C900AEB0401CBF814004A1EEB
:107B50002A61EF63CBF8107003204F4928636965F1
:107B6000AD6528464D4901F0C5FF0026EFF31087AB
:107B700072B64B484B494C4A2860086818B91560E2
:107B80002A462B4606E01268D2F88C30C2F88C5098
:107B9000C3F88850CBF80020CBF80430401C0860B4
:107BA00000945346019A29460120FFF73BFD3F4AC6
:107BB000DFF8FCB01068002840D03E490B68D905BA
:107BC0003CD5DBF80030EFF3058119433A4B1B68D5
:107BD00007D1D96AD3F83CC041EA0C4141F00041D9
:107BE00008E0B1F1F03F39BF19464FF0FF334FF0D5
:107BF000F0330021036041606421304B8160D3F891
:107C000000C02F4BC0F80CC00561C0F81480C0F84C
:107C100018A0C46120301C680146A1420AD329483B
:107C200001681160284A106801622849096829B171
:107C3000884703E0106024480268116211992448C3
:107C40000268521C0129026017D1DBF80010EFF323
:107C500005800143B1F1F03F06D31E48046824B10A
:107C6000E66BE06AE06300E0002487F310882846B2
:107C700001F062FF6CB1E6630BE087F31088EFF36D
:107C8000108172B60268521E026081F31088FFF7FD
:107C900003FC0020BDE8FE8F51BD00081DBB00089D
:107CA000445248547850012074500120BC550120A2
:107CB00018240020485601206C500120041000E0D8
:107CC000B8550120B4550120A85501204C5601207B
:107CD00080500120705001202DE9F04106460C46ED
:107CE000EFF3108772B6614A614D106800283FD0EB
:107CF00060490B7899063BD55F490B68EFF3058126
:107D000019432B6807D1D96AD3F83CC041EA0C412A
:107D100041F0004108E0B1F1F03F39BF19464FF0A2
:107D2000FF334FF0F0330021036041603421534BA7
:107D30008160D3F800C0C0F80CC006614461F168EE
:107D40004F4B8161B168C16120301B680146994287
:107D50000AD34C48016811604B4A106801624B49D4
:107D6000096829B1884703E010604748026811623A
:107D70002D68B06805F18408F8B90120B060F5609D
:107D8000C5B13069012803D1E86A70612021B16270
:107D9000D8F8200018B1016B0663CE6203E0C8F882
:107DA000206030463146F0623163D8F81C00401C38
:107DB000C8F81C0087F3108806E0F268AA4205D1D3
:107DC000401CB06087F3108800204CE0002C47D0A6
:107DD0002F49086810B187F3108843E02D48A86642
:107DE000EE66D8F82C00401CC8F82C00F06918B9D1
:107DF000B5612D676D6708E0B3692B67D3F874C070
:107E0000C5F874C0CCF870505D67401CF061012368
:107E10000D202863AB63EC640868401C086087F39E
:107E200010883169012915D1E86AB16A884288BF92
:107E30000846B062E96AD2F89C3002F12C009942FF
:107E400088BF194601670068E96A81423CBF104655
:107E500001F084FF284601F0FFFCD8F8000002E0A2
:107E600087F310881D20BDE8F08100BFBC550120BC
:107E70006C5001204856012018240020041000E016
:107E8000B8550120B4550120A85501204C560120B9
:107E900080500120BDB700082DE9FC410546EFF3F5
:107EA000108672B6904A914C106800283DD09049D7
:107EB0000B789F0639D58F490B68EFF3058119437D
:107EC000236806D1D96ADF6B41EA074141F00041DE
:107ED00008E0B1F1F03F39BF19464FF0FF334FF0E2
:107EE000F0330021036041603921834B81601F68BA
:107EF000C7600561E9684161AB688361C0F81CD067
:107F000020307E4B1F680146B9420AD37C48016885
:107F100011607C4A106801627B49096829B1884771
:107F200003E01060774802681162A868002800F03A
:107F3000D580E9682368754F994204D03A6812B930
:107F400086F31088CCE0401EA86002D086F310882B
:107F5000C2E011B986F31088C3E09431C868401EAE
:107F600008BF002207D0EB6A2A6B1A63D3620A6942
:107F7000AA4208BF1A46C8600A61A869002804BF5F
:107F80002869002804D10021E96086F31088A8E060
:107F90004FF00008086800902A69012A1ED138684D
:107FA000401C386086F3108820220B69184648B1BF
:107FB0000469012C03D1846A944298BF2246C06AA6
:107FC0009842F4D1EFF3108672B63868401E3860DC
:107FD0008A600098824288BF02460092E8690128C0
:107FE00010D9286901280DD13968491C396086F3F8
:107FF0001088284601F016FFEFF3108672B6386835
:10800000401E3860AC69DCB93868401C386086F3C3
:1080100010882021E868A962009AC16A91421CBFB9
:10802000114601F09BFEEFF3108072B63968491ECD
:108030003960C5F80C8080F31088FFF72DFA4BE00B
:108040002869012805D1E06AD5F80C8068612021F3
:10805000A96204F18401C86918B90D622A462B4649
:1080600003E00A6A136B1563DD62EA622B63401C4E
:10807000C861EC600120A860E869401E02D10022BE
:10808000AA6104E0226FAA61636F53671A67E8610F
:108090000020A06608603968491C396086F31088A2
:1080A0002869012815D1E86958B1284601F0BAFEBF
:1080B000EFF3108172B6A86908B1C06AA86281F3B3
:1080C0001088D8F82C00009988421CBF404601F067
:1080D00045FE204601F030FD002002E086F31088C6
:1080E0001E20BDE8F68100BFBC5501206C50012068
:1080F0004856012018240020041000E0B855012043
:10810000B4550120A85501204C5601208050012073
:108110007FB50C46654D6168654E28626962281D11
:1081200001F026FF246805F1280000F001FF7460CB
:1081300006F1080000F0FCFE01203070696829B1EA
:108140000FF2351200920294684688477FBD1FB532
:10815000574C04F1080000F0EEFEF8B92078E8B1C1
:10816000694604F1080000F00FFF5048016A49B168
:108170000098029001228DF8042001A888479DF8FC
:10818000040000E00120207018B10098FEF733FFD2
:1081900004E0009904F1080000F0D6FE04F10800A4
:1081A00000F0C9FE28B9207818B104F10800FEF7E4
:1081B0005AFD1FBD2DE9FC410446002000F051F896
:1081C0002088B4F80280394F60F38F28012038707E
:1081D000002537484068A168E268C272A0F80980AB
:1081E000D2B20C30F9F75AF87A6900210020904792
:1081F00048F2E800FEF73DFD13E0B6F80100404507
:108200000CD10099887AC21E6069D2B28242C8BF7E
:10821000024620696261F11CF9F740F8307800B13C
:10822000012507F1280000F086FE90B9694607F1A4
:10823000280000F0A9FE009901F10B06497A0F29E8
:10824000DBD17188414502D121693078087070789E
:10825000E5E72800CCD0012000F003F80020BDE8BD
:10826000F6811249496A08B921B1084700291CBFA3
:10827000012008477047000010B50146487A0F28D2
:1082800018BF0E2807D10B4800F068FEBDE810406B
:108290000020FEF7EBBC064C04F1080000F05EFE87
:1082A00004F10800BDE81040FEF7DDBC20550120B8
:1082B000D05501204855012000B587B000F018F8CE
:1082C0000321ADF80410ADF806100122069200F06B
:1082D00075F800284CBFFF209DF8000007B000BDD6
:1082E00007910492CDF818D0002102A8FFF762BFD1
:1082F00000208DF800001822002101A801F048BEDE
:1083000009220021684601F043BE1822002102A87C
:1083100001F03EBE70B5C8B006460C4615460522B3
:10832000FFF7EFFFADF82060FFF7EFFF3021ADF86A
:108330000A10082002210591ADF80800052108AABD
:10834000FFF7CEFF002848BFFF2009D49DF80000AA
:1083500030B99DF80300207000209DF804102970AA
:1083600048B070BD18B5C7B000F018F8312200F061
:1083700009F800F023F800284CBFFF209DF800000A
:1083800048B010BDADF806200821ADF80410032256
:10839000049207A9039101220692704700248DF8E8
:1083A0001C008DF8004007A841708270002118223F
:1083B00001A801F0EDBD07AA06910392CDF814D0F3
:1083C000002101A8FFF7F6BE18B50C46C7B000F0B3
:1083D0004AF800F05CF807AA03923F200C2100F055
:1083E00039F800F020F800284CBFFF209DF800006D
:1083F00048B010BD00B5C7B000F042F80F2200F041
:1084000007F800284CBFFF209DF8000047B000BDD2
:10841000ADF806203F21ADF804100222049207A90E
:10842000039101220692CDF814D0002101A8FFF794
:10843000C1BE00B5C7B00023ADF81C0000F025F8A0
:108440001822FFF7E5FF00284CBFFF209DF8000031
:1084500047B000BDADF80400ADF806100122A41C21
:10846000069204947047114600228DF800208DF882
:108470001C008DF81D4022460DF11E0001F082BD4A
:1084800000238DF81C008DF81D108DF80030182287
:10849000002101A801F07CBD00B587B000208DF857
:1084A000000000F0E6F840F2011200F015F900F0CB
:1084B00006F900284CBFFF209DF8000007B000BD62
:1084C0002DE9F841C7B00446884616461F460128E4
:1084D00008BF022003D002280CBF102000200DF19D
:1084E0001D031D1800F035F8012C8DF81C4002D03A
:1084F000022C1AD01BE00224224641460DF11D0039
:1085000001F040FD2E706F7000F0B3F800F0ABF892
:108510004FF4817100F017F8E41C0692049400F007
:10852000CEF8002805D5FF2009E01024E4E79720C5
:1085300005E09DF8000010B94E9800F064F8FFE7E0
:1085400048B0BDE8F081ADF80400ADF80610032294
:10855000704703220021684601F01ABD2DE9F64F4D
:108560000C46C7B005469946012C08BF022003D02F
:10857000022C0CBF102000200DF11F031E18FFF766
:10858000E8FF012CADF81C508DF81E4002D0022CE3
:108590002CD02DE00227DDF85881DDF854B1DDF84C
:1085A00050A1539D529C48993A4600F058F8A6F8BD
:1085B0000090B470F57086F804A086F805B086F8CF
:1085C000068000F056F83F204FF4827107AAADF8FC
:1085D0000400ADF8061003920A37032204970692AE
:1085E00000F06DF8002805D5FF2009E01027D2E73C
:1085F000972005E09DF8000010B9579800F003F8A7
:1086000049B0BDE8F08FBDF801100180002070472F
:1086100078B5C7B01D464C9B00F057F800268DF882
:1086200000608DF821502A4619460DF1220001F014
:10863000A9FC00F01EF800F016F84FF4837100F06A
:1086400053F8AD1D00F039F800284CBFFF209DF80D
:10865000000049B060BD0023ADF81C0070470DF16B
:108660001F0001F08FBC07AA03923F2070478DF8CE
:1086700000301822002101A801F08ABC00B5C7B063
:10868000FFF7E9FFFFF7F3FF40F2251200F009F8CA
:1086900000F015F800284CBFFF209DF8000047B0FF
:1086A00000BDADF806203F21ADF80410022204926F
:1086B00007A9039101220692704706920495CDF80E
:1086C00014D0002101A8FFF775BDADF81C00ADF86E
:1086D0001E108DF820207047ADF806203F21ADF820
:1086E0000410012206927047ADF80400ADF80610A0
:1086F0000122704700B587B000F033F900F090F91F
:10870000812200F028F900F099F900284CBFFF20E1
:108710009DF8000007B000BD2DE9F04FC7B09446AA
:10872000DDF840E1519ADDF85481DDF858A1539C01
:10873000ADF81D108DF81C008DF823204FF0000BB4
:10874000ADF81FC08DF821308DF822E000F021F83F
:1087500000F029F826F8098FA6F802A000F060F9C9
:1087600000F04AF98321ADF80400ADF8061000F0DE
:108770000AF800F065F900284CBFFF209DF80000C2
:1087800047B0BDE8F08F4F4401220D3706920497A1
:108790007047D7B252998DF800B009ADD2B209A88E
:1087A000ED1901F0EFBB2C7007AE54995FFA84F914
:1087B000F619E2B2681C4E4401F0E4BB00B5C7B044
:1087C00000F0A4F800F02AF900F0E1F8852200F0AA
:1087D000E5F800F034F900284CBFFF209DF80000B8
:1087E00047B000BD2DE9F841C7B04FF0000800F0D8
:1087F00022F84E9C4F9D509E529F51988DF80080BC
:108800000DF123018DF81F308DF820408DF8215097
:108810008DF8226008608DF8277000F001F986223B
:1088200000F099F80C2200F006F900284CBFFF2058
:108830009DF80000AFE08DF81C0007A84170827021
:10884000704700B5C7B000F069F88DF800300DF141
:108850001E001822016001A8002101F099FB882266
:1088600000F039F800F0E7F800284CBFFF209DF831
:10887000000047B000BDF8B5C8B005460E46174623
:108880001C46072200F046F808A8467087708DF84D
:10889000205000F093F88A21ADF80A103F20032100
:1088A0000591ADF80800072100F07FF8002848BFC7
:1088B000FF200ED49DF8000058B94F994E98BDF88E
:1088C00001202280BDF803300380BDF80500088038
:1088D000002049B0F0BDADF806203F21ADF80410EE
:1088E0000622704718B5C7B000F07BF800F098F882
:1088F00000F082F88E2100F083F800F0A1F8002843
:108900004CBFFF209DF8000048B010BD00238DF83B
:108910001C0070470021684601F03ABB0023ADF807
:108920001C007047ADF806203F21ADF8041002226C
:10893000704700B587B000F014F800F071F892228B
:1089400000F009F800F07AF800284CBFFF209DF8ED
:10895000000007B000BDADF806203F21ADF80410BF
:10896000704700208DF80000704700B5C7B0FFF7D2
:10897000D5FF00F053F89522FFF7D4FF00F05BF825
:1089800000284CBFFF209DF8000047B000BD3F21EC
:10899000ADF80410704748B0BDE8F081ADF806208E
:1089A00007A9039101220492704708AA0791049233
:1089B000CDF818D0002102A8FFF7FCBB1822002137
:1089C00002A801F0E5BA00B5C7B000F022F8A52270
:1089D00000F02BF800284CBFFF209DF8000047B0A6
:1089E00000BD002304468DF800308DF81C4022465F
:1089F0000DF11D0001F0C6BA07AA03923F2070478F
:108A0000ADF80400ADF806100122641C069204942F
:108A100070470023ADF81C008DF81E108DF8003053
:108A20001822002101A801F0B3BAADF806203F21B9
:108A3000ADF804100322049207A9039101220692C3
:108A4000CDF814D0002101A8FFF7B4BB06480021DF
:108A50000171017201F0A6BA03490A7941F82200B6
:108A60000879401C08717047F0550120F8B5074699
:108A70005F4C39785F4E5DA521B1012906D00329ED
:108A80000FD0F1BD01202070304603E0002020709F
:108A900006F13400FDF784FC2846BDE8F240FDF7FE
:108AA0007FBC79680878D0B9487801280AD10020BD
:108AB000FCF78AFF06F16800FDF772FC00F0A0F8F1
:108AC0000120A0707968487848B9FCF785FF06F165
:108AD0009000FDF765FC00F093F80020A070786826
:108AE000017801291AD1407801280AD10020FCF729
:108AF0006BFF06F1B800FDF753FC00F081F8012090
:108B0000A0707968487848B9FCF766FF06F1E00084
:108B1000FDF746FC00F074F80020A070F1BD00786D
:108B2000012808BF00F031B87047000038B504468E
:108B3000DFF8BC5034A188B02023002205F10800E2
:108B4000FDF75AFA00234FF4806207A92046FDF78B
:108B5000A5FA0022012104920591B420079A10235E
:108B60004FF48061069003930293019100920023D9
:108B70000FF235022BA105F12800FDF7C9FA0020FC
:108B8000287000F002F809B030BD80B50020FCF775
:108B900023FF17480121002241708270C1700271C9
:108BA00001BD1548FEF73EBB70B510A4134D104E25
:108BB00009E000F025F82046FDF7F2FBF11C4FF626
:108BC000426001F0DCFA4FF0FF3106F10800FEF7D9
:108BD00007FB3079401E8041C00F3071307800288B
:108BE000E7D105F14000FDF7DBFBECE7200A0D00C3
:108BF000904F0120ACB50008984F012018B900082B
:108C00002846FDF7CDBB000073656D5F53656E644C
:108C10004E6F74696669636174696F6E5369676EDC
:108C2000616C00007468726561645F53656E644EC8
:108C30006F74696669636174696F6E50726F6365A2
:108C4000737300005CB5C7B00026ADF81C0007A820
:108C50004C9C41808280ADF8223004818DF8006008
:108C600000F021F83F21ADF8041040F281120F21ED
:108C70000291ADF806200A21049107AA012106916C
:108C8000039200F008F800284CBFFF209DF8000078
:108C900049B050BD0692CDF814D0002101A8FFF7CD
:108CA00089BA8DF800301822002101A801F070B9AE
:108CB00070B504466078FF2802BFB4F8030000F4E2
:108CC0007F40B0F5406F13D100250D4E00E06D1CC4
:108CD0003279E8B290420BD2E9B256F82110204620
:108CE00088470100F3D003D0022806D0012070BDD0
:108CF0002046BDE87040FDF74DBD002070BD00BFAF
:108D0000F0550120C0680840884201D10120704719
:108D100000207047C0690840884201D10120704797
:108D20000020704710B5794C02212046FFF7F2FF72
:108D300038B16068C043810703D5FEF730F90220DF
:108D400018E001212046FFF7E5FF38B16068C04315
:108D5000C10703D5FEF7EBF801200BE00821204600
:108D6000FFF7D8FF38B16068C043010703D5FEF7AD
:108D70006CF90820A06010BD10B5644C022120469B
:108D8000FFF7C0FF70B96068C04382030AD500F0E6
:108D900035F841F40031616080F31088BDE810407F
:108DA000FEF7F6B808212046FFF7ACFF88B96068E7
:108DB000C04302030DD500F021F841F400216160A9
:108DC00080F310885249086880474FF40022A2605F
:108DD00010BD20212046FFF795FF70B96068C043A1
:108DE00082020AD500F00AF841F40011616080F3B4
:108DF0001088BDE81040FEF7A9B810BDEFF3108051
:108E000072B661687047434881B0016841F48011CF
:108E10000160006800F48010009000983E480168EE
:108E200041F4007101603D48026842F40072026042
:108E300040BF20BF3A48016841F40041016001B0E1
:108E4000704780B53748016841F4801101600068BF
:108E500000F48010009000982C48016841F0010156
:108E60000160026842F4803202602C20FAF7EAFEC8
:108E7000BDE802402D20FAF7E5BEEFF3108072B690
:108E800029490A68520852000BE028494FF4803003
:108E900008607047EFF3108072B623490A6822F029
:108EA00002020A6080F3108870471F484FF40031B7
:108EB0004160EFF3108172B6026822F40032026062
:108EC00081F31088704738B50446104D08212846B4
:108ED000FFF718FF58B10E480460EFF3108072B628
:108EE000696821F40021696080F3108831BDA047D2
:108EF0004FF40020A86031BDEFF3108072B60A492C
:108F00000A6822F00802CCE700000000000C0058BC
:108F10003C5601205001005820080058D408005841
:108F20000C04005850000058040C0058080C00585D
:108F3000006040607047EFF3108172B602688242B1
:108F40000CBF012000201CE0EFF3108272B6036812
:108F50000B60486001600868416024E0EFF3108214
:108F600072B6086043684B604160486801601AE06F
:108F7000EFF3108172B642680368136002684368B9
:108F8000536081F31088704710B5EFF3108472B608
:108F900002680A600168FFE70846FFF7E9FF84F30B
:108FA000108810BD0B6082F3108870477047000076
:108FB0000249034A01600261704700BF536F000815
:108FC0007B6F00082DE9FC4105460C460026EFF3B7
:108FD000108772B6484ADFF824811068002840D014
:108FE00047490B7819063CD546490B68EFF30581D4
:108FF0001943D8F8003007D1D96AD3F83CC041EA08
:109000000C4141F0004108E0B1F1F03F39BF194691
:109010004FF0FF334FF0F0330021036041605321E4
:10902000394B8160D3F800C0C0F80CC005614461C1
:10903000A968364B8161C0F81CD020301B680146FE
:1090400099420AD3324801681160324A10680162BD
:109050003149096829B1884703E010602D4802684A
:109060001162A86820B1401EA86087F3108840E014
:10907000002C3BD02949086810B187F3108837E0ED
:10908000D8F80000264A00908266009AD566009BB8
:10909000D3F8B000401CC3F8B000286930B9009B79
:1090A000EB60009A1267009A526709E0009BEA6839
:1090B0001A67009E536F7367009E1E67009B53677D
:1090C000401C28610620009A10630120009A9063DA
:1090D0000098C4640A68521C0A6087F310880098DC
:1090E00000F0BAFB0098D0F8846002E087F31088A3
:1090F0000D263046BDE8F681BC5501206C5001209C
:109100004856012018240020041000E0B855012022
:10911000B4550120A85501204C5601208050012053
:10912000A1BA00087CB50446EFF3108572B6394A3F
:10913000106800283ED038490B781E063AD53749CA
:109140000B68EFF305811943354B1B6806D1D96ACB
:10915000DE6B41EA064141F0004108E0B1F1F03F29
:1091600039BF19464FF0FF334FF0F0330021036051
:10917000416058212B4B81601E68C6600461A16864
:10918000416123698361C0F81CD02030264B1E68E2
:109190000146B1420AD3254801681160244A10688B
:1091A00001622449096829B1884703E0106020481A
:1091B00002681162206950B9A068E169401CA06092
:1091C00085F31088080023D02046884720E0E16816
:1091D0000091401E02D10021E16005E0096FE160CD
:1091E000009A526F4A67116720610022009840F888
:1091F000682FE669C26110480268521C026085F35C
:109200001088009800F098FC30001CBF2046B04742
:10921000002076BDBC5501204856012018240020AE
:109220006C500120041000E0B8550120B455012015
:10923000A85501204C5601208050012030B5039CD8
:10924000016000250021C16041610561A1078561C0
:1092500042600381047704D5008910B14FF0FF30DC
:1092600030BD002030BD2DE9F84F054684B0288977
:1092700000260C46B046B44600280CBF0227002743
:109280006969A9B190B92869D5F804E0461C76450A
:1092900028BFA6EB0E06D5F800E01EF800001EF869
:1092A000066000EB0626B61CB6B203E0064600E0F8
:1092B00000B102462869D5F80CE0704523BFD5F807
:1092C0000490A9EB0000801B002007EB020E03FBBB
:1092D0000EF9814532BF0020B0FBFEFA0EFB1A00EA
:1092E000C0B2874209DA95F81CE05FEACE7A48BF3F
:1092F00084465FEA8E7048BFBC46100000F0B6801E
:109300006868494461448842C0F0B080C1469246D2
:109310000294ADF80020039357E082073DD52889D9
:10932000002840F0A3802A681A44260A02F8024C5A
:109330002246D5F80080984408F8016CA0462868B9
:109340001844F7F7ABFF6969A86961186961401CA7
:10935000019CA86118E09CB3287FC207DDD528894D
:1093600048B928681844FF2100F8021CFF22296828
:10937000194401F8012C4FF00008686924186C6149
:1093800054462889002340B92A681470200A2968A5
:10939000487002236869801C68613E190020B6B2DB
:1093A00028616CB1C3440298D5F800C000EB0B01F2
:1093B00022460CEB0300F7F771FF686924186C6113
:1093C00009F10109A869401CA861039A6868296924
:1093D000914543D2711881422CBF081A0846286172
:1093E00003462889A8B92968BDF80000C8545B1C49
:1093F0006868834228BF1B1ABDF800002968000A6C
:10940000C8545B1C6868834228BF1B1A6869801CAB
:1094100068616C68BDF80010E41A8C4288BF0C4685
:1094200002980AFB09FB00EB0B01AAEB0400544570
:10943000019003D08FD2287F00288CD12E6822463D
:10944000F018F7F72BFF686920186861A046BDF88F
:109450000060019CBE190023B6B2A2E77A188242CE
:109460002CBF171A7F182868C01900E0002005B02B
:10947000BDE8F08FF0B502460023108900280CBF2C
:109480000225002554690026002C4DD058B9D36818
:1094900057685E1CBE4228BFF61B1768FB5CBE5DAA
:1094A00003EB062600E00646137F03F00303012BBF
:1094B00022D14FF6FF739E4208BF002808D0D36820
:1094C00017699F4218D2B8B15768FB1A834213D26A
:1094D0005668D368A41B1C1954610024D46050B989
:1094E000012E94BFC6F10106012610680378805D45
:1094F00003EB002600E00646D2F80CC0576805EBE7
:109500000C00B84228BFC01B136803445069AC1953
:10951000001B05D0B4446544BD4228BFED1BD56097
:1095200050619069401E906146E0F0B5024600230C
:10953000108900280CBF0225002554690026002C44
:109540003AD0D3681C4658B957685E1CBE4228BF43
:10955000F61B176817F803C0BE5D0CEB062600E08B
:109560000646177F07F00307012F1DD14FF6FF773F
:10957000BE4208BF002807D150680024012894BFCC
:10958000C0F1010001200AE017699F420CD258B1D6
:109590005768FB1A834207D20024064604E013688A
:1095A0001E78185C06EB002650682B1983422CBFEE
:1095B0001D1A2D191068431901B10E801846F0BD0F
:1095C0002149086800F101000860204B1A683AB18F
:1095D000A2F101021A601AB91D4B4FF00100186088
:1095E0001C490868026822B11B4B4FF001021A6047
:1095F00008E000F10400194B1A68904201D1184BA1
:1096000018680860124B1A6812B913490868C0B18B
:1096100001B51149086808B100F0C8FD0C4B1A6883
:109620006AB100F0D3FD0F48016841B90E480168E6
:109630000E4A13680E480F4A994200D00260BDE8F6
:109640000140BFF34F8F70471C4901204C49012056
:10965000204901202C4901203049012028490120BE
:1096600024490120805001206C50012070500120BD
:1096700004ED00E00000001004480021016041609A
:109680008160C16001614161704700BFA855012040
:1096900010B50E4C00202060002104F12000616014
:1096A000016004F12400202201602261802104F184
:1096B0002800FAF705FB0022A260E2600021616148
:1096C000A261E16941F00121E16110BD6C5001200E
:1096D00070B51C4C86B00020206020636060606123
:1096E0002062802104F13400FAF7EAFA04F1340030
:1096F000206104F1B40104F5B470E160606204F12A
:1097000034024FF480610020A260A162C4F82C00F2
:109710000FA50D4EE06A0D4B0390002105910491B9
:1097200002903246A06A616A0190009104F1B4008F
:109730002946FEF7DFF90028ECD1A0610021E161A4
:1097400006B070BD1C490120B5B600084D49544112
:1097500053797374656D2054696D65722054687215
:10976000656164002DE9F0430246EFF3108672B69E
:10977000D0689368851E03EBC503994202D386F334
:10978000108862E0324B5769D3F800E0DFF8C4C0BC
:10979000C2F820E00D46401C002300217C6864458F
:1097A00020D109B9576101213C68E31B083BAB425A
:1097B0002AD2D4F80490D4F800800023E1450DD1DA
:1097C000C7F80080D2F80C80A8F10108C2F80C801C
:1097D000D2F81480A04506D1576104E0474620B175
:1097E000401E00E03F6800B1401E86F31088EFF392
:1097F000108672B6146A744504D0D0685769C2F8EE
:1098000020E0401C0028C9D1EBB1581B14280BD311
:1098100007F10800284439680160C0F804C0D36823
:109820005B1CD36038602B467A609068C31A50691D
:10983000083B9360874204BF3968516186F3108802
:1098400007F1080002E086F310880020BDE8F083ED
:109850006C500120EEEEFFFF2DE9FE4FDFF850B215
:109860000546DBF8000001900026EFF3108772B682
:1098700001998D420BD1E86C00281EBF10F1010F39
:1098800005F14C0000F03AFDE8698A4908604FF0A4
:109890008059DFF82482DFF824A2D8F80000401EA7
:1098A000C8F80000A86B012840F0E880844A1068DE
:1098B000040040D083490B78DE073BD582490B6812
:1098C000EFF305811943DBF8003006D1D96ADE6B6E
:1098D00041EA064141F0004108E0B1F1F03F39BFF3
:1098E00019464FF0FF334FF0F03300210360416021
:1098F0000221764B81601E68C6600561296B744B3E
:109900004161C0F818D0DAF80010C16120301E683B
:109910000146B1420AD36F48016811606E4A10686F
:1099200001626E49096829B1884703E010606A48FE
:1099300002681162E6680021E86A694A694BDFF84B
:10994000A8C1A96300904FF0010E286AA84212D066
:10995000696A4162086200995CF821B0AB4540D168
:109960004CF82100186800283BD000990EFA01F14C
:109970008843186035E0009900204CF821005B49CD
:1099800000980EFA00F06FEA000B08680BEA00007E
:109990000860196811B10BEA01011960E0B92020D3
:1099A00010600021CAF800101CB1E068864208BFB0
:1099B000E16187F31088D8F80000002801BF4C4906
:1099C000C1F80090EFF3058000286ED1EFF310800E
:1099D00062B680F3108868E090FAA0F0B0FA80F0E8
:1099E0001060DAF80000854243D111685CF821501C
:1099F000CAF80050186810B3D8F80010491CC8F80D
:109A0000001087F31088EFF3108772B6D8F80000C3
:109A1000401EC8F800001968126891FAA1F0B0FA67
:109A200080F500955CF82500C56BAA4207D3CAF8FB
:109A3000000000980EFA00F021EA000018602CB136
:109A4000E068864204BFDAF80010E16187F310880D
:109A5000D8F80000002801BF2549C1F80090EFF3B5
:109A60000580002821D1EFF3108062B680F31088C2
:109A70001BE01CB1E1688E4208BFE06187F31088EB
:109A80000199DAF8002091420FD0D8F800000028A0
:109A900001BF1749C1F80090EFF30580002804D1F9
:109AA000EFF3108062B680F31088BDE8F78F00BF37
:109AB0006C5001204C490120805001207050012041
:109AC000BC5501204856012018240020041000E055
:109AD000B8550120B4550120A85501204C5601204D
:109AE0007C50012090500120945001208C50012086
:109AF00004ED00E0026922F00702A2F144020D4BDE
:109B000013604FF0000353609360D360136153619F
:109B10009361D361136253629362D362136353639D
:109B20004FF0FF339363D1634FF08073136482600F
:109B300070470000FDFFFFFF2DE9F84F05460026A6
:109B4000EFF3108772B6696E21B105F14C0000F099
:109B500005FC00E0E964714ADFF8C4811068DFF8B1
:109B6000C491040040D070490B78DE073BD56F49A3
:109B70000B68EFF305811943D9F8003006D1D96A93
:109B8000DE6B41EA064141F0004108E0B1F1F03FEF
:109B900039BF19464FF0FF334FF0F0330021036017
:109BA00041600121624B81601E68C6600561296BBE
:109BB000604B4161C0F818D0D8F80010C161203066
:109BC0001E680146B1420AD35B48016811605B4AD6
:109BD000106801625A49096829B1884703E010609A
:109BE000564802681162E6684FF080535549564A5C
:109BF0000868401E0860A86B0028286B60D1002808
:109C00006DD0686B002866D100202863D5F82CE061
:109C1000DFF838C15CF82E00002848D14CF82E50EF
:109C20002D626D624FF0010ADFF824C1DCF800B04C
:109C30000AFA0EF040EA0B00CCF800004548D0F8D4
:109C400000C0E6454BD2C0F800E0D8F800B0CDF82F
:109C500000B0BBF1000F08BFC8F800503FD0DBF8E0
:109C60003C0086453BD2DBF82CC0604508D03A4822
:109C7000D0F800E00AFA0CFA4AEA0E0AC0F800A08E
:109C80001CB1E068864208BFE561C8F8005087F360
:109C900010880868002802BF1360EFF305800028D1
:109CA00039D1EFF3108062B680F3108833E0D0F83A
:109CB00024C0CCF820504562C5F824C028620EE0CC
:109CC000012818BF02280AD0686B20B94FF0000C99
:109CD000C5F838C002E000206863032028632CB177
:109CE000E068864204BFD8F80050E561D9F800006A
:109CF00087F31088D8F80040A0420CD008680028EC
:109D000002BF1360EFF30580002804D1EFF3108049
:109D100062B680F31088BDE8F18F00BFBC5501200A
:109D2000705001206C50012048560120182400205A
:109D3000041000E0B8550120B4550120A8550120B9
:109D40004C5601208050012004ED00E09450012089
:109D50008C5001207C500120905001202DE9F041D1
:109D600004460D46EFF3108172B6206B48B1D4F86B
:109D70009800E562A84288BF2846E06381F3108816
:109D800045E0244ED4F82C80376823480268921CA2
:109D900002600E20012200232063A263E36481F3AA
:109DA00010882046FFF758FDEFF3108072B6D4F804
:109DB0009810E562A94288BF2946E16380F31088C4
:109DC0002046FFF7B9FEEFF3108172B63268944275
:109DD0001BD0206BC8B9D06AE26A904202D3BC4261
:109DE00013D104E0E36B93420FD2984206D3A84507
:109DF00034600AD2094840F8224006E00848036867
:109E0000012404FA02F21A43026081F31088BDE8CB
:109E1000F08100BF7050012080500120945001203B
:109E200090500120F8B50446EFF3108572B6464A0B
:109E3000106800283ED045490B789E063AD5444923
:109E40000B68EFF305811943424B1B6806D1D96AB1
:109E5000DE6B41EA064141F0004108E0B1F1F03F1C
:109E600039BF19464FF0FF334FF0F0330021036044
:109E700041603821384B81601E68C6600461E16929
:109E8000364B4161C0F818D00021C16120301E68F6
:109E90000146B1420AD3324801681160314A106864
:109EA00001623149096829B1884703E010602D48F3
:109EB00002681162E0690090012802D885F31088D9
:109EC0003FE00228A06908D1016FC06ACA6A8242D5
:109ED00038BFA16185F3108833E00146234B0A6F38
:109EE0001E68761C1E60D36ACE6AB34238BF114624
:109EF00085F31088EFF3108572B6A369984202BF0C
:109F0000009EE769BE4205D0E1690091184601460E
:109F10000A6F00E0126F8242E5D1144A13685B1E9B
:109F20008142136009D00A6F4B6F53671A67426F03
:109F300008674A6711674167A16185F31088FDF7DB
:109F4000ABFA0020F2BD00BFBC55012048560120ED
:109F5000182400206C500120041000E0B8550120A6
:109F6000B4550120A85501204C56012080500120F5
:109F70000249034A01600261704700BFF36E0008A6
:109F8000196F000810B50446F7F788F9204610BD90
:109F900010B5044610460A4601462046FDF7C8F9AA
:109FA000204610BD80B500F0EFF900F0EEF900F0AA
:109FB000EDF900F0ECF900F0EBF900F0EAF900F04F
:109FC000E9F900F0E8F900F0E7F900F0E6F900F04F
:109FD000E5F900F0E4F900F042F800F0E1F900F0F2
:109FE000E0F900F0DFF900F0DEF9BDE8014000F033
:109FF000DBB9000038B5054684B068780024FF2836
:10A0000002BFB5F8030040F60141884224D16449FB
:10A01000B5F807008B88821E9A4209D1687B01241B
:10A02000C20752BF8DF8004000218DF8001010E0EB
:10A030004988401E88420FD15A48FCF7B1F90320E5
:10A040008DF8000005F10D02B5F80B108DF8081021
:10A0500001926846FEF70AFD204605B030BD10B5F6
:10A060008AB051484E4CFEF7F7FC8F218DF818103E
:10A07000E522B3218DF819208DF81A10D5222E2152
:10A080008DF81B208DF81C107F224A218DF81D2091
:10A090008DF81E1098222A218DF81F208DF820108F
:10A0A00048227A218DF821208DF82210CC224021DF
:10A0B0008DF823208DF82410FE2200218DF8252014
:10A0C000ADF8261000940623012206A90220FEF70F
:10A0D000F7F900F034F8412200F025F8A21C00F056
:10A0E00010F8062100F016F800F029F8422200F0DE
:10A0F0001AF8221D00F005F8102100F00BF80AB044
:10A1000010BD05920491029119208DF818000A23C0
:10A11000002270470393019200910223208806AA2F
:10A120000221FEF71BBA8DF823108DF82420FE21A2
:10A1300000228DF82510ADF8262001217047ED2171
:10A1400082228DF819108DF81A20AE21ED228DF89B
:10A150001B108DF81C2021214C228DF81D108DF82C
:10A160001E209D2141228DF81F108DF820204521B1
:10A1700022228DF821108DF822208E2170471CB5E7
:10A18000024692204FF64264A24207D10448009151
:10A190000223818800880022FEF73AFA16BD0000EB
:10A1A0003456012084BD0008F59F0008EFF31080AD
:10A1B00072B604490A68521C0A6080F3108802488B
:10A1C000FFF7BABC80500120D04901202DE9FC41A5
:10A1D0003B4A13680093EFF3108472B600203949AC
:10A1E000394B08600098C0B10146086BA8B9C8692E
:10A1F000364D8861286000980099006A88420CD02A
:10A200000D46E96AEE6BB14207D1314D45F82100A8
:10A210003048016855F821501D602F490868EFF358
:10A2200005852E4F05432E4806683868002843D020
:10A23000DFF8B0C09CF800E05FEACE783CD5D1F8FA
:10A2400000C0EFF3058151EA0C01126807D1D16A11
:10A25000D2F83CC041EA0C4141F0004108E0B1F1C4
:10A26000F03F39BF11464FF0FF324FF0F03200217E
:10A270000260416005211C4A8160D2F800C01B4A7F
:10A28000C0F80CC01968016145618661C0F81CD036
:10A2900020301368014699420AD31548154A0168CF
:10A2A0003960106801621449096829B1884703E0E0
:10A2B000386010480268116284F31088BDE8F381A9
:10A2C0006C50012020490120705001204C49012090
:10A2D000945001207C50012018240020BC550120FE
:10A2E0008050012048560120041000E0B85501209C
:10A2F000B4550120A85501204C56012001680029C1
:10A3000000D1704710B511F1010F1FD08269EAB971
:10A3100021292EBF7C21491E89000D4A13685A1835
:10A320000C4909688A4205D30B4B1C68521A22F06B
:10A3300003022244116819B900614061106004E011
:10A340004B691861486101614361826110BD00BFC2
:10A350002C4901202849012024490120816991B11B
:10A360000269904205D10A6882420AD100230B603B
:10A3700007E0436953611A610B68834204BF91612E
:10A380000A600021816170477047704770477047CD
:10A390007047704770477047704770477047704705
:10A3A000704770477047704770470000000000001A
:10A3B000000000000000000000000000000000009D
:10A3C000440008004005020112299C00F40100002D
:10A3D000FFFFFFFF480101000020D80600037206BE
:10A3E000000000000D00040020204661696C202060
:10A3F000203A20534843495F43325F424C455F490E
:10A400006E697420636F6D6D616E642C207265736C
:10A41000756C743A203078253032780A0D000000CF
:10A420002020537563636573733A20534843495F33
:10A4300043325F424C455F496E697420636F6D6DB6
:10A44000616E640A0D00000020204661696C2020C6
:10A45000203A206163695F68616C5F7365745F7245
:10A460006164696F5F61637469766974795F6D6156
:10A47000736B20636F6D6D616E642C2072657375F4
:10A480006C743A2030782578200A0D00202053750E
:10A4900063636573733A206163695F68616C5F73BE
:10A4A00065745F726164696F5F6163746976697412
:10A4B000795F6D61736B20636F6D6D616E640A0D02
:10A4C000000000003D3D3E3E205374617274204206
:10A4D0006C655F4863695F4761705F476174745F73
:10A4E000496E69742066756E6374696F6E0A000048
:10A4F00020204661696C2020203A206863695F72E1
:10A500006573657420636F6D6D616E642C20726578
:10A5100073756C743A2030782578200A00000000AA
:10A5200020204661696C2020203A206163695F68C1
:10A53000616C5F77726974655F636F6E6669675F90
:10A540006461746120636F6D6D616E64202D2043C2
:10A550004F4E4649475F444154415F5055424C4934
:10A56000435F414444524553535F4F46465345541D
:10A570002C20726573756C743A2030782578200A27
:10A58000000000002020537563636573733A2061F7
:10A5900063695F68616C5F77726974655F636F6E32
:10A5A0006669675F6461746120636F6D6D616E647D
:10A5B000202D20434F4E4649475F444154415F5050
:10A5C00055424C49435F414444524553535F4F46C3
:10A5D000465345540A00000020205075626C6963A0
:10A5E00020426C7565746F6F746820416464726595
:10A5F00073733A20253032783A253032783A253054
:10A6000032783A253032783A253032783A2530326D
:10A61000780A000020204661696C2020203A2061E1
:10A6200063695F68616C5F77726974655F636F6EA1
:10A630006669675F6461746120636F6D6D616E64EC
:10A64000202D20434F4E4649475F444154415F49C6
:10A65000525F4F46465345542C20726573756C7497
:10A660003A2030782578200A000000002020537519
:10A6700063636573733A206163695F68616C5F77D8
:10A68000726974655F636F6E6669675F6461746148
:10A6900020636F6D6D616E64202D20434F4E4649DF
:10A6A000475F444154415F49525F4F4646534554CA
:10A6B0000A00000020204661696C2020203A2061B9
:10A6C00063695F68616C5F77726974655F636F6E01
:10A6D0006669675F6461746120636F6D6D616E644C
:10A6E000202D20434F4E4649475F444154415F452A
:10A6F000525F4F46465345542C20726573756C74F7
:10A700003A2030782578200A000000002020537578
:10A7100063636573733A206163695F68616C5F7737
:10A72000726974655F636F6E6669675F64617461A7
:10A7300020636F6D6D616E64202D20434F4E46493E
:10A74000475F444154415F45525F4F46465345542D
:10A750000A00000020204661696C2020203A206118
:10A7600063695F68616C5F7365745F74785F706F55
:10A770007765725F6C6576656C20636F6D6D616E79
:10A78000642C20726573756C743A203078257820BB
:10A790000A0000002020537563636573733A2061DB
:10A7A00063695F68616C5F7365745F74785F706F15
:10A7B0007765725F6C6576656C20636F6D6D616E39
:10A7C000640A000020204661696C2020203A206144
:10A7D00063695F676174745F696E697420636F6D2C
:10A7E0006D616E642C20726573756C743A203078DC
:10A7F0002578200A000000002020537563636573EC
:10A80000733A206163695F676174745F696E69742C
:10A8100020636F6D6D616E640A0000002020466148
:10A82000696C2020203A206163695F6761705F690D
:10A830006E697420636F6D6D616E642C2072657338
:10A84000756C743A2030782578200A0020205375E2
:10A8500063636573733A206163695F6761705F6901
:10A860006E697420636F6D6D616E640A0000000094
:10A8700020204661696C2020203A206863695F6C63
:10A88000655F7365745F64656661756C745F70683D
:10A890007920636F6D6D616E642C20726573756CC9
:10A8A000743A2030782578200A0000002020537563
:10A8B00063636573733A206863695F6C655F736592
:10A8C000745F64656661756C745F70687920636F2E
:10A8D0006D6D616E640A000020204661696C202065
:10A8E000203A206163695F6761705F7365745F69B7
:10A8F0006F5F6361706162696C69747920636F6D09
:10A900006D616E642C20726573756C743A203078BA
:10A910002578200A000000002020537563636573CA
:10A92000733A206163695F6761705F7365745F6923
:10A930006F5F6361706162696C69747920636F6DC8
:10A940006D616E640A00000020204661696C202061
:10A95000203A206163695F6761705F7365745F614E
:10A96000757468656E7469636174696F6E5F726532
:10A9700071756972656D656E7420636F6D6D616E62
:10A98000642C20726573756C743A203078257820B9
:10A990000A0000002020537563636573733A2061D9
:10A9A00063695F6761705F7365745F617574686523
:10A9B0006E7469636174696F6E5F726571756972D7
:10A9C000656D656E7420636F6D6D616E640A000065
:10A9D00020204661696C2020203A206163695F670E
:10A9E00061705F636F6E6669677572655F776869CE
:10A9F00074656C69737420636F6D6D616E642C2077
:10AA0000726573756C743A2030782578200A0000DE
:10AA10002020537563636573733A206163695F67D0
:10AA200061705F636F6E6669677572655F7768698D
:10AA300074656C69737420636F6D6D616E640A0078
:10AA40003D3D3E3E20456E6420426C655F48636933
:10AA50005F4761705F476174745F496E6974206617
:10AA6000756E6374696F6E0A0D0000003E3E3D3DD9
:10AA7000204843495F444953434F4E4E4543544950
:10AA80004F4E5F434F4D504C4554455F4556545FC4
:10AA9000434F44450A00000020202020202D204361
:10AAA0006F6E6E656374696F6E2048616E646C656D
:10AAB0003A202020307825780A20202020202D20C0
:10AAC000526561736F6E3A20202020307825780A15
:10AAD0000D0000003E3E3D3D204843495F4C455F30
:10AAE000434F4E4E454354494F4E5F555044415499
:10AAF000455F434F4D504C4554455F535542455675
:10AB0000545F434F44450A0020202020202D20433D
:10AB10006F6E6E656374696F6E20496E74657276D0
:10AB2000616C3A202020252E3266206D730A202089
:10AB30002020202D20436F6E6E656374696F6E2038
:10AB40006C6174656E63793A2020202025640A20A8
:10AB5000202020202D205375706572766973696FEF
:10AB60006E2054696D656F75743A202564206D738D
:10AB70000A0D00003D3D3E3E204843495F4C455F85
:10AB80005048595F5550444154455F434F4D504CD8
:10AB90004554455F5355424556545F434F44452005
:10ABA0002D2000003D3D3E3E206863695F6C655F7F
:10ABB000726561645F706879202D205375636365E9
:10ABC0007373200A000000003D3D3E3E205048596E
:10ABD00020506172616D202054583D2025642C2046
:10ABE00052583D202564200A0D0000003E3E3D3DA8
:10ABF000204843495F4C455F434F4E4E45435449BF
:10AC00004F4E5F434F4D504C4554455F5355424561
:10AC100056545F434F4445202D20436F6E6E65634D
:10AC200074696F6E2068616E646C653A20307825B7
:10AC3000780A000020202020202D20436F6E6E65B2
:10AC40006374696F6E2065737461626C69736865A3
:10AC50006420776974682043656E7472616C3A2071
:10AC6000403A253032783A253032783A25303278F9
:10AC70003A253032783A253032783A253032780A1F
:10AC8000000000003E3E3D3D204843495F4C455F8B
:10AC9000454E48414E4345445F434F4E4E45435415
:10ACA000494F4E5F434F4D504C4554455F535542BD
:10ACB0004556545F434F4445202D20436F6E6E65CB
:10ACC0006374696F6E2068616E646C653A203078D9
:10ACD00025780A003E3E3D3D204143495F474150B3
:10ACE0005F4C494D495445445F444953434F564591
:10ACF0005241424C455F56534556545F434F44457D
:10AD0000200A00003E3E3D3D204143495F474150FF
:10AD10005F504153535F4B45595F5245515F565306
:10AD20004556545F434F4445200A00003D3D3E3E9A
:10AD3000206163695F6761705F706173735F6B65EA
:10AD4000795F72657370203A204661696C2C2072BD
:10AD50006561736F6E3A20307825780A0000000034
:10AD60003D3D3E3E206163695F6761705F70617366
:10AD7000735F6B65795F72657370203A20537563FA
:10AD800063657373200A00003E3E3D3D2041434908
:10AD90005F4741505F415554484F52495A415449C9
:10ADA0004F4E5F5245515F56534556545F434F4493
:10ADB000450A00003D3D3E3E204143495F4741502A
:10ADC0005F424F4E445F4C4F53545F565345565469
:10ADD0005F434F4445200A003D3D3E3E206163698C
:10ADE0005F6761705F616C6C6F775F7265626F6ED9
:10ADF00064203A204661696C2C20726561736F6E25
:10AE00003A20307825780A003D3D3E3E2061636956
:10AE10005F6761705F616C6C6F775F7265626F6EA8
:10AE200064203A2053756363657373200A00000041
:10AE30003E3E3D3D204143495F4741505F414444D0
:10AE4000525F4E4F545F5245534F4C5645445F56E8
:10AE5000534556545F434F4445200A003E3E3D3D16
:10AE6000204143495F4741505F4B4559505245533C
:10AE7000535F4E4F54494649434154494F4E5F56E4
:10AE8000534556545F434F44450A00003E3E3D3D06
:10AE9000204143495F4741505F4E554D455249431C
:10AEA0005F434F4D50415249534F4E5F56414C55B1
:10AEB000455F56534556545F434F44450A000000D2
:10AEC0003D3D3E3E206163695F6761705F6E756DF9
:10AED000657269635F636F6D70617269736F6E5FD6
:10AEE00076616C75655F636F6E6669726D5F7965BB
:10AEF000736E6F2D2D3E594553203A204661696C83
:10AF00002C20726561736F6E3A20307825780A00C4
:10AF10003D3D3E3E206163695F6761705F6E756DA8
:10AF2000657269635F636F6D70617269736F6E5F85
:10AF300076616C75655F636F6E6669726D5F79656A
:10AF4000736E6F2D2D3E594553203A205375636320
:10AF5000657373200A0000003E3E3D3D2041434999
:10AF60005F4741505F50414952494E475F434F4D03
:10AF7000504C4554455F56534556545F434F4445E6
:10AF80000A00000020202020202D205061697269D5
:10AF90006E67204B4F200A20202020202D20537444
:10AFA000617475733A20307825780A20202020209B
:10AFB0002D20526561736F6E3A20307825780A0033
:10AFC0003E3E3D3D204143495F474154545F494E19
:10AFD0004449434154494F4E5F56534556545F438D
:10AFE0004F4445200D0000003E3E3D3D2041434979
:10AFF0005F4741505F50524F435F434F4D504C4568
:10B0000054455F56534556545F434F4445200D0009
:10B01000576972656C657373204669726D776172EA
:10B02000652076657273696F6E2025642E25642E07
:10B0300025640A003E3E3D3D20534843495F535539
:10B04000425F4556545F4552524F525F4E4F5449EE
:10B0500046200A0D000000003E3E3D3D205348437F
:10B06000495F5355425F4556545F424C455F4E56CB
:10B070004D5F52414D5F555044415445202D2D2088
:10B08000424C45204E564D2052414D2048415320C0
:10B090004245454E20555044415445442042592094
:10B0A00043505532200A000020202020202D20531C
:10B0B0007461727441646472657373203D20256C01
:10B0C00078202C2053697A65203D20256C640A0085
:10B0D0003D3D3E3E20534843495F5355425F4556F0
:10B0E000545F4E564D5F53544152545F575249542A
:10B0F00045203A204E756D6265724F66576F7264D7
:10B1000073203D20256C640A000000003E3E3D3D5A
:10B1100020534843495F5355425F4556545F4E564E
:10B120004D5F454E445F57524954450A0D0000009B
:10B130003D3D3E3E534843495F5355425F4556545B
:10B140005F4E564D5F53544152545F4552415345F3
:10B15000203A204E756D6265724F66536563746F59
:10B160007273203D20256C640A0000003E3E3D3D88
:10B1700020534843495F5355425F4556545F4E56EE
:10B180004D5F454E445F45524153450A0D00000056
:10B190003E3E3D3D20534843495F5355425F45562F
:10B1A000545F4552524F525F4E4F544946205749C3
:10B1B000544820524541534F4E202578200A0D0017
:10B1C0003E3E3D3D20534843495F5355425F4556FF
:10B1D000545F4552524F525F4E4F54494620574993
:10B1E000544820524541534F4E202D204552525F26
:10B1F000424C455F494E4954200A00003E3E3D3DC9
:10B2000020534843495F5355425F4556545F45526A
:10B21000524F525F4E4F544946205749544820528E
:10B220004541534F4E202D20424C45204552524F10
:10B2300052200A003E3E3D3D204442474D43555F6B
:10B240004765745265766973696F6E49443D202580
:10B250006C78200A0D0000003E3E3D3D20534843DF
:10B26000495F5355425F4556545F434F44455F52D3
:10B2700045414459202D204655535F46575F52554E
:10B280004E4E494E47200A0D000000003E3E3D3D17
:10B2900020534843495F5355425F4556545F434FDF
:10B2A00044455F5245414459202D20554E45585044
:10B2B00045435445442043415345200A0D000000B6
:10B2C0003D3D3E3E206163695F6761705F736574F9
:10B2D0005F6E6F6E5F646973636F76657261626CD7
:10B2E00065202D2053746F702041647665727469F7
:10B2F00073696E67204661696C6564202C207265F5
:10B3000073756C743A202564200A00003D3D3E3E72
:10B31000206163695F6761705F7365745F6E6F6EF4
:10B320005F646973636F76657261626C65202D205E
:10B330005375636365737366756C6C792053746FB2
:10B3400070706564204164766572746973696E67B4
:10B35000200A00003D3D3E3E206163695F676170E9
:10B360005F7365745F646973636F76657261626C45
:10B3700065202D206661696C2C20726573756C7474
:10B380003A2030782578200A000000003D3D3E3EFE
:10B39000206163695F6761705F7365745F6469737F
:10B3A000636F76657261626C65202D2053756363EF
:10B3B0006573730A000000003D3D3E3E20537461FA
:10B3C0007274204661737420416476657274697387
:10B3D000696E67204661696C6564202C2072657314
:10B3E000756C743A202564200A0D00003D3D3E3EF8
:10B3F000205374617274204C6F7720506F776572A0
:10B40000204164766572746973696E67204661696C
:10B410006C6564202C20726573756C743A20256409
:10B42000200A0D003D3D3E3E2053756363657373F6
:10B430003A205374617274204661737420416476BB
:10B440006572746973696E67200A0D003D3D3E3E6A
:10B4500020537563636573733A205374617274206B
:10B460004C6F7720506F77657220416476657274F7
:10B470006973696E67200A0D000000000000004833
:10B48000010000000000004801000000000000482A
:10B49000010000000000004801000000000000481A
:10B4A000010000000000004801000000000000480A
:10B4B00001000000000000480100000000000048FA
:10B4C00001000000000000480100000000000048EA
:10B4D00001000000000000480100000000000048DA
:10B4E00001000000000000480100000000000048CA
:10B4F00001000000000000480100000000000048BA
:10B5000001000000000000480100000000000048A9
:10B510000100000000000048010000000000004899
:10B520000100000000000048010000000000004889
:10B530000100000000000048010000000000004879
:10B540000100000000000048010000000000004869
:10B550000100000000000048010000000000004859
:10B560000100000000000048010000000000004849
:10B570000100000000000048010000000000004839
:10B580000100000000000048010000000000004829
:10B590000100000000000048010000000000004819
:10B5A0000100000000000048010000002D2D205087
:10B5B0003250204150504C49434154494F4E205342
:10B5C0004552564552203A204E4F54494649434130
:10B5D00054494F4E20454E41424C45440A0000001C
:10B5E0002D2D20503250204150504C494341544958
:10B5F0004F4E20534552564552203A204E4F544903
:10B600004649434154494F4E2044495341424C45D9
:10B61000440A00002D2D20503250204150504C49FA
:10B62000434154494F4E2053455256455220203AEB
:10B63000204C454431204F4E0A0000002D2D205053
:10B640003250204150504C49434154494F4E2053B1
:10B65000455256455220203A204C454431204F4611
:10B66000460A00002D2D20503250204150504C49A8
:10B67000434154494F4E20534552564552203120A4
:10B680003A204C454431204F4E0A00002D2D2050C9
:10B690003250204150504C49434154494F4E205361
:10B6A00045525645522031203A204C454431204FD6
:10B6B00046460A002DE9FC410024384988420ED054
:10B6C000BDE8F3813648032202630125354A8563CC
:10B6D00013685B1C136081F31088FEF7BDF8EFF36D
:10B6E000108172B6304A1068036800930BB1C3F83A
:10B6F00018D010682D4D002340F8043B2E68B0424E
:10B7000004BF2B4800682B4D10602B6081F310881C
:10B71000EFF3108172B6284E23E0002307E078682B
:10B72000BA68FC680028F8D03F6101AB0197386027
:10B73000BB61376081F3108810001CBF2046904722
:10B74000EFF3108872B6002101983160B84203D13E
:10B75000B9613846FEF7D2FD88F31088EFF3108107
:10B7600072B6009898B1074600690022019287429C
:10B7700008BF009205D07A6942611061C0F818D004
:10B78000009038682128CAD320380022CCE72868E6
:10B79000002897D081F31088A1E700BF4D4954419C
:10B7A000D0490120805001202C4901202849012046
:10B7B00024490120304901203C49012070B502464E
:10B7C000EFF3108372B6906E284CA04202BF02F1D4
:10B7D0008404E06A814226D1D16E21B30868244DE9
:10B7E000A84220D1C869F0B10025401E956607D057
:10B7F000166F556F75672E678D69954208BF354680
:10B80000C8618D61106B0D280DD11D211948216073
:10B810000468641C046083F310881046FEF78CF9FA
:10B82000EFF3108372B683F3108870BD10B5044631
:10B83000EFF3108172B60F480268521C0260D4F810
:10B84000A40060B10122826081F31088FCF724FB20
:10B85000EFF3108172B6D4F8A4000028EFD10548A8
:10B860000268521E026081F3108810BDBDB7000847
:10B870004554554D805001202DE9FC4D016800F1E3
:10B880000805490805EBC102019200F10803406870
:10B8900000F0010803EBC106400806EBC0000021E0
:10B8A000002205E0009B9F4218BF17F9014B0BD106
:10B8B000019B9D4206D02C686B682F19FB180093E2
:10B8C0000835EFE7BDE8F68D009B9F4205D12B6858
:10B8D000EF186B68FB180093083517F801AB91421D
:10B8E0000FD183465E4508BFF6F7E5F931685FEA98
:10B8F000080018BF494470680A1808369142F1D010
:10B900005846002C01F801AB02D5641CE7D1C9E709
:10B91000641ED9D5C6E700002D2D2050325020419D
:10B9200050504C49434154494F4E2053455256457F
:10B930005220203A20494E464F524D20434C494513
:10B940004E5420425554544F4E20312050555348A8
:10B950004544200A200000002D2D20503250204167
:10B9600050504C49434154494F4E2053455256453F
:10B9700052203A2043414E275420494E464F524DC3
:10B9800020434C49454E54202D20204E4F544946CB
:10B9900049434154494F4E2044495341424C454448
:10B9A0000A20000001000000030000000500000064
:10B9B0000100000001000000060000000A00000075
:10B9C0002000000002000000040000000800000049
:10B9D0001000000040000000800000000001000096
:10B9E00000020000A0860100400D0300801A06003E
:10B9F00000350C0040420F0080841E0000093D000D
:10BA000000127A000024F40000366E010048E801BC
:10BA1000006CDC02000000000000000000000000DC
:10BA20000000000070B50246EFF3108372B6906E0E
:10BA3000184CA04202BF02F18404E06A814226D180
:10BA4000D16E21B30868144DA84220D1886AF0B1A4
:10BA50000025401E956607D0166F556F75672E67D7
:10BA60004D6A954208BF354688624D62106B0928C1
:10BA70000DD11021094821600468641C046083F31F
:10BA800010881046FEF758F8EFF3108372B683F370
:10BA9000108870BD25BA00084554594280500120D5
:10BAA00070B50246EFF3108372B6906E184CA04248
:10BAB00002BF02F18404E06A814226D1D16E21B333
:10BAC0000868144DA84220D10869F0B10025401E35
:10BAD000956607D0166F556F75672E67CD689542CE
:10BAE00008BF35460861CD60106B06280DD10D21C9
:10BAF000094821600468641C046083F310881046C0
:10BB0000FEF71AF8EFF3108372B683F3108870BD56
:10BB1000A1BA0008414D45538050012010B51B4883
:10BB20000468EFF3108072B6D4F8AC2080F310886C
:10BB3000130002D0002120469047A06C616C88471A
:10BB40001348016809B120468847EFF3108072B6A8
:10BB500001212163A1630021E164D4F8AC200D49E7
:10BB60000B685B1C0B6080F31088EFF3148020F0EF
:10BB7000040080F31488100002D001212046904771
:10BB80002046BDE81040FDF767BE00BF6C500120A5
:10BB900084500120805001201349002008604FF09C
:10BBA000B0411248026842F4700202604FF4E02390
:10BBB000086840F0010008608B600A680C48024089
:10BBC0000C480A60036823F00503036042685208CA
:10BBD0005200426000220848C8600861086820F4EA
:10BBE000802008608A61704708ED00E088ED00E081
:10BBF000FBFEF6FA94000058001004227047FEE79E
:10BC0000FEE7FEE7FEE770477047F9F701BC0A4818
:10BC1000F7F75CBA0948F9F72BBA0948F6F717B9EC
:10BC20000848F6F714B9FDF77DB8FDF7A5B800F0A0
:10BC300017B80548F7F74ABAC4530120D454012075
:10BC4000A851012014510120245401201020F8F79C
:10BC50008FBB0120F8F78CBB0220F8F789BB0000EE
:10BC60000449C8680A6882430A60486000F004B862
:10BC7000000000000015005870470000424C455F6E
:10BC80005356435F4C324341505F436F6E6E5F5576
:10BC9000706461746528292C204661696C65642094
:10BCA0000D0A0D00424C455F5356435F4C324341F1
:10BCB000505F436F6E6E5F55706461746528292C08
:10BCC000205375636365737366756C6C79200D0A18
:10BCD0000D00000080B50D4A7A4430320C4B7B4495
:10BCE0002E339A4203D00B49AFF3008002BD8DF88A
:10BCF0000000012269460120FBF7ECFA012802D17D
:10BD00009DF8000002BD4FF0FF3002BDF442FFF786
:10BD1000F042FFF77023002030B4002512E050F805
:10BD2000042BD30744BF4A44521E091F042942F87A
:10BD3000045BFAD213468C0744BF15809B1CC907CD
:10BD400048BF1D7050F8041B0029E8D130BC704773
:10BD5000EFF3108372B6016B042907D108490A6812
:10BD6000521C0A6083F31088FDF7E6BE826ED0F89D
:10BD7000B01083F31088130018BF1047704700BF3E
:10BD8000805001202D2D2047415454203A204C450D
:10BD90004420434F4E46494755524154494F4E2047
:10BDA00052454345495645440A00000010B507492D
:10BDB00079441831064C7C44163404E00A68081DA6
:10BDC000114488470146A142F8D110BD740000001B
:10BDD000C00000002A2A2053544F502041445645A9
:10BDE00052544953494E47202A2A20204661696C03
:10BDF0006564200D0A0D000073656D6170686F72D7
:10BE0000655F736863695F746C5F6E6F7469667990
:10BE10005F6173796E635F65767400004EF68851DA
:10BE2000CEF20001086840F470000860BFF34F8F45
:10BE3000BFF36F8F4FF00170E1EE100A7047000002
:10BE4000D9FEFFFF443201001C24002070080000CE
:10BE50003C0003200000000021FAFFFF0200000068
:10BE600002000000900100000200000028000320F2
:10BE70001400000005FAFFFF0200000002000000AD
:10BE800076010000FB0000000810002014140000E0
:10BE900000000000000000000000000000000000A2
:10BEA0000100000002000000030000000400000088
:10BEB00000F00DF8002801D0FFF778FFAFF3008005
:10BEC0000020AFF30080F8F79EF800F002F80120A0
:10BED000704700F001B8000007463846F5F7F0FE5D
:10BEE000FBE700000548014603B4684680F3098873
:10BEF000AFF30080FFF792FFFFF7DAFFA5EDF5FE45
:10BF000038B504460D462846FFF7E4FEA84218BFA0
:10BF10000024204632BD0000014880470148004708
:10BF200099BB0008E5BE0008FFF7FEBFFFF7FEBFA4
:10BF3000FFF7FEBFFFF7FEBFFFF7FEBFFFF7FEBF35
:10BF4000FFF7FEBFFFF7FEBFFFF7FEBFFFF7FEBF25
:10BF5000FFF7FEBFFFF7FEBFFFF7FEBFFFF7FEBF15
:10BF6000FFF7FEBFFFF7FEBFFFF7FEBFFFF7FEBF05
:10BF7000FFF7FEBFFFF7FEBFFFF7FEBFFFF7FEBFF5
:10BF8000FFF7FEBFFFF7FEBFFFF7FEBFFFF7FEBFE5
:10BF9000FFF7FEBFFFF7FEBFFFF7FEBFFFF7FEBFD5
:10BFA000FFF7FEBFFFF7FEBFFFF7FEBFFFF7FEBFC5
:10BFB000FFF7FEBFFFF7FEBFFFF7FEBFFFF7FEBFB5
:10BFC000FFF7FEBFFFF7FEBFFFF7FEBFFFF7FEBFA5
:10BFD000FFF7FEBFFFF7FEBFFFF7FEBFFFF7FEBF95
:10BFE000FFF7FEBFFFF7FEBFFFF7FEBFFFF7FEBF85
:10BFF000FFF7FEBFEC00000181008100810081009D
:10C000008100810081008100810081008100810028
:10C010008100810081008100810081008100810018
:10C020008100810081008100810081008100810008
:10C030008100810081008100BD00030DFF0183DECE
:10C040000005484200007A4481008100810081009F
:10C050008100AB00044212000801FD0003B8230078
:10C0600020D800032D110008FC00041B110008015A
:10C07000F900130204010184540120D454012084E6
:10C0800054012084540120FC000384540120FC004E
:10C0900007B4230020A0230020E0001B2215000885
:10C0A0002215000822150008221500082215000894
:10C0B0002215000822150008F8FF0BCA11000822FB
:10C0C00015000822150008FAFF02000001F900001F
:10C0D00010FC001A04004800040048000400480056
:10C0E000080048000C0048000C004800093D00FC16
:10C0F000F000000000000000000000000000000050
:10C10000000000000000000000000000000000002F
:03C110000000002C
:040000050800BEE54C
:00000001FF
