:020000040800F2
:100000000810002055920008858F0008878F00088F
:10001000898F00088B8F00088D8F0008000000007A
:100020000000000000000000000000008F8F0008AA
:10003000918F000800000000938F0008958F000842
:1000400065920008699200086D920008998F000877
:100050007192000875920008D78F0008DD8F0008A4
:10006000799200087D920008D18F000881920008E3
:1000700085920008899200089D8F00088D920008E3
:100080009192000895920008999200089D920008AC
:10009000A1920008A5920008A9920008AD9200085C
:1000A000B1920008B5920008B9920008BD9200080C
:1000B000C1920008C5920008C9920008CD920008BC
:1000C000D1920008D5920008D9920008DD9200086C
:1000D000A38F0008A98F0008E1920008E5920008AC
:1000E000E9920008ED920008F1920008F5920008EC
:1000F000AF8F0008B38F0008B78F0008F99200088F
:10010000FD92000801930008059300080993000878
:100110000D93000811930008159300081993000827
:100120001D93000821930008BB8F00082593000849
:10013000299300082D9300083193000840F0200017
:1001400070472DE9F14FB2B09A4601A891460023BD
:100150000691C0E900333C9A0F930DF14A011491C6
:100160004A7009E0329823464A4604A900F0B4FFD9
:10017000002800F12181A14499F80010252909D116
:1001800000200021002209900A910B920C910D92FF
:100190000E910FE001AA4FF0FF31484601F000F840
:1001A000040002D10F9800F0F9BDDBD50124E2E78D
:1001B00041F0010119F8010F2028F9D023280CD0B3
:1001C0002B2804D02D2805D0302809D00BE041F091
:1001D0000201EFE741F00401ECE741F00801E9E733
:1001E00041F01001E6E72A280FD1DAF8002052F892
:1001F000040BCAF800200028119003D5404211904A
:1002000041F0040109F1010914E01192DFF8102B0B
:100210000AE0119B934205DA03EB830400EB4400F0
:100220003038119009F1010999F80000A0F130036C
:100230000A2BEED399F800202E2A03D04FF0FF307E
:10024000109029E019F8010F2A2809D1DAF80020C6
:1002500052F8040BCAF80020109009F101091BE0C4
:100260002D280CBF09F10109002000221092DFF8AF
:10027000B02A0BE040B9109C944205DA04EB8405E7
:1002800003EB4503303B109309F1010999F8003065
:10029000A3F130040A2CEDD3ADF848100FF68420FA
:1002A00099F8001000F086FF08B119F8010B8DF8DD
:1002B0004A009DF84A00682805D199F8001068297D
:1002C0000CD1622006E06C2804BF99F800106C295C
:1002D00004D171208DF84A0009F1010922AA08927F
:1002E00019F801BBBBF125002DD01C3800F0278187
:1002F000001F022840F223810E382AD0401F00F050
:100300004784093800F01B81801E00F0DA84401E0B
:1003100000F08984401E022840F21181001F00F085
:100320008284401F00F08080401E00F03184401E17
:1003300066D0C01E21D0801E00F02A84C01E00F0AE
:10034000278400F0DDBC0122252109928DF8881058
:100350002AE06C228DF84A20DAF8000050F8042BCD
:10036000CAF80000002A44D11499487800283ED0E9
:100370004FF0FF340FF6B41012E09DF84A006C28DD
:10038000EAD0DAF8000050F8044BCAF800000794ED
:10039000D4B91499487898B14FF0FF340FF6A810EB
:1003A00000F014FF241A07D1329822AA04A900F001
:1003B000F8FC00287FF5E0AE4FF0FF3000F0EEBC17
:1003C0000FF6A0100790EFE7109D002D04D52046F2
:1003D00000F01CFF044608E02A460021204600F0F9
:1003E00031FF002814BF041B2C460A94DCE70FF6EB
:1003F0007812329804A900F05AFD0028D4D5DBE722
:10040000DAF8001051F8040BCAF8001020F00002CE
:10041000002121F0FF33CDE9042322AC0794782199
:1004200004A800F0A4FDBFE71499487820B14FF06C
:10043000FF340FF63810B3E79DF84A00622862D007
:10044000682819D06A2840D06C2806D071284DD071
:1004500074282DD07A281ED064E0DAF8001051F804
:10046000040BCAF8001020B94FF0FF340FF6141037
:1004700096E70F99016097E7DAF8001051F8040B3E
:10048000CAF8001020B94FF0FF340FF6F80087E7E4
:100490000F99018088E7DAF8001051F8040BCAF8C8
:1004A00000100028E5D14FF0FF340FF6D80077E7B1
:1004B000DAF8001051F8040BCAF800100028D8D15F
:1004C0004FF0FF340FF6BC006AE7DAF8001051F87D
:1004D000040BCAF8001020B94FF0FF340FF6A40047
:1004E0005EE70F9AD317C0E900235DE7DAF8001042
:1004F00051F8040BCAF800100028F2D14FF0FF3475
:100500000FF680004CE7DAF8001051F8040BCAF837
:10051000001020B94FF0FF340FF6680040E70F9944
:10052000017041E7DAF8001051F8040BCAF8001026
:1005300000289ED14FF0FF340FF6480030E7DAF87C
:100540000000C21D9DF84A0022F007024C28CAF89C
:100550000020D2E9000107BF0832CAF8002002F1EA
:100560000803CAF80030CDE90401C80F02D0099889
:100570002D210AE0BDF84800810702D509982B21FA
:1005800003E0C00705D50998202122AA1154401C78
:10059000099022A809994BF0200300EB010CDDE93A
:1005A0000401CDE92001612BCDF81CC015AC0BD0A6
:1005B0001098002848BF062105D404BF4BF0200046
:1005C000672801D101211091DDE904014F0047EABC
:1005D000D0777E15FF174FF0FF32974208BF964243
:1005E00014D1090341EA10510003002908BF002873
:1005F0000CD0ABF1610503211A2D0A9118D30FF627
:100600000C310322604600F049FECDE6DDE904012D
:100610004A00521512F1010F0DD108030BD1ABF1B5
:10062000610503211A2D0A911BD30FF6E821E8E793
:100630000FF6D421E5E7DDE904016A4600F03AFE51
:10064000CDE904014BF02000612811D10798302238
:100650000270811C0791BBF1610F0CBF78215821FA
:1006600002E00FF6AC21CCE741700998801C09909C
:10067000DDE9040120F0000231F0004308BF002A48
:1006800002D10026002546E14BF02008B8F1610FA9
:1006900040F092801099002947BF21200390491C07
:1006A0000391039FDDE920017F1C00220023DDE987
:1006B000044500F037FE38BF85F0004500988DF8FE
:1006C0005420001F002F00900DF1550632DD20460A
:1006D00029460022002300F03FFE2BD21C2200F00E
:1006E00055FE04460D4600F0EFFEFF1F002F80462A
:1006F00009DD00F005FF02460B462046294600F0C2
:10070000C7FF04460D46F01D0721B8F1000F0CDDB0
:10071000491E5EBF08F00F0200F8012D4FEA2818AD
:10072000F3D502E0002200F8012D491EFAD5C61DBE
:10073000002FCCDC0DF15500361A03980DF155044D
:100740008642D8BF304600282FD4B04206DA0DF1D9
:1007500055010A5C082AA8BF0F2100DA00210246D1
:1007600015AB134400E0401E13F80159521E8D4290
:10077000F9D00F2904D10DF155018B5C5B1C8B5412
:10078000002A04D50099091D15AC401C0091411E9A
:100790000BD4621813783033DDB23A2DA4BF5B441A
:1007A0003A3B491E02F80139F4D5109A002A40F16B
:1007B000B080411E1091ACE00099DFF80C2947F29F
:1007C0009750414391FBF2F20092DDE92045C2F1DE
:1007D0000702002A25F0004504DD2046294600F0E6
:1007E00050FC0BE052420020DFF8E01800F049FC1A
:1007F00002460B462046294600F0BCFF04460D4643
:10080000B8F1660F06BF009F0A37062710983F18F9
:10081000142FC8BF142730208DF854000020DFF8B3
:10082000B018CDE920010DF15506002F33DD20462B
:10083000294601F0C3F801460A4606F108030420E0
:100840000A26B2FBF6F606EB860EA2EB4E0230321B
:1008500003F8012C0A22B6FBF2F202EB820EA6EBA1
:100860004E063036401E03F8026DE9D1083F002FD6
:1008700003F10806D9DD084601F0B2F802460B463E
:100880002046294600F004FFDDE9202301F0B6F8F8
:1008900004460D46CBE70DF15500361A0DF155040F
:1008A00004E00098401E761E0090641C20783028DA
:1008B000F7D0B8F1660F02D10098401C04E0B8F1FF
:1008C000650F0CBF01200020109940188642B8BF68
:1008D000701E00281DD4B04204DA215C3429C8BF40
:1008E000392100DC30210246631E9D1800E0401EC5
:1008F00015F80169521E8E42F9D0392902D1A15C46
:10090000491CA154002A04D50099491C1C46401CCE
:1009100000910646009D00F047FC406A0778DDF82C
:10092000408030B2002802DC01260FF2EC744BF05C
:100930002000662808BF6D1C16D0672845D128B254
:1009400010F1040F47DB404545DA9DF848006D1C67
:10095000010703D430B24045D8BF804628B2B8EB77
:10096000000848BF4FF000080FFA85FB07980A9966
:10097000BBF1000F00F3B1804A1C0A9230234354AC
:10098000B8F1000F03DC9DF84800010704D50A9870
:10099000411C0A9107990F5418EB0B0FB8BFC8F10F
:1009A00000052DB26842454432B20D909542B8BF61
:1009B0002E46079B0A9836B20B96324621461844BB
:1009C00000F06CFCAD1B0E95CBE0BBF1610F17D1B5
:1009D0004FF0700B19E030B2404504DA9DF8481032
:1009E0000A0758BF8046B8F1010848BF4FF0000819
:1009F000BBF1670F14BF4FF0450B4FF0650B04E0E0
:100A0000BBF1410F08BF4FF0500B0A98411C0A91EF
:100A1000B8F1000F079914F8012B0A5403DC9DF874
:100A2000480001071AD50A98411C0A91B8F1000F35
:100A300007990F5412DD761E30B28045B8BF464686
:100A400007980A9B32B22146184400F027FC0A9806
:100A500036B230180A90A8EB06000D9007980A9954
:100A6000014428B2002881F800B003D42B2048703C
:100A7000891C04E02D224A700546891C6D42002025
:100A80001FAA0AE02B460A2593FBF5F505EB850422
:100A9000A3EB440302F8013B401C2DB2002DF1DC16
:100AA000012806DC4BF02002652A04BF302201F841
:100AB000012B00281FAA08D1302001F8010B06E005
:100AC000401E135C303301F8013B0028F8DC079A24
:100AD0000A981044091A0B9143E0084431B22AB233
:100AE000914219DA32B2214600F0D8FB0A9936B2A7
:100AF00071180A91ABEB0600B8F1000F0D9003DC02
:100B00009DF84800020704D5079847540B99491CE3
:100B10000B91CDF8388024E0214600F0BFFB0A9805
:100B2000761B5844B8F1000F0A9003DC9DF848107A
:100B30000A0703D5411C0A9107990F5430B280452A
:100B4000B8BF464607980A9B32B204EB0B01184423
:100B500000F0A4FB0A9836B230180A90A8EB060001
:100B60000D909DF8480000F0140010287FF41CAC94
:100B7000099A0A980D9982180B988A1882180E986B
:100B8000119980188842BFF60FAC081A0C900BE43C
:100B90009DF84A00622808D068280ED06A2814D030
:100BA0006C281FD0712810D01CE0DAF8001051F822
:100BB000040BCAF80010C0B21AE0DAF8001051F8BD
:100BC000040BCAF8001080B212E0DAF80000C21D6F
:100BD00022F00702CAF80020D2E900010832CAF860
:100BE000002006E0DAF8001051F8040BCAF80010F3
:100BF0000021CDE904019DF8480002075AD5DDE93E
:100C00000401002908BF002854D04BF02002782AA4
:100C100050D1099822A930230B54401C421C099240
:100C200001F800B046E09DF84A00622808D0682824
:100C30000ED06A2814D06C281FD0712810D01CE068
:100C4000DAF8001051F8040BCAF8001040B21AE0AC
:100C5000DAF8001051F8040BCAF8001000B212E0E4
:100C6000DAF80000C21D22F00702CAF80020D2E91B
:100C700000010832CAF8002006E0DAF8001051F846
:100C8000040BCAF80010C117CDE90401002902D5F0
:100C900009982D210AE0BDF84800810702D509987E
:100CA0002B2103E0C00705D50998202122AA115461
:100CB000401C099022A80999014407915946FFF761
:100CC000AFBB9DF84A106C290BD001200990DAF8CF
:100CD000001051F8040BCAF800108DF88800FFF7D7
:100CE00063BBDAF8001051F8040BCAF800100022B8
:100CF00016924FF0FF311590109115AAFFF779BBAE
:100D000001202521BBF1000F09908DF888103FF4D8
:100D10004BAB022109918DF889B0FFF745BB00006C
:100D2000CBCCCC0C686A6C747A4C00007072696E23
:100D300074665F733A2062616420256C732061726F
:100D400067756D656E7400007072696E74665F73AE
:100D50003A2062616420257320617267756D656E4B
:100D60007400000000000000000000007072696E56
:100D700074665F733A20256E20646973616C6C6FD2
:100D8000776564007072696E74663A2062616420EF
:100D9000256E20617267756D656E740033B0BDE8B5
:100DA000F08F2DE9FC410F4606467D6B7869396A64
:100DB0002D1AB8696D1A796A2D1AF8696D1AB96A0F
:100DC0002D1A97F838006D1A410790460FD420204D
:100DD000002D8DF800000ADD2C4601236A463946B5
:100DE000304600F079F900285DD1641EF5D17B69A9
:100DF00042463946304600F06FF9002853D1302082
:100E00008DF800003C6A002C09DD01236A46394652
:100E1000304600F061F9002845D1641EF5D1BB6968
:100E2000FA683946304600F057F900283BD13020A7
:100E30008DF800007C6A002C08DD01236A463946E3
:100E4000304600F049F970BB641EF6D1F868B96904
:100E5000FB6942183946304600F03EF918BB302095
:100E60008DF80000BC6A002C08DD01236A46394673
:100E7000304600F031F9B0B9641EF6D197F8380069
:100E800041070DD52020002D8DF8000008DD01233D
:100E90006A463946304600F01FF920B96D1EF6D17A
:100EA0000020BDE8F6814FF0FF30BDE8F6812DE966
:100EB000F8470F46A3B03D6B82469046002D48BFD1
:100EC0006FF0004500F06FFE7A6B801801A90022D8
:100ED000C1E90022812828BF4FF0FF3044D291465B
:100EE0001EE0A54230DB7869201881280BD3002151
:100EF000796303AA39465046FFF753FF5FEA0009BA
:100F000022D40020786103AB7E6922466946981995
:100F100000F0C4F9A6197E6158F8040BA0B12D1B8E
:100F2000002D11DDD8F8001001AA684600F03AF94A
:100F30000446002C05D4D8F800000028D1D1641E46
:100F4000CFD54FF0FF390EE0B9F1000F504604D174
:100F500003AA3946FFF725FF8146B9F1000F02D1F8
:100F6000002078617863484624B0BDE8F0872DE919
:100F7000FC4D06468846376940466F2808BF08245E
:100F800005D0FFF7DBF8782814BF0A241024D6E92F
:100F900000013C2582468B46B8F1640F18BFB8F1BA
:100FA000690F05D1002903D5DAF1000A6BEB4B0B71
:100FB000BBF1000F08BFBAF1000F0CD1306B50B974
:100FC000082C3AD196F83800010736D530223B2557
:100FD00087F83B2031E08DF8008050465946224684
:100FE000002300F0E5FD3032D0B26D1E3A280195A5
:100FF0000EDA7A55504659462246002300F0D8FDB5
:1010000082465FEA010B08BFBAF1000F05D108E084
:101010009DF800001218513AEBE7F0687919884200
:10102000DBD3082C09D196F83800010705D5785D87
:10103000302802D06D1E30207855C5F13C02306B4F
:10104000B26179198242F16008DA318F821A4FF663
:10105000EF70014031873262BDE8F38D00280ED574
:1010600096F8380000F01400102808D1736B7069EE
:10107000316A1B1A5B1A9B1A002BC8BF3362BDE88A
:10108000F38D2DE9D04306460F4614464FF0000875
:10109000DFF8409012E0E00707D542464B46304665
:1010A000394600F0ABFC06460F46404649464246EC
:1010B0004B4600F0A3FC641080468946002CEAD120
:1010C00030463946BDE8D083A08601000000F03FDD
:1010D00084D7974100002440F8B505460E461746D0
:1010E0001C4600205CB117F8011BB068A847B0602F
:1010F00030B1F06A401CF0620020641EF3D1F2BDF2
:101100004FF0FF30F2BD00006E616E004E414E00A8
:10111000696E6600494E46003000B1F5807F02D30B
:101120004FF0FF3070470170012070470078401E7B
:101130008041C043C00F70471C48704770B453686B
:10114000D41801E05B1C491E042B08DA00291FBFDC
:10115000057804F8015B10F8016B002EF2D15360A2
:1011600070BC704738B514461D4661B1FFF7E6FF05
:1011700061686A6B204690476FF00102811A02D0C5
:10118000491E01D001E003E005E00021616032BDAD
:101190006FF0010032BD4FF0FF3032BDDA6B104707
:1011A000024BDFE7014BF9E7014870472C20002094
:1011B000BC200020C9B202788A421AB11CBF10F8C4
:1011C000012FF9E718BF002070472E0080B500B945
:1011D00006A005490B681BB122220021984701E0B7
:1011E00000F069FD222002BD98270020636F6E7316
:1011F000747261696E742068616E646C65723A2005
:10120000626164206D6573736167650000F10103BD
:10121000810704D010F8011B820781B1FAD102685E
:10122000A2F10131914311F0803104BF50F8042F35
:10123000F6E709BAB1FA81F100EBD100401CC01AFF
:1012400070474300C9B2830706D0521E22D310F85C
:10125000013B9942F7D11FE0083A13D302F104028F
:1012600041EA012141EA014150F8043B121F21BF2C
:101270004B40A3F1013C2CEA030C1CF0803FF3D05F
:10128000C9B2001F0832521E24BF10F8013B91EA78
:10129000030FF8D818BF0120401E70474AB1000064
:1012A00011F8013B521E00F8013B1CBF11F8013B35
:1012B000F8E7704710B5144600F002F8226010BD40
:1012C000C1F30A5343B14A0012F5001F28D2A3F21A
:1012D000FE32A1EB0251704750EA410C20D001F0E0
:1012E000004C31EA0C01B1FA81F204BFB0FA80F38C
:1012F000D2180B3AB2F120032CBF00FA03F191404F
:1013000041EA0C013EBFC2F1200C20FA0CF3194354
:101310009040524240F2FD33D21A01EB0351704724
:101320000022704741EA030C50EA4C0C52EA0C0CC4
:101330004FF4001C09D307D01CEB410F9CBF1CEBE2
:10134000430F8B4208BF824270471CEB430FFBD810
:10135000994208BF9042704741EA030C50EA4C0C96
:1013600052EA0C0C4FF4001C09D307D01CEB410FC0
:101370009CBF1CEB430F994208BF904270471CEB87
:10138000410FFBD88B4208BF82427047124254D4AF
:1013900040F2FF7C1CEA11530FD0634531D09B18FB
:1013A00063453CBF01EB0251704701F0004141EA47
:1013B0000C510020AFF30080704750EA410320D069
:1013C00001F0004C91EA0C011CD0B1FA81F30B3B07
:1013D0009A420DD9D21A994051EA0C01C3F1200C5E
:1013E00020FA0CFC61449840531C40F2FF7CD7E784
:1013F000914041EA0C01C2F1200C20FA0CF3194390
:1014000090407047B0FA80F31533202BE0D3202AA8
:10141000EED3203A203B9A4209D9D21A00FA03F1BE
:1014200041EA0C010020531C40F2FF7CB8E700FAAF
:1014300002F141EA0C0100207047524240F2FF7C69
:101440001CEA11530DD06345DBD0B2EB030C3CBF5B
:10145000A1EB025170470CF1010221EA035141F462
:10146000801150EA410CCCD001F0004C352A27DC29
:1014700030B481EA0C01B2F1200309DAC2F1200391
:10148000044601FA03F5D0402843D1409C400CE0CB
:10149000C3F12002450020FA03F418BF44F0010410
:1014A00021FA03F091400C43002174F1004550F102
:1014B000000051EB0C01244230BC7FF47BAF70473D
:1014C0006146002076E77047C1F30A5340F21E429E
:1014D000D31A0CDDCA0283F3070342EA505242F0EA
:1014E0000042DA4002EBE17282EAE17070476FEA93
:1014F000E17203F2E13008B182F0004070477047BA
:1015000010F0004160B148BF4042B0FA80F2904014
:10151000D21CC2F5846241EA025202EBD02140059E
:1015200070470000841A71EB030604D26E40001B62
:10153000B141121973414FF4001C1CEB410F34BF31
:101540007CEB430683E00C0DA4EB1356362E00F320
:101550007C80012E45EAC32341DC43EA525312BF8B
:10156000D20292025B08240545EAC12141EA5051AA
:10157000D2EBC020994125D407D1B0FA80F610FAF9
:1015800006F162D00020203608E0B1FA81F6B140C1
:10159000C6F1200220FA02F21143B0404FEAF4747F
:1015A000B4EB465434F001064FEA74040AD8D6F579
:1015B0000016760D04F00044F04061FA06F2504047
:1015C000F1404840C00A40EA415021F0004128BFA4
:1015D0005FEA500550F1000044EBD12135E0DB0A11
:1015E00045EAC121C90AB6F120050EDD42EA0242F0
:1015F000120CC5F1200603FA06F6EB4042EA060596
:101600006D42984161F100010DE062FA06F5F24089
:10161000554063FA06FC82EA0C02F3405A406D42E0
:10162000904161EB030111F4801F05D1641E620536
:1016300002D06D004041494121F48011430875F109
:10164000004350F1000041EB045170BC70471CEBAB
:10165000410F15D223F0004352EA43060BD04FEA64
:101660004C0CBCEB410F04D80C0D661E342EB7DDBC
:10167000EBE7801A994150EA410608BF0021E4E7F0
:1016800008BF1CEB430F28BF6FF00001DDE700002F
:1016900070B491EA030F4FF000457FF543AF6B4004
:1016A000841A71EB030603D2001BB1411219734176
:1016B0004FF4001C1CEB410F34BF7CEB430442E0B1
:1016C0000C0DA4EB1356352E4FDC45EAC323DB0A81
:1016D00045EAC121C912B6F120050DDD63FA05F610
:1016E000EB4086EA0305124218BF45F00105C01819
:1016F00051F100010CD213E062FA06F5F2405540B8
:10170000F3415A40B340F3405A408018594107D33F
:1017100049085FEA30005FEA350528BF45F001055A
:1017200001F58011420875F1004250F1000041EBD3
:1017300004514E0016F5001F70BC38BF70470020E2
:10174000090D090570471CEB410F10D252EA430600
:101750000BD0BCEB410F05D80C0DAB43661E342EED
:10176000B6DD02E0AB438018594170BC704770BCD5
:1017700070470000F0B540F2FF7581EA030C0CF0F1
:10178000004C15EA11541DBF15EA1357AC42AF4285
:10179000E5E0BC41C1F31301C3F31303801A99417F
:1017A00043F4801304D2641E001849418018594143
:1017B000C90241EA5051B1FBF3F603FB1611A2FB3B
:1017C0000675D7EBC020A94102D2761E8018594178
:1017D000C90241EA5051B1FBF3FE03FB1E11A2FB0B
:1017E0000E75D7EBC020A94103D2AEF1010E8018CF
:1017F0005941890241EA9051760546EA8E2EB1FBA5
:10180000F3F603FB1611A2FB0675D7EB8020A94166
:1018100002D2761E80185941C90241EA50514EEA5F
:10182000060EB1FBF3F603FB1611A2FB0675D7EB10
:10183000C020A94102D2761E80185941C90241EA4E
:101840005051B1FBF3F703FB1711A2FB0735D3EBA4
:10185000C020A94167F100070CBF004247F0010713
:1018600066F3D5274FEA1E31B80814F5806412DDFF
:10187000BD0775F1004250EB0E5051EB045111F5CC
:10188000801F5CBF41EA0C01F0BD4CF07F6141F06C
:10189000E0410020F0BDBD076D0840EA0E5041F464
:1018A0008011D4F10104B4F120060ADAC4F1200653
:1018B0000200E04001FA06F3E1401843B24015434C
:1018C0000EE0342C13DCC6F1200445EA40056D0817
:1018D00020FA06F2154321FA06F0A1400D4300213B
:1018E00075F1004250F1000051EB0C01F0BD0020F9
:1018F0005FEA0C01F0BDCFB992185B41B3FA83F7F0
:1019000004BFB2FA82F6BF190B3FB7F120062FBF12
:1019100002FA06F3BB40C7F1200622FA06F638BFEA
:101920003343BA401CB1E419641E33E77F4231F0FF
:101930000041B1FA81F404BFB0FA80F6A4190B3C5F
:10194000B4F120062FBF00FA06F1A140C4F1200631
:1019500020FA06F638BF3143A0403C1B1AE7AC42E0
:101960001ABF05EA1357AF4212E050EA41061CBF06
:1019700052EA4306BFE750EA4107304661461CBFC2
:1019800041EA0551F0BD52EA430C08BFC143F0BD26
:1019900000204FF4001616EB410F98BF16EB430FD3
:1019A00008BF16EB410F24BFC14305E016EB430F00
:1019B0000CBF61464CEA0551F0BD0000400D40F2FD
:1019C0001E4C40EAC120BCEB115C40F0004003D447
:1019D0008CF30701C84070476FEAE1707047000060
:1019E00050B1B0FA80F18840C91CC1F58461090585
:1019F00001EBD021400570470146704730B540F2F9
:101A0000FF7C1CEA11541DBF1CEA13556445654553
:101A10003FE0641981EA030C6FF35F530CF0004C54
:101A200043F48013C90241F0004141EA505EC5020F
:101A30001100A5FB020200284FF00000EEFB012080
:101A40004FF00001E3FB052118BF42F001024018EE
:101A500000214941E3FB0E01A4F580640D0302D28D
:101A600092184041494154F1010470DD450872F17A
:101A7000004250F1000051EB0451A1F5801102D455
:101A800041EA0C0130BD40F2FF7E4CEA0E510020CD
:101A900030BD0CEA1355644518BF654581EA030C57
:101AA0000CF0004C41D050EA410E1CBF52EA430EEC
:101AB00002E06146002030BD24422C441BD15FEA85
:101AC000050EF6D0090302BF01460020AEF1140E48
:101AD000B1FA81F5AEEB050401FA05FE0C35C5F14E
:101AE000200100FA05F5C8404EEA000E6FF35F537F
:101AF00043F480139CE733F00043B3FA83F504BF4B
:101B0000B2FA82FE75440B3D641BB5F1200E2FBF67
:101B100002FA0EF3AB40C5F1200E22FA0EFE38BFDA
:101B200043EA0E03AA40641C7CE750EA410E14BF4E
:101B300052EA430E6FF000014FF4001515EB430F0E
:101B40008EBF194615EB410F9DE7B4D830BDD4F1D7
:101B50000104B4F120050FDAC4F12005520828BFB2
:101B600042F0010210FA05FE01FA05F57244E2BFE7
:101B7000E0402843E1400FE0352C9ADCC5F1200419
:101B800052EA400220FA05F218BF42F0010231FA8F
:101B900005F0A1400A43002172F1004250F100001B
:101BA00051EB0C0130BD80B5FFF7C6FA006C02BDE9
:101BB000D3BBD9B1B2F5803F5BD2022A1ED98C4685
:101BC000B1FBF2F102FB11C31B0443EA1043B3FB68
:101BD000F2FC02FB1C3380B240EA0343B3FBF2F099
:101BE00002FB103240EA0C4000237047022A05D95C
:101BF0008446B0FBF2F002FB10C270474AB105D137
:101C000000F0010249085FEA30007047002200231B
:101C1000704700F053B80B0002000021002070470D
:101C2000F7D3002200237047904271EB030CF2D3EC
:101C300070B5B1FA81F4B3FA83F52C1BA340C4F15B
:101C4000200532FA05F63343A2405FF00046E64035
:101C500002E05B085FEA3202841A71EB030524BFDD
:101C6000204629467641F4D302000B0030000021C3
:101C700070BD70B5B1FA81F4B2FA82F5C4F12004F6
:101C80006419B4F12006DAD3B2405FF00044F440A6
:101C9000002502E052085FEA3303C61A71EB020E18
:101CA00024BF3046714664416D41F3D302000B00FE
:101CB0002000290070BD012000F002B8704700002C
:101CC00080B5AFF30080024A11001820ABBEFBE7DD
:101CD0002600020038B5040001D1012032BD04F114
:101CE0008405686808B900F020F800F00DF808B124
:101CF00000F031F800F02CF8012804D000F00DF8C5
:101D000021F02A0116E032BD2420686020680168B5
:101D1000490849000160A06A70472068416821F4C1
:101D200090414160206881687047002129702046F9
:101D300000F096BF816000F004F8BDE8324000F08A
:101D400068BB2068016841F00101016020467047CE
:101D5000204600F0F7B9204600F0F8BA38B503463F
:101D6000D3F88C0020280AD109B1100001D101203C
:101D700032BD00F048F8BDE8384000F0F5BB022065
:101D800032BD38B5044604F154051346686B20286B
:101D900031D121B3180022D021652B806B80002027
:101DA000E86321216963A86AD8B1DFF88813C162AA
:101DB000DFF88403A96A0863A96ADFF8800348632F
:101DC0000020A96A88632068216D00F12802A86AB2
:101DD00001F0C1F828B11020E863202169630120D7
:101DE00032BD216840200862226800F006F800F049
:101DF00096F9F9D132BD022032BD02F1080151E855
:101E0000001F083270470020D866DFF83443186896
:101E1000A0420CD04068040209D5186850E8004F71
:101E2000054644F0806445E800400028F5D1184696
:101E30007047216801F1080353E8001F206800F192
:101E4000080221F0400142E80010002870472DE907
:101E5000F041044640F60F0C2268D669104616EA97
:101E60000C0F0768936804F15C0507F0200006F08A
:101E700020010DD1002914D010B9D80040F18D8077
:101E8000A969002900F045812046BDE8F0410847D6
:101E9000DFF874C813EA0C0F04BFDFF870E817EA24
:101EA0000E0F7AD05FEAC67E48BF5FEAC75807D5F3
:101EB0004FF0010EC2F820E06A6B42F001026A6343
:101EC000B2070AD5DA0708D5D4F800E00222CEF826
:101ED00020206A6B42F004026A6372070AD5DA07AF
:101EE00008D5D4F800E00422CEF820206A6B42F036
:101EF00002026A6332070DD5002808BF13EA0C0FEF
:101F000008D0D4F800C00822CCF820206A6B42F038
:101F100008026A63320509D57F0107D526684FF4A8
:101F2000006232626A6B42F020026A636A6B002AC6
:101F300032D031B108B9D80003D5A96909B120461A
:101F40008847686B21688A68510602D410F0280F10
:101F50001DD0204600F0A9FB20688168480611D5F5
:101F6000FFF767FFFCD1686A60B10FF6510181632A
:101F7000686A01F06EF800280ED0686A816BBDE8CF
:101F8000F04108472046BDE8F04101F059B920462C
:101F900001F056F900206863BBE02869012878D178
:101FA000F00676D5F90674D51020106222682988CB
:101FB0009068420637D56A6A1368586880B200286C
:101FC00028D0884226DA6880106801688A061AD408
:101FD00000F0ABF821F4807100F0A3F8F8D100F024
:101FE00061FAFCD1FFF725FFFCD1202028630021F6
:101FF000296100F09AF821F0100100F092F8F8D170
:10200000686A00F0F0FF0220686129886888091A70
:1020100089B206E088427CD11A68900679D50222FE
:102020006A61204631E06A886888891A00281CBFE6
:1020300088B200286DD02246106850E8003F044660
:1020400023F4907300F067F8F6D1106800F10804EB
:1020500000F1080354E8004FDFF8A806044043E805
:1020600000400028F1D102F15C0320201863002415
:102070001C619C61146854E8004F156800F06EFB09
:10208000F8D10220586189B21046BDE8F04101F054
:10209000D8B8F00209D5590207D54FF48010106264
:1020A0002046BDE8F04101F0CDB8300609D539062B
:1020B00001D4180205D5E96959B32046BDE8F041BD
:1020C0000847700613D5790611D500F02EF821F0D7
:1020D000400100F026F8F8D104F15C002021C16233
:1020E0000022C2612046BDE8F04101F0F5B830029F
:1020F00006D5790004D52046BDE8F04101F008B9C5
:10210000F00148BF002F04D52046BDE8F04101F0A2
:1021100000B9BDE8F08144E800300028704741F084
:10212000800142E8001000287047206850E8001F36
:102130000246704711270008572700086927000842
:1021400000800040F8B50446DFF8CC082268136828
:10215000A168034020690B4361690343E0690B43B5
:102160000343136000255168E06821F440510143A6
:102170005160A369DFF8A4188A421CBF206A034398
:102180009668DFF89C08DFF89CE8DFF89C7806404A
:102190003343936067A6D36A606A1B0940EA03135E
:1021A000D3627245DFF884084FF4004338D13F68AA
:1021B00007F00307032F4CD8DFE807F00245424839
:1021C0004FF0010CE169B1F5004F4FF6F07740F0A8
:1021D0007F80BCF1010F09D0BCF1020F0AD0BCF125
:1021E000040F70D0BCF1080F70D098E001F02EFC05
:1021F000002814D0626A616836F81230B0FBF3F040
:102200004A0802EB4002B2FBF1F0A0F11001B94222
:10221000EBD20740C0F3420007432068C7607FE06D
:102220008A4216D13F6817F4406723D0B7F5806F14
:1022300009D0B7F5006F03D0B7F5406F06D008E0BE
:102240004FF0020C07E04FF0040C04E04FF0080CD4
:1022500001E04FF0100C8A42B4D1BCF1000F09D05C
:10226000BCF1020F0AD0BCF1040F15D0BCF1080F6D
:1022700015D054E001F0E2FB002851D0616A36F835
:102280001120B0FBF2F6626802EB42018E4246D3A7
:102290001303B34205D242E001F086FBECE7184697
:1022A000ECE75008002110EB062051EB16610023EB
:1022B000FFF77EFCA0F54076DFF82078BE422ED2F4
:1022C0002168C8602CE001F06FFB91E7184691E7A8
:1022D000BCF1010F09D0BCF1020F09D0BCF1040F11
:1022E00018D0BCF1080F18D019E001F0AFFBB8B15D
:1022F000626A36F812306168B0FBF3F000EB51000F
:10230000B0FBF1F0A0F11001B94208D2226880B20E
:10231000D06005E001F048FBE9E71846E8E7012551
:1023200004F168000121002341800180C360036142
:102330002846F2BD010002000400060008000A0061
:102340000C001000200040008000000190F82810D0
:102350000A0706D502685368816B23F400430B43D8
:10236000536090F82810CA0706D502685368C16AFE
:1023700023F400330B43536090F828108A0706D5E6
:1023800002685368016B23F480330B43536090F869
:1023900028104A0706D502685368416B23F480234E
:1023A0000B43536090F82810CA0606D5026893685C
:1023B000C16B23F480530B43936090F828108A0676
:1023C00006D502689368016C23F400530B439360B5
:1023D00090F828104A0610D502685368416C23F41F
:1023E00080130B435360436CB3F5801F05D15368D2
:1023F000816C23F4C0030B43536090F828100A0645
:1024000006D501684A68C06C22F4002202434A6083
:102410007047F8B5044604F184050020E8606FF0C9
:102420007E4701F0ABFB0646206801680A0714D519
:102430000097334600224FF40011204600F04AF87E
:1024400058B1FFF772FE21F08001FFF76AFEF8D164
:1024500004F184002021416016E0206801684A07E9
:1024600016D50097334600224FF48001204600F035
:1024700031F868B100F024F8FCD100F013F8FCD179
:1024800004F1840020218160002202700320F2BD4B
:10249000202068602021A9600020E06600212167DB
:1024A0002870F2BD216801F1080353E8001F20687D
:1024B000490800F10802490042E80010002870476E
:1024C000206850E8001F024621F4907142E8001095
:1024D000002870472DE9F041069C05460E469046BF
:1024E0001F462868C1693140B1420CBF012000205D
:1024F000404537D114F1010FF3D001F03FFBC01B71
:10250000844200D314B90320BDE8F0812868016833
:102510004A07E6D5802E18BF402EE2D0C1690807D1
:1025200004D42968C8690105DBD50DE02A680820B4
:102530001062284600F0B9F805F184000821C16056
:10254000002202700120DFE729684FF40060086272
:10255000284600F0AAF805F184002021C16000227D
:102560000270D0E70020CFE730B503460020996520
:10257000FF2403F15C010A804A8088619868B0F505
:10258000805F04D1186990B940F2FF140FE018B9C8
:10259000186960B17F2007E0B0F1805F06D118694B
:1025A00008B97F2403E03F20888001E000248C806C
:1025B0000020486322240C63196801F1080555E8DE
:1025C000001F186800F1080441F0010144E8001000
:1025D0000028F1D103F15C018868B0F1005F28D1D7
:1025E0008889824225D39A68B2F5805F04BF186952
:1025F000002803D10FF239428A610BE00FF249340F
:102600008C61186930B100F036F841F48071FFF741
:1026100088FDF8D1196801F1080454E8001F186812
:1026200000F1080241F08051FFF77BFDF2D100205C
:1026300030BD9868B0F5805F04BF186900280CD1E0
:102640000FF209228A61186850E8001F024641F023
:102650002001FFF766FDF6D1E9E70FF29D128A61CE
:1026600018690028EFD000F006F841F49071FFF7E8
:1026700058FDF8D1DBE7196851E8001F1A68704768
:1026800010B500F008F8FCD100F0A8F8FCD120212A
:10269000C0F8881010BD016851E8002F0B4622F0E9
:1026A000C00243E8002100297047016851E8002F6B
:1026B0000B4622F4907243E800210029F5D101680D
:1026C00001F1080301F1080253E8003F0D490B40F6
:1026D00042E800310029F2D1C16E012909D1026816
:1026E00052E8002F036822F0100243E8002100297D
:1026F000F5D12021C0F88C100022C26642677047D5
:1027000000000000FEFFFFEF0100001020010004A8
:1027100010B50146886A09680A68930609D4002141
:10272000A0F8561000F009F8FCD100F04DF8FCD1EB
:1027300010BDBDE8104000F0CFBD026802F10804F2
:1027400054E8002F016801F1080322F0800243E8F9
:10275000002100297047806A01F016BA24F01004A5
:1027600045E8004000287047F8B5846A04F1880500
:1027700004F1560700F01CF806D5212804D10020EA
:1027800038802046FFF77CFF21688868410606D51F
:10279000222E04D1002038812046FFF786FFA8684A
:1027A00040F01000A8602046BDE8F24000F048BDAF
:1027B00028686E6821688A6811067047806A00215F
:1027C000A0F85E1000F03CBD016851E8002F0B46F8
:1027D00042F0400243E8002100297047026802F1FC
:1027E000080454E8002F016801F1080322F40002F4
:1027F00043E800210029704710B500F050F81FD1C0
:102800004B6A9188846D0B402370816D4B1C00F0E6
:102810004CF819D100F050F8FCD100F057F8FCD179
:1028200000F06CF80BD10023136100F05DF8FCD1CF
:102830000168CB69DC0644BF10230B627AE07EE0BE
:10284000886940F00800886110BD000010B500F0F4
:1028500026F81FD14B6A9188846D0B402380816DCF
:102860008B1C00F022F819D100F026F8FCD100F002
:102870002DF8FCD100F042F80BD10023136100F0D9
:1028800033F8FCD10168CB69DC0644BF10230B622E
:1028900050E054E0886940F00800886110BD00F104
:1028A0005C020168136B222B7047836551884B1EB5
:1028B0005380518800297047026852E8002F03684E
:1028C00022F4907243E8002100297047026802F167
:1028D000080454E8002F0168520801F1080352006F
:1028E00043E8002100297047016851E8003F0C4689
:1028F00023F0100344E800310029704700F15C0226
:10290000202111630023936100215161434B016831
:1029100099420CD049680B0209D5016851E8003F83
:102920000C4623F0806344E800310029F5D1116999
:10293000012970471188BDE8104000F082BCBDE855
:10294000104000F0B9BC00002DE9F84300F010F988
:102950004BD1A88900283AD0B80638D500F0D2F873
:102960000870A06D421C00F0C4F817D0F90748BFEA
:102970005FEAC85200F0B4F803D5F20701D500F0C1
:10298000CFF8780703D5F20701D500F0C1F8686BDE
:1029900020B1204600F054FC0020686368880028BD
:1029A000DAD100F0CFF8FCD100F028F8FCD100F02B
:1029B000FDF809D100F0EAF844BF1021016229882E
:1029C000204600F03EFC02E0204600F075FC6888DE
:1029D00068B1A98988420ADA00F0BEF8FCD18048C3
:1029E000A86100F0A5F8FCD101E000F002F8BDE814
:1029F000F183816941F0080181617047206800F12D
:102A0000080200F1080152E8002F7648024041E830
:102A10000020002870470000F369FFCF00800040CD
:102A2000FFF4FF1100380140880000580024F40032
:102A30002DE9F84300F09CF84BD1A88900283AD042
:102A4000B80638D500F05EF80880A06D821C00F052
:102A500050F817D0F90748BF5FEAC85200F040F8B5
:102A600003D5F20701D500F05BF8780703D5F2072C
:102A700001D500F04DF8686B20B1204600F0E0FB76
:102A80000020686368880028DAD100F05BF8FCD188
:102A9000FFF7B4FFFCD100F089F809D100F076F817
:102AA00044BF102101622988204600F0CAFB02E0E1
:102AB000204600F001FC688868B1A98988420ADADA
:102AC00000F04AF8FCD14848A86100F031F8FCD188
:102AD00001E0FFF78EFFBDE8F183000000FD0F006D
:102AE00005D501210162686B40F001006863B807F9
:102AF0007047A2656888411E69802068C76917F021
:102B0000070F70472168486AA16D09EA0000704705
:102B1000216804200862686B40F002006863704717
:102B2000216802200862686B40F004006863704707
:102B3000216851E8001F226841F0200142E800109E
:102B400000287047216851E8001F226821F4807135
:102B500042E8001000287047226802F1080353E899
:102B6000001F083221F0805142E800100028704711
:102B7000044604F15C052068B5F80490C769014675
:102B8000D1F800808668296B2229704700212961CD
:102B9000206850E8001F024621F0100142E80010B2
:102BA0000028F5D12068C169CA0670472020286333
:102BB0000021A961002068610C49206888420CD07E
:102BC0004068010209D5206850E8001F024621F044
:102BD000806142E800100028F5D12869012870477B
:102BE000F9270008FEFFFFEF4D2800080080004095
:102BF000934900E0934981B00A6802430A6009687A
:102C000008400090009801B0704780B54FF4002054
:102C1000FFF7F0FF002200212E2000F0CEFFBDE8DC
:102C200002402E2000F0E6BF0168874A914200D0A2
:102C3000704780B54FF48010FFF7DCFF00220021C1
:102C40002C2000F0BAFF2C2000F0D4FF002200213D
:102C50002D2000F0B2FFBDE802402D2000F0CABFD9
:102C600038B59EB004461421684601F017F850218B
:102C70000AA801F013F820687449754D884246D1BE
:102C800002200A90002111910AA801F021F808B150
:102C900001F08BFA286840F00100286029686D4D2A
:102CA00001F00101059105980120FFF7A1FF022124
:102CB0000191002202920C2003210090039108222E
:102CC000049269464FF0904001F070FA6248286023
:102CD000112100F058F808B101F067FA4FF0885060
:102CE000002106900791ADF820100122099206A953
:102CF000284601F03BFB08B101F057FAE567AC62EA
:102D000000220021252000F058FF252037E05349FC
:102D1000884236D101200A90002110910AA800F0C3
:102D2000D7FF08B101F041FA686840F4804068605C
:102D300068684B4D00F48040059005980220FFF72D
:102D400057FF0221019101220292C020032100902D
:102D50000391072204926946424801F027FA42484B
:102D600028600F2100F00FF808B101F01EFAE567A6
:102D7000AC6200220021242000F01FFF242000F07C
:102D800039FF1FB030BD696000201022E86080214B
:102D90006861A861E8612862AA602961284600F09C
:102DA0006BB810B594B004465021684600F076FF29
:102DB00022682E498A420FD14FF4007000904FF0E4
:102DC00080510E91684600F083FF08B101F0EDF9E3
:102DD0004FF48020FFF70EFF14B010BD18B595B06A
:102DE0000446502101A800F059FF226820498A4278
:102DF00024D14FF4006001904FF48071119101A82B
:102E000000F066FF08B101F0D0F91A48816B41F477
:102E1000004181630021026842F480620260002266
:102E2000006800F4806000900098032000F0C5FE68
:102E3000032000F0DFFE204601F04CFB16B010BD71
:102E40004C00005850000058000C00580080004012
:102E50005C000058A82500204400024000380140D2
:102E600008260020000400484404024000100058D6
:102E7000002800405800005838B5040001D1012056
:102E800032BD2168DFF89023914204F1240502D27B
:102E900000F055F805E000F04AF8DFF880032962F9
:102EA000E8610221697020680268A068E16823680F
:102EB0006FF30E12024320690A4361690243A0695D
:102EC0000A43E1690243206A0A4302431A6020462A
:102ED00000F074F9A068B0F5804F04BF0021616074
:102EE0002079696A00F03F0000F014F838B1052835
:102EF00005D2204600F07FF900F012F803E0002030
:102F000028636863A8630021A961012068702970A3
:102F1000002032BD0860A96AE86A486060687047AE
:102F2000296B00200860696BA86B48607047DFF868
:102F3000F00241181422B1FBF2F189007047DFF86A
:102F4000E40241181423B1FBF3F18900DFF8D82221
:102F50002962EA617047F8B5044604F124060025A9
:102F60003078012801D10220F2BD0120307077783D
:102F7000012F2ED102207070AC46C6F818C0206810
:102F800007687F087F000760204600F0FBF8216893
:102F9000F06820B10A6842F00E020A6008E0086892
:102FA00020F0040008602068016841F00A01016017
:102FB000706A0168CA0303D5016841F48071016039
:102FC000306B18B1016841F48071016000F005F8C0
:102FD00001E0357002252846F2BD2068016841F005
:102FE00001010160704740B100F124014A78022AD2
:102FF00005D00420886100220A7001207047026811
:10300000136823F00E0313604A6A136823F4807375
:10301000136000680268520852000260012091F8B3
:103020002020CB6902F01C02904058608A6AC86A6E
:103030005060086B38B10246106820F48070106050
:103040004A6B886B50600120487000220A70002093
:10305000704738B500F1240200245178022903D0CA
:1030600004209061012429E001680B6823F00E031D
:103070000B6001680D686D086D000D60516A0B688A
:1030800023F480730B60012192F82030D56903F09E
:103090001C0399406960936AD16A5960116B39B118
:1030A0000B46196821F480711960536B916B59605C
:1030B000012151701470516901B18847204632BD19
:1030C000F8B500F124010426CA69126803681C6877
:1030D00091F8205005F01C0506FA05F73A4210D089
:1030E00067070ED51A68940603D41A6822F0040202
:1030F0001A6000F03EF8C968002939D0BDE8F440F4
:103100000847022606FA05F73A4213D0A70711D559
:103110001A68940605D41A6822F00A021A6001237C
:103120004B7000F026F800220A70896801B3BDE8F0
:10313000F4400847082606FA05F52A4218D0220767
:1031400016D51C6824F00E041C60012291F8203072
:10315000CC6903F01C039A406260012301228A615A
:103160004B7000220A70096911B1BDE8F4400847AC
:10317000F1BD91F82020CB6902F01C0296405E6000
:103180007047000070B5C56C046D6C60446D14B17F
:10319000856DC46D6C60012490F84450066C05F098
:1031A0001C05AC407460046863608068102802D11C
:1031B000A260E16070BDA160E26070BD10B5416CBD
:1031C0000268154B89089A4239BF184C04EB8101FB
:1031D000174B03EB8101816402F0FF02083A1421CE
:1031E000B2FBF1F1012301F01F01124AC26403FA9C
:1031F00001F1016510BD01790F4A104B836501F0A3
:103200003F0102EB81024265491E012201F00301E8
:103210008A40C26570470000080402400004024072
:10322000F8FBFDBFF8FFFDBF0000024000080240B0
:103230001C08024080080240FC080240400902408D
:10324000704770477047000010B52B4C10B1022832
:1032500003D010BD00F00CF801E000F005F80360A9
:10326000BDE81040FEF77ABD63602448244B7047E8
:1032700023602448244B704770B500240025234E5A
:1032800010B1022804D00AE03360FFF7F2FF02E039
:103290007360FFF7EAFF0360FEF773FD0446012C3D
:1032A00005D007D3032C04D038BF022502E0012546
:1032B00000E00325284670BD0068114A0E4990427F
:1032C00005D0114A904206D1086820B100474868ED
:1032D000002818BF004770470068094A0B49904210
:1032E00005D0094A904206D1086820B100474868D5
:1032F000002818BF0047704754270020782200207C
:10330000008000400C230020003801405C27002092
:10331000704770474FF0B040006800F0F000B028F0
:1033200088BFB0207047DFF8E0070068000100F0B8
:10333000F00070472DE9F041040051D0207881065B
:103340004FF0B0453AD5A868E96810F00C0001F0DC
:10335000030103D00C2808BF012943D1E0690028EC
:103360003ED0FFF7D7FF0146606A814211D200F0DC
:103370007FFB002834D12968606A21F0F001014305
:1033800029606968206A21F47F4141EA002169606F
:1033900009E0296821F0F001084300F018FA606A9A
:1033A00000F066FBE0B900F03BFBDFF86017086057
:1033B000DFF85C07006801F0A7F888B92078C1073A
:1033C00062D5A868E96800F00C00082801F0030144
:1033D00003D00C2808BF03292ED16068002853D1E0
:1033E0000120F2E1E069B8B1296841F0010100F083
:1033F000D8FA06462868800706D400F0BFFB801B79
:103400000328F7D30320E0E12868616A20F0F00088
:10341000084300F0DCF9D1E728684008400000F0DC
:1034200094FB064628684008C007C7D500F0A6FBF5
:10343000801B0328F6D3E5E76068B0F5803F04D130
:10344000296841F48031296003E0286820F4803045
:103450002860606858B100F091FB06462868800338
:1034600012D400F08BFB801B6528F7D3CAE700F06D
:1034700085FB06462868400CC00705D500F07EFB9A
:10348000801B6528F6D3BDE72078810715D5A8688D
:10349000E96800F00C00042801F0030103D00C28B7
:1034A00008BF022928D1E068002899D068682169FE
:1034B00020F0FE4040EA016068602168DFF8546651
:1034C00011F0180F00F08B806069002877D0C806D3
:1034D000706858D5800730D4716841F0010171607F
:1034E00000F04CFB07467068800726D400F046FBCE
:1034F000C01B0328F7D385E7E06870B1296841F461
:10350000807100F04EFA064628684005CED400F0DF
:1035100035FB801B0328F7D374E7286820F48070FC
:1035200000F013FB06462868800AC007C5D500F0E6
:1035300025FB801B0328F6D364E7706840F0040085
:1035400000F04EF907467068000705D400F016FB3E
:10355000C01B0428F7D355E77068A16920F4706098
:1035600040EA0120706070684008400000F038F9BF
:10357000074670684008C00731D500F0FFFAC01B4D
:103580000328F6D33EE740F0010000F029F9074692
:103590007068800705D400F0F1FAC01B0328F7D348
:1035A00030E7706820F0040070607068C008C007E1
:1035B00015D500F0E3FAC01B0428F6D322E77068A3
:1035C00020F0040000F00CF907467068C008C0073E
:1035D000C9D500F0D3FAC01B0428F6D312E720782F
:1035E00041074CD5DFF83085D8F80000C1050ED46E
:1035F00000F0ACFF00F0C2FA0746D8F80000C105A1
:1036000005D400F0BBFAC01B0328F6D3FAE6A06885
:10361000012804D1306840F00100306010E0052836
:10362000306806D140F004003060316841F001019B
:1036300005E0400840003060316821F0040131604D
:10364000A06841F2893760B100F098FA804630688E
:10365000800714D400F092FAA0EB0800B842F6D329
:10366000D0E600F08BFA804630684008C00706D5E7
:1036700000F084FAA0EB0800B842F5D3C2E6207847
:10368000410622D5A06A0028B0680ED040F00100A3
:10369000B06000F073FA0746B068800715D400F0F8
:1036A0006DFAC01B0328F7D3ACE640084000B060B9
:1036B00000F064FA0746B0684008C00705D500F07E
:1036C0005DFAC01B0328F6D39CE6E06A00287BD095
:1036D000A968EA68022801F00C0161D1236B02F0AD
:1036E0000300984202BF02F07000636B984213D14E
:1036F000A36BC2F30620984202BF02F47810E36B7A
:10370000984209D1236C02F06060984202BF02F037
:103710006042606C824237D00C2942D02868410157
:103720003FF55EAE00F00EFA06462868810105D529
:1037300000F024FA801B0328F7D363E6EA68DFF879
:10374000DC03216B0240606B0A43A16B0243E06B18
:1037500042EA0122216C0243606C0A430243EA60A0
:10376000296841F080712960E86840F08050E86085
:1037700000F004FA04462868810125D400F0FEF91F
:10378000001B0328F7D33DE6286881011CD4286874
:1037900040F080702860E96841F08051E960E7E717
:1037A0000C293FF41DAE00F0CDF9044628688101D4
:1037B00005D500F0E3F9001B0328F7D322E6E968FA
:1037C000DFF85C030140E9600020BDE8F08128607B
:1037D0006868216A20F47F4040EA012068607047F1
:1037E000706000F0CBB92DE9F8430400884600F082
:1037F000B080DFF8305300F0CBF80CD200F0CDF8F9
:10380000074600F0C5F806D000F0B8F9C01B022842
:10381000F7D90320BAE0207882074FF0B04711D5DE
:10382000B968A06821F0F0010143B96000F0A6F981
:103830000646B868C00305D400F0A0F9801B022832
:10384000F7D9E6E72078DFF8C062820612D5316842
:10385000606921F0F0010143316000F08FF9814689
:103860003068800306D400F089F9A0EB0900022833
:10387000F6D9CEE72078410613D53068A169000952
:10388000000140EA1110306000F078F9814630689C
:10389000C00306D400F072F9A0EB09000228F6D9A3
:1038A000B7E72078420711D5B968E06821F4E061F4
:1038B0000143B96000F062F90646B868800305D498
:1038C00000F05CF9801B0228F7D9A2E720780107F5
:1038D00012D5B868216920F4605040EAC100B86090
:1038E00000F04CF90646B868400305D400F046F9EC
:1038F000801B0228F7D98CE72078C1072BD5606898
:10390000022819D13968890323D5BA68920840EA98
:103910008200B86000F032F90646B868616800F0CD
:103920000C00B0EB810F16D000F028F9801B41F29B
:1039300089318842F1D36CE7032802D139688901C3
:1039400003E00028396802D18907DED401E0490587
:10395000DBD401201AE0286800F0070080450BD274
:1039600000F01BF8044600F013F805D000F006F94B
:10397000001B0228F7D94CE700F052F863490860B1
:1039800000F000FEBDE8F24300F0BEBDBDE8F283EA
:10399000286800F00700404570472968C90848EAD0
:1039A000C101296000F0EAB838B54FF0B0455F4C6E
:1039B000A96811F00C0106D1FFF7ACFCC0F30310AD
:1039C00054F8200032BD0429594828D00829594A02
:1039D00004D12968C90222D4104632BDE96801F039
:1039E000030102290CD0032904D12968C90207D494
:1039F000104605E0FFF78EFCC0F3031054F82000DA
:103A0000E968EA68EB68C1F306214843C2F3021192
:103A1000491C5B0FB0FBF1F05B1CB0FBF3F032BD57
:103A200080B5FFF7C1FF4049FFE7434A0968C1F38A
:103A3000031152F82110B0FBF1F002BD80B5FFF781
:103A4000EFFF00F010F8C1F3022106E080B5FFF7A8
:103A5000E7FF00F008F8C1F3C22112F8211001F0CD
:103A60001F01C84002BD3049344A09687047000050
:103A700070B52E49B1282EBFCC6AC0F3031051F89F
:103A80002040FFF750FC054600F096FD2A49C5F39B
:103A9000031251F822102A4AB4FBF1F15FF000043E
:103AA000B1FBF2F1B0F5007F30A220461FD100BF7C
:103AB00027A353F820508D4216D2401C0328F8D972
:103AC000184D2868C00844EAC00000F03EF80646D9
:103AD000286800F00700A04213D000F04FF8801BC8
:103AE0000328F5D3032070BD52F82040E8E700BF5B
:103AF0001BA353F820508D42F6D2401C0328F8D364
:103B0000DEE7002070BD0000080100586821002099
:103B10004C21002090000058000400588C80C111F6
:103B2000FCFFFEEE0040005808000058E08E000840
:103B30000024F4000048E801A08E0008CC910008A1
:103B400040420F00286820F08070286000F016B80E
:103B500012000000240000003600000040000000B9
:103B6000060000000C000000100000000000000033
:103B7000010000000200000003000000014840684E
:103B8000704700BF44210020704700000901020077
:103B900002D4394881547047384B02F00F021A445E
:103BA00002F8041C704736490A6860F30A2240F2A2
:103BB000FA5060F31F420A60704770B5304B1C68C2
:103BC000C4F302230124C3F10705052D2EBF0F25E1
:103BD00004FA05F56D1E1E1D072E34BF0023DB1EE3
:103BE0002940994004FA03F3BDE870405B1E1A4077
:103BF0001143CBE7010007D4012200F01F01214B44
:103C00008A40400943F82020704701000BD401226C
:103C100000F01F011C4B8A40400943F82020BFF3ED
:103C20004F8FBFF36F8F7047401EB0F1807F01D37D
:103C3000012070471549164A48600023F020107093
:103C40008B600720086000207047010007D4012224
:103C500000F01F010F4B8A40400943F820207047B5
:103C6000010007D4012200F01F010B4B8A404009DC
:103C700043F820207047000000E400E018ED00E069
:103C80000CED00E000E100E080E100E010E000E089
:103C900023ED00E000E200E080E200E0002200F01E
:103CA00093BC0000DFF81C130A68030903F47F23A8
:103CB00000019A4300F47F2000F081B9DFF804236B
:103CC0001368010C23EA014343EA00431360704781
:103CD0002DE9F843054600242878DFF8E86241061C
:103CE000A0464FF0B04743D5286B70B1B0F5800FB8
:103CF00006D0B0F5000F18BFB0F5400F2ED035E05C
:103D0000F96841F48031F96029E0386820F080607A
:103D10003860FFF733FF81463868C00EC00707D50B
:103D2000FFF72CFFA0EB09000228F5D9032415E0CA
:103D300000F03CF9A86821F4781100F02FF98146D1
:103D40003868000106D4FFF719FFA0EB090002282C
:103D5000F6D9EBE739696869014339613CB93168E3
:103D6000286B21F440010143316001E00124A046A9
:103D70002868010532D5D6F80880286C08F4407808
:103D800080452AD000F0E2FBB8F1000FB16805D100
:103D9000286C21F440710143B1601EE0B06840F42A
:103DA0008030B06021F44071B06820F48030B060A1
:103DB000286C0143B160B068C0070ED5FFF7DEFE86
:103DC0008046B068800708D4FFF7D8FEA0EB080053
:103DD00041F289318842F4D30324A0462878C207EF
:103DE00005D53168A869890840EA810131602978E0
:103DF000880705D53168E86921F4406101433160E5
:103E00002978C80644BFA86AFFF758FF28788106BA
:103E100044BFE86AFFF752FF2878410744BF286A89
:103E2000FFF740FF2878010744BF686AFFF73AFFB1
:103E30002868C20535D53168686B21F040610143BF
:103E40003160696BB1F1006F00F0A2F8686BB0F1FE
:103E5000806F26D1396821F0806100F0A4F8044613
:103E60003868C00EC10707D5FFF788FE001B02287F
:103E7000F6D94FF0030814E000F098F8E86821F054
:103E8000606100F08BF804463868010105D4FFF743
:103E900075FE001B0228F7D9EBE739696869014311
:103EA0003961296888051CD5A86BB0F1804F18BF0F
:103EB000B0F1004F00D020B9316821F040410843F3
:103EC00009E0316821F04041316020F080503268D3
:103ED00022F0406210433060A86BB0F1C05F00F088
:103EE00057F82868420538D53168E86B21F0405111
:103EF00001433160E96BB1F1005F03D1F86840F430
:103F00008030F860E86BB0F1805F26D1396821F02D
:103F1000806100F048F804463868C00EC10707D534
:103F2000FFF72CFE001B0228F6D94FF0030814E01F
:103F300000F03CF8286921F0604100F02FF80446B9
:103F40003868010105D4FFF719FE001B0228F7D9D4
:103F5000EBE739696869014339612968C80405D507
:103F6000F168686C21F440410143F16029688804DC
:103F70000BD5796AE86C21F0300101437962796AE6
:103F8000A86C890840EA810179624046BDE8F28365
:103F900003D1F86840F08070F860704701433961E0
:103FA000396841F080613960FFF7E8BD38696968B8
:103FB00020F4FE4040EA012038613969704710431F
:103FC0000860704788000058694900E0694981B07D
:103FD0000A6802430A60096808400090009801B02E
:103FE000704710B500F0BAFA00F008FB00F04DF889
:103FF00000F089F8604C6148A06304F1380000F0DB
:1040000087FD0420FFF7E2FF0120FFF7DFFF02201A
:10401000FFF7DCFF0420FFF7D7FF0120FFF7D4FFF5
:104020000220FFF7D1FF00220F210E20FFF7C5FD70
:104030000E20FFF7DFFD00220F213A20FFF7BDFD24
:104040003A20FFF7D7FD4E482060002147F6FF7069
:104050000F22E0606160A2602161A161E1616161A4
:10406000204600F08DFD00220021204600F0B1F92D
:10407000444860620021A16204F1240000F028FE9F
:1040800000F004FB00F041FCFCE780B59AB0482149
:1040900008A8FFF703FE1C2101A8FFF7FFFD00F0B1
:1040A00055FA3948016821F01801016001213748AB
:1040B000026861F34A2202604FF48031006800F424
:1040C000C06000904720009A099101224FF480714E
:1040D0000A920B9112920890402100220C911392A7
:1040E00008A8FFF727F96F20022101900291002212
:1040F00003920492059206920792012101A8FFF70C
:1041000072FB1BB000BD80B594B050216846FFF72C
:10411000C5FD4FF440524FF48041009211910222AC
:104120001021129213916846FFF7D2FD15B000BD21
:1041300010B5174C174820604FF4E1310C20606136
:1041400000224FF40040E06100F026F82046FDF721
:10415000C1FD0021204600F0F9FD0021204600F0BD
:1041600000FE2046BDE8104000F0D2BD0000000077
:10417000480000584C00005834250020000C00581E
:10418000002800400010005890000058000400581B
:104190000C230020003801406160A260E2602261CF
:1041A000A26122626262A262704770472DE9F04FFD
:1041B0000024DFF89881664E4FF00F0902460B4647
:1041C00031E0644FBA4214BF4FF0070E4FF0040EB7
:1041D0000EFA01F141EA050E5F4941F82CE0C743B0
:1041E00031685D683940ED0248BF01433160716854
:1041F0005D683940AD0248BF01437160D8F80010D6
:104200005D683940ED0348BF0143C8F80010D8F895
:10421000041007EA010C5968890348BF40EA0C0CF6
:10422000C8F804C0641C186830FA04F100F07D80FE
:104230000121A1400840F5D04FEA440C032505FABE
:104240000CF56FEA050E5D6805F00307012F1CBF32
:1042500005F00305022D10D19568DF680EEA05050B
:1042600007FA0CF73D439560556825EA01015D6842
:10427000C5F30015A54029435160A1001D7905F043
:104280000305032D1ED0D5689F680EEA050507FAC1
:104290000CF73D43D5601D7905F00305022D11D1C2
:1042A000E50802EB850501F01C07D5F820B009FAF6
:1042B00007FA2BEA0A0BD3F810A00AFA07F747EA25
:1042C0000B072F6215680EEA05071D7905F0030537
:1042D00005FA0CF545EA070CC2F800C05D6815F454
:1042E000403F9FD01C4D4FEA940C55F82C5001F0E4
:1042F0000C0109FA01F7BD43B2F1904F08BF4FF02E
:10430000000E11D0154FBA4208BF4FF0010E0BD06E
:10431000134FBA4208BF4FF0020E05D0114FBA42F8
:104320007FF44FAF4FF0030E52E7BDE8F08F0AB1B4
:1043300081617047816270470B4A136801460B42E6
:104340001CBF116000F0F0BA7047000080080058F0
:104350000008005800100048080001400004004810
:1043600000080048000C00480C08005870B500F127
:104370002403587801281CD11A78012A01D102207F
:1043800070BD5C6A187025680B480A68CE680540E5
:104390001543761E48680A7A45EAC6450543487AB9
:1043A00045EA024545EA40252560002119700020B4
:1043B00070BD012070BD0000FFFD00E08A60FF219C
:1043C0000268516280F82130002180F8201000201E
:1043D0007047F8B53E4E034630684FF47A75400991
:1043E0002C46B0FBF4F46C43009493F820000128B1
:1043F00001D10220F2BD012083F82000022783F8BA
:104400002170CA201C686062532718684762FF2425
:104410001F68B868400507D50098401E00900098B6
:10442000F0B1F8684007F7D4B86820F48060B8604D
:104430001868C76807F0800767F49067C76030683E
:1044400040092E46B0FBF6F6754300951D680098AE
:10445000401E0090009818B1E8684607F7D506E0BE
:1044600018684462032100F023F80320F2BDA86815
:10447000C008C000A860186885682A438260186870
:1044800041611148016841F4002101600F48026850
:1044900042F4002202601868816841F48041816022
:1044A000186800F00BF81868446200F001F8F2BDDB
:1044B00083F82110002083F820007047816841F4C0
:1044C0008061816001217047800800580008005811
:1044D0006821002090F82010012901D102207047A6
:1044E000012180F82010022380F82130CA210268BF
:1044F0005162532301684B62012301688A6842F0CC
:104500002002FFF75BBF000070B50F4E0446307805
:104510000025A8B1FFF784FA32784FF47A71B1FB25
:10452000F2F2B0FBF2F0FFF77FFB48B9102C07D294
:10453000002221464FF0FF30FFF73FFBB46000E060
:104540000125284670BD00BF4421002002480168B3
:1045500041F480710160704700040058134810B5A1
:10456000016841F4807101600320FFF71CFB00200B
:10457000FFF7CAFF0024002814BF0124FEF745FB03
:10458000204610BD0A488068704709480078704787
:10459000084805E00748016841F0020101607047E2
:1045A000016841F0010101607047000000400058BF
:1045B00044210020042004E0DFF80800006800F433
:1045C000C06070470004005800B500BF1300964655
:1045D0009446103928BFA0E80C50FAD85FEA417C15
:1045E00028BF0CC048BF40F8042BC90728BF20F8DB
:1045F000022B48BF00F8012B00BD00001CB5DFF8FE
:10460000EC13DFF8EC434FF400400860606C4001AD
:104610000ED5606CC0000BD4FFF798FFFFF796FF34
:10462000206C40F480302064206C20F480302064C2
:104630003F22216841F4801121603F21206800F46D
:10464000801000900098DFF8AC034160426101687F
:1046500041F47C110160026942F47C12026101683C
:1046600041F03F010160026942F03F020261002017
:1046700000F0CAFB48B18079DFF87C13E164E26C9A
:1046800022F47C5242EA0022E26413BD10B5DFF846
:104690006C03DFF86C4388B0016841F050010160A1
:1046A000CA22DFF86003C2615321C161FF210268A1
:1046B000D208D2000260C161DFF84C03026842F404
:1046C0000042026000F0B4FBDFF8400302680421FE
:1046D00061F3020202600020CD4900F0E4FC00F02A
:1046E00090FE0121012000F0A8FB002000F038FF1F
:1046F000012000F035FF022000F032FF012000F021
:1047000051FF0121002000F067FF0121012000F08E
:1047100063FF0121022000F05FFF0FF22923BD4952
:1047200001220020FEF790FD00F0AEFFBA4A002102
:10473000402001F038F904F23C500FF235010090AE
:10474000019169460FF22D0001F096F904F5C96157
:10475000039104F25470029040F23C51059104948C
:1047600002A801F019F800F08DFF08B010BD00009C
:104770007047000070B5064688B07068A74C00F11D
:104780000B054FF412422988891A11D0491E6ED0A8
:10479000491E00F08080891E00F08A80491E00F0CA
:1047A0008C80491E00F08C80491E00F0908092E0C1
:1047B000684601F024FA9DF802309DF801209DF82A
:1047C0000010204601F05CFA9DF804100FF26820FA
:1047D00001F056FA9DF80C309DF80B209DF80A1058
:1047E0009CA001F04DFA00BFA0A001F049FA04A876
:1047F000002100220023002580E82E00716801F1CD
:104800000D0090F8000038BBA0A0854D01F038FAEB
:1048100000F074FE0F207F218DF810008DF812102B
:1048200004F509702E68360C314601F029FAADF80E
:104830001C602C689CA0C4F30B04214601F020FAF4
:10484000ADF81E4004A801F0D3F901F02DFA0021C3
:10485000012000F0F2FA3EE0012805D104F51270C3
:1048600001F00EFA357036E004F51F7031E004F106
:10487000240001F005FA706800F10D0504F5C07020
:10488000297801F0FDF92878002814BF04F5F670A6
:1048900004F5D8701DE004F1480001F0F1F9D5F8F5
:1048A0000620D5F8021004F1980001F0E9F912E0B1
:1048B000D5F8021004F1C00006E004F1FC0008E0A5
:1048C000D5F8021004F5907001F0DAF903E004F570
:1048D000AE7001F0D5F908B070BD38B50446FFF7E9
:1048E0004DF914F1010F054609D0FFF74EFE2418CB
:1048F00005E04C48016821F00401016030BFFFF77A
:104900003DF9401BA042F4D331BD4FF0FF3000F021
:10491000ABBF70470021402001F053B8022001F0E6
:1049200072B8022001F077B8012805D0022805D01E
:10493000102805D101F0A0BC01F0A0BC01F0A2BC80
:1049400070470000F8B5384C324F04F580752E885A
:10495000B6F5807F3BD238780D2835D14FEA040177
:1049600059A001F08DF91EA1204601F015FE04F5B5
:10497000827620B958A001F083F92C4814E019A1DF
:10498000204601F009FE28B955A001F079F94FF051
:10499000B05009E014A1204601F0FEFD48B900BF67
:1049A00051A001F06DF922486860304601F0FEFD2B
:1049B00003E021464EA001F063F94FF480712046D8
:1049C000FFF76CF9002601E0A055761C2E803946D1
:1049D00001B0BDE8F040174B01220020FEF734BCC7
:1049E000535731005357320053573300104000588B
:1049F00050000058040C0058FECAFECA9008005827
:104A00003C0003200828004008000058800400589B
:104A1000342500204C270020BB5A0008D08600080F
:104A2000002004E010ED00E06C21002004000016DE
:104A30000100001645490008576972656C6573737B
:104A4000204669726D77617265206275696C6420B9
:104A500025640A004655532076657273696F6E208F
:104A600025642E25642E25640A0000003E3E3D3D4F
:104A700020534843495F5355425F4556545F434F67
:104A800044455F52454144590A0D00003E3E3D3DBC
:104A900020574952454C4553535F46575F52554E38
:104AA0004E494E47200A00003E3E3D3D20444247CD
:104AB0004D43555F47657444657669636549443D78
:104AC00020256C78200A0D0072656365697665643F
:104AD0002025730A00000000535731204F4B0A0075
:104AE000535732204F4B0A00535733204F4B0A0085
:104AF0004E4F54205245434F474E495A4544204358
:104B00004F4D4D414E44203A2025730A00000000CD
:104B1000F8B504460025ACB104F13406307910B97B
:104B20002046FEF781F80F4F384600F021F838682C
:104B300040F001103860204600F007F83560012190
:104B4000317100E001252846F2BD10B50021064A6A
:104B5000064B00EB8104491C06296360E261F8D32F
:104B600010BD0000000C0058FF140008C714000816
:104B7000002101604FF03F1242603F238360704785
:104B800038B5040001D1012032BD94F8210028B9C4
:104B9000002184F820102046FEF720F9022084F836
:104BA00021002068C168CA0637D4CA214162532057
:104BB0002268506200F036F801001AD12168DFF84F
:104BC00098008A6802408A60226893686068216958
:104BD0000343A0690B43034393602068E1680161CC
:104BE00020680169A26841EA02410161204600F0A3
:104BF00059F801000BD12168CA6C92089200CA646E
:104C00002368DD6CE16962690D431543DD64FF21B2
:104C100022680300516204D100E00020012184F8E1
:104C2000211032BD20461BE038B504460B482168F0
:104C3000C860FEF7A3FF05462068C168880608D44F
:104C4000FEF79CFF401B40F2E9318842F4D3032079
:104C500032BD002032BD0000BFFF8FFF5FFF0100AB
:104C600070B5044600252068C1684A0618D4C1689A
:104C700041F08001C160FEF781FF06460AE0FEF7C1
:104C80007DFF801B40F2E931884203D3042084F881
:104C9000210001252068C168480601D42800EED013
:104CA000284670BD38B5044600252068C16821F04B
:104CB0008001C16020688168880607D42046FFF71C
:104CC000B3FF18B1042084F821000125284632BD25
:104CD00010B5040001D1012010BD607A20B9002177
:104CE00021722046FEF75DF80220607221680A6892
:104CF000606822F0200202430A602068016841F0E7
:104D000004010160012060720021E160002010BDFB
:104D100010B500F184010A78012A01D1022010BDEA
:104D200001220A7024234B60026813681468640827
:104D3000640014600022426623F0005300680360A0
:104D400020224A6000230B70002010BD70B500F0D7
:104D50001FF801D1022070BD00F020F822F060425F
:104D600009E070B500F014F801D1022070BD00F028
:104D700015F822F0606211438160204600F01CF8B3
:104D8000206806602021696000222A70002070BD22
:104D9000044604F184052878012870470120287012
:104DA00024226A6020680668026852085200026085
:104DB000206882687047000030B5416E11B9012249
:104DC000012114E0026800BF0BA49168D2F808200A
:104DD0000BA3490E01F00701520FA55C645C9A5CBD
:104DE000595CED00E40095FBF2F294FBF1F16830C0
:104DF0004280018030BD0000010101030701000075
:104E0000080402040801010120B501460648074DC7
:104E100000E00838C2798A4218BFA842F9D18A4214
:104E200018BF002020BD00BFF873FF1F0070FF1FD8
:104E30000D48002101604160704710B500F007F88F
:104E40005C6800F009F85C6082F3108810BDEFF335
:104E5000108272B6044B704719B1012902D1044384
:104E600070478443704700006C270020DFF854151A
:104E70000A6892B200E00246086880B28242FAD123
:104E80007047F0B5DFF84055DFF840352E7818222E
:104E900004465443B0421C4404D128786870627DB3
:104EA0002A700FE0267D607D94F815C003F1150788
:104EB0005643062807F806C004D0267D143312FB9B
:104EC00000F29E54012020732A78062A02BF00298E
:104ED0004FF0FF30E860F0BD10B5DFF8EC44E0685B
:104EE00010F1010F0ED0FFF7C1FFE16881422FBF23
:104EF000E268E168E2888A182179101AE27848436A
:104F0000D04000E0002080B210BD2DE9F047DFF86E
:104F1000C084DFF8C004D8F8006001684A0502D5F3
:104F2000F0684107FCD4B068DFF89C74DFF89CA4FB
:104F300020F48060B0604FF018093D780AF1080055
:104F400019FB05F14458FFF7C7FF844202D2002441
:104F5000012105E039894118A14203D23C89002191
:104F6000B97013E00122241ABA700FE019FB05F59D
:104F70000AF108035F59874226BF5959091A0021CF
:104F80000AF1080251510AEB05014D7D062DEDD1C4
:104F9000DFF83474A0B238B9FFF768FFF860032077
:104FA000BDE8F047FEF751BE022802DAF878012882
:104FB00000D0641EF0684107FCD5F06800F06CF882
:104FC000F06000F051F9DFF80C04C16864F30F01E0
:104FD000C160FFF74BFFF860D8F80000816841F42A
:104FE00080618160AFF30080BDE8F0872DE9F84370
:104FF000EFF3108472B6DFF8D853DFF8D0332A68A5
:10500000CA205062532151629068DFF8BC1320F42B
:105010008060906018200E78374647431F4497F809
:105020000CC0BCF1020F26D1D7F80080D7F8109041
:105030008878E8B17A7B012A0AD101213046FFF74E
:1050400020FF84F310887968304600F013F904E0FB
:1050500084F31088304600F0C7F82868CA214162FE
:105060005322426231464246484601F0ADFA0EE014
:10507000FFF74BFF09E0D0684107FCD5D06800F08E
:105080000BF8D0604FF40020086084F31088FF22F2
:1050900028684262BDE8F183DFF83C1300F080002D
:1050A00060F490607047F8B5C94CCA4D2168CA22B7
:1050B0004A6253234B624FF6FF7C2A6842F020027B
:1050C0002A602A68AB68AD681B0C03F07F03C5F348
:1050D0000E055B1C6D1C6F1E1E4602F0070216FBC0
:1050E00007F6C2F10402A6F5A076D640B64F664593
:1050F0002CBFA7F808C03E81FA703B71FD80B74A0B
:10510000136843F400231360B54B1D6845F4002574
:105110001D6070BB0120B8704FF0FF31F9600020B6
:10512000AA49002301F10C0418255FFA80FC15FB45
:105130000CFC401CC6B204F80C30062EF5DB062031
:105140003870A34C2068816821F480618160C16857
:1051500001F0800161F49061C16003204FF40021EF
:10516000D160FEF77DFD2068816841F48041816057
:1051700005E0C868410544BF0320FEF766FD2168CD
:10518000FF204862002203210320FEF716FDBDE840
:10519000F2400320FEF72EBD2DE9F0410446002524
:1051A000EFF3108672B61827DFF820C20CF10C0E50
:1051B00007FB05F81EF8080010B16D1C062DF5DB85
:1051C000062D0CD06F430CEB07000127077386F305
:1051D00010880461427303600D70002002E086F3C2
:1051E00010880120BDE8F081F8B50446EFF3108582
:1051F00072B60320FEF709FD754E7A493768CA205A
:1052000078625323224618207B6242438B5C022B38
:1052100021D100212046FFF734FE6B480178062992
:1052200014D16C4801684A0502D5F8684107FCD4DE
:10523000B86820F48060B860F8684107FCD5F86869
:10524000FFF72AFFF86000F00FF804E0407888428A
:1052500018BFFFF75AFE3168FF2048620320FEF7AF
:10526000C9FC85F31088F1BD4FF4002008600320CD
:10527000FEF7F6BC2DE9F84F04468A46182521466C
:10528000524E69437718387B022804BF2046FFF747
:10529000ABFFEFF3108872B60320FEF7B6FCDFF821
:1052A0003091D9F80000CA214162532242620220A3
:1052B0003873C7F808A0C7F804A0DFF80CA19AF863
:1052C0000000062808D100F075F878754FF0FF311E
:1052D000CAF80C10002056E0FFF7FEFDB968091867
:1052E000B96006F10803B9689AF800206A439A5831
:1052F00091422AD39AF8002004E006F1150E6A4381
:105300001EF8022006F1150315FB02FC13F80C3001
:10531000062B06D006F1080C6B435CF8033099426B
:10532000EBD21146694306F1150E1EF80130062B2B
:1053300005D006F1140C15FB03F50CF805407B7540
:105340003A7506F1150254541DE09AF800109AF8C7
:1053500000C0614515FB01F20FD006F1140B06F1F8
:10536000150C1BF8023015FB03F50CF80540797598
:105370003B7506F114018C5403E006F114037975B2
:105380009C5400F017F89AF800109AF801208A420D
:1053900002D0FFF7BAFD02E0B968081AB860FF2032
:1053A000D9F8001048620320FEF724FC88F3108827
:1053B000BDE8F18F9AF800108AF801108AF80040D1
:1053C000704700002828004010270020A02300205C
:1053D00034250020082800400C0800580008005818
:1053E00080080058AC2300203E4900E03E4981B0CF
:1053F0000A6802430A60096808400090009801B0FA
:105400007047F0B585B0FFF7C3F8FFF7C3F837482A
:10541000016841F480310160002601F0F2F81421A6
:105420006846FEF73BFC002500240021304A02EBD1
:10543000C102907988B11368B3F1904F0BD02D4F12
:10544000BB4205D02C4FBB4207D19088044304E0F7
:105450009288154301E090880643491C2629E5DB24
:10546000012101910020032231000290039211D00A
:1054700000960120FFF7B8FF0120FFF7B7FF69464C
:105480004FF09040FEF792FE002231464FF09040E0
:10549000FEF74DFF280010D000950220FFF7A4FF73
:1054A0000220FFF7A3FF134E69463046FEF77EFE4B
:1054B000002229463046FEF73AFF200010D0009423
:1054C0000420FFF791FF0420FFF790FF0A4D694683
:1054D0002846FEF76BFE002221462846FEF727FFEE
:1054E00005B0F0BD4C0000584C0100589008005821
:1054F0003C8B0008000400480008004800B587B055
:105500004FEA0D0009A11C22FBF7C8FE00F07BF951
:10551000684600F065FB07B000BDFEF709BE134604
:105520000A4601460020FDF7A7BE0000000000006B
:1055300000000000000000003C8B00082800032051
:105540002C00032026040400464981B00A68024367
:105550000A60096808400090009801B07047000098
:1055600078B585B0044600F078F80220FFF7ECFF2C
:105570003FA13D4E31F814500095012101910022C8
:10558000022102920391694656F82400FEF70EFEAE
:1055900000F002F806B070BD56F82400002229463B
:1055A000FEF7C5BE10B500F00FF8BDE810400122AF
:1055B000FEF7BDBE10B500F007F8BDE810400022B0
:1055C000FEF7B5BE0000000029A4274B34F81010E8
:1055D00053F820007047000030B585B004460D46F2
:1055E00000F03BF8200008BF042004D0012C18BFB5
:1055F000022C02D10820FFF7A7FF2900DFF86C205A
:105600001DA00ED1002130F814000191009001235B
:1056100002210293039100F01BF80120FFF75DF9CE
:1056200014E0012D12D130F8140000904FF404134F
:105630000295019300F00CF811A0045D00220F21E7
:1056400060B2FEF7BAFA60B2FEF7D4FA05B030BD28
:10565000694652F82400FEF7A9BD142100226846CD
:1056600001F00CB84C000058502100205C210020B3
:1056700020000100020000001000010002000000F4
:105680000A06070001F085B86D486E49016001F116
:105690002002426001F13003836001F140020262A6
:1056A00001F14803436201F15002C26001F1580365
:1056B000036101F17402426101F178038361843175
:1056C000C16101F084B838B504465F4D284601F049
:1056D000F5F85B494868A1680160E2685B49C2600F
:1056E0004160856001F08FF859482AE080B5544840
:1056F0004268136801211972406801F08CF800209B
:1057000002BD38B5524C504D04E000F041F800980D
:1057100021688847284601F0D4F80028F5D031BD2B
:105720004B494868004738B504464A4D284601F0C1
:10573000C5F84349C868A1680160456001F070F888
:1057400045482168016062684260002032BD80B532
:105750003B48C268136810211972C06801F06BF8E9
:10576000002002BD36483C4AC168C3681168186809
:10577000084738B5384C374D04E000F009F8009878
:1057800061688847284601F09CF80028F5D031BDB3
:105790006946284601F0BEB838B504462F4D284664
:1057A00001F08CF82E4801F089F825480069A168BD
:1057B0008160E268C26005612168016062684260E0
:1057C000216941616269826131BD80B50146244829
:1057D00001F08AF8BDE802400FF2090001F039B883
:1057E0000000000038B5164C1D4D06E0FFF7D0FF55
:1057F00000992069006901F077F8284601F061F806
:105800000028F3D031BD10B5164C204601F056F8F3
:105810000B4948690460BDE8104001F033B81CB57D
:10582000104C06E06946204601F074F8009801F03B
:1058300083F8204601F045F80028F3D013BD00009E
:1058400000000320B8090320580A03209C08032005
:105850007C270020600A032084270020480A0320B8
:1058600074270020500A03202DE9F84F7D4CDFF803
:10587000F8912569284020614FF0FF3AA068009018
:105880004FF0010B6669E768D4F8188019E0626888
:105890000BFA01F122EA01016160666880476068E5
:1058A00006406660E06901F048F8A068009066690B
:1058B000E768D4F81880E169206A0BFA01F108431F
:1058C0002062009822693840104250D016EA080F32
:1058D0004DD1002007EA020100E0401C54F83030AE
:1058E0001942FAD054F8301004EBC003394058681C
:1058F0000A40104208BFC3F804A0A068D4F820C032
:1059000059686CEA010C20EA0C0012EA000118BF89
:105910000A4608B94FF0000C5868C4F820C010407F
:1059200000F0A4F8E061EFF3108172B60BFA00F218
:10593000A068D2431040A060012004EBC003401EC9
:1059400053F808CC02EA0C0C43F808CCF5D181F3EB
:105950001088E06900F0F2FFE169202903D259F8CC
:105960002100002893D1002000F0E9FFA9E7C4F846
:105970001CA0A069064213D100F0E2FFEFF31086ED
:1059800072B6A2686169E068236902401A4202BFE8
:10599000A0690142FEF7BDFF86F3108800F0D1FF39
:1059A0002561BDE8F18F38B5144600F006F82E49A0
:1059B00041F8204085F3108831BDEFF3108572B6B1
:1059C00054E030B5EFF3108272B6264B9C68044366
:1059D0009C6053F83150284343F8310082F310881B
:1059E00030BDEFF3108172B61E4AD36823EA00007F
:1059F00005E0EFF3108172B61A4AD3681843D060FD
:105A000081F310887047EFF3108172B6154A53691D
:105A100018435061F4E72DE9F041124DEE69044658
:105A2000374616F1010F0EBF0026012000FA06F6D8
:105A3000D5F81880AC6103E02146304600F082FFC3
:105A400068692042F8D0EF61EFF3108072B669699F
:105A500021EA04046C6180F31088C5F81880BDE861
:105A6000F081000020210020B4240020B0FA80F052
:105A7000C0F11F00C0B270477FB50C464E4D616843
:105A80004E4E28626962281D00F060FF2468746031
:105A900006F1080000F012FF012000F069F8012073
:105AA0003070696841B10FF2ED020FF2F10300921C
:105AB00001930294684688477FBD1FB53F4C04F1AF
:105AC000080000F0FEFEF8B92078E8B1694604F15C
:105AD000080000F01FFF3848016A49B100980290A1
:105AE00001228DF8042001A888479DF8040000E0F9
:105AF0000120207018B10098FFF767FE04E00099BC
:105B000004F1080000F0E6FE04F1080000F0D9FE00
:105B100028B9207818B104F10800FEF7FBFE1FBD7C
:105B20002DE9F04105460E4690461C46002000F047
:105B30001FF8224F7868A0F80950C67232464146D5
:105B40000C30FBF7ABFB1C4A01201070002152699E
:105B50000020904748F2E800FEF7E3FE79688A7873
:105B6000D21C04F10800FBF799FBBDE8F0410120CD
:105B700010B51149124C496A20B901B1884700217A
:105B8000217010BD0120207011B1BDE81040084700
:105B900010BD00000020FEF7C1BE000010B5014698
:105BA000064C04F1080000F09FFE04F10800BDE877
:105BB0001040FEF7AFBE0000E8260020302700208E
:105BC00049270020FFF7ACFF9DF80E0005B000BD8F
:105BD000F8B500F10C026B462F214FF66640F1E755
:105BE000F8B500F10C026B460F214FF66840E9E76B
:105BF000F8B502466B4610214FF67540E2E7F0B566
:105C00001C491D4B0A681D49C2F30D0201EB8201BC
:105C10000D682A689A4205D16969AA69EB69EC683E
:105C20002D6905E02E4631697269B3697468B568FB
:105C30000E0E06700F0C47700E0A86700272C1F3CA
:105C4000031601F00F010171C670110E4171160C9F
:105C5000110AC171220C210E8172C272240A290E0E
:105C60002A0C86714372047341738273C5730020DA
:105C7000F0BD00003C400058B95646A90000032082
:105C80000EB41EB5024605A801900024009401AB95
:105C90000121044878440C30FAF753FA03B010BCE1
:105CA0005DF810FB99350000F8B596B0DFF8704745
:105CB00007A821463C22FBF7F1FADFF868670FF2EC
:105CC000C1770FF2A57000960197694600F048FE73
:105CD00001210220FFF7B1F8DFF84C270021042052
:105CE000FFF761FE07A8FFF773FF38B1014604F123
:105CF0003C00FFF7C5FFFEF758FA03E004F174001B
:105D0000FFF7BEFF0DF116000021018004F58C7035
:105D1000FFF7B6FF00F0F8FE010004D004F5A27012
:105D2000FFF7AEFF03E00FF2F470FFF7A9FFDFF813
:105D3000FC06DFF8FC56016811F1010F0ED0426835
:105D40002974120A090A6974110A4068EA74A8746D
:105D5000120C29756A7505F1100606E00020FFF7A0
:105D600053F8060008BF0FF6000632460621002051
:105D700000F052FF28B1014604F5BA70FFF780FF2A
:105D800010E004F5EC70FFF77BFF3078029071783B
:105D90000191B0780090F3783279717904F50B7045
:105DA000FFF76EFF70790FF2C8722872317969724D
:105DB000F078A872B178E972707828731820317879
:105DC0006973102100F028FF28B1014604F51A700C
:105DD000FFF756FF03E004F53070FFF751FF0FF2B5
:105DE000A0721021082000F017FF28B1014604F529
:105DF0004270FFF745FF03E004F55870FFF740FFDE
:105E00001821012000F01EFF28B1014604F56A7038
:105E1000FFF736FF03E004F57A70FFF731FF00F07B
:105E200063FF28B1014604F58360FFF729FF03E013
:105E300004F24C40FFF724FF06A80DF11A0101906F
:105E4000009105AB07220021012001F03CF928B1A7
:105E5000014604F58E60FFF713FF03E004F594603C
:105E6000FFF70EFF0FF2D460BDF81A100090072361
:105E7000BDF81400002200F0F3FF0DF116000090B1
:105E80000223BDF81810BDF81400002200F0E8FF4E
:105E900002220221002000F08DFE28B1014604F20A
:105EA000C440FFF7EDFE03E004F5A060FFF7E8FE55
:105EB000DFF880650120307001F0A8F828B10146B4
:105EC00004F22C50FFF7DCFE03E004F26C50FFF705
:105ED000D7FE08213171012000217070F17010206F
:105EE00001217071B1700022DFF84C0510210823E8
:105EF000B06004920390029201910093012200236A
:105F00000121012001F096F828B1014604F29C50CD
:105F1000FFF7B6FE03E004F5BD60FFF7B1FEB07811
:105F200060B101F02EF928B1014604F22460FFF7B8
:105F3000A7FE03E004F26460FFF7A2FE04F294609F
:105F4000FFF79EFE01F0AAF900204FF6FF7186F8D8
:105F50008000F18201200FF211420021FFF723FDA2
:105F60000FF24D4200210220FFF71DFD062000F038
:105F700088FE28B1014604F19C00FFF781FE03E092
:105F800004F1E000FFF77CFE00200121287669760D
:105F900001F0F6F90FF20943002206F18101002019
:105FA000FFF7FAF80FF20143002206F18201002008
:105FB000FFF7F2F80021318380202884A021698432
:105FC000012000F061F917B0F0BD00002DE9F047A5
:105FD0002DED028B044684B06178DFF85854DFF869
:105FE0005074DFF85894052905F1800A05D03E2940
:105FF0001CD0FF2900F09C802FE1A088E98A88420C
:106000000CD10022EA828AF800204846FFF738FEC9
:10601000A279A18809F12C00FFF732FE012000F0DF
:1060200033F901203877E98AF9837CE0E0780A26A1
:10603000012809F19C089FED8E8B3ED0032802D0E9
:106040000C2816D009E109F16800FFF719FEB4F831
:106050000B0046430196B4F809500095B4F80700C8
:10606000FBF7BEFC53EC182BFBF7C8FC00F0FBF869
:10607000F3E009F58470FFF703FE207900280CBFD8
:106080000FF210400FF21840FFF7FAFDE88A03AA5A
:106090000DF10D0100F066FD10B10FF21440C9E0E2
:1060A00009F59C70FFF7ECFD9DF80C209DF80D1094
:1060B00009F5AE70FFF7E4FDCFE09AF80100FFF7B5
:1060C00093F8B4F8051009F5C070FFF7D9FD607AB0
:1060D0000290A17A0191E07A0090237B627BA17B00
:1060E00009F5E470FFF7CCFDB4F8130046430196C0
:1060F000B4F811000090B4F80F00FBF771FC53ECFA
:10610000182BFBF77BFC00F0AEF89AF8000004288F
:106110000CBF062005208AF800000021B4F8050015
:106120003977F883E88207F11C0001F023F994E045
:10613000B4F80300001F00F080804FF47F71401A14
:1061400018D0401E5FD0401E17D0401E25D0801EA4
:1061500026D0801E6CD0401E31D0401E35D0401E4F
:1061600030D040F2F631401A5FD040F20E41401A72
:106170006CD072E009F506705CE009F51270FFF76B
:106180007FFDE88AAE4900F084FF010018BF09F5E1
:106190001C7032D109F529704CE009F5337049E0E3
:1061A00009F53E70FFF76CFDE88A01F006F818B1BA
:1061B000014609F5477020E009F553703AE009F50A
:1061C0005D7037E009F5687034E009F57470FFF729
:1061D00057FDD4F8071000BF0FF2F420FFF750FD71
:1061E000D4F80710C1A0FFF74BFDE88A012101F0A8
:1061F00012F828B1014609F20440FFF741FD2CE0F6
:1062000009F2544016E009F29C40FFF739FDE179AC
:1062100021B900BFBBA0FFF733FD04E0227A09F5E6
:106220009960FFF72DFD7DA004E00120787614E051
:1062300009F20450FFF724FD0FE00120FFF7B2F947
:106240009AF802000A21FFF715F806E009F22C502F
:10625000FFF716FDE88A00F039FE04B00120BDEC1E
:10626000028BBDE8F08702460B464046FFF708BDAB
:10627000000000000000F43F01F09DB80021022062
:10628000FFF79FBB704700002DE9F84787B0044631
:10629000674F012807BF3E8CB7F822904FF4C866BD
:1062A0004FF47A69DFF88CA1DFF898810AF1800554
:1062B0006878FEF799FF022C10D12878012818BFC2
:1062C00002280BD100F03EFE010003D04046FFF74C
:1062D000D7FC03E008F14C00FFF7D2FC0020069049
:1062E00005900AF1190204925FF008029AF818006A
:1062F000A7A1039002910192002300932C704A46BB
:106300003146002000F030FE28B1014608F194002B
:10631000FFF7B6FC03E008F1CC00FFF7B1FC39460B
:106320000E2000F007FF01000AD0012C0CBF08F17D
:10633000F80008F5967008B0BDE8F047FFF7A0BC7C
:10634000012C0AD108F5B270FFF79AFC68783E4933
:1063500008B0BDE8F047FEF78DBF08F5C67008B07D
:10636000BDE8F047FFF78CBC10B50120FFF722F91C
:10637000304C94F88000052811D000F0E3FD002196
:1063800084F8801008B1314805E000BF6DA0FFF728
:1063900077FC00BF6DA0BDE81040FFF771BC10BDD9
:1063A00000210120FFF70DBB0120FFF703B900001A
:1063B0007CB5204D95F88000012818BF00282CD00E
:1063C0001B48417E012928D10022017E204C4276C3
:1063D000491C8A1802F0FE02891A0176F7EE040AB7
:1063E000C9B200EB81004FF4FA7690ED090AE88A11
:1063F0000096C0EE200AFDEEE00A10EE902A92B25E
:106400000023114601F008F8002814BF204604F1CB
:106410002800BDE87640FFF733BC73BD0A000000DA
:10642000BC7A0008AC0803209F6900088075FF1F34
:10643000F42000203024002007B201007C810008F5
:1064400040E201008089000846E001003491000824
:106450001090000800210420FFF7B3BA0120FFF7D5
:10646000D2BA0120FFF7D7BA10B50446616801F12E
:10647000080001F007F800B10120207010BD0000F5
:1064800010B1012803D070473F20FFF7AABA3F2080
:10649000FFF7AFBA737461747573206F6B200A00D5
:1064A000737461747573206E6F6B200A00000000B6
:1064B0003D3D3E3E206863695F6C655F7265616467
:1064C0005F706879203A206661696C0A0D000000EF
:1064D00020202020202D206E756D657269635F7607
:1064E000616C7565203D20256C640A002020202009
:1064F000202D204865785F76616C7565203D2025EC
:106500006C780A0020202020202D205061697269BB
:106510006E6720537563636573730A00202053759B
:1065200063636573733A206863695F72657365744A
:1065300020636F6D6D616E640A000000503250532D
:106540005256310020200D0A0D0000002A2A205347
:10655000544F50204144564552544953494E4720C8
:106560002A2A20200D0A0D006C7AD8AC5772000040
:10657000123456789ABCDEF0123456789ABCDEF0AB
:10658000FEDCBA0987654321FEDCBA098765432131
:10659000095032505352563110F8012B11F8013B7B
:1065A0000AB19A42F8D0D01A704700000068054935
:1065B000C0F300425201012300F01F0003FA00F073
:1065C00088507047080800581047000038B5EFF3AE
:1065D000108472B6274D6946281D01F099F8694666
:1065E000281D01F0F0F838B184F31088BDF80010D0
:1065F000214AFEF794FF31BD0120287084F31088F2
:1066000031BD80B5FEF789FF0221009100231948B2
:1066100000F124014FF48052001D00F05DFF01BD28
:1066200000BFF8B514460025EFF3108610F1010FF6
:106630001ED001281CBF02284FF0FF3518D1BCB175
:10664000254672B60B4F012392B2381D00F059FF58
:1066500000281CBF3978002908D000223A7086F340
:106660001088A1B2044AFEF75AFF01E086F31088B1
:106670002846F2BD08100020CD6500084018491CCE
:106680001CBFB1F1010100F8012DF9D170470000E4
:10669000C0680840884201D101207047002070473F
:1066A000C0690840884201D101207047002070472E
:1066B00010B5794C02212046FFF7F2FF38B160682F
:1066C000C043810703D5FFF754F8022018E00121E9
:1066D0002046FFF7E5FF38B16068C043C10703D526
:1066E000FFF70FF801200BE008212046FFF7D8FF45
:1066F00038B16068C043010703D5FFF790F8082060
:10670000A06010BD10B5644C02212046FFF7C0FF09
:1067100070B96068C04382030AD500F035F841F4CF
:106720000031616080F31088BDE81040FFF71AB8AF
:1067300008212046FFF7ACFF88B96068C043020318
:106740000DD500F021F841F40021616080F310883C
:106750005249086880474FF40022A26010BD2021F2
:106760002046FFF795FF70B96068C04382020AD5E2
:1067700000F00AF841F40011616080F31088BDE870
:106780001040FEF7CDBF10BDEFF3108072B6616808
:106790007047434881B0016841F48011016000688E
:1067A00000F48010009000983E48016841F40071A8
:1067B00001603D48026842F40072026040BF20BFA1
:1067C0003A48016841F40041016001B0704780B56A
:1067D0003748016841F480110160006800F48010BE
:1067E000009000982C48016841F0010101600268A6
:1067F00042F4803202602C20FDF7FCF9BDE8024033
:106800002D20FDF7F7B9EFF3108072B629490A6819
:10681000520852000BE028494FF48030086070475E
:10682000EFF3108072B623490A6822F002020A6070
:1068300080F3108870471F484FF400314160EFF338
:10684000108172B6026822F40032026081F310886F
:10685000704738B50446104D08212846FFF718FF49
:1068600058B10E480460EFF3108072B6696821F4E5
:106870000021696080F3108831BDA0474FF40020EB
:10688000A86031BDEFF3108072B60A490A6822F0A1
:106890000802CCE700000000000C005894270020FC
:1068A0005001005820080058D40800580C04005823
:1068B00050000058040C0058080C0058006040605C
:1068C0007047EFF3108172B6026882420CBF01205C
:1068D00000201CE0EFF3108272B603680B60486082
:1068E00001600868416024E0EFF3108272B608602E
:1068F00043684B604160486801601AE0EFF3108123
:1069000072B642680368136002684368536081F39B
:106910001088704710B5EFF3108472B602680A60F1
:106920000168FFE70846FFF7E9FF84F3108810BD10
:106930000B6082F31088704770477047704770474C
:1069400070477047C043FEF78FBF00000249034AFB
:1069500001600261704700BF275700084F570008C9
:106960007FB50C46654D6168654E28626962281DD9
:1069700000F074FF246805F12800FFF79FFF7460A2
:1069800006F10800FFF79AFF01203070696829B10D
:106990000FF2351200920294684688477FBD1FB5FA
:1069A000574C04F10800FFF78CFFF8B92078E8B1E4
:1069B000694604F10800FFF7ADFF5048016A49B18C
:1069C0000098029001228DF8042001A888479DF8C4
:1069D000040000E00120207018B10098FEF7F5FED9
:1069E00004E0009904F10800FFF774FF04F10800C7
:1069F000FFF767FF28B9207818B104F10800FFF706
:106A000029FD1FBD2DE9FC410446002000F051F88E
:106A10002088B4F80280394F60F38F280120387045
:106A2000002537484068A168E268C272A0F8098072
:106A3000D2B20C30FAF732FC7A690021002090477C
:106A400048F2E800FFF70DFD13E0B6F801004045FD
:106A50000CD10099887AC21E6069D2B28242C8BF46
:106A6000024620696261F11CFAF718FC307800B127
:106A7000012507F12800FFF724FF90B9694607F1C7
:106A80002800FFF747FF009901F10B06497A0F290B
:106A9000DBD17188414502D1216930780870707866
:106AA000E5E72800CCD0012000F003F80020BDE885
:106AB000F6811249496A08B921B1084700291CBF6B
:106AC000012008477047000010B50146487A0F289A
:106AD00018BF0E2807D10B48FFF706FFBDE810408E
:106AE0000020FFF7BBBC064C04F10800FFF7FCFEDA
:106AF00004F10800BDE81040FFF7ACBCB826002048
:106B000020270020E026002000B587B000F018F80C
:106B10000321ADF80410ADF806100122069200F032
:106B200075F800284CBFFF209DF8000007B000BD9D
:106B300007910492CDF818D0002102A8FFF762BF98
:106B400000208DF800001822002101A800F096BE58
:106B500009220021684600F091BE1822002102A8F7
:106B600000F08CBE70B5C8B006460C46154605222E
:106B7000FFF7EFFFADF82060FFF7EFFF3021ADF832
:106B80000A10082002210591ADF80800052108AA85
:106B9000FFF7CEFF002848BFFF2009D49DF8000072
:106BA00030B99DF80300207000209DF80410297072
:106BB00048B070BD18B5C7B000F018F8312200F029
:106BC00009F800F023F800284CBFFF209DF80000D2
:106BD00048B010BDADF806200821ADF8041003221E
:106BE000049207A9039101220692704700248DF8B0
:106BF0001C008DF8004007A8417082700021182207
:106C000001A800F03BBE07AA06910392CDF814D06C
:106C1000002101A8FFF7F6BE18B50C46C7B000F07A
:106C20004AF800F05CF807AA03923F200C2100F01C
:106C300039F800F020F800284CBFFF209DF8000034
:106C400048B010BD00B5C7B000F042F80F2200F008
:106C500007F800284CBFFF209DF8000047B000BD9A
:106C6000ADF806203F21ADF804100222049207A9D6
:106C7000039101220692CDF814D0002101A8FFF75C
:106C8000C1BE00B5C7B00023ADF81C0000F025F868
:106C90001822FFF7E5FF00284CBFFF209DF80000F9
:106CA00047B000BDADF80400ADF806100122A41CE9
:106CB000069204947047114600228DF800208DF84A
:106CC0001C008DF81D4022460DF11E0000F0D0BDC5
:106CD00000238DF81C008DF81D108DF8003018224F
:106CE000002101A800F0CABD00B587B000208DF8D2
:106CF000000000F0E6F840F2011200F015F900F093
:106D000006F900284CBFFF209DF8000007B000BD29
:106D10002DE9F841C7B00446884616461F460128AB
:106D200008BF022003D002280CBF102000200DF164
:106D30001D031D1800F035F8012C8DF81C4002D001
:106D4000022C1AD01BE00224224641460DF11D0000
:106D500000F08EFD2E706F7000F0B3F800F0ABF80D
:106D60004FF4817100F017F8E41C0692049400F0CF
:106D7000CEF8002805D5FF2009E01024E4E797208D
:106D800005E09DF8000010B94E9800F064F8FFE7A8
:106D900048B0BDE8F081ADF80400ADF8061003225C
:106DA000704703220021684600F068BD2DE9F64FC8
:106DB0000C46C7B005469946012C08BF022003D0F7
:106DC000022C0CBF102000200DF11F031E18FFF72E
:106DD000E8FF012CADF81C508DF81E4002D0022CAB
:106DE0002CD02DE00227DDF85881DDF854B1DDF814
:106DF00050A1539D529C48993A4600F058F8A6F885
:106E00000090B470F57086F804A086F805B086F896
:106E1000068000F056F83F204FF4827107AAADF8C3
:106E20000400ADF8061003920A3703220497069275
:106E300000F06DF8002805D5FF2009E01027D2E703
:106E4000972005E09DF8000010B9579800F003F86E
:106E500049B0BDE8F08FBDF80110018000207047F7
:106E600078B5C7B01D464C9B00F057F800268DF84A
:106E700000608DF821502A4619460DF1220000F0DD
:106E8000F7FC00F01EF800F016F84FF4837100F0E4
:106E900053F8AD1D00F039F800284CBFFF209DF8D5
:106EA000000049B060BD0023ADF81C0070470DF133
:106EB0001F0000F0DDBC07AA03923F2070478DF849
:106EC00000301822002101A800F0D8BC00B5C7B0DE
:106ED000FFF7E9FFFFF7F3FF40F2251200F009F892
:106EE00000F015F800284CBFFF209DF8000047B0C7
:106EF00000BDADF806203F21ADF804100222049237
:106F000007A9039101220692704706920495CDF8D5
:106F100014D0002101A8FFF775BDADF81C00ADF835
:106F20001E108DF820207047ADF806203F21ADF8E7
:106F30000410012206927047ADF80400ADF8061067
:106F40000122704700B587B000F033F900F090F9E6
:106F5000812200F028F900F099F900284CBFFF20A9
:106F60009DF8000007B000BD2DE9F04FC7B0944672
:106F7000DDF840E1519ADDF85481DDF858A1539CC9
:106F8000ADF81D108DF81C008DF823204FF0000B7C
:106F9000ADF81FC08DF821308DF822E000F021F807
:106FA00000F029F826F8098FA6F802A000F060F991
:106FB00000F04AF98321ADF80400ADF8061000F0A6
:106FC0000AF800F065F900284CBFFF209DF800008A
:106FD00047B0BDE8F08F4F4401220D370692049769
:106FE0007047D7B252998DF800B009ADD2B209A856
:106FF000ED1900F03DBC2C7007AE54995FFA84F98E
:10700000F619E2B2681C4E4400F032BC00B5C7B0BD
:1070100000F0A4F800F02AF900F0E1F8852200F071
:10702000E5F800F034F900284CBFFF209DF800007F
:1070300047B000BD2DE9F841C7B04FF0000800F09F
:1070400022F84E9C4F9D509E529F51988DF8008083
:107050000DF123018DF81F308DF820408DF821505F
:107060008DF8226008608DF8277000F001F9862203
:1070700000F099F80C2200F006F900284CBFFF2020
:107080009DF80000AFE08DF81C0007A841708270E9
:10709000704700B5C7B000F069F88DF800300DF109
:1070A0001E001822016001A8002100F0E7FB8822E1
:1070B00000F039F800F0E7F800284CBFFF209DF8F9
:1070C000000047B000BDF8B5C8B005460E461746EB
:1070D0001C46072200F046F808A8467087708DF815
:1070E000205000F093F88A21ADF80A103F200321C8
:1070F0000591ADF80800072100F07FF8002848BF8F
:10710000FF200ED49DF8000058B94F994E98BDF855
:1071100001202280BDF803300380BDF805000880FF
:10712000002049B0F0BDADF806203F21ADF80410B5
:107130000622704718B5C7B000F07BF800F098F849
:1071400000F082F88E2100F083F800F0A1F800280A
:107150004CBFFF209DF8000048B010BD00238DF803
:107160001C0070470021684600F088BB0023ADF882
:107170001C007047ADF806203F21ADF80410022234
:10718000704700B587B000F014F800F071F8922253
:1071900000F009F800F07AF800284CBFFF209DF8B5
:1071A000000007B000BDADF806203F21ADF8041087
:1071B000704700208DF80000704700B5C7B0FFF79A
:1071C000D5FF00F053F89522FFF7D4FF00F05BF8ED
:1071D00000284CBFFF209DF8000047B000BD3F21B4
:1071E000ADF80410704748B0BDE8F081ADF8062056
:1071F00007A9039101220492704708AA07910492FB
:10720000CDF818D0002102A8FFF7FCBB18220021FE
:1072100002A800F033BB00B5C7B000F022F8A522E9
:1072200000F02BF800284CBFFF209DF8000047B06D
:1072300000BD002304468DF800308DF81C40224626
:107240000DF11D0000F014BB07AA03923F20704708
:10725000ADF80400ADF806100122641C06920494F7
:1072600070470023ADF81C008DF81E108DF800301B
:107270001822002101A800F001BBADF806203F2133
:10728000ADF804100322049207A90391012206928B
:10729000CDF814D0002101A8FFF7B4BB06480021A7
:1072A0000171017200F0F4BA03490A7941F8220031
:1072B0000879401C0871704740270020F8B5074640
:1072C0004E4C39784E4E4CA521B1012906D00329E8
:1072D0000FD0F1BD01202070304603E00020207067
:1072E00006F13400FEF7CCFC2846BDE8F240FEF77C
:1072F000C7BC79680878D0B9487801280AD100203D
:10730000FEF750F906F16800FEF7BAFC00F02FF81E
:107310000120A0707968487848B9FEF74BF906F16A
:107320009000FEF7ADFC00F022F80020A070786815
:10733000017801291AD1407801280AD10020FEF7EE
:1073400031F906F1B800FEF79BFC00F010F80120BF
:10735000A0707968487848B9FEF72CF906F1E0008A
:10736000FEF78EFC00F003F80020A070F1BD284667
:10737000FEF786BC0078012808BF00F00DB8704702
:1073800080B50FF23D0200210820FEF70CFB1B48E0
:1073900000210170BDE8014080B50020FEF70AF928
:1073A00019A0FEF76DFC1548012100224170827082
:1073B000C170027101BD00210820FEF702BB000070
:1073C00010B50E4C20792178401E8041C00F2071ED
:1073D0000C4859B1FEF754FC07A0FEF751FCE11C24
:1073E000BDE810404FF6426000F03FBBBDE81040E2
:1073F0004030FEF745BC0000200A0D006427002045
:107400006C8C0008148E00084C454420424C5545B5
:10741000204F46460A0000005CB5C7B00026ADF814
:107420001C0007A84C9C41808280ADF8223004816A
:107430008DF8006000F021F83F21ADF8041040F213
:1074400081120F210291ADF806200A21049107AAAA
:1074500001210691039200F008F800284CBFFF209C
:107460009DF8000049B050BD0692CDF814D000211F
:1074700001A8FFF7C7BA8DF800301822002101A833
:1074800000F0FCB970B504466078FF2802BFB4F87C
:10749000030000F47F40B0F5406F13D100250D4E7E
:1074A00000E06D1C3279E8B290420BD2E9B256F896
:1074B0002110204688470100F3D003D0022806D0CF
:1074C000012070BD2046BDE87040FEF77FBD002062
:1074D00070BD00BF4027002030B5039C016000252F
:1074E0000021C16041610561A1078561426003819E
:1074F000047704D5008910B14FF0FF3030BD002073
:1075000030BD2DE9F84F054684B0288900260C4689
:10751000B046B44600280CBF022700276969A9B10C
:1075200090B92869D5F804E0461C764528BFA6EB3B
:107530000E06D5F800E01EF800001EF8066000EB0D
:107540000626B61CB6B203E0064600E000B10246CD
:107550002869D5F80CE0704523BFD5F80490A9EB55
:107560000000801B002007EB020E03FB0EF9814593
:1075700032BF0020B0FBFEFA0EFB1A00C0B28742F9
:1075800009DA95F81CE05FEACE7A48BF84465FEAE4
:107590008E7048BFBC46100000F0B6806868494451
:1075A00061448842C0F0B080C14692460294ADF872
:1075B0000020039357E082073DD52889002840F03A
:1075C000A3802A681A44260A02F8024C2246D5F8FB
:1075D0000080984408F8016CA04628681844F9F720
:1075E0005DFE6969A86961186961401C019CA86118
:1075F00018E09CB3287FC207DDD5288948B92868E0
:107600001844FF2100F8021CFF222968194401F8E0
:10761000012C4FF00008686924186C6154462889D1
:10762000002340B92A681470200A29684870022390
:107630006869801C68613E190020B6B228616CB18F
:10764000C3440298D5F800C000EB0B0122460CEBB6
:107650000300F9F723FE686924186C6109F1010938
:10766000A869401CA861039A68682969914543D2BA
:10767000711881422CBF081A0846286103462889E0
:10768000A8B92968BDF80000C8545B1C686883422B
:1076900028BF1B1ABDF800002968000AC8545B1CEB
:1076A0006868834228BF1B1A6869801C68616C681F
:1076B000BDF80010E41A8C4288BF0C4602980AFB01
:1076C00009FB00EB0B01AAEB04005445019003D029
:1076D0008FD2287F00288CD12E682246F018F9F727
:1076E000DDFD686920186861A046BDF80060019C56
:1076F000BE190023B6B2A2E77A1882422CBF171A2D
:107700007F182868C01900E0002005B0BDE8F08FA0
:10771000F0B502460023108900280CBF0225002581
:1077200054690026002C4DD058B9D36857685E1CA8
:10773000BE4228BFF61B1768FB5CBE5D03EB062646
:1077400000E00646137F03F00303012B22D14FF61E
:10775000FF739E4208BF002808D0D36817699F4274
:1077600018D2B8B15768FB1A834213D25668D3684F
:10777000A41B1C1954610024D46050B9012E94BF7D
:10778000C6F10106012610680378805D03EB002630
:1077900000E00646D2F80CC0576805EB0C00B84272
:1077A00028BFC01B136803445069AC19001B05D0E7
:1077B000B4446544BD4228BFED1BD560506190695B
:1077C000401E906146E0F0B5024600231089002873
:1077D0000CBF0225002554690026002C3AD0D3683E
:1077E0001C4658B957685E1CBE4228BFF61B176876
:1077F00017F803C0BE5D0CEB062600E00646177FB7
:1078000007F00307012F1DD14FF6FF77BE4208BFD7
:10781000002807D150680024012894BFC0F101005E
:1078200001200AE017699F420CD258B15768FB1A31
:10783000834207D20024064604E013681E78185CD1
:1078400006EB002650682B1983422CBF1D1A2D19F8
:107850001068431901B10E801846F0BD0249034A71
:1078600001600261704700BFC7560008ED5600086E
:1078700010B50446F9F712FD204610BD10B50446B8
:1078800010460A4601462046FEF7F8FE204610BD87
:1078900080B500F001F900F000F900F0FFF800F009
:1078A000FEF800F0FDF800F0FCF800F0FBF800F046
:1078B000FAF800F0F9F800F0F8F800F0F7F800F046
:1078C000F6F800F042F800F0F3F800F0F2F800F0FB
:1078D000F1F800F0F0F8BDE8014000F0EDB800006C
:1078E00038B5054684B068780024FF2802BFB5F893
:1078F000030040F60141884224D16449B5F80700ED
:107900008B88821E9A4209D1687B0124C20752BF2C
:107910008DF8004000218DF8001010E04988401ECD
:1079200088420FD15A48FEF7ABF903208DF80000CA
:1079300005F10D02B5F80B108DF80810019268469C
:10794000FFF7BCFC204605B030BD10B58AB05148E9
:107950004E4CFFF7A9FC8F218DF81810E522B321BA
:107960008DF819208DF81A10D5222E218DF81B20A4
:107970008DF81C107F224A218DF81D208DF81E10D5
:1079800098222A218DF81F208DF8201048227A2174
:107990008DF821208DF82210CC2240218DF8232053
:1079A0008DF82410FE2200218DF82520ADF8261038
:1079B00000940623012206A90220FFF7A9F900F08E
:1079C00034F8412200F025F8A21C00F010F806213E
:1079D00000F016F800F029F8422200F01AF8221DF3
:1079E00000F005F8102100F00BF80AB010BD059268
:1079F0000491029119208DF818000A230022704783
:107A00000393019200910223208806AA0221FFF726
:107A1000CDB98DF823108DF82420FE2100228DF899
:107A20002510ADF8262001217047ED2182228DF826
:107A300019108DF81A20AE21ED228DF81B108DF84B
:107A40001C2021214C228DF81D108DF81E209D2117
:107A500041228DF81F108DF82020452122228DF81B
:107A600021108DF822208E2170471CB502469220ED
:107A70004FF64264A24207D1044800910223818854
:107A800000880022FFF7ECF916BD00008C270020CB
:107A9000E4900008E178000870477047704770472D
:107AA000704770477047704770477047704770471E
:107AB0007047704770477047704700000000000033
:107AC00000000000000000000000000000000000B6
:107AD000440008004005020112299C00F401000046
:107AE000FFFFFFFF480101000020D80600037206D7
:107AF000000000000D00040020204661696C202079
:107B0000203A20534843495F43325F424C455F4926
:107B10006E697420636F6D6D616E642C2072657385
:107B2000756C743A203078253032780A0D000000E8
:107B30002020537563636573733A20534843495F4C
:107B400043325F424C455F496E697420636F6D6DCF
:107B5000616E640A0D00000020204661696C2020DF
:107B6000203A206163695F68616C5F7365745F725E
:107B70006164696F5F61637469766974795F6D616F
:107B8000736B20636F6D6D616E642C20726573750D
:107B90006C743A2030782578200A0D002020537527
:107BA00063636573733A206163695F68616C5F73D7
:107BB00065745F726164696F5F616374697669742B
:107BC000795F6D61736B20636F6D6D616E640A0D1B
:107BD000000000003D3D3E3E20537461727420421F
:107BE0006C655F4863695F4761705F476174745F8C
:107BF000496E69742066756E6374696F6E0A000061
:107C000020204661696C2020203A206863695F72F9
:107C10006573657420636F6D6D616E642C20726591
:107C200073756C743A2030782578200A00000000C3
:107C300020204661696C2020203A206163695F68DA
:107C4000616C5F77726974655F636F6E6669675FA9
:107C50006461746120636F6D6D616E64202D2043DB
:107C60004F4E4649475F444154415F5055424C494D
:107C7000435F414444524553535F4F464653455436
:107C80002C20726573756C743A2030782578200A40
:107C9000000000002020537563636573733A206110
:107CA00063695F68616C5F77726974655F636F6E4B
:107CB0006669675F6461746120636F6D6D616E6496
:107CC000202D20434F4E4649475F444154415F5069
:107CD00055424C49435F414444524553535F4F46DC
:107CE000465345540A00000020205075626C6963B9
:107CF00020426C7565746F6F7468204164647265AE
:107D000073733A20253032783A253032783A25306C
:107D100032783A253032783A253032783A25303286
:107D2000780A000020204661696C2020203A2061FA
:107D300063695F68616C5F77726974655F636F6EBA
:107D40006669675F6461746120636F6D6D616E6405
:107D5000202D20434F4E4649475F444154415F49DF
:107D6000525F4F46465345542C20726573756C74B0
:107D70003A2030782578200A000000002020537532
:107D800063636573733A206163695F68616C5F77F1
:107D9000726974655F636F6E6669675F6461746161
:107DA00020636F6D6D616E64202D20434F4E4649F8
:107DB000475F444154415F49525F4F4646534554E3
:107DC0000A00000020204661696C2020203A2061D2
:107DD00063695F68616C5F77726974655F636F6E1A
:107DE0006669675F6461746120636F6D6D616E6465
:107DF000202D20434F4E4649475F444154415F4543
:107E0000525F4F46465345542C20726573756C740F
:107E10003A2030782578200A000000002020537591
:107E200063636573733A206163695F68616C5F7750
:107E3000726974655F636F6E6669675F64617461C0
:107E400020636F6D6D616E64202D20434F4E464957
:107E5000475F444154415F45525F4F464653455446
:107E60000A00000020204661696C2020203A206131
:107E700063695F68616C5F7365745F74785F706F6E
:107E80007765725F6C6576656C20636F6D6D616E92
:107E9000642C20726573756C743A203078257820D4
:107EA0000A0000002020537563636573733A2061F4
:107EB00063695F68616C5F7365745F74785F706F2E
:107EC0007765725F6C6576656C20636F6D6D616E52
:107ED000640A000020204661696C2020203A20615D
:107EE00063695F676174745F696E697420636F6D45
:107EF0006D616E642C20726573756C743A203078F5
:107F00002578200A00000000202053756363657304
:107F1000733A206163695F676174745F696E697445
:107F200020636F6D6D616E640A0000002020466161
:107F3000696C2020203A206163695F6761705F6926
:107F40006E697420636F6D6D616E642C2072657351
:107F5000756C743A2030782578200A0020205375FB
:107F600063636573733A206163695F6761705F691A
:107F70006E697420636F6D6D616E640A00000000AD
:107F800020204661696C2020203A206863695F6C7C
:107F9000655F7365745F64656661756C745F706856
:107FA0007920636F6D6D616E642C20726573756CE2
:107FB000743A2030782578200A000000202053757C
:107FC00063636573733A206863695F6C655F7365AB
:107FD000745F64656661756C745F70687920636F47
:107FE0006D6D616E640A000020204661696C20207E
:107FF000203A206163695F6761705F7365745F69D0
:108000006F5F6361706162696C69747920636F6D21
:108010006D616E642C20726573756C743A203078D3
:108020002578200A000000002020537563636573E3
:10803000733A206163695F6761705F7365745F693C
:108040006F5F6361706162696C69747920636F6DE1
:108050006D616E640A00000020204661696C20207A
:10806000203A206163695F6761705F7365745F6167
:10807000757468656E7469636174696F6E5F72654B
:1080800071756972656D656E7420636F6D6D616E7B
:10809000642C20726573756C743A203078257820D2
:1080A0000A0000002020537563636573733A2061F2
:1080B00063695F6761705F7365745F61757468653C
:1080C0006E7469636174696F6E5F726571756972F0
:1080D000656D656E7420636F6D6D616E640A00007E
:1080E00020204661696C2020203A206163695F6727
:1080F00061705F636F6E6669677572655F776869E7
:1081000074656C69737420636F6D6D616E642C208F
:10811000726573756C743A2030782578200A0000F7
:108120002020537563636573733A206163695F67E9
:1081300061705F636F6E6669677572655F776869A6
:1081400074656C69737420636F6D6D616E640A0091
:108150003D3D3E3E20456E6420426C655F4863694C
:108160005F4761705F476174745F496E6974206630
:10817000756E6374696F6E0A0D0000003E3E3D3DF2
:10818000204843495F444953434F4E4E4543544969
:108190004F4E5F434F4D504C4554455F4556545FDD
:1081A000434F44450A00000020202020202D20437A
:1081B0006F6E6E656374696F6E2048616E646C6586
:1081C0003A202020307825780A20202020202D20D9
:1081D000526561736F6E3A20202020307825780A2E
:1081E0000D0000003E3E3D3D204843495F4C455F49
:1081F000434F4E4E454354494F4E5F5550444154B2
:10820000455F434F4D504C4554455F53554245568D
:10821000545F434F44450A0020202020202D204356
:108220006F6E6E656374696F6E20496E74657276E9
:10823000616C3A202020252E3266206D730A2020A2
:108240002020202D20436F6E6E656374696F6E2051
:108250006C6174656E63793A2020202025640A20C1
:10826000202020202D205375706572766973696F08
:108270006E2054696D656F75743A202564206D73A6
:108280000A0D00003D3D3E3E204843495F4C455F9E
:108290005048595F5550444154455F434F4D504CF1
:1082A0004554455F5355424556545F434F4445201E
:1082B0002D2000003D3D3E3E206863695F6C655F98
:1082C000726561645F706879202D20537563636502
:1082D0007373200A000000003D3D3E3E2050485987
:1082E00020506172616D202054583D2025642C205F
:1082F00052583D202564200A0D0000003E3E3D3DC1
:10830000204843495F4C455F434F4E4E45435449D7
:108310004F4E5F434F4D504C4554455F535542457A
:1083200056545F434F4445202D20436F6E6E656366
:1083300074696F6E2068616E646C653A20307825D0
:10834000780A000020202020202D20436F6E6E65CB
:108350006374696F6E2065737461626C69736865BC
:108360006420776974682043656E7472616C3A208A
:10837000403A253032783A253032783A2530327812
:108380003A253032783A253032783A253032780A38
:10839000000000003E3E3D3D204143495F474150C3
:1083A0005F4C494D495445445F444953434F5645FA
:1083B0005241424C455F56534556545F434F4445E6
:1083C000200A00003E3E3D3D204143495F47415069
:1083D0005F504153535F4B45595F5245515F565370
:1083E0004556545F434F4445200A00003D3D3E3E04
:1083F000206163695F6761705F706173735F6B6554
:10840000795F72657370203A204661696C2C207226
:108410006561736F6E3A20307825780A000000009D
:108420003D3D3E3E206163695F6761705F706173CF
:10843000735F6B65795F72657370203A2053756363
:1084400063657373200A00003E3E3D3D2041434971
:108450005F4741505F415554484F52495A41544932
:108460004F4E5F5245515F56534556545F434F44FC
:10847000450A00003D3D3E3E204143495F47415093
:108480005F424F4E445F4C4F53545F5653455654D2
:108490005F434F4445200A003D3D3E3E20616369F5
:1084A0005F6761705F616C6C6F775F7265626F6E42
:1084B00064203A204661696C2C20726561736F6E8E
:1084C0003A20307825780A003D3D3E3E20616369C0
:1084D0005F6761705F616C6C6F775F7265626F6E12
:1084E00064203A2053756363657373200A000000AB
:1084F0003E3E3D3D204143495F4741505F4144443A
:10850000525F4E4F545F5245534F4C5645445F5651
:10851000534556545F434F4445200A003E3E3D3D7F
:10852000204143495F4741505F4B455950524553A5
:10853000535F4E4F54494649434154494F4E5F564D
:10854000534556545F434F44450A00003E3E3D3D6F
:10855000204143495F4741505F4E554D4552494385
:108560005F434F4D50415249534F4E5F56414C551A
:10857000455F56534556545F434F44450A0000003B
:108580003D3D3E3E206163695F6761705F6E756D62
:10859000657269635F636F6D70617269736F6E5F3F
:1085A00076616C75655F636F6E6669726D5F796524
:1085B000736E6F2D2D3E594553203A204661696CEC
:1085C0002C20726561736F6E3A20307825780A002E
:1085D0003D3D3E3E206163695F6761705F6E756D12
:1085E000657269635F636F6D70617269736F6E5FEF
:1085F00076616C75655F636F6E6669726D5F7965D4
:10860000736E6F2D2D3E594553203A205375636389
:10861000657373200A0000003E3E3D3D2041434902
:108620005F4741505F50414952494E475F434F4D6C
:10863000504C4554455F56534556545F434F44454F
:108640000A00000020202020202D2050616972693E
:108650006E67204B4F200A20202020202D205374AD
:10866000617475733A20307825780A202020202004
:108670002D20526561736F6E3A20307825780A009C
:108680003E3E3D3D204143495F4741505F50524F80
:10869000435F434F4D504C4554455F5653455654E8
:1086A0005F434F4445200D003E3E3D3D2041434940
:1086B0005F474154545F494E4449434154494F4EEA
:1086C0005F56534556545F434F4445200D0000000C
:1086D000576972656C657373204669726D77617254
:1086E000652076657273696F6E2025642E25642E71
:1086F00025640A003E3E3D3D20534843495F5355A3
:10870000425F4556545F4552524F525F4E4F544957
:1087100046200A0D000000003E3E3D3D20534843E8
:10872000495F5355425F4556545F424C455F4E5634
:108730004D5F52414D5F555044415445202D2D20F1
:10874000424C45204E564D2052414D204841532029
:108750004245454E205550444154454420425920FD
:1087600043505532200A000020202020202D205385
:108770007461727441646472657373203D20256C6A
:1087800078202C2053697A65203D20256C640A00EE
:108790003D3D3E3E20534843495F5355425F455659
:1087A000545F4E564D5F53544152545F5752495493
:1087B00045203A204E756D6265724F66576F726440
:1087C00073203D20256C640A000000003E3E3D3DC4
:1087D00020534843495F5355425F4556545F4E56B8
:1087E0004D5F454E445F57524954450A0D00000005
:1087F0003D3D3E3E534843495F5355425F455654C5
:108800005F4E564D5F53544152545F45524153455C
:10881000203A204E756D6265724F66536563746FC2
:108820007273203D20256C640A0000003E3E3D3DF1
:1088300020534843495F5355425F4556545F4E5657
:108840004D5F454E445F45524153450A0D000000BF
:108850003E3E3D3D20534843495F5355425F455698
:10886000545F4552524F525F4E4F5449462057492C
:10887000544820524541534F4E202578200A0D0080
:108880003E3E3D3D20534843495F5355425F455668
:10889000545F4552524F525F4E4F544946205749FC
:1088A000544820524541534F4E202D204552525F8F
:1088B000424C455F494E4954200A00003E3E3D3D32
:1088C00020534843495F5355425F4556545F4552D4
:1088D000524F525F4E4F54494620574954482052F8
:1088E0004541534F4E202D20424C45204552524F7A
:1088F00052200A003E3E3D3D204442474D43555FD5
:108900004765745265766973696F6E49443D2025E9
:108910006C78200A0D0000003E3E3D3D2053484348
:10892000495F5355425F4556545F434F44455F523C
:1089300045414459202D204655535F46575F5255B7
:108940004E4E494E47200A0D000000003E3E3D3D80
:1089500020534843495F5355425F4556545F434F48
:1089600044455F5245414459202D20554E455850AD
:1089700045435445442043415345200A0D0000001F
:108980003D3D3E3E206163695F6761705F73657462
:108990005F6E6F6E5F646973636F76657261626C40
:1089A00065202D2053746F70204164766572746960
:1089B00073696E67204661696C6564202C2072655E
:1089C00073756C743A202564200A00003D3D3E3EDC
:1089D000206163695F6761705F7365745F6E6F6E5E
:1089E0005F646973636F76657261626C65202D20C8
:1089F0005375636365737366756C6C792053746F1C
:108A000070706564204164766572746973696E671D
:108A1000200A00003D3D3E3E206163695F67617052
:108A20005F7365745F646973636F76657261626CAE
:108A300065202D206661696C2C20726573756C74DD
:108A40003A2030782578200A000000003D3D3E3E67
:108A5000206163695F6761705F7365745F646973E8
:108A6000636F76657261626C65202D205375636358
:108A70006573730A000000003D3D3E3E2053746163
:108A800072742046617374204164766572746973F0
:108A9000696E67204661696C6564202C207265737D
:108AA000756C743A202564200A0D00003D3D3E3E61
:108AB000205374617274204C6F7720506F77657209
:108AC000204164766572746973696E6720466169D6
:108AD0006C6564202C20726573756C743A20256473
:108AE000200A0D003D3D3E3E205375636365737360
:108AF0003A20537461727420466173742041647625
:108B00006572746973696E67200A0D003D3D3E3ED3
:108B100020537563636573733A20537461727420D4
:108B20004C6F7720506F7765722041647665727460
:108B30006973696E67200A0D00000000000000489C
:108B40000100000000000048010000000000004893
:108B50000100000000000048010000000000004883
:108B60000100000000000048010000000000004873
:108B70000100000000000048010000000000004863
:108B80000100000000000048010000000000004853
:108B90000100000000000048010000000000004843
:108BA0000100000000000048010000000000004833
:108BB0000100000000000048010000000000004823
:108BC0000100000000000048010000000000004813
:108BD0000100000000000048010000000000004803
:108BE00001000000000000480100000000000048F3
:108BF00001000000000000480100000000000048E3
:108C000001000000000000480100000000000048D2
:108C100001000000000000480100000000000048C2
:108C200001000000000000480100000000000048B2
:108C300001000000000000480100000000000048A2
:108C40000100000000000048010000000000004892
:108C50000100000000000048010000000000004882
:108C60000100000000000048010000002D2D2050F0
:108C70003250204150504C49434154494F4E2053AB
:108C80004552564552203A204E4F54494649434199
:108C900054494F4E20454E41424C45440A00000085
:108CA0002D2D20503250204150504C4943415449C1
:108CB0004F4E20534552564552203A204E4F54496C
:108CC0004649434154494F4E2044495341424C4543
:108CD000440A00002D2D20503250204150504C4964
:108CE000434154494F4E2053455256455220203A55
:108CF000204C454431204F4E0A0000002D2D2050BD
:108D00003250204150504C49434154494F4E20531A
:108D1000455256455220203A204C454431204F467A
:108D2000460A00002D2D20503250204150504C4911
:108D3000434154494F4E205345525645522031200D
:108D40003A204C454431204F4E0A00002D2D205032
:108D50003250204150504C49434154494F4E2053CA
:108D600045525645522031203A204C454431204F3F
:108D700046460A002DE9FC4D016800F10805490846
:108D800005EBC102019200F10803406800F0010800
:108D900003EBC106400806EBC0000021002205E0FD
:108DA000009B9F4218BF17F9014B0BD1019B9D42BD
:108DB00006D02C686B682F19FB1800930835EFE775
:108DC000BDE8F68D009B9F4205D12B68EF186B68BC
:108DD000FB180093083517F801AB91420FD1834679
:108DE0005E4508BFF8F767FF31685FEA080018BF03
:108DF000494470680A1808369142F1D05846002C50
:108E000001F801AB02D5641CE7D1C9E7641ED9D5CE
:108E1000C6E700002D2D20503250204150504C49C3
:108E2000434154494F4E2053455256455220203A13
:108E300020494E464F524D20434C49454E54204206
:108E40005554544F4E203120505553484544200A24
:108E5000200000002D2D20503250204150504C4910
:108E6000434154494F4E20534552564552203A20D3
:108E700043414E275420494E464F524D20434C49C2
:108E8000454E54202D20204E4F54494649434154CD
:108E9000494F4E2044495341424C45440A2000006A
:108EA00001000000030000000500000001000000B8
:108EB00001000000060000000A0000002000000081
:108EC0000200000004000000080000001000000084
:108ED00040000000800000000001000000020000CF
:108EE000A0860100400D0300801A060000350C002A
:108EF00040420F0080841E0000093D0000127A00ED
:108F00000024F40000366E010048E801006CDC0229
:108F10000000000000000000000000000000000051
:108F20001349002008604FF0B0411248026842F433
:108F3000700202604FF4E023086840F0010008600E
:108F40008B600A680C4802400C480A60036823F0F2
:108F5000050303604268520852004260002208483C
:108F6000C8600861086820F4802008608A61704742
:108F700008ED00E088ED00E0FBFEF6FA94000058F2
:108F8000001004227047FEE7FEE7FEE7FEE77047A9
:108F90007047704700F026B8FCF728B80848FAF781
:108FA0008FB80848F8F753BF0748F8F750BFFDF7E8
:108FB0007FBBFDF7A7BB00F01DB80448FAF780B8E7
:108FC000A82500200C23002078220020082600205D
:108FD0001020FBF7B1B90120FBF7AEB90220FBF777
:108FE000ABB900000248416802788A1842607047B5
:108FF000442100200449C8680A6882430A60486026
:1090000000F004B800000000001500587047000090
:10901000424C455F5356435F4C324341505F436F70
:109020006E6E5F55706461746528292C20466169F5
:109030006C6564200D0A0D00424C455F5356435F3A
:109040004C324341505F436F6E6E5F557064617484
:109050006528292C205375636365737366756C6C82
:1090600079200D0A0D00000080B50D4A7A44303297
:109070000C4B7B442E339A4203D00B49AFF3008054
:1090800002BD8DF80000012269460120FDF7C8FAF3
:10909000012802D19DF8000002BD4FF0FF3002BD53
:1090A000606FFFF75C6FFFF77420002030B400257D
:1090B00012E050F8042BD30744BF4A44521E091F44
:1090C000042942F8045BFAD213468C0744BF15808A
:1090D0009B1CC90748BF1D7050F8041B0029E8D12C
:1090E00030BC70472D2D2047415454203A204C4528
:1090F0004420434F4E46494755524154494F4E2014
:1091000052454345495645440A00000010B50749F9
:1091100079441831064C7C44163404E00A68081D72
:10912000114488470146A142F8D110BD500000000B
:109130009C0000002A2A2053544F50204144564599
:1091400052544953494E47202A2A20204661696CCF
:109150006564200D0A0D00004EF68851CEF2000124
:10916000086840F470000860BFF34F8FBFF36F8F43
:109170004FF00170E1EE100A7047000031FFFFFF71
:10918000300600006C210020700800003C00032025
:1091900000000000E1FBFFFF0200000002000000F1
:1091A00094010000020000002800032014000000C9
:1091B000C5FBFFFF02000000020000007A01000072
:1091C000F3000000081000206411000000000000FF
:1091D000000000000000000000000000010000008E
:1091E00002000000030000000400000000F00DF881
:1091F000002801D0FFF78AFFAFF300800020AFF313
:109200000080FAF7EEFE00F002F80120704700F04F
:1092100001B8000007463846F8F752FDFBE70000AA
:109220000548014603B4684680F30988AFF300801F
:10923000FFF792FFFFF7DAFFA5EDF5FE38B504461C
:109240000D462846FFF710FFA84218BF002420460D
:1092500032BD00000148804701480047218F0008C7
:1092600021920008FFF7FEBFFFF7FEBFFFF7FEBF2A
:10927000FFF7FEBFFFF7FEBFFFF7FEBFFFF7FEBF22
:10928000FFF7FEBFFFF7FEBFFFF7FEBFFFF7FEBF12
:10929000FFF7FEBFFFF7FEBFFFF7FEBFFFF7FEBF02
:1092A000FFF7FEBFFFF7FEBFFFF7FEBFFFF7FEBFF2
:1092B000FFF7FEBFFFF7FEBFFFF7FEBFFFF7FEBFE2
:1092C000FFF7FEBFFFF7FEBFFFF7FEBFFFF7FEBFD2
:1092D000FFF7FEBFFFF7FEBFFFF7FEBFFFF7FEBFC2
:1092E000FFF7FEBFFFF7FEBFFFF7FEBFFFF7FEBFB2
:1092F000FFF7FEBFFFF7FEBFFFF7FEBFFFF7FEBFA2
:10930000FFF7FEBFFFF7FEBFFFF7FEBFFFF7FEBF91
:10931000FFF7FEBFFFF7FEBFFFF7FEBFFFF7FEBF81
:10932000FFF7FEBFFFF7FEBFFFF7FEBFFFF7FEBF71
:10933000FFF7FEBFEC000001810081008100810089
:109340008100810081008100810081008100810015
:109350008100810081008100810081008100810005
:1093600081008100810081008100810081008100F5
:109370008100810081008100BD00044212000801CB
:10938000FD0003BC200020D800032D110008FC00C4
:10939000041B11000801F9001302040101682600F2
:1093A00020B82600206826002068260020FC000344
:1093B00068260020FC0007B8200020A4200020E040
:1093C000001B22150008221500082215000822158E
:1093D0000008221500082215000822150008F8FFD1
:1093E0000BCA1100082215000822150008FAFF0513
:1093F00000000DFF0183DE0005484200007A44F4BE
:1094000000F8FFF0000001F9000010FC001A040051
:1094100048000400480004004800080048000C0010
:1094200048000C004800093D00000000000000005A
:10943000000000000000000000000000000000002C
:0A9440000000000000000000000022
:04000005080092213C
:00000001FF
