:020000040800F2
:1000000008100020217200085D6F00085F6F000873
:10001000616F0008636F0008656F00080000000052
:10002000000000000000000000000000676F0008F2
:10003000696F000800000000AD4000083140000872
:100040003172000835720008397200086B6F0008C1
:100050003D72000841720008B36F0008B96F0008D4
:100060004572000849720008AD6F00084D72000823
:1000700051720008557200086F6F0008597200082D
:100080005D720008617200086572000869720008FC
:100090006D720008717200087572000879720008AC
:1000A0007D72000881720008756F00088572000873
:1000B000897200088D72000891720008957200081C
:1000C000997200089D720008A1720008A5720008CC
:1000D0007B6F0008816F0008A9720008AD720008EC
:1000E000B1720008B5720008B9720008BD7200084C
:1000F000876F00088B6F00088F6F0008C1720008BF
:10010000C5720008C9720008CD720008D1720008DB
:10011000D5720008D9720008DD720008E17200088B
:10012000E5720008E9720008936F0008ED7200089C
:10013000F1720008F5720008F972000838B503463C
:10014000D3F88C0020280AD109B1100001D1012078
:1001500032BD00F006F8BDE8384000F0A9B9022031
:1001600032BD0020D866DFF828431868A0420CD0C2
:100170004068040209D5186850E8004F054644F06D
:10018000806445E800400028F5D118467047216892
:1001900001F1080353E8001F206800F1080221F074
:1001A000400142E80010002870472DE9F041044664
:1001B00040F60F0C2268D669104616EA0C0F076845
:1001C000936804F15C0507F0200006F020010DD1D2
:1001D000002914D010B9D80040F18D80A9690029F8
:1001E00000F045812046BDE8F0410847DFF834C4FF
:1001F00013EA0C0F04BFDFF830E417EA0E0F7AD0D1
:100200005FEAC67E48BF5FEAC75807D54FF0010EC8
:10021000C2F820E06A6B42F001026A63B2070AD5B5
:10022000DA0708D5D4F800E00222CEF820206A6B65
:1002300042F004026A6372070AD5DA0708D5D4F8D7
:1002400000E00422CEF820206A6B42F002026A63CA
:1002500032070DD5002808BF13EA0C0F08D0D4F8D8
:1002600000C00822CCF820206A6B42F008026A63C2
:10027000320509D57F0107D526684FF40062326246
:100280006A6B42F020026A636A6B002A32D031B195
:1002900008B9D80003D5A96909B120468847686B19
:1002A00021688A68510602D410F0280F1DD020461C
:1002B00000F08AF920688168480611D5FFF767FFCA
:1002C000FCD1686A60B10FF271318163686A00F035
:1002D000DFFB00280ED0686A816BBDE8F04108475B
:1002E0002046BDE8F04100F06CBC204600F069FCFF
:1002F00000206863BBE02869012878D1F00676D534
:10030000F90674D510201062226829889068420688
:1003100037D56A6A1368586880B2002828D08842A6
:1003200026DA6880106801688A061AD400F0ABF8F3
:1003300021F4807100F0A3F8F8D100F0ABF8FCD103
:10034000FFF725FFFCD1202028630021296100F060
:100350009AF821F0100100F092F8F8D1686A00F0E4
:1003600061FB0220686129886888091A89B206E061
:1003700088427CD11A68900679D502226A612046AB
:1003800031E06A886888891A00281CBF88B2002872
:100390006DD02246106850E8003F044623F4907365
:1003A00000F067F8F6D1106800F1080400F10803C6
:1003B00054E8004FDFF86802044043E8004000289A
:1003C000F1D102F15C032020186300241C619C61C0
:1003D000146854E8004F156800F028F9F8D102209D
:1003E000586189B21046BDE8F04100F0EBBBF00265
:1003F00009D5590207D54FF4801010622046BDE898
:10040000F04100F0E0BB300609D5390601D41802EE
:1004100005D5E96959B32046BDE8F04108477006A3
:1004200013D5790611D500F02EF821F0400100F027
:1004300026F8F8D104F15C002021C1620022C261DB
:100440002046BDE8F04100F0D9BB300206D5790066
:1004500004D52046BDE8F04100F0E4BBF00148BF00
:10046000002F04D52046BDE8F04100F0DCBBBDE81C
:10047000F08144E800300028704741F0800142E8F4
:10048000001000287047206850E8001F024670479F
:1004900000800040216801F1080353E8001F206834
:1004A000490800F10802490042E80010002870479E
:1004B00030B5034600209965FF2403F15C010A80F2
:1004C0004A8088619868B0F5805F04D1186990B956
:1004D00040F2FF140FE018B9186960B17F2007E0FF
:1004E000B0F1805F06D1186908B97F2403E03F208E
:1004F000888001E000248C800020486322240C6363
:10050000196801F1080555E8001F186800F1080492
:1005100041F0010144E800100028F1D103F15C0131
:100520008868B0F1005F28D18889824225D39A6813
:10053000B2F5805F04BF1869002803D10FF2293299
:100540008A610BE00FF24D248C61186930B100F024
:1005500036F841F48071FFF792FFF8D1196801F184
:10056000080454E8001F186800F1080241F08051A7
:10057000FFF785FFF2D1002030BD9868B0F5805FAD
:1005800004BF186900280CD10FF20D128A61186897
:1005900050E8001F024641F02001FFF770FFF6D13E
:1005A000E9E70FF2A1028A6118690028EFD000F094
:1005B00006F841F49071FFF762FFF8D1DBE71968A4
:1005C00051E8001F1A687047016851E8002F0B4678
:1005D00022F4907243E800210029F5D1016801F16D
:1005E000080301F1080253E8003F0D490B4042E8BF
:1005F00000310029F2D1C16E012909D1026852E807
:10060000002F036822F0100243E800210029F5D1F1
:100610002021C0F88C100022C2664267704700009B
:10062000FEFFFFEF010000102001000424F0100481
:1006300045E8004000287047806A0021A0F85E105D
:1006400000F0BFBA10B500F050F81FD14B6A918886
:10065000846D0B402370816D4B1C00F04CF819D158
:1006600000F050F8FCD100F057F8FCD100F06CF825
:100670000BD10023136100F05DF8FCD10168CB6958
:10068000DC0644BF10230B627AE07EE0886940F00C
:100690000800886110BD000010B500F026F81FD1D9
:1006A0004B6A9188846D0B402380816D8B1C00F018
:1006B00022F819D100F026F8FCD100F02DF8FCD179
:1006C00000F042F80BD10023136100F033F8FCD1A5
:1006D0000168CB69DC0644BF10230B6250E054E094
:1006E000886940F00800886110BD00F15C02016873
:1006F000136B222B7047836551884B1E53805188A2
:1007000000297047026852E8002F036822F49072B3
:1007100043E8002100297047026802F1080454E808
:10072000002F0168520801F10803520043E800213C
:1007300000297047016851E8003F0C4623F0100380
:1007400044E800310029704700F15C022021116368
:100750000023936100215161424B016899420CD002
:1007600049680B0209D5016851E8003F0C4623F0A7
:10077000806344E800310029F5D1116901297047EF
:100780001188BDE8104000F01DBABDE8104000F02F
:100790002BBA00002DE9F84300F004F94BD1A889E9
:1007A00000283AD0B80638D500F0C6F80870A06D19
:1007B000421C00F0B8F817D0F90748BF5FEAC852EA
:1007C00000F0A8F803D5F20701D500F0C3F87807C8
:1007D00003D5F20701D500F0B5F8686B20B12046CB
:1007E00000F0EFF90020686368880028DAD100F093
:1007F000C3F8FCD100F028F8FCD100F0F1F809D1E1
:1008000000F0DEF844BF102101622988204600F084
:10081000D9F902E0204600F0E7F9688868B1A989B3
:1008200088420ADA00F0B2F8FCD17A48A86100F0F8
:1008300099F8FCD101E000F002F8BDE8F18381698C
:1008400041F0080181617047206800F1080200F161
:10085000080152E8002F7048024041E800200028BB
:1008600070470000008000402DE9F84300F09AF83E
:100870004BD1A88900283AD0B80638D500F05CF8EA
:100880000880A06D821C00F04EF817D0F90748BF11
:100890005FEAC85200F03EF803D5F20701D500F038
:1008A00059F8780703D5F20701D500F04BF8686BCB
:1008B00020B1204600F085F9002068636888002890
:1008C000DAD100F059F8FCD1FFF7BEFFFCD100F0FF
:1008D00087F809D100F074F844BF1021016229881B
:1008E000204600F06FF902E0204600F07DF96888AC
:1008F00068B1A98988420ADA00F048F8FCD1474873
:10090000A86100F02FF8FCD101E0FFF798FFBDE8E7
:10091000F183000005D501210162686B40F0010000
:100920006863B8077047A2656888411E69802068BF
:10093000C76917F0070F70472168486AA16D09EA77
:1009400000007047216804200862686B40F00200D4
:1009500068637047216802200862686B40F00400F9
:1009600068637047216851E8001F226841F0200148
:1009700042E8001000287047216851E8001F2268F3
:1009800021F4807142E8001000287047226802F1CB
:10099000080353E8001F083221F0805142E800109C
:1009A00000287047044604F15C052068B5F80490FF
:1009B000C7690146D1F800808668296B22297047F3
:1009C00000212961206850E8001F024621F0100133
:1009D00042E800100028F5D12068C169CA067047B6
:1009E000202028630021A961002068610C4920684B
:1009F00088420CD04068010209D5206850E8001FE9
:100A0000024621F0806142E800100028F5D12869F3
:100A10000128704745060008FEFFFFEF9906000811
:100A20000080004040B100F124014A78022A05D03C
:100A30000420886100220A70012070470268136850
:100A400023F00E0313604A6A136823F48073136063
:100A500000680268520852000260012091F82020CC
:100A6000CB6902F01C02904058608A6AC86A5060E4
:100A7000086B38B10246106820F4807010604A6B31
:100A8000886B50600120487000220A700020704777
:100A900038B500F1240200245178022903D0042043
:100AA0009061012429E001680B6823F00E030B60BC
:100AB00001680D686D086D000D60516A0B6823F4C4
:100AC00080730B60012192F82030D56903F01C037C
:100AD00099406960936AD16A5960116B39B10B46CC
:100AE000196821F480711960536B916B5960012171
:100AF00051701470516901B18847204632BDF8B574
:100B000000F124010426CA69126803681C6891F880
:100B1000205005F01C0506FA05F73A4210D0670789
:100B20000ED51A68940603D41A6822F004021A60DB
:100B300000F03EF8C968002939D0BDE8F440084704
:100B4000022606FA05F73A4213D0A70711D51A680C
:100B5000940605D41A6822F00A021A6001234B7029
:100B600000F026F800220A70896801B3BDE8F4405D
:100B70000847082606FA05F52A4218D0220716D596
:100B80001C6824F00E041C60012291F82030CC690E
:100B900003F01C039A406260012301228A614B70BA
:100BA00000220A70096911B1BDE8F4400847F1BD9F
:100BB00091F82020CB6902F01C0296405E607047DD
:100BC0000000704770477047002800D0704710B58C
:100BD000104C00F004F8BDE81040FFF7AFBA0F4822
:100BE00023600F4B0360704700680D49884204D1B1
:100BF000084A1068002818BF004770470068084975
:100C0000884204D1044A1068002818BF0047704782
:100C100000000000EC430020F0430020B83F00201B
:100C200000380140704770474FF0B040006800F056
:100C3000F000B02888BFB0207047DFF814080068C3
:100C4000000100F0F00070472DE9F041040051D0A0
:100C5000207881064FF0B0453AD5A868E96810F0D1
:100C60000C0001F0030103D00C2808BF012943D177
:100C7000E06900283ED0FFF7D7FF0146606A814255
:100C800011D200F099FB002834D12968606A21F064
:100C9000F001014329606968206A21F47F4141EA3B
:100CA0000021696009E0296821F0F001084300F0A3
:100CB00018FA606A00F080FBE0B900F03BFBDFF857
:100CC00094170860DFF89007006800F0FBFB88B914
:100CD0002078C10762D5A868E96800F00C000828F0
:100CE00001F0030103D00C2808BF03292ED160684E
:100CF000002853D10120F2E1E069B8B1296841F040
:100D0000010100F0D8FA06462868800706D400F0F2
:100D100035FC801B0328F7D30320E0E12868616AD3
:100D200020F0F000084300F0DCF9D1E72868400823
:100D3000400000F0AEFB064628684008C007C7D553
:100D400000F01CFC801B0328F6D3E5E76068B0F5D3
:100D5000803F04D1296841F48031296003E028688C
:100D600020F480302860606858B100F007FC064627
:100D70002868800312D400F001FC801B6528F7D39B
:100D8000CAE700F0FBFB06462868400CC00705D503
:100D900000F0F4FB801B6528F6D3BDE720788107BF
:100DA00015D5A868E96800F00C00042801F00301DB
:100DB00003D00C2808BF022928D1E068002899D068
:100DC0006868216920F0FE4040EA0160686021689F
:100DD000DFF8886611F0180F00F08B80606900283A
:100DE00077D0C806706858D5800730D4716841F054
:100DF0000101716000F0C2FB07467068800726D4CD
:100E000000F0BCFBC01B0328F7D385E7E06870B196
:100E1000296841F4807100F04EFA064628684005C2
:100E2000CED400F0ABFB801B0328F7D374E728680F
:100E300020F4807000F02DFB06462868800AC00769
:100E4000C5D500F09BFB801B0328F6D364E77068D0
:100E500040F0040000F04EF907467068000705D422
:100E600000F08CFBC01B0428F7D355E77068A1691C
:100E700020F4706040EA0120706070684008400013
:100E800000F038F9074670684008C00731D500F017
:100E900075FBC01B0328F6D33EE740F0010000F0CD
:100EA00029F907467068800705D400F067FBC01B6E
:100EB0000328F7D330E7706820F004007060706892
:100EC000C008C00715D500F059FBC01B0428F6D395
:100ED00022E7706820F0040000F00CF90746706803
:100EE000C008C007C9D500F049FBC01B0428F6D3D1
:100EF00012E7207841074CD5DFF86485D8F8000068
:100F0000C1050ED400F040FB00F038FB0746D8F8CE
:100F10000000C10505D400F031FBC01B0328F6D347
:100F2000FAE6A068012804D1306840F00100306082
:100F300010E00528306806D140F0040030603168C8
:100F400041F0010105E0400840003060316821F0C7
:100F500004013160A06841F2893760B100F00EFBF6
:100F600080463068800714D400F008FBA0EB08002E
:100F7000B842F6D3D0E600F001FB80463068400866
:100F8000C00706D500F0FAFAA0EB0800B842F5D386
:100F9000C2E62078410622D5A06A0028B0680ED0AB
:100FA00040F00100B06000F0E9FA0746B068800741
:100FB00015D400F0E3FAC01B0328F7D3ACE64008D1
:100FC0004000B06000F0DAFA0746B0684008C00799
:100FD00005D500F0D3FAC01B0328F6D39CE6E06ADF
:100FE00000287BD0A968EA68022801F00C0161D1D1
:100FF000236B02F00300984202BF02F07000636BA3
:10100000984213D1A36BC2F30620984202BF02F4A8
:101010007810E36B984209D1236C02F0606098422B
:1010200002BF02F06042606C824237D00C2942D08D
:10103000286841013FF55EAE00F028FA06462868B0
:10104000810105D500F09AFA801B0328F7D363E6E7
:10105000EA68DFF81004216B0240606B0A43A16B61
:101060000243E06B42EA0122216C0243606C0A43B6
:101070000243EA60296841F080712960E86840F025
:101080008050E86000F07AFA04462868810125D48F
:1010900000F074FA001B0328F7D33DE628688101AD
:1010A0001CD4286840F080702860E96841F08051C5
:1010B000E960E7E70C293FF41DAE00F0E7F90446CC
:1010C0002868810105D500F059FA001B0328F7D3E1
:1010D00022E6E968DFF890030140E9600020BDE8FE
:1010E000F08128606868216A20F47F4040EA01208E
:1010F00068607047706000F041BA2DE9F843040061
:10110000884600F0B080DFF8645300F0CBF80CD2D2
:1011100000F0CDF8074600F0C5F806D000F02EFA32
:10112000C01B0228F7D90320BAE0207882074FF0CD
:10113000B04711D5B968A06821F0F0010143B9604A
:1011400000F01CFA0646B868C00305D400F016FA91
:10115000801B0228F7D9E6E72078DFF8F4628206E0
:1011600012D53168606921F0F0010143316000F06F
:1011700005FA81463068800306D400F0FFF9A0EB41
:1011800009000228F6D9CEE72078410613D5306849
:10119000A1690009000140EA1110306000F0EEF989
:1011A00081463068C00306D400F0E8F9A0EB0900DE
:1011B0000228F6D9B7E72078420711D5B968E06868
:1011C00021F4E0610143B96000F0D8F90646B8683F
:1011D000800305D400F0D2F9801B0228F7D9A2E7DA
:1011E0002078010712D5B868216920F4605040EAE0
:1011F000C100B86000F0C2F90646B868400305D4E3
:1012000000F0BCF9801B0228F7D98CE72078C107D1
:101210002BD56068022819D13968890323D5BA68AB
:10122000920840EA8200B86000F0A8F90646B86863
:10123000616800F00C00B0EB810F16D000F09EF951
:10124000801B41F289318842F1D36CE7032802D137
:101250003968890103E00028396802D18907DED4A2
:1012600001E04905DBD401201AE0286800F00700FE
:1012700080450BD200F01BF8044600F013F805D0AF
:1012800000F07CF9001B0228F7D94CE700F052F877
:101290007049086000F094F9BDE8F24300F012B91B
:1012A000BDE8F283286800F00700404570472968D0
:1012B000C90848EAC101296000F060B938B54FF0AB
:1012C000B0456C4CA96811F00C0106D1FFF7ACFCDD
:1012D000C0F3031054F8200032BD0429664828D01A
:1012E0000829664A04D12968C90222D4104632BDB1
:1012F000E96801F0030102290CD0032904D129680F
:10130000C90207D4104605E0FFF78EFCC0F30310B6
:1013100054F82000E968EA68EB68C1F30621484305
:10132000C2F30211491C5B0FB0FBF1F05B1CB0FB78
:10133000F3F032BD80B5FFF7C1FF4D49FFE7504ADA
:101340000968C1F3031152F82110B0FBF1F002BD9E
:1013500080B5FFF7EFFF00F008F8C1F3C22112F8E3
:10136000211001F01F01C84002BD4149454A0968EA
:1013700070476F2202603E4A136803F00C0343601B
:10138000136803F0F0038360136803F4E063C36041
:10139000126802F4605202612D4A136803F0F003F0
:1013A00043611268120102F0F00282612F48026864
:1013B00002F007020A60704770B52E49B1282EBFAF
:1013C000CC6AC0F3031051F82040FFF736FC054605
:1013D00000F016F92A49C5F3031251F822102A4ADF
:1013E000B4FBF1F15FF00004B1FBF2F1B0F5007F66
:1013F00030A220461FD100BF27A353F820508D42B2
:1014000016D2401C0328F8D9184D2868C00844EAB1
:10141000C00000F03EF80646286800F00700A04231
:1014200013D000F0ABF8801B0328F5D3032070BD68
:1014300052F82040E8E700BF1BA353F820508D422C
:10144000F6D2401C0328F8D3DEE7002070BD000070
:1014500008010058341200201C120020900000588F
:10146000000400588C80C111FCFFFEEE00400058C3
:1014700008000058C06D00080024F4000048E8018E
:10148000806D00089871000840420F00286820F025
:101490008070286000F072B8120000002400000084
:1014A0003600000040000000060000000C000000B4
:1014B0001000000000000000010000000200000019
:1014C0000300000078B5044689B000F039F81A200E
:1014D00000F0D2F82448254D016841F480210160D4
:1014E00001A9006800F480200090009802A8FFF78E
:1014F00040FFFFF72DFF1E491E4B2960B0FBF3F0A4
:10150000401E40F2E73268600021EA602961A9606C
:10151000284600F0EFF806000FD1284600F0F7F853
:1015200006000AD11A2000F0A7F8102C04D200F00F
:1015300007F81148046000E0012630460AB070BD8B
:10154000002221461A2000F07AB808480068C168D5
:1015500049084900C160704704480068C16841F00B
:101560000101C160704700006000005894420020F3
:101570000048014040420F001C1200200148406812
:10158000704700BF141200200248016841F48071C6
:101590000160704700040058164810B5016841F416
:1015A00080710160032000F040F80020FFF78AFFFF
:1015B0000024002814BF012400F0DBF9204610BDF0
:1015C0000D48806870470C48007870470B480BE066
:1015D0000A48016821F0020101607047074801686C
:1015E00021F0040101607047016849084900016069
:1015F000704700000040005814120020042004E04E
:10160000DFF80800006800F4C0607047000400586C
:101610000901020002D43048815470472F4B02F078
:101620000F021A4402F8041C70472D490A6860F33F
:101630000A2240F2FA5060F31F420A60704770B508
:10164000274B1C68C4F302230124C3F10705052DB1
:101650002EBF0F2504FA05F56D1E1E1D072E34BF83
:101660000023DB1E2940994004FA03F3BDE87040D3
:101670005B1E1A401143CBE7010007D4012200F0A2
:101680001F01184B8A40400943F820207047010091
:101690000BD4012200F01F01134B8A40400943F88C
:1016A0002020BFF34F8FBFF36F8F7047010007D427
:1016B000012200F01F010D4B8A40400943F8202011
:1016C0007047010007D4012200F01F01084B8A4037
:1016D000400943F82020704700E400E018ED00E0E6
:1016E0000CED00E000E100E080E100E000E200E05D
:1016F00080E200E038B5040001D1012032BD00F0E5
:1017000047F818B900F040F800F0BAF926E090F870
:101710003D10012901D001207047022180F83D10C1
:101720000168CA6842F00102CA600168DFF86820F7
:10173000914218BFB1F1804F09D18A68DFF85C107F
:101740001140062918BFB1F5803F05D001680A682D
:10175000084642F0010202600020704702206870D3
:10176000211D206800F0C0F8012028730121A97014
:10177000E87029716871A971E87129726872A9729B
:10178000E8726970002032BD002129702046704740
:1017900004F13C0568787047002C01400700010007
:1017A00070B504462068C5680669B10714D5AA0754
:1017B00012D56FF00201016101222277806910F0D9
:1017C000030F204602D000F05CF903E000F05AF964
:1017D00000F087F800202077700715D56A0713D529
:1017E00020686FF00401016102222277806910F401
:1017F000407F204602D000F044F903E000F042F9B7
:1018000000F06FF800202077300715D52A0713D590
:1018100020686FF00801016104222277C06910F08E
:10182000030F204602D000F02CF903E000F02AF963
:1018300000F057F800202077F00615D5EA0613D5FA
:1018400020686FF01001016108222277C06910F44E
:10185000407F204602D000F014F903E000F012F9B6
:1018600000F03FF80020207706F0010205F00101AA
:101870000A4206D021686FF001020A61204600F09A
:10188000B7F916F4025F08D02A0606D521686FF46E
:1018900002500861204600F0C6F9F00508D52A0676
:1018A00006D521686FF480700861204600F0BCF90D
:1018B000700608D56A0606D521686FF040000861F9
:1018C000204600F0B2F9B0060AD5AA0608D521686C
:1018D0006FF0200008612046BDE8704000F0A6B916
:1018E00070BD204600F0A3B9F0B50368DFF8606072
:1018F000DFF86040DFF86050B04218BFB0F1804FB1
:1019000001BF23F070024B681343B04205D0B0F121
:10191000804F1CBFA842A04203D123F44072CB6881
:1019200013434A698F68C76223F0800313430A6830
:101930008262B0421CBFA842A04201D10969016382
:101940000121026842F00402026041610360F0BDBF
:10195000002C01400048014000440140434981B04F
:101960000A6802430A60096808400090009801B0C4
:10197000704780B54FF40020FFF7F0FF00220F21E1
:101980006FF00100FFF75BFE002200212E20FFF721
:1019900056FEBDE802402E20FFF76EBE0168344AB5
:1019A000914200D0704780B54FF48010FFF7D6FF0A
:1019B000002200212C20FFF742FE2C20FFF75CFEC6
:1019C000002200212D20FFF73AFEBDE802402D2025
:1019D000FFF752BE10B594B004465021684600F09F
:1019E00027F9226823498A420FD14FF400700090F2
:1019F0004FF080510E91684600F034F908B100F0C4
:101A000011F94FF48020FFF7A9FF14B010BD18B5ED
:101A100095B00446502101A800F00AF92268164941
:101A20008A4221D14FF4006001904FF480711191EE
:101A300001A800F017F908B100F0F4F80F48816B25
:101A400041F4004181630021026842F48062026037
:101A50000022006800F48060009000980320FFF7E7
:101A6000EEFD0320FFF708FE16B010BD5000005831
:101A7000000C005800100058002800405800005882
:101A800070477047704770475D4900E05D4981B01D
:101A90000A6802430A60096808400090009801B093
:101AA000704710B5FFF778FD00F058FA00F04DF8D8
:101AB00000F089F8544C5548A06304F1380000F058
:101AC00013FC0420FFF7E2FF0120FFF7DFFF0220F5
:101AD000FFF7DCFF0420FFF7D7FF0120FFF7D4FF5B
:101AE0000220FFF7D1FF00220E210E20FFF7A7FDF5
:101AF0000E20FFF7C1FD00220E213A20FFF79FFDC7
:101B00003A20FFF7B9FD42482060002147F6FF70F8
:101B10000F22E0606160A2602161A161E161616109
:101B2000204600F019FC00220021204600F0BCFCF9
:101B3000384860620021A16204F1240000F036FD03
:101B400000F020FA00F058FAFEE780B59AB048217C
:101B500008A800F06DF81C2101A800F069F8FFF753
:101B600013FD2D48016821F01801016001212B4867
:101B7000026861F34A2202604FF48031006800F489
:101B8000C06000904720009A099101224FF48071B3
:101B90000A920B9112920890402100220C9113920C
:101BA00008A8FFF751F86F2002210190029100224E
:101BB00003920492059206920792012101A8FFF771
:101BC0009CFA1BB000BD80B594B05021684600F06F
:101BD0002FF84FF440524FF48041009211910222AD
:101BE000102112921391684600F03CF815B000BD28
:101BF00000680B49884208BF00F0F8BC704700003D
:101C0000480000584C00005860410020000C00586B
:101C100000280040001000589000005800040058B0
:101C200000480140704770477047704770477047E1
:101C3000002200F0E3BC7047DFF81C130A680309B8
:101C400003F47F2300019A4300F47F2000F081B960
:101C5000DFF804231368010C23EA014343EA00433D
:101C6000136070472DE9F843054600242878DFF813
:101C7000E8624106A0464FF0B04743D5286B70B1EB
:101C8000B0F5800F06D0B0F5000F18BFB0F5400FCB
:101C90002ED035E0F96841F48031F96029E03868E8
:101CA00020F080603860FFF769FC81463868C00E1C
:101CB000C00707D5FFF762FCA0EB09000228F5D9A1
:101CC000032415E000F03CF9A86821F4781100F035
:101CD0002FF981463868000106D4FFF74FFCA0EBCE
:101CE00009000228F6D9EBE73969686901433961CF
:101CF0003CB93168286B21F440010143316001E0B7
:101D00000124A0462868010532D5D6F80880286C41
:101D100008F4407880452AD0FFF736FCB8F1000F70
:101D2000B16805D1286C21F440710143B1601EE017
:101D3000B06840F48030B06021F44071B06820F4A5
:101D40008030B060286C0143B160B068C0070ED528
:101D5000FFF714FC8046B068800708D4FFF70EFC3C
:101D6000A0EB080041F289318842F4D30324A04655
:101D70002878C20705D53168A869890840EA810139
:101D800031602978880705D53168E86921F4406118
:101D9000014331602978C80644BFA86AFFF758FF9D
:101DA0002878810644BFE86AFFF752FF2878410788
:101DB00044BF286AFFF740FF2878010744BF686ADC
:101DC000FFF73AFF2868C20535D53168686B21F006
:101DD000406101433160696BB1F1006F00F0A2F81E
:101DE000686BB0F1806F26D1396821F0806100F016
:101DF000A4F804463868C00EC10707D5FFF7BEFB3C
:101E0000001B0228F6D94FF0030814E000F098F800
:101E1000E86821F0606100F08BF804463868010141
:101E200005D4FFF7ABFB001B0228F7D9EBE73969B4
:101E3000686901433961296888051CD5A86BB0F130
:101E4000804F18BFB0F1004F00D020B9316821F0A9
:101E50004041084309E0316821F04041316020F001
:101E60008050326822F0406210433060A86BB0F1BD
:101E7000C05F00F057F82868420538D53168E86B34
:101E800021F0405101433160E96BB1F1005F03D1B2
:101E9000F86840F48030F860E86BB0F1805F26D1DC
:101EA000396821F0806100F048F804463868C00EB7
:101EB000C10707D5FFF762FB001B0228F6D94FF0D8
:101EC000030814E000F03CF8286921F0604100F0BC
:101ED0002FF804463868010105D4FFF74FFB001BBB
:101EE0000228F7D9EBE73969686901433961296844
:101EF000C80405D5F168686C21F440410143F160E4
:101F0000296888040BD5796AE86C21F03001014317
:101F10007962796AA86C890840EA81017962404651
:101F2000BDE8F28303D1F86840F08070F860704734
:101F300001433961396841F080613960FFF71EBBA8
:101F40003869696820F4FE4040EA01203861396947
:101F500070471043086070478800005880B5BA4A3F
:101F60004FF400411160002000F062FB48B180791D
:101F7000B649B74A0A600B6823F47C5343EA00234E
:101F80000B6001BD80B5B348016841F050010160AC
:101F9000CA22B148C2615321C161FF210268D2083F
:101FA000D2000260C161AD48026842F400420260A2
:101FB00000F052FBAA480268042161F302020260A9
:101FC0000020A84900F0A1FC00F065FE01210120DD
:101FD00000F047FB0121002000F020FF012101203B
:101FE00000F01CFF0121022000F018FFBDE80050A6
:101FF0000FF2D1139C491DE100F060BF78B587B0A6
:102000009A4C04F590753426CDF8006042F2A03366
:1020100004F5AA72A3A1284600F072FF342300221F
:10202000A3A1201D00F0D0FF1C230022A3A104F1D6
:10203000380001F027F81C2300228D4904F15400D8
:1020400001F020F800234FF480622146284601F079
:102050006BF80022012104920591B0202268102320
:102060004FF4806106900393029301910092002344
:102070000FF2D10295A104F1700001F08FF808B0C1
:1020800070BD7A4A10B1012805D070474FF0FF317A
:10209000101D01F021B9101D01F04EB938B50446EC
:1020A00088B06068B0F80B10B1F5124F2ED104A8BB
:1020B00001F07BF96846002100220023002580E81A
:1020C0002E00616801F10D000078E0B900F07CFE9F
:1020D0000F208DF800007F218DF8021065480168FF
:1020E000090CADF80C100068C0F30B00ADF80E0041
:1020F000684601F053F9604801F098F90021012089
:1021000000F0AFFA02E0012808BF227009B030BD2C
:1021100038B50446FFF732FA14F1010F054609D02D
:10212000FFF751FA241805E05448016821F0040132
:10213000016030BFFFF722FA401BA042F4D331BD4B
:102140000000000010B588B001F07EFC4C4C4D49F9
:10215000019104F23C50009069464B4801F064FD47
:1021600004F5C961039104F25470029040F23C51AD
:102170000591049402A801F0EFFC01F063FC3B4CD4
:102180004FF0FF3104F1540001F0F4FD01F06DFD5A
:10219000F6E73E4801F010BE3D4801F00DBE4FF09D
:1021A000FF313B4801F0E6BD012805D0022805D0EB
:1021B000102805D101F0CDBA01F0CDBA01F0CFBAA7
:1021C00070470000F8B5334C274E04F58075288819
:1021D000B0F5807F28D231780D2922D117A1204671
:1021E00001F0F6FD04F5827708B92B480DE014A143
:1021F000204601F0EDFD10B94FF0B05005E011A1FF
:10220000204601F0E5FD20B924486860384601F019
:10221000E9FD002028804FF480712046FFF708FD7B
:1022200002E02154401C2880314601B0BDE8F04056
:102230001B4B00BF01220020FEF7C6BC53573100E4
:102240005357320053573300104000589C00005839
:10225000FECAFECA9008005808280040080000582E
:102260008004005860410020B84300203C12002048
:1022700000710008002004E05C13002010ED00E075
:102280003C000320832000089D20000890120020BD
:1022900074120020943C0020040000160100001677
:1022A000C52100086279746520706F6F6C20300062
:1022B0006D757465785F73686369000073656D613F
:1022C00070686F72655F7368636900007468726537
:1022D00061645F53686369557365724576745072C3
:1022E0006F63657373000000F8B504460025ACB158
:1022F00004F13406307910B92046FFF74FFB0F4F39
:10230000384600F021F8386840F001103860204667
:1023100000F007F835600121317100E00125284601
:10232000F2BD10B50021064A064B00EB8104491CA2
:1023300006296360E261F8D310BD0000000C00586C
:10234000371C0008871A0008002101604FF03F1277
:1023500042603F238360704738B5040001D10120FB
:1023600032BD94F8210028B9002184F820102046BD
:10237000FFF74DFB022084F821002068C168CA06DF
:1023800037D4CA21416253202268506200F036F8E7
:1023900001001AD12168DFF898008A6802408A603B
:1023A00022689368606821690343A0690B43034373
:1023B00093602068E168016120680169A26841EAD0
:1023C00002410161204600F059F801000BD121685B
:1023D000CA6C92089200CA642368DD6CE169626984
:1023E0000D431543DD64FF2122680300516204D1CF
:1023F00000E00020012184F8211032BD20461BE0BE
:1024000038B504460B482168C860FFF7B7F80546A1
:102410002068C168880608D4FFF7B0F8401B40F276
:10242000E9318842F4D3032032BD002032BD0000E0
:10243000BFFF8FFF5FFF010070B5044600252068D5
:10244000C1684A0618D4C16841F08001C160FFF735
:1024500095F806460AE0FFF791F8801B40F2E93153
:10246000884203D3042084F8210001252068C16834
:10247000480601D42800EED0284670BD38B5044681
:1024800000252068C16821F08001C1602068816852
:10249000880607D42046FFF7B3FF18B1042084F85C
:1024A00021000125284632BDF8B53F4E034630686D
:1024B0004FF47A7540092C46B0FBF4F46C43009459
:1024C00093F82000012801D10220F2BD012083F8F9
:1024D0002000022783F82170CA201C6860625327FD
:1024E00018684762FF241F68B868400507D5009840
:1024F000401E00900098F0B1F8684007F7D4B86823
:1025000020F48060B8601868C76807F0800767F437
:102510009067C760306840092E46B0FBF6F67543F9
:1025200000951D680098401E0090009818B1E8685A
:102530004607F7D506E018684462032100F023F847
:102540000320F2BDA868C008C000A86018688568AC
:102550002A438260186841611148016841F40021F2
:1025600001601048026842F4002202601868816825
:1025700041F480418160186800F00BF818684462EB
:1025800000F001F8F2BD83F82110002083F820004C
:102590007047816841F480618160012170470000CB
:1025A00080080058000800583412002010B50400BC
:1025B00001D1012010BD607A20B90021217220468E
:1025C000FFF708FA0220607221680A68606822F04A
:1025D000200202430A602068016841F004010160A2
:1025E000012060720021E160002010BD02484168B6
:1025F00002788A18426070471412002000B500BFAC
:10260000130096469446103928BFA0E80C50FAD81B
:102610005FEA417C28BF0CC048BF40F8042BC907C3
:1026200028BF20F8022B48BF00F8012B00BD000096
:1026300020B501460648074D00E00838C2798A42B5
:1026400018BFA842F9D18A4218BF002020BD00BFA0
:10265000F873FF1F0070FF1F1B48002101604160DD
:10266000704710B500F007F85C6800F009F85C608E
:1026700082F3108810BDEFF3108272B6124B7047D0
:1026800019B1012902D1044370478443704738B51A
:10269000EFF3108472B60C490C4D086820B129681C
:1026A00088476A6890470AE0486820B1A868804770
:1026B000E968884703E0286980476969884784F3A7
:1026C000108831BD00000000C043002008720008DF
:1026D000DFF884150A6892B200E00246086880B20A
:1026E0008242FAD17047F0B5DFF87055DFF87035E7
:1026F0002E78182204465443B0421C4404D1287852
:102700006870627D2A700FE0267D607D94F815C0A8
:1027100003F115075643062807F806C004D0267DA6
:10272000143312FB00F29E54012020732A78062AEB
:1027300002BF00294FF0FF30E860F0BD10B5DFF8B0
:102740001C45E06810F1010F0ED0FFF7C1FFE168F2
:1027500081422FBFE268E168E2888A182179101A65
:10276000E2784843D04000E0002080B210BD2DE95F
:10277000F047DFF8F084DFF8F004D8F80060016873
:102780004A0502D5F0684107FCD4B068DFF8CC7484
:10279000DFF8CCA420F48060B0604FF018093D78D9
:1027A0000AF1080019FB05F14458FFF7C7FF8442FE
:1027B00002D20024012105E039894118A14203D247
:1027C0003C890021B97013E00122241ABA700FE08D
:1027D00019FB05F50AF108035F59874226BF5959CD
:1027E000091A00210AF1080251510AEB05014D7D39
:1027F000062DEDD1DFF86474A0B238B9FFF768FF99
:10280000F8600320BDE8F047FEF750BF022802DA67
:10281000F878012800D0641EF0684107FCD5F06804
:1028200000F06CF8F06000F051F9DFF83C04C1688A
:1028300064F30F01C160FFF74BFFF860D8F80000A8
:10284000816841F480618160AFF30080BDE8F0876A
:102850002DE9F843EFF3108472B6DFF80854DFF87F
:1028600000342A68CA205062532151629068DFF810
:10287000EC1320F48060906018200E7837464743B0
:102880001F4497F80CC0BCF1020F26D1D7F8008086
:10289000D7F810908878E8B17A7B012A0AD1012113
:1028A0003046FFF720FF84F310887968304600F047
:1028B00013F904E084F31088304600F0C7F8286864
:1028C000CA2141625322426231464246484601F0E3
:1028D00097FA0EE0FFF74BFF09E0D0684107FCD5FF
:1028E000D06800F00BF8D0604FF40020086084F34B
:1028F0001088FF2228684262BDE8F183DFF86C137C
:1029000000F0800060F490607047F8B5D54CD64D6B
:102910002168CA224A6253234B624FF6FF7C2A6821
:1029200042F020022A602A68AB68AD681B0C03F0F5
:102930007F03C5F30E055B1C6D1C6F1E1E4602F067
:10294000070216FB07F6C2F10402A6F5A076D640F0
:10295000C24F66452CBFA7F808C03E81FA703B7194
:10296000FD80C34A136843F400231360C14B1D6804
:1029700045F400251D6070BB0120B8704FF0FF3199
:10298000F9600020B649002301F10C0418255FFA14
:1029900080FC15FB0CFC401CC6B204F80C30062E63
:1029A000F5DB06203870AF4C2068816821F4806127
:1029B0008160C16801F0800161F49061C160032011
:1029C0004FF40021D160FEF77CFE2068816841F45D
:1029D0008041816005E0C868410544BF0320FEF7DF
:1029E00065FE2168FF204862002203210320FEF7D4
:1029F00026FEBDE8F2400320FEF73EBE2DE9F04181
:102A000004460025EFF3108672B61827DFF850C28F
:102A10000CF10C0E07FB05F81EF8080010B16D1C38
:102A2000062DF5DB062D0CD06F430CEB07000127BC
:102A3000077386F310880461427303600D700020F1
:102A400002E086F310880120BDE8F081F8B5044665
:102A5000EFF3108572B60320FEF719FE814E86490A
:102A60003768CA2078625323224618207B6242438B
:102A70008B5C022B21D100212046FFF734FE7748E2
:102A80000178062914D1784801684A0502D5F8680A
:102A90004107FCD4B86820F48060B860F86841074A
:102AA000FCD5F868FFF72AFFF86000F00FF804E0A3
:102AB0004078884218BFFFF75AFE3168FF2048620D
:102AC0000320FEF7D9FD85F31088F1BD4FF40020F7
:102AD00008600320FEF7F5BD2DE9F84F04468A464D
:102AE000182521465E4E69437718387B022804BFBB
:102AF0002046FFF7ABFFEFF3108872B60320FEF716
:102B0000C6FDDFF86091D9F80000CA214162532266
:102B1000426202203873C7F808A0C7F804A0DFF8A3
:102B20003CA19AF80000062808D100F075F87875E5
:102B30004FF0FF31CAF80C10002056E0FFF7FEFD01
:102B4000B9680918B96006F10803B9689AF8002055
:102B50006A439A5891422AD39AF8002004E006F179
:102B6000150E6A431EF8022006F1150315FB02FC40
:102B700013F80C30062B06D006F1080C6B435CF8FA
:102B800003309942EBD21146694306F1150E1EF847
:102B90000130062B05D006F1140C15FB03F50CF8DB
:102BA00005407B753A7506F1150254541DE09AF8FC
:102BB00000109AF800C0614515FB01F20FD006F134
:102BC000140B06F1150C1BF8023015FB03F50CF87D
:102BD000054079753B7506F114018C5403E006F14C
:102BE000140379759C5400F017F89AF800109AF8BD
:102BF00001208A4202D0FFF7BAFD02E0B968081A44
:102C0000B860FF20D9F8001048620320FEF734FDB9
:102C100088F31088BDE8F18F9AF800108AF8011047
:102C20008AF80040704738B5EFF3108472B60E484A
:102C300001684A0508D5C568FFF780FDADB2A84216
:102C4000ACBF00252D1A01E04FF6FF7584F3108804
:102C5000A8B232BD000000002828004088430020B0
:102C60004C40002060410020082800400C0800581B
:102C70000008005880080058584000204B4900E0E8
:102C80004B4981B00A6802430A6009680840009015
:102C9000009801B07047F8B58AB0142105A8FEF776
:102CA000C7FF0022079203214FF46042069105926C
:102CB0000120FFF7E3FF05A94FF0904001F0A2F8D3
:102CC0003A4D3C4C29684908490029601820059074
:102CD00000260220FFF7D2FF05A900F072F828684D
:102CE00020F0020028600025FEF770FCFEF770FC63
:102CF000FEF774FC14216846FEF79AFF00270021B6
:102D00002D4A02EBC102907980B11368B3F1904F64
:102D10000AD0A34205D02948834207D190880743AF
:102D200004E09288164301E090880543491C262957
:102D3000E6DB012101910020032229000290039289
:102D400011D000950120FFF799FF0120FFF798FFB0
:102D500069464FF0904001F055F8002229464FF0A7
:102D6000904001F010F930000DD000960220FFF7DE
:102D700085FF0220FFF784FF00F022F80022314691
:102D8000204601F000F938000ED000970420FFF72C
:102D900075FF0420FFF774FF084C00F011F80022C3
:102DA0003946204601F0EFF80BB0F0BD4C0000585A
:102DB0004C01005800040048A069000800080048C1
:102DC0006946204601F01EB800B587B04FEA0D00F5
:102DD00005A11C2201F0F6F800F0F5FE684600F0AF
:102DE000D5FA07B000BD00000000000000000000A0
:102DF00000000000A0690008280003202C00032028
:102E000026040400284981B00A6802430A60096860
:102E100008400090009801B07047000030B585B0C0
:102E200004460D4600F03BF8200008BF042004D003
:102E3000012C18BF022C02D10820FFF7E3FF290064
:102E4000DFF868201AA00ED1002130F8140001919B
:102E50000090012302210293039100F01BF801204E
:102E6000FFF756F914E0012D12D130F8140000904C
:102E70004FF404130295019300F00CF80EA0045DCA
:102E800000220F2160B2FEF7DAFB60B2FEF7F4FB1E
:102E900005B030BD694652F8240000F0B3BF1421DC
:102EA0000022684601F09AB84C0000582012002019
:102EB00010000100020000000A06070038B50D4DA1
:102EC000286810F10F3F4FF0F03408D02C6001F06B
:102ED0008FF801F0BFF808480168491C01602C60B8
:102EE00006480068FFF78AF800202860BDE83140F6
:102EF00001F0C6B838120020903E0020F4430020B4
:102F00002DE9F8430446894615469846002624B321
:102F10000898342821D1EFF3108172B62448026852
:102F2000521C026081F310882248234907680B680D
:102F3000002001E0FF6A401C984201D2BC42F9D156
:102F4000EFF3108172B61A480268521E026081F3D4
:102F5000108801F0FDF8BC4201D1022624E00DB931
:102F6000032621E0B8F1640F38BF05261CD3134AAD
:102F700013491068884208BF1326124A1068EFF3FD
:102F80000581084308D01168EFF305800143B1F1D2
:102F9000F03F38BF132607D336B943462A46494681
:102FA000204601F0F3F806463046BDE8F28300BF44
:102FB000903E0020384300203C4300207C3E00200F
:102FC000E4370020381200202DE9F04104468846FD
:102FD000154600261CB3342B21D1EFF3108172B6B5
:102FE00022480268521C026081F31088204821495F
:102FF00007680B68002001E03F6A401C984201D23C
:10300000BC42F9D1EFF3108172B618480268521E23
:10301000026081F3108801F09BF8BC4201D11C26AC
:1030200020E0012D1CBF002D1F261BD1124A134981
:103030001068884208BF1326114A1068EFF3058113
:10304000084308D01168EFF305800143B1F1F03F68
:1030500038BF132606D32EB92A464146204601F032
:10306000D5F806463046BDE8F08100BF903E00200E
:10307000284300202C4300207C3E0020E437002021
:1030800038120020F8B504000D46164623D01C2B3C
:1030900021D1EFF3108172B61D480268521C026004
:1030A00081F310881B481C4907680B68002001E069
:1030B0007F69401C984201D2BC42F9D1EFF31081E4
:1030C00072B613480268521E026081F3108801F044
:1030D0003FF8BC4201D10C20F2BD104A10491068E3
:1030E00088420CD00F4A1068EFF30581084308D0DE
:1030F0001168EFF305800143B1F1F03F01D21320D5
:10310000F2BD324629462046BDE8F84001F0AEB88F
:10311000903E002010430020144300207C3E0020FD
:10312000E437002038120020F8B518B10468174DB4
:10313000AC4201D00220F2BD09B90320F2BD12B1A8
:10314000C469944201D20520F2BD114E33B13468F6
:10315000EFF305852C4301D00420F2BD0D4F0E4D39
:103160003C68AC420BD03468EFF305852C4308D0A3
:103170003568EFF305842543B5F1F03F01D2132004
:10318000F2BD01B0BDE8F04001F098B84554594295
:10319000381200207C3E0020E43700202DE9F84F53
:1031A0000024002886B089461746984641D01699D3
:1031B000B0293ED1119E109DEFF3108272B64049A6
:1031C0000B685B1C0B6082F31088A4463D490B68BA
:1031D000A919A1F1010E0146002013E0DA68954219
:1031E00005D3D3F810B05D453CBF002501209645BE
:1031F00004D31A6996453CBF00250120D3F88830D6
:103200000CF1010C304A1268944503D2994201D066
:103210000028E3D08A469B46EFF3108172B6284817
:103220000268521E026081F3108800F091FFDA45B7
:1032300001D10E243FE00DB13A0001D103243AE060
:10324000C82E38BF052436D3129F202F28BF0F2445
:1032500031D2DDF84CC0674538BF18242BD3DDF8D8
:1032600054E0BEF1010F88BF102424D8174B184931
:103270001868884208BF1324164B1868EFF30581BD
:10328000084308D01968EFF305800143B1F1F03F1E
:1032900038BF13240FD374B91498CDF814E00490F8
:1032A000CDF80CC00297019643464946009550461A
:1032B00001F064F80446204607B0BDE8F08F00BF77
:1032C000903E0020843E0020883E00207C3E00206E
:1032D000E43700203812002038B518B10268124BCC
:1032E0009A4201D01C2032BD104C59B12268EFF334
:1032F00005831A4304D10E4D0E4B2A689A4201D120
:10330000042032BD2268EFF305831A4308D02368F6
:10331000EFF305821343B3F1F03F01D2132032BD26
:10332000BDE8344001F0BEB84554554D3812002078
:103330007C3E0020E437002018B101680A4A91421F
:1033400001D01C207047094B1968EFF30582114327
:1033500008D01A68EFF305810A43B2F1F03F01D2B9
:103360001320704701F022B94554554D3812002002
:1033700000F0AEFC9DF80E0005B000BDF8B500F100
:103380000C026B462F214FF66640F1E7F8B500F1CD
:103390000C026B460F214FF66840E9E7F8B502468C
:1033A0006B4610214FF67540E2E7F0B51C491D4B06
:1033B0000A681D49C2F30D0201EB82010D682A68FB
:1033C0009A4205D16969AA69EB69EC682D6905E043
:1033D0002E4631697269B3697468B5680E0E06705D
:1033E0000F0C47700E0A86700272C1F3031601F0CB
:1033F0000F010171C670110E4171160C110AC171D5
:10340000220C210E8172C272240A290E2A0C8671A6
:103410004372047341738273C5730020F0BD0000D2
:103420003C400058B95646A90000032078B597B033
:10343000054608A8DFF80415DFF804653C2200F013
:10344000C1FD0FF2D9400190009669460FF2B540D8
:10345000DFF8F06401F092F901210220FFF701F991
:10346000342300220FF2245106F12400FFF7ACFDB3
:103470001C2300220FF21C5106F15800FFF702FE38
:103480001C2300220FF2145106F59270FFF7FAFD8B
:1034900000F0EBF800F0F0F80FF241420FF2185193
:1034A00006F17400FFF77AFE08A8FFF767FF08B17E
:1034B000FEF7B8FB0FF250500088ADF81A0001F08B
:1034C00031FADFF88404016811F1010F0ED042686F
:1034D0003174120A090A7174110A4068F274B074E6
:1034E000120C3175727506F1100406E00020FFF72A
:1034F0009FF8040008BF0FF21C542246062100204A
:1035000001F0C4FA60790FF21452307221797172AD
:10351000E078B072A178F172607830731820217869
:10352000DFF828447173102101F0B0FA0FF2FC4269
:103530001021082001F0AAFA1821012001F0BCFA9C
:1035400001F0FBFA0DF1160006A90190009105AB00
:1035500007220021012001F00FFD0FF2B040BDF85D
:10356000181000900523BDF81400002201F0A1FB03
:103570000DF11A0000900223BDF81610BDF81400DA
:10358000002201F096FB02220221002001F029FA1C
:103590000120207001F093FC0821217101200021FD
:1035A0006070E170102001216071A1700022DFF8CD
:1035B000A00310210823A0600492039002920191BD
:1035C0000093012200230121012001F08CFCA0784E
:1035D00008B101F048FD01F0EBFD00204FF6FF714E
:1035E00084F88000E1821C2300220FF2E83106F506
:1035F000F870FFF747FD00F038F800F03DF80FF2E3
:10360000C9220FF2EC3106F5A070FFF7C7FD01F0FB
:10361000E3FD284601F00AFE8920F07000220FF237
:10362000A12304F181010020FFF7E8F90FF26D13E7
:10363000002206F11C010020FFF7E0F9022060766D
:1036400001210D20A07604F1190221760220182113
:1036500020761154032020768021A02070843184AC
:10366000012000F0E7F818B070BD00234FF480622D
:1036700007A92846FFF758BD0022012104920591B1
:10368000B020079A10234FF48061069003930293B1
:1036900001910092002370477CB50446AB4D6078E1
:1036A000052805F1800604D03E280DD0FF282FD034
:1036B0004DE0A188E88A814202D10021E98231707F
:1036C000012000F0B7F842E0E07801280AD00A288B
:1036D00011D00C283BD1E88A6A460DF1010101F0B6
:1036E00058F934E07078FFF7B1F93078042814BF46
:1036F0000520062007E07078FFF7A8F93078042845
:103700000CBF062005203070B4F80500E8821EE0EA
:10371000B4F8030040F20241401A0BD0C01E0ED094
:10372000001F10D040F60501401A04BFE88A01F0DE
:10373000F6FA0CE0E88A874901F004FC07E0E88A21
:1037400001F0BFFC03E0E88A012101F0EEFC01205A
:1037500076BD01F09ABC7D49C88A01F044BC1CB515
:103760007A4CE08A01AA0DF1050101F012F9A0B925
:103770009DF80500022804BF9DF80400022804D12A
:10378000002100910123012204E000200090022387
:1037900002220021E08A01F04DF913BD704738B5CF
:1037A0006D49884228BF6D480ED202466C4CE82510
:1037B000A4FB020105FB021101F0C4FD694A6A4B3A
:1037C00001F0E4FD01F006FF5E4C0146207FFFF7AB
:1037D00083F9FFF728FAA06131BDF8B5FFF723FAA6
:1037E000584D624EA969081A01F018FF604A614BF2
:1037F00001F022FF01F0EEFE0027B94203D8B042EB
:1038000038BF012411D34FF47A76A6FB002306FBC0
:1038100001331046194601F095FD4FF02242564BF8
:1038200001F0B4FD01F0D6FE0446287FFFF70EF943
:103830002046F2BD2DE9F04387B00446414D0128F2
:1038400007BF2E8CB5F822904FF4C8664FF47A6902
:10385000DFF8F88008F180077878FFF7F7F8022C96
:1038600005D13878012814BF022801F0C4FA3C7051
:1038700000200690059008F1190204925FF00602FC
:1038800098F818006DA10390029101920023009313
:103890004A463146002001F0C0FA29460E2001F0C8
:1038A000BBFB002808BF012C06D17878334907B04C
:1038B000BDE8F043FFF710B907B0BDE8F0830000A2
:1038C0002F4800F079BA000080B54FF0FF312C4846
:1038D00000F050FA0220FFF7ADFFF6E780B54FF099
:1038E000FF31284800F046FA00F067FFF7E7254867
:1038F00000F062BA244800F05FBA4FF0FF3122486E
:1039000000F038BA10B50446616801F1080001F012
:1039100069FF00B10120207010BD0000094A10B1FC
:10392000012806D070474FF0FF3102F12400FFF765
:10393000D3BC02F12400FFF7FFBC00003070000888
:10394000AC080320081000208075FF1FDC40002019
:1039500007B2010040E20100997919010000FFFF60
:103960000010A5D40000B126F56B5C4201CA9A3B59
:10397000000080A2941ABD41941A6D4246E00100F5
:10398000F81100202C110020601000206D74785F69
:103990006863690073656D5F6863690073656D5F77
:1039A0004863695573657245767450726F636573C9
:1039B000735369676E616C007468726561645F4817
:1039C00063695573657245767450726F636573737E
:1039D0000000000073656D5F41647655706461742A
:1039E0006550726F636573735369676E616C000035
:1039F0007468726561645F41647655706461746572
:103A000050726F6365737300400300004852535453
:103A10004D0000006C7AD8AC577200001234567812
:103A20009ABCDEF0123456789ABCDEF0FEDCBA099D
:103A300087654321FEDCBA09876543210948525353
:103A40005458000001F079BF6D486E49016001F1E2
:103A50002002426001F13003836001F14002026202
:103A600001F14803436201F15002C26001F15803C1
:103A7000036101F17402426101F1780383618431D1
:103A8000C16101F078BF38B504465F4D284601F0AA
:103A9000E9FF5B494868A1680160E2685B49C26070
:103AA0004160856001F083FF59482AE080B55448A1
:103AB0004268136801211972406801F080FF0020FC
:103AC00002BD38B5524C504D04E000F041F800986A
:103AD00021688847284601F0C8FF0028F5D031BD8D
:103AE0004B494868004738B504464A4D284601F01E
:103AF000B9FF4349C868A1680160456001F064FFEF
:103B000045482168016062684260002032BD80B58E
:103B10003B48C268136810211972C06801F05FFF4A
:103B2000002002BD36483C4AC168C3681168186865
:103B3000084738B5384C374D04E000F009F80098D4
:103B400061688847284601F090FF0028F5D031BD14
:103B50006946284601F0B2BF38B504462F4D2846C5
:103B600001F080FF2E4801F07DFF25480069A16823
:103B70008160E268C260056121680160626842603C
:103B8000216941616269826131BD80B50146244885
:103B900001F07EFFBDE802400FF2090001F02DBFE9
:103BA0000000000038B5164C1D4D06E0FFF7D0FFB1
:103BB00000992069006901F06BFF284601F055FF6C
:103BC0000028F3D031BD10B5164C204601F04AFF55
:103BD0000B4948690460BDE8104001F027BF1CB5DF
:103BE000104C06E06946204601F068FF009801F09D
:103BF00077FF204601F039FF0028F3D013BD000005
:103C000000000320B8090320580A03209C08032061
:103C1000D0430020600A0320D8430020480A032034
:103C2000C8430020500A03207FB50C464E4D616802
:103C30004E4E28626962281D01F054FF24687460AA
:103C400006F1080001F00EFF012000F069F80120E4
:103C50003070696841B10FF2ED020FF2F10300928A
:103C600001930294684688477FBD1FB53F4C04F11D
:103C7000080001F0FAFEF8B92078E8B1694604F1CD
:103C8000080001F01BFF3848016A49B10098029012
:103C900001228DF8042001A888479DF8040000E067
:103CA0000120207018B10098FFF76FFF04E0009921
:103CB00004F1080001F0E2FE04F1080001F0D5FE75
:103CC00028B9207818B104F10800FEF762FA1FBD88
:103CD0002DE9F04105460E4690461C46002000F0B6
:103CE0001FF8224F7868A0F80950C6723246414644
:103CF0000C3000F067F91C4A012010700021526955
:103D00000020904748F2E800FEF749FA79688A787F
:103D1000D21C04F1080000F055F9BDE8F041012083
:103D200010B51149124C496A20B901B188470021E8
:103D3000217010BD0120207011B1BDE8104008476E
:103D400010BD00000020FEF727BA000010B50146A4
:103D5000064C04F1080001F09BFE04F10800BDE8E8
:103D60001040FEF716BA000040430020A843002090
:103D70000544002010B518B102680B4B9A4201D0DF
:103D80000C2010BD61B1094A1268EFF305831A4394
:103D900004D1074C074B22689A4201D1042010BD80
:103DA000BDE8104001F0A8BE414D45533812002037
:103DB0007C3E0020E437002018B10168034A91429C
:103DC00001D00C20704701F0DFBE00BF414D4553CC
:103DD00010F8012B11F8013B0AB19A42F8D0D01A21
:103DE0007047000000680549C0F3004252010123FA
:103DF00000F01F0003FA00F08850704708080058D0
:103E0000104700002DE9F04F0024DFF89881664E3E
:103E10004FF00F0902460B4631E0644FBA4214BF1F
:103E20004FF0070E4FF0040E0EFA01F141EA050EB5
:103E30005F4941F82CE0C74331685D683940ED02C5
:103E400048BF0143316071685D683940AD0248BFC9
:103E500001437160D8F800105D683940ED0348BF38
:103E60000143C8F80010D8F8041007EA010C59689B
:103E7000890348BF40EA0C0CC8F804C0641C1868E9
:103E800030FA04F100F07D800121A1400840F5D016
:103E90004FEA440C032505FA0CF56FEA050E5D6840
:103EA00005F00307012F1CBF05F00305022D10D1FB
:103EB0009568DF680EEA050507FA0CF73D43956043
:103EC000556825EA01015D68C5F30015A540294341
:103ED0005160A1001D7905F00305032D1ED0D568A2
:103EE0009F680EEA050507FA0CF73D43D5601D797A
:103EF00005F00305022D11D1E50802EB850501F05F
:103F00001C07D5F820B009FA07FA2BEA0A0BD3F8F8
:103F100010A00AFA07F747EA0B072F6215680EEAA6
:103F200005071D7905F0030505FA0CF545EA070CB0
:103F3000C2F800C05D6815F4403F9FD01C4D4FEAA9
:103F4000940C55F82C5001F00C0109FA01F7BD430F
:103F5000B2F1904F08BF4FF0000E11D0154FBA428A
:103F600008BF4FF0010E0BD0134FBA4208BF4FF0FD
:103F7000020E05D0114FBA427FF44FAF4FF0030E3F
:103F800052E7BDE8F08F0AB18161704781627047E6
:103F90000B4A136801460B421CBF1160FEF704B9BF
:103FA00070470000800800580008005800100048C2
:103FB000080001400004004800080048000C0048C8
:103FC0000C0800584AB1000011F8013B521E00F8DD
:103FD000013B1CBF11F8013BF8E770474018491C32
:103FE0001CBFB1F1010100F8012DF9D170470000AB
:103FF00072B61248016841F0010101604FF0E02003
:104000000F49C0F8081D0F480D49096801604FF0BD
:10401000E0200D4941614FF0070101610021C0F826
:10402000181D0A49C0F81C1D0949C0F8201D704719
:1040300001B501F0D3FDBDE801407047001000E07C
:1040400000000008FC430020FF7C0000000000FF8F
:104050000000FF4080B501F01DFE01F03BFE074867
:104060000021016041608160C160016141610162C4
:1040700041628162C1628161C16101BD1043002062
:104080004FF000002E4A1060EFF3148020F004007F
:1040900080F3148862B64FF080504FF0E021C1F8F1
:1040A000040DBFF34F8FBFF36F8FFEE72548264AFD
:1040B0004FF00003016891B10360EFF3098C2CE924
:1040C000F00F1EF0100F01D12CED108A1F4C4CF890
:1040D00004ED2568C1F808C00DB18D61236072B68A
:1040E0001168B1B1016062B64F68184C8D6907F173
:1040F00001074F602560D1F808C05CF804EB1EF0A2
:10410000100F01D1BCEC108ABCE8F00F8CF30988C9
:10411000704772B61168016049B90FB401F024FE0E
:104120000FBC0FB401F039FE0FBC62B6F1E74FF0DF
:1041300000674FF0E028C8F8047D62B6D4E7704706
:10414000903E00207C3E0020803E00206037002012
:104150000A49086888B90A4B0A4918680A689042EF
:104160000BD009494FF080500860EFF3058020B96B
:10417000EFF3108062B680F310887047903E002005
:104180007C3E0020803E002004ED00E0F8B50D46A6
:10419000044616461F463421FDF74AFDBF08BF00FE
:1041A000A7F10800A060F2190221101F6560A66146
:1041B000E76126616661E160046040F8046D30608B
:1041C00000210E4870602162EFF3108172B60C4836
:1041D0000C4A0D4B2060106818B91C602346254618
:1041E00003E01B681D6B1C63EC62401C10602563C0
:1041F000E36281F310880020F2BD00BFEEEEFFFF06
:10420000455459423C4300203843002070B50D46C8
:10421000044616463421FDF70BFD65602661EFF379
:10422000108172B60C4B0D4A0D48236010600D4A88
:104230000D4B106818B91C602346254603E01B6827
:104240005D6A5C622C62401C10606562236281F3CF
:104250001088002070BD00BF4554554D943E00208D
:10426000496C00082C4300202843002070B50D46FF
:10427000044616461C21FDF7DBFC6560A660EFF3E3
:10428000108172B60A480B4A0B4B2060106818B9AF
:104290001C602346254603E01B689D699C616C6198
:1042A000401C1060A561636181F31088002070BD1F
:1042B000414D455314430020104300202DE9F041A7
:1042C000D21C074688461D469208EFF3108372B64B
:1042D000274C266894003E6283F3108821463846B6
:1042E00001F0FAFDEFF3108372B610B9396AB142EA
:1042F000F1D13246C8F8000018B183F310880020CD
:1043000033E028002ED01B4D296819B1102083F30B
:1043100010882AE018499166D7669467C2F87C80B5
:1043200002F18404A16A491CA162B96A4E1CBE62F2
:1043300019B97A621267526705E0796A11674E6FA0
:10434000566732674A6709210126D0641163966374
:104350002868401C286083F31088104601F036FE60
:10436000206802E083F310881020BDE8F08100BFD0
:104370007C3E0020903E0020016E00082DE9F24FA7
:10438000DDF82880DDF83090DDF834A0DDF838B0B5
:104390000B99054614461F46EF224046FFF71EFEC6
:1043A000B0212846FDF744FC0098A8626C64AF6415
:1043B000C5F80C8005F188040B986861C5F82C904D
:1043C000C4F80C90C5F818B0C5F81CB02020606186
:1043D00000260B99C5F83CA04144481E2861C4F84A
:1043E00010A00320274928636965AD652846264942
:1043F00001F0C2FEEFF3108172B62448244B254A27
:104400002860186818B915602F46AC4606E0176892
:10441000D7F88CC0C7F88C50CCF88850401C0F9A45
:104420002760C4F804C018601B4803685B1C012A9D
:10443000036017D119480268EFF305800243B2F117
:10444000F03F06D31648046824B1E66BE06AE063E7
:1044500000E0002481F31088284601F0AFFE6CB123
:10446000E6630BE081F31088EFF3108172B6026807
:10447000521E026081F31088FFF76AFE0020BDE83B
:10448000F28F00BFA5700008DD6F00084452485449
:10449000883E0020843E0020903E002038120020FC
:1044A000803E0020F8B5EFF3108672B63C4A1468DF
:1044B000826804F18405DAB901218160C460A4B185
:1044C0000169012903D1E16A416120228262296ADE
:1044D00019B10A6B0863D06202E028620146024605
:1044E000C1620263E869401CE86186F3108806E057
:1044F000C368A34205D1521C826086F31088002055
:10450000F2BD002947D0274F3A6812B186F31088D0
:1045100043E0254AA266E066AA6A521CAA62C26902
:104520001AB98461246764670BE0D0F818C0C4F836
:1045300070C0DCF874E0C4F874E0CEF87040CCF8D9
:104540007440521CC2610D2222630122A263E16405
:104550003968491C396086F310880269012A15D12F
:10456000E16A826A914288BF1146816203F12C00A0
:10457000E16AD3F89C20914288BF11460167006828
:10458000E16A81423CBF184601F0B4FE204601F0CA
:104590001DFD2868F2BD86F310881D20F2BD00BF06
:1045A0007C3E0020903E0020D96B00082DE9F041B0
:1045B0000546EFF3108372B6A868002800F0D48097
:1045C0006C4CE96827686C4EB94204D0326812B965
:1045D00083F31088CAE0401EA86002D083F31088DD
:1045E000C0E011B983F31088C1E001F19402D068F2
:1045F000401E08BF002107D0EC6A296B2163CC6202
:104600001169A94208BF2146D0601161A9692869D2
:10461000002908BF002803D1E86083F31088A6E0D2
:104620000027D2F8008001281CD13068401C30607F
:1046300083F3108820211369184648B10469012CBE
:1046400003D1846A8C4298BF2146C06A9842F4D153
:10465000EFF3108372B63068401E306091604145C0
:1046600098BF8846E869012810D9286901280DD12A
:104670003168491C316083F31088284601F09EFEA2
:10468000EFF3108372B63168491E3160AC69CCB962
:104690003068401C306083F310882021E868A962EC
:1046A000C16A41451CBF414601F024FEEFF3108072
:1046B00072B63168491E3160EF6080F31088FFF7F1
:1046C00047FD4FE02869012804D1E06AEF6868617E
:1046D0002021A96204F18401C86918B90D622A4633
:1046E000AC4605E00A6AD2F830C01563CCF82C500D
:1046F000EA62C5F830C0401CC861EC600120A860C7
:10470000E869401E02D10022AA6107E0226FAA6177
:10471000D4F874C0C2F874C0CCF87020E8610020EE
:10472000A06608603168491C316083F310882869ED
:10473000012814D1E86958B1284601F03FFEEFF393
:10474000108172B6A86908B1C06AA86281F31088A6
:10475000F86A404503D04146384601F0CBFD20467B
:1047600001F02CFD002002E083F310881E20BDE83C
:10477000F08100BF7C3E0020903E00207FB50C46BB
:10478000654D6168654E28626962281D01F062FE10
:10479000246805F1280001F065F9746006F108004D
:1047A00001F060F901203070696829B10FF235120B
:1047B00000920294684688477FBD1FB5574C04F1AC
:1047C000080001F052F9F8B92078E8B1694604F11F
:1047D000080001F073F95048016A49B1009802904D
:1047E00001228DF8042001A888479DF8040000E00C
:1047F0000120207018B10098FFF7C7F904E0009974
:1048000004F1080001F03AF904F1080001F02DF973
:1048100028B9207818B104F10800FFF768F81FBD27
:104820002DE9FC410446002000F051F82088B4F83E
:104830000280394F60F38F280120387000253748F7
:104840004068A168E268C272A0F80980D2B20C3058
:10485000FFF7B8FB7A6900210020904748F2E80092
:10486000FFF74BF813E0B6F8010040450CD1009972
:10487000887AC21E6069D2B28242C8BF02462069ED
:104880006261F11CFFF79EFB307800B1012507F152
:10489000280001F0EAF890B9694607F1280001F014
:1048A0000DF9009901F10B06497A0F29DBD17188C6
:1048B000414502D12169307808707078E5E7280019
:1048C000CCD0012000F003F80020BDE8F6811249A9
:1048D000496A08B921B1084700291CBF01200847CF
:1048E0007047000010B50146487A0F2818BF0E28FF
:1048F00007D10B4801F0CCF8BDE810400020FEF7CE
:10490000F9BF064C04F1080001F0C2F804F10800F8
:10491000BDE81040FEF7EBBFE042002098430020C6
:104920000843002000B587B000F021F80321ADF85E
:104930000410ADF806100122069200F0A1F800283C
:104940004CBFFF209DF8000007B000BD0791049206
:10495000CDF818D0002102A8FFF762BF0821ADF8FA
:10496000041070470F210291ADF806207047002017
:104970008DF800001822002101A801F07BBD09225A
:104980000021684601F076BD1822002102A801F03E
:1049900071BD70B5C8B006460C4615460522FFF736
:1049A000EFFFADF82060FFF7EFFF3021ADF80A1000
:1049B000082002210591ADF80800052108AAFFF79B
:1049C000C5FF002848BFFF2009D49DF8000030B97A
:1049D0009DF80300207000209DF80410297048B055
:1049E00070BD18B5C7B000F018F8312200F009F812
:1049F00000F046F800284CBFFF209DF8000048B0AA
:104A000010BDADF806200821ADF804100322049271
:104A100007A9039101220692704700248DF81C001B
:104A20008DF8004007A8417082700021182201A86B
:104A300001F020BD5CB5C7B00026ADF81C008DF8B4
:104A40001F2007A84C9C817003718DF80060ADF8A1
:104A50002140FFF78FFFFFF781FF3222FFF782FF30
:104A60000721049107AA012100F008F800284CBF93
:104A7000FF209DF8000049B050BD07AA069103929F
:104A8000CDF814D0002101A8FFF7CABE18B50C4616
:104A9000C7B000F039F800F04BF807AA03923F20A6
:104AA0000C2100F028F800F020F800284CBFFF206F
:104AB0009DF8000048B010BD00B5C7B000F031F857
:104AC0000F2200F007F800284CBFFF209DF80000DF
:104AD00047B000BDADF806203F21ADF8041002221A
:104AE000049207A9039101220692CDF814D0002167
:104AF00001A8FFF795BEADF80400ADF8061001223D
:104B0000A41C069204947047114600228DF80020E0
:104B10008DF81C008DF81D4022460DF11E0001F09D
:104B2000A3BC00238DF81C008DF81D108DF80030FB
:104B30001822002101A801F09DBC00B587B000201B
:104B40008DF8000000F0E6F840F2011200F045F99F
:104B500000F006F900284CBFFF209DF8000007B0C8
:104B600000BD2DE9F841C7B00446884616461F46E9
:104B7000012808BF022003D002280CBF102000200B
:104B80000DF11D031D1800F035F8012C8DF81C40A7
:104B900002D0022C1AD01BE00224224641460DF11D
:104BA0001D0001F061FC2E706F7000F0B3F800F092
:104BB000ABF84FF4817100F017F8E41C06920494EE
:104BC00000F0CEF8002805D5FF2009E01024E4E726
:104BD000972005E09DF8000010B94E9800F064F8A9
:104BE000FFE748B0BDE8F081ADF80400ADF806106D
:104BF0000322704703220021684601F03BBC2DE9E7
:104C0000F64F0C46C7B005469946012C08BF022056
:104C100003D0022C0CBF102000200DF11F031E1822
:104C2000FFF7E8FF012CADF81C508DF81E4002D0B4
:104C3000022C2CD02DE00227DDF85881DDF854B18C
:104C4000DDF850A1539D529C48993A4600F058F81F
:104C5000A6F80090B470F57086F804A086F805B048
:104C600086F8068000F056F83F204FF4827107AABC
:104C7000ADF80400ADF8061003920A37032204973A
:104C8000069200F06DF8002805D5FF2009E01027F6
:104C9000D2E7972005E09DF8000010B9579800F082
:104CA00003F849B0BDE8F08FBDF801100180002085
:104CB000704778B5C7B01D464C9B00F07CF80026C5
:104CC0008DF800608DF821502A4619460DF122001A
:104CD00001F0CAFB00F01EF800F016F84FF48371E3
:104CE00000F083F8AD1D00F039F800284CBFFF201C
:104CF0009DF8000049B060BD0023ADF81C0070476E
:104D00000DF11F0001F0B0BB07AA03923F207047CE
:104D10008DF800301822002101A801F0ABBB00B5CE
:104D2000C7B0FFF7E9FFFFF7F3FF40F2251200F0ED
:104D300009F800F015F800284CBFFF209DF800008E
:104D400047B000BDADF806203F21ADF804100222A7
:104D5000049207A9039101220692704706920495D6
:104D6000CDF814D0002101A8FFF75ABDB8B5C7B0DF
:104D70004C9C4D9D00F01FF800278DF821308DF8D8
:104D800000708DF82240E2B2294600F01BF8FFF7D0
:104D9000C1FFFFF7B9FF4FF4937100F017F8E41D5E
:104DA00006920494FFF7DCFF00284CBFFF209DF81B
:104DB000000048B0B0BDADF81C00ADF81E108DF875
:104DC000202070470DF1230001F04EBBADF8040028
:104DD000ADF80610E4B201227047ADF806203F217D
:104DE000ADF80410012206927047ADF80400ADF84A
:104DF00006100122704700B587B000F05EF900F0A0
:104E0000C1F9812200F053F900F0CAF900284CBF23
:104E1000FF209DF8000007B000BD2DE9F04FC7B09E
:104E20009446DDF840E1519ADDF85481DDF858A14F
:104E3000539CADF81D108DF81C008DF823204FF009
:104E4000000BADF81FC08DF821308DF822E000F086
:104E500021F800F029F826F8098FA6F802A000F042
:104E600091F900F07BF98321ADF80400ADF806104C
:104E700000F00AF800F096F900284CBFFF209DF8DA
:104E8000000047B0BDE8F08F4F4401220D37069275
:104E900004977047D7B252998DF800B009ADD2B2DD
:104EA00009A8ED1901F0E0BA2C7007AE54995FFA29
:104EB00084F9F619E2B2681C4E4401F0D5BA00B587
:104EC000C7B000F0BDF800F05BF900F00CF98522E6
:104ED00000F010F900F065F900284CBFFF209DF8A4
:104EE000000047B000BD2DE9F841C7B04FF0000801
:104EF00000F022F84E9C4F9D509E529F51988DF885
:104F000000800DF123018DF81F308DF820408DF8C1
:104F100021508DF8226008608DF8277000F032F97A
:104F2000862200F0C4F80C2200F037F900284CBFAC
:104F3000FF209DF80000DAE08DF81C0007A8417002
:104F40008270704700B5C7B000F082F88DF800306D
:104F50000DF11E001822016001A8002101F08AFA5B
:104F6000882200F039F800F018F900284CBFFF2023
:104F70009DF8000047B000BDF8B5C8B005460E4624
:104F800017461C46072200F05FF808A84670877095
:104F90008DF8205000F0C4F88A21ADF80A103F20A7
:104FA00003210591ADF80800072100F0B0F80028B2
:104FB00048BFFF200ED49DF8000058B94F994E9875
:104FC000BDF801202280BDF803300380BDF8050044
:104FD0000880002049B0F0BDADF806203F21ADF8B3
:104FE00004100622704700B5C7B000F031F800F099
:104FF000C7F800F078F88D220F210291ADF8062055
:10500000022100F07EF800F0CDF800284CBFFF2010
:105010009DF8000047B000BD18B5C7B000F093F888
:1050200000F0B0F800F09AF88E2100F09BF800F044
:10503000B9F800284CBFFF209DF8000048B010BD13
:1050400000238DF81C0070470021684601F012BA59
:105050000023ADF81C007047ADF806203F21ADF8E5
:1050600004100222704700B587B000F026F800F067
:1050700089F8922200F01BF800F092F800284CBF4B
:10508000FF209DF8000007B000BD00B587B000F01C
:1050900014F800F077F8942200F009F800F080F896
:1050A00000284CBFFF209DF8000007B000BDADF800
:1050B00006203F21ADF80410704700208DF8000055
:1050C000704700B5C7B0FFF7C3FF00F059F895224D
:1050D000FFF7C2FF00F061F800284CBFFF209DF8E9
:1050E000000047B000BD3F21ADF80410704748B044
:1050F000BDE8F081ADF8062007A9039101220492D2
:105100007047049107AA012106910392704708AAEB
:1051100007910492CDF818D0002102A8FFF780BBB8
:105120001822002102A801F0A5B900B5C7B000F00F
:1051300022F8A52200F02BF800284CBFFF209DF894
:10514000000047B000BD002304468DF800308DF804
:105150001C4022460DF11D0001F086B907AA0392FA
:105160003F207047ADF80400ADF806100122641C22
:105170000692049470470023ADF81C008DF81E10B1
:105180008DF800301822002101A801F073B9ADF8A4
:1051900006203F21ADF804100322049207A90391D1
:1051A00001220692CDF814D0002101A8FFF738BBE8
:1051B00007490020087700220648027001F064B910
:1051C00003490A7F41F82200087F401C0877704796
:1051D0006843002004440020E0B505A000900422AC
:1051E0008DF80420694642F6292001F09CF907BD9C
:1051F00053544D0010B50078444C18B1022810D01B
:1052000005D310BD00210120A180207310BD607B5B
:10521000FDF71CFC607BBDE8104040F60101FDF786
:105220005BBC607BBDE81040FDF710BC38B50446A0
:10523000DFF8D85038A188B01C23002205F1C00047
:10524000FDF720FF00234FF4806207A92046FDF7F9
:105250006BFF0022012104920591B020079A1023D0
:105260004FF4806106900393029301910092002312
:105270000FF249022EA105F11000FDF78FFF00206B
:1052800004212873297042F63820294601F0EFF9ED
:105290000A21A9801F20C106E87204D501204FF41D
:1052A0008061A872E98001220FF2590305F10D0116
:1052B0000020FDF7A3FB09B030BD000010B5134C72
:1052C00004E0012817D10020207314E04FF0FF31D3
:1052D00004F1C000FEF74EFD0D490868E17AC0F305
:1052E000C220413060800A07207BEAD50028E8D13F
:1052F000A088401DA080A11C42F6372001F0B7F91C
:10530000E4E700000348FEF757BD0000A03D002081
:1053100028280040603E002073656D5F487273501E
:10532000726F636573735369676E616C0000000090
:105330007468726561645F48727350726F636573FD
:1053400073000000A9B1B1FA81F241409040C2F16E
:105350002002D14102F21D4241404FEA025C420567
:105360004FEAD02072F1004250EB41504CEBD1217A
:10537000704748B1B0FA80F2C4F2D0119040A1EB6E
:10538000025202EBD021400570470000F0B540F218
:10539000FF7581EA030C0CF0004C15EA11541DBF97
:1053A00015EA1357AC42AF42E5E0BC41C1F313012B
:1053B000C3F31303801A994143F4801304D2641E8B
:1053C0000018494180185941C90241EA5051B1FBC6
:1053D000F3F603FB1611A2FB0675D7EBC020A9411B
:1053E00002D2761E80185941C90241EA5051B1FBE0
:1053F000F3FE03FB1E11A2FB0E75D7EBC020A941E3
:1054000003D2AEF1010E80185941890241EA905150
:10541000760546EA8E2EB1FBF3F603FB1611A2FBCE
:105420000675D7EB8020A94102D2761E801859411B
:10543000C90241EA50514EEA060EB1FBF3F603FBF6
:105440001611A2FB0675D7EBC020A94102D2761E29
:1054500080185941C90241EA5051B1FBF3F703FBEF
:105460001711A2FB0735D3EBC020A94167F1000754
:105470000CBF004247F0010766F3D5274FEA1E3103
:10548000B80814F5806412DDBD0775F1004250EBD9
:105490000E5051EB045111F5801F5CBF41EA0C0125
:1054A000F0BD4CF07F6141F0E0410020F0BDBD0750
:1054B0006D0840EA0E5041F48011D4F10104B4F1BA
:1054C00020060ADAC4F120060200E04001FA06F3E1
:1054D000E1401843B24015430EE0342C13DCC6F112
:1054E000200445EA40056D0820FA06F2154321FA2A
:1054F00006F0A1400D43002175F1004250F100007B
:1055000051EB0C01F0BD00205FEA0C01F0BDCFB9FA
:1055100092185B41B3FA83F704BFB2FA82F6BF195F
:105520000B3FB7F120062FBF02FA06F3BB40C7F1CD
:10553000200622FA06F638BF3343BA401CB1E419FC
:10554000641E33E77F4231F00041B1FA81F404BFB9
:10555000B0FA80F6A4190B3CB4F120062FBF00FA74
:1055600006F1A140C4F1200620FA06F638BF314307
:10557000A0403C1B1AE7AC421ABF05EA1357AF42E2
:1055800012E050EA41061CBF52EA4306BFE750EA68
:105590004107304661461CBF41EA0551F0BD52EA61
:1055A000430C08BFC143F0BD00204FF4001616EBBA
:1055B000410F98BF16EB430F08BF16EB410F24BFF6
:1055C000C14305E016EB430F0CBF61464CEA0551A1
:1055D000F0BD000040F21E4CBCEB115209DDC902C7
:1055E00082F3070241F0004141EA50500021D040CF
:1055F000704720320DDBC902D2F1200341F0004197
:1056000041EA5051C002D04001FA03FCD14060444D
:1056100070476FEAE17108467047000050B1B0FA78
:1056200080F18840C91CC1F58461090501EBD021D6
:10563000400570470146704730B540F2FF7C1CEAD8
:1056400011541DBF1CEA1355644565453FE06419BC
:1056500081EA030C6FF35F530CF0004C43F48013AA
:10566000C90241F0004141EA505EC5021100A5FBAC
:10567000020200284FF00000EEFB01204FF0000175
:10568000E3FB052118BF42F0010240180021494107
:10569000E3FB0E01A4F580640D0302D29218404191
:1056A000494154F1010470DD450872F1004250F1A6
:1056B000000051EB0451A1F5801102D441EA0C0124
:1056C00030BD40F2FF7E4CEA0E51002030BD0CEAA6
:1056D0001355644518BF654581EA030C0CF0004C76
:1056E00041D050EA410E1CBF52EA430E02E061462F
:1056F000002030BD24422C441BD15FEA050EF6D0B9
:10570000090302BF01460020AEF1140EB1FA81F583
:10571000AEEB050401FA05FE0C35C5F1200100FAD7
:1057200005F5C8404EEA000E6FF35F5343F4801353
:105730009CE733F00043B3FA83F504BFB2FA82FE6C
:1057400075440B3D641BB5F1200E2FBF02FA0EF31A
:10575000AB40C5F1200E22FA0EFE38BF43EA0E031D
:10576000AA40641C7CE750EA410E14BF52EA430E83
:105770006FF000014FF4001515EB430F8EBF194673
:1057800015EB410F9DE7B4D830BDD4F10104B4F15D
:1057900020050FDAC4F12005520828BF42F00102AB
:1057A00010FA05FE01FA05F57244E2BFE040284315
:1057B000E1400FE0352C9ADCC5F1200452EA4002AA
:1057C00020FA05F218BF42F0010231FA05F0A140BB
:1057D0000A43002172F1004250F1000051EB0C012C
:1057E00030BD000070B504466078FF2802BFB4F8F1
:1057F000030000F47F40B0F5406F13D100250D4E3B
:1058000000E06D1C327FE8B290420BD2E9B256F84C
:105810002110204688470100F3D003D0022806D08B
:10582000012070BD2046BDE87040FDF735BF002067
:1058300070BD00BF68430020C0680840884201D1A5
:105840000120704700207047C0690840884201D19C
:10585000012070470020704710B5794C0221204686
:10586000FFF7F2FF38B16068C043810703D5FEF748
:1058700060F9022018E001212046FFF7E5FF38B16A
:105880006068C043C10703D5FEF71BF901200BE098
:1058900008212046FFF7D8FF38B16068C0430107F0
:1058A00003D5FEF79CF90820A06010BD10B5644C2C
:1058B00002212046FFF7C0FF70B96068C043820331
:1058C0000AD500F035F841F40031616080F31088AA
:1058D000BDE81040FEF726B908212046FFF7ACFFCF
:1058E00088B96068C04302030DD500F021F841F487
:1058F0000021616080F310885249086880474FF4A6
:105900000022A26010BD20212046FFF795FF70B94C
:105910006068C04382020AD500F00AF841F4001121
:10592000616080F31088BDE81040FEF7D9B810BD63
:10593000EFF3108072B661687047434881B0016828
:1059400041F480110160006800F48010009000981C
:105950003E48016841F4007101603D48026842F42C
:105960000072026040BF20BF3A48016841F4004124
:10597000016001B0704780B53748016841F480117B
:105980000160006800F48010009000982C480168C5
:1059900041F001010160026842F4803202602C2073
:1059A000FBF76AFEBDE802402D20FBF765BEEFF372
:1059B000108072B629490A68520852000BE0284943
:1059C0004FF4803008607047EFF3108072B62349BF
:1059D0000A6822F002020A6080F3108870471F48AC
:1059E0004FF400314160EFF3108172B6026822F487
:1059F0000032026081F31088704738B50446104DBC
:105A000008212846FFF718FF58B10E480460EFF34D
:105A1000108072B6696821F40021696080F31088F3
:105A200031BDA0474FF40020A86031BDEFF31080D6
:105A300072B60A490A6822F00802CCE700000000AA
:105A4000000C0058E843002050010058200800587E
:105A5000D40800580C04005850000058040C00589A
:105A6000080C0058006040607047EFF3108172B678
:105A7000026882420CBF012000201CE0EFF310827C
:105A800072B603680B60486001600868416024E0FA
:105A9000EFF3108272B6086043684B60416048685B
:105AA00001601AE0EFF3108172B642680368136078
:105AB00002684368536081F31088704710B5EFF3B4
:105AC000108472B602680A600168FFE70846FFF7B3
:105AD000E9FF84F3108810BD0B6082F310887047D3
:105AE000704700000249034A01600261704700BF2D
:105AF000E73A00080F3B0008F8B50022EFF31085E5
:105B000072B6836823B15B1E836085F3108833E02F
:105B100079B31A4E326812B185F310882BE0184B16
:105B2000184A1B689A6603F18404D866A26A521C5C
:105B3000A26202691AB9C3601B675B6708E0C768A5
:105B40001F67D7F874C0C3F874C0CCF870307B6797
:105B5000521C026106200122D96418639A633168DD
:105B6000491C316085F31088184600F02FFA22682E
:105B700002E085F310880D221046F2BD903E002011
:105B80007C3E00207D6E000838B5EFF3108372B6BE
:105B9000016929B98168491C816083F3108818E084
:105BA000491EC26802D10024C46004E0146FC460BE
:105BB000556F65672C67016100209066C2F884000C
:105BC00005480168491C016083F31088104600F005
:105BD000F5FA002032BD00BF903E00202149086840
:105BE00000F101000860204B1A683AB1A2F10102ED
:105BF0001A601AB91D4B4FF0010018601C49086863
:105C0000026822B11B4B4FF001021A6008E000F15C
:105C10000400194B1A68904201D1184B18680860AB
:105C2000124B1A6812B913490868C0B101B511497D
:105C3000086808B100F068FD0C4B1A686AB100F002
:105C400073FD0F48016841B90E4801680E4A136898
:105C50000E480F4A994200D00260BDE80140BFF3F0
:105C60004F8F7047303700206037002034370020D6
:105C700040370020443700203C37002038370020D0
:105C8000903E00207C3E0020803E002004ED00E09D
:105C90000000001010B50E4C00202060002104F11F
:105CA00020006160016004F1240020220160226173
:105CB000802104F12800FBF7BBFF0022A260E26014
:105CC00000216161A261E16941F08171E16110BD72
:105CD0007C3E002070B51C4C86B000202060206304
:105CE000606060612062802104F13400FBF7A0FF56
:105CF00004F13400206104F1B40104F5B270E160F4
:105D0000606204F134024FF480610020A260A1625D
:105D1000C4F82C000FA50D4EE06A0D4B0390002136
:105D20000591049102903246A06A616A0190009147
:105D300004F1B4002946FEF721FB0028ECD1A06154
:105D40000021E16106B070BD30370020D16A000843
:105D50004D49544153797374656D2054696D657272
:105D600020546872656164001CB5EFF3108472B64C
:105D7000684600F021F818B94FF0FF30009001E0BC
:105D8000012802D10098FDF70AFD4D490120086065
:105D900084F31088FCF77BFC13BD49490868002890
:105DA00000D1704780B500220A60FDF716FD10B1E2
:105DB000BDE802402EE001BDF0B54FF0FF32EFF339
:105DC000108372B63F490C680025216861B10E4608
:105DD0003768202F86BF7F19203F2F46974298BFF4
:105DE0003A4636698E42F3D137490E68241DB442D3
:105DF00024BF364C24686D1C202DE6D383F3108815
:105E000012F1010F02D002600120F0BD00210160FB
:105E10000020F0BDF8B5050051D0EFF3108672B642
:105E20002B480168691801602A49086820B1854239
:105E300034BF401B01200860224A13680024002759
:105E4000186807F1010CE0B10146D1F800E0BEF19D
:105E5000200F86BFBE44AEF11F0EE646C1F800E03B
:105E600009698142F1D14069002101610CB91C68C6
:105E700005E061691868086118684169616100207E
:105E800018601B1D10490868834224BF0F4B1B6814
:105E90006746202FD4D30D48016811600BE02046DF
:105EA000016804698D422CBF0121491B016000215A
:105EB000816100F067FC002CF1D186F31088F1BD00
:105EC000F8430020403700203C37002038370020BE
:105ED00030370020603700202DE9F0430246EFF311
:105EE000108672B6D0689368851E03EBC50399428D
:105EF00002D386F3108862E0324B5769D3F800E092
:105F0000DFF8C4C0C2F820E00D46401C0023002189
:105F10007C68644520D109B9576101213C68E31BC5
:105F2000083BAB422AD2D4F80490D4F80080002376
:105F3000E1450DD1C7F80080D2F80C80A8F1010826
:105F4000C2F80C80D2F81480A04506D1576104E055
:105F5000474620B1401E00E03F6800B1401E86F376
:105F60001088EFF3108672B6146A744504D0D068B6
:105F70005769C2F820E0401C0028C9D1EBB1581B7A
:105F800014280BD307F10800284439680160C0F8D1
:105F900004C0D3685B1CD36038602B467A6090687D
:105FA000C31A5069083B9360874204BF3968516146
:105FB00086F3108807F1080002E086F310880020BD
:105FC000BDE8F0837C3E0020EEEEFFFF2DE9F84FA8
:105FD0006049054608680090EFF3108472B6009996
:105FE0008D420BD1E86C00281EBF10F1010F05F1A6
:105FF0004C0000F0C7FBE869574908604FF0805635
:10600000564A574B1068574F401E1060A86B012826
:1060100052D10021A9634FF0010CE86A296A0CFAF9
:1060200000FAA9426FEA0A0ADFF83CE1DFF83C8196
:10603000DFF83C9113D0D5F824B0C1F824B0CBF8E8
:10604000201059F820B0AB4534D149F82010D8F8C9
:10605000000078B30AEA0000C8F800002AE0002136
:1060600049F82010434801680AEA01010160D8F8A4
:10607000000018B10AEA0000C8F80000A1B9202108
:10608000CEF8001000253D6084F3108810680028C9
:1060900002BF1E60EFF30580002858D1EFF3108097
:1060A00062B680F3108852E091FAA1F0B0FA80F065
:1060B000CEF800003868854236D1DEF8001059F875
:1060C00021503D60D8F80000F0B11168491C116002
:1060D00084F31088EFF3108472B61068401E1060CD
:1060E000D8F80000DEF800E090FAA0F1B1FA81F1F2
:1060F00059F82150D5F83C90CE4505D30CFA01F162
:106100003D608843C8F8000084F3108810680028B8
:1061100002BF1E60EFF30580002818D1EFF3108056
:1061200062B680F3108812E084F3108800993C680E
:10613000A1420CD01068002802BF1E60EFF305805A
:10614000002804D1EFF3108062B680F31088BDE818
:10615000F18F00BF7C3E002060370020903E002081
:1061600004ED00E0803E00208C3E0020A03E002098
:10617000A43E00209C3E0020026922F00702A2F10A
:1061800044020D4B13604FF0000353609360D360E3
:10619000136153619361D361136253629362D3625B
:1061A000136353634FF0FF339363D1634FF08073F6
:1061B0001364826070470000FDFFFFFF2DE9F0418E
:1061C0000446EFF3108572B6606E20B104F14C0006
:1061D00000F008FB01E00021E1644FF080533D4EE8
:1061E0003D4A30683D4F401E3060A16B206B002956
:1061F0004CD1002857D0606B002850D12163DFF8C4
:10620000E0C0E16A5CF82100002839D14CF8214057
:10621000246264624FF0010CDFF8C8E0DEF8008011
:106220000CFA01F040EA0800CEF800002E48D0F841
:1062300000E0714537D20160386808B93C6032E04F
:10624000D0F83CE071452ED2C06A864507D0274978
:10625000D1F800E00CFA00F040EA0E0008603C6063
:1062600085F310883068002802BF1360EFF30580C3
:1062700000282CD1EFF3108062B680F3108826E05E
:10628000416A0C624462616220620CE0012818BF1E
:10629000022808D0606B10B90021A16302E0002140
:1062A0006163032020631249086885F310883C6805
:1062B000A0420CD03068002802BF1360EFF30580C5
:1062C000002804D1EFF3108062B680F31088BDE897
:1062D000F08100BF903E002004ED00E0803E0020F1
:1062E000A43E00209C3E00208C3E0020A03E0020CA
:1062F0007C3E00202DE9F04104460D46EFF310816D
:1063000072B6206B48B1D4F89800E562A84288BF05
:106310002846E06381F3108845E0244ED4F82C80B1
:10632000376823480268921C02600E200122002375
:106330002063A263E36481F310882046FFF746FEE2
:10634000EFF3108072B6D4F89810E562A94288BFC6
:106350002946E16380F310882046FFF72FFFEFF313
:10636000108172B6326894421BD0206BC8B9D06AD3
:10637000E26A904202D3BC4213D104E0E36B934241
:106380000FD2984206D3A84534600AD2094840F893
:10639000224006E008480368012404FA02F21A4386
:1063A000026081F31088BDE8F08100BF803E0020CC
:1063B000903E0020A43E0020A03E0020F8B5EFF360
:1063C000108172B6C269012A02D881F310883DE0BB
:1063D0008369022A08D11A6FDB6AD46A9C4238BFEB
:1063E000826181F3108831E01C46194E256F3768B1
:1063F0007F1C3760EE6AE76ABE4238BF2C4681F3E5
:106400001088EFF3108172B68669B34204BFC76982
:10641000BA4204D033461C46C269256F00E02D6F96
:106420009D42E7D10A4A15686D1E9C42156009D04D
:10643000226F656F55672A675A6F23676267146713
:106440005C67846181F31088FDF782FE0020F2BD55
:10645000903E00200249034A01600261704700BF7C
:10646000873A0008AD3A000810B50446FDF7AAFDCA
:10647000204610BD10B5044610460A460146204687
:10648000FDF7ACFD204610BD80B500F0C1F900F06D
:10649000C0F900F0BFF900F01FF800F0BCF900F0FF
:1064A000BBF900F099F800F0B8F900F0B7F900F086
:1064B000B6F900F0B5F900F0B4F900F0B3F900F066
:1064C000B2F900F0B1F900F0B0F900F0AFF9BDE8B1
:1064D000014000F0ACB9000018B51B4C0020206052
:1064E00087B041F60A00ADF818000094032301229A
:1064F00006A90120FEF735FB42F629210122ADF85D
:1065000018100492A01C05900A2100230222039176
:106510000293019300922023208806AA0121FEF70E
:106520006EFB08B010BD1CB542F62922904209D17D
:106530000C680548009400220B7941880088FEF71A
:10654000B8FB16BD972016BD0044002070B502466A
:1065500086B050780024FF283BD1B2F80310684879
:1065600040F60143C91A22D0123901BFB2F8071010
:106570004D1EC08885422CD1957AB2F80500537A19
:106580000124012D0BD1009302F10A06019600238C
:106590000022FEF7EBFB00238DF8083016E00A32EC
:1065A0000192009301228023FEF7E0FB11E0B2F894
:1065B00007104088891E81420BD1507B0124C107FE
:1065C0004EBF8DF8084002208DF8080002A8FEF7A3
:1065D00011FE204606B070BD18B587B04948484C3A
:1065E000FEF7EEFD41F60D01ADF8181000940823FA
:1065F000012206A90120FEF7B4FA42F63720ADF8D1
:106600001800012204920A20A11C039000231022EA
:106610000591029301930092072300F023F842F6BC
:106620003820ADF8180000220492029201920A204C
:10663000211D03900222059100F012F842F6392044
:10664000ADF818000022049201920A20A11D0390C7
:10665000022308220591029300F002F808B010BD51
:1066600000920123208806AA0121FEF7C8BAFEB5D0
:106670000246002042F63725521B214C08D0521EFC
:106680003CD100910123A1882088FEF712FBFEBDBA
:10669000487A8DF8040001AA4B7A08885070DD070B
:1066A00004D50888000A9070032300E00223487A8A
:1066B000060706D54888D0545B1C4E88360AD65447
:1066C0005B1C4E7AF00611D50D7A0020091D0BE0F7
:1066D00031F81060DFB25B1CD655DFB231F81060C4
:1066E000360AD6555B1C401CA842F1DB01A800907D
:1066F000DBB2618820880022FEF7DBFAFEBD0000D5
:10670000E04300204D650008EFF3108072B60449A5
:106710000A68521C0A6080F310880248FFF74EBDD9
:10672000903E0020E437002010480068EFF310820C
:1067300072B60F4B00211960A8B1016B99B9C169FC
:106740000C4B81611960016A81420CD0C36AC06B35
:10675000834208D1084840F8231008490B6850F8D4
:1067600023000749086082F3108870477C3E0020B0
:106770003437002060370020A43E00208C3E0020EB
:10678000803E00200168002900D1704710B511F14A
:10679000010F1FD08269EAB921292EBF7C21491E31
:1067A00089000D4A13685A180C4909688A4205D3B2
:1067B0000B4B1C68521A22F003022244116819B9CB
:1067C00000614061106004E04B691861486101613B
:1067D0004361826110BD00BF403700203C3700207C
:1067E00038370020816991B10269904205D10A6869
:1067F00082420AD100230B6007E0436953611A61AA
:106800000B68834204BF91610A6000218161704777
:1068100070477047704770477047704770477047C0
:1068200070477047704770477047704770477047B0
:1068300049490A68920840EA820008607047464861
:10684000006800F00C00704700EB81024349D2F869
:106850008000884201D0012070470020704780B539
:10686000FAF773FE00F05AF83D481F2181610321B9
:10687000026809E0FAF770BE80B5FAF766FE00F02C
:106880004DF837480268022161F302020260354880
:10689000016841F00401016030BF01BD38B5324CE0
:1068A0004FF48065256100F02CF80028FBD14FF0F3
:1068B000B040816801F00C0104291DD1016841F448
:1068C0008031016001212948026861F302020260FF
:1068D000036803F00703012BFAD14FF0B0400168C1
:1068E0008903FAD50221826861F30102826081681E
:1068F00001F00C010829FAD1E560BDE83140FAF752
:106900002BBE032120469FE780B5FAF71EFE1548EF
:10691000016821F00401BEE7FAF71EBE70B5124C03
:10692000FFF7EFFF0028FBD10421FFF7EBFF0F4D2E
:106930004FF4806638B90E480168090402D4006833
:10694000400506D5266100F015F82868C008C0008B
:106950002860E66070BD0000080000580004008058
:106960000004005810ED00E00014005800400058EA
:106970008804005810B54FF0B044206840F480708F
:10698000206020684105FCD50120FFF751FF606AB7
:10699000800880006062FFF752FF0428FBD110BD21
:1069A0000000004801000000000000480100000055
:1069B0000000004801000000000000480100000045
:1069C0000000004801000000000000480100000035
:1069D0000000004801000000000000480100000025
:1069E0000000004801000000000000480100000015
:1069F0000000004801000000000000480100000005
:106A000000000048010000000000004801000000F4
:106A100000000048010000000000004801000000E4
:106A200000000048010000000000004801000000D4
:106A300000000048010000000000004801000000C4
:106A400000000048010000000000004801000000B4
:106A500000000048010000000000004801000000A4
:106A60000000004801000000000000480100000094
:106A70000000004801000000000000480100000084
:106A80000000004801000000000000480100000074
:106A90000000004801000000000000480100000064
:106AA0000000004801000000000000480100000054
:106AB0000000004801000000000000480100000044
:106AC0000000004801000000000000480100000034
:106AD0002DE9FC410024384988420ED0BDE8F381FD
:106AE0003648032202630125354A856313685B1C1F
:106AF000136081F31088FFF769FAEFF3108172B623
:106B0000304A1068036800930BB1C3F818D01068BE
:106B10002D4D002340F8043B2E68B04204BF2B48A3
:106B200000682B4D10602B6081F31088EFF310810B
:106B300072B6284E23E0002307E07868BA68FC6844
:106B40000028F8D03F6101AB01973860BB61376026
:106B500081F3108810001CBF20469047EFF3108887
:106B600072B6002101983160B84203D1B96138464C
:106B7000FFF708FE88F31088EFF3108172B60098D3
:106B800098B10746006900220192874208BF00922F
:106B900005D07A6942611061C0F818D00090386859
:106BA0002128CAD320380022CCE72868002897D0B3
:106BB00081F31088A1E700BF4D495441E43700201C
:106BC000903E0020403700203C370020383700201E
:106BD000443700205037002070B50246EFF3108391
:106BE00072B6906E284CA04202BF02F18404A06AE3
:106BF000814226D1D16E21B30868244DA84220D10C
:106C0000C869F0B10025401E956607D0166F556F14
:106C100075672E678D69954208BF3546C8618D61DD
:106C2000106B0D280DD11D21194821600468641CCA
:106C3000046083F310881046FFF7C0FAEFF3108367
:106C400072B683F3108870BD10B50446EFF310815F
:106C500072B60F480268521C0260D4F8A40060B1FA
:106C60000122826081F31088FDF7A0FCEFF3108110
:106C700072B6D4F8A4000028EFD105480268521E6D
:106C8000026081F3108810BDD96B00084554554D42
:106C9000903E00202DE9FC4D016800F108054908EF
:106CA00005EBC102019200F10803406800F0010801
:106CB00003EBC106400806EBC0000021002205E0FE
:106CC000009B9F4218BF17F9014B0BD1019B9D42BE
:106CD00006D02C686B682F19FB1800930835EFE776
:106CE000BDE8F68D009B9F4205D12B68EF186B68BD
:106CF000FB180093083517F801AB91420FD183467A
:106D00005E4508BF00F015F831685FEA080018BF5B
:106D1000494470680A1808369142F1D05846002C50
:106D200001F801AB02D5641CE7D1C9E7641ED9D5CF
:106D3000C6E7012000F000B880B500F007F8024A6D
:106D400011001820ABBEFBE72600020010B500F0D2
:106D500013F8020000230024E4431068A04203D08B
:106D600011000220ABBE13605068A04203D0111D79
:106D70000220ABBE536010BD004870472C120020AB
:106D800001000000030000000500000001000000F9
:106D900001000000060000000A00000020000000C2
:106DA00002000000040000000800000010000000C5
:106DB0004000000080000000000100000002000010
:106DC000A0860100400D0300801A060000350C006B
:106DD00040420F0080841E0000093D0000127A002E
:106DE0000024F40000366E010048E801006CDC026B
:106DF0000000000000000000000000000000000093
:106E000070B50246EFF3108372B6906E184CA04234
:106E100002BF02F18404A06A814226D1D16E21B35F
:106E20000868144DA84220D1886AF0B10025401EA0
:106E3000956607D0166F556F75672E674D6A954238
:106E400008BF354688624D62106B09280DD11021AC
:106E5000094821600468641C046083F310881046AC
:106E6000FFF7ACF9EFF3108372B683F3108870BDAF
:106E7000016E000845545942903E002070B502460C
:106E8000EFF3108372B6906E184CA04202BF02F16D
:106E90008404A06A814226D1D16E21B30868144DC2
:106EA000A84220D10869F0B10025401E956607D0A0
:106EB000166F556F75672E67CD68954208BF3546CA
:106EC0000861CD60106B06280DD10D2109482160A5
:106ED0000468641C046083F310881046FFF76EF9A1
:106EE000EFF3108372B683F3108870BD7D6E0008D7
:106EF000414D4553903E00201349002008604FF05B
:106F0000B0411248026842F4700202604FF4E0237C
:106F1000086840F0010008608B600A680C48024075
:106F20000C480A60036823F00503036042685208B6
:106F30005200426000220848C8600861086820F4D6
:106F4000802008608A61704708ED00E088ED00E06D
:106F5000FBFEF6FA94000058001004227047FEE78A
:106F6000FEE7FEE7FEE770477047FBF771BC0A4893
:106F7000F9F7C5BD0948FAF713BC0948F9F715B97F
:106F80000848F9F712B9FEF767BCFEF78FBC00F0AE
:106F900017B80548F9F7B3BDD4410020944200204A
:106FA000B83F0020243F0020344200201020FCF78E
:106FB000EFBF0120FCF7ECBF0220FCF7E9BF0000A7
:106FC0000449C8680A6882430A60486000F004B84F
:106FD00000000000001500587047000010B511496E
:106FE0000C68A06C616C88470F48016809B12046A5
:106FF0008847EFF3108072B601212163A16300215D
:10700000E1640A490A68521C0A6080F31088EFF3B1
:10701000148020F0040080F314882046BDE810405E
:10702000FEF7D4BF7C3E0020943E0020903E00201E
:107030000000000000000000000000000000000050
:1070400000000000440008004005020112299C00D5
:10705000F4010000FFFFFFFF480101000020D806F7
:1070600000037206000000000D00040030B400258B
:1070700012E050F8042BD30744BF4A44521E091FA4
:10708000042942F8045BFAD213468C0744BF1580EA
:107090009B1CC90748BF1D7050F8041B0029E8D18C
:1070A00030BC7047EFF3108372B6016B042907D12F
:1070B00008490A68521C0A6083F31088FFF77EB8FB
:1070C000826ED0F8AC1083F31088130018BF1047FD
:1070D000704700BF903E002010B507497944183131
:1070E000064C7C44163404E00A68081D11448847A5
:1070F0000146A142F8D110BD500000009C000000E4
:1071000073656D6170686F72655F736863695F74E2
:107110006C5F6E6F746966795F6173796E635F65CA
:10712000767400004EF68851CEF20001086840F4F3
:1071300070000860BFF34F8FBFF36F8F4FF0017087
:10714000E1EE100A7047000025FFFFFFCC31000080
:107150003C120020700800003C00032000000000EA
:1071600035FBFFFF0200000002000000900100005C
:1071700002000000280003201400000019FBFFFF9C
:107180000200000002000000760100002B00000059
:107190000810002034020000000000000000000081
:1071A00000000000000000000100000002000000DC
:1071B000030000000400000000F00DF8002801D0DA
:1071C000FFF78AFFAFF300800020AFF30080FAF7EB
:1071D00068FC00F002F80120704700F001B80000E0
:1071E00007463846FFF7A8FDFBE7000005480146C3
:1071F00003B4684680F30988AFF30080FFF792FF7D
:10720000FFF7DAFFA5EDF5FE096900081969000826
:10721000796800089D6800085F68000875680008C4
:107220000148804701480047F96E0008ED710008E9
:10723000FFF7FEBFFFF7FEBFFFF7FEBFFFF7FEBF82
:10724000FFF7FEBFFFF7FEBFFFF7FEBFFFF7FEBF72
:10725000FFF7FEBFFFF7FEBFFFF7FEBFFFF7FEBF62
:10726000FFF7FEBFFFF7FEBFFFF7FEBFFFF7FEBF52
:10727000FFF7FEBFFFF7FEBFFFF7FEBFFFF7FEBF42
:10728000FFF7FEBFFFF7FEBFFFF7FEBFFFF7FEBF32
:10729000FFF7FEBFFFF7FEBFFFF7FEBFFFF7FEBF22
:1072A000FFF7FEBFFFF7FEBFFFF7FEBFFFF7FEBF12
:1072B000FFF7FEBFFFF7FEBFFFF7FEBFFFF7FEBF02
:1072C000FFF7FEBFFFF7FEBFFFF7FEBFFFF7FEBFF2
:1072D000FFF7FEBFFFF7FEBFFFF7FEBFFFF7FEBFE2
:1072E000FFF7FEBFFFF7FEBFFFF7FEBFFFF7FEBFD2
:1072F000FFF7FEBFFFF7FEBFFFF7FEBFEC00020D7A
:10730000FF018100810081008100F3000001F9008C
:107310000010FC000A080048000C0048000C00485F
:09732000F8FF0300093D00FCF038
:04000005080071ED91
:00000001FF
