:020000040800F2
:1000000008100020A1460008ED450008EF45000853
:10001000F1450008F3450008F54500080000000020
:10002000000000000000000000000000F74500088C
:10003000F945000800000000FB450008FD450008E8
:1000400091480008954800089948000801460008B2
:100050009D480008A148000825460008A54800085A
:10006000A9480008AD4800082B460008B148000820
:10007000B5480008B948000805460008BD48000812
:10008000C1480008C5480008C94800080000000031
:1000900000000000CD480008D148000831460008A3
:1000A000D5480008D9480008DD480008E1480008A4
:1000B000E5480008E9480008ED480008F148000854
:1000C0000000000000000000F548000800000000EB
:1000D0000B460008F948000800000000FD48000831
:1000E000014900080549000800000000094900080E
:1000F000194600081D460008214600080D49000861
:10010000114900080000000000000000000000008D
:1001100015490008194900081D49000800000000A1
:1001200000000000000000000000000000000000CF
:1001300000000000000000002149000838B504005C
:1001400001D1012032BD04F18405686808B900F0CE
:1001500020F800F00DF808B100F031F800F02CF8AC
:10016000012804D000F00DF821F02A0116E032BD7C
:100170002420686020680168490849000160A06A7D
:1001800070472068416821F490414160206881688F
:10019000704700212970204600F0FFBF816000F009
:1001A00004F8BDE8324000F072BB2068016841F0FD
:1001B0000101016020467047204600F001BA204648
:1001C00000F002BB10B5034603F15404606B202815
:1001D0003AD109B1100001D1012010BD196522806A
:1001E0006280002060620021E16321206063216958
:1001F0009868B1F1005F15D1B0F5805F04BF186950
:10020000002819BFDFF8A4036062DFF8A41361625D
:100210001A6800F02EF841F4000100F0BEF9F7D1A1
:10022000002010BDB0F5805F04BF1869002807BF2B
:10023000DFF880136162DFF88003606200F059FC30
:1002400000F0A9F9FAD1EBE7022010BD38B503465A
:10025000D3F88C0020280AD109B1100001D1012067
:1002600032BD00F00CF8BDE8384000F0BBBB022006
:1002700032BD02F1080151E8001F0832704700202A
:10028000D866DFF838431868A0420CD040680402F2
:1002900009D5186850E8004F054644F0806445E8E9
:1002A00000400028F5D118467047216801F1080385
:1002B00053E8001F206800F1080221F0400142E8E5
:1002C0000010002870472DE9F041044640F60F0C5D
:1002D0002268D669104616EA0C0F0768936804F185
:1002E0005C0507F0200006F020010DD1002914D094
:1002F00010B9D80040F18D80A969002900F045812E
:100300002046BDE8F0410847DFF84CC813EA0C0F5F
:1003100004BFDFF848E817EA0E0F7AD05FEAC67E1E
:1003200048BF5FEAC75807D54FF0010EC2F820E07A
:100330006A6B42F001026A63B2070AD5DA0708D590
:10034000D4F800E00222CEF820206A6B42F00402CA
:100350006A6372070AD5DA0708D5D4F800E00422E8
:10036000CEF820206A6B42F002026A6332070DD594
:10037000002808BF13EA0C0F08D0D4F800C00822E8
:10038000CCF820206A6B42F008026A63320509D576
:100390007F0107D526684FF4006232626A6B42F033
:1003A00020026A636A6B002A32D031B108B9D800E2
:1003B00003D5A96909B120468847686B21688A6816
:1003C000510602D410F0280F1DD0204600F096FBF5
:1003D00020688168480611D5FFF767FFFCD1686A7D
:1003E00060B10FF289718163686A00F0D5FF00285F
:1003F0000ED0686A816BBDE8F04108472046BDE831
:10040000F04101F093B8204601F090F800206863B5
:10041000BBE02869012878D1F00676D5F90674D5B5
:1004200010201062226829889068420637D56A6ACF
:100430001368586880B2002828D0884226DA68807D
:10044000106801688A061AD400F0ABF821F48071B4
:1004500000F0A3F8F8D100F063FAFCD1FFF725FF14
:10046000FCD1202028630021296100F09AF821F0B6
:10047000100100F092F8F8D1686A00F057FF0220EE
:10048000686129886888091A89B206E088427CD1A7
:100490001A68900679D502226A61204631E06A889E
:1004A0006888891A00281CBF88B200286DD02246AF
:1004B000106850E8003F044623F4907300F067F89A
:1004C000F6D1106800F1080400F1080354E8004F69
:1004D000DFF88006044043E800400028F1D102F133
:1004E0005C032020186300241C619C61146854E89C
:1004F000004F156800F034FBF8D10220586189B232
:100500001046BDE8F04101F012B8F00209D55902D9
:1005100007D54FF4801010622046BDE8F04101F08D
:1005200007B8300609D5390601D4180205D5E9699E
:1005300059B32046BDE8F0410847700613D5790647
:1005400011D500F02EF821F0400100F026F8F8D186
:1005500004F15C002021C1620022C2612046BDE896
:10056000F04101F020B8300206D5790004D52046CC
:10057000BDE8F04101F02AB8F00148BF002F04D5D2
:100580002046BDE8F04101F022B8BDE8F08144E822
:1005900000300028704741F0800142E80010002838
:1005A0007047206850E8001F02467047FB0B0008A8
:1005B000730C0008A30B0008790B000800800040B2
:1005C000F8B50446DFF8180922681368A1680340EB
:1005D00020690B4361690343E0690B4303431360E4
:1005E00000255168E06821F4405101435160A3693E
:1005F000DFF8F0188A421CBF206A03439668DFF8D0
:10060000E808DFF8E8E8DFF8E8780640334393606D
:1006100067A6D36A606A1B0940EA0313D362724576
:10062000DFF8D0084FF4004338D13F6807F00307E4
:10063000032F4CD8DFE807F0024542484FF0010C89
:10064000E169B1F5004F4FF6F07740F07F80BCF1E3
:10065000010F09D0BCF1020F0AD0BCF1040F70D019
:10066000BCF1080F70D098E001F02CFB002814D0EA
:10067000626A616836F81230B0FBF3F04A0802EBA8
:100680004002B2FBF1F0A0F11001B942EBD20740F9
:10069000C0F3420007432068C7607FE08A4216D15A
:1006A0003F6817F4406723D0B7F5806F09D0B7F5DE
:1006B000006F03D0B7F5406F06D008E04FF0020C92
:1006C00007E04FF0040C04E04FF0080C01E04FF09D
:1006D000100C8A42B4D1BCF1000F09D0BCF1020F5A
:1006E0000AD0BCF1040F15D0BCF1080F15D054E0AE
:1006F00001F0E0FA002851D0616A36F81120B0FB11
:10070000F2F6626802EB42018E4246D31303B34213
:1007100005D242E001F084FAECE71846ECE7500815
:10072000002110EB062051EB1661002301F044FB81
:10073000A0F54076DFF86C78BE422ED22168C86002
:100740002CE001F06DFA91E7184691E7BCF1010F3A
:1007500009D0BCF1020F09D0BCF1040F18D0BCF1D4
:10076000080F18D019E001F0ADFAB8B1626A36F896
:1007700012306168B0FBF3F000EB5100B0FBF1F018
:10078000A0F11001B94208D2226880B2D06005E021
:1007900001F046FAE9E71846E8E7012504F16800A8
:1007A0000121002341800180C36003612846F2BD1E
:1007B000010002000400060008000A000C001000FE
:1007C000200040008000000190F828100A0706D59C
:1007D00002685368816B23F400430B43536090F825
:1007E0002810CA0706D502685368C16A23F400338B
:1007F0000B43536090F828108A0706D502685368A7
:10080000016B23F480330B43536090F828104A07A0
:1008100006D502685368416B23F480230B43536071
:1008200090F82810CA0606D502689368C16B23F4B5
:1008300080530B43936090F828108A0606D502680F
:100840009368016C23F400530B43936090F82810D5
:100850004A0610D502685368416C23F480130B4399
:100860005360436CB3F5801F05D15368816C23F44A
:10087000C0030B43536090F828100A0606D50168A0
:100880004A68C06C22F4002202434A607047F8B5FF
:10089000044604F184050020E8606FF07E4701F013
:1008A0000FFB0646206801680A0714D500973346F7
:1008B00000224FF40011204600F04AF858B1FFF72B
:1008C00070FE21F08001FFF768FEF8D104F184008A
:1008D0002021416016E0206801684A0716D500977C
:1008E000334600224FF48001204600F031F868B111
:1008F00000F024F8FCD100F013F8FCD104F18400DE
:1009000020218160002202700320F2BD2020686057
:100910002021A9600020E066002121672870F2BD37
:10092000216801F1080353E8001F2068490800F11D
:100930000802490042E8001000287047206850E88B
:10094000001F024621F4907142E800100028704711
:100950002DE9F041069C05460E4690461F46286844
:10096000C1693140B1420CBF01200020404537D160
:1009700014F1010FF3D001F0A3FAC01B844200D39D
:1009800014B90320BDE8F081286801684A07E6D55C
:10099000802E18BF402EE2D0C169080704D4296810
:1009A000C8690105DBD50DE02A68082010622846D9
:1009B00000F0A4F805F184000821C1600022027053
:1009C0000120DFE729684FF400600862284600F044
:1009D00095F805F184002021C16000220270D0E763
:1009E0000020CFE730B5034600209965FF2403F1CE
:1009F0005C010A804A8088619868B0F5805F04D104
:100A0000186990B940F2FF140FE018B9186960B185
:100A10007F2007E0B0F1805F06D1186908B97F2414
:100A200003E03F20888001E000248C8000204863A0
:100A300022240C63196801F1080555E8001F1868A5
:100A400000F1080441F0010144E800100028F1D150
:100A500003F15C018868B0F1005F28D18889824287
:100A600025D39A68B2F5805F04BF1869002803D1C6
:100A70000FF285428A610BE00FF295348C611869A0
:100A800030B100F036F841F48071FFF786FDF8D1FF
:100A9000196801F1080454E8001F186800F1080201
:100AA00041F08051FFF779FDF2D1002030BD986808
:100AB000B0F5805F04BF186900280CD10FF25522F1
:100AC0008A61186850E8001F024641F02001FFF7D4
:100AD00064FDF6D1E9E70FF2E9128A61186900288E
:100AE000EFD000F006F841F49071FFF756FDF8D111
:100AF000DBE7196851E8001F1A687047016851E880
:100B0000002F0B4622F4907243E800210029F5D112
:100B1000016801F1080301F1080253E8003F0D49A3
:100B20000B4042E800310029F2D1C16E012909D100
:100B3000026852E8002F036822F0100243E8002107
:100B40000029F5D12021C0F88C100022C26642672E
:100B500070470000FEFFFFEF0100001020010004BD
:100B600024F0100445E8004000287047806A002106
:100B7000A0F85E1000F0DABCD0F8881021290FD15F
:100B8000B0F8561001B923E0036D0268197891623C
:100B9000016D4A1C0265B0F856104A1EA0F8562096
:100BA0007047D0F88810212911D1B0F8561001B93A
:100BB0000EE0036D02681988C1F308019162016DAE
:100BC0008A1C0265B0F856104A1EA0F856207047DD
:100BD000026852E8002F036822F0800243E80021F7
:100BE0000029F5D1016851E8002F0B4642F0400280
:100BF00043E800210029F5D17047D0F88810212959
:100C000000D0704730B500F15602938A0DE00168BC
:100C1000CC69250608D5046D25788D62016D4C1CC4
:100C200004651588691E11805B1E99B241B1118857
:100C30000029ECD100F00FF8FCD100F002F8FCD153
:100C400030BD016851E8002F0B4642F0400243E8F6
:100C5000002100297047026802F1080454E8002FBF
:100C6000016801F1080322F4000243E80021002991
:100C70007047D0F88810212900D0704730B500F1B6
:100C80005602938A0FE00168CC6925060AD5046DE7
:100C90002588C5F308058D62016D8C1C04651588D7
:100CA000691E11805B1E99B241B111880029EAD1F9
:100CB000FFF7D1FFFCD1FFF7C4FFFCD130BD00002E
:100CC00010B500F050F81FD14B6A9188846D0B402D
:100CD0002370816D4B1C00F04CF819D100F050F8D6
:100CE000FCD100F057F8FCD100F06CF80BD10023D8
:100CF000136100F05DF8FCD10168CB69DC0644BFEC
:100D000010230B627AE07EE0886940F00800886179
:100D100010BD000010B500F026F81FD14B6A918875
:100D2000846D0B402380816D8B1C00F022F819D15B
:100D300000F026F8FCD100F02DF8FCD100F042F8CC
:100D40000BD10023136100F033F8FCD10168CB69AB
:100D5000DC0644BF10230B6250E054E0886940F089
:100D60000800886110BD00F15C020168136B222B42
:100D70007047836551884B1E538051880029704706
:100D8000026852E8002F036822F4907243E80021C1
:100D900000297047026802F1080454E8002F016836
:100DA000520801F10803520043E80021002970476E
:100DB000016851E8003F0C4623F0100344E800317D
:100DC0000029704700F15C02202111630023936128
:100DD00000215161434B016899420CD049680B02D4
:100DE00009D5016851E8003F0C4623F0806344E8D0
:100DF00000310029F5D11169012970471188BDE83A
:100E0000104000F094BBBDE8104000F0C2BB0000F1
:100E10002DE9F84300F010F94BD1A88900283AD009
:100E2000B80638D500F0D2F80870A06D421C00F06A
:100E3000C4F817D0F90748BF5FEAC85200F0B4F809
:100E400003D5F20701D500F0CFF8780703D5F207F4
:100E500001D500F0C1F8686B20B1204600F066FBB8
:100E60000020686368880028DAD100F0CFF8FCD150
:100E700000F028F8FCD100F0FDF809D100F0EAF804
:100E800044BF102101622988204600F050FB02E097
:100E9000204600F07EFB688868B1A98988420ADA9A
:100EA00000F0BEF8FCD18048A86100F0A5F8FCD1A4
:100EB00001E000F002F8BDE8F183816941F008012A
:100EC00081617047206800F1080200F1080152E8D2
:100ED000002F7648024041E80020002870470000BB
:100EE000F369FFCF00800040FFF4FF11003801409C
:100EF000880000580024F4002DE9F84300F09CF825
:100F00004BD1A88900283AD0B80638D500F05EF851
:100F10000880A06D821C00F050F817D0F90748BF78
:100F20005FEAC85200F040F803D5F20701D500F09F
:100F30005BF8780703D5F20701D500F04DF8686B30
:100F400020B1204600F0F2FA00206863688800288B
:100F5000DAD100F05BF8FCD1FFF7B4FFFCD100F070
:100F600089F809D100F076F844BF10210162298880
:100F7000204600F0DCFA02E0204600F00AFB688818
:100F800068B1A98988420ADA00F04AF8FCD14848D9
:100F9000A86100F031F8FCD101E0FFF78EFFBDE859
:100FA000F183000000FD0F0005D501210162686B8F
:100FB00040F001006863B8077047A2656888411E69
:100FC00069802068C76917F0070F70472168486A71
:100FD000A16D09EA00007047216804200862686B6F
:100FE00040F0020068637047216802200862686B65
:100FF00040F0040068637047216851E8001F2268D0
:1010000041F0200142E8001000287047216851E8B3
:10101000001F226821F4807142E800100028704708
:10102000226802F1080353E8001F083221F08051C2
:1010300042E8001000287047044604F15C0520686F
:10104000B5F80490C7690146D1F800808668296B1D
:101050002229704700212961206850E8001F0246BC
:1010600021F0100142E800100028F5D12068C16984
:10107000CA067047202028630021A961002068610A
:101080000C49206888420CD04068010209D52068CC
:1010900050E8001F024621F0806142E8001000285D
:1010A000F5D1286901287047C10C0008FEFFFFEF49
:1010B000150D000800800040664981B00A680243AF
:1010C0000A60096808400090009801B0704780B538
:1010D0004FF40020FFF7F0FF002200212E2000F047
:1010E0000CFFBDE802402E2000F024BF01685A4AE0
:1010F000914200D0704780B54FF48010FFF7DCFFBD
:10110000002200212C2000F0F8FE2C2000F012FF1D
:10111000002200212D2000F0F0FEBDE802402D202D
:1011200000F008BF30B58DB00446302101A800F0B2
:1011300055FF226849498A422DD100F053FF484D9E
:1011400000F050FFA96B012060F30921A9634FF45F
:10115000006001904FF48071099101A800F054FFE4
:1011600008B101F0E0F8A86B40F40040A863002249
:10117000296841F4806129600021286800F48060BA
:1011800000900098032000F0B8FE032000F0D2FE8B
:10119000204601F055F90DB030BD38B592B0044687
:1011A000142101A800F01AFF302106A800F016FF54
:1011B00020682C4988424BD10122002106920791D8
:1011C00006A800F021FF08B101F0ADF82648274D30
:1011D000416941F480414161416901F480410091DC
:1011E0000099026842F0010202600221006800F0EA
:1011F000010000904FF4C060009A02910122039216
:101200000321019004910722059201A94FF090401B
:1012100001F030F9164828600F2169600020102283
:10122000E86080216861A861E8612862AA6029619C
:10123000284600F01FF808B101F075F8E567AC62C8
:1012400000220021242000F058FE242000F072FE2D
:1012500013B030BD50000058000C0058002800406A
:1012600058000058003801404C0000584814002035
:101270004400024038B5040001D1012032BD21688C
:10128000DFF890024118142200F04AF8DFF88802D3
:101290002A62E8610221697020680268A068E1683A
:1012A00023686FF30E12024320690A436169024307
:1012B000A0690A43E1690243206A0A4302431A60B3
:1012C000204600F002F9A068B0F5804F04BF00216D
:1012D00061602079696A00F03F0000F01BF838B1C6
:1012E000052805D2204600F005F900F00CF803E0CF
:1012F000002028636863A8630021A9610120687049
:101300002970002032BD296B00200860696BA86B32
:10131000486070470860A96AE86A4860606870477A
:1013200004F12405B1FBF2F29200704740B100F1E4
:1013300024014A78022A05D00420886100220A701C
:10134000012070470268136823F00E0313604A6A95
:10135000136823F480731360006802685208520017
:101360000260012091F82020CB6902F01C0290401D
:1013700058608A6AC86A5060086B38B102461068C3
:1013800020F4807010604A6B886B506001204870B8
:1013900000220A700020704738B500F124020024B2
:1013A0005178022903D004209061012429E00168CA
:1013B0000B6823F00E030B6001680D686D086D006B
:1013C0000D60516A0B6823F480730B60012192F861
:1013D0002030D56903F01C0399406960936AD16A93
:1013E0005960116B39B10B46196821F4807119608D
:1013F000536B916B5960012151701470516901B1A7
:101400008847204632BDF8B500F124010426CA6998
:10141000126803681C6891F8205005F01C0506FA54
:1014200005F73A4210D067070ED51A68940603D420
:101430001A6822F004021A6000F03EF8C968002918
:1014400039D0BDE8F4400847022606FA05F73A42CB
:1014500013D0A70711D51A68940605D41A6822F08C
:101460000A021A6001234B7000F026F800220A706D
:10147000896801B3BDE8F4400847082606FA05F577
:101480002A4218D0220716D51C6824F00E041C60CE
:10149000012291F82030CC6903F01C039A4062606D
:1014A000012301228A614B7000220A70096911B17F
:1014B000BDE8F4400847F1BD91F82020CB6902F067
:1014C0001C0296405E607047000010B5426C1349E4
:1014D000920801EB8203836414220178104BC364E9
:1014E0000839B1FBF2F1012401F01F0104FA01F106
:1014F000016510BD01790B4A0B4B836501F03F017B
:1015000002EB81024265491E012201F003018A407B
:10151000C2657047F8FFFDBF0000024000080240AE
:1015200080080240FC0802404009024070477047B2
:1015300070470EE002684368024408305FEAC37CEB
:1015400044BF4B445B1E52F804CB43F804CB091F45
:10155000F9D150F8041B0029ECD17047002800D0C5
:10156000704710B5154C00F00FF8BDE81040FEF7BD
:101570006DBE002800D0704710B5114C00F004F883
:10158000BDE81040FEF71EBE0E4823600E4B036000
:10159000704700680C49884204D1084A1068002846
:1015A00018BF0047704700680749884204D1044AC1
:1015B0001068002818BF0047704700006C15002015
:1015C00070150020A41200200038014070477047B9
:1015D0004FF0B040006800F0F000B02888BFB020A5
:1015E0007047DFF878070068000100F0F0007047EE
:1015F0002DE9F041040051D0207881064FF0B0452C
:101600003AD5A868E96810F00C0001F0030103D096
:101610000C2808BF012943D1E06900283ED0FFF71C
:10162000D7FF0146606A814211D200F05DFB0028BD
:1016300034D12968606A21F0F001014329606968AA
:10164000206A21F47F4141EA0021696009E02968AC
:1016500021F0F001084300F0F0F9606A00F044FB6B
:10166000E0B900F019FBDFF8F8160860DFF8F406BF
:10167000006800F0D7FF88B92078C10763D5A86853
:10168000E96800F00C00082801F0030103D00C28E1
:1016900008BF03292FD16068002854D10120CAE176
:1016A000E069B8B1296841F0010100F0B1FA0646DD
:1016B0002868800706D400F003FC801B0328F7D3BA
:1016C0000320B8E12868616A20F0F000084300F0C8
:1016D000B4F9D1E7286840084000286000F0F0FB2A
:1016E000064628684008C007C6D500F0E9FB801B05
:1016F0000328F6D3E4E76068B0F5803F04D1296899
:1017000041F48031296003E0286820F480302860AB
:10171000606858B100F0D4FB06462868800312D4F4
:1017200000F0CEFB801B6528F7D3C9E700F0C8FBAB
:1017300006462868400CC00705D500F0C1FB801B99
:101740006528F6D3BCE72078810715D5A868E96835
:1017500000F00C00042801F0030103D00C2808BF9E
:10176000022928D1E068002898D06868216920F013
:10177000FE4040EA016068602168DFF8EC6511F026
:10178000180F00F08C806069002878D0C806706857
:1017900059D5800731D4716841F00101716000F0C2
:1017A0008FFB07467068800727D400F089FBC01BB9
:1017B0000328F7D384E7E06870B1296841F48071A9
:1017C00000F026FA064628684005CED400F078FBE3
:1017D000801B0328F7D373E7286820F48070286003
:1017E00000F06EFB06462868800AC007C4D500F0EA
:1017F00067FB801B0328F6D362E7706840F00400A3
:1018000000F024F907467068000705D400F058FB83
:10181000C01B0428F7D353E77068A16920F47060F7
:1018200040EA0120706070684008400000F00EF946
:10183000074670684008C00731D500F041FBC01B67
:101840000328F6D33CE740F0010000F0FFF807461C
:101850007068800705D400F033FBC01B0328F7D362
:101860002EE7706820F0040070607068C008C00740
:1018700015D500F025FBC01B0428F6D320E77068BF
:1018800020F0040000F0E2F807467068C008C007C6
:10189000C9D500F015FBC01B0428F6D310E720784B
:1018A00041074CD5DFF8C484D8F80000C1050ED438
:1018B00000F098FB00F004FB0746D8F80000C105D3
:1018C00005D400F0FDFAC01B0328F6D3F8E6A068A3
:1018D000012804D1306840F00100306010E0052894
:1018E000306806D140F004003060316841F00101F9
:1018F00005E0400840003060316821F004013160AB
:10190000A06841F2893760B100F0DAFA80463068A9
:10191000800714D400F0D4FAA0EB0800B842F6D344
:10192000CEE600F0CDFA804630684008C00706D504
:1019300000F0C6FAA0EB0800B842F5D3C0E6A06AF2
:10194000002877D0A968EA68022801F00C015DD16F
:10195000E36A02F00300984202BF02F07000236BBA
:10196000984213D1636BC2F30620984202BF02F47F
:101970007810A36B984209D1E36B02F06060984243
:1019800002BF02F06042206C824233D00C293ED06C
:1019900000F05FF806462868810105D500F090FA4E
:1019A000801B0328F7D38BE6EA68DFF8C403E16AFB
:1019B0000240206B0A43616B0243A06B42EA0122A2
:1019C000E16B0243206C0A430243EA60296841F05C
:1019D00080712960E86840F08050E86000F070FA9B
:1019E00004462868810125D400F06AFA001B032808
:1019F000F7D365E6286881011CD4286840F0807020
:101A00002860E96841F08051E960E7E70C293FF47C
:101A100045AE00F01EF804462868810105D500F0A7
:101A20004FFA001B0328F7D34AE6E968DFF84403BE
:101A30000140E9600020BDE8F08128606868216A03
:101A400020F47F4040EA012068607047706000F039
:101A500037BA286820F08070286000F031BA2DE98C
:101A6000F8430400884600F0B080DFF80C5300F023
:101A7000D2F80CD200F0C8F8074600F0CCF806D037
:101A800000F01EFAC01B0228F7D90320BAE0207824
:101A900082074FF0B04711D5B968A06821F0F00176
:101AA0000143B96000F00CFA0646B868C00305D4DB
:101AB00000F006FA801B0228F7D9E6E72078DFF865
:101AC0009C62820612D53168606921F0F001014301
:101AD000316000F0F5F981463068800306D400F0EB
:101AE000EFF9A0EB09000228F6D9CEE720784106ED
:101AF00013D53068A1690009000140EA1110306077
:101B000000F0DEF981463068C00306D400F0D8F951
:101B1000A0EB09000228F6D9B7E72078420711D5D3
:101B2000B968E06821F4E0610143B96000F0C8F9E8
:101B30000646B868800305D400F0C2F9801B02286D
:101B4000F7D9A2E72078010712D5B868216920F4F7
:101B5000605040EAC100B86000F0B2F90646B868CB
:101B6000400305D400F0ACF9801B0228F7D98CE7BC
:101B70002078C1072BD56068022819D139688903FC
:101B800023D5BA68920840EA8200B86000F098F95C
:101B90000646B868616800F00C00B0EB810F16D003
:101BA00000F08EF9801B41F289318842F1D36CE755
:101BB000032802D13968890103E00028396802D17D
:101BC0008907DED401E04905DBD401201AE028684A
:101BD00000F0070080450BD200F016F8044600F034
:101BE0001AF805D000F06CF9001B0228F7D94CE771
:101BF00000F052F85A49086000F04AFDBDE8F2438F
:101C000000F010BDBDE8F2832968C90848EAC101A7
:101C1000296000F055B9286800F00700404570477A
:101C200038B54FF0B045564CA96811F00C0106D1FB
:101C3000FFF7CEFCC0F3031054F8200032BD042996
:101C4000504828D00829504A04D12968C90222D412
:101C5000104632BDE96801F0030102290CD00329C6
:101C600004D12968C90207D4104605E0FFF7B0FC8B
:101C7000C0F3031054F82000E968EA68EB68C1F388
:101C800006214843C2F30211491C5B0FB0FBF1F07F
:101C90005B1CB0FBF3F032BD80B5FFF7C1FF3749E5
:101CA000FFE73A4A0968C1F3031152F82110B0FB6B
:101CB000F1F002BD80B5FFF7EFFF00F010F8C1F3BF
:101CC000022106E080B5FFF7E7FF00F008F8C1F356
:101CD000C22112F8211001F01F01C84002BD27499E
:101CE0002B4A09687047000070B52549B1282EBFFE
:101CF000CC6AC0F3031051F82040FFF772FC23496F
:101D000025A2C0F3031051F820002249B4FBF0F0E3
:101D1000B0FBF1F00024002152F82130834217D2A9
:101D2000491C0329F8D9144D2868C00844EAC000AA
:101D3000286000F0C5F80646286800F00700A042B9
:101D40000AD000F0BDF8801B0328F5D3032070BD36
:101D500015A050F82140E6E7002070BD08010058AA
:101D6000881000207C1000209000005800040058CB
:101D70008C80C111FCFFFFEF0040005808000058A4
:101D8000484500080024F4000048E8010845000820
:101D9000E047000840420F0012000000240000004D
:101DA00036000000400000000000000001000000BC
:101DB0000200000003000000D3BBD9B1B2F5803FA0
:101DC0005BD2022A1ED98C46B1FBF2F102FB11C391
:101DD0001B0443EA1043B3FBF2FC02FB1C3380B24A
:101DE00040EA0343B3FBF2F002FB103240EA0C403E
:101DF00000237047022A05D98446B0FBF2F002FBAB
:101E000010C270474AB105D100F0010249085FEAEB
:101E10003000704700220023704700F055BC0B00D3
:101E20000200002100207047F7D3002200237047F2
:101E3000904271EB030CF2D370B5B1FA81F4B3FAAE
:101E400083F52C1BA340C4F1200532FA05F6334379
:101E5000A2405FF00046E64002E05B085FEA320223
:101E6000841A71EB030524BF204629467641F4D33A
:101E700002000B003000002170BD70B5B1FA81F492
:101E8000B2FA82F5C4F120046419B4F12006DAD361
:101E9000B2405FF00044F440002502E052085FEADF
:101EA0003303C61A71EB020E24BF304671466441FB
:101EB0006D41F3D302000B002000290070BD704774
:101EC00001484068704700BF7410002009010200FB
:101ED00002D4394881547047384B02F00F021A443B
:101EE00002F8041C704736490A6860F30A2240F27F
:101EF000FA5060F31F420A60704770B5304B1C689F
:101F0000C4F302230124C3F10705052D2EBF0F25BD
:101F100004FA05F56D1E1E1D072E34BF0023DB1EBF
:101F20002940994004FA03F3BDE870405B1E1A4053
:101F30001143CBE7010007D4012200F01F01214B20
:101F40008A40400943F82020704701000BD4012249
:101F500000F01F011C4B8A40400943F82020BFF3CA
:101F60004F8FBFF36F8F7047401EB0F1807F01D35A
:101F7000012070471549164A48600023F020107070
:101F80008B600720086000207047010007D4012201
:101F900000F01F010F4B8A40400943F82020704792
:101FA000010007D4012200F01F010B4B8A404009B9
:101FB00043F820207047000000E400E018ED00E046
:101FC0000CED00E000E100E080E100E010E000E066
:101FD00023ED00E000E200E080E200E0002200F0FB
:101FE00075BB70470248016841F480710160704719
:101FF00000040058DFF87C211368010C23EA014338
:1020000043EA0043136070472DE9F041054600267E
:102010002868DFF864710105B0462FD53C68286A4E
:1020200004F44074844229D0FFF7DCFF002C3968A7
:1020300005D1286A21F44071014339601DE03A68F6
:1020400042F480323A6021F44071386820F48030E4
:102050003860286A014339603868C1070DD5FFF739
:102060002FFF04463868800707D4FFF729FF001BBD
:1020700041F289318842F5D30326B0462878DFF84B
:10208000FC40C20705D5E16F6868890840EA810114
:10209000E1672978880705D5E16FA86821F44061D8
:1020A0000143E1672978C80644BF2869FFF7A2FF0A
:1020B0002878810644BF6869FFF79CFF28784107AC
:1020C0000AD5E868E16F020902F47F22000191431A
:1020D00000F47F200843E067286881051ED5A869C1
:1020E000B0F1804F18BFB0F1004F00D018B9E16FC8
:1020F00021F0404108E0E16F21F04041E16720F02C
:102100008050E16F21F040610843E067A869B0F1B9
:10211000C05F03D1216841F08071216028684205C9
:102120000DD5E16FE86921F040510143E167E969AC
:10213000B1F1005F03D1206840F48030206029684D
:10214000C80405D57968686A21F440410143796083
:10215000296888040BD5A169E86A21F030010143A0
:10216000A161A169A86A890840EA8101A16140468C
:10217000BDE8F08188000058900000580C0000581D
:10218000574900E0574981B00A6802430A6009686C
:1021900008400090009801B0704780B500F064FAE4
:1021A00000F0AEFA00F018F800F048F84E484F4939
:1021B000016000F0CBFB0420FFF7E4FF0120FFF7F4
:1021C000E1FF00F09FF800F04EF800F064F800F036
:1021D000ABFA00F04EFBFCE780B598B0442107A8AD
:1021E000FFF7FCFE1C216846FFF7F8FEFFF7FAFE3A
:1021F0003F48016821F018010122016009924FF463
:102200008031089107204FF480710A910790402295
:1022100000210B92119107A8FFF7EAF96F20022124
:10222000009001910022029203920492059206927C
:1022300001216846FFF713FC19B000BD80B58CB0D2
:1022400030216846FFF7CAFE4FF440524FF48041F8
:1022500000920991022210210A920B916846FFF721
:10226000D3FE0DB000BD10B5224C234820600021E4
:1022700047F6FF700F22E0606160A2602161A161FA
:102280006161204600F09AFB2046BDE81040002224
:10229000002100F054B810B5184C194820604FF4D4
:1022A000E1310C20606100224FF40040E061616088
:1022B000A260E2602261A26122626262A2622046A2
:1022C000FDF73CFF0021204600F03CFC00212046A9
:1022D00000F043FC2046BDE8104000F015BC0000B3
:1022E000480000584C000058A8140020000C00586A
:1022F00090000058E414002000280040A4120020A0
:102300000038014080B50420FFF73AFF0120FFF7B5
:1023100037FF00220F210E20FFF7EFFDBDE802403E
:102320000E20FFF707BE70478A60FF2102685162E6
:1023300080F82130002180F8201000207047F8B587
:102340003E4E034630684FF47A7540092C46B0FB88
:10235000F4F46C43009493F82000012801D102208A
:10236000F2BD012083F82000022783F82170CA20E3
:102370001C686062532718684762FF241F68B868AA
:10238000400507D50098401E00900098F0B1F8680D
:102390004007F7D4B86820F48060B8601868C76850
:1023A00007F0800767F49067C760306840092E46E1
:1023B000B0FBF6F6754300951D680098401E00902E
:1023C000009818B1E8684607F7D506E01868446237
:1023D000032100F023F80320F2BDA868C008C00064
:1023E000A860186885682A438260186841611148AE
:1023F000016841F4002101600F48026842F40022A4
:1024000002601868816841F480418160186800F0BA
:102410000BF81868446200F001F8F2BD83F821104F
:10242000002083F820007047816841F4806181605A
:1024300001217047800800580008005888100020CB
:1024400090F82010012901D102207047012180F865
:102450002010022380F82130CA21026851625323E0
:1024600001684B62012301688A6842F02002FFF78D
:102470005BBF00002DE9F04F0024DFF88C81634E34
:102480004FF00F0902460B4631E0614FBA4214BFCC
:102490004FF0070E4FF0040E0EFA01F141EA050E5F
:1024A0005C4941F82CE0C74331685D683940ED0272
:1024B00048BF0143316071685D683940AD0248BF73
:1024C00001437160D8F800105D683940ED0348BFE2
:1024D0000143C8F80010D8F8041007EA010C596845
:1024E000890348BF40EA0C0CC8F804C0641C186893
:1024F00030FA04F176D00121A1400840F6D04FEA2D
:10250000440C032505FA0CF56FEA050E5D6805F02D
:102510000307012F1CBF05F00305022D10D195689C
:10252000DF680EEA050507FA0CF73D43956055682C
:1025300025EA01015D68C5F30015A54029435160F6
:10254000A1001D7905F00305032D1ED0D5689F68F5
:102550000EEA050507FA0CF73D43D5601D7905F035
:102560000305022D11D1E50802EB850501F01C07DA
:10257000D5F820B009FA07FA2BEA0A0BD3F810A015
:102580000AFA07F747EA0B072F6215680EEA0507F4
:102590001D7905F0030505FA0CF545EA070CC2F8AC
:1025A00000C05D6815F4403FA0D01A4D4FEA940C6E
:1025B00055F82C5001F00C0109FA01F7BD43B2F1B6
:1025C000904F08BF4FF0000E0BD0134FBA4208BF18
:1025D0004FF0010E05D0114FBA427FF456AF4FF0C5
:1025E000020E59E7BDE8F08F0AB181617047816240
:1025F00070470B4A136801460B421CBF116000F084
:102600003EB97047000000008008005800080058DC
:10261000001000480800014000040048000800487D
:102620000C08005870B50F4E044630780025A8B14C
:10263000FFF732FB32784FF47A71B1FBF2F2B0FB64
:10264000F2F0FFF791FC48B9102C07D20022214686
:102650004FF0FF30FFF751FCB46000E00125284641
:1026600070BD00BF74100020144810B5016841F41B
:10267000807101600320FFF736FC0020FFF7D2FFD6
:102680000024002814BF0124FEF721FD204610BDC0
:102690000B48806870470B48016849084900016091
:1026A00070470848016821F0020101607047054841
:1026B000016821F0040101607047000000400058EB
:1026C00074100020042004E07047000000B500BF33
:1026D000130096469446103928BFA0E80C50FAD84B
:1026E0005FEA417C28BF0CC048BF40F8042BC907F3
:1026F00028BF20F8022B48BF00F8012B00BD0000C6
:1027000080B5824A4FF400411160002000F078FA51
:1027100048B180797E497F4A0A600B6823F47C5374
:1027200043EA00230B6001BD18B57B487B4C89B0A0
:10273000016841F050010160CA227948C261532109
:10274000C161FF210268D208D2000260C1617548F0
:10275000026842F40042026000F066FA72480268C1
:10276000042161F30202026000F0A2FA6F49002026
:1027700000F0C3FB00F047FD0121012000F061FAE9
:1027800000F059F800F066F80FF2FD03012221462F
:102790000020FEF7E3FE00F0EFFD04F1080000F07A
:1027A000E5FE0FF271020021202000F0B2FF604C24
:1027B00060490FF23502009104F23C500290019200
:1027C000684600F033FE04F5C961049104F25470C8
:1027D000039040F23C510691059403A800F05FFE7F
:1027E00000F0C8FD0AB010BD1FB50446214652488E
:1027F00000F0C8FE607AFF2804BFB4F80B00B0F503
:10280000124F06D1684600F0FCFF0021202000F0A6
:102810008EFF1FBD80B500F08FFD0021012000F06C
:1028200010FA6946444800F0C3FE009800F050FEDC
:1028300001F028F801BD80B5002001F029FA01203F
:1028400001F026FA022001F023FABDE8024001203F
:1028500001F042BA80B50121002001F053FA0121B4
:10286000012001F04FFABDE804400121022001F0EF
:1028700049BA4FF0FF3000F0ADBE00F0F8B90128C2
:1028800008BF01F093B87047F8B52C4C234E04F5FF
:1028900080752888B0F5807F28D231780D2922D123
:1028A00017A1204601F09CFA04F5827710B94FF089
:1028B000B0500CE013A1204601F092FA08B920486C
:1028C00005E011A1204601F08BFA20B91D4868608F
:1028D000384601F09CFA002028804FF48071204691
:1028E000FFF77CFB02E02154401C2880314601B0F8
:1028F000BDE8F040144B01220020FEF72FBE00007F
:10290000535731005357320053573300104000588B
:102910009C000058FECAFECA9008005828150020E6
:10292000082800400800005880040058E4140020E3
:102930003C0003208F390008301500208C10002047
:10294000040000160600001689280008F8B50446A1
:102950000025ACB104F13406307910B92046FEF7F9
:10296000C5FB0F4F384600F021F8386840F00110E1
:102970003860204600F007F835600121317100E031
:1029800001252846F2BD10B50021064A064B00EB92
:102990008104491C06296360E261F8D310BD000080
:1029A000000C0058E31F0008BF1E00080021016052
:1029B0004FF03F1242603F238360704710B5040020
:1029C00001D1012010BD94F8210028B9002184F81C
:1029D00020102046FEF7A6FB022084F82100206884
:1029E000C168CA0635D4CA214162532022685062A8
:1029F00000F034F801001AD12168DFF894008A68E9
:102A000002408A6022689368606821690343A06974
:102A10000B43034393602068E1680161206801690A
:102A2000A26841EA02410161204600F057F8010026
:102A300009D12168CA6C22F00202CA642268D36CF0
:102A400061690B43D364FF22216803004A6204D109
:102A500000E00020012184F8211010BD20461BE079
:102A600038B504460B482168C860FFF729FA0546C7
:102A70002068C168880608D4FFF722FA401B40F29C
:102A8000E9318842F4D3032032BD002032BD00007A
:102A9000BFFF8FFF5F5F010070B50446002520680F
:102AA000C1684A0618D4C16841F08001C160FFF7CF
:102AB00007FA06460AE0FFF703FA801B40F2E93105
:102AC000884203D3042084F8210001252068C168CE
:102AD000480601D42800EED0284670BD38B504461B
:102AE00000252068C16821F08001C16020688168EC
:102AF000880607D42046FFF7B3FF18B1042084F8F6
:102B000021000125284632BD10B500F184010A7864
:102B1000012A01D1022010BD01220A7024234B603A
:102B20000268136814686408640014600022426636
:102B300023F000530068036020224A6000230B70DA
:102B4000002010BD70B500F01FF801D1022070BD4B
:102B500000F020F822F0604209E070B500F014F8AF
:102B600001D1022070BD00F015F822F0606211431F
:102B70008160204600F01CF8206806602021696012
:102B800000222A70002070BD044604F184052878D4
:102B9000012870470120287024226A602068066896
:102BA0000268520852000260206882687047000084
:102BB00030B5416E11B90122012114E0026800BF55
:102BC0000BA49168D2F808200BA3490E01F007016D
:102BD000520FA55C645C9A5C595CED00E40095FBC7
:102BE000F2F294FBF1F168304280018030BD0000C8
:102BF00001010103070100000804020408010101AA
:102C000020B501460648074D00E00838C2798A42DF
:102C100018BFA842F9D18A4218BF002020BD00BFCA
:102C2000F873FF1F0070FF1F1F4800210160416003
:102C3000704710B500F00FF81C6800F011F81C6028
:102C400006E010B500F007F85C6800F009F85C6079
:102C500082F3108810BDEFF3108272B6124B7047EA
:102C600019B1012902D1044370478443704738B534
:102C7000EFF3108472B60C490C4D086820B1296836
:102C800088476A6890470AE0486820B1A86880478A
:102C9000E968884703E0286980476969884784F3C1
:102CA000108831BD0000000048150020644800086D
:102CB0000248016841F4007101607047080400583F
:102CC000DFF804150A6892B200E00246086880B294
:102CD0008242FAD17047F0B5DFF8F054DFF8F034F3
:102CE0002E78182204465443B0421C4404D128785C
:102CF0006870627D2A700FE0267D607D94F815C0B3
:102D000003F115075643062807F806C004D0267DB0
:102D1000143312FB00F29E54012020732A78062AF5
:102D200002BF00294FF0FF30E860F0BD10B5DFF8BA
:102D30009C44E06810F1010F0ED0FFF7C1FFE1687D
:102D400081422FBFE268E168E2888A182179101A6F
:102D5000E2784843D04000E0002080B210BD2DE969
:102D6000F047DFF87084DFF87004D8F8006001687D
:102D70004A0502D5F0684107FCD4B068DFF84C740E
:102D8000DFF84CA420F48060B0604FF018093D7863
:102D90000AF1080019FB05F14458FFF7C7FF844208
:102DA00002D20024012105E039894118A14203D251
:102DB0003C890021B97013E00122241ABA700FE097
:102DC00019FB05F50AF108035F59874226BF5959D7
:102DD000091A00210AF1080251510AEB05014D7D43
:102DE000062DEDD1DFF8E473A0B238B9FFF768FF24
:102DF000F8600320BDE8F047FFF7C7B8022802DA01
:102E0000F878012800D0641EF0684107FCD5F0680E
:102E100000F06CF8F06000F029F9DFF8BC03C1683D
:102E200064F30F01C160FFF74BFFF860D8F80000B2
:102E3000816841F480618160AFF30080BDE8F08774
:102E40002DE9F843EFF3108472B6DFF88853DFF80A
:102E500080332A68CA205062532151629068DFF89B
:102E60006C1320F48060906018200E78374647433A
:102E70001F4497F80CC0BCF1020F26D1D7F8008090
:102E8000D7F810908878E8B17A7B012A0AD101211D
:102E90003046FFF720FF84F310887968304600F051
:102EA000EBF804E084F31088304600F09FF82868BF
:102EB000CA2141625322426231464246484600F0EE
:102EC000B5FF0EE0FFF74BFF09E0D0684107FCD5E6
:102ED000D06800F00BF8D0604FF40020086084F355
:102EE0001088FF2228684262BDE8F183DFF8EC1207
:102EF00000F0800060F490607047F8B5B54CB64DB6
:102F00002168CA224A6253234B624FF6FF7C2A682B
:102F100042F020022A602A68AB68AD681B0C03F0FF
:102F20007F03C5F30E055B1C6D1C6F1E1E4602F071
:102F3000070216FB07F6C2F10402A6F5A076D640FA
:102F4000A24F66452CBFA7F808C03E81FA703B71BE
:102F5000FD80A34A136843F400231360A14B1D684E
:102F600045F400251D6070BB0120B8704FF0FF31A3
:102F7000F96000209649002301F10C0418255FFA3E
:102F800080FC15FB0CFC401CC6B204F80C30062E6D
:102F9000F5DB062038708F4C2068816821F4806151
:102FA0008160C16801F0800161F49061C16003201B
:102FB0004FF40021D160FEF7F3FF2068816841F4EF
:102FC0008041816005E0C868410544BF0320FEF7E9
:102FD000DCFF2168FF204862002203210320FEF766
:102FE0008CFFBDE8F2400320FEF7A4BFF8B504460D
:102FF000EFF3108572B60320FEF7A7FF754E7A49EE
:103000003768CA2078625323224618207B624243E5
:103010008B5C022B21D100212046FFF75CFE6B4820
:103020000178062914D16C4801684A0502D5F86870
:103030004107FCD4B86820F48060B860F8684107A4
:10304000FCD5F868FFF752FFF86000F00FF804E0D5
:103050004078884218BFFFF782FE3168FF2048623F
:103060000320FEF767FF85F31088F1BD4FF40020C1
:1030700008600320FEF794BF2DE9F84F04468A4606
:1030800018252146524E69437718387B022804BF21
:103090002046FFF7ABFFEFF3108872B60320FEF770
:1030A00054FFDFF83091D9F80000CA214162532261
:1030B000426202203873C7F808A0C7F804A0DFF8FE
:1030C0000CA19AF80000062808D100F075F8787570
:1030D0004FF0FF31CAF80C10002056E0FFF726FE33
:1030E000B9680918B96006F10803B9689AF80020B0
:1030F0006A439A5891422AD39AF8002004E006F1D4
:10310000150E6A431EF8022006F1150315FB02FC9A
:1031100013F80C30062B06D006F1080C6B435CF854
:1031200003309942EBD21146694306F1150E1EF8A1
:103130000130062B05D006F1140C15FB03F50CF835
:1031400005407B753A7506F1150254541DE09AF856
:1031500000109AF800C0614515FB01F20FD006F18E
:10316000140B06F1150C1BF8023015FB03F50CF8D7
:10317000054079753B7506F114018C5403E006F1A6
:10318000140379759C5400F017F89AF800109AF817
:1031900001208A4202D0FFF7E2FD02E0B968081A76
:1031A000B860FF20D9F8001048620320FEF7C2FE85
:1031B00088F31088BDE8F18F9AF800108AF80110A2
:1031C0008AF8004070470000282800403815002089
:1031D00038130020E4140020082800400C08005890
:1031E0000008005880080058441300204B4900E0B4
:1031F0004B4981B00A6802430A60096808400090A0
:10320000009801B07047F8B58AB0142105A8FEF700
:10321000E5FE0022079203214FF4604206910592D9
:103220000120FFF7E3FF05A94FF09040FFF722F9D7
:103230003A4D3C4C296849084900296018200590FE
:1032400000260220FFF7D2FF05A900F072F82868D7
:1032500020F0020028600025FFF71DFAFFF721FA91
:10326000FFF725FA14216846FEF7B8FE0027002173
:103270002D4A02EBC102907980B11368B3F1904FEF
:103280000AD0A34205D02948834207D1908807433A
:1032900004E09288164301E090880543491C2629E2
:1032A000E6DB012101910020032229000290039214
:1032B00011D000950120FFF799FF0120FFF798FF3B
:1032C00069464FF09040FFF7D5F8002229464FF0AD
:1032D0009040FFF789F930000DD000960220FFF7EB
:1032E00085FF0220FFF784FF00F022F8002231461C
:1032F0002046FFF779F938000ED000970420FFF739
:1033000075FF0420FFF774FF084C00F011F800224D
:1033100039462046FFF768F90BB0F0BD4C00005865
:103320004C01005800040048D84300080008004839
:1033300069462046FFF79EB800B587B04FEA0D00FA
:1033400005A11C2200F074FD00F0DFF8684600F0D3
:1033500049FA07B000BD00000000000000000000B6
:1033600000000000D8430008280003202C000320A0
:103370002604040000F0E9BD72487349016001F1C0
:103380002002426001F13003836001F140020262D9
:1033900001F14803436201F15002C26001F1580398
:1033A000036101F17402426101F1780383618431A8
:1033B000C16100F0E8BD38B50446644D284600F010
:1033C000D5F860494868A1680160E2686049C26058
:1033D0004160856000F0F3FD5E4835E080B55948F6
:1033E0004268136801211972406800F0F0FD002066
:1033F00002BD38B5574C554D04E000F04CF800982C
:1034000021688847284600F0B4F80028F5D031BD7F
:1034100080B54C484268D36802211972406800F0B8
:10342000DBFD002002BD4B494868004738B5044623
:10343000494D284600F09AF84249C868A1680160E1
:10344000456000F0D4FD4548216801606268426033
:10345000002032BD80B53B48C26813681021197244
:10346000C06800F0CFFD002002BD36483B4AC1686D
:10347000C36811681868084738B5384C364D04E001
:1034800000F009F8009861688847284600F071F854
:103490000028F5D031BD6946284600F089B838B516
:1034A00004462F4D284600F061F82E4800F05EF8E3
:1034B00024480069A1688160E268C26005612168F2
:1034C000016062684260216941616269826131BD67
:1034D00080B50146234800F055F8BDE802400FF2E0
:1034E000090000F09DBD000038B5164C1D4D06E0EA
:1034F000FFF7D1FF00992069006900F043F82846E2
:1035000000F037F80028F3D031BD10B5164C204636
:1035100000F02CF80B4948690460BDE8104000F049
:1035200098BD1CB5104C06E06946204600F040F8F6
:10353000009800F0A9FD204600F01BF80028F3D009
:1035400013BD000000000320C00A0320600B03200D
:10355000B00A032058150020680B032060150020D6
:10356000500B032050150020580B032000604060D2
:103570007047EFF3108172B6026882420CBF0120DF
:10358000002012E0EFF3108272B6086043684B60CF
:103590004160486801601AE0EFF3108172B642683A
:1035A0000368136002684368536081F310887047B2
:1035B00010B5EFF3108472B602680A600168FFE785
:1035C0000846FFF7E9FF84F3108810BD0B6082F313
:1035D000108870472DE9F84F764CDFF8DC912569AB
:1035E000284020614FF0FF3AA06800904FF0010B97
:1035F0006669E768D4F8188019E062680BFA01F18F
:1036000022EA010161606668804760680640666082
:10361000E06900F03AFDA06800906669E768D4F8B8
:103620001880E169206A0BFA01F1084320620098D2
:1036300022693840104250D016EA080F4DD10020C0
:1036400007EA020100E0401C54F830301942FAD079
:1036500054F8301004EBC003394058680A40104257
:1036600008BFC3F804A0A068D4F820C059686CEA69
:10367000010C20EA0C0012EA000118BF0A4608B942
:103680004FF0000C5868C4F820C0104000F096F8C5
:10369000E061EFF3108172B60BFA00F2A068D2433A
:1036A0001040A060012004EBC003401E53F808CC7A
:1036B00002EA0C0C43F808CCF5D181F31088E069DC
:1036C00000F0E4FCE169202903D259F82100002828
:1036D00093D1002000F0DBFCA9E7C4F81CA0A0698E
:1036E000064213D100F0D4FCEFF3108672B6A26844
:1036F0006169E068236902401A4202BFA069014281
:10370000FFF7BBF886F3108800F0C3FC2561BDE825
:10371000F18F38B5144600F006F8274941F82040EB
:1037200085F3108831BDEFF3108572B646E030B5F1
:10373000EFF3108272B61F4B9C6804439C6053F8F1
:103740003150284343F8310082F3108830BDD060F7
:1037500081F310887047EFF3108172B6154A5369F0
:1037600018435061F4E72DE9F041124DEE6904462B
:10377000374616F1010F0EBF0026012000FA06F6AB
:10378000D5F81880AC6103E02146304600F082FC99
:1037900068692042F8D0EF61EFF3108072B6696972
:1037A00021EA04046C6180F31088C5F81880BDE834
:1037B000F081000044100020C8130020B0FA80F00F
:1037C000C0F11F00C0B2704700F015FA9DF80E005E
:1037D00005B000BDF8B500F10C026B462F214FF685
:1037E0006640F1E7F8B500F10C026B460F214FF689
:1037F0006840E9E7F8B502466B4610214FF6754080
:10380000E2E7F0B51C491D4B0A681D49C2F30D02E1
:1038100001EB82010D682A689A4205D16969AA699B
:10382000EB69EC682D6905E02E4631697269B36970
:103830007468B5680E0E06700F0C47700E0A86701D
:103840000272C1F3031601F00F010171C670110E6F
:103850004171160C110AC171220C210E8172C272C3
:10386000240A290E2A0C86714372047341738273F1
:10387000C5730020F0BD00003C400058B95646A971
:103880000000032018B597B06C46002000210022EC
:10389000002384E80F0008A8DFF8AC13DFF8AC437E
:1038A0003C2200F0C5FA2068DFF8A4430FF22D3265
:1038B00004924FF6FC7101EA8001DFF89803411889
:1038C000E160DFF89403069000F58671079104A883
:1038D0000FF221310591FFF76EFD01210220FFF764
:1038E000B0F901210220FFF7A4F90020E070A070D8
:1038F0000F208DF80000DFF864030168090CADF8B3
:103900000C100068C0F30B00ADF80E006846FFF71E
:1039100071FF08B1FEF707FD08A8FFF75BFF08B1CC
:10392000FEF701FD0FF22D1200210820FFF7F1FE36
:10393000DFF82C2300210120FFF7EBFE0FF29902A4
:1039400000211020FFF7E5FEC64A00210220FFF704
:10395000E0FEC54A00210420FFF7DBFE0120607075
:103960000021A16004F11800FFF700FEFEF793FCB0
:1039700004F1100000216060217001220FF2291370
:1039800004F110010020FDF7E9FD18B010BD80B56D
:10399000AF4A917831B1002393700120BDE8024015
:1039A000FFF7D9BE014602F118001BE110B5A84C83
:1039B000E07830B9012000F094F90121E170002194
:1039C00005E0012000F088F90020E0700121BDE849
:1039D00010400220FFF72DB938B5EFF310849C4D4D
:1039E0006878012835D100226A7005F1080105F1D7
:1039F0001800FFF7DDFDA868E978A9B9007A0FF291
:103A0000A913022872B6A86804D1B0F80B20521D81
:103A100092B201E0827AD21C00F108010020FDF789
:103A2000A8FD84F3108831BD0121EA68697011692D
:103A30008A68904205D3C9681144884238BFFFF7AD
:103A400047FD05F11800FFF794FD10B9BDE83440BB
:103A5000CCE031BD10B5854CB4F809004FF660528A
:103A6000811A04D0491E06D0491E08D00BE020461A
:103A700000F014FB11E0204600F04EFB0DE0204664
:103A800000F06FFB09E0A0810E210120A073E0721D
:103A90006172212020720420A07221467448FFF731
:103AA00071FDBDE81040A1E0F8B5694D69682A785C
:103AB000002400201AB1022A64D013D358E00978F8
:103AC000012905D0022907D0102918BF202907D1C4
:103AD0000120287003244BE001202870042447E0D3
:103AE000012445E00E78E868022E11D0102E02D095
:103AF000202E03D01CE0CC78C0681BE0CC785B495A
:103B000005F1100001F10807026841F8082F18E0DC
:103B10004068CA780979C36802EB012403F10807F9
:103B2000052205F11001384600F082F9052009E070
:103B3000CC784068016805F1100001F108070168C0
:103B40003960042021006F6002D002222A700FE049
:103B5000022E25D0102E1DD0202E1ED00021012097
:103B6000FFF7E5FD002005F11001287001246960D0
:103B7000224601B069683F4BBDE8F0400144002097
:103B8000FDF7ECBC087802280AD0102802D02028C3
:103B900003D0E3E700210220E2E700210820DFE76D
:103BA00000210420DCE7000010B5294CE168012069
:103BB00060700969A0688A68904205D3C968114499
:103BC000884238BFFFF784FC04F11800FFF7D1FCEE
:103BD00010B9BDE8104009E010BD000080B50146F5
:103BE000234800BFFFF7CEFCBDE8044000211020B1
:103BF000FFF79DBD704770B51446144A144E126805
:103C00001D460123B3704FF6FC7303EA8203114A89
:103C1000D3180A46DE683668A6F80900F17206F184
:103C20000C00214600F004F900210020FFF712FCEF
:103C30000120FFF798FD314605F10800B278BDE894
:103C40007040D21C00F0F4B8644600083C400058B4
:103C500008150020000003209C080320002004E039
:103C6000DD33000855340008113400089811002095
:103C700020150020A93A0008494981B00A6802438A
:103C80000A60096808400090009801B07047000081
:103C900078B585B0044600F07EF80220FFF7ECFF0F
:103CA00047A1404E31F814500095012101910022A6
:103CB000022102920391694656F82400FEF7DAFBCE
:103CC00000F004F8002006B070BD000056F8240093
:103CD00000222946FEF788BC10B500F00BF801223F
:103CE00003E010B500F006F80022FEF77DFC00208E
:103CF00010BD000032A42B4B34F8101053F82000F4
:103D000070470000F0B585B004460D4600F043F85A
:103D1000200005D0012C08BF102002D0022C02D1B7
:103D20000120FFF7A9FF00BF27A11F4E31F81400A3
:103D300000900121022206EB840702910392386869
:103D40002DB9002101916946FEF794FB20E04FF464
:103D50000411019106EBC4056946FEF78BFB00BF19
:103D60001CA050F8241005F1240000F04AF8FA686D
:103D7000002105F1240000F03DF800BF14A0045715
:103D8000B96900222046FEF7B8F82046FEF7D2F8BF
:103D9000002005B0F0BD14210022684600F03EBAB4
:103DA0004C0000586810002008100020002000F08F
:103DB0003EBA012000F03BBA022000F038BA000001
:103DC000200001000200000001001000400000007F
:103DD000060A170000000016040000160600001670
:103DE00010F8012B11F8013B0AB19A42F8D0D01A11
:103DF000704700000346002009B95A60704701204F
:103E0000704708B9012070470160002070470068C2
:103E10000549C0F300425201012300F01F0003FADC
:103E200000F0885070470000080800581047000054
:103E30004AB1000011F8013B521E00F8013B1CBFC3
:103E400011F8013BF8E77047C0680840884201D18B
:103E50000120704700207047C0690840884201D1A6
:103E6000012070470020704710B57E4C022120468B
:103E7000FFF7F2FF38B16068C043810703D5FFF751
:103E8000FBFA022018E001212046FFF7E5FF38B1D8
:103E90006068C043C10703D5FFF7ABFA01200BE010
:103EA00008212046FFF7D8FF38B16068C0430107FA
:103EB00003D5FFF736FB0820A06010BD10B5694C94
:103EC00002212046FFF7C0FF70B96068C04382033B
:103ED0000AD500F035F841F40031616080F31088B4
:103EE000BDE81040FFF7C1BA08212046FFF7ACFF3C
:103EF00088B96068C04302030DD500F021F841F491
:103F00000021616080F310885749086880474FF4AA
:103F10000022A26010BD20212046FFF795FF70B956
:103F20006068C04382020AD500F00AF841F400112B
:103F3000616080F31088BDE81040FFF774BA10BDCF
:103F4000EFF3108072B661687047484881B001682D
:103F500041F480110160006800F480100090009826
:103F60004348016841F4007101604248026842F42C
:103F70000072026040BF20BF3F48016841F4004129
:103F8000016001B0704780B53C48016841F4801180
:103F90000160006800F480100090009831480168CA
:103FA00041F001010160026842F4803202602C207D
:103FB000FDF7C0FFBDE802402D20FDF7BBBFEFF3CA
:103FC000108072B62E490A685208520016E02D4938
:103FD0004FF480300860704729484FF40011416069
:103FE000EFF3108172B6026822F4001214E0EFF3CE
:103FF000108072B622490A6822F002020A6080F339
:10400000108870471E484FF400314160EFF3108173
:1040100072B6026822F40032026081F310887047A1
:1040200038B504460F4D08212846FFF70DFF58B15B
:104030000D480460EFF3108072B6696821F4002126
:10404000696080F3108831BDA0474FF40020A8605C
:1040500031BDEFF3108072B609490A6822F00802F8
:10406000CCE70000000C00586815002050010058F3
:1040700020080058D40800580C040058500000587C
:10408000040C0058080C0058704770477047704780
:1040900070477047C043FFF79DBA000070B5EFF35B
:1040A0001081027B012A02D0022A07D00DE000F025
:1040B00027F81B7800F01FF814700CE000F020F8CF
:1040C0001B8800F018F8148005E000F019F81B6850
:1040D00000F011F8146081F3108821210E22017282
:1040E000427204214FF660528172828100210122C6
:1040F0008173C27270BD23EA040435402C437047BB
:1041000072B6D0F81120D0F81130D0F80D40D0F8A8
:104110001550D0F80D60704781B0017B012902D0A5
:10412000022904D007E0D0F80D10097806E0D0F895
:104130000D10098802E0D0F80D10096800912122C5
:1041400002720E2108228272417201224FF66151E1
:10415000C272002381818373009A40F80F2F01B04F
:10416000704738B52749284D096804464FF6FC705A
:1041700000EA81002D180E206072212121724FF675
:104180006250A0814221A1720020A0730121E1723E
:104190001E480168090CA4F80F100068C0F30B005A
:1041A000A4F811001A4801781A4801F01F01E174BF
:1041B000416821754168090AC4F815100168C4F8FE
:1041C00019100169C4F81D104169C4F821108169F2
:1041D000C4F8251004F12901286802680A600C223D
:1041E0002B68191D04F12D00FFF722FE296810220B
:1041F000103104F13900FFF71BFE07480168C4F8CD
:10420000491031BD3C40005800000320002004E06C
:104210000075FF1F8075FF1F244900084018491CC6
:104220001CBFB1F1010100F8012DF9D170477047B1
:104230004E490A68920840EA8200086070474B487D
:10424000006800F00C00704700EB81024849D2F88A
:104250008000884201D0012070470020704780B55F
:1042600000F0AAF84348016841F40001016000F041
:104270005FF84148092181610321026800F00EF8CE
:10428000016001BD704780B500F096F800F050F86D
:1042900039480268012100F001F844E061F30202AC
:1042A00002603648016841F00401704738B5344C6B
:1042B0004FF48065256100F02CF80028FBD14FF009
:1042C000B040816801F00C0104291DD1016841F45E
:1042D0008031016001212B48026861F30202026013
:1042E000036803F00703012BFAD14FF0B0400168D7
:1042F0008903FAD50221826861F301028260816834
:1043000001F00C010829FAD1E560BDE8314000F068
:104310005BB80321204697E780B500F04DF81748B9
:10432000016821F00401016030BF01BD00F04CB80C
:1043300070B5134CFFF7EDFF0028FBD10421FFF708
:10434000E9FF104D4FF4806638B90F480168090441
:1043500002D40068400506D5266100F017F82868E9
:10436000C008C0002860E66070BD0000080000586A
:1043700000040080940000580004005810ED00E094
:1043800000140058004000588804005810B54FF041
:10439000B044206840F48070206020684105FCD55E
:1043A0000120FFF745FF606A800880006062FFF728
:1043B00046FF0428FBD110BD0248016821F002012C
:1043C0000160704710E000E00248016841F002011E
:1043D0000160704710E000E00000004801000000AC
:1043E000000000480100000000000048010000003B
:1043F000000000480100000000000048010000002B
:10440000000000480100000000000048010000001A
:10441000000000480100000000000048010000000A
:1044200000000048010000000000004801000000FA
:1044300000000048010000000000004801000000EA
:1044400000000048010000000000004801000000DA
:1044500000000048010000000000004801000000CA
:1044600000000048010000000000004801000000BA
:1044700000000048010000000000004801000000AA
:10448000000000480100000000000048010000009A
:10449000000000480100000000000048010000008A
:1044A000000000480100000000000048010000007A
:1044B000000000480100000000000048010000006A
:1044C000000000480100000000000048010000005A
:1044D000000000480100000000000048010000004A
:1044E000000000480100000000000048010000003A
:1044F000000000480100000000000048010000002A
:10450000000000480100000001000000030000005E
:10451000050000000100000001000000060000008E
:104520000A0000002000000002000000040000005B
:1045300008000000100000004000000080000000A3
:104540000001000000020000A0860100400D0300F1
:10455000801A060000350C0040420F0080841E00C7
:1045600000093D0000127A000024F40000366E01BC
:104570000048E801006CDC020000000000000000C0
:1045800000000000000000001349002008604FF008
:10459000B0411248026842F4700202604FF4E02316
:1045A000086840F0010008608B600A680C4802400F
:1045B0000C480A60036823F0050303604268520850
:1045C000520042600848C86000200A6822F4802235
:1045D0000A6088617047000008ED00E088ED00E0A7
:1045E000FBFEF6FA9400005800100422FEE7FEE7F6
:1045F000FEE7FEE7FEE770477047704700F01CB823
:10460000FEF71EBC0248FCF7FEBE0248FBF75BBE8D
:1046100048140020A4120020FFF726BCFFF74EBC70
:1046200000F012B80120FDF7E4BF1020FDF7E1BF54
:104630004020FDF7DEBF00000248416802788A187A
:1046400042607047741000200449C8680A688243B9
:104650000A60486000F004B800000000001500582F
:104660007047000000000000000000000000000093
:1046700000000000000000001E0004000A05030105
:1046800012319C00F4010000FFFFFFFF48010118F8
:104690000020D80600039E01000000000D00040069
:1046A00000F01AF801280CD08AB008488047084862
:1046B00000472DE9F05F074C6B462360BFF34F8F37
:1046C00030BF044C2468A546BDE8F09F894500082A
:1046D000494800087415002002490020086070470E
:1046E000000000007815002030B4002512E050F8DA
:1046F000042BD30744BF4A44521E091F042942F821
:10470000045BFAD213468C0744BF15809B1CC90773
:1047100048BF1D7050F8041B0029E8D130BC704719
:1047200010B500F013F8020000230024E4431068E1
:10473000A04203D011000220ABBE13605068A0421B
:1047400003D0111D0220ABBE536010BD004870475E
:104750008010002010B5074979441831064C7C447C
:10476000163404E00A68081D114488470146A14236
:10477000F8D110BD2C000000680000004EF68851F2
:10478000CEF20001086840F470000860BFF34F8F5C
:10479000BFF36F8F4FF00170E1EE100A7047000019
:1047A00049FFFFFFF00400008C100020840A000085
:1047B0003C000320000000007BCDFFFF1400000040
:1047C000BC000000280003200000000067CDFFFFB0
:1047D00084000000540100000810002000000000C8
:1047E00000000000000000000000000000000000C9
:1047F00001000000020000000300000004000000AF
:1048000000F00DF8002801D0FFF7A4FFAFF30080FF
:104810000020AFF30080FDF7C0FC00F002F801209B
:10482000704700F001B800000746384600F002F873
:10483000FBE7000080B5FFF773FF024A1100182064
:10484000ABBEFBE7260002000548014603B46846FC
:1048500080F30988AFF30080FFF790FFFFF7D0FFE8
:10486000A5EDF5FE194300082D4300088742000816
:10487000AD4200085F4200088542000800000000C9
:104880000000000000000000000000000000000028
:10489000FFF7FEBFFFF7FEBFFFF7FEBFFFF7FEBF4C
:1048A000FFF7FEBFFFF7FEBFFFF7FEBFFFF7FEBF3C
:1048B000FFF7FEBFFFF7FEBFFFF7FEBFFFF7FEBF2C
:1048C000FFF7FEBFFFF7FEBFFFF7FEBFFFF7FEBF1C
:1048D000FFF7FEBFFFF7FEBFFFF7FEBFFFF7FEBF0C
:1048E000FFF7FEBFFFF7FEBFFFF7FEBFFFF7FEBFFC
:1048F000FFF7FEBFFFF7FEBFFFF7FEBFFFF7FEBFEC
:10490000FFF7FEBFFFF7FEBFFFF7FEBFFFF7FEBFDB
:10491000FFF7FEBFFFF7FEBFFFF7FEBFFFF7FEBFCB
:10492000FFF7FEBF00010000000000480010004833
:1049300000000048AD3D0008B33D0008B93D000847
:104940000F0000000F0000000F000000000000003A
:104950000000000000000000000000000000000057
:104960000000000000000000000000000000000047
:10497000FFFFFFFFFFFFFFFF00000000000000003F
:10498000000000000000000000040048000400488F
:1049900000040048010000000000000010000000BA
:0C49A000FFFFFFFFFFFFFFFF00093D00CD
:04000005080048495E
:00000001FF
